:100000000C94DD000C9405010C9405010C94050181
:100010000C9405010C9405010C9405010C94050148
:100020000C9405010C9405010C9495030C940704A1
:100030000C9405010C9405010C9405010C94050128
:100040000C9405010C9405010C9405010C94050118
:100050000C9405010C9405010C9405010C944506C3
:100060000C9405010C9405010C9405010C940501F8
:100070000C9405010C9405010C9405010C940501E8
:100080000C9405010C9405010C9405010C940501D8
:100090000C9405010C9405010C9405010C940501C8
:1000A0000C9405010C9405010C9405018407870745
:1000B00076077A077E07A807A807A8078B078F0788
:1000C000930799079D07A807A307000000002400D5
:1000D00027002A002D003000000000002500280025
:1000E0002B002E0031000404040404030405020262
:1000F00002020403020202020606060606060404C1
:100100000202020404040802011040804010204052
:1001100080408008020401804020100201108010FD
:10012000204040200000000200090F0000030401ED
:10013000000C0000000000000000000000000000B3
:10014000000000080B000202020100090400000187
:10015000020200000524001001052401010104240D
:10016000020605240600010705810310004009046A
:100170000100020A00000007050202400000070516
:1001800083024000000403090412010002EF02018F
:100190004041233680000101020301417264756908
:1001A0006E6F204C4C430041726475696E6F204C39
:1001B000656F6E6172646F008F0611241FBECFEFF2
:1001C000DAE0DEBFCDBF11E0A0E0B1E0E0EBFFE0A0
:1001D00002C005900D92A632B107D9F721E0A6E240
:1001E000B1E001C01D92A539B207E1F710E0CDEDF5
:1001F000D0E004C02197FE010E94CB07CC3DD1077F
:10020000C9F70E94A4060C94D6070C940000209114
:100210009401211103C08FEF9FEF08955FB7F89409
:1002200022E02093E9002091F20030E0121613063C
:1002300014F421E030E0422FFC0184E6415038F014
:100240002898809393019091F1009193F7CF211515
:10025000310521F08091F200882319F05FBFC901B8
:1002600008958BE68093E800F9CF2FB7F89483E0E8
:100270008093E9009091E800892F807295FF04C077
:100280009091F20080E4891B2FBF0895CF92DF92F6
:10029000EF92FF920F931F93CF93DF936C017A013C
:1002A0008B01C0E0D0E0CE15DF0581F0D8016D9163
:1002B0008D01D601ED91FC910190F081E02DC601F8
:1002C0000995892B11F02196EECF7E01C701DF91B0
:1002D000CF911F910F91FF90EF90DF90CF900895F5
:1002E00080918B0181110DC082E08093870184E0B1
:1002F0008093880110928A011092890181E0809395
:100300008B0187E891E00895CF93DF931F92CDB7DB
:10031000DEB76983DC01ED91FC910280F381E02D71
:1003200041E050E0BE016F5F7F4F09950F90DF9174
:10033000CF91089583E08093E9008091F2008823B3
:1003400019F08AE38093E80008950E94350190E057
:100350000895CF93DF931F92CDB7DEB7FC0184855C
:10036000958597FD05C02FEF3FEF358724870BC09C
:10037000CE0101960E940701019719F4898190E04E
:1003800002C08FEF9FEF0F90DF91CF9108950F93F1
:100390001F93CF93DF931F92CDB7DEB78C01FC0183
:1003A0008485958597FF0EC0CE0101960E940701B6
:1003B000019719F4898190E002C08FEF9FEFF80157
:1003C00095878487F801848595850F90DF91CF917B
:1003D0001F910F910895FC018485958597FD0BC0B1
:1003E0009FB7F89482E08093E9008091F2009FBF6C
:1003F00090E0019608959FB7F89482E08093E90019
:100400008091F2009FBF90E00895089580E090E011
:100410000895409131015091320120912F01309186
:10042000300142175307B4F49091E8009570E1F35E
:100430009091E80092FD19C08093F1008091310104
:100440009091320101968F739927892B19F48EEFC1
:100450008093E80080913101909132010196909350
:1004600032018093310181E0089580E00895DF92A8
:10047000EF92FF920F931F93CF93DF93D82EF92E15
:10048000E42E062F10E0C8010196880F0E94090291
:1004900083E00E940902CD2DDF2D0C0F1D1FC01718
:1004A000D10789F0E7FE03C0FE01849101C0888175
:1004B0000E940902F82E80E00E9409028F212196F5
:1004C0008111EDCF01C081E0DF91CF911F910F919C
:1004D000FF90EF90DF900895DF92EF92FF920F93DD
:1004E0001F93CF93DF93D82E8A017B01E40EF51E74
:1004F000EB01CE15DF0571F0D7FE03C0FE0184913C
:1005000001C088810E94090221968111F2CF8FEFEC
:100510009FEF01C0C801DF91CF911F910F91FF9014
:10052000EF90DF9008950F931F93CF93DF931F9267
:10053000CDB7DEB782E0898342E450E063E471E046
:1005400080E80E946C020E947001DC0112960D91FD
:100550001C9113970115110589F0D801ED91FC91BB
:100560000280F381E02DBE016F5F7F4FC8010995C6
:1005700097FD04C0F80100851185ECCF89810F90AB
:10058000DF91CF911F910F910895615030F020912C
:10059000F100FC0120830196F8CF289884E680932F
:1005A000930108953FB7F89480912B0190912C010D
:1005B000A0912D01B0912E0126B5A89B05C02F3F1B
:1005C00019F00196A11DB11D3FBFBA2FA92F982F79
:1005D0008827820F911DA11DB11DBC01CD0142E0F4
:1005E000660F771F881F991F4A95D1F70895CF92FC
:1005F000DF92EF92FF920E94D2026B017C010E9477
:10060000D202DC01CB018C199D09AE09BF09883EDD
:100610009340A105B10598F3FF90EF90DF90CF9044
:1006200008958F929F92AF92BF92CF92DF92EF92F6
:10063000FF920F931F93CF93DF936C017B018A018D
:1006400080910B01882309F458C08091940188237C
:1006500009F453C08091360180FF05C08091E0000D
:1006600082608093E000E801B12C8AEFA82E93E02D
:10067000892E2AE3922E209711F4BB20B9F10E9413
:100680003501811106C0AA94AA20B9F10E94F7028F
:10069000F2CF282F30E0C217D3070CF48C2F9FB76E
:1006A000F8948092E9002091E80025FF1DC0282FD2
:1006B00030E0C21BD30BF701815020F041914093F1
:1006C000F100FACFE20EF31EBB2019F09092E80081
:1006D0000AC08091E80085FD07C09092E800BB2425
:1006E000B394209709F0B12C9FBFC5CF5D9884E6E5
:1006F000809335011016110644F081E090E0F60178
:100700009383828380E090E001C0C801DF91CF91A4
:100710001F910F91FF90EF90DF90CF90BF90AF901F
:100720009F908F9008950E94D1071F920F920FB64D
:100730000F9211248F939F938091E1009091E1009B
:10074000937F9093E10083FF0FC01092E90091E046
:100750009093EB001092EC0092E39093ED001092D6
:10076000940198E09093F00082FF20C093E0909372
:10077000E9009091F200992319F09AE39093E80030
:1007800090913501992339F09091350191509093D2
:100790003501992389F190919301992339F0909132
:1007A0009301915090939301992341F184FF10C0DC
:1007B0008091E2008E7E81608093E2008091E10072
:1007C0008F7E8093E100809136018E7E806111C022
:1007D00080FF16C08091E2008E7E80618093E200EF
:1007E0008091E1008E7E8093E100809136018E7EC3
:1007F00081608093360104C05D9ACDCF289AD6CF10
:100800009F918F910F900FBE0F901F9018951F9280
:100810000F920FB60F921124CF92DF92EF92FF92B8
:100820000F931F932F933F934F935F936F937F93F8
:100830008F939F93AF93BF93EF93FF93CF93DF93E8
:10084000CDB7DEB76C97DEBFCDBF1092E9008091C7
:10085000E80083FFFBC168E0CE0145960E94C50217
:1008600082EF8093E8008D8987FF05C09091E800B2
:1008700090FFFCCF03C09EEF9093E800982F9076F6
:1008800009F0C6C09E894F89588D2F89F88C911127
:100890000CC0803829F4809134018093F10002C0AB
:1008A0001092F1001092F10045C1913051F4811184
:1008B00041C14130510509F03DC1809134018D7F26
:1008C0000BC0933061F4811135C14130510509F0FD
:1008D00031C1809134018260809334012BC1953005
:1008E00049F48091E80080FFFCCF822F80688093DC
:1008F000E30020C1963009F05EC00B8D1C8D22E014
:100900001092E9001092320110923101F21232C0BD
:100910001092300110922F010E94930299E0BE01C3
:100920006F5F7F4FDB01E92F1D92EA95E9F799830D
:10093000FA8291E09E8390EA98879AEF99872091B6
:10094000310130913201275F3F4F3C832B838D83F0
:100950001092E9001092320110923101109330018F
:1009600000932F0149E050E080E00E946C020E9459
:100970009302E0C01093300100932F010E94700198
:10098000DC0112960D911C9113970115110509F4C4
:10099000BBC0D801ED91FC910480F581E02DBE0132
:1009A0006B5E7F4FC8010995009709F0C7C0F80139
:1009B00000851185EACF973009F445C1983021F4BC
:1009C00081E08093F100B6C0993009F0B3C0837024
:1009D00009F039C1EDE0F1E081E031E096E32081FA
:1009E000211109C08EE78093EA001092EA008F89F6
:1009F000809394019FC08093E9003093EB00219194
:100A00002093EC009093ED008F5F873041F7EACFA1
:100A10008B8D9C8D1092E900109232011092310161
:100A20009093300180932F01898D811153C08E895D
:100A30009D89913A49F4813209F005C147E050E0BF
:100A400064E071E080E0BBC0913209F0FCC0833209
:100A500069F48F89988DA0E0B0E0809300019093B5
:100A60000101A0930201B093030164C0803269F4D4
:100A70008091E80082FFFCCF67E084E091E00E9473
:100A8000C5028BEF8093E80055C0823209F052C056
:100A90008F8980930B01EEEFFFE7859194918B3F57
:100AA0009C4D19F0E0E0F8E002C0EEEFFAE0809132
:100AB000040190910501A0910601B0910701803BCE
:100AC0009440A105B10509F09EC080910B0180FF03
:100AD00079C099C00E947001FC0102811381011547
:100AE000110509F4B0C0D801ED91FC910190F0819D
:100AF000E02DBE016B5E7F4FC801099581111AC0C0
:100B0000F80100851185EBCFF1E0FF1609F44EC026
:100B1000F3E0FF1298C08F89882309F44AC082301D
:100B200089F440E860E187EA91E00E943702882377
:100B300009F489C08EEF8093E80088C01816190662
:100B4000CCF381C0813029F440E86BE08BE991E07F
:100B5000ECCF833009F077C00E947001DC0112965F
:100B6000ED90FC9013978E010F5F1F4F6801E11409
:100B7000F10479F0D701ED91FC910680F781E02D29
:100B8000B801C7010995080F111DF701E084F18430
:100B9000EECFD8011C92F60101900020E9F73197C1
:100BA000BF016C197D0940E0C601BFCF69E871E063
:100BB00002C065E871E0FB01449150E080E80E94CA
:100BC0006C02B8CFEE3F2AE0F20751F080819181AC
:100BD0008737A7E79A0721F09093FF0A8093FE0AD0
:100BE00087E797E79183808380916000809333014A
:100BF0009BE088E10FB6F894A895809360000FBE43
:100C00009093600097CF808191818737974709F053
:100C100091CFA89580916000886180936000809159
:100C2000330180936000EE3FBAE0FB0739F080911A
:100C3000FE0A9091FF0A918380837CCF1092FF0A75
:100C40001092FE0A77CF81E28093EB006C960FB68C
:100C5000F894DEBF0FBECDBFDF91CF91FF91EF9132
:100C6000BF91AF919F918F917F916F915F914F91C4
:100C70003F912F911F910F91FF90EF90DF90CF90B8
:100C80000F900FBE0F901F9018951F920F920FB6E6
:100C90000F9211242F933F938F939F93AF93BF9302
:100CA0008091270190912801A0912901B0912A01FA
:100CB0003091260123E0230F2D3720F40196A11D4A
:100CC000B11D05C026E8230F0296A11DB11D20937A
:100CD00026018093270190932801A0932901B093C6
:100CE0002A0180912B0190912C01A0912D01B091AE
:100CF0002E010196A11DB11D80932B0190932C0113
:100D0000A0932D01B0932E01BF91AF919F918F9130
:100D10003F912F910F900FBE0F901F901895E7E312
:100D2000F1E01382128288EE93E0A0E0B0E08483C9
:100D30009583A683B78387E191E0918380838FEFCA
:100D40009FEF958784870895789484B5826084BDE9
:100D500084B5816084BD85B5826085BD85B58160BF
:100D600085BD80916E00816080936E00109281003D
:100D700080918100826080938100809181008160F8
:100D800080938100809180008160809380008091B9
:100D900091008260809391008091910081608093A6
:100DA0009100809190008160809390008091C100BB
:100DB00084608093C1008091C10082608093C100F3
:100DC0008091C10081608093C1008091C3008160E7
:100DD0008093C3008091C00082608093C0008091A6
:100DE000C20081608093C20080917A008460809309
:100DF0007A0080917A00826080937A0080917A00F4
:100E0000816080937A0080917A00806880937A0074
:100E10001092940110923401109236018091D70003
:100E200081608093D70080EA8093D80089B5806183
:100E300089BD89B5826089BD09B400FEFDCF0E94DD
:100E4000F7028091D8008F7C80618093D8008091D8
:100E5000E000807F8093E0008091E1008E7E8093AF
:100E6000E1008DE08093E200559A209A02E111E0C2
:100E7000F8012491C3EFD0E0FE018491882399F01A
:100E800090E0880F991FFC01E653FF4FA591B491A4
:100E9000FC01E852FF4F859194919FB7F8948C9193
:100EA000822B8C939FBFE12CF12C60E0C7010E9444
:100EB000BD07FFEFEF1AFF0AE11484E0F806A9F777
:100EC000E1E3F1E08491F8010491FE01C491CC23A7
:100ED00009F44CC08823E1F190E0FC013197EF3038
:100EE000F105B0F5EA5AFF4F0C94CB0780918000D2
:100EF0008F7707C0809180008F7D03C08091800034
:100F0000877F8093800024C084B58F7702C084B52A
:100F10008F7D84BD1DC0809190008F7707C0809128
:100F200090008F7D03C080919000877F8093900018
:100F30000FC08091C0008F7703C08091C0008F7D6B
:100F40008093C00005C08091C200877F8093C2005B
:100F5000EC2FF0E0EE0FFF1FE852FF4FA591B49188
:100F60009FB7F8948C91082B0C939FBFC0E0D0E002
:100F70002097F1F30E940000FBCF262FF999FECFB6
:100F80001FBA92BD81BD20BD0FB6F894FA9AF99AA6
:100F90000FBE01960895EE0FFF1F0590F491E02D0E
:100FA000099481E090E0F8940C94D607F894FFCF70
:100FB000FFFFFFFF00E100000000000000C1808192
:100FC0000000000000000084011103A5019A01EB5C
:060FD00001A901C70100A8
:00000001FF
