:100000000C94D6000C94C3230C949C230C9475235D
:100010000C944E230C94FE000C94FE000C942723A9
:100020000C94FE000C94FE000C94E41F0C945320DE
:100030000C94FE000C94FE000C94FE000C94FE0048
:100040000C94FE000C94EA230C94FE000C94FE0029
:100050000C94FE000C94FE000C94FE000C94DD2227
:100060000C94FE000C94AB220C9485220C94FE00A0
:100070000C94FE000C94FE000C94FE000C94FE0008
:100080000C94FE000C94FE000C94FE000C94FE00F8
:100090000C94FE000C94FE000C94FE000C94FE00E8
:1000A0000C94FE000C94FE000C94FE000000000076
:1000B000240027002A002D00300000000000250049
:1000C00028002B002E003100000000002300260035
:1000D00029002C002F000404040404030405020278
:1000E00002020403020202020606060606060404D1
:1000F0000202020404040802011040804010204063
:10010000804080080204018040201002011080100D
:10011000204040200000000200090F0000030401FD
:10012000000C0000000000000000000000000000C3
:10013000000000080B000202020000090400000198
:10014000020200000524001001052401010104241D
:10015000020605240600010705810310004009047A
:100160000100020A00000007050202400000070526
:1001700083024000000403090412010002EF02019F
:100180004041233680000101020301417264756918
:100190006E6F204C4C430041726475696E6F204C49
:1001A000656F6E6172646F00B6247F2B11241FBED1
:1001B000CFEFDAE0DEBFCDBF14E0A0E0B1E0EAEFC0
:1001C000F8E602C005900D92A433B107D9F727E0F5
:1001D000A4E3B4E001C01D92AA31B207E1F710E038
:1001E000C5EDD0E004C02197FE010E948E31C43DD0
:1001F000D107C9F70E9490260C9470340C9400002B
:100200001F93CF93DF93182FC0911C05D0911D052C
:100210008A3041F4E881F9810190F081E02D6DE0B0
:10022000CE010995E881F9810190F081E02D612FDF
:10023000CE01099521E030E0019711F430E020E093
:10024000C901DF91CF911F910895CF93DF93C091A2
:100250001C05D0911D05E881F9810084F185E02D10
:10026000CE010995892BB9F3E881F9810284F385E0
:10027000E02DCE01DF91CF910994FC01A089B189D5
:1002800082E08C93A485B5851C92A685B7858FECFA
:100290008C93108EA489B58986E08C93A289B3894A
:1002A0008C9180618C93A289B3898C9188608C93A6
:1002B000A289B3898C9180688C930288F389E02DA0
:1002C00080818F7D80830895FC018091C104882303
:1002D00011F13FB7F89482E08093E9002091F20099
:1002E000822F90E01816190614F481E090E088231C
:1002F00039F0289844E64093C0044091F1004083CF
:10030000222339F02091F200211103C02BE6209323
:10031000E8003FBF08958FEF9FEF0895109281008E
:100320001092850010928400EFE6F0E080818D7FCE
:1003300080838FEF90E09093890080938800909362
:100340008B0080938A00109280001092BF04089561
:100350002FB7F89483E08093E9009091E800892F0B
:10036000807295FF04C09091F20080E4891B2FBF3A
:1003700008958091B70481110DC082E08093B30489
:1003800084E08093B4041092B6041092B50481E026
:100390008093B70483EB94E008954091AD045091AD
:1003A000AE042091AB043091AC0442175307B4F46F
:1003B0009091E8009570E1F39091E80092FD19C0EA
:1003C0008093F1008091AD049091AE0401968F73FB
:1003D0009927892B19F48EEF8093E8008091AD0462
:1003E0009091AE0401969093AE048093AD0481E0A9
:1003F000089580E00895DF92EF92FF920F931F938C
:10040000CF93DF93D82E8A01EB017B01E40EF51E1A
:10041000CE15DF0559F0D7FE12C0FE0184910E946F
:10042000CD0121968111F4CF0FEF1FEFC801DF91AD
:10043000CF911F910F91FF90EF90DF9008958881E9
:10044000EECF0F931F93CF93DF931F92CDB7DEB7FD
:1004500082E0898342E450E063E371E080E80E9437
:10046000FB010E94B901DC0112960D911C9101154E
:10047000110589F0D801ED91FC910280F381E02D06
:10048000BE016F5F7F4FC801099597FD04C0F80159
:1004900000851185ECCF89810F90DF91CF911F915D
:1004A0000F910895615030F02091F100FC012083FC
:1004B0000196F8CF289884E68093C0040895DC0163
:1004C000ED91FC910190F081E02D0994AF92BF92E3
:1004D000CF92DF92EF92FF920F931F93CF93DF9310
:1004E0006C017B018B01040F151FEB015E01AE183F
:1004F000BF08C017D10759F06991D601ED91FC9161
:100500000190F081E02DC6010995892B79F7C5018D
:10051000DF91CF911F910F91FF90EF90DF90CF90DF
:10052000BF90AF900895CF93C1E020E030E0A901E3
:10053000FC016789708D818D928D0E94432F8111FE
:1005400001C0C0E08C2FCF910895DC011296ED918F
:10055000FC9164817581868197810895FC01538D9A
:10056000448D252F30E0842F90E0821B930B54178D
:1005700010F0CF96089501970895FC01918D828D1A
:10058000981761F0A28DAE0FBF2FB11D5D968C91B3
:10059000928D9F5F9F73928F90E008958FEF9FEFF2
:1005A0000895FC01918D828D981731F0828DE80FAE
:1005B000F11D858D90E008958FEF9FEF0895FC0168
:1005C000918D228D892F90E0805C9F4F821B910935
:1005D0008F739927089584EB95E00E94DF0221E054
:1005E000892B09F420E0822F089580E090E0892B88
:1005F00029F00E94EB0281110C9400000895FC0187
:10060000A48DA80FB92FB11DA35ABF4F2C91848D73
:1006100090E001968F739927848FA689B7892C93D0
:10062000A089B1898C9182748C93938D848D981359
:1006300006C00288F389E02D80818F7D8083089534
:10064000EF92FF920F931F93CF93DF93EC0181E022
:10065000888F9B8D8C8D981319C0E889F9898081CA
:1006600085FF14C09FB7F894EE89FF896083E889FD
:10067000F9898081827480839FBF81E090E0DF915F
:10068000CF911F910F91FF90EF900895F62E0B8D53
:1006900010E00F5F1F4F0F731127E02E8C8D8E110E
:1006A0000CC00FB607FCFACFE889F989808185FF75
:1006B000F5CFCE010E94FF02F1CFEB8DEC0FFD2FA5
:1006C000F11DE35AFF4FF0829FB7F8940B8FEA8930
:1006D000FB8980818062CFCFCF93DF93EC01888D3F
:1006E0008823B9F0AA89BB89E889F9898C9185FDAD
:1006F00003C0808186FD0DC00FB607FCF7CF8C913B
:1007000085FFF2CF808185FFEDCFCE010E94FF02F1
:10071000E9CFDF91CF910895CF93DF931F92CDB7AB
:10072000DEB76983DC01ED91FC910280F381E02D5D
:1007300041E050E0BE016F5F7F4F09950F90DF9160
:10074000CF91089583E08093E9008091F20088239F
:1007500019F08AE38093E80008950E94A80190E0D0
:100760000895CF93DF931F92CDB7DEB7FC01848548
:10077000958597FD08C02FEF3FEF358724870F90B1
:10078000DF91CF910895CE0101960E9464010197F7
:1007900019F4898190E0F3CF8FEF9FEFF0CF0F93A3
:1007A0001F93CF93DF931F92CDB7DEB78C01FC016F
:1007B0008485958597FF0BC0CE0101960E94640148
:1007C000019771F4898190E0F80195878487F80199
:1007D000848595850F90DF91CF911F910F9108959A
:1007E0008FEF9FEFF1CFFC018485958597FD0BC0BE
:1007F0009FB7F89482E08093E9008091F2009FBF58
:1008000090E0019608959FB7F89482E08093E90004
:100810008091F2009FBF90E0089581508F3008F0E2
:1008200047C0E82FF0E0E95EFB4F0C948E313404B2
:10083000380426042C0430045804580458043B049B
:100840004104450449044F04580453048091800036
:100850008F77809380000895809180008F7DF9CFFD
:1008600080918000877FF5CF84B58F7784BD089510
:1008700084B58F7DFBCF809190008F77809390001F
:100880000895809190008F7DF9CF80919000877FAF
:10089000F5CF8091C0008F778093C000089580913C
:1008A000C0008F7DF9CF8091C200877F8093C20006
:1008B0000895CF93DF93282F30E0F901EC5EFE4FCF
:1008C0008491F901EB50FF4FD491F901EA52FF4FA7
:1008D000C491CC23A1F081110E940D04EC2FF0E013
:1008E000EE0FFF1FE853FF4FA591B491EC91ED235C
:1008F00081E090E009F480E0DF91CF91089580E0FD
:1009000090E0FACF1F93CF93DF93282F30E0F901C7
:10091000EC5EFE4F8491F901EB50FF4FD491F90149
:10092000EA52FF4FC491CC23A9F0162F81110E94E7
:100930000D04EC2FF0E0EE0FFF1FE654FF4FA591E2
:10094000B4918FB7F894EC91111108C0D095DE23C3
:10095000DC938FBFDF91CF911F910895DE2BF8CFED
:10096000CF93DF9390E0FC01EB50FF4F24918A522C
:100970009F4FFC0184918823D1F090E0880F991F4C
:10098000FC01E455FF4FA591B491FC01E654FF4FE3
:10099000C591D491623071F49FB7F8943C91822F45
:1009A000809583238C93E8812E2B28839FBFDF9132
:1009B000CF9108958FB7F894EC912E2B2C938FBF85
:1009C000F6CF3FB7F8948091950490919604A0914A
:1009D0009704B091980426B5A89B05C02F3F19F045
:1009E0000196A11DB11D3FBFBA2FA92F982F8827AF
:1009F000BC01CD01620F711D811D911D42E0660F8A
:100A0000771F881F991F4A95D1F708958F929F925B
:100A1000AF92BF92CF92DF92EF92FF924B015C01B7
:100A20000E94E1046B017C010E94E1046C197D09C4
:100A30008E099F09683E734081059105A8F321E066
:100A4000821A9108A108B10888EEC80E83E0D81E6A
:100A5000E11CF11C81149104A104B10429F7FF9059
:100A6000EF90DF90CF90BF90AF909F908F900895C0
:100A70008F929F92AF92BF92CF92DF92EF92FF92AE
:100A80000F931F93CF93DF936C017B018A018091B9
:100A90001701882309F45CC08091C104882309F4FC
:100AA00057C08091B10480FF05C08091E000826052
:100AB0008093E000E801B12C8AEFA82E93E0892E04
:100AC0002AE3922E209711F4BB20D9F10E94A801AD
:100AD00081110AC0AA94AA20D9F161E070E080E0F7
:100AE00090E00E940605EECF8C171D0611F00CF069
:100AF0008C2F9FB7F8948092E9002091E80025FDA3
:100B000002C09FBFDFCF282F30E0C21BD30BF701FD
:100B1000815020F041914093F100FACFE20EF31E94
:100B2000BB2021F09092E800B12CEBCF8091E8003F
:100B300085FDE7CF9092E800BB24B394209709F39A
:100B4000F3CF5D9884E68093B204101611063CF052
:100B500081E090E0F6019383828310E000E0C80119
:100B6000DF91CF911F910F91FF90EF90DF90CF9089
:100B7000BF90AF909F908F9008952FB7F894609199
:100B800091047091920480919304909194042FBFEA
:100B9000089508950F931F93CF93DF93FC01448131
:100BA000558166817781452B462B472BB9F0EC01A7
:100BB0000E94BD05088119812A813B81AB01BC01DE
:100BC000401B510B620B730B81E00C811D812E8148
:100BD0003F81401751076207730708F480E0DF91F7
:100BE000CF911F910F910895FC0124813581232B12
:100BF00011F0158214820895CF93DF93EC011D82CA
:100C00001C828A819B810E94F4051E821F821986A4
:100C100018868FEF8A87DF91CF9108958F929F92E8
:100C2000AF92BF92CF92DF92EF92FF92CF93DF937A
:100C3000EC01E881F9810484F585E02D099588238C
:100C4000B9F1E881F9810284F385E02DCE0109959F
:100C50006B017C016F89788D898D9A8D9B01AC0128
:100C60000E94A7309B01AC0160E070E0CB010E94C4
:100C7000D62E4B015C016F8D78A189A19AA1905865
:100C80009B01AC010E94D72E9B01AC01C501B401B0
:100C90000E94482F0E94BA2F072E000C880B990B38
:100CA000C60ED71EE81EF91ECB86DC86ED86FE86B4
:100CB000DF91CF91FF90EF90DF90CF90BF90AF90FA
:100CC0009F908F900895FC01818508952F923F9207
:100CD0004F925F926F927F928F929F92AF92BF924C
:100CE000CF92DF92EF92FF920F931F93CF93DF93F8
:100CF000EC01EA80FB80F70184819581A681B781B0
:100D00008A019B01081B190B2A0B3B0BD901C80157
:100D10004B875C876D877E8701E010E01816190607
:100D20001A061B0614F010E000E08827B7FD839533
:100D30009927AA27BB27081B190B1A870987D701F0
:100D40001A96CD90DC900C9DB0010D9D700D1C9DF0
:100D5000700D112490E080E00E94F02F6B8F7C8F4B
:100D60008D8F9E8FB60190E080E00E94F02F4B01A6
:100D70005C01F7016085718590E080E00E94F02FB2
:100D800020E030E04AE754E40E94482F9B01AC0188
:100D9000C501B4010E94482F4B015C01B801110F3D
:100DA000880B990B0E94F22F9B01AC01C501B40185
:100DB0000E94A7306F8F78A389A39AA3D7011C96AE
:100DC0008C9100E011E0882311F001E010E060E078
:100DD0008C810E94820489859A8597FF102F612F4C
:100DE0008E810E94820460E08D810E9482040E94B4
:100DF000BD056F87788B898B9A8BCF88D88CE98CCF
:100E0000FA8C20E030E0A901C701B6010E94A230AF
:100E100046015701181624F0B7FAB094B7F8B09409
:100E20004BA05CA06DA07EA00F811885F8012080EA
:100E30003180A5019401C301B2010E94A2301816AD
:100E400074F569857A85072E000C880B990B0E9432
:100E5000F22FA30192010E94A7306B8B7C8B8D8BAC
:100E60009E8B6F8B788F898F9A8FD101ED91FC913A
:100E70009E01B301A201C801DF91CF911F910F9193
:100E8000FF90EF90DF90CF90BF90AF909F908F90AA
:100E90007F906F905F904F903F902F900994CB8AF6
:100EA000DC8AED8AFE8AD1011496ED91FC91B501A0
:100EB000A401C801DF91CF911F910F91FF90EF9096
:100EC000DF90CF90BF90AF909F908F907F906F906A
:100ED0005F904F903F902F900994CF93DF93EC0158
:100EE00061E08D810E94820460E08C81DF91CF916E
:100EF0000C948204CF93DF93EC018F819885DC0101
:100F0000ED91FC910280F381E02D09951F8E18A2CE
:100F100019A21AA21F8A188E198E1A8E1A8619867D
:100F2000EA81FB818585811103C0CE010E946D0796
:100F3000EFA1F8A5309719F0DF91CF910994DF91D7
:100F4000CF9108951F93CF93DF93EC01162F8C81DF
:100F50000E948204EA81FB81448155816681778108
:100F6000112391F089859A85092E000CAA0BBB0BE1
:100F7000840F951FA61FB71F84839583A683B7830D
:100F8000DF91CF911F9108958B859C85AD85BE859E
:100F9000481759076A077B0799F7E881F9810280AA
:100FA000F381E02DCE01DF91CF911F910994CF9273
:100FB000DF92EF92FF92CB01BA019A01AC010E943D
:100FC000D72E6B017C0120E034E244E75BE40E9411
:100FD000A23018161CF120E030E044E753E4C701CA
:100FE000B6010E94432F87FF06C0C12CD12C94E785
:100FF000E92E93E4F92EA701960160E074E284E7FC
:101000009BE40E94482F0E94C12F709301016093BE
:101010000001FF90EF90DF90CF900895C12C84E203
:10102000D82E84E7E82E8BE4F82EE5CF30938004A9
:1010300020937F041092BF040E94D7078091000183
:10104000909101019093890080938800109285000F
:10105000109284001092800089E080938100EFE676
:10106000F0E080818260808308950C948E01EF927D
:10107000FF920F931F93CF93DF93EC017B018A01C3
:10108000E881F9810480F581E02D099580179107A9
:1010900058F0A801B701CE01DF91CF911F910F91B8
:1010A000FF90EF900C94380590E080E0DF91CF91B5
:1010B0001F910F91FF90EF90089508950E94BD0534
:1010C000E4E1F5E0608371838283938380ED97E0B0
:1010D000A0E0B0E084839583A683B7830895089544
:1010E000DC011296ED91FC9181E0858782819381EC
:1010F0000E94FC050E94BD05E4E1F5E06083718378
:101100008283938380E69AEEA0E0B0E084839583A7
:10111000A683B7830895CF93DF93EC018BEF9AE416
:101120009983888324E02A831B822EE0EEE1F1E09C
:10113000DE01149601900D922A95E1F71A8A1B8A16
:101140001C8A1D8A24EF31E03F8B2E8B40E459EB43
:1011500066E070E0488F598F6A8F7B8F28E532E018
:101160003D8F2C8F9F8F8E8FDF91CF91089580912F
:1011700020050E945904892B39F58091C204909171
:10118000C304019709F582E090E09093C304809333
:10119000C2048091230590912405E0912105F091EE
:1011A00022054081518162817381DC011296ED91AB
:1011B000FC9113974483558366837783ED91FC916B
:1011C0000480F581E02D09940895FC018789908DB4
:1011D000009739F0248935892817390728F4308F8A
:1011E000278B6FEF7FEF08C001976F3F760731F4D1
:1011F000908F878B70E060E0CB010895A089B18962
:10120000A80FB91F9B01215031092F3F310538F438
:10121000262F3C91321305C0908F878BEDCF20E0B5
:10122000F8CF278524FFDDCF908F878B6C93E4CF99
:10123000CF93DF93EC01E881F9810288F389E02DF7
:1012400009958F3F980731F02F89388D2F5F3F4FD9
:10125000388F2F8BDF91CF910895DC0157968D91B8
:101260009C91589754962D913C91559782179307CE
:1012700040F45096ED91FC91E80FF91F808190E0C9
:1012800008958FEF9FEF0895EF92FF92CF93DF9332
:10129000FC01DB0160E070E0CB01E788F08CC489E1
:1012A000D589EC16FD06A8F4621773078407950725
:1012B00084F4C089D189CE0DDF1DC881CD936F5FC5
:1012C0007F4F8F4F9F4FC789D08D2196D08FC78B6F
:1012D000E4CFDF91CF91FF90EF900895FC018489D6
:1012E00095892789308D821B930B089590E080E0CB
:1012F0000895242FDC01ED91FC910084F185E02D0F
:1013000041E009940895CF92DF92EF92FF92DC01C1
:101310001296ED91FC911397C08CD18CE28CF38CDA
:101320008D919C91DC01ED91FC910284F385E02D7F
:10133000099597FF05C06C0D7D1D8E1D9F1DF9CF72
:10134000A70196010E946F31FF90EF90DF90CF9040
:1013500008958F929F92AF92BF92CF92DF92EF92B9
:10136000FF926A017B01DC011296ED91FC91808C69
:10137000918CA28CB38C0E948309C61AD70AE80A02
:10138000F90A09F1C501B40122E030E040E050E083
:101390000E946F312C153D054E055F0524F4C818D9
:1013A000D908EA08FB0888279927DC01821B930BE0
:1013B000A40BB50BC816D906EA06FB0624F4C80C24
:1013C000D91CEA1CFB1CC701B601FF90EF90DF900F
:1013D000CF90BF90AF909F908F9008958F929F92E3
:1013E000AF92BF92CF92DF92EF92FF92CF93DF93B3
:1013F000EC014A015B010E9483096B017C01B5018C
:10140000A401CE010E94A9096C0D7D1D8E1D9F1D9A
:10141000DF91CF91FF90EF90DF90CF90BF90AF9092
:101420009F908F900895CF93DF93EC01E881F9812D
:101430000288F389E02D09958F3F980731F02D81BF
:101440003E812F5F3F4F3E832D83DF91CF910895E3
:101450008FEF9FEF089560E070E0CB010895FF9259
:101460000F931F93CF93DF938C01EB016F3F7607B0
:10147000B9F0F62EEAE06E1306C06DE0F80180893F
:1014800091890E945F026F2DF801808991890E94E5
:101490005F02CE01DF91CF911F910F91FF900895D0
:1014A000D0E0C0E0F6CF7F928F929F92AF92BF9232
:1014B000CF92DF92EF92FF920F931F93CF93DF9320
:1014C0008C0149015A01EB01C12CD12C7601C814C1
:1014D000D904EA04FB04B4F479908AE0781206C0D7
:1014E0006DE0F801808991890E945F02672DF80103
:1014F000808991890E945F02FFEFCF1ADF0AEF0A0D
:10150000FF0AE5CFC501B401DF91CF911F910F9183
:10151000FF90EF90DF90CF90BF90AF909F908F9013
:101520007F900895CB010895CF93DF93EC018889D4
:101530009989DC01ED91FC910084F185E02D0995FC
:10154000892BA9F388899989DC01ED91FC910284AA
:10155000F385E02DDF91CF910994CF93DF93EC01D8
:1015600088899989DC01ED91FC910084F185E02D59
:101570000995892BA9F388899989DC01ED91FC9162
:101580000484F585E02DDF91CF9109948F929F928D
:10159000AF92BF92CF92DF92EF92FF920F931F9381
:1015A000CF93DF938C0149015A01EB01C12CD12C5F
:1015B0007601D80150968D919C91DC01ED91FC91C2
:1015C0000284F385E02D09958F3F61F0C814D9049A
:1015D000EA04FB043CF48993BFEFCB1ADB0AEB0A65
:1015E000FB0AE7CFC701B601DF91CF911F910F91A1
:1015F000FF90EF90DF90CF90BF90AF909F908F9033
:101600000895DC0150968D919C91DC01ED91FC9147
:101610000084F185E02D099490E080E0089590E049
:1016200080E00895089590E080E008951F93CF939F
:10163000DF93EC01162F8F8580FF0BC0E881F981C5
:101640000084F185E02D20E144E070E060E0CE010F
:101650000995EB85FC85812F90E02D853E85E2176D
:10166000F30758F410832B853C852F5F3F4F3C8751
:101670002B87DF91CF911F910895E881F981028C2A
:10168000F38DE02DBC01CE01DF91CF911F91099424
:101690008F929F92AF92BF92CF92DF92EF92FF9282
:1016A0000F931F93CF93DF938C0149015A01EB01F4
:1016B000C12CD12C7601C814D904EA04FB0464F4CB
:1016C0006991C8010E94160B019641F08FEFC81A6C
:1016D000D80AE80AF80AEFCF75016401C701B6011C
:1016E000DF91CF911F910F91FF90EF90DF90CF90FE
:1016F000BF90AF909F908F9008950895CF93DF9300
:10170000EC01E881F98136970190F081E02DE80F36
:10171000F91F83899489DC01ED91FC910484F5859E
:10172000E02D0995019659F4E881F98136970190E9
:10173000F081E02DEC0FFD1F858181608583CE0156
:10174000DF91CF9108958F929F92AF92BF92EF92C7
:10175000FF920F931F93CF93DF93EC017B0149011D
:101760005A01E881F98136970190F081E02DE80F68
:10177000F91F03891489D8011F968C911F9780FF48
:101780000BC0ED91FC910084F185E02D20E144E057
:1017900070E060E0C8010995D801ED91FC91008CE2
:1017A000F18DE02DA5019401B701C80109956F3FA6
:1017B0007F4F79F4E881F98136970190F081E02D2F
:1017C000EC0FFD1F858123893489232B71F0826002
:1017D0008583CE01DF91CF911F910F91FF90EF9004
:1017E000BF90AF909F908F9008958360F1CFCF937B
:1017F000DF93EC01E881F98136970190F081E02DCB
:10180000E80FF91F838994890E94160B019679F4D9
:10181000E881F98136970190F081E02DEC0FFD1FF2
:10182000858123893489232B31F082608583CE0121
:10183000DF91CF9108958360F9CF4F925F926F92BD
:101840007F928F929F92AF92BF92CF92DF92EF9250
:10185000FF920F931F93CF93DF93EC018B0129012C
:101860003A01E881F98136970190F081E02D3296B6
:10187000E80FF91FC284D384E484F584C418D50822
:10188000E608F708818192818E709927049791F478
:1018900046015701181419041A041B04B4F1D701A6
:1018A000C601F7FE03C080E090E0DC01C81AD90A47
:1018B000EA0AFB0AA3019201B801CE010E94A30B20
:1018C000E881F98136970190F081E02DEC0FFD1F42
:1018D000838194818E709927029749F5E881F98177
:1018E00036970190F081E02D1C141D041E041F0486
:1018F000F4F481E0C81AD108E108F108EC0FFD1FEB
:101900006089CE010E94F70BE9CF81E0881A910827
:10191000A108B108E881F98136970190F081E02DA6
:10192000EC0FFD1F6089CE010E94F70BB3CFE88159
:10193000F981369780819181C80FD91F1C861D8639
:101940001E861F86DF91CF911F910F91FF90EF9020
:10195000DF90CF90BF90AF909F908F907F906F90CF
:101960005F904F90089521E0DC012C93DB01ED9115
:10197000FC91369780819181680F791FFB018189E5
:101980009289009711F00C947E0B0895DC01ED9183
:10199000FC9136970190F081E02DE80FF91F8EEA57
:1019A00091E09183808388EB91E09783868308950B
:1019B0002EEA31E0FC013183208328EB31E03783CC
:1019C00026830895FB0120813181FC01318320832E
:1019D000FB014281538126503109F9012081318177
:1019E000820F931FFC015183408308952AEC31E05C
:1019F000FC013183208324ED31E0318F208F6EEBA9
:101A000071E00C94E20CDC01ED91FC9136972081A1
:101A10003181820F931F0C94F60C0895DC01ED9137
:101A2000FC9136970190F081E02DE80FF91F8AE9CB
:101A300091E09183808384EA91E093838283089587
:101A40002AE931E0FC013183208324EA31E0338349
:101A500022830895FB0120813181FC0131832083A1
:101A6000FB014281538126503109F90120813181E6
:101A7000820F931FFC0151834083089526EE31E0CD
:101A8000FC013183208320EF31E0358B248B6AED1C
:101A900071E00C942A0DDC01ED91FC9136972081C8
:101AA0003181820F931F0C943E0D0895FC0181E259
:101AB00090E09483838315821682178286E090E0FB
:101AC000A0E0B0E080879187A287B387148615864F
:101AD0001686178680E991E09183808380E2808B6F
:101AE000128A118A748B638B158A08950F931F9342
:101AF000CF93DF931F92CDB7DEB78C01BC01CE012F
:101B000001960E94B30C6AE0C8010E94F70BC8015D
:101B10000E947E0BC8010F90DF91CF911F910F9112
:101B20000895FB012481358150E040E0608171819E
:101B30000C94A30BFF920F931F93CF93DF931F92ED
:101B4000CDB7DEB78C01F62EBC01CE0101960E9406
:101B5000B30C6F2DC8010E94F70BC8010F90DF91E5
:101B6000CF911F910F91FF9008958038C9F08A3866
:101B700011F58091AE059091AF05E091A505F0912A
:101B8000A6050280F381E02D0190F081E02D6081B7
:101B900070E0DC01ED91FC910088F189E02D099461
:101BA0008091AE059091AF05DC01ED91FC9106842A
:101BB000F785E02DF4CF089508950895CF93DF932E
:101BC000409118055091190560911A0570911B05F7
:101BD000452B462B472BC1F0EC0184E195E00E9498
:101BE000CA05882389F010921805109219051092E1
:101BF0001A0510921B05E881F9810488F589E02D0A
:101C0000CE01DF91CF910994DF91CF910895CF92CA
:101C1000DF92EF92FF920F931F93FB01DC0100E034
:101C200010E098016A01F12CE12C0C151D052E0520
:101C30003F0538F461916D930F5F1F4F2F4F3F4F5A
:101C4000F4CF840F951F1F910F91FF90EF90DF90BD
:101C5000CF900895CF93DF93EB0188819981A5E21E
:101C6000B5E011969C938E932A813B810697EC01F7
:101C7000E881F981EB5DFA4F3183208312961D9242
:101C80001D921D921C92159781E290E094838383AC
:101C90008BE295E0948B838B1582158ADF91CF912F
:101CA0000895DB012D913C911197FC013183208334
:101CB00012966D917C9126503109D901ED91FC91DC
:101CC000E80FF91F7183608381E290E0948383833E
:101CD000548B438B1582158A08950C948E2DDC014C
:101CE000ED91FC91369720813181820F931F0C94E6
:101CF0006D0E0C948E2D0C948E2D0C948E2D0C94B8
:101D00008E2D0C948E2DCF93DF93EC010E943E0D0F
:101D1000CE01DF91CF910C948E2DDC01ED91FC91E1
:101D2000369720813181820F931F0C94830ECF93BD
:101D3000DF93EC010E94F60CCE01DF91CF910C9461
:101D40008E2DDC01ED91FC91369720813181820F3F
:101D5000931F0C94970E0C948E2D0C948E2DDC01F9
:101D6000ED91FC91369720813181820F931F0C9465
:101D7000AD0E0C948E2D0C948E2DFC0180819181E2
:101D80000C948E2D24E132E0FC01318320834096B7
:101D90000C94BD0ECF93DF93EC010E94C20ECE01D6
:101DA000DF91CF910C948E2DCF93DF93EC0182E0E5
:101DB00092E0998388838CE092E09E8F8D8FCE0194
:101DC00002960E94C20E66EF71E0CE01DF91CF91C4
:101DD0000C942A0DDC01ED91FC9136972081318124
:101DE000820F931F0C94D40ECF93DF93EC010E94CB
:101DF000D40ECE01DF91CF910C948E2DDC01ED91AC
:101E0000FC91369720813181820F931F0C94F40E40
:101E1000CF93DF93EC0188E090E09B838A831D825F
:101E20001C820E94F22C99838883DF91CF910895C0
:101E30000F931F93CF93DF93EC018C010E5F1F4F25
:101E4000B8014D960E94560DA80166EF71E0CE01D3
:101E50000E94510E82E092E0998388838CE092E0A8
:101E60009E8F8D8F1E821D8218861F821A8619866C
:101E70001C861B861E861D86188A1F86198A84E189
:101E800092E09B838A83CE0142960E94080F1A8EAD
:101E9000198E1C8E1B8E80E1898BDF91CF911F9153
:101EA0000F9108950F931F93CF938C01C62F8091AC
:101EB000880481112FC08CE090E09093840480937B
:101EC000830484E090E090938604809385048CE002
:101ED00090E00E94F22C9093820480938104E8E6C3
:101EE000F1E0CF0188569140A0918104B091820425
:101EF00020918504309186048217930740F4A80F3F
:101F0000B91F109711F080818C933196EACF81E050
:101F100080938804E0918104F0918204809185048B
:101F2000909186048E0F9F1FE817F90758F42191AE
:101F30002C13FACF80E2C8276DE7F80180819181E8
:101F40000E945F026C2FF80180819181CF911F91D7
:101F50000F910C945F02AF92BF92CF92DF92EF92FB
:101F6000FF920F931F93CF93DF9300D000D000D048
:101F70001F92CDB7DEB78C016B01DC0118968D91F5
:101F80009C919E838D8308969C838B830E94F22C68
:101F90009A83898390E080E02D813E8182179307A8
:101FA00088F4E981FA81E80FF91F309749F0D801E8
:101FB00014962D913C91D901A80FB91F2C91208323
:101FC0000196EACFF601E480F580FBE0EF0EF11C0C
:101FD0006EE7D8018D919C910E945F026F2DC80120
:101FE0000E94520F6E2DC8010E94520F60E0C8017E
:101FF0000E94520FF801F684F394FF20F1F0F68668
:102000006F2DC8010E94520FF801A480B580D8013D
:1020100014968D919C91159718962D913C91820F55
:10202000931FA816B90670F4F501E1905F016E2DBB
:10203000C8010E94520FFE0CEACF81E08687FF2480
:10204000F394DECF60E0C8010E94520FD601AD903C
:10205000BC90F6018081918124813581820F931F8C
:10206000A816B90648F4D501ED905D016E2DC801A2
:102070000E94520FFE0CEDCF6F2D6095C8010E949B
:10208000520FCE0101960E94BD0E27960FB6F8940E
:10209000DEBF0FBECDBFDF91CF911F910F91FF909B
:1020A000EF90DF90CF90BF90AF900895FC018281B8
:1020B00093810C94AB0FCF93DF93FC01C281D3814A
:1020C00086E090E00E94F22CFC01D383C28388E674
:1020D00092E0918380838DE093E095838483F88BF5
:1020E000EF87DF91CF910895CF93DF93FC01C281F9
:1020F000D38186E090E00E94F22CFC01D383C2835E
:1021000088E692E0918380838DE093E095838483D9
:10211000F88BEF87DF91CF910895CF93DF93FC0188
:10212000C281D38186E090E00E94F22CFC01D3832F
:10213000C28388E692E0918380838DE093E095836B
:102140008483F88BEF87DF91CF910895CF93DF934E
:10215000FC01C281D38186E090E00E94F22CFC0158
:10216000D383C28388E692E0918380838DE093E0FD
:1021700095838483F88BEF87DF91CF910895CF9378
:10218000DF93FC01C281D38186E090E00E94F22CB3
:10219000FC01D383C28388E692E0918380838DE043
:1021A00093E095838483F88BEF87DF91CF91089537
:1021B0000F931F93CF93DF93EC01CB01088119811B
:1021C0007B836A830E94F22C99838883F801CF0174
:1021D000801B910B2C813D818217930750F4A881BD
:1021E000B981A80FB91F109711F080818C93319697
:1021F000EECFC801DF91CF911F910F910C948E2DDE
:10220000EF92FF920F931F93CF93DF93EC018C819A
:102210009D818617970740F57A018B018A819B8102
:102220008617970740F4685F7F4F8617970718F463
:10223000CE010E94D8108C819D818017910758F49F
:10224000E881F981E80FF91F309719F0D7012C9137
:1022500020830196F2CF1D830C83DF91CF911F91D4
:102260000F91FF90EF90089568177907B0F77D837D
:102270006C83F3CFCF92DF92EF92FF920F931F9375
:10228000CF93DF931F92CDB7DEB78C0187E0C82EC6
:1022900087E0D82EF601E480F580F801648175812D
:1022A0006E0D7F1D1982AE014F5F5F4FC6010E9408
:1022B0000011F8014481558160817181F6018081AE
:1022C00091818E0D9F1D0E94070EC6010F90DF9118
:1022D000CF911F910F91FF90EF90DF90CF900895D5
:1022E000CF93DF931F92CDB7DEB787E097E00E94D0
:1022F000F4051982AE014F5F5F4F63E070E087E045
:1023000097E00E94001143E050E064E173E08091A7
:102310000707909108070E94070E0F90DF91CF9159
:102320000895AF92BF92CF92DF92EF92FF920F93F8
:102330001F93CF93DF931F92CDB7DEB78C01590166
:102340006A01AC14BD04D1F1F60181916F0189835A
:10235000F801808191817B01E81AF90A6481758115
:102360006F5F7F4FAE014F5F5F4FC8010E9400114A
:10237000F8012481358121503109F8018081918152
:10238000E216F30668F4A90141505109FC01E40F7B
:10239000F51F6081820F931FFC0160839A01EDCFCE
:1023A00029818E0D9F1DFC012083FFEFEF1AFF0A8C
:1023B000F801608171816E0D7F1DC3CF0F90DF9199
:1023C000CF911F910F91FF90EF90DF90CF90BF9032
:1023D000AF900895EF92FF920F931F93CF93DF93E7
:1023E0001F92CDB7DEB7FC01822F8870922F9071BB
:1023F0002871283131F4423009F03FC08FEF9FEF50
:1024000023C0413049F58B012489358920173107D4
:10241000A8F3882311F0108F078B9923A1F07F0177
:102420001982AE014F5F5F4FB801CF0140960E9405
:102430000011F701848995892789308D82179307C8
:1024400010F4908F878BC8010F90DF91CF911F916F
:102450000F91FF90EF900895423089F40489158917
:10246000060F171F911102C010E000E0882361F2EF
:102470000789108D060F171FC7CF413021F204893D
:102480001589F8CFAB01FC01648175816F5F7F4FC7
:102490000C940011CF93DF93EC0187E097E00E944A
:1024A000F405CE0107960E943A11BE01625F7F4F8C
:1024B00087E097E0DF91CF910C944212EF92FF9268
:1024C0000F931F93CF93DF9300D01F92CDB7DEB74A
:1024D0008C0180915904811107C082E594E00E942B
:1024E000080F81E08093590482E594E00E94F4058E
:1024F000E0905604F09057041A82B7016E5F7F4F48
:10250000AE014E5F5F4F82E594E00E940011809122
:1025100052049091530442E050E061E173E08E0D6B
:102520009F1D0E94070ED8011696ED91FC911797FA
:1025300014968D919C9115979C012F5F3F4F159696
:102540003C932E931497E80FF91F80818B83882387
:1025500009F450C08C3209F045C064E670E080E0B8
:1025600090E00E9406058DE08983BE016F5F7F4F7A
:1025700082E594E00E944212D8011296ED91FC91FE
:10258000808191814091560450915704609152048A
:1025900070915304DC01ED91FC910280F381E02DF8
:1025A00009950E94BD0560931405709315058093ED
:1025B00016059093170588E893E1A0E0B0E08093BA
:1025C000180590931905A0931A05B0931B0581E097
:1025D0000F900F900F90DF91CF911F910F91FF906F
:1025E000EF900895BE016D5F7F4F82E594E00E94F9
:1025F000421299CF80E0ECCF0C945E12EF92FF92E2
:102600000F931F93CF93DF931F92CDB7DEB78C014B
:102610007B016F3F760779F1D8011F968C911F9748
:1026200084FF2CC059968D919C915A9754962D9168
:102630003C91559782179307B8F06983BE016F5F8D
:102640007F4FC80140960E944212F801818D928D01
:102650000196928F818FC7010F90DF91CF911F91CB
:102660000F91FF90EF9008955096ED91FC91E80F37
:10267000F91F6083EACFF12CE12CEDCFEE24EA9430
:10268000FE2CE9CF0F931F93CF93DF93EC01CB0187
:10269000088119817B836A830E94F22C9983888345
:1026A000F801CF01801B910B2C813D81821793078C
:1026B00050F4A881B981A80FB91F109711F080813B
:1026C0008C933196EECFC801DF91CF911F910F917E
:1026D0000C948E2DEF92FF920F931F93CF93DF9365
:1026E000EC018B017A018A819B818617970740F460
:1026F000685F7F4F8617970718F4CE010E94421338
:102700008C819D818017910758F4E881F981E80F49
:10271000F91F309719F0D7012C9120830196F2CF41
:102720001D830C83DF91CF911F910F91FF90EF904C
:102730000895AF92BF92CF92DF92EF92FF921F93D4
:10274000CF93DF93EC017B016C0184E0C80ED11CB8
:10275000C6010E94F40519E01150A9F057018FEF4E
:10276000A81AB80A88859985BC016F5F7F4F8617C4
:10277000970730F4A701C6010E946A137501ECCFD8
:1027800019861886FBCFDF91CF911F91FF90EF90B4
:10279000DF90CF90BF90AF900895EF92FF920F938C
:1027A0001F93CF93DF931F92CDB7DEB78C017B01D0
:1027B0000E94080FF701648175811982AE014F5F95
:1027C0005F4FC8010E940011F80144815581F70153
:1027D00060817181F801808191810E94070E0F90C4
:1027E000DF91CF911F910F91FF90EF900895CF92BD
:1027F000DF92EF92FF920F931F93CF93DF931F927D
:10280000CDB7DEB78C017B016A010E94080F8FEF04
:10281000C816D80611F40E949431F7018081181669
:1028200084F41982AE014F5F5F4FB601C8010E9468
:102830000011F80144815581B701808191810E9486
:10284000070E0F90DF91CF911F910F91FF90EF90A6
:10285000DF90CF900895EF92FF920F931F93CF9345
:10286000DF931F92CDB7DEB78C017B01BC01CE0197
:1028700001960E94B30CF70101900020E9F731970F
:10288000EE19FF099F0150E040E0B701C8010E9426
:102890001D0CC8010F90DF91CF911F910F91FF90F8
:1028A000EF900895AF92BF92CF92DF92EF92FF9296
:1028B0000F931F93CF93DF931F92CDB7DEB76C01B9
:1028C0007B010E94080FE114F104F1F0F70101907F
:1028D0000020E9F731978F010E191F09F601A48036
:1028E000B5801982B8016A0D7B1DAE014F5F5F4F45
:1028F000C6010E940011F60180819181A801B701F3
:102900008A0D9B1D0E94070E0F90DF91CF911F91A2
:102910000F91FF90EF90DF90CF90BF90AF90089510
:102920000F931F93CF93DF93CDB7DEB728970FB6E2
:10293000F894DEBF0FBECDBF8C01DC011296ED9185
:10294000FC911586808191810E943D01F8010281F0
:102950001381AE01485F5F4F68E173E0CE010196DD
:102960000E945214D8018D919C914D815E816981A4
:102970007A81DC01ED91FC910280F381E02D0995D3
:10298000CE0101960E94BD0E0E94BD05E4E1F5E076
:10299000608371838283938380EB94E0A0E0B0E056
:1029A00084839583A683B78328960FB6F894DEBFF9
:1029B0000FBECDBFDF91CF911F910F9108950F935F
:1029C0001F93CF93DF931F92CDB7DEB78C01809119
:1029D000680481110CC0AE014F5F5F4F6CE173E082
:1029E00081E694E00E94521481E08093680461E6DD
:1029F00074E0F801828193810E94AB0F0E94BD05B3
:102A00006093140570931505809316059093170530
:102A100088E692E4A0E0B0E0809318059093190551
:102A2000A0931A05B0931B050F90DF91CF911F91D2
:102A30000F9108950F931F93CF93DF931F92CDB7FC
:102A4000DEB78C01FB0160857185AE014F5F5F4F82
:102A50000E945214C8010F90DF91CF911F910F91E6
:102A600008950F931F93CF93DF931F92CDB7DEB7D7
:102A70008C01FB0164817581AE014F5F5F4F0E9445
:102A80005214C8010F90DF91CF911F910F910895BB
:102A90000F931F93CF93DF931F92CDB7DEB78C01B7
:102AA000FB0164817581AE014F5F5F4F0E9452143C
:102AB000C8010F90DF91CF911F910F9108950F934F
:102AC0001F93CF93DF931F92CDB7DEB78C01FB012D
:102AD00064817581AE014F5F5F4F0E945214C8013F
:102AE0000F90DF91CF911F910F9108950F931F9336
:102AF000CF93DF931F92CDB7DEB78C0180914A044C
:102B000081110CC0AE014F5F5F4F60E273E083E460
:102B100094E00E94521481E080934A0480913B0427
:102B200081110CC0AE014F5F5F4F66E273E084E33A
:102B300094E00E94521481E080933B046AE30F3FCB
:102B40001F4F99F483E595E00E949A0D64E374E0C9
:102B50000E94910D63E20E949A0D0E94760D0F90E3
:102B6000DF91CF911F910F91089583E595E00E9429
:102B70009A0D63E474E0ECCF8F929F92AF92BF9274
:102B8000CF92DF92EF92FF924B015C0180919D0505
:102B900090919E05DC01ED91FC910284F385E02D7E
:102BA000099575016401C61AD70AE80AF90AB7013E
:102BB000A601F7FE07C044275527BA014C195D0945
:102BC0006E097F09E0919F05F091A005848D958D98
:102BD000092E000CAA0BBB0B481759076A077B0785
:102BE0000CF444C01092C3041092C20480912305D7
:102BF00090912405DC01ED91FC910484F585E02D94
:102C00000995882359F08091230590912405DC01D2
:102C1000ED91FC910480F581E02D099581E090E033
:102C20001C141D041E041F0414F090E080E0CC244A
:102C3000F7FCC394DD24EE24FF248C199D090E9427
:102C4000761580919D0590919E05DC01ED91FC919A
:102C50000084F185E02DB501A401FF90EF90DF9095
:102C6000CF90BF90AF909F908F900994FF90EF907E
:102C7000DF90CF90BF90AF909F908F9008950F936B
:102C80001F93CF93DF931F92CDB7DEB78C01FB016B
:102C900064817581AE014F5F5F4F0E945214C8017D
:102CA0000F90DF91CF911F910F9108952F923F9236
:102CB0004F925F926F927F928F929F92AF92BF924C
:102CC000CF92DF92EF92FF920F931F93CF93DF93F8
:102CD00000D000D0CDB7DEB79C838B83DC01ED91B3
:102CE000FC910484F585E02D0995882309F4FFC043
:102CF0000E94BD05EB81FC81878C90A0A1A0B2A0B1
:102D00000785108921893289601B710B820B930B17
:102D10000E94F02F20E030E04AE754E40E94482F60
:102D2000A50194010E94A730AB81BC8153962D91DF
:102D30003D914D915C9156970E94D72E6B017C017D
:102D4000EB81FC810280F381E02DFA83E9834480EA
:102D5000558066807780AB81BC8193963C90939739
:102D600094962C90949795960C91959796961C9185
:102D700096971B966D917D918D919C911E976419EC
:102D800075098609970997FF07C0909580957095FA
:102D900061957F4F8F4F9F4F0E94F02F2B013C0179
:102DA000C501B4019F779B01AC010E94D72E9B0106
:102DB000AC01C301B2010E94A7304B015C01232D7D
:102DC000322DA801632D722DC8010E94A7309B01EE
:102DD000AC01C501B4010E94D72E0E941A314B01EB
:102DE0005C01EB81FC8161857285072E000C880BEC
:102DF000990B0E94F22F2B013C01AC019B01C501F4
:102E0000B4010E94A7304B015C0120E030E0A90131
:102E1000C701B6010E94A230181624F0F7FAF09408
:102E2000F7F8F09420E030E0A901C501B4010E9458
:102E3000A230181624F0B7FAB094B7F8B094A501F0
:102E40009401C701B6010E94432F87FD02C075019E
:102E50006401232D322DA801C701B6010E94432F22
:102E600087FD42C0A981BA811A966D917C9190E04C
:102E700080E00E94F02F5B018C019B01AC01C70137
:102E8000B6010E94A230181614F465017801A3015E
:102E90009201C701B6010E94A730EB81FC81678BCC
:102EA000708F818F928F87819085DC01ED91FC91ED
:102EB0000480F581E02DB701A6010F900F900F90CF
:102EC0000F90DF91CF911F910F91FF90EF90DF90C6
:102ED000CF90BF90AF909F908F907F906F905F90BA
:102EE0004F903F902F900994C32CD22CCFCF0F90AE
:102EF0000F900F900F90DF91CF911F910F91FF9046
:102F0000EF90DF90CF90BF90AF909F908F907F9089
:102F10006F905F904F903F902F900895AF92BF9227
:102F2000CF92DF92EF92FF920F931F93CF93DF9395
:102F3000CDB7DEB728970FB6F894DEBF0FBECDBF72
:102F40005C016B01AE01485F5F4F6BE273E0CE0145
:102F500001960E945214D6011496ED90FC900D81BA
:102F60001E81A7010E151F0508F4A80169817A8149
:102F7000F601808191810E94AB31DD24D394892BAD
:102F800039F4E016F10608F0D12C0E151F05A8F152
:102F9000CE0101960E94BD0ED1101EC0D501129621
:102FA0000D911C918AE090E00E94F22CFC011383A9
:102FB000028382E892E0918380838EE293E097839C
:102FC000868386E793E09187808715821482D801F3
:102FD0005096FC93EE931F9728960FB6F894DEBF99
:102FE0000FBECDBFDF91CF911F910F91FF90EF905A
:102FF000DF90CF90BF90AF900895DD24D394C8CFD9
:103000000F931F93CF93DF93EB0109900020E9F713
:103010002197C61BD70BFC0104811581AE010C174B
:103020001D0708F4A801FC01808191810E94AB3149
:10303000892B11F080E004C081E0C017D107D1F7DF
:10304000DF91CF911F910F910895AF92BF92CF92D0
:10305000DF92EF92FF920F931F93CF93DF9300D0F5
:1030600000D000D01F92CDB7DEB75C017B0180910C
:10307000770481110CC0AE014F5F5F4F6DE773E0C5
:1030800080E794E00E94521481E080937704D70196
:103090000D911C9111971496CD90DC90C00ED11E0D
:1030A00088E090E09C838B831E821D820E94F22C1C
:1030B0009A838983CE0101960E94F405A801465F98
:1030C0005F4F69817A819601CE0101960E9491112C
:1030D0006DE773E0CE0101960E9400188823A9F1E4
:1030E000F70160817181D50112968D919C910E94AA
:1030F0009913F5010281138186E090E00E94F22C81
:10310000FC01138302838EE492E09183808384E840
:1031100093E095838483D8015096FC93EE931F9798
:10312000CE0101960E94BD0E27960FB6F894DEBF21
:103130000FBECDBFDF91CF911F910F91FF90EF9008
:10314000DF90CF90BF90AF9008950D811E81011543
:10315000110531F3E981FA8180818A3329F06AE32C
:1031600083E595E00E949A0DBE016F5F7F4F83E576
:1031700095E00E94910DE981FA81E00FF11F3197EE
:103180008081833229F063E283E595E00E949A0D05
:1031900083E595E00E94760DC3CFCF93DF93EC01DA
:1031A000CB016BE273E00E9400188823E1F0CE01AE
:1031B0000E945E12811114C00A80DB81C02D86E05E
:1031C00090E00E94F22CFC01D383C28384E392E05E
:1031D000918380838BE893E095838483F88BEF87DA
:1031E000DF91CF9108950A80DB81C02D86E090E0C9
:1031F0000E94F22CFC01D383C28388E692E0918383
:1032000080838DE093E0E8CFAF92BF92CF92DF92C0
:10321000EF92FF920F931F93CF93DF9300D000D0D4
:1032200000D01F92CDB7DEB75C017B01DB010D91B1
:103230001C9111971496CD90DC90C00ED11E88E0A1
:1032400090E09C838B831E821D820E94F22C9A83C5
:103250008983CE0101960E94F405A801465F5F4F65
:1032600069817A819601CE0101960E9491116DE7E4
:1032700073E0CE0101960E940018882301F1F70146
:1032800060817181D50112968D919C910E94991354
:10329000F5010281138186E090E00E94F22CFC018E
:1032A000138302838EE492E09183808384E893E029
:1032B00095838483D8015096FC93EE931F97CE019B
:1032C00001960E94BD0E27960FB6F894DEBF0FBE82
:1032D000CDBFDF91CF911F910F91FF90EF90DF90C5
:1032E000CF90BF90AF9008950F931F93CF93DF932C
:1032F000CDB7DEB7C054D1090FB6F894DEBF0FBE0C
:10330000CDBF8C01CE0101960E948B08CE01819623
:103310000E948B0840E250E070E060E0CE018196B0
:103320000E94212E89A19AA18B3F9A4439F42196BB
:103330008EAD9FAD21978B3F9A44A9F080E2FE01AC
:103340003196D80101900D928A95E1F7C801C05CD1
:10335000DF4F0FB6F894DEBF0FBECDBFDF91CF9128
:103360001F910F9108958BA1843041F780E2FE01F7
:10337000B196E7CF2F923F924F925F926F927F92DA
:103380008F929F92AF92BF92CF92DF92EF92FF9275
:103390000F931F93CF93DF93CDB7DEB72C970FB664
:1033A000F894DEBF0FBECDBF6C0129013A01FC01CC
:1033B000A18CB28C9E01265F3F4FA201CE010196E7
:1033C0000E94F713F601E488F588EA14FB0410F470
:1033D0000E94943117012A183B08820124143504F5
:1033E00008F481018D809E80E01AF10AC401809565
:1033F0009095E816F90660F7E80CF91CC6014096AE
:103400009C878B870815190538F41886AE01485F2C
:103410005F4FB7010E940011F60180899189A101D7
:10342000401B510BB501600F711F680F791F95018B
:10343000280D391D820F931F0E94993169817A816D
:10344000F60180899189A4018A0D9B1D0E94070EB7
:103450001986AE01475F5F4FB7018B859C850E943F
:103460000011CE0101960E94BD0EF601818D928D54
:10347000840D951D928F818FC301B2012C960FB6DA
:10348000F894DEBF0FBECDBFDF91CF911F910F919A
:10349000FF90EF90DF90CF90BF90AF909F908F9074
:1034A0007F906F905F904F903F902F900895CF92B4
:1034B000DF92EF92FF920F931F93CF93DF93CDB7DD
:1034C000DEB765970FB6F894DEBF0FBECDBF8C0197
:1034D000F42EE52ED62EC72EBC01CE0145960E94B5
:1034E000B30CD801ED91FC9136970190F081E02D5D
:1034F000E00FF11F8381948185FD5BC086FF42C090
:1035000092FF5AC086E993E0CF92DF92EF92FF924A
:103510009F938F931F9284E18F939E012F5F3F4F64
:1035200079013F932F930E94B9319C01990F440B6D
:10353000550BB701C8010E941D0CD801ED91FC91FB
:1035400036970190F081E02DE00FF11F8381948187
:103550000FB6F894DEBF0FBECDBF96FF03C0C80103
:103560000E947E0BC80165960FB6F894DEBF0FBEB1
:10357000CDBFDF91CF911F910F91FF90EF90DF9022
:10358000CF90089587FF1BC09C012227307292FFC5
:1035900008C08FE993E0232B09F0B6CF84EA93E0CB
:1035A000B3CF89EA93E0232B09F0AECF8DEA93E005
:1035B000ABCF82E993E0A8CF8BE993E0A5CF90E071
:1035C00080E0A2CFCF92DF92EF92FF920F931F93F2
:1035D000CF93DF93CDB7DEB7EB970FB6F894DEBF8E
:1035E0000FBECDBF60E1CE0101960E94180FE981A8
:1035F000FA8136970190F081E02D329681E090E0DB
:103600008C0F9D1FE80FF91F818192818F7180625D
:103610009283818361EB73E0CE0101960E942B14AB
:103620008C018DE995E00E94830928E030E040E0BC
:1036300050E00E946F31BA01A901C8010E94571AD7
:103640006CE20E949A0D8C01E090C204F090C304D9
:10365000BC01CE01C4960E94B30CD801ED91FC913F
:1036600036970190F081E02DE00FF11F838184FFF8
:1036700097C024E030E040E050E067EB73E0B4E056
:10368000EB16F10431F025E030E040E050E06CEB67
:1036900073E0C8010E941D0CD801ED91FC91369792
:1036A0000190F081E02DE00FF11F8381948196FF5E
:1036B00003C0C8010E947E0B6CE2C8010E949A0DF3
:1036C0008C01E0919F05F091A005608D718D828D38
:1036D000938D28E0C22ED12CE12CF12CA70196016C
:1036E0000E946F31BA01A901C8010E94571A6CE209
:1036F0000E949A0D8C01E0919F05F091A0056289CE
:10370000738984899589A70196010E946F31BA0156
:10371000A901C8010E94571A6CE20E949A0D8C01FF
:10372000E0919F05F091A005648D758D072E000C2A
:10373000880B990BA70196010E946F31BA01A9016C
:10374000C8010E94571A63E20E949A0DAE01455CBF
:103750005F4FBE016D5E7F4FCE01C4960E94CD13B8
:10376000BE016C5C7F4F83E595E00E94910D0E9445
:10377000760DCE01C4960E94BD0ECE0101960E9428
:10378000D40EEB960FB6F894DEBF0FBECDBFDF911F
:10379000CF911F910F91FF90EF90DF90CF90089500
:1037A00021E030E040E050E062EC73E084E0E816B5
:1037B000F10409F46ECF67ED73E06BCF8DE995E00E
:1037C0000E9483096093ED067093EE068093EF06E6
:1037D0009093F0068091C2049091C3040397A1F4E2
:1037E00084E090E09093C3048093C2048091C2046B
:1037F0009091C304892B31F08091C2049091C3044D
:10380000049779F50C94E21A8091C2049091C30454
:10381000029711F583E090E09093C3048093C20473
:10382000E0912105F09122054081518162817381EF
:1038300080919B0590919C050E94EE09AB01BC0113
:103840008091230590912405DC01ED91FC91008489
:10385000F185E02D0995CACF1092C3041092C204DD
:10386000C5CF0895CF92DF92EF92FF92CF93DF936F
:10387000CDB7DEB7EB970FB6F894DEBF0FBECDBF66
:103880006A017B010E944A1260E1CE0101960E940A
:10389000180FB701A601CE0101960E94571AAE017A
:1038A000455C5F4FBE016D5E7F4FCE01C4960E94A6
:1038B000CD13CE01C4960E943A11CE01C4960E9447
:1038C000BD0ECE0101960E94D40EEB960FB6F89471
:1038D000DEBF0FBECDBFDF91CF91FF90EF90DF90A5
:1038E000CF900895CF92DF92EF92FF920F931F93A4
:1038F000CF93DF93CDB7DEB7C154D1090FB6F8949B
:10390000DEBF0FBECDBF8C010E944A12D8011E96A9
:103910008C91833571F4B8018091A1059091A20535
:103920000E94AB0FC8010E944A1287E097E00E94F4
:10393000F405F80186858235B1F57801F7E0EF0EE0
:10394000F11C64EC73E0C7010E940018882361F049
:10395000E0919F05F091A0054485558570E060E0F9
:10396000C8010E94321C1FC067EC73E0C7010E94AF
:103970000018882341F1D8011F96CD90DD90ED907D
:10398000FC905297B4E6CB16D104E104F10414F490
:103990000E947011E0919D05F0919E050280F381D7
:1039A000E02DD186C086CF5BDF4F0FB6F894DEBF27
:1039B0000FBECDBFDF91CF911F910F91FF90EF9080
:1039C000DF90CF9008956AEC73E0C7010E94001861
:1039D000882399F0E0919F05F091A005648D758D85
:1039E000072E000C880B990B28E030E040E050E0F7
:1039F0000E946F31BA01A901B3CF6DEC73E0C7012A
:103A00000E9400188823F9F0F801C784D088E18863
:103A1000F288A3E0CC0CDD1CEE1CFF1CAA95D1F7AC
:103A2000F1EDCF16FFE2DF06E104F10410F00E9491
:103A30007011E0919F05F091A005D58EC48EC8014C
:103A40000E944A12B0CF60ED73E0C7010E940018D7
:103A50008823A9F0AE014F5D5F4F63ED73E0CE01A7
:103A600001960E945214C8010E944A12CE0101968A
:103A70000E943A11CE0101960E94BD0E94CF69EDCD
:103A800073E0C7010E940018882361F1E0919F054F
:103A9000F091A005608D718D828D938D0E94F22F23
:103AA00020E030E044EB53E40E94482F6B017C019E
:103AB000D8011F966D917D918D919C9152970E9496
:103AC000F22F9B01AC01C701B6010E94A7300E94F2
:103AD000C12FAB01BC018DE995E00E94EE090E9467
:103AE000BC1561CF6CED73E0C7010E9400188823FC
:103AF000B9F1E0919F05F091A0054289538964894D
:103B000075898DE995E00E94A9098091C204909180
:103B1000C304892B39F08091C2049091C3040497A7
:103B200009F041CFE0912105F091220546815781AE
:103B300060857185440F551F661F771F81E090E0F7
:103B40009093C3048093C20480912305909124052F
:103B5000DC01ED91FC910084F185E02D099523CFE6
:103B60006FED73E0C7010E940018882369F0F80127
:103B70004785508961897289E3E0440F551F661FAC
:103B8000771FEA95D1F7A7CF62EE73E0C7010E94D5
:103B90000018882349F0E0919F05F091A005628903
:103BA00073898489958920CF65EE73E0C7010E94EF
:103BB0000018882341F1F80187859089A189B2898D
:103BC0006C017D0163E0CC0CDD1CEE1CFF1C6A95D2
:103BD000D1F7B4FD0DC0E0919F05F091A005808D57
:103BE000918DA28DB38D8C159D05AE05BF0514F486
:103BF0000E947011E0919F05F091A005C28AD38ABE
:103C0000E48AF58A1CCF68EE73E0C7010E940018B1
:103C1000882361F080919D0590919E05DC01ED91D6
:103C2000FC910280F381E02D0995BDCE6BEE73E02F
:103C3000C7010E940018882361F080919D05909132
:103C40009E05DC01ED91FC910284F385E02D099540
:103C5000CBCE6EEE73E0C7010E9400188823C1F03E
:103C6000F80187859089A189B28953E0880F991F4F
:103C7000AA1FBB1F5A95D1F7E0919D05F0919E05B3
:103C80000280F381E02D84839583A683B7838BCE56
:103C900061EF73E0C7010E940018882349F0E091AA
:103CA0009F05F091A005608D718D828D938D9CCEC6
:103CB00064EF73E0C7010E9400188823B1F02091DF
:103CC0009F053091A005F80187859089A189B28967
:103CD00043E0880F991FAA1FBB1F4A95D1F7F9012E
:103CE000808F918FA28FB38F5ECE67EF73E0C70195
:103CF0000E940018882399F08091C2049091C30417
:103D0000892B31F08091C2049091C304049711F47F
:103D10000E94E21A87E097E00E94F40544CE6AEF21
:103D200073E0C7010E940018882399F0E0919D0577
:103D3000F0919E050280F381E02D4285538570E06D
:103D400060E093E075956795579547959A95D1F7FB
:103D500007CE6DEF73E0C7010E940018882339F188
:103D6000D8011F96CD90DD90ED90FC90529783E0A6
:103D7000CC0CDD1CEE1CFF1C8A95D1F7E0919D0553
:103D8000F0919E0563A174A185A196A10E94C12F07
:103D9000C616D70610F40E947011E0919D05F091AF
:103DA0009E050280F381E02DD386C286FCCD60E0C3
:103DB00074E0C7010E9400188823B9F0CE01019673
:103DC0000E948B0880919F059091A00520E2FE0142
:103DD0003196DC0101900D922A95E1F740E250E026
:103DE00070E060E00E94312EDECD63E074E0C70138
:103DF0000E940018882389F000919F051091A0056A
:103E0000CE0182960E94741980E2FE01B296D8011A
:103E100001900D928A95E1F7C6CD66E074E0C70186
:103E20000E940018882349F040E250E070E060E012
:103E300080919F059091A005D5CF69E074E0C701FE
:103E40000E940018882309F4AECDF0E0E0E0099567
:103E5000AACDAF92BF92CF92DF92EF92FF920F93D3
:103E60001F93CF93DF93CDB7DEB729970FB6F894A2
:103E7000DEBF0FBECDBF7C018B010E94080F570132
:103E800087E0A80EB11CC5010E94080FD801149646
:103E9000CD90DC90E016F106C9F0C7010E94F40550
:103EA000F801648175811986AE01475F5F4FC701D4
:103EB0000E940011D80114964D915C9115976D9157
:103EC0007C91F701808191810E94070ED7011F9696
:103ED0001D921D921D921C925297F8016081718172
:103EE0006F5F7F4FC5010E944212F3E0CF16D104ED
:103EF000C0F480E3F7018687F6E0CF16D10408F41A
:103F000052C0D801ED91FC91119784818C3209F057
:103F10004AC014964D915C914530510598F40E9429
:103F20009431D8016D917C916E5F7F4FC5010E94E5
:103F30004212B3E0CB16D104E1F2D801ED91FC912D
:103F40008381D8CF45505109BF016B5F7F4F9E01E0
:103F5000285F3F4FCE0101960E94F7136D817E814D
:103F60006F5F7F4F8B819C818617970720F4CE016E
:103F700001960E94D810E981FA818D819E81E80F17
:103F8000F91F10824AE050E070E060E089819A8178
:103F90000E94972BF7016787708B818B928BCE01E4
:103FA00001960E94BD0E29960FB6F894DEBF0FBE93
:103FB000CDBFDF91CF911F910F91FF90EF90DF90D8
:103FC000CF90BF90AF9008951F920F920FB60F92AF
:103FD00011248F939F938091E1009091E100937F52
:103FE0009093E10083FF0FC01092E90091E090935D
:103FF000EB001092EC0092E39093ED001092C1045C
:1040000098E09093F00082FF22C093E09093E90043
:104010009091F200992319F09AE39093E80090911F
:10402000B204992341F09091B20491509093B2045C
:10403000911101C05D9A9091C004992341F0909133
:10404000C00491509093C004911101C0289A84FF3C
:1040500018C08091E2008E7E81608093E2008091A2
:10406000E1008F7E8093E1008091B1048E7E8061BB
:104070008093B1049F918F910F900FBE0F901F906E
:10408000189580FFF7CF8091E2008E7E806180934B
:10409000E2008091E1008E7E8093E1008091B10486
:1040A0008E7E8160E5CF1F920F920FB60F92112482
:1040B000CF92DF92EF92FF920F931F932F933F9334
:1040C0004F935F936F937F938F939F93AF93BF9320
:1040D000EF93FF93CF93DF93CDB7DEB76C97DEBF3F
:1040E000CDBF1092E9008091E80083FF25C068E011
:1040F000CE0145960E94520282EF8093E8008D899E
:1041000087FF39C09091E80090FFFCCF982F907600
:1041100009F034C19E894F89588D2F89F88C9111EF
:1041200031C0803861F58091B0048093F100109225
:10413000F1008EEF8093E8006C960FB6F894DEBF26
:104140000FBECDBFDF91CF91FF91EF91BF91AF91A6
:104150009F918F917F916F915F914F913F912F919F
:104160001F910F91FF90EF90DF90CF900F900FBEB7
:104170000F901F9018959EEF9093E800C7CF109274
:10418000F100D5CF913059F48111D3CF4130510591
:1041900081F68091B0048D7F8093B004CACF9330B4
:1041A00049F48111C6CF4130510519F68091B00410
:1041B0008260F2CF953041F48091E80080FFFCCF1F
:1041C00020682093E300B5CF963009F0A9C00B8D8D
:1041D0001C8D22E01092E9001092AE041092AD0402
:1041E000F2122EC01092AC041092AB040E94210275
:1041F0001F8299E09983FA8291E09E8390EA9887E2
:104200009AEF99872091AD043091AE04275F3F4F1C
:104210003C832B838D831092E9001092AE041092A0
:10422000AD041093AC040093AB0449E050E0BE0130
:104230006F5F7F4F80E00E94FB010E94210279CFD7
:104240001093AC040093AB040E94B901DC011296F8
:104250000D911C910115110509F451C1D801ED9181
:10426000FC910480F581E02DBE016B5E7F4FC8019B
:104270000995009709F03EC1F80100851185EACF44
:10428000F3E0FF120EC08F89882309F440C082300A
:1042900061F440E860E187E991E00E942524811102
:1042A00048CF81E28093EB0047CF813029F440E88A
:1042B0006BE08BE891E0F1CF833099F70E94B90170
:1042C000DC011296ED90FC908E010F5F1F4F68018C
:1042D000E114F10479F0D701ED91FC910680F781AA
:1042E000E02DB801C7010995080F111DF701E08401
:1042F000F184EECFD8011C92F60101900020E9F77D
:104300003197BF016C197D0940E0C601C6CF65E752
:1043100071E0FB01449150E080E80E94FB0109CF6D
:10432000973009F4BECF983021F481E08093F100FA
:1043300000CF993009F0FDCE837009F0B2CFE3EBE6
:10434000F2E081E031E096E32191222371F0809345
:10435000E9003093EB00DF0111972C912093EC00E2
:104360009093ED008F5F873079F78EE78093EA00B6
:104370001092EA008F898093C104DBCE8B8D9C8DD7
:104380001092E9001092AE041092AD049093AC0428
:104390008093AB04898D811192C08E899D89913A59
:1043A00049F4813209F07DCF47E050E060E171E0EF
:1043B00080E0B3CF913209F074CF833269F48F89F2
:1043C000988DB0E0A0E080930C0190930D01A09334
:1043D0000E01B0930F01ADCE803269F48091E800F8
:1043E00082FFFCCF67E080E191E00E9452028BEFF8
:1043F0008093E8009ECE823209F09BCE8F89809315
:104400001701EEEFFFE7859194918B3F9C4D51F1A1
:10441000E0E0F8E08091100190911101A09112016B
:10442000B0911301803B9440A105B105F1F4809156
:10443000170180FD1AC0EE3F8AE0F80789F587E78B
:1044400097E791838083809160008093AF0488E137
:104450009BE00FB6F894A895809360000FBE9093F0
:10446000600067CEEEEFFAE0D5CF8081918187378B
:10447000974709F05ECEA89580916000886180938F
:1044800060008091AF0480936000EE3F2AE0F20765
:1044900089F08091FE0A9091FF0A9183808349CE32
:1044A000808191818737980751F29093FF0A80931A
:1044B000FE0AC5CF1092FF0A1092FE0A3ACE0E9461
:1044C000B901DC0112960D911C910115110509F439
:1044D000E8CED801ED91FC910190F081E02DBE0174
:1044E0006B5E7F4FC8010995811123CEF8010085CD
:1044F0001185EBCF181619060CF41BCED2CEF1E0C5
:10450000FF12BECE69E771E004CF1F920F920FB683
:104510000F9211242F933F934F935F936F937F9349
:104520008F939F93AF93BF93EF93FF9384EB95E0AB
:104530000E94FF02FF91EF91BF91AF919F918F91E8
:104540007F916F915F914F913F912F910F900FBE8F
:104550000F901F9018951F920F920FB60F92112473
:104560002F938F939F93EF93FF93E091C405F09166
:10457000C5058081E091CA05F091CB0582FD1BC085
:1045800090818091CD058F5F8F732091CE0582172A
:1045900041F0E091CD05F0E0EC54FA4F958F809317
:1045A000CD05FF91EF919F918F912F910F900FBEAD
:1045B0000F901F9018958081F4CF1F920F920FB625
:1045C0000F9211242F933F938F939F93AF93BF9399
:1045D0008091910490919204A0919304B0919404DD
:1045E0003091900423E0230F2D3758F50196A11D3B
:1045F000B11D209390048093910490939204A09312
:104600009304B09394048091950490919604A091A2
:104610009704B09198040196A11DB11D8093950453
:1046200090939604A0939704B0939804BF91AF9190
:104630009F918F913F912F910F900FBE0F901F90E0
:10464000189526E8230F0296A11DB11DD2CF1F9207
:104650000F920FB60F9211242F933F934F935F93B6
:104660006F937F938F939F93AF93BF93EF93FF933A
:10467000E0910A01F0910B010995FF91EF91BF9133
:10468000AF919F918F917F916F915F914F913F91EA
:104690002F910F900FBE0F901F9018951F920F92A1
:1046A0000FB60F9211242F933F934F935F936F9305
:1046B0007F938F939F93AF93BF93EF93FF93E0917B
:1046C0000801F09109010995FF91EF91BF91AF9118
:1046D0009F918F917F916F915F914F913F912F911A
:1046E0000F900FBE0F901F9018951F920F920FB64C
:1046F0000F9211242F933F934F935F936F937F9368
:104700008F939F93AF93BF93EF93FF93E091060135
:10471000F09107010995FF91EF91BF91AF919F91A2
:104720008F917F916F915F914F913F912F910F905A
:104730000FBE0F901F9018951F920F920FB60F92F9
:1047400011242F933F934F935F936F937F938F9396
:104750009F93AF93BF93EF93FF93E0910401F09188
:1047600005010995FF91EF91BF91AF919F918F91B5
:104770007F916F915F914F913F912F910F900FBE5D
:104780000F901F9018951F920F920FB60F92112441
:104790002F933F934F935F936F937F938F939F9349
:1047A000AF93BF93EF93FF93E0910201F091030168
:1047B0000995FF91EF91BF91AF919F918F917F915B
:1047C0006F915F914F913F912F910F900FBE0F907E
:1047D0001F9018951F920F920FB60F9211242F93CE
:1047E0003F934F935F936F937F938F939F93AF9379
:1047F000BF93EF93FF936091BF0481E068276093BC
:10480000BF0480917F0490918004DC01ED91FC91C4
:104810000190F081E02D09958091000190910101B6
:104820009093890080938800FF91EF91BF91AF91A1
:104830009F918F917F916F915F914F913F912F91B8
:104840000F900FBE0F901F901895EF92FF920F934D
:104850001F93CF93DF93F82E192FE62E042F81E0BC
:10486000860F880F0E94CD0183E00E94CD01CF2DDD
:10487000D12FEC0EFD2EF11CCE15DF05B9F007FF90
:1048800013C0FE0184910E94CD01182F80E00E9488
:10489000CD01812321968111EFCFDF91CF911F911F
:1048A0000F91FF90EF9008958881EDCF81E0F5CFD3
:1048B0006BE275E08DE395E00E94560D4BE255E00A
:1048C0006EEB71E085E295E00E942A0EE5E2F5E0EC
:1048D0008AEC91E09183808384ED91E0918F808FC9
:1048E000128611861486138616861586108A1786F8
:1048F000128A118A148A138A80E791E0978386834B
:104900008CE696E0978B868B88E0858B089565E52D
:1049100075E087E695E00E94560D45E555E06AEDA5
:1049200071E083E595E00E94510EE3E5F5E086EE47
:1049300091E09183808380EF91E0958B848B168248
:1049400015821086178212861186148613861686A3
:104950001586108A178680E791E0938382838CE620
:1049600096E0938B828B80E1818B0895CF92DF92CA
:10497000EF92FF920F931F93CF93DF93C4EBD5E099
:104980001092B7051092B60588EEC82E83E0D82E97
:10499000E12CF12CC092B805D092B905E092BA058D
:1049A000F092BB058DEB92E09093B5058093B40532
:1049B0008DEC90E09093C1058093C0058CEC90E065
:1049C0009093C3058093C20588EC90E09093C50551
:1049D0008093C40589EC90E09093C7058093C60549
:1049E0008AEC90E09093C9058093C8058EEC90E026
:1049F0009093CB058093CA051092CD051092CE05F9
:104A00001092CF051092D0051092C7041092C604E0
:104A1000C092C804D092C904E092CA04F092CB04B8
:104A20008FEC92E09093C5048093C4040FEF1FEFC6
:104A30001093D1040093D004109214051092150520
:104A4000109216051092170510921805109219056C
:104A500010921A0510921B0510921F0510921E0548
:104A600010921D0510921C0565E271E080E091E056
:104A70000E948B2C90931F0580931E0587E097E082
:104A80000E94080F87E093E0909306078093050744
:104A90000E948E0185EE96E00E94741983EF92E0E9
:104AA0009093BD068093BC0681E090E09093C6068B
:104AB0008093C5061092C7061092C8061092C906C8
:104AC0001092CA061092CB061092CC061092CD0618
:104AD0001092CE061092CF061092D0061092D106F8
:104AE0001092D2061092D7061092D8061092D906CC
:104AF0001092DA061092DB061092DC061092DD06A8
:104B00001092DE0689EE96E09093BF068093BE0673
:104B100085E097E09093C4068093C3061092D30675
:104B20001092D4061092D5061092D6068CE080938F
:104B3000C0068AE08093C1068BE08093C20680E0C5
:104B400090E0AAE7B3E48093DF069093E006A09399
:104B5000E106B093E20661E08CE00E94B00461E0FF
:104B60008091C2060E94B00461E08091C1060E945B
:104B7000B00461E08091C1060E9482041092E406B4
:104B80001092E30610926F0610926E06C0927006A5
:104B9000D0927106E0927206F09273061093790635
:104BA0000093780681EE92E090936D0680936C06F8
:104BB00085E696E00E94080F8EE596E00E94080FB9
:104BC000D0935206C09351068EE596E0909354061A
:104BD0008093530685EB9DE090935D0680935C0681
:104BE000D093A405C093A30581E596E09093A60514
:104BF0008093A50587EA95E00E94080F1092AF0503
:104C00001092AE051092B0051092B1051092B30546
:104C10001092B2058091A9059091AA05089730F4E9
:104C200068E070E087EA95E00E9442138CEB96E022
:104C300090939E0580939D0525EE36E03093A00568
:104C400020939F0523EA35E03093A2052093A10528
:104C50002DE935E030939C0520939B059093240526
:104C60008093230587EF96E090932205809321059A
:104C700082E0809320051092930510929405109283
:104C8000950510929605109297051092980510922E
:104C9000990510929A0510928B0510928C0510922E
:104CA0008D0510928E0510928F051092900510922E
:104CB00091051092920587E080937D0510927E0504
:104CC00010927F0510928005109281051092820546
:104CD0001092830510928405109285051092860526
:104CE00080E395E7A0E0B0E0809387059093880586
:104CF000A0938905B0938A056CE676E083E595E09C
:104D00000E9487246CE676E085E295E0DF91CF9102
:104D10001F910F91FF90EF90DF90CF900C9458244B
:104D2000CF93DF93CDB7DEB76B970FB6F894DEBFA6
:104D30000FBECDBF789484B5826084BD84B5816098
:104D400084BD85B5826085BD85B5816085BD809156
:104D50006E00816080936E001092810080918100CE
:104D600082608093810080918100816080938100C6
:104D700080918000816080938000809191008260AA
:104D80008093910080919100816080939100809147
:104D900090008160809390008091C1008460809336
:104DA000C1008091C10082608093C1008091C100E8
:104DB00081608093C1008091C30081608093C300B3
:104DC0008091C00082608093C0008091C2008160A9
:104DD0008093C20080917A00846080937A008091F1
:104DE0007A00826080937A0080917A00816080935B
:104DF0007A0080917A00806880937A001092C104D2
:104E00001092B0041092B1048091D7008160809319
:104E1000D70080EA8093D80089B5806189BD89B5C3
:104E2000826089BD09B400FEFDCF61E070E080E0E2
:104E300090E00E9406058091D8008F7C806180936D
:104E4000D8008091E000807F8093E0008091E100B5
:104E50008E7E8093E1008DE08093E200559A209A47
:104E60008CEB96E00E946D078EED9BE19093E4063B
:104E70008093E30662E085E00E94B00462E086E091
:104E80000E94B0048091670690916806409730F4C4
:104E900060E170E085E696E00E94D810809160069F
:104EA00090916106809730F460E270E08EE596E0C4
:104EB0000E9442138FEF9FEF9093790680937806BC
:104EC00080911E0590911F05009711F00E948E2D74
:104ED0008CE696E090931D0580931C0565E271E0D9
:104EE00080E091E00E948B2C90931F0580931E051B
:104EF00084EB95E00E943D0168EE73E080E090E075
:104F00000E94060581E596E00E94FC050E94BD0511
:104F100060939305709394058093950590939605FF
:104F200088EE93E0A0E0B0E0809397059093980519
:104F3000A0939905B0939A051091200562E0812F06
:104F40000E94B0041092C3041092C204112309F409
:104F500042C1113009F00EC187EB98E0909309012E
:104F600080930801809169008F7380648093690049
:104F7000EB9A62E080917D050E94B00410927E055C
:104F80001092830510928405109285051092860573
:104F900080E395E7A0E0B0E08093870590938805D3
:104FA000A0938905B0938A0561E08DE00E94B0046A
:104FB000789486E090E00E94F22CFC0183EA95E070
:104FC000938382838CE992E0918380838CE094E0E8
:104FD00095838483F093B305E093B20532E0E32E2A
:104FE000F12C40EC842E47E2942E49E0A42EB12C03
:104FF00026E0222E312C8CEB96E00E945616109162
:1050000017016AE070E080E090E00E94060511233D
:1050100009F45AC08CE696E00E94F30318161906AC
:105020000CF052C08CE696E00E94B1038C0197FD13
:105030004BC00E94BD0560938B0570938C058093D7
:105040008D0590938E0580928F0590929005A09289
:105050009105B09292050C8B0D3031F0003409F4BB
:10506000C8C00A3009F0C9C08091690690916A06EB
:10507000029750F165E676E0CE0101960E94291F65
:10508000CE0101960E94721C85E696E00E94F4050E
:1050900080910B0790910C07892B71F06AE383E5EF
:1050A00095E00E949A0D67E077E00E94910D63E21F
:1050B0000E949A0D0E94760DCE0108960E94BD0EA8
:1050C000CE0101960E94BD0E8091B005882309F49F
:1050D0002AC10091A5051091A605D8018D919C913A
:1050E000DC01ED91FC910084F185E02D0995181605
:1050F00019060CF053C180E2682E93E0C92ED12C22
:1051000077247394F80180819181DC01ED91FC9109
:105110000084F185E02D0995181619060CF03EC1A2
:10512000F80180819181DC01ED91FC910284F3858D
:10513000E02D099597FDE6CF8B8F8E3719F4C801C6
:105140000E94FC05F8018681882321F08B8D168250
:1051500086258B8FD80114962D913C9115978B8DB8
:105160002115310509F48FC08D3709F055C0169609
:105170007C92C8CF123071F487EB98E090930501D0
:105180008093040180916900837F8460809369002B
:10519000E99AEFCE133071F487EB98E09093030116
:1051A00080930201809169008C7F81608093690007
:1051B000E89ADFCE173009F0DCCE87EB98E09093C9
:1051C0000B0180930A0180916A008F7C806180933B
:1051D0006A00EE9ACECE87EB98E090930701809319
:1051E0000601809169008F7C806180936900EA9A52
:1051F000C0CE85E696E00E94F40580916906909104
:105200006A06409708F060CFBE016C5E7F4F85E66E
:1052100096E00E94421258CF2330310509F447C06E
:1052200080F421303105C1F12230310509F06ACF17
:10523000F80120853185282B31872087D582C482CB
:1052400061CF2430310509F43FC02530310509F024
:1052500059CF17969C911797890F17968C9317978C
:105260008F3F09F05CC015963C922E9214971296CF
:105270006D917C9113971B96ED91FC911C971A965A
:105280008C9109953FCF8E3709F03CCF81E090E0BB
:10529000F8019583848336CF18961C921897199637
:1052A0008C9319971596FC92EE9214972BCF1A9621
:1052B0008C931A9717968C931797E4E0F0E0159665
:1052C000FC93EE9314971ECF12968D919C91FC0146
:1052D00024813581B9016F5F7F4F26173707E0F4CE
:1052E000AE01455E5F4F0E946A13F80187819B8D76
:1052F000890F87830280F381E02DD80118968D9164
:105300009C9119970197248135812817390709F055
:10531000F9CEE5E0F0E0D3CF15821482E6CFC801E4
:105320000E94FC05EFCE8091A004811107C089E99D
:1053300094E00E94080F81E08093A0048091A3056F
:105340009091A405DC01ED91FC910084F185E02DA4
:1053500009951816190614F58091A3059091A405D6
:10536000DC01ED91FC910284F385E02D099597FD18
:1053700015C089838D3009F06BC18091AE05909185
:10538000AF05DC01ED91FC910484F585E02D69E920
:1053900074E0099589E994E00E94F4058091AE05D6
:1053A0009091AF05009739F0DC01ED91FC910680FA
:1053B000F781E02D09958091B2059091B305892B75
:1053C00009F454C062E174E083E595E00E942B1477
:1053D0008C016091B2057091B305DB01ED91FC91F8
:1053E0000480F581E02DCE0101960995BE016F5F25
:1053F0007F4FC8010E94910D0E94760DCE0101964B
:105400000E94BD0E8091AE059091AF050097D9F036
:10541000DC01ED91FC910084F185E02D09958091EE
:10542000AE059091AF052091B2053091B30582177A
:10543000930749F0009739F0DC01ED91FC9102806F
:10544000F381E02D09958091B2059091B305909379
:10545000AF058093AE051092B3051092B205DC0142
:10546000ED91FC910284F385E02D099583E995E0A7
:105470000E94CA05882309F4DEC00E94BD0560931E
:1054800093057093940580939505909396058AEF04
:1054900090E0A0E0B0E08093970590939805A093EA
:1054A0009905B0939A056091AA0481E068276093FA
:1054B000AA048DE00E94820420E030E0A9016091FE
:1054C000D3067091D4068091D5069091D6060E949D
:1054D000432F882341F167E174E083E595E00E9462
:1054E0002B148C01DC01ED91FC9136970190F08139
:1054F000E02D3296E80FF91F818192818F718062D1
:10550000928381838DE995E00E94830928E030E051
:1055100040E050E00E946F31BA01A901C8010E9429
:10552000571A0E94760D85E00E9459048C01DD24F3
:10553000D394892B09F0D12CE091BE06F091BF06DF
:1055400044805580668077808091A904D816E9F060
:1055500001151105A1F481E090E00E9476154091BB
:10556000FD065091FE066091FF0670910007440D04
:10557000551D661D771D8CEB96E00E946606012B7B
:1055800021F08CEB96E00E940E06D092A90486E0F2
:105590000E9459048C01DD24D394892B09F0D12C6D
:1055A0008091A804D816F9F001151105B1F48FEF18
:1055B0009FEF0E9476158091FD069091FE06A091C6
:1055C000FF06B0910007B301A201481B590B6A0BFB
:1055D0007B0B8CEB96E00E946606012B21F08CEB96
:1055E00096E00E940E06D092A80480917D050E944C
:1055F000590420917E05892B99F1222341F069E11C
:1056000074E083E595E00E942B140E94760D1092C1
:105610007E051092830510928405109285051092E4
:1056200086058BE895E00E94CA05882321F08CEB63
:1056300096E00E946D0780E090E0892B09F4DBCCB6
:105640000E94EB02882309F4D6CC0E940000D0CC43
:10565000BE016F5F7F4F89E994E00E9442129ECEA7
:10566000211146C0409087055090880560908905BB
:1056700070908A050E94BD0560937F057093800538
:105680008093810590938205409283055092840512
:10569000609285057092860581E080937E0567E2C1
:1056A00074E083E595E00E942B140E94760DAE0114
:1056B0004F5F5F4F6EE274E0CE0144960E94521439
:1056C000BE016C5E7F4FCE0101960E94291FCE0164
:1056D00001960E94721CCE0108960E94BD0ECE015A
:1056E00001960E94BD0ECE0144960E94BD0E99CF38
:1056F0008FE795E00E94CA058111B4CF92CF85E271
:1057000095E00E94F60C83E595E00E943E0D87EA45
:1057100095E00E94BD0E8EE596E00E94BD0E85E6E6
:1057200096E00E94BD0E87E097E00C94BD0EB0E0BD
:10573000A0E0EDE9FBE20C94912E5C016B017A0193
:105740006115710519F0FB0191838083E114F10467
:1057500049F0C7010297839728F060E070E0CB0121
:105760009CC05E01E5012196F5011081812F90E03A
:105770000E94822C892BA9F71D3209F056C0219670
:10578000F501118101E0E114F10409F4AEC0F0E18A
:10579000EF16F10409F08EC0103341F488818F7D3B
:1057A000883509F083C0198122960260E0E1EE2E6F
:1057B000F12C88248A94982CA82CFFE0BF2E20E09E
:1057C00060E070E0CB0127010F2C000C6608770821
:1057D000FE0150ED352E310E39E0331538F43FEB34
:1057E000310F3A31A0F549EC342E310E3E141F042E
:1057F000BCF52F3FB9F086169706A806B90670F1DA
:10580000A30192010E94532E232D30E050E040E08E
:10581000620F731F841F951F621773078407950714
:10582000E8F021E021961081D3CF1B3221F4E5016D
:105830002296F501118100E0A6CF78E0E72EF12C49
:1058400088248A94982CA82C6FE1B62EB8CF3FE913
:10585000310F3A3128F439EA332EC7CF2FEFE2CF98
:10586000C114D10431F02223E9F02197F601D1834C
:10587000C08300FF07C090958095709561957F4F1C
:105880008F4F9F4F2F3F49F482E290E0909315078E
:10589000809314076FEF7FEFCB01CDB7DEB7E1E167
:1058A0000C94AD2E01FFE5CF2297E0CF10E3E11479
:1058B000F10419F23AE0E316F104E9F080E1E816A8
:1058C000F10409F473CFE8E0EE16F10409F4B8CF5F
:1058D0006FEF7FEFCB0197010F2C000C440B550BA2
:1058E0000E94632E49015A016ACF103309F456CF42
:1058F0009AE0E92EF12C89E9882E982CA82C89E1D0
:10590000B82E5DCF91110C94172E803219F089506A
:105910008550C8F708950F931F93CF93DF93009797
:1059200059F46115710541F4F0E0E0E0CF01DF9139
:10593000CF911F910F9108958B01EC016EE070E003
:1059400081E090E00E94D62CFC01892B69F380E86D
:1059500083830115110571F01387028781E8838322
:1059600080910E0790910F07892B21F4F0930F0778
:10597000E0930E072097D1F2D187C08783818260A0
:1059800083838091100790911107892B79F6F0930A
:105990001107E09310078091120790911307892B4C
:1059A00029F6F0931307E0931207C0CF0F931F93CC
:1059B000CF93DF93869F8001879F100D969F100DD8
:1059C0001124C8010E94F22CEC01009729F0A801D3
:1059D00070E060E00E941A2ECE01DF91CF911F91FE
:1059E0000F9108950F931F93CF93DF93823091050A
:1059F00010F482E090E0E0911807F091190730E090
:105A000020E0B0E0A0E0309799F42115310509F4C9
:105A10004AC0281B390B24303105D8F58A819B8177
:105A20006115710589F1FB0193838283FE0111C029
:105A3000408151810281138148175907E0F04817CE
:105A4000590799F4109761F012960C9312971396D8
:105A50001C933296CF01DF91CF911F910F91089542
:105A60000093180710931907F4CF2115310551F051
:105A70004217530738F0A901DB019A01BD01DF018C
:105A8000F801C1CFEF01F9CF909319078093180760
:105A9000CDCFFE01E20FF31F819391932250310984
:105AA00039832883D7CF2091160730911707232BEE
:105AB00041F420911A0130911B0130931707209374
:105AC000160720911801309119012115310541F473
:105AD0002DB73EB740911C0150911D01241B350B81
