:100000000C94D6000C9452230C942B230C940423B0
:100010000C94DD220C94FE000C94FE000C94B6228D
:100020000C94FE000C94FE000C94731F0C94E21FC1
:100030000C94FE000C94FE000C94FE000C94FE0048
:100040000C94FE000C9479230C94FE000C94FE009A
:100050000C94FE000C94FE000C94FE000C946C2298
:100060000C94FE000C943A220C9414220C94FE0082
:100070000C94FE000C94FE000C94FE000C94FE0008
:100080000C94FE000C94FE000C94FE000C94FE00F8
:100090000C94FE000C94FE000C94FE000C94FE00E8
:1000A0000C94FE000C94FE000C94FE000000000076
:1000B000240027002A002D00300000000000250049
:1000C00028002B002E003100000000002300260035
:1000D00029002C002F000404040404030405020278
:1000E00002020403020202020606060606060404D1
:1000F0000202020404040802011040804010204063
:10010000804080080204018040201002011080100D
:10011000204040200000000200090F0000030401FD
:10012000000C0000000000000000000000000000C3
:10013000000000080B000202020000090400000198
:10014000020200000524001001052401010104241D
:10015000020605240600010705810310004009047A
:100160000100020A00000007050202400000070526
:1001700083024000000403090412010002EF02019F
:100180004041233680000101020301417264756918
:100190006E6F204C4C430041726475696E6F204C49
:1001A000656F6E6172646F0045241C2B11241FBEA5
:1001B000CFEFDAE0DEBFCDBF14E0A0E0B1E0E4E3D2
:1001C000F8E602C005900D92AC33B107D9F727E0ED
:1001D000ACE3B4E001C01D92A931B207E1F710E031
:1001E000C5EDD0E004C02197FE010E942B31C43D33
:1001F000D107C9F70E940F260C940D340C9400000F
:100200001F93CF93DF93182FC0912405D09125051C
:100210008A3041F4E881F9810190F081E02D6DE0B0
:10022000CE010995E881F9810190F081E02D612FDF
:10023000CE01099521E030E0019711F430E020E093
:10024000C901DF91CF911F910895CF93DF93C091A2
:100250002405D0912505E881F9810084F185E02D00
:10026000CE010995892BB9F3E881F9810284F385E0
:10027000E02DCE01DF91CF910994FC01A089B189D5
:1002800082E08C93A485B5851C92A685B7858FECFA
:100290008C93108EA489B58986E08C93A289B3894A
:1002A0008C9180618C93A289B3898C9188608C93A6
:1002B000A289B3898C9180688C930288F389E02DA0
:1002C00080818F7D80830895FC018091C9048823FB
:1002D00011F13FB7F89482E08093E9002091F20099
:1002E000822F90E01816190614F481E090E088231C
:1002F00039F0289844E64093C8044091F1004083C7
:10030000222339F02091F200211103C02BE6209323
:10031000E8003FBF08958FEF9FEF0895109281008E
:100320001092850010928400EFE6F0E080818D7FCE
:1003300080838FEF90E09093890080938800909362
:100340008B0080938A00109280001092C704089559
:100350002FB7F89483E08093E9009091E800892F0B
:10036000807295FF04C09091F20080E4891B2FBF3A
:1003700008958091BF0481110DC082E08093BB0479
:1003800084E08093BC041092BE041092BD0481E00E
:100390008093BF048BEB94E008954091B504509195
:1003A000B6042091B3043091B40442175307B4F457
:1003B0009091E8009570E1F39091E80092FD19C0EA
:1003C0008093F1008091B5049091B60401968F73EB
:1003D0009927892B19F48EEF8093E8008091B5045A
:1003E0009091B60401969093B6048093B50481E091
:1003F000089580E00895DF92EF92FF920F931F938C
:10040000CF93DF93D82E8A01EB017B01E40EF51E1A
:10041000CE15DF0559F0D7FE12C0FE0184910E946F
:10042000CD0121968111F4CF0FEF1FEFC801DF91AD
:10043000CF911F910F91FF90EF90DF9008958881E9
:10044000EECF0F931F93CF93DF931F92CDB7DEB7FD
:1004500082E0898342E450E063E371E080E80E9437
:10046000FB010E94B901DC0112960D911C9101154E
:10047000110589F0D801ED91FC910280F381E02D06
:10048000BE016F5F7F4FC801099597FD04C0F80159
:1004900000851185ECCF89810F90DF91CF911F915D
:1004A0000F910895615030F02091F100FC012083FC
:1004B0000196F8CF289884E68093C8040895DC015B
:1004C000ED91FC910190F081E02D0994AF92BF92E3
:1004D000CF92DF92EF92FF920F931F93CF93DF9310
:1004E0006C017B018B01040F151FEB015E01AE183F
:1004F000BF08C017D10759F06991D601ED91FC9161
:100500000190F081E02DC6010995892B79F7C5018D
:10051000DF91CF911F910F91FF90EF90DF90CF90DF
:10052000BF90AF900895CF93C1E020E030E0A901E3
:10053000FC016789708D818D928D0E94E02E811162
:1005400001C0C0E08C2FCF910895DC011296ED918F
:10055000FC9164817581868197810895FC01538D9A
:10056000448D252F30E0842F90E0821B930B54178D
:1005700010F0CF96089501970895FC01918D828D1A
:10058000981761F0A28DAE0FBF2FB11D5D968C91B3
:10059000928D9F5F9F73928F90E008958FEF9FEFF2
:1005A0000895FC01918D828D981731F0828DE80FAE
:1005B000F11D858D90E008958FEF9FEF0895FC0168
:1005C000918D228D892F90E0805C9F4F821B910935
:1005D0008F739927089584EB95E00E94DF0221E054
:1005E000892B09F420E0822F089580E090E0892B88
:1005F00029F00E94EB0281110C9400000895FC0187
:10060000A48DA80FB92FB11DA35ABF4F2C91848D73
:1006100090E001968F739927848FA689B7892C93D0
:10062000A089B1898C9182748C93938D848D981359
:1006300006C00288F389E02D80818F7D8083089534
:10064000EF92FF920F931F93CF93DF93EC0181E022
:10065000888F9B8D8C8D981319C0E889F9898081CA
:1006600085FF14C09FB7F894EE89FF896083E889FD
:10067000F9898081827480839FBF81E090E0DF915F
:10068000CF911F910F91FF90EF900895F62E0B8D53
:1006900010E00F5F1F4F0F731127E02E8C8D8E110E
:1006A0000CC00FB607FCFACFE889F989808185FF75
:1006B000F5CFCE010E94FF02F1CFEB8DEC0FFD2FA5
:1006C000F11DE35AFF4FF0829FB7F8940B8FEA8930
:1006D000FB8980818062CFCFCF93DF93EC01888D3F
:1006E0008823B9F0AA89BB89E889F9898C9185FDAD
:1006F00003C0808186FD0DC00FB607FCF7CF8C913B
:1007000085FFF2CF808185FFEDCFCE010E94FF02F1
:10071000E9CFDF91CF910895CF93DF931F92CDB7AB
:10072000DEB76983DC01ED91FC910280F381E02D5D
:1007300041E050E0BE016F5F7F4F09950F90DF9160
:10074000CF91089583E08093E9008091F20088239F
:1007500019F08AE38093E80008950E94A80190E0D0
:100760000895CF93DF931F92CDB7DEB7FC01848548
:10077000958597FD08C02FEF3FEF358724870F90B1
:10078000DF91CF910895CE0101960E9464010197F7
:1007900019F4898190E0F3CF8FEF9FEFF0CF0F93A3
:1007A0001F93CF93DF931F92CDB7DEB78C01FC016F
:1007B0008485958597FF0BC0CE0101960E94640148
:1007C000019771F4898190E0F80195878487F80199
:1007D000848595850F90DF91CF911F910F9108959A
:1007E0008FEF9FEFF1CFFC018485958597FD0BC0BE
:1007F0009FB7F89482E08093E9008091F2009FBF58
:1008000090E0019608959FB7F89482E08093E90004
:100810008091F2009FBF90E0089581508F3008F0E2
:1008200047C0E82FF0E0E95EFB4F0C942B31340415
:10083000380426042C0430045804580458043B049B
:100840004104450449044F04580453048091800036
:100850008F77809380000895809180008F7DF9CFFD
:1008600080918000877FF5CF84B58F7784BD089510
:1008700084B58F7DFBCF809190008F77809390001F
:100880000895809190008F7DF9CF80919000877FAF
:10089000F5CF8091C0008F778093C000089580913C
:1008A000C0008F7DF9CF8091C200877F8093C20006
:1008B0000895CF93DF93282F30E0F901EC5EFE4FCF
:1008C0008491F901EB50FF4FD491F901EA52FF4FA7
:1008D000C491CC23A1F081110E940D04EC2FF0E013
:1008E000EE0FFF1FE853FF4FA591B491EC91ED235C
:1008F00081E090E009F480E0DF91CF91089580E0FD
:1009000090E0FACF1F93CF93DF93282F30E0F901C7
:10091000EC5EFE4F8491F901EB50FF4FD491F90149
:10092000EA52FF4FC491CC23A9F0162F81110E94E7
:100930000D04EC2FF0E0EE0FFF1FE654FF4FA591E2
:10094000B4918FB7F894EC91111108C0D095DE23C3
:10095000DC938FBFDF91CF911F910895DE2BF8CFED
:10096000CF93DF9390E0FC01EB50FF4F24918A522C
:100970009F4FFC0184918823D1F090E0880F991F4C
:10098000FC01E455FF4FA591B491FC01E654FF4FE3
:10099000C591D491623071F49FB7F8943C91822F45
:1009A000809583238C93E8812E2B28839FBFDF9132
:1009B000CF9108958FB7F894EC912E2B2C938FBF85
:1009C000F6CF3FB7F89480919D0490919E04A0913A
:1009D0009F04B091A00426B5A89B05C02F3F19F035
:1009E0000196A11DB11D3FBFBA2FA92F982F8827AF
:1009F000BC01CD01620F711D811D911D42E0660F8A
:100A0000771F881F991F4A95D1F708958F929F925B
:100A1000AF92BF92CF92DF92EF92FF924B015C01B7
:100A20000E94E1046B017C010E94E1046C197D09C4
:100A30008E099F09683E734081059105A8F321E066
:100A4000821A9108A108B10888EEC80E83E0D81E6A
:100A5000E11CF11C81149104A104B10429F7FF9059
:100A6000EF90DF90CF90BF90AF909F908F900895C0
:100A70008F929F92AF92BF92CF92DF92EF92FF92AE
:100A80000F931F93CF93DF936C017B018A018091B9
:100A90001701882309F45CC08091C904882309F4F4
:100AA00057C08091B90480FF05C08091E00082604A
:100AB0008093E000E801B12C8AEFA82E93E0892E04
:100AC0002AE3922E209711F4BB20D9F10E94A801AD
:100AD00081110AC0AA94AA20D9F161E070E080E0F7
:100AE00090E00E940605EECF8C171D0611F00CF069
:100AF0008C2F9FB7F8948092E9002091E80025FDA3
:100B000002C09FBFDFCF282F30E0C21BD30BF701FD
:100B1000815020F041914093F100FACFE20EF31E94
:100B2000BB2021F09092E800B12CEBCF8091E8003F
:100B300085FDE7CF9092E800BB24B394209709F39A
:100B4000F3CF5D9884E68093BA04101611063CF04A
:100B500081E090E0F6019383828310E000E0C80119
:100B6000DF91CF911F910F91FF90EF90DF90CF9089
:100B7000BF90AF909F908F9008952FB7F894609199
:100B8000990470919A0480919B0490919C042FBFCA
:100B900008950895FC0124813581232B11F01582DD
:100BA00014820895CF93DF93EC011D821C828A8109
:100BB0009B810E94CA051E821F82198618868FEFAC
:100BC0008A87DF91CF9108958F929F92AF92BF92C3
:100BD000CF92DF92EF92FF92CF93DF93EC01E88107
:100BE000F9810484F585E02D09958823B9F1E88120
:100BF000F9810284F385E02DCE0109956B017C011A
:100C00006F89788D898D9A8D9B01AC010E9444304B
:100C10009B01AC0160E070E0CB010E94732E4B01A0
:100C20005C016F8D78A189A19AA190589B01AC01BC
:100C30000E94742E9B01AC01C501B4010E94E52EF7
:100C40000E94572F072E000C880B990BC60ED71E3B
:100C5000E81EF91ECB86DC86ED86FE86DF91CF91FD
:100C6000FF90EF90DF90CF90BF90AF909F908F90CC
:100C70000895CF93DF93EC018F819885DC01ED918E
:100C8000FC910280F381E02D09951F8E18A219A214
:100C90001AA21F8A188E198E1A8E1A86198661E07A
:100CA0008D810E94820460E08C810E948204EFA109
:100CB000F8A5309719F0DF91CF910994DF91CF918A
:100CC0000895FC01818508952F923F924F925F9283
:100CD0006F927F928F929F92AF92BF92CF92DF924C
:100CE000EF92FF920F931F93CF93DF93EC01EA8073
:100CF000FB80F70184819581A681B7818A019B01E0
:100D0000081B190B2A0B3B0BD901C8014B875C87C9
:100D10006D877E8701E010E0181619061A061B067B
:100D200014F010E000E08827B7FD83959927AA27E3
:100D3000BB27081B190B1A870987D7011A96CD9074
:100D4000DC900C9DB0010D9D700D1C9D700D11244B
:100D500090E080E00E948D2F6B8F7C8F8D8F9E8F17
:100D6000B60190E080E00E948D2F4B015C01F701FD
:100D70006085718590E080E00E948D2F20E030E05A
:100D80004AE754E40E94E52E9B01AC01C501B40181
:100D90000E94E52E4B015C01B801110F880B990BE5
:100DA0000E948F2F9B01AC01C501B4010E94443009
:100DB0006F8F78A389A39AA3D7011C968C9100E02A
:100DC00011E0882311F001E010E060E08C810E94C6
:100DD000820489859A8597FF102F612F8E810E944A
:100DE000820460E08D810E9482040E94BD056F87AD
:100DF000788B898B9A8BCF88D88CE98CFA8C20E001
:100E000030E0A901C701B6010E943F3046015701F9
:100E1000181624F0B7FAB094B7F8B0944BA05CA0C1
:100E20006DA07EA00F811885F80120803180A5017A
:100E30009401C301B2010E943F30181674F5698510
:100E40007A85072E000C880B990B0E948F2FA30127
:100E500092010E9444306B8B7C8B8D8B9E8B6F8BB1
:100E6000788F898F9A8FD101ED91FC919E01B3010A
:100E7000A201C801DF91CF911F910F91FF90EF90D8
:100E8000DF90CF90BF90AF909F908F907F906F90AA
:100E90005F904F903F902F900994CB8ADC8AED8A27
:100EA000FE8AD1011496ED91FC91B501A401C8010F
:100EB000DF91CF911F910F91FF90EF90DF90CF9036
:100EC000BF90AF909F908F907F906F905F904F906A
:100ED0003F902F9009941F93CF93DF93EC01162F2F
:100EE0008C810E948204EA81FB8144815581668164
:100EF0007781112391F089859A85092E000CAA0B20
:100F0000BB0B840F951FA61FB71F84839583A683F1
:100F1000B783DF91CF911F9108958B859C85AD8517
:100F2000BE85481759076A077B0799F7E881F98159
:100F30000280F381E02DCE01DF91CF911F910994C2
:100F4000CF92DF92EF92FF92CB01BA019A01AC01EE
:100F50000E94742E6B017C0120E034E244E75BE4E4
:100F60000E943F3018161CF120E030E044E753E4C3
:100F7000C701B6010E94E02E87FF06C0C12CD12C0C
:100F800094E7E92E93E4F92EA701960160E074E25C
:100F900084E79BE40E94E52E0E945E2F709301017E
:100FA00060930001FF90EF90DF90CF900895C12CE7
:100FB00084E2D82E84E7E82E8BE4F82EE5CF309338
:100FC0008804209387041092C7040E94A007809190
:100FD0000001909101019093890080938800109204
:100FE0008500109284001092800089E08093810037
:100FF000EFE6F0E080818260808308950C948E019A
:10100000EF92FF920F931F93CF93DF93EC017B013D
:101010008A01E881F9810480F581E02D0995801726
:10102000910758F0A801B701CE01DF91CF911F9130
:101030000F91FF90EF900C94380590E080E0DF91E5
:10104000CF911F910F91FF90EF90089508950E9406
:10105000BD05ECE1F5E0608371838283938380EDCD
:1010600097E0A0E0B0E084839583A683B7830895DA
:101070000895DC011296ED91FC9181E085878281D3
:1010800093810E94D2050E94BD05ECE1F5E06083EA
:1010900071838283938380E69AEEA0E0B0E084833C
:1010A0009583A683B7830895CF93DF93EC018BEFED
:1010B0009AE49983888323E02A8324E02B832DE01C
:1010C000EEE1F1E0DE01149601900D922A95E1F730
:1010D000198A1A8A1B8A1C8A24EF31E03E8B2D8BD9
:1010E00040E459EB66E070E04F8B588F698F7A8F40
:1010F00020E639E03C8F2B8F9E8F8D8FDF91CF9133
:101100000895809128050E945904892B39F5809112
:10111000CA049091CB04019709F582E090E0909386
:10112000CB048093CA0480912B0590912C05E0910B
:101130002905F0912A054081518162817381DC018A
:101140001296ED91FC9113974483558366837783C0
:10115000ED91FC910480F581E02D09940895FC0146
:101160008789908D009739F02489358928173907A8
:1011700028F4308F278B6FEF7FEF08C001976F3F08
:10118000760731F4908F878B70E060E0CB01089593
:10119000A089B189A80FB91F9B01215031092F3FA8
:1011A000310538F4262F3C91321305C0908F878B80
:1011B000EDCF20E0F8CF278524FFDDCF908F878B00
:1011C0006C93E4CFCF93DF93EC01E881F98102883F
:1011D000F389E02D09958F3F980731F02F89388DDD
:1011E0002F5F3F4F388F2F8BDF91CF910895DC0118
:1011F00057968D919C91589754962D913C91559767
:101200008217930740F45096ED91FC91E80FF91F77
:10121000808190E008958FEF9FEF0895EF92FF9205
:10122000CF93DF93FC01DB0160E070E0CB01E78846
:10123000F08CC489D589EC16FD06A8F462177307F3
:101240008407950784F4C089D189CE0DDF1DC8813C
:10125000CD936F5F7F4F8F4F9F4FC789D08D219662
:10126000D08FC78BE4CFDF91CF91FF90EF9008959F
:10127000FC01848995892789308D821B930B089501
:1012800090E080E00895242FDC01ED91FC91008432
:10129000F185E02D41E009940895CF92DF92EF921D
:1012A000FF92DC011296ED91FC911397C788D08CC8
:1012B000E18CF28C8D919C91DC01ED91FC9102848A
:1012C000F385E02D099597FF05C06C0D7D1D8E1DE2
:1012D0009F1DF9CFA70196010E940C31FF90EF905E
:1012E000DF90CF9008958F929F92AF92BF92CF924E
:1012F000DF92EF92FF926A017B01DC011296ED9181
:10130000FC918788908CA18CB28C0E944D09C61AE2
:10131000D70AE80AF90A09F1C501B40122E030E070
:1013200040E050E00E940C312C153D054E055F0554
:1013300024F4C818D908EA08FB0888279927DC0193
:10134000821B930BA40BB50BC816D906EA06FB0645
:1013500024F4C80CD91CEA1CFB1CC701B601FF9081
:10136000EF90DF90CF90BF90AF909F908F900895B7
:101370008F929F92AF92BF92CF92DF92EF92FF92A5
:10138000CF93DF93EC014A015B010E944D096B0191
:101390007C01B501A401CE010E9473096C0D7D1D75
:1013A0008E1D9F1DDF91CF91FF90EF90DF90CF902A
:1013B000BF90AF909F908F900895CF93DF93EC01F3
:1013C000E881F9810288F389E02D09958F3F98071C
:1013D00031F02D813E812F5F3F4F3E832D83DF9182
:1013E000CF9108958FEF9FEF089560E070E0CB01FB
:1013F0000895FF920F931F93CF93DF938C01EB011E
:101400006F3F7607B9F0F62EEAE06E1306C06DE086
:10141000F801808991890E945F026F2DF80180890F
:1014200091890E945F02CE01DF91CF911F910F91B0
:10143000FF900895D0E0C0E0F6CF7F928F929F9208
:10144000AF92BF92CF92DF92EF92FF920F931F93D2
:10145000CF93DF938C0149015A01EB01C12CD12CB0
:101460007601C814D904EA04FB04B4F479908AE044
:10147000781206C06DE0F801808991890E945F02B0
:10148000672DF801808991890E945F02FFEFCF1AD2
:10149000DF0AEF0AFF0AE5CFC501B401DF91CF9162
:1014A0001F910F91FF90EF90DF90CF90BF90AF9082
:1014B0009F908F907F900895CB010895CF93DF93F5
:1014C000EC0188899989DC01ED91FC910084F1851A
:1014D000E02D0995892BA9F388899989DC01ED9183
:1014E000FC910284F385E02DDF91CF910994CF9395
:1014F000DF93EC0188899989DC01ED91FC910084EE
:10150000F185E02D0995892BA9F388899989DC015A
:10151000ED91FC910484F585E02DDF91CF91099444
:101520008F929F92AF92BF92CF92DF92EF92FF92F3
:101530000F931F93CF93DF938C0149015A01EB0165
:10154000C12CD12C7601D80150968D919C91DC0153
:10155000ED91FC910284F385E02D09958F3F61F0B8
:10156000C814D904EA04FB043CF48993BFEFCB1AF6
:10157000DB0AEB0AFB0AE7CFC701B601DF91CF9187
:101580001F910F91FF90EF90DF90CF90BF90AF90A1
:101590009F908F900895DC0150968D919C91DC0175
:1015A000ED91FC910084F185E02D099490E080E0BC
:1015B000089590E080E00895089590E080E0089517
:1015C0001F93CF93DF93EC01162F8F8580FF0BC005
:1015D000E881F9810084F185E02D20E144E070E0AC
:1015E00060E0CE010995EB85FC85812F90E02D858B
:1015F0003E85E217F30758F410832B853C852F5F57
:101600003F4F3C872B87DF91CF911F910895E88151
:10161000F981028CF38DE02DBC01CE01DF91CF91D9
:101620001F9109948F929F92AF92BF92CF92DF92B7
:10163000EF92FF920F931F93CF93DF938C01490199
:101640005A01EB01C12CD12C7601C814D904EA044B
:10165000FB0464F46991C8010E94E00A019641F01C
:101660008FEFC81AD80AE80AF80AEFCF75016401AB
:10167000C701B601DF91CF911F910F91FF90EF90BD
:10168000DF90CF90BF90AF909F908F900895089576
:10169000CF93DF93EC01E881F98136970190F081D7
:1016A000E02DE80FF91F83899489DC01ED91FC910D
:1016B0000484F585E02D0995019659F4E881F981B6
:1016C00036970190F081E02DEC0FFD1F8581816040
:1016D0008583CE01DF91CF9108958F929F92AF9233
:1016E000BF92EF92FF920F931F93CF93DF93EC0182
:1016F0007B0149015A01E881F98136970190F08117
:10170000E02DE80FF91F03891489D8011F968C91E9
:101710001F9780FF0BC0ED91FC910084F185E02DB7
:1017200020E144E070E060E0C8010995D801ED9146
:10173000FC91008CF18DE02DA5019401B701C80149
:1017400009956F3F7F4F79F4E881F98136970190D1
:10175000F081E02DEC0FFD1F858123893489232B37
:1017600071F082608583CE01DF91CF911F910F913F
:10177000FF90EF90BF90AF909F908F9008958360FF
:10178000F1CFCF93DF93EC01E881F9813697019097
:10179000F081E02DE80FF91F838994890E94E00A07
:1017A000019679F4E881F98136970190F081E02D76
:1017B000EC0FFD1F858123893489232B31F0826052
:1017C0008583CE01DF91CF9108958360F9CF4F9249
:1017D0005F926F927F928F929F92AF92BF92CF92C1
:1017E000DF92EF92FF920F931F93CF93DF93EC0161
:1017F0008B0129013A01E881F98136970190F08146
:10180000E02D3296E80FF91FC284D384E484F58476
:10181000C418D508E608F708818192818E7099274F
:10182000049791F446015701181419041A041B0473
:10183000B4F1D701C601F7FE03C080E090E0DC01FF
:10184000C81AD90AEA0AFB0AA3019201B801CE011B
:101850000E946D0BE881F98136970190F081E02DAF
:10186000EC0FFD1F838194818E709927029749F5B3
:10187000E881F98136970190F081E02D1C141D0458
:101880001E041F04F4F481E0C81AD108E108F1082D
:10189000EC0FFD1F6089CE010E94C10BE9CF81E0F2
:1018A000881A9108A108B108E881F981369701905A
:1018B000F081E02DEC0FFD1F6089CE010E94C10B6D
:1018C000B3CFE881F981369780819181C80FD91F04
:1018D0001C861D861E861F86DF91CF911F910F915A
:1018E000FF90EF90DF90CF90BF90AF909F908F9040
:1018F0007F906F905F904F90089521E0DC012C93D2
:10190000DB01ED91FC91369780819181680F791F01
:10191000FB0181899289009711F00C94480B08957E
:10192000DC01ED91FC9136970190F081E02DE80FFC
:10193000F91F8DEA91E09183808387EB91E0978393
:10194000868308952DEA31E0FC013183208327EB63
:1019500031E0378326830895FB0120813181FC012A
:1019600031832083FB014281538126503109F901E3
:1019700020813181820F931FFC01518340830895A0
:1019800029EC31E0FC013183208323ED31E0318FFC
:10199000208F6DEB71E00C94AC0CDC01ED91FC91AF
:1019A000369720813181820F931F0C94C00C0895CB
:1019B000DC01ED91FC9136970190F081E02DE80F6C
:1019C000F91F89E991E09183808383EA91E0938311
:1019D0008283089529E931E0FC013183208323EAE1
:1019E00031E0338322830895FB0120813181FC01A2
:1019F00031832083FB014281538126503109F90153
:101A000020813181820F931FFC015183408308950F
:101A100025EE31E0FC01318320832FEE31E0358B60
:101A2000248B69ED71E00C94F40CDC01ED91FC91D8
:101A3000369720813181820F931F0C94080D0895F1
:101A4000FC0181E290E094838383158216821782E1
:101A500086E090E0A0E0B0E080879187A287B3871E
:101A600014861586168617868FE891E09183808309
:101A700080E2808B128A118A748B638B158A089599
:101A80000F931F93CF93DF931F92CDB7DEB78C01D7
:101A9000BC01CE0101960E947D0C6AE0C8010E9443
:101AA000C10BC8010E94480BC8010F90DF91CF9174
:101AB0001F910F910895FB012481358150E040E092
:101AC000608171810C946D0BFF920F931F93CF93E4
:101AD000DF931F92CDB7DEB78C01F62EBC01CE018D
:101AE00001960E947D0C6F2DC8010E94C10BC80198
:101AF0000F90DF91CF911F910F91FF900895803843
:101B0000C9F08A3811F58091AE059091AF05E0914A
:101B1000A505F091A6050280F381E02D0190F081EA
:101B2000E02D608170E0DC01ED91FC910088F1898D
:101B3000E02D09948091AE059091AF05DC01ED9107
:101B4000FC910684F785E02DF4CF0895089508955B
:101B50000F931F93CF93DF93409120055091210560
:101B60006091220570912305452B462B472B79F177
:101B7000EC010E94BD0500911C0510911D052091EE
:101B80001E0530911F05601B710B820B930B00919A
:101B90002005109121052091220530912305601721
:101BA00071078207930798F0109220051092210583
:101BB0001092220510922305E881F9810488F589A5
:101BC000E02DCE01DF91CF911F910F910994DF910C
:101BD000CF911F910F910895CF92DF92EF92FF92D4
:101BE0000F931F93FB01DC0100E010E098016A01F4
:101BF000F12CE12C0C151D052E053F0538F46191E3
:101C00006D930F5F1F4F2F4F3F4FF4CF840F951FE2
:101C10001F910F91FF90EF90DF90CF900895CF9399
:101C2000DF93EB0188819981ADE2B5E011969C9339
:101C30008E932A813B810697EC01E881F981E35D6F
:101C4000FA4F3183208312961D921D921D921C9291
:101C5000159781E290E09483838383E395E0948BEE
:101C6000838B1582158ADF91CF910895DB012D9129
:101C70003C911197FC013183208312966D917C91E8
:101C800026503109D901ED91FC91E80FF91F7183BC
:101C9000608381E290E094838383548B438B15822D
:101CA000158A08950C942B2D0C942B2D0C942B2D10
:101CB0000C942B2D0C942B2DCF93DF93EC010E94D1
:101CC000080DCE01DF91CF910C942B2DDC01ED910D
:101CD000FC91369720813181820F931F0C945C0E0A
:101CE000CF93DF93EC010E94C00CCE01DF91CF9126
:101CF0000C942B2DDC01ED91FC91369720813181E4
:101D0000820F931F0C94700E0C942B2D0C942B2D82
:101D1000DC01ED91FC91369720813181820F931F78
:101D20000C94860E0C942B2D0C942B2DDC01ED9134
:101D3000FC91369720813181820F931F0C94940E71
:101D40000C942B2DFC01808191810C942B2D23E18F
:101D500032E0FC013183208340960C94A20ECF9395
:101D6000DF93EC010E94A70ECE01DF91CF910C947E
:101D70002B2DCF93DF93EC0181E092E09983888350
:101D80008BE092E09E8F8D8FCE0102960E94A70E6F
:101D900065EF71E0CE01DF91CF910C94F40CDC0182
:101DA000ED91FC91369720813181820F931F0C9425
:101DB000B90ECF93DF93EC010E94B90ECE01DF91F3
:101DC000CF910C942B2DDC01ED91FC913697208165
:101DD0003181820F931F0C94D90ECF93DF93EC01C6
:101DE00088E090E09B838A831D821C820E948F2C56
:101DF00099838883DF91CF9108950F931F93CF9399
:101E0000DF93EC018C010E5F1F4FB8014D960E94CD
:101E1000200DA80165EF71E0CE010E94360E81E031
:101E200092E0998388838BE092E09E8F8D8F1E8253
:101E30001D8218861F821A8619861C861B861E869E
:101E40001D86188A1F86198A83E192E09B838A8304
:101E5000CE0142960E94ED0E1A8E198E1C8E1B8E9C
:101E600080E1898BDF91CF911F910F9108950F939E
:101E70001F93CF938C01C62F8091900481112FC0A6
:101E80008CE090E090938C0480938B0484E090E04D
:101E900090938E0480938D048CE090E00E948F2CB0
:101EA00090938A0480938904E7E6F1E0CF01875696
:101EB0009140A0918904B0918A0420918D043091C1
:101EC0008E048217930740F4A80FB91F109711F0E2
:101ED00080818C933196EACF81E080939004E091E9
:101EE0008904F0918A0480918D0490918E048E0F64
:101EF0009F1FE817F90758F421912C13FACF80E2BD
:101F0000C8276DE7F801808191810E945F026C2FE4
:101F1000F80180819181CF911F910F910C945F0204
:101F2000AF92BF92CF92DF92EF92FF920F931F93E7
:101F3000CF93DF9300D000D000D01F92CDB7DEB793
:101F40008C016B01DC0118968D919C919E838D8391
:101F500008969C838B830E948F2C9A83898390E0C0
:101F600080E02D813E818217930788F4E981FA8110
:101F7000E80FF91F309749F0D80114962D913C9144
:101F8000D901A80FB91F2C9120830196EACFF60141
:101F9000E480F580FBE0EF0EF11C6EE7D8018D9137
:101FA0009C910E945F026F2DC8010E94370F6E2D19
:101FB000C8010E94370F60E0C8010E94370FF80186
:101FC000F684F394FF20F1F0F6866F2DC8010E948D
:101FD000370FF801A480B580D80114968D919C919B
:101FE000159718962D913C91820F931FA816B9064C
:101FF00070F4F501E1905F016E2DC8010E94370F6A
:10200000FE0CEACF81E08687FF24F394DECF60E008
:10201000C8010E94370FD601AD90BC90F6018081B7
:10202000918124813581820F931FA816B90648F447
:10203000D501ED905D016E2DC8010E94370FFE0C99
:10204000EDCF6F2D6095C8010E94370FCE0101962C
:102050000E94A20E27960FB6F894DEBF0FBECDBF2A
:10206000DF91CF911F910F91FF90EF90DF90CF9074
:10207000BF90AF900895FC01828193810C94900FE2
:10208000CF93DF93FC01C281D38184E090E00E9472
:102090008F2CFC01D383C28327E632E03183208377
:1020A000988B8F87DF91CF910895CF93DF93FC01B9
:1020B000C281D38184E090E00E948F2CFC01D38305
:1020C000C28327E632E031832083988B8F87DF91AC
:1020D000CF910895CF93DF93FC01C281D38184E037
:1020E00090E00E948F2CFC01D383C28327E632E06C
:1020F00031832083988B8F87DF91CF910895CF9381
:10210000DF93FC01C281D38184E090E00E948F2C98
:10211000FC01D383C28327E632E031832083988B8E
:102120008F87DF91CF910895CF93DF93FC01C28118
:10213000D38184E090E00E948F2CFC01D383C28382
:1021400027E632E031832083988B8F87DF91CF9110
:1021500008950F931F93CF93DF93EC01CB01088178
:1021600019817B836A830E948F2C99838883F8016D
:10217000CF01801B910B2C813D818217930750F476
:10218000A881B981A80FB91F109711F080818C9395
:102190003196EECFC801DF91CF911F910F910C9432
:1021A0002B2DEF92FF920F931F93CF93DF93EC01B0
:1021B0008C819D818617970740F57A018B018A8172
:1021C0009B818617970740F4685F7F4F86179707B4
:1021D00018F4CE010E94A9108C819D81801791076F
:1021E00058F4E881F981E80FF91F309719F0D70109
:1021F0002C9120830196F2CF1D830C83DF91CF9128
:102200001F910F91FF90EF90089568177907B0F72D
:102210007D836C83F3CFCF92DF92EF92FF920F9387
:102220001F93CF93DF931F92CDB7DEB78C0186E06B
:10223000C82E87E0D82EF601E480F580F80164818D
:1022400075816E0D7F1D1982AE014F5F5F4FC60114
:102250000E94D110F8014481558160817181F6019D
:10226000808191818E0D9F1D0E94EC0DC6010F9003
:10227000DF91CF911F910F91FF90EF90DF90CF9062
:102280000895CF93DF931F92CDB7DEB786E097E036
:102290000E94CA051982AE014F5F5F4F63E070E094
:1022A00086E097E00E94D11043E050E06CE073E0DC
:1022B00080910607909107070E94EC0D0F90DF9127
:1022C000CF910895AF92BF92CF92DF92EF92FF929B
:1022D0000F931F93CF93DF931F92CDB7DEB78C017F
:1022E00059016A01AC14BD04D1F1F60181916F016D
:1022F0008983F801808191817B01E81AF90A648160
:1023000075816F5F7F4FAE014F5F5F4FC8010E94C5
:10231000D110F8012481358121503109F8018081E3
:102320009181E216F30668F4A90141505109FC01BC
:10233000E40FF51F6081820F931FFC0160839A01F7
:10234000EDCF29818E0D9F1DFC012083FFEFEF1A39
:10235000FF0AF801608171816E0D7F1DC3CF0F9060
:10236000DF91CF911F910F91FF90EF90DF90CF9071
:10237000BF90AF900895EF92FF920F931F93CF936A
:10238000DF931F92CDB7DEB7FC01822F8870922FAA
:1023900090712871283131F4423009F03FC08FEF3D
:1023A0009FEF23C0413049F58B01248935892017DF
:1023B0003107A8F3882311F0108F078B9923A1F020
:1023C0007F011982AE014F5F5F4FB801CF01409688
:1023D0000E94D110F701848995892789308D821751
:1023E000930710F4908F878BC8010F90DF91CF91E6
:1023F0001F910F91FF90EF900895423089F4048966
:102400001589060F171F911102C010E000E0882304
:1024100061F20789108D060F171FC7CF413021F2D7
:1024200004891589F8CFAB01FC01648175816F5F68
:102430007F4F0C94D110CF93DF93EC0186E097E0AF
:102440000E94CA05CE0107960E940B11BE01625F71
:102450007F4F86E097E0DF91CF910C941312EF92BB
:10246000FF920F931F93CF93DF9300D01F92CDB7AE
:10247000DEB78C0180916104811107C08AE594E088
:102480000E94ED0E81E0809361048AE594E00E9451
:10249000CA05E0905E04F0905F041A82B7016E5F97
:1024A0007F4FAE014E5F5F4F8AE594E00E94D110EE
:1024B00080915A0490915B0442E050E063E273E043
:1024C0008E0D9F1D0E94EC0DD8011696ED91FC918A
:1024D000179714968D919C9115979C012F5F3F4FF4
:1024E00015963C932E931497E80FF91F80818B83E8
:1024F000882309F450C08C3209F045C064E670E0CE
:1025000080E090E00E9406058DE08983BE016F5F48
:102510007F4F8AE594E00E941312D8011296ED9144
:10252000FC918081918140915E0450915F046091A3
:102530005A0470915B04DC01ED91FC910280F381FF
:10254000E02D09950E94BD0560931C0570931D0543
:1025500080931E0590931F0588E893E1A0E0B0E00A
:102560008093200590932105A0932205B093230525
:1025700081E00F900F900F90DF91CF911F910F91FD
:10258000FF90EF900895BE016D5F7F4F8AE594E064
:102590000E94131299CF80E0ECCF0C942F12EF928F
:1025A000FF920F931F93CF93DF931F92CDB7DEB7A8
:1025B0008C017B016F3F760779F1D8011F968C91D2
:1025C0001F9784FF2CC059968D919C915A975496D1
:1025D0002D913C91559782179307B8F06983BE01FE
:1025E0006F5F7F4FC80140960E941312F801818DE2
:1025F000928D0196928F818FC7010F90DF91CF91BD
:102600001F910F91FF90EF9008955096ED91FC91DE
:10261000E80FF91F6083EACFF12CE12CEDCFEE2417
:10262000EA94FE2CE9CF0F931F93CF93DF93EC0135
:10263000CB01088119817B836A830E948F2C998347
:102640008883F801CF01801B910B2C813D8182177B
:10265000930750F4A881B981A80FB91F109711F002
:1026600080818C933196EECFC801DF91CF911F917D
:102670000F910C942B2DEF92FF920F931F93CF93FA
:10268000DF93EC018B017A018A819B818617970782
:1026900040F4685F7F4F8617970718F4CE010E94B9
:1026A00013138C819D818017910758F4E881F9817B
:1026B000E80FF91F309719F0D7012C91208301966C
:1026C000F2CF1D830C83DF91CF911F910F91FF906B
:1026D000EF900895AF92BF92CF92DF92EF92FF9268
:1026E0001F93CF93DF93EC017B016C0184E0C80E54
:1026F000D11CC6010E94CA0519E01150A9F057016A
:102700008FEFA81AB80A88859985BC016F5F7F4F43
:102710008617970730F4A701C6010E943B13750185
:10272000ECCF19861886FBCFDF91CF911F91FF90D8
:10273000EF90DF90CF90BF90AF900895EF92FF920F
:102740000F931F93CF93DF931F92CDB7DEB78C010A
:102750007B010E94ED0EF701648175811982AE0143
:102760004F5F5F4FC8010E94D110F801448155812D
:10277000F70160817181F801808191810E94EC0DE7
:102780000F90DF91CF911F910F91FF90EF900895DF
:10279000CF92DF92EF92FF920F931F93CF93DF932D
:1027A0001F92CDB7DEB78C017B016A010E94ED0E4E
:1027B0008FEFC816D80611F40E943131F7018081DD
:1027C000181684F41982AE014F5F5F4FB601C8013D
:1027D0000E94D110F80144815581B7018081918117
:1027E0000E94EC0D0F90DF91CF911F910F91FF9000
:1027F000EF90DF90CF900895EF92FF920F931F9389
:10280000CF93DF931F92CDB7DEB78C017B01BC0164
:10281000CE0101960E947D0CF70101900020E9F79E
:102820003197EE19FF099F0150E040E0B701C80160
:102830000E94E70BC8010F90DF91CF911F910F917C
:10284000FF90EF900895AF92BF92CF92DF92EF92F8
:10285000FF920F931F93CF93DF931F92CDB7DEB7F5
:102860007C016B010E94ED0EF60101900020E9F75A
:1028700031978F010C191D09F701A480B5801982C9
:10288000B8016A0D7B1DAE014F5F5F4FC7010E940B
:10289000D110F70180819181A801B6018A0D9B1D9D
:1028A0000E94EC0D0F90DF91CF911F910F91FF903F
:1028B000EF90DF90CF90BF90AF9008950F931F934C
:1028C000CF93DF93CDB7DEB728970FB6F894DEBF6E
:1028D0000FBECDBF8C01DC011296ED91FC911586E7
:1028E000808191810E943D01F80102811381AE0136
:1028F000485F5F4F60E173E0CE0101960E942314B0
:10290000D8018D919C914D815E8169817A81DC0134
:10291000ED91FC910280F381E02D0995CE010196A5
:102920000E94A20E0E94BD05ECE1F5E06083718378
:102930008283938380EB94E0A0E0B0E0848395836E
:10294000A683B78328960FB6F894DEBF0FBECDBF1F
:10295000DF91CF911F910F9108950F931F93CF9304
:10296000DF931F92CDB7DEB78C0180917004811187
:102970000CC0AE014F5F5F4F64E173E089E694E005
:102980000E94231481E08093700469E674E0F801EA
:10299000828193810E94900F0E94BD0560931C0567
:1029A00070931D0580931E0590931F0588E692E4A1
:1029B000A0E0B0E08093200590932105A09322052C
:1029C000B09323050F90DF91CF911F910F91089540
:1029D0000F931F93CF93DF931F92CDB7DEB78C0178
:1029E000AE014F5F5F4F68E173E00E942314C8019E
:1029F0000F90DF91CF911F910F9108950F931F9327
:102A0000CF93DF931F92CDB7DEB78C01AE014F5F3E
:102A10005F4F6FE173E00E942314C8010F90DF91B4
:102A2000CF911F910F9108950F931F93CF93DF9331
:102A30001F92CDB7DEB78C01AE014F5F5F4F66E2EC
:102A400073E00E942314C8010F90DF91CF911F9172
:102A50000F9108950F931F93CF93DF931F92CDB7DC
:102A6000DEB78C01AE014F5F5F4F6DE273E00E94F5
:102A70002314C8010F90DF91CF911F910F910895FA
:102A80000F931F93CF93DF931F92CDB7DEB78C01C7
:102A90008091520481110CC0AE014F5F5F4F64E31F
:102AA00073E08BE494E00E94231481E0809352044D
:102AB0008091430481110CC0AE014F5F5F4F6AE308
:102AC00073E08CE394E00E94231481E0809343043C
:102AD0006AE30F3F1F4F99F48BE595E00E94640D68
:102AE0006CE374E00E945B0D63E20E94640D0E943F
:102AF000400D0F90DF91CF911F910F9108958BE5BD
:102B000095E00E94640D6BE474E0ECCF8F929F928D
:102B1000AF92BF92CF92DF92EF92FF924B015C0196
:102B200080919D0590919E05DC01ED91FC910284C0
:102B3000F385E02D099575016401C61AD70AE80AE4
:102B4000F90AB701A601F7FE07C044275527BA01C5
:102B50004C195D096E097F09E0919F05F091A00570
:102B6000838D948D092E000CAA0BBB0B48175907B7
:102B70006A077B070CF444C01092CB041092CA047D
:102B800080912B0590912C05DC01ED91FC91048442
:102B9000F585E02D0995882359F080912B059091BA
:102BA0002C05DC01ED91FC910480F581E02D099567
:102BB00081E090E01C141D041E041F0414F090E03A
:102BC00080E0CC24F7FCC394DD24EE24FF248C1990
:102BD0009D090E94401580919D0590919E05DC0104
:102BE000ED91FC910084F185E02DB501A401FF90E9
:102BF000EF90DF90CF90BF90AF909F908F9009940F
:102C0000FF90EF90DF90CF90BF90AF909F908F900C
:102C100008950F931F93CF93DF931F92CDB7DEB725
:102C20008C01AE014F5F5F4F6FE373E00E9423148E
:102C3000C8010F90DF91CF911F910F9108952F92AE
:102C40003F924F925F926F927F928F929F92AF923C
:102C5000BF92CF92DF92EF92FF920F931F93CF9389
:102C6000DF9300D000D0CDB7DEB79C838B83DC012F
:102C7000ED91FC910484F585E02D0995882309F4F4
:102C8000FFC00E94BD05EB81FC81878C90A0A1A0B4
:102C9000B2A00785108921893289601B710B820BD4
:102CA000930B0E948D2F20E030E04AE754E40E940D
:102CB000E52EA50194010E944430AB81BC8153965E
:102CC0002D913D914D915C9156970E94742E6B0110
:102CD0007C01EB81FC810280F381E02DFA83E983A2
:102CE0004480558066807780AB81BC8193963C9010
:102CF000939794962C90949795960C919597969679
:102D00001C9196971B966D917D918D919C911E972C
:102D1000641975098609970997FF07C090958095F2
:102D2000709561957F4F8F4F9F4F0E948D2F2B0184
:102D30003C01C501B4019F779B01AC010E94742E38
:102D40009B01AC01C301B2010E9444304B015C0104
:102D5000232D322DA801632D722DC8010E9444300D
:102D60009B01AC01C501B4010E94742E0E94B730D2
:102D70004B015C01EB81FC8161857285072E000CA3
:102D8000880B990B0E948F2F2B013C01AC019B01FA
:102D9000C501B4010E9444304B015C0120E030E0E9
:102DA000A901C701B6010E943F30181624F0F7FAB6
:102DB000F094F7F8F09420E030E0A901C501B401E7
:102DC0000E943F30181624F0B7FAB094B7F8B094C8
:102DD000A5019401C701B6010E94E02E87FD02C043
:102DE00075016401232D322DA801C701B6010E948F
:102DF000E02E87FD42C0A981BA811A966D917C911F
:102E000090E080E00E948D2F5B018C019B01AC0162
:102E1000C701B6010E943F30181614F4650178010D
:102E2000A3019201C701B6010E944430EB81FC81ED
:102E3000678B708F818F928F87819085DC01ED91F8
:102E4000FC910480F581E02DB701A6010F900F9051
:102E50000F900F90DF91CF911F910F91FF90EF9006
:102E6000DF90CF90BF90AF909F908F907F906F90AA
:102E70005F904F903F902F900994C32CD22CCFCFCE
:102E80000F900F900F900F90DF91CF911F910F91A6
:102E9000FF90EF90DF90CF90BF90AF909F908F907A
:102EA0007F906F905F904F903F902F900895AF92DA
:102EB000BF92CF92DF92EF92FF920F931F93CF9327
:102EC000DF93CDB7DEB728970FB6F894DEBF0FBEFD
:102ED000CDBF5C016B01AE01485F5F4F65E473E0FD
:102EE000CE0101960E942314D6011496ED90FC9019
:102EF0000D811E81A7010E151F0508F4A801698127
:102F00007A81F601808191810E944831DD24D39439
:102F1000892B39F4E016F10608F0D12C0E151F05A7
:102F200088F1CE0101960E94A20ED1101AC0D501DF
:102F300012960D911C9188E090E00E948F2CFC016C
:102F40001383028381E892E09183808388E493E095
:102F50009783868315821482D8015096FC93EE9352
:102F60001F9728960FB6F894DEBF0FBECDBFDF9136
:102F7000CF911F910F91FF90EF90DF90CF90BF9076
:102F8000AF900895DD24D394CCCF0F931F93CF93AC
:102F9000DF93EB0109900020E9F72197C61BD70BBF
:102FA000FC0104811581AE010C171D0708F4A8016E
:102FB000FC01808191810E944831892B11F080E0D1
:102FC00004C081E0C017D107D1F7DF91CF911F91E5
:102FD0000F910895AF92BF92CF92DF92EF92FF923E
:102FE0000F931F93CF93DF9300D000D000D01F9298
:102FF000CDB7DEB75C017B0180917F0481110CC0ED
:10300000AE014F5F5F4F60E973E088E794E00E9494
:10301000231481E080937F04F70100811181C48033
:10302000D580C00ED11E88E090E09C838B831E82E9
:103030001D820E948F2C9A838983CE0101960E9463
:10304000CA05A801465F5F4F69817A819601CE016A
:1030500001960E94621160E973E0CE0101960E9420
:10306000C517882371F1F70160817181F5018281B3
:1030700093810E946A13F5010281138184E090E03C
:103080000E948F2CFC01138302832DE432E03183F4
:103090002083F801908B8787CE0101960E94A20EB3
:1030A00027960FB6F894DEBF0FBECDBFDF91CF914C
:1030B0001F910F91FF90EF90DF90CF90BF90AF9056
:1030C00008950D811E810115110531F3E981FA8101
:1030D00080818A3329F06AE38BE595E00E94640DD4
:1030E000BE016F5F7F4F8BE595E00E945B0DE9812C
:1030F000FA81E00FF11F31978081833229F063E27A
:103100008BE595E00E94640D8BE595E00E94400DF3
:10311000C3CFCF93DF93EC01CB0165E473E00E9452
:10312000C5178823C1F0CE010E942F12811110C053
:103130000A80DB81C02D84E090E00E948F2CFC018E
:10314000D383C28323E332E031832083988B8F873C
:10315000DF91CF9108950A80DB81C02D84E090E05B
:103160000E948F2CFC01D383C28327E632E0ECCF90
:10317000AF92BF92CF92DF92EF92FF920F931F9385
:10318000CF93DF9300D000D000D01F92CDB7DEB731
:103190005C017B01FB0100811181C480D580C00EE0
:1031A000D11E88E090E09C838B831E821D820E944A
:1031B0008F2C9A838983CE0101960E94CA05A801AB
:1031C000465F5F4F69817A819601CE0101960E9428
:1031D000621160E973E0CE0101960E94C517882351
:1031E000C9F0F70160817181F501828193810E94AC
:1031F0006A13F5010281138184E090E00E948F2C14
:10320000FC01138302832DE432E031832083F80133
:10321000908B8787CE0101960E94A20E27960FB64B
:10322000F894DEBF0FBECDBFDF91CF911F910F91FC
:10323000FF90EF90DF90CF90BF90AF9008950F93E5
:103240001F93CF93DF93CDB7DEB7EE970FB6F89409
:10325000DEBF0FBECDBF8C01CE0101960E94540887
:10326000CE0180960E9454084FE150E070E060E08B
:10327000CE0180960E94BE2D88A199A18B3F9A44D1
:1032800029F48DAD9EAD8B3F9A44A1F08FE1FE01F4
:103290003196D80101900D928A95E1F7C801EE961A
:1032A0000FB6F894DEBF0FBECDBFDF91CF911F9157
:1032B0000F9108958AA1833049F78FE1FE01B096FE
:1032C000E8CF2F923F924F925F926F927F928F92B0
:1032D0009F92AF92BF92CF92DF92EF92FF920F93A5
:1032E0001F93CF93DF93CDB7DEB72C970FB6F8942B
:1032F000DEBF0FBECDBF6C0129013A01FC01A18CDC
:10330000B28C9E01265F3F4FA201CE0101960E9422
:10331000C813F601E488F588EA14FB0410F40E944F
:10332000313117012A183B0882012414350408F4AE
:1033300081018D809E80E01AF10AC40180959095EC
:10334000E816F90660F7E80CF91CC60140969C8760
:103350008B870815190538F41886AE01485F5F4F52
:10336000B7010E94D110F60180899189A101401B0B
:10337000510BB501600F711F680F791F9501280D62
:10338000391D820F931F0E94363169817A81F601BF
:1033900080899189A4018A0D9B1D0E94EC0D1986DC
:1033A000AE01475F5F4FB7018B859C850E94D110AE
:1033B000CE0101960E94A20EF601818D928D840DA0
:1033C000951D928F818FC301B2012C960FB6F89490
:1033D000DEBF0FBECDBFDF91CF911F910F91FF9048
:1033E000EF90DF90CF90BF90AF909F908F907F90A5
:1033F0006F905F904F903F902F900895CF92DF9203
:10340000EF92FF920F931F93CF93DF93CDB7DEB769
:1034100065970FB6F894DEBF0FBECDBF8C01F42EBA
:10342000E52ED62EC72EBC01CE0145960E947D0CFE
:10343000D801ED91FC9136970190F081E02DE00FDD
:10344000F11F8381948185FD5BC086FF42C092FF9E
:103450005AC08BE993E0CF92DF92EF92FF929F9355
:103460008F931F9284E18F939E012F5F3F4F7901CD
:103470003F932F930E9456319C01990F440B550B9B
:10348000B701C8010E94E70BD801ED91FC91369776
:103490000190F081E02DE00FF11F838194810FB640
:1034A000F894DEBF0FBECDBF96FF03C0C8010E94D7
:1034B000480BC80165960FB6F894DEBF0FBECDBFAE
:1034C000DF91CF911F910F91FF90EF90DF90CF9000
:1034D000089587FF1BC09C012227307292FF08C00D
:1034E00084EA93E0232B09F0B6CF89EA93E0B3CFC7
:1034F0008EEA93E0232B09F0AECF82EB93E0ABCFC3
:1035000087E993E0A8CF80EA93E0A5CF90E080E040
:10351000A2CFCF92DF92EF92FF920F931F93CF93A0
:10352000DF93CDB7DEB7EB970FB6F894DEBF0FBED3
:10353000CDBF60E1CE0101960E94FD0EE981FA81C6
:1035400036970190F081E02D329681E090E08C0F6B
:103550009D1FE80FF91F818192818F718062928394
:10356000818366EB73E0CE0101960E94FC138C010F
:103570008DE995E00E944D0928E030E040E050E000
:103580000E940C31BA01A901C8010E94FE196CE227
:103590000E94640D8C01E090CA04F090CB04BC0141
:1035A000CE01C4960E947D0CD801ED91FC91369716
:1035B0000190F081E02DE00FF11F838184FF97C01F
:1035C00024E030E040E050E06CEB73E0B4E0EB1658
:1035D000F10431F025E030E040E050E061EC73E0D0
:1035E000C8010E94E70BD801ED91FC91369701903C
:1035F000F081E02DE00FF11F8381948196FF03C0DD
:10360000C8010E94480B6CE2C8010E94640D8C0145
:10361000E0919F05F091A0056789708D818D928D55
:1036200028E0C22ED12CE12CF12CA70196010E949A
:103630000C31BA01A901C8010E94FE196CE20E9476
:10364000640D8C01E0919F05F091A005618972895C
:1036500083899489A70196010E940C31BA01A901BE
:10366000C8010E94FE196CE20E94640D8C01E09179
:103670009F05F091A005638D748D072E000C880BBB
:10368000990BA70196010E940C31BA01A901C8014A
:103690000E94FE1963E20E94640DAE01455C5F4F1B
:1036A000BE016D5E7F4FCE01C4960E949E13BE0187
:1036B0006C5C7F4F8BE595E00E945B0D0E94400D96
:1036C000CE01C4960E94A20ECE0101960E94B90EB0
:1036D000EB960FB6F894DEBF0FBECDBFDF91CF9152
:1036E0001F910F91FF90EF90DF90CF90089521E010
:1036F00030E040E050E067EC73E084E0E816F1046D
:1037000009F46ECF69EC73E06BCF8DE995E00E9410
:103710004D096093ED067093EE068093EF0690934B
:10372000F0068091CA049091CB040397A1F484E041
:1037300090E09093CB048093CA048091CA04909146
:10374000CB04892B31F08091CA049091CB0404976B
:1037500079F50C94891A8091CA049091CB04029750
:1037600011F583E090E09093CB048093CA04E0913C
:103770002905F0912A0540815181628173818091F0
:103780009B0590919C050E94B809AB01BC018091FA
:103790002B0590912C05DC01ED91FC910084F185C5
:1037A000E02D0995CACF1092CB041092CA04C5CF60
:1037B0000895CF92DF92EF92FF92CF93DF93CDB730
:1037C000DEB7EB970FB6F894DEBF0FBECDBF6A0130
:1037D0007B010E941B1260E1CE0101960E94FD0E4A
:1037E000B701A601CE0101960E94FE19AE01455C0B
:1037F0005F4FBE016D5E7F4FCE01C4960E949E1347
:10380000CE01C4960E940B11CE01C4960E94A20E56
:10381000CE0101960E94B90EEB960FB6F894DEBF6A
:103820000FBECDBFDF91CF91FF90EF90DF90CF9093
:103830000895CF92DF92EF92FF920F931F93CF9351
:10384000DF93CDB7DEB7EF970FB6F894DEBF0FBEAC
:10385000CDBF8C010E941B12D8011E968C9183351E
:1038600071F4B8018091A1059091A2050E94900F7A
:10387000C8010E941B1286E097E00E94CA05F80169
:1038800086858235B1F57801F7E0EF0EF11C6BEC1F
:1038900073E0C7010E94C517882361F0E0919F057E
:1038A000F091A0054485558570E060E0C8010E9454
:1038B000D91B1FC06EEC73E0C7010E94C517882397
:1038C00039F1D8011F96CD90DD90ED90FC90529784
:1038D000B4E6CB16D104E104F10414F40E944111C2
:1038E000E0919D05F0919E050280F381E02DD18647
:1038F000C086EF960FB6F894DEBF0FBECDBFDF9146
:10390000CF911F910F91FF90EF90DF90CF9008958E
:1039100061ED73E0C7010E94C517882399F0E0911B
:103920009F05F091A005638D748D072E000C880B08
:10393000990B28E030E040E050E00E940C31BA01E1
:10394000A901B4CF64ED73E0C7010E94C5178823B5
:10395000F9F0F801C784D088E188F288A3E0CC0CA4
:10396000DD1CEE1CFF1CAA95D1F7F1EDCF16FFE28E
:10397000DF06E104F10410F00E944111E0919F057F
:10398000F091A005D48EC38EC8010E941B12B1CF46
:1039900067ED73E0C7010E94C5178823A9F0AE0147
:1039A000405E5F4F6AED73E0CE0101960E942314E2
:1039B000C8010E941B12CE0101960E940B11CE017C
:1039C00001960E94A20E95CF68EE73E0C7010E9497
:1039D000C517882361F1E0919F05F091A0056789E3
:1039E000708D818D928D0E948F2F20E030E044EB0E
:1039F00053E40E94E52E6B017C01D8011F966D9166
:103A00007D918D919C9152970E948F2F9B01AC01CB
:103A1000C701B6010E9444300E945E2FAB01BC0179
:103A20008DE995E00E94B8090E94861562CF6BEE81
:103A300073E0C7010E94C5178823B9F1E0919F0583
:103A4000F091A00541895289638974898DE995E0D7
:103A50000E9473098091CA049091CB04892B39F09C
:103A60008091CA049091CB04049709F042CFE09171
:103A70002905F0912A054681578160857185440F9B
:103A8000551F661F771F81E090E09093CB048093D1
:103A9000CA0480912B0590912C05DC01ED91FC91DD
:103AA0000084F185E02D099524CF6EEE73E0C70107
:103AB0000E94C517882369F0F801478550896189FC
:103AC0007289E3E0440F551F661F771FEA95D1F70F
:103AD000A7CF61EF73E0C7010E94C517882349F0A3
:103AE000E0919F05F091A00561897289838994898D
:103AF00020CF64EF73E0C7010E94C517882341F10E
:103B0000F80187859089A189B2896C017D0163E004
:103B1000CC0CDD1CEE1CFF1C6A95D1F7B4FD0DC06A
:103B2000E0919F05F091A0058789908DA18DB28DC0
:103B30008C159D05AE05BF0514F40E944111E0915E
:103B40009F05F091A005C18AD28AE38AF48A1CCF2E
:103B500067EF73E0C7010E94C517882361F0809169
:103B60009D0590919E05DC01ED91FC910280F38111
:103B7000E02D0995BECE6AEF73E0C7010E94C5171C
:103B8000882361F080919D0590919E05DC01ED9167
:103B9000FC910284F385E02D0995CBCE6DEF73E0A7
:103BA000C7010E94C5178823C1F0F8018785908955
:103BB000A189B28953E0880F991FAA1FBB1F5A958C
:103BC000D1F7E0919D05F0919E050280F381E02DF3
:103BD00084839583A683B7838CCE60E074E0C701AD
:103BE0000E94C517882349F0E0919F05F091A00538
:103BF0006789708D818D928D9CCE63E074E0C701E2
:103C00000E94C5178823B1F020919F053091A0052F
:103C1000F80187859089A189B28943E0880F991FAF
:103C2000AA1FBB1F4A95D1F7F901878B908FA18FEF
:103C3000B28F5FCE66E074E0C7010E94C51788238B
:103C400099F08091CA049091CB04892B31F0809136
:103C5000CA049091CB04049711F40E94891A86E05B
:103C600097E00E94CA0545CE69E074E0C7010E9452
:103C7000C517882399F0E0919D05F0919E0502807B
:103C8000F381E02D4285538570E060E093E0759507
:103C90006795579547959A95D1F708CE6CE074E0F3
:103CA000C7010E94C517882339F1D8011F96CD900E
:103CB000DD90ED90FC90529783E0CC0CDD1CEE1C67
:103CC000FF1C8A95D1F7E0919D05F0919E0563A1B7
:103CD00074A185A196A10E945E2FC616D70610F486
:103CE0000E944111E0919D05F0919E050280F381B3
:103CF000E02DD386C286FDCD6FE074E0C7010E943F
:103D0000C5178823B9F0CE0101960E94540880910E
:103D10009F059091A0052FE1FE013196DC010190F5
:103D20000D922A95E1F74FE150E070E060E00E94CB
:103D3000CE2DDFCD62E174E0C7010E94C517882354
:103D400089F000919F051091A005CE0181960E94F7
:103D50001F198FE1FE01B196D80101900D928A954D
:103D6000E1F7C7CD65E174E0C7010E94C51788235C
:103D700049F04FE150E070E060E080919F05909144
:103D8000A005D5CF68E174E0C7010E94C51788235C
:103D900009F4AFCDF0E0E0E00995ABCDAF92BF9272
:103DA000CF92DF92EF92FF920F931F93CF93DF9307
:103DB000CDB7DEB729970FB6F894DEBF0FBECDBFE3
:103DC0007C018B010E94ED0E570187E0A80EB11C0B
:103DD000C5010E94ED0ED8011496CD90DC90E0163E
:103DE000F106C9F0C7010E94CA05F8016481758116
:103DF0001986AE01475F5F4FC7010E94D110D801FD
:103E000014964D915C9115976D917C91F70180818D
:103E100091810E94EC0DD7011F961D921D921D925B
:103E20001C925297F801608171816F5F7F4FC501CD
:103E30000E941312F3E0CF16D104B0F480E3F7012F
:103E40008687F6E0CF16D104E8F1D801ED91FC9118
:103E5000119784818C32B1F514964D915C91453067
:103E6000510598F40E943131D8016D917C916E5FBB
:103E70007F4FC5010E941312B3E0CB16D104F1F2BB
:103E8000D801ED91FC918381DACF45505109BF01F2
:103E90006B5F7F4F9E01285F3F4FCE0101960E94CE
:103EA000C8134AE050E070E060E089819A810E9486
:103EB000342BF7016787708B818B928BCE01019633
:103EC0000E94A20E29960FB6F894DEBF0FBECDBF9A
:103ED000DF91CF911F910F91FF90EF90DF90CF90E6
:103EE000BF90AF9008951F920F920FB60F921124BA
:103EF0008F939F938091E1009091E100937F909345
:103F0000E10083FF0FC01092E90091E09093EB0075
:103F10001092EC0092E39093ED001092C90498E0A7
:103F20009093F00082FF22C093E09093E90090917B
:103F3000F200992319F09AE39093E8009091BA0463
:103F4000992341F09091BA0491509093BA04911141
:103F500001C05D9A9091C804992341F09091C804E2
:103F600091509093C804911101C0289A84FF18C001
:103F70008091E2008E7E81608093E2008091E1007A
:103F80008F7E8093E1008091B9048E7E8061809362
:103F9000B9049F918F910F900FBE0F901F901895AD
:103FA00080FFF7CF8091E2008E7E80618093E200F7
:103FB0008091E1008E7E8093E1008091B9048E7E35
:103FC0008160E5CF1F920F920FB60F921124CF920E
:103FD000DF92EF92FF920F931F932F933F934F9394
:103FE0005F936F937F938F939F93AF93BF93EF9361
:103FF000FF93CF93DF93CDB7DEB76C97DEBFCDBF16
:104000001092E9008091E80083FF25C068E0CE01AE
:1040100045960E94520282EF8093E8008D8987FFC7
:1040200039C09091E80090FFFCCF982F907609F06E
:1040300034C19E894F89588D2F89F88C911131C0D8
:10404000803861F58091B8048093F1001092F100FE
:104050008EEF8093E8006C960FB6F894DEBF0FBE2B
:10406000CDBFDF91CF91FF91EF91BF91AF919F9124
:104070008F917F916F915F914F913F912F911F9100
:104080000F91FF90EF90DF90CF900F900FBE0F90A9
:104090001F9018959EEF9093E800C7CF1092F10003
:1040A000D5CF913059F48111D3CF4130510581F6EC
:1040B0008091B8048D7F8093B804CACF933049F4BF
:1040C0008111C6CF4130510519F68091B804826044
:1040D000F2CF953041F48091E80080FFFCCF20685A
:1040E0002093E300B5CF963009F0A9C00B8D1C8D4D
:1040F00022E01092E9001092B6041092B504F21278
:104100002EC01092B4041092B3040E9421021F82A8
:1041100099E09983FA8291E09E8390EA98879AEFDA
:1041200099872091B5043091B604275F3F4F3C83B7
:104130002B838D831092E9001092B6041092B5047F
:104140001093B4040093B30449E050E0BE016F5FE4
:104150007F4F80E00E94FB010E94210279CF1093E3
:10416000B4040093B3040E94B901DC0112960D91CE
:104170001C910115110509F451C1D801ED91FC9173
:104180000480F581E02DBE016B5E7F4FC80109956B
:10419000009709F03EC1F80100851185EACFF3E0F0
:1041A000FF120EC08F89882309F440C0823061F469
:1041B00040E860E187E991E00E94B423811148CF93
:1041C00081E28093EB0047CF813029F440E86BE037
:1041D0008BE891E0F1CF833099F70E94B901DC01BF
:1041E0001296ED90FC908E010F5F1F4F6801E11455
:1041F000F10479F0D701ED91FC910680F781E02D73
:10420000B801C7010995080F111DF701E084F18479
:10421000EECFD8011C92F60101900020E9F731970A
:10422000BF016C197D0940E0C601C6CF65E771E0AA
:10423000FB01449150E080E80E94FB0109CF9730D8
:1042400009F4BECF983021F481E08093F10000CFD3
:10425000993009F0FDCE837009F0B2CFE2EBF2E0C5
:1042600081E031E096E32191222371F08093E9000F
:104270003093EB00DF0111972C912093EC00909389
:10428000ED008F5F873079F78EE78093EA00109218
:10429000EA008F898093C904DBCE8B8D9C8D1092B0
:1042A000E9001092B6041092B5049093B404809380
:1042B000B304898D811192C08E899D89913A49F408
:1042C000813209F07DCF47E050E060E171E080E0AD
:1042D000B3CF913209F074CF833269F48F89988D0E
:1042E000B0E0A0E080930C0190930D01A0930E012B
:1042F000B0930F01ADCE803269F48091E80082FF67
:10430000FCCF67E080E191E00E9452028BEF809346
:10431000E8009ECE823209F09BCE8F8980931701F0
:10432000EEEFFFE7859194918B3F9C4D51F1E0E0DA
:10433000F8E08091100190911101A0911201B091CB
:104340001301803B9440A105B105F1F48091170160
:1043500080FD1AC0EE3F8AE0F80789F587E797E706
:1043600091838083809160008093B70488E19BE013
:104370000FB6F894A895809360000FBE90936000EC
:1043800067CEEEEFFAE0D5CF8081918187379747EE
:1043900009F05ECEA89580916000886180936000EE
:1043A0008091B70480936000EE3F2AE0F20789F025
:1043B0008091FE0A9091FF0A9183808349CE80818B
:1043C00091818737980751F29093FF0A8093FE0AF4
:1043D000C5CF1092FF0A1092FE0A3ACE0E94B90190
:1043E000DC0112960D911C910115110509F4E8CE1E
:1043F000D801ED91FC910190F081E02DBE016B5E42
:104400007F4FC8010995811123CEF80100851185E0
:10441000EBCF181619060CF41BCED2CEF1E0FF122A
:10442000BECE69E771E004CF1F920F920FB60F92D4
:1044300011242F933F934F935F936F937F938F93A9
:104440009F93AF93BF93EF93FF9384EB95E00E940C
:10445000FF02FF91EF91BF91AF919F918F917F915B
:104460006F915F914F913F912F910F900FBE0F90E1
:104470001F9018951F920F920FB60F9211242F9331
:104480008F939F93EF93FF93E091C405F091C5053F
:104490008081E091CA05F091CB0582FD1BC090811F
:1044A0008091CD058F5F8F732091CE05821741F0EB
:1044B000E091CD05F0E0EC54FA4F958F8093CD0557
:1044C000FF91EF919F918F912F910F900FBE0F90C1
:1044D0001F9018958081F4CF1F920F920FB60F9204
:1044E00011242F933F938F939F93AF93BF9380910A
:1044F000990490919A04A0919B04B0919C043091EE
:10450000980423E0230F2D3758F50196A11DB11D06
:10451000209398048093990490939A04A0939B0409
:10452000B0939C0480919D0490919E04A0919F045F
:10453000B091A0040196A11DB11D80939D0490939C
:104540009E04A0939F04B093A004BF91AF919F914C
:104550008F913F912F910F900FBE0F901F90189544
:1045600026E8230F0296A11DB11DD2CF1F920F92F4
:104570000FB60F9211242F933F934F935F936F9336
:104580007F938F939F93AF93BF93EF93FF93E091AC
:104590000A01F0910B010995FF91EF91BF91AF9145
:1045A0009F918F917F916F915F914F913F912F914B
:1045B0000F900FBE0F901F9018951F920F920FB67D
:1045C0000F9211242F933F934F935F936F937F9399
:1045D0008F939F93AF93BF93EF93FF93E091080165
:1045E000F09109010995FF91EF91BF91AF919F91D2
:1045F0008F917F916F915F914F913F912F910F908C
:104600000FBE0F901F9018951F920F920FB60F922A
:1046100011242F933F934F935F936F937F938F93C7
:104620009F93AF93BF93EF93FF93E0910601F091B7
:1046300007010995FF91EF91BF91AF919F918F91E4
:104640007F916F915F914F913F912F910F900FBE8E
:104650000F901F9018951F920F920FB60F92112472
:104660002F933F934F935F936F937F938F939F937A
:10467000AF93BF93EF93FF93E0910401F091050195
:104680000995FF91EF91BF91AF919F918F917F918C
:104690006F915F914F913F912F910F900FBE0F90AF
:1046A0001F9018951F920F920FB60F9211242F93FF
:1046B0003F934F935F936F937F938F939F93AF93AA
:1046C000BF93EF93FF93E0910201F09103010995ED
:1046D000FF91EF91BF91AF919F918F917F916F91DA
:1046E0005F914F913F912F910F900FBE0F901F90B0
:1046F00018951F920F920FB60F9211242F933F938C
:104700004F935F936F937F938F939F93AF93BF93D9
:10471000EF93FF936091C70481E068276093C7041B
:104720008091870490918804DC01ED91FC910190C7
:10473000F081E02D09958091000190910101909305
:10474000890080938800FF91EF91BF91AF919F9175
:104750008F917F916F915F914F913F912F910F902A
:104760000FBE0F901F901895EF92FF920F931F931B
:10477000CF93DF93F82E192FE62E042F81E0860FBA
:10478000880F0E94CD0183E00E94CD01CF2DD12F53
:10479000EC0EFD2EF11CCE15DF05B9F007FF13C09E
:1047A000FE0184910E94CD01182F80E00E94CD016E
:1047B000812321968111EFCFDF91CF911F910F912E
:1047C000FF90EF9008958881EDCF81E0F5CF63E30E
:1047D00075E085E495E00E94200D43E355E06DEB24
:1047E00071E08DE295E00E940F0EEDE2F5E089ECBC
:1047F00091E09183808383ED91E0918F808F128689
:1048000011861486138616861586108A1786128AD4
:10481000118A148A138A8FE691E0978386838CE647
:1048200096E0978B868B88E0858B08956DE575E023
:104830008FE695E00E94200D4DE555E069ED71E0B1
:104840008BE595E00E94360EEBE5F5E085EE91E014
:10485000918380838FEE91E0958B848B16821582F5
:104860001086178212861186148613861686158680
:10487000108A17868FE691E0938382838CE696E018
:10488000938B828B80E1818B0895CF92DF92EF92A0
:10489000FF920F931F93CF93DF93C4EBD5E0109259
:1048A000B7051092B60588EEC82E83E0D82EE12C0D
:1048B000F12CC092B805D092B905E092BA05F092F9
:1048C000BB058CEB92E09093B5058093B4058DEC1D
:1048D00090E09093C1058093C0058CEC90E090939C
:1048E000C3058093C20588EC90E09093C505809342
:1048F000C40589EC90E09093C7058093C6058AECC7
:1049000090E09093C9058093C8058EEC90E0909359
:10491000CB058093CA051092CD051092CE0510925A
:10492000CF051092D0051092CF041092CE04C09201
:10493000D004D092D104E092D204F092D3048EEC51
:1049400092E09093CD048093CC040FEF1FEF10936F
:10495000D9040093D80410921C0510921D051092E2
:104960001E0510921F05109220051092210510922D
:104970002205109223051092270510922605109209
:1049800025051092240565E271E080E091E00E9427
:10499000282C909327058093260586E097E00E94B7
:1049A000ED0E86E093E090930507809304070E9444
:1049B0008E0185EE96E00E941F1982EF92E090939F
:1049C000BD068093BC0681E090E09093C60680937C
:1049D000C5061092C7061092C8061092C90610921A
:1049E000CA061092CB061092CC061092CD061092F9
:1049F000CE061092CF061092D0061092D1061092D9
:104A0000D2061092D7061092D8061092D9061092AC
:104A1000DA061092DB061092DC061092DD06109288
:104A2000DE0689EE96E09093BF068093BE0684E092
:104A300097E09093C4068093C3061092D306109219
:104A4000D4061092D5061092D6068CE08093C0064C
:104A50008AE08093C1068BE08093C20680E090E0FC
:104A6000AAE7B3E48093DF069093E006A093E10603
:104A7000B093E20661E08CE00E94B00461E08091B6
:104A8000C2060E94B00461E08091C1060E94B00499
:104A900061E08091C1060E9482041092E4061092A7
:104AA000E30610926F0610926E06C0927006D092C6
:104AB0007106E0927206F0927306109379060093E5
:104AC000780680EE92E090936D0680936C0685E602
:104AD00096E00E94ED0E8EE596E00E94ED0ED093DA
:104AE0005206C09351068EE596E09093540680934B
:104AF00053068FE79DE090935D0680935C06D0930C
:104B0000A405C093A30581E596E09093A605809344
:104B1000A50587EA95E00E94ED0E1092AF05109270
:104B2000AE051092B0051092B1051092B305109227
:104B3000B2058091A9059091AA05089730F468E024
:104B400070E087EA95E00E9413138CEB96E0909357
:104B50009E0580939D0525EE36E03093A0052093B9
:104B60009F0523EA35E03093A2052093A1052DE9A6
:104B700035E030939C0520939B0590932C05809302
:104B80002B0586EF96E090932A058093290582E015
:104B90008093280510929305109294051092950524
:104BA000109296051092970510929805109299050B
:104BB00010929A0587E080938505109286051092E1
:104BC0008705109288051092890510928A05109227
:104BD0008B0510928C0510928D0510928E0580E346
:104BE00095E7A0E0B0E080938F0590939005A093A7
:104BF0009105B09392056CE676E08BE595E00E9416
:104C000016246CE676E08DE295E0DF91CF911F915E
:104C10000F91FF90EF90DF90CF900C94E723CF930C
:104C2000DF93CDB7DEB76B970FB6F894DEBF0FBE3C
:104C3000CDBF789484B5826084BD84B5816084BD25
:104C400085B5826085BD85B5816085BD80916E002A
:104C5000816080936E00109281008091810082605B
:104C60008093810080918100816080938100809198
:104C700080008160809380008091910082608093A9
:104C800091008091910081608093910080919000CB
:104C90008160809390008091C10084608093C10006
:104CA0008091C10082608093C1008091C1008160C9
:104CB0008093C1008091C30081608093C300809184
:104CC000C00082608093C0008091C20081608093A8
:104CD000C20080917A00846080937A0080917A008B
:104CE000826080937A0080917A00816080937A005C
:104CF00080917A00806880937A001092C9041092A3
:104D0000B8041092B9048091D70081608093D700D5
:104D100080EA8093D80089B5806189BD89B58260B9
:104D200089BD09B400FEFDCF61E070E080E090E055
:104D30000E9406058091D8008F7C80618093D80006
:104D40008091E000807F8093E0008091E1008E7E82
:104D50008093E1008DE08093E200559A209A61E013
:104D60008091C1060E94820460E08091C0060E948A
:104D7000820485E89BE19093E4068093E30662E079
:104D800085E00E94B00462E086E00E94B004809159
:104D9000670690916806409730F460E170E085E620
:104DA00096E00E94A910809160069091610680971C
:104DB00030F460E270E08EE596E00E9413138FEF0E
:104DC0009FEF9093790680937806809126059091C5
:104DD0002705009711F00E942B2D8CE696E090930A
:104DE00025058093240565E271E080E091E00E9452
:104DF000282C909327058093260584EB95E00E944C
:104E00003D0168EE73E080E090E00E94060581E5D8
:104E100096E00E94D2050E94BD05609393057093B1
:104E20009405809395059093960588EE93E0A0E015
:104E3000B0E08093970590939805A0939905B0935F
:104E40009A051091280562E0812F0E94B00410920B
:104E5000CB041092CA04112309F436C1113009F0B1
:104E600002C181E898E09093090180930801809144
:104E700069008F73806480936900EB9A62E080918F
:104E800085050E94B0041092860510928B05109241
:104E90008C0510928D0510928E0580E395E7A0E0B9
:104EA000B0E080938F0590939005A0939105B09307
:104EB000920561E08DE00E94B004789484E090E077
:104EC0000E948F2C23EA35E0DC0113963C932E934D
:104ED00012972BE932E02D933C939093B305809386
:104EE000B20532E0E32EF12C4AEF842E912CA12C56
:104EF000B12C26E0222E312C8CEB96E00E941F165E
:104F0000109117016AE070E080E090E00E940605D1
:104F1000112309F452C08CE696E00E94F3031816A0
:104F200019060CF04AC08CE696E00E94B10397FD8A
:104F300044C08C8B8D3021F0803471F18A3081F542
:104F40008091690690916A06029730F165E676E0F5
:104F5000CE0101960E94CE1ECE0101960E94191C20
:104F600080910A0790910B07892B71F06AE38BE51A
:104F700095E00E94640D66E077E00E945B0D63E2BD
:104F80000E94640D0E94400DCE0108960E94A20E60
:104F9000CE0101960E94A20E85E696E00E94CA0507
:104FA0008091690690916A06409738F4BE016C5E64
:104FB0007F4F85E696E00E9413128091B00588230A
:104FC00009F417C10091A5051091A605F80180818B
:104FD0009181DC01ED91FC910084F185E02D099532
:104FE000181619060CF040C180E2682E93E0C92E15
:104FF000D12C77247394F80180819181DC01ED91AB
:10500000FC910084F185E02D0995181619060CF025
:105010002BC1F80180819181DC01ED91FC9102842A
:10502000F385E02D099597FDE6CF8B8F8E3719F428
:10503000C8010E94D205F8018681882321F08B8D5A
:10504000168286258B8FD80114962D913C91159749
:105050008B8D2115310509F47CC08D3709F042C0D4
:1050600016967C92C8CF123071F481E898E0909344
:1050700005018093040180916900837F846080939F
:105080006900E99AFBCE133071F481E898E09093BF
:10509000030180930201809169008C7F816080937D
:1050A0006900E89AEBCE173009F0E8CE81E898E085
:1050B00090930B0180930A0180916A008F7C80613C
:1050C00080936A00EE9ADACE81E898E09093070127
:1050D00080930601809169008F7C806180936900D4
:1050E000EA9ACCCE2330310509F447C080F4213050
:1050F0003105C1F12230310509F07DCFF80120855D
:105100003185282B31872087D582C48274CF243003
:10511000310509F43FC02530310509F06CCF1796F1
:105120009C911797890F17968C9317978F3F09F0CB
:105130005CC015963C922E92149712966D917C91BC
:1051400013971B96ED91FC911C971A968C910995DB
:1051500052CF8E3709F04FCF81E090E0F801958370
:10516000848349CF18961C92189719968C93199797
:105170001596FC92EE9214973ECF1A968C931A973E
:1051800017968C931797E4E0F0E01596FC93EE9356
:10519000149731CF12968D919C91FC012481358119
:1051A000B9016F5F7F4F26173707E0F4AE01455E08
:1051B0005F4F0E943B13F80187819B8D890F878386
:1051C0000280F381E02DD80118968D919C9119975A
:1051D0000197248135812817390709F00CCFE5E0C4
:1051E000F0E0D3CF15821482E6CFC8010E94D20529
:1051F00002CF8091A804811107C081EA94E00E9447
:10520000ED0E81E08093A8048091A3059091A40500
:10521000DC01ED91FC910084F185E02D09951816D3
:10522000190614F58091A3059091A405DC01ED9178
:10523000FC910284F385E02D099597FD15C08983C3
:105240008D3009F07FC18091AE059091AF05DC01F2
:10525000ED91FC910484F585E02D61EA74E00995F7
:1052600081EA94E00E94CA058091AE059091AF0555
:10527000009739F0DC01ED91FC910680F781E02D7B
:1052800009958091B2059091B305892B09F454C01A
:105290006BE174E08BE595E00E94FC138C0160915A
:1052A000B2057091B305DB01ED91FC910480F581AD
:1052B000E02DCE0101960995BE016F5F7F4FC801B9
:1052C0000E945B0D0E94400DCE0101960E94A20E2D
:1052D0008091AE059091AF050097D9F0DC01ED917A
:1052E000FC910084F185E02D09958091AE059091A7
:1052F000AF052091B2053091B3058217930749F0AD
:10530000009739F0DC01ED91FC910280F381E02DF2
:1053100009958091B2059091B3059093AF05809364
:10532000AE051092B3051092B205DC01ED91FC912F
:105330000284F385E02D0995809197059091980559
:10534000A0919905B0919A05892B8A2B8B2B09F492
:10535000ECC00E94BD050091930510919405209129
:10536000950530919605601B710B820B930B009194
:105370009705109198052091990530919A0560172D
:1053800071078207930708F4D0C00E94BD0560939F
:10539000930570939405809395059093960580925C
:1053A000970590929805A0929905B0929A05609100
:1053B000B20481E068276093B2048DE00E94820409
:1053C00020E030E0A9016091D3067091D40680916D
:1053D000D5069091D6060E94E02E882341F160E226
:1053E00074E08BE595E00E94FC138C01DC01ED91EB
:1053F000FC9136970190F081E02D3296E80FF91F6D
:10540000818192818F718062928381838DE995E0A1
:105410000E944D0928E030E040E050E00E940C314D
:10542000BA01A901C8010E94FE190E94400D85E041
:105430000E9459048C01DD24D394892B09F0D12CCE
:10544000E091BE06F091BF0644805580668077806B
:105450008091B104D816E9F001151105A1F481E09D
:1054600090E00E9440154091FC065091FD0660912D
:10547000FE067091FF06440D551D661D771D8CEBD1
:1054800096E00E946406012B21F08CEB96E00E94CE
:10549000E405D092B10486E00E9459048C01DD2419
:1054A000D394892B09F0D12C8091B004D816F9F04F
:1054B00001151105B1F48FEF9FEF0E944015809107
:1054C000FC069091FD06A091FE06B091FF06B30187
:1054D000A201481B590B6A0B7B0B8CEB96E00E94D8
:1054E0006406012B21F08CEB96E00E94E405D0923B
:1054F000B004809185050E94590420918605892B6E
:1055000049F1222341F062E274E08BE595E00E94CC
:10551000FC130E94400D1092860510928B0510928C
:105520008C0510928D0510928E0580E090E0892BFD
:1055300009F4E2CC0E94EB02882309F4DDCC0E943E
:105540000000D7CCBE016F5F7F4F81EA94E00E94DC
:1055500013128ACE211146C040908F0550909005BD
:1055600060909105709092050E94BD05609387053B
:10557000709388058093890590938A0540928B05E6
:1055800050928C0560928D0570928E0581E080931B
:10559000860560E374E08BE595E00E94FC130E94B1
:1055A000400DAE014F5F5F4F67E374E0CE0144965C
:1055B0000E942314BE016C5E7F4FCE0101960E94B3
:1055C000CE1ECE0101960E94191CCE0108960E94A3
:1055D000A20ECE0101960E94A20ECE0144960E9418
:1055E000A20EA3CF80918B0590918C05A0918D0583
:1055F000B0918E05892B8A2B8B2B09F496CF0E94B4
:10560000BD0500918705109188052091890530918D
:105610008A05601B710B820B930B00918B05109117
:105620008C0520918D0530918E05601771078207DA
:10563000930708F091CF79CF8DE295E00E94C00CDE
:105640008BE595E00E94080D87EA95E00E94A20E86
:105650008EE596E00E94A20E85E696E00E94A20EDC
:1056600086E097E00C94A20EB0E0A0E0EAE3FBE253
:105670000C942E2E5C016B017A016115710519F0F5
:10568000FB0191838083E114F10449F0C701029783
:10569000839728F060E070E0CB019CC05E01E501DB
:1056A0002196F5011081812F90E00E941F2C892BFB
:1056B000A9F71D3209F056C02196F501118101E0CC
:1056C000E114F10409F4AEC0F0E1EF16F10409F0C1
:1056D0008EC0103341F488818F7D883509F083C0F6
:1056E000198122960260E0E1EE2EF12C88248A9442
:1056F000982CA82CFFE0BF2E20E060E070E0CB01EA
:1057000027010F2C000C66087708FE0150ED352E9E
:10571000310E39E0331538F43FEB310F3A31A0F553
:1057200049EC342E310E3E141F04BCF52F3FB9F066
:1057300086169706A806B90670F1A30192010E9489
:10574000F02D232D30E050E040E0620F731F841FE6
:10575000951F6217730784079507E8F021E02196EB
:105760001081D3CF1B3221F4E5012296F50111817E
:1057700000E0A6CF78E0E72EF12C88248A94982CBC
:10578000A82C6FE1B62EB8CF3FE9310F3A3128F49B
:1057900039EA332EC7CF2FEFE2CFC114D10431F055
:1057A0002223E9F02197F601D183C08300FF07C0CF
:1057B00090958095709561957F4F8F4F9F4F2F3FAC
:1057C00049F482E290E090931407809313076FEFFF
:1057D0007FEFCB01CDB7DEB7E1E10C944A2E01FF9C
:1057E000E5CF2297E0CF10E3E114F10419F23AE09B
:1057F000E316F104E9F080E1E816F10409F473CF4F
:10580000E8E0EE16F10409F4B8CF6FEF7FEFCB01BB
:1058100097010F2C000C440B550B0E94002E4901E0
:105820005A016ACF103309F456CF9AE0E92EF12CD1
:1058300089E9882E982CA82C89E1B82E5DCF91118A
:105840000C94B42D803219F089508550C8F7089512
:105850000F931F93CF93DF93009759F46115710550
:1058600041F4F0E0E0E0CF01DF91CF911F910F9183
:1058700008958B01EC016EE070E081E090E00E9401
:10588000732CFC01892B69F380E8838301151105D2
:1058900071F01387028781E8838380910D079091CF
:1058A0000E07892B21F4F0930E07E0930D07209744
:1058B000D1F2D187C08783818260838380910F0773
:1058C00090911007892B79F6F0931007E0930F075A
:1058D0008091110790911207892B29F6F0931207F6
:1058E000E0931107C0CF0F931F93CF93DF93869F51
:1058F0008001879F100D969F100D1124C8010E94F2
:105900008F2CEC01009729F0A80170E060E00E9464
:10591000B72DCE01DF91CF911F910F9108950F9375
:105920001F93CF93DF938230910510F482E090E0D3
:10593000E0911707F091180730E020E0B0E0A0E018
:10594000309799F42115310509F44AC0281B390B09
:1059500024303105D8F58A819B816115710589F163
:10596000FB0193838283FE0111C04081518102813A
:10597000138148175907E0F04817590799F4109711
:1059800061F012960C93129713961C933296CF01E6
:10599000DF91CF911F910F910895009317071093F6
:1059A0001807F4CF2115310551F04217530738F08D
:1059B000A901DB019A01BD01DF01F801C1CFEF01AF
:1059C000F9CF9093180780931707CDCFFE01E20F10
:1059D000F31F819391932250310939832883D7CFC4
:1059E0002091150730911607232B41F420911A01BD
:1059F00030911B0130931607209315072091180151
:105A0000309119012115310541F42DB73EB7409170
:105A10001C0150911D01241B350BE0911507F091DD
:105A20001607E217F307A0F42E1B3F0B28173907C0
:105A300078F0AC014E5F5F4F2417350748F04E0FEA
:105A40005F1F5093160740931507819391939FCF43
:105A5000F0E0E0E09CCFCF93DF930097E9F0FC010A
:105A6000329713821282A0911707B0911807ED01A7
:105A700030E020E01097A1F420813181820F931F44
:105A800020911507309116072817390709F061C0D2
:105A9000F0931607E0931507DF91CF910895EA017F
:105AA000CE17DF07E8F54A815B819E01411551055C
:105AB000B1F7E901FB83EA8349915991C40FD51FDE
:105AC000EC17FD0761F4808191810296840F951F88
:105AD000E90199838883828193819B838A83F0E0A3
