:100000000C94D6000C94CD230C94A6230C947F233F
:100010000C9458230C94FE000C94FE000C94312395
:100020000C94FE000C94FE000C94EE1F0C945D20CA
:100030000C94FE000C94FE000C94FE000C94FE0048
:100040000C94FE000C94F4230C94FE000C94FE001F
:100050000C94FE000C94FE000C94FE000C94E7221D
:100060000C94FE000C94B5220C948F220C94FE008C
:100070000C94FE000C94FE000C94FE000C94FE0008
:100080000C94FE000C94FE000C94FE000C94FE00F8
:100090000C94FE000C94FE000C94FE000C94FE00E8
:1000A0000C94FE000C94FE000C94FE000000000076
:1000B000240027002A002D00300000000000250049
:1000C00028002B002E003100000000002300260035
:1000D00029002C002F000404040404030405020278
:1000E00002020403020202020606060606060404D1
:1000F0000202020404040802011040804010204063
:10010000804080080204018040201002011080100D
:10011000204040200000000200090F0000030401FD
:10012000000C0000000000000000000000000000C3
:10013000000000080B000202020100090400000197
:10014000020200000524001001052401010104241D
:10015000020605240600010705810310004009047A
:100160000100020A00000007050202400000070526
:1001700083024000000403090412010002EF02019F
:100180004041233680000101020301417264756918
:100190006E6F204C4C430041726475696E6F204C49
:1001A000656F6E6172646F00E7246E2B11241FBEB1
:1001B000CFEFDAE0DEBFCDBF14E0A0E0B1E0E0EDCC
:1001C000F8E602C005900D92AE32B107D9F726E0ED
:1001D000AEE2B4E001C01D92A33BB207E1F710E02C
:1001E000C5EDD0E004C02197FE010E947931C43DE5
:1001F000D107C9F70E948C260C945B340C94000044
:100200001F93CF93DF93182FC091C504D091C604DC
:100210008A3041F4E881F9810190F081E02D6DE0B0
:10022000CE010995E881F9810190F081E02D612FDF
:10023000CE01099521E030E0019711F430E020E093
:10024000C901DF91CF911F910895CF93DF93C091A2
:10025000C504D091C604E881F9810084F185E02DC0
:10026000CE010995892BB9F3E881F9810284F385E0
:10027000E02DCE01DF91CF910994FC01A089B189D5
:1002800082E08C93A485B5851C92A685B7858FECFA
:100290008C93108EA489B58986E08C93A289B3894A
:1002A0008C9180618C93A289B3898C9188608C93A6
:1002B000A289B3898C9180688C930288F389E02DA0
:1002C00080818F7D80830895109281001092850037
:1002D00010928400EFE6F0E080818D7F80838FEFC5
:1002E00090E0909389008093880090938B00809396
:1002F0008A00109280001092BC040895FC01809145
:10030000B904882311F13FB7F89482E08093E900A3
:100310002091F200822F90E01816190614F481E063
:1003200090E0882339F0289844E64093B80440913F
:10033000F1004083222339F02091F200211103C003
:100340002BE62093E8003FBF08958FEF9FEF0895BD
:100350002FB7F89483E08093E9009091E800892F0B
:10036000807295FF04C09091F20080E4891B2FBF3A
:1003700008958091B00481110DC082E08093AC0497
:1003800084E08093AD041092AF041092AE0481E03B
:100390008093B0048CEA94E008954091A6045091B3
:1003A000A7042091A4043091A50442175307B4F484
:1003B0009091E8009570E1F39091E80092FD19C0EA
:1003C0008093F1008091A6049091A70401968F7309
:1003D0009927892B19F48EEF8093E8008091A60469
:1003E0009091A70401969093A7048093A60481E0BE
:1003F000089580E00895DF92EF92FF920F931F938C
:10040000CF93DF93D82E8A01EB017B01E40EF51E1A
:10041000CE15DF0559F0D7FE12C0FE0184910E946F
:10042000CD0121968111F4CF0FEF1FEFC801DF91AD
:10043000CF911F910F91FF90EF90DF9008958881E9
:10044000EECF0F931F93CF93DF931F92CDB7DEB7FD
:1004500082E0898342E450E063E371E080E80E9437
:10046000FB010E94B901DC0112960D911C9101154E
:10047000110589F0D801ED91FC910280F381E02D06
:10048000BE016F5F7F4FC801099597FD04C0F80159
:1004900000851185ECCF89810F90DF91CF911F915D
:1004A0000F910895615030F02091F100FC012083FC
:1004B0000196F8CF289884E68093B8040895DC016B
:1004C000ED91FC910190F081E02D0994AF92BF92E3
:1004D000CF92DF92EF92FF920F931F93CF93DF9310
:1004E0006C017B018B01040F151FEB015E01AE183F
:1004F000BF08C017D10759F06991D601ED91FC9161
:100500000190F081E02DC6010995892B79F7C5018D
:10051000DF91CF911F910F91FF90EF90DF90CF90DF
:10052000BF90AF900895CF93C1E020E030E0A901E3
:10053000FC016789708D818D928D0E942E2F811113
:1005400001C0C0E08C2FCF910895DC011296ED918F
:10055000FC9164817581868197810895FC01538D9A
:10056000448D252F30E0842F90E0821B930B54178D
:1005700010F0CF96089501970895FC01918D828D1A
:10058000981761F0A28DAE0FBF2FB11D5D968C91B3
:10059000928D9F5F9F73928F90E008958FEF9FEFF2
:1005A0000895FC01918D828D981731F0828DE80FAE
:1005B000F11D858D90E008958FEF9FEF0895FC0168
:1005C000918D228D892F90E0805C9F4F821B910935
:1005D0008F73992708958DE495E00E94DF0221E052
:1005E000892B09F420E0822F089580E090E0892B88
:1005F00029F00E94EB0281110C9400000895FC0187
:10060000A48DA80FB92FB11DA35ABF4F2C91848D73
:1006100090E001968F739927848FA689B7892C93D0
:10062000A089B1898C9182748C93938D848D981359
:1006300006C00288F389E02D80818F7D8083089534
:10064000EF92FF920F931F93CF93DF93EC0181E022
:10065000888F9B8D8C8D981319C0E889F9898081CA
:1006600085FF14C09FB7F894EE89FF896083E889FD
:10067000F9898081827480839FBF81E090E0DF915F
:10068000CF911F910F91FF90EF900895F62E0B8D53
:1006900010E00F5F1F4F0F731127E02E8C8D8E110E
:1006A0000CC00FB607FCFACFE889F989808185FF75
:1006B000F5CFCE010E94FF02F1CFEB8DEC0FFD2FA5
:1006C000F11DE35AFF4FF0829FB7F8940B8FEA8930
:1006D000FB8980818062CFCFCF93DF93EC01888D3F
:1006E0008823B9F0AA89BB89E889F9898C9185FDAD
:1006F00003C0808186FD0DC00FB607FCF7CF8C913B
:1007000085FFF2CF808185FFEDCFCE010E94FF02F1
:10071000E9CFDF91CF910895CF93DF931F92CDB7AB
:10072000DEB76983DC01ED91FC910280F381E02D5D
:1007300041E050E0BE016F5F7F4F09950F90DF9160
:10074000CF91089583E08093E9008091F20088239F
:1007500019F08AE38093E80008950E94A80190E0D0
:100760000895CF93DF931F92CDB7DEB7FC01848548
:10077000958597FD08C02FEF3FEF358724870F90B1
:10078000DF91CF910895CE0101960E947E010197DD
:1007900019F4898190E0F3CF8FEF9FEFF0CF0F93A3
:1007A0001F93CF93DF931F92CDB7DEB78C01FC016F
:1007B0008485958597FF0BC0CE0101960E947E012E
:1007C000019771F4898190E0F80195878487F80199
:1007D000848595850F90DF91CF911F910F9108959A
:1007E0008FEF9FEFF1CFFC018485958597FD0BC0BE
:1007F0009FB7F89482E08093E9008091F2009FBF58
:1008000090E0019608959FB7F89482E08093E90004
:100810008091F2009FBF90E0089581508F3008F0E2
:1008200047C0E82FF0E0E95EFB4F0C9479313404C7
:10083000380426042C0430045804580458043B049B
:100840004104450449044F04580453048091800036
:100850008F77809380000895809180008F7DF9CFFD
:1008600080918000877FF5CF84B58F7784BD089510
:1008700084B58F7DFBCF809190008F77809390001F
:100880000895809190008F7DF9CF80919000877FAF
:10089000F5CF8091C0008F778093C000089580913C
:1008A000C0008F7DF9CF8091C200877F8093C20006
:1008B0000895CF93DF93282F30E0F901EC5EFE4FCF
:1008C0008491F901EB50FF4FD491F901EA52FF4FA7
:1008D000C491CC23A1F081110E940D04EC2FF0E013
:1008E000EE0FFF1FE853FF4FA591B491EC91ED235C
:1008F00081E090E009F480E0DF91CF91089580E0FD
:1009000090E0FACF1F93CF93DF93282F30E0F901C7
:10091000EC5EFE4F8491F901EB50FF4FD491F90149
:10092000EA52FF4FC491CC23A9F0162F81110E94E7
:100930000D04EC2FF0E0EE0FFF1FE654FF4FA591E2
:10094000B4918FB7F894EC91111108C0D095DE23C3
:10095000DC938FBFDF91CF911F910895DE2BF8CFED
:10096000CF93DF9390E0FC01EB50FF4F24918A522C
:100970009F4FFC0184918823D1F090E0880F991F4C
:10098000FC01E455FF4FA591B491FC01E654FF4FE3
:10099000C591D491623071F49FB7F8943C91822F45
:1009A000809583238C93E8812E2B28839FBFDF9132
:1009B000CF9108958FB7F894EC912E2B2C938FBF85
:1009C000F6CF3FB7F89480918F0490919004A09156
:1009D0009104B091920426B5A89B05C02F3F19F051
:1009E0000196A11DB11D3FBFBA2FA92F982F8827AF
:1009F000BC01CD01620F711D811D911D42E0660F8A
:100A0000771F881F991F4A95D1F708958F929F925B
:100A1000AF92BF92CF92DF92EF92FF924B015C01B7
:100A20000E94E1046B017C010E94E1046C197D09C4
:100A30008E099F09683E734081059105A8F321E066
:100A4000821A9108A108B10888EEC80E83E0D81E6A
:100A5000E11CF11C81149104A104B10429F7FF9059
:100A6000EF90DF90CF90BF90AF909F908F900895C0
:100A70008F929F92AF92BF92CF92DF92EF92FF92AE
:100A80000F931F93CF93DF936C017B018A018091B9
:100A90001701882309F45CC08091B904882309F404
:100AA00057C08091AA0480FF05C08091E000826059
:100AB0008093E000E801B12C8AEFA82E93E0892E04
:100AC0002AE3922E209711F4BB20D9F10E94A801AD
:100AD00081110AC0AA94AA20D9F161E070E080E0F7
:100AE00090E00E940605EECF8C171D0611F00CF069
:100AF0008C2F9FB7F8948092E9002091E80025FDA3
:100B000002C09FBFDFCF282F30E0C21BD30BF701FD
:100B1000815020F041914093F100FACFE20EF31E94
:100B2000BB2021F09092E800B12CEBCF8091E8003F
:100B300085FDE7CF9092E800BB24B394209709F39A
:100B4000F3CF5D9884E68093AB04101611063CF059
:100B500081E090E0F6019383828310E000E0C80119
:100B6000DF91CF911F910F91FF90EF90DF90CF9089
:100B7000BF90AF909F908F9008952FB7F894609199
:100B80008B0470918C0480918D0490918E042FBF02
:100B900008950895FC0124813581232B11F01582DD
:100BA00014820895CF93DF93EC011D821C828A8109
:100BB0009B810E94CA051E821F82198618868FEFAC
:100BC0008A87DF91CF9108958F929F92AF92BF92C3
:100BD000CF92DF92EF92FF92CF93DF93EC01E88107
:100BE000F9810484F585E02D09958823B9F1E88120
:100BF000F9810284F385E02DCE0109956B017C011A
:100C00006F89788D898D9A8D9B01AC010E949230FD
:100C10009B01AC0160E070E0CB010E94C12E4B0152
:100C20005C016F8D78A189A19AA190589B01AC01BC
:100C30000E94C22E9B01AC01C501B4010E94332F5A
:100C40000E94A52F072E000C880B990BC60ED71EED
:100C5000E81EF91ECB86DC86ED86FE86DF91CF91FD
:100C6000FF90EF90DF90CF90BF90AF909F908F90CC
:100C70000895CF93DF93EC018F819885DC01ED918E
:100C8000FC910280F381E02D09951F8E18A219A214
:100C90001AA21F8A188E198E1A8E1A86198661E07A
:100CA0008D810E94820460E08C810E948204EFA109
:100CB000F8A5309719F0DF91CF910994DF91CF918A
:100CC0000895FC01818508952F923F924F925F9283
:100CD0006F927F928F929F92AF92BF92CF92DF924C
:100CE000EF92FF920F931F93CF93DF93EC01EA8073
:100CF000FB80F70184819581A681B7818A019B01E0
:100D0000081B190B2A0B3B0BD901C8014B875C87C9
:100D10006D877E8701E010E0181619061A061B067B
:100D200014F010E000E08827B7FD83959927AA27E3
:100D3000BB27081B190B1A870987D7011A96CD9074
:100D4000DC900C9DB0010D9D700D1C9D700D11244B
:100D500090E080E00E94DB2F6B8F7C8F8D8F9E8FC9
:100D6000B60190E080E00E94DB2F4B015C01F701AF
:100D70006085718590E080E00E94DB2F20E030E00C
:100D80004AE754E40E94332F9B01AC01C501B40132
:100D90000E94332F4B015C01B801110F880B990B96
:100DA0000E94DD2F9B01AC01C501B4010E9492306D
:100DB0006F8F78A389A39AA3D7011C968C9100E02A
:100DC00011E0882311F001E010E060E08C810E94C6
:100DD000820489859A8597FF102F612F8E810E944A
:100DE000820460E08D810E9482040E94BD056F87AD
:100DF000788B898B9A8BCF88D88CE98CFA8C20E001
:100E000030E0A901C701B6010E948D3046015701AB
:100E1000181624F0B7FAB094B7F8B0944BA05CA0C1
:100E20006DA07EA00F811885F80120803180A5017A
:100E30009401C301B2010E948D30181674F56985C2
:100E40007A85072E000C880B990B0E94DD2FA301D9
:100E500092010E9492306B8B7C8B8D8B9E8B6F8B63
:100E6000788F898F9A8FD101ED91FC919E01B3010A
:100E7000A201C801DF91CF911F910F91FF90EF90D8
:100E8000DF90CF90BF90AF909F908F907F906F90AA
:100E90005F904F903F902F900994CB8ADC8AED8A27
:100EA000FE8AD1011496ED91FC91B501A401C8010F
:100EB000DF91CF911F910F91FF90EF90DF90CF9036
:100EC000BF90AF909F908F907F906F905F904F906A
:100ED0003F902F9009941F93CF93DF93EC01162F2F
:100EE0008C810E948204EA81FB8144815581668164
:100EF0007781112391F089859A85092E000CAA0B20
:100F0000BB0B840F951FA61FB71F84839583A683F1
:100F1000B783DF91CF911F9108958B859C85AD8517
:100F2000BE85481759076A077B0799F7E881F98159
:100F30000280F381E02DCE01DF91CF911F910994C2
:100F4000CF92DF92EF92FF92CB01BA019A01AC01EE
:100F50000E94C22E6B017C0120E034E244E75BE496
:100F60000E948D3018161CF120E030E044E753E475
:100F7000C701B6010E942E2F87FF06C0C12CD12CBD
:100F800094E7E92E93E4F92EA701960160E074E25C
:100F900084E79BE40E94332F0E94AC2F70930101E1
:100FA00060930001FF90EF90DF90CF900895C12CE7
:100FB00084E2D82E84E7E82E8BE4F82EE5CF309338
:100FC0007A04209379041092BC040E94A0078091B7
:100FD0000001909101019093890080938800109204
:100FE0008500109284001092800089E08093810037
:100FF000EFE6F0E080818260808308950C946401C4
:10100000FF920F931F93CF93DF938C01EB016F3F00
:101010007607B9F0F62EEAE06E1306C06DE0F8012F
:10102000808991890E945F026F2DF80180899189E2
:101030000E945F02CE01DF91CF911F910F91FF902F
:101040000895D0E0C0E0F6CF7F928F929F92AF924A
:10105000BF92CF92DF92EF92FF920F931F93CF93A5
:10106000DF938C0149015A01EB01C12CD12C76018F
:10107000C814D904EA04FB04B4F479908AE0781225
:1010800006C06DE0F801808991890E945F02672D9A
:10109000F801808991890E945F02FFEFCF1ADF0A71
:1010A000EF0AFF0AE5CFC501B401DF91CF911F918F
:1010B0000F91FF90EF90DF90CF90BF90AF909F90F7
:1010C0008F907F900895CF93DF93EC018889998961
:1010D000DC01ED91FC910084F185E02D0995892BCF
:1010E000A9F388899989DC01ED91FC910284F3854B
:1010F000E02DDF91CF910994CF93DF93EC018889A4
:101100009989DC01ED91FC910084F185E02D099530
:10111000892BA9F388899989DC01ED91FC910484DC
:10112000F585E02DDF91CF9109948F929F92AF9238
:10113000BF92CF92DF92EF92FF920F931F93CF93C4
:10114000DF938C0149015A01EB01C12CD12C7601AE
:10115000D80150968D919C91DC01ED91FC91028417
:10116000F385E02D09958F3F61F0C814D904EA0496
:10117000FB043CF48993BFEFCB1ADB0AEB0AFB0AB2
:10118000E7CFC701B601DF91CF911F910F91FF907B
:10119000EF90DF90CF90BF90AF909F908F90089589
:1011A000DC0150968D919C91DC01ED91FC910084C5
:1011B000F185E02D0994DC01ED91FC9136970190C9
:1011C000F081E02DE80FF91F81E592E091838083A3
:1011D0008BE592E097838683089521E532E0FC0158
:1011E000318320832BE532E0378326830895FB018A
:1011F00020813181FC0131832083FB0142815381B5
:1012000026503109F90120813181820F931FFC01A1
:101210005183408308952DE632E0FC013183208321
:1012200027E732E0318F208F61E672E00C94F708F7
:10123000DC01ED91FC91369720813181820F931F63
:101240000C940B0908950895DC011296ED91FC9120
:101250001586808191810E943D010E94BD05EDEBC4
:10126000F4E0608371838283938388EE93E0A0E04F
:10127000B0E084839583A683B78308950895DC0145
:101280001296ED91FC9181E08587828193810E9485
:10129000D2050E94BD05EDEBF4E06083718382838B
:1012A000938380E69AEEA0E0B0E084839583A683E2
:1012B000B7830895CF93DF93EC018BEF9AE4998382
:1012C000888323E02A8321E02B832DE0EEE1F1E007
:1012D000DE01149601900D922A95E1F7198A1A8A77
:1012E0001B8A1C8A24EF31E03E8B2D8B40E459EBA6
:1012F00066E070E04F8B588F698F7A8F20E639E077
:101300003C8F2B8F9E8F8D8FDF91CF910895CB01D6
:101310000895CF93DF93EC01E881F9810288F38986
:10132000E02D09958F3F980731F02D813E812F5F89
:101330003F4F3E832D83DF91CF9108958FEF9FEF35
:10134000089560E070E0CB01089590E080E008959A
:1013500090E080E0089590E080E00895FC018789A6
:10136000908D009739F0248935892817390728F49A
:10137000308F278B6FEF7FEF08C001976F3F7607A5
:1013800031F4908F878B70E060E0CB010895A089E5
:10139000B189A80FB91F9B01215031092F3F310599
:1013A00038F4262F3C91321305C0908F878BEDCFF8
:1013B00020E0F8CF278524FFDDCF908F878B6C93BB
:1013C000E4CFCF93DF93EC01E881F9810288F389C0
:1013D000E02D09958F3F980731F02F89388D2F5FC9
:1013E0003F4F388F2F8BDF91CF910895DC015796B7
:1013F0008D919C91589754962D913C9155978217B9
:10140000930740F45096ED91FC91E80FF91F80810D
:1014100090E008958FEF9FEF0895EF92FF92CF93A2
:10142000DF93FC01DB0160E070E0CB01E788F08C2A
:10143000C489D589EC16FD06A8F4621773078407E2
:10144000950784F4C089D189CE0DDF1DC881CD9365
:101450006F5F7F4F8F4F9F4FC789D08D2196D08F61
:10146000C78BE4CFDF91CF91FF90EF900895FC01FF
:10147000848995892789308D821B930B0895242FA9
:10148000DC01ED91FC910084F185E02D41E00994AF
:10149000089508950895DC01ED91FC91369701902F
:1014A000F081E02DE80FF91F85E991E091838083B9
:1014B0008FE991E093838283089525E931E0FC016F
:1014C000318320832FE931E0338322830895FB01A8
:1014D00020813181FC0131832083FB0142815381D2
:1014E00026503109F90120813181820F931FFC01BF
:1014F00051834083089529E832E0FC013183208341
:1015000023E932E0358B248B6DE772E00C94670A97
:10151000DC01ED91FC91369720813181820F931F80
:101520000C947B0A0895FC0181E290E0948383830C
:1015300015821682178286E090E0A0E0B0E08087F6
:101540009187A287B38714861586168617868BE83F
:1015500091E09183808380E2808B128A118A748B60
:10156000638B158A0895CF92DF92EF92FF92DC0190
:101570001296ED91FC911397C788D08CE18CF28C78
:101580008D919C91DC01ED91FC910284F385E02D1D
:10159000099597FF05C06C0D7D1D8E1D9F1DF9CF10
:1015A000A70196010E945A31FF90EF90DF90CF90F3
:1015B00008958F929F92AF92BF92CF92DF92EF9257
:1015C000FF926A017B01DC011296ED91FC91878804
:1015D000908CA18CB28C0E94B30AC61AD70AE80A72
:1015E000F90A09F1C501B40122E030E040E050E021
:1015F0000E945A312C153D054E055F0524F4C8188C
:10160000D908EA08FB0888279927DC01821B930B7D
:10161000A40BB50BC816D906EA06FB0624F4C80CC1
:10162000D91CEA1CFB1CC701B601FF90EF90DF90AC
:10163000CF90BF90AF909F908F90089590E080E002
:1016400008951F93CF93DF93EC01162F8F8580FFB2
:101650000BC0E881F9810084F185E02D20E144E0B0
:1016600070E060E0CE010995EB85FC85812F90E06C
:101670002D853E85E217F30758F410832B853C85B2
:101680002F5F3F4F3C872B87DF91CF911F910895AC
:10169000E881F981028CF38DE02DBC01CE01DF9150
:1016A000CF911F9109948F929F92AF92BF92CF9248
:1016B000DF92EF92FF920F931F93CF93DF938C01F2
:1016C00049015A01EB01C12CD12C7601C814D9046F
:1016D000EA04FB0464F46991C8010E94210B01969D
:1016E00041F08FEFC81AD80AE80AF80AEFCF75015F
:1016F0006401C701B601DF91CF911F910F91FF9057
:10170000EF90DF90CF90BF90AF909F908F90089513
:101710008F929F92AF92BF92EF92FF920F931F937F
:10172000CF93DF93EC017B0149015A01E881F981F4
:1017300036970190F081E02DE80FF91F0389148995
:10174000D8011F968C911F9780FF0BC0ED91FC91E3
:101750000084F185E02D20E144E070E060E0C80104
:101760000995D801ED91FC91008CF18DE02DA5013A
:101770009401B701C80109956F3F7F4F79F4E88163
:10178000F98136970190F081E02DEC0FFD1F8581E6
:1017900023893489232B71F082608583CE01DF9108
:1017A000CF911F910F91FF90EF90BF90AF909F90BE
:1017B0008F9008958360F1CFFB012481358150E043
:1017C00040E0608171810C94880BCF93DF93EC0132
:1017D000E881F98136970190F081E02DE80FF91F3B
:1017E000838994890E94210B019679F4E881F9811B
:1017F00036970190F081E02DEC0FFD1F8581238944
:101800003489232B31F082608583CE01DF91CF9123
:1018100008958360F9CFCF93DF93EC01E881F981DC
:1018200036970190F081E02DE80FF91F83899489A4
:10183000DC01ED91FC910484F585E02D099501967C
:1018400059F4E881F98136970190F081E02DEC0F91
:10185000FD1F858181608583CE01DF91CF91089541
:101860004F925F926F927F928F929F92AF92BF92B0
:10187000CF92DF92EF92FF920F931F93CF93DF935C
:10188000EC018B0129013A01E881F9813697019039
:10189000F081E02D3296E80FF91FC284D384E484EE
:1018A000F584C418D508E608F708818192818E7006
:1018B0009927049791F446015701181419041A0442
:1018C0001B04B4F1D701C601F7FE03C080E090E02D
:1018D000DC01C81AD90AEA0AFB0AA3019201B8017D
:1018E000CE010E94880BE881F98136970190F08142
:1018F000E02DEC0FFD1F838194818E709927029754
:1019000049F5E881F98136970190F081E02D1C14AA
:101910001D041E041F04F4F481E0C81AD108E10874
:10192000F108EC0FFD1F6089CE010E94E50BE9CFA5
:1019300081E0881A9108A108B108E881F9813697F9
:101940000190F081E02DEC0FFD1F6089CE010E9417
:10195000E50BB3CFE881F981369780819181C80F7B
:10196000D91F1C861D861E861F86DF91CF911F9171
:101970000F91FF90EF90DF90CF90BF90AF909F902E
:101980008F907F906F905F904F90089521E0DC01E1
:101990002C93DB01ED91FC91369780819181680F4A
:1019A000791FFB0181899289009711F00C940B0C2F
:1019B0000895FF920F931F93CF93DF931F92CDB79C
:1019C000DEB78C01F62EBC01CE0101960E94C60C3A
:1019D0006F2DC8010E94E50BC8010F90DF91CF91D8
:1019E0001F910F91FF9008950F931F93CF93DF9353
:1019F0001F92CDB7DEB78C01BC01CE0101960E94CB
:101A0000C60C6AE0C8010E94E50BC8010E940B0CDD
:101A1000C8010F90DF91CF911F910F910895FF9210
:101A20000F931F93CF93DF931F92CDB7DEB78C0137
:101A3000F62EBC01CE0101960E94C60CD801ED9194
:101A4000FC9136970190F081E02DE00FF11F83812A
:101A500084FF29C024E030E040E050E06AEF72E00B
:101A6000F11006C025E030E040E050E06FEF72E09A
:101A7000C8010E94300CD801ED91FC91369701907D
:101A8000F081E02DE00FF11F8381948196FF03C068
:101A9000C8010E940B0CC8010F90DF91CF911F91DC
:101AA0000F91FF90089521E030E040E050E065E0C4
:101AB00073E0F110DDCF64ED73E0DACF8038C9F068
:101AC0008A3811F58091470590914805E0913E05CF
:101AD000F0913F050280F381E02D0190F081E02D2F
:101AE000608170E0DC01ED91FC910088F189E02DCE
:101AF00009948091470590914805DC01ED91FC9196
:101B00000684F785E02DF4CF0895089508950F9386
:101B10001F93CF93DF934091C1045091C204609111
:101B2000C3047091C404452B462B472B79F1EC017B
:101B30000E94BD050091BD041091BE042091BF0418
:101B40003091C004601B710B820B930B0091C10498
:101B50001091C2042091C3043091C404601771072E
:101B60008207930798F01092C1041092C204109259
:101B7000C3041092C404E881F9810488F589E02D3A
:101B8000CE01DF91CF911F910F910994DF91CF91F9
:101B90001F910F910895CF92DF92EF92FF920F93D2
:101BA0001F93FB01DC0100E010E098016A01F12CB9
:101BB000E12C0C151D052E053F0538F461916D9340
:101BC0000F5F1F4F2F4F3F4FF4CF840F951F1F9173
:101BD0000F91FF90EF90DF90CF900895DB012D9152
:101BE0003C911197FC013183208312966D917C9179
:101BF00026503109D901ED91FC91E80FF91F71834D
:101C0000608381E290E094838383548B438B1582BD
:101C1000158A0895CF93DF93EC0188E090E09B83D1
:101C20008A831D821C820E94DD2C99838883DF9128
:101C3000CF9108950F931F93CF93DF93EC018C0105
:101C40000E5F1F4FB8014D960E94930AA8016DE6E2
:101C500071E0CE010E94EE0D89E791E099838883BF
:101C600083E891E09E8F8D8F1E821D8218861F82D1
:101C70001A8619861C861B861E861D86188A1F8654
:101C8000198A87EA91E09B838A83CE0142960E945B
:101C90000A0E1A8E198E1C8E1B8E80E1898BDF91A5
:101CA000CF911F910F9108950F931F93CF938C01A4
:101CB000C62F8091820481112FC08CE090E0909318
:101CC0007E0480937D0484E090E090938004809370
:101CD0007F048CE090E00E94DD2C90937C04809344
:101CE0007B04E7E6F1E0CF0187569140A0917B04A9
:101CF000B0917C0420917F04309180048217930777
:101D000040F4A80FB91F109711F080818C93319681
:101D1000EACF81E080938204E0917B04F0917C041F
:101D200080917F04909180048E0F9F1FE817F90720
:101D300058F421912C13FACF80E2C8276DE7F801FF
:101D4000808191810E945F026C2FF80180819181D6
:101D5000CF911F910F910C945F02CF93DF93FC0101
:101D6000C281D38184E090E00E94DD2CFC01D3830A
:101D7000C2832BEF31E031832083988B8F87DF91F3
:101D8000CF910895CF93DF93FC01C281D38184E08A
:101D900090E00E94DD2CFC01D383C2832BEF31E065
:101DA00031832083988B8F87DF91CF910895CF93D4
:101DB000DF93FC01C281D38184E090E00E94DD2C9E
:101DC000FC01D383C2832BE932E031832083988BDB
:101DD0008F87DF91CF910895CF93DF93FC01C2816C
:101DE000D38184E090E00E94DD2CFC01D383C28388
:101DF0002BE932E031832083988B8F87DF91CF915D
:101E00000895CF93DF93FC01C281D38184E090E0F9
:101E10000E94DD2CFC01D383C2832BE932E03183A5
:101E20002083988B8F87DF91CF910895FC010190DB
:101E30000020E9F73197AF01481B590BBC0189EC31
:101E400094E00C9438058F929F92AF92BF92CF92FC
:101E5000DF92EF92FF92CF93DF93CDB7DEB7A197DA
:101E60000FB6F894DEBF0FBECDBF9093BB04809336
:101E7000BA0487E093E00E94160FC090BA04D09095
:101E8000BB040D2C000CEE08FF08F7FE3FC06DE20E
:101E900089EC94E00E945F0222273327A9012C19C4
:101EA0003D094E095F0919A2CE0181967C019AE095
:101EB000892E912CA12CB12CCA01B901A501940144
:101EC0000E944E2E605DF70162937F01211531055E
:101ED0004105510589F7E114F10419F0C7010E9489
:101EE000160F8EE093E00E94160FA1960FB6F8949D
:101EF000DEBF0FBECDBFDF91CF91FF90EF90DF909F
:101F0000CF90BF90AF909F908F900895A7019601BA
:101F100019A2CE0181967C018AE0882E912CA12CF9
:101F2000B12CCA01B901A50194010E944E2E605D39
:101F3000F70162937F01211531054105510589F7AC
:101F4000CACF809119050E945904892B29F58091E7
:101F5000BA049091BB040197F9F482E090E00E94EA
:101F6000230F80911C0590911D05E0911A05F091B9
:101F70001B054081518162817381DC011296ED91D4
:101F8000FC9113974483558366837783ED91FC918D
:101F90000480F581E02D09940895EF92FF920F934C
:101FA0001F93CF93DF931F92CDB7DEB78C017B01D8
:101FB000BC01CE0101960E94C60CF70101900020E1
:101FC000E9F73197EE19FF099F0150E040E0B701B2
:101FD000C8010E94300CC8010F90DF91CF911F9172
:101FE0000F91FF90EF9008952F923F924F925F9242
:101FF0006F927F928F929F92AF92BF92CF92DF9219
:10200000EF92FF920F931F93CF93DF9300D000D0F6
:10201000CDB7DEB79C838B83DC01ED91FC9104840A
:10202000F585E02D0995882309F4FFC00E94BD05C0
:10203000EB81FC81878C90A0A1A0B2A007851089BC
:1020400021893289601B710B820B930B0E94DB2F5D
:1020500020E030E04AE754E40E94332FA5019401C8
:102060000E949230AB81BC8153962D913D914D9150
:102070005C9156970E94C22E6B017C01EB81FC8122
:102080000280F381E02DFA83E983448055806680E5
:102090007780AB81BC8193963C90939794962C90DB
:1020A000949795960C91959796961C9196971B965A
:1020B0006D917D918D919C911E976419750986098A
:1020C000970997FF07C090958095709561957F4F10
:1020D0008F4F9F4F0E94DB2F2B013C01C501B401A4
:1020E0009F779B01AC010E94C22E9B01AC01C301F2
:1020F000B2010E9492304B015C01232D322DA801C8
:10210000632D722DC8010E9492309B01AC01C50164
:10211000B4010E94C22E0E9405314B015C01EB818B
:10212000FC8161857285072E000C880B990B0E943B
:10213000DD2F2B013C01AC019B01C501B4010E94C4
:1021400092304B015C0120E030E0A901C701B601EB
:102150000E948D30181624F0F7FAF094F7F8F094F6
:1021600020E030E0A901C501B4010E948D301816AD
:1021700024F0B7FAB094B7F8B094A5019401C70160
:10218000B6010E942E2F87FD02C075016401232D28
:10219000322DA801C701B6010E942E2F87FD42C033
:1021A000A981BA811A966D917C9190E080E00E949D
:1021B000DB2F5B018C019B01AC01C701B6010E94C2
:1021C0008D30181614F465017801A3019201C7013E
:1021D000B6010E949230EB81FC81678B708F818FFA
:1021E000928F87819085DC01ED91FC910480F581CF
:1021F000E02DB701A6010F900F900F900F90DF9187
:10220000CF911F910F91FF90EF90DF90CF90BF90F3
:10221000AF909F908F907F906F905F904F903F9086
:102220002F900994C32CD22CCFCF0F900F900F90EA
:102230000F90DF91CF911F910F91FF90EF90DF9062
:10224000CF90BF90AF909F908F907F906F905F9056
:102250004F903F902F900895CF93DF93EC010E9411
:102260007B0ACE01DF91CF910C94792DDC01ED91A9
:10227000FC91369720813181820F931F0C942C1191
:10228000CF93DF93EC010E940B09CE01DF91CF9138
:102290000C94792DDC01ED91FC91369720813181F0
:1022A000820F931F0C9440110C94792DDC01ED9159
:1022B000FC91369720813181820F931F0C94541129
:1022C0000C94792D0C94792D0C94792D0C94792DF6
:1022D0000C94792D0C94792D0C94792D0C94792DE6
:1022E000DC01ED91FC91369720813181820F931FA3
:1022F0000C946E110C94792D0F931F93CF93DF9351
:10230000EC01CB01088119817B836A830E94DD2C5B
:1023100099838883F801CF01801B910B2C813D812B
:102320008217930750F4A881B981A80FB91F10979D
:1023300011F080818C933196EECFC801DF91CF915F
:102340001F910F910C94792DEF92FF920F931F9391
:10235000CF93DF93EC018C819D818617970740F521
:102360007A018B018A819B818617970740F4685F09
:102370007F4F8617970718F4CE010E947C118C813D
:102380009D818017910758F4E881F981E80FF91FC2
:10239000309719F0D7012C9120830196F2CF1D833D
:1023A0000C83DF91CF911F910F91FF90EF900895D3
:1023B00068177907B0F77D836C83F3CFEF92FF92B4
:1023C0000F931F93CF93DF931F92CDB7DEB78C018E
:1023D0007B010E940A0EF701648175811982AE01AA
:1023E0004F5F5F4FC8010E94A411F80144815581DD
:1023F000F70160817181F801808191810E94CB0D8C
:102400000F90DF91CF911F910F91FF90EF90089562
:10241000AF92BF92CF92DF92EF92FF920F931F93F2
:10242000CF93DF931F92CDB7DEB78C0159016A01BC
:10243000AC14BD04D1F1F60181916F018983F801DB
:10244000808191817B01E81AF90A648175816F5F4F
:102450007F4FAE014F5F5F4FC8010E94A411F8018A
:102460002481358121503109F80180819181E21662
:10247000F30668F4A90141505109FC01E40FF51F6E
:102480006081820F931FFC0160839A01EDCF298147
:102490008E0D9F1DFC012083FFEFEF1AFF0AF8014C
:1024A000608171816E0D7F1DC3CF0F90DF91CF9141
:1024B0001F910F91FF90EF90DF90CF90BF90AF9062
:1024C0000895EF92FF920F931F93CF93DF931F9284
:1024D000CDB7DEB7FC01822F8870922F90712871E2
:1024E000283131F4423009F03FC08FEF9FEF23C015
:1024F000413049F58B012489358920173107A8F32C
:10250000882311F0108F078B9923A1F07F01198286
:10251000AE014F5F5F4FB801CF0140960E94A411FA
:10252000F701848995892789308D8217930710F4E4
:10253000908F878BC8010F90DF91CF911F910F91E2
:10254000FF90EF900895423089F404891589060FB1
:10255000171F911102C010E000E0882361F2078983
:10256000108D060F171FC7CF413021F2048915893E
:10257000F8CFAF92BF92CF92DF92EF92FF920F937C
:102580001F93CF93DF931F92CDB7DEB77C016B0112
:10259000FB0101900020E9F731978F01061B170B13
:1025A000FC01A480B5801982B501600F711FAE01D6
:1025B0004F5F5F4F0E94A411F70180819181A801B4
:1025C000B6018A0D9B1D0E94CB0DC7010F90DF91B4
:1025D000CF911F910F91FF90EF90DF90CF90BF9020
:1025E000AF900895CF92DF92EF92FF920F931F93D7
:1025F000CF93DF931F92CDB7DEB78C017B016A01C9
:102600000E940A0E8FEFC816D80611F40E947F317F
:10261000F7018081181684F41982AE014F5F5F4F75
:10262000B601C8010E94A411F80144815581B70187
:10263000808191810E94CB0D0F90DF91CF911F91EE
:102640000F91FF90EF90DF90CF900895AB01FC01C8
:10265000648175816F5F7F4F0C94A4110F931F935A
:10266000CF93DF9300D0CDB7DEB78C0180915304B8
:10267000811107C08CE494E00E940A0E81E08093EF
:1026800053048CE494E00E94CA0565E173E08CE495
:1026900094E00E94B912D8011696ED91FC9117971B
:1026A00014968D919C9115979C012F5F3F4F159625
:1026B0003C932E931497E80FF91F80818A83882317
:1026C00009F44DC08C3209F042C064E670E080E04D
:1026D00090E00E9406058DE08983BE016F5F7F4F09
:1026E0008CE494E00E942613D8011296ED91FC919F
:1026F00080819181409150045091510460914C042B
:1027000070914D04DC01ED91FC910280F381E02D8C
:1027100009950E94BD056093BD047093BE0480932B
:10272000BF049093C00488E893E1A0E0B0E08093F8
:10273000C1049093C204A093C304B093C40481E085
:102740000F900F90DF91CF911F910F910895BE01CF
:102750006E5F7F4F8CE494E00E9426139CCF80E054
:10276000EFCF0C942E13EF92FF920F931F93CF9302
:10277000DF931F92CDB7DEB78C017B016F3F7607E9
:1027800079F1D8011F968C911F9784FF2CC0599620
:102790008D919C915A9754962D913C915597821703
:1027A0009307B8F06983BE016F5F7F4FC801409601
:1027B0000E942613F801818D928D0196928F818F50
:1027C000C7010F90DF91CF911F910F91FF90EF9074
:1027D00008955096ED91FC91E80FF91F6083EACFC0
:1027E000F12CE12CEDCFEE24EA94FE2CE9CFAF9250
:1027F000BF92CF92DF92EF92FF920F931F93CF93EE
:10280000DF931F92CDB7DEB77C016B010E940A0EE9
:10281000F60101900020E9F731978F010C191D098D
:10282000F701A480B5801982B8016A0D7B1DAE0145
:102830004F5F5F4FC7010E94A411F7018081918112
:10284000A801B6018A0D9B1D0E94CB0D0F90DF9150
:10285000CF911F910F91FF90EF90DF90CF90BF909D
:10286000AF9008950F931F93CF93DF931F92CDB72F
:10287000DEB78C01AE014F5F5F4F61E173E00E94F4
:10288000F713C8010F90DF91CF911F910F91089519
:102890000F931F93CF93DF931F92CDB7DEB78C01B9
:1028A000AE014F5F5F4F68E173E00E94F713C8010C
:1028B0000F90DF91CF911F910F9108950F931F9368
:1028C000CF93DF931F92CDB7DEB78C01AE014F5F80
:1028D0005F4F6FE173E00E94F713C8010F90DF9123
:1028E000CF911F910F9108950F931F93CF93DF9373
:1028F0001F92CDB7DEB78C01AE014F5F5F4F66E22E
:1029000073E00E94F713C8010F90DF91CF911F91E0
:102910000F9108950F931F93CF93DF931F92CDB71D
:10292000DEB78C018091440481110CC0AE014F5F71
:102930005F4F6DE273E08DE394E00E94F71381E056
:10294000809344048091350481110CC0AE014F5F27
:102950005F4F63E373E08EE294E00E94F71381E03F
:10296000809335046AE30F3F1F4F99F48FE496E09C
:102970000E94D90C6EE274E00E94DC0B63E20E94BC
:10298000D90C0E94F40C0F90DF91CF911F910F9101
:1029900008958FE496E00E94D90C6DE374E0ECCFCB
:1029A0000F931F93CF93DF931F92CDB7DEB78C01A8
:1029B000AE014F5F5F4F68E373E00E94F713C801F9
:1029C0000F90DF91CF911F910F9108950F931F9357
:1029D000CF93DF93EC01CB01088119817B836A835C
:1029E0000E94DD2C99838883F801CF01801B910B15
:1029F0002C813D818217930750F4A881B981A80FDB
:102A0000B91F109711F080818C933196EECFC801D9
:102A1000DF91CF911F910F910C94792DEF92FF923E
:102A20000F931F93CF93DF93EC018B017A018A817F
:102A30009B818617970740F4685F7F4F861797073B
:102A400018F4CE010E94E6148C819D8180179107B5
:102A500058F4E881F981E80FF91F309719F0D70190
:102A60002C9120830196F2CF1D830C83DF91CF91AF
:102A70001F910F91FF90EF900895AF92BF92CF9268
:102A8000DF92EF92FF921F93CF93DF93EC017B01D4
:102A90006C0184E0C80ED11CC6010E94CA0519E071
:102AA0001150A9F057018FEFA81AB80A88859985A7
:102AB000BC016F5F7F4F8617970730F4A701C601EF
:102AC0000E940E157501ECCF19861886FBCFDF9199
:102AD000CF911F91FF90EF90DF90CF90BF90AF907C
:102AE0000895FC01808191810C94792D0F931F939F
:102AF000CF93DF93CDB7DEB728970FB6F894DEBF3C
:102B00000FBECDBF8C01DC011296ED91FC911586B4
:102B1000808191810E943D01F80102811381AE0103
:102B2000485F5F4F6EE373E0CE0101960E94F7139A
:102B3000D8018D919C914D815E8169817A81DC0102
:102B4000ED91FC910280F381E02D0995CE01019673
:102B50000E9471150E94BD05EDEBF4E06083718366
:102B60008283938380EB94E0A0E0B0E0848395833C
:102B7000A683B78328960FB6F894DEBF0FBECDBFED
:102B8000DF91CF911F910F91089527EA31E0FC0169
:102B90003183208340960C947115CF93DF93EC0121
:102BA0000E94C515CE01DF91CF910C94792DCF9362
:102BB000DF93EC0189E791E09983888383E891E0D2
:102BC0009E8F8D8FCE0102960E94C5156DE671E035
:102BD000CE01DF91CF910C94670ADC01ED91FC915D
:102BE000369720813181820F931F0C94D715EF9275
:102BF000FF920F931F93CF93DF93CDB7DEB7E49788
:102C00000FB6F894DEBF0FBECDBF8C017B0160E133
:102C1000CE0101960E941A0EB701695F7F4FCE0167
:102C200001960E94DC0BF70166850E94D90CAE016B
:102C30004C5C5F4FBE016D5E7F4FC8010E94DE118C
:102C4000CE0101960E94D715C801E4960FB6F894FC
:102C5000DEBF0FBECDBFDF91CF911F910F91FF90CF
:102C6000EF900895CF93DF93EC010E94D715CE012A
:102C7000DF91CF910C94792DDC01ED91FC91369789
:102C800020813181820F931F0C943216AF92BF9234
:102C9000CF92DF92EF92FF920F931F93CF93DF9328
:102CA00000D000D000D01F92CDB7DEB78C016B01F1
:102CB000DC0118968D919C919E838D8308969C8350
:102CC0008B830E94DD2C9A83898390E080E02D81A4
:102CD0003E818217930788F4E981FA81E80FF91F92
:102CE000309749F0D80114962D913C91D901A80F45
:102CF000B91F2C9120830196EACFF601E480F5807C
:102D0000FBE0EF0EF11C6EE7D8018D919C910E94C3
:102D10005F026F2DC8010E94540E6E2DC8010E94E3
:102D2000540E60E0C8010E94540EF801F684F3943A
:102D3000FF20F1F0F6866F2DC8010E94540EF801B5
:102D4000A480B580D80114968D919C911597189602
:102D50002D913C91820F931FA816B90670F4F501CE
:102D6000E1905F016E2DC8010E94540EFE0CEACF67
:102D700081E08687FF24F394DECF60E0C8010E94E3
:102D8000540ED601AD90BC90F601808191812481D2
:102D90003581820F931FA816B90648F4D501ED902E
:102DA0005D016E2DC8010E94540EFE0CEDCF6F2DFB
:102DB0006095C8010E94540ECE0101960E947115C3
:102DC00027960FB6F894DEBF0FBECDBFDF91CF912F
:102DD0001F910F91FF90EF90DF90CF90BF90AF9039
:102DE0000895FC01828193810C9446160F931F93E2
:102DF000CF93DF931F92CDB7DEB78C018091620431
:102E000081110CC0AE014F5F5F4F62E473E08BE550
:102E100094E00E94F71381E0809362046BE574E014
:102E2000F801828193810E9446160E94BD0560933D
:102E3000BD047093BE048093BF049093C00488E6E1
:102E400092E4A0E0B0E08093C1049093C204A09308
:102E5000C304B093C4040F90DF91CF911F910F91E1
:102E60000895AF92BF92CF92DF92EF92FF920F93AD
:102E70001F93CF93DF93CDB7DEB728970FB6F894A3
:102E8000DEBF0FBECDBF5C016B01AE01485F5F4F7F
:102E900066E473E0CE0101960E94F713D601149602
:102EA000ED90FC900D811E81A7010E151F0508F401
:102EB000A80169817A81F601808191810E94963111
:102EC000DD24D394892B39F4E016F10608F0D12CD7
:102ED0000E151F0588F1CE0101960E947115D110C3
:102EE0001AC0D50112960D911C9188E090E00E94C5
:102EF000DD2CFC011383028385E192E091838083C2
:102F000089E493E09783868315821482D8015096D2
:102F1000FC93EE931F9728960FB6F894DEBF0FBE72
:102F2000CDBFDF91CF911F910F91FF90EF90DF9078
:102F3000CF90BF90AF900895DD24D394CCCF0F9362
:102F40001F93CF93DF93EB0109900020E9F72197BE
:102F5000C61BD70BFC0104811581AE010C171D07A0
:102F600008F4A801FC01808191810E949631892B8F
:102F700011F080E004C081E0C017D107D1F7DF91E4
:102F8000CF911F910F910895AF92BF92CF92DF9290
:102F9000EF92FF920F931F93CF93DF9300D000D057
:102FA00000D01F92CDB7DEB75C017B018091710428
:102FB00081110CC0AE014F5F5F4F61E973E08AE69B
:102FC00094E00E94F71381E080937104F70100817F
:102FD0001181C480D580C00ED11E88E090E09C8312
:102FE0008B831E821D820E94DD2C9A838983CE01F1
:102FF00001960E94CA05A801465F5F4F69817A81E8
:103000009601CE0101960E94081261E973E0CE019B
:1030100001960E949F17882371F1F70160817181E9
:10302000F501828193810E943D15F5010281138192
:1030300084E090E00E94DD2CFC011383028321EEEA
:1030400031E031832083F801908B8787CE01019690
:103050000E94711527960FB6F894DEBF0FBECDBF44
:10306000DF91CF911F910F91FF90EF90DF90CF9064
:10307000BF90AF9008950D811E810115110531F3A8
:10308000E981FA8180818A3329F06AE38FE496E04E
:103090000E94D90CBE016F5F7F4F8FE496E00E94C3
:1030A000DC0BE981FA81E00FF11F319780818332D7
:1030B00029F063E28FE496E00E94D90C8FE496E059
:1030C0000E94F40CC3CFCF93DF93EC01CB0166E4F5
:1030D00073E00E949F178823C1F0CE010E942E1337
:1030E000811110C00A80DB81C02D84E090E00E9435
:1030F000DD2CFC01D383C28327EC31E031832083B4
:10310000988B8F87DF91CF9108950A80DB81C02D46
:1031100084E090E00E94DD2CFC01D383C2832BE984
:1031200032E0ECCFAF92BF92CF92DF92EF92FF925C
:103130000F931F93CF93DF9300D000D000D01F9246
:10314000CDB7DEB75C017B01FB0100811181C4803A
:10315000D580C00ED11E88E090E09C838B831E82B8
:103160001D820E94DD2C9A838983CE0101960E94E4
:10317000CA05A801465F5F4F69817A819601CE0139
:1031800001960E94081261E973E0CE0101960E9447
:103190009F178823C9F0F70160817181F501828151
:1031A00093810E943D15F5010281138184E090E036
:1031B0000E94DD2CFC011383028321EE31E0318378
:1031C0002083F801908B8787CE0101960E947115AC
:1031D00027960FB6F894DEBF0FBECDBFDF91CF911B
:1031E0001F910F91FF90EF90DF90CF90BF90AF9025
:1031F00008950F931F93CF93DF93CDB7DEB7EE976C
:103200000FB6F894DEBF0FBECDBF8C01CE01019684
:103210000E945A09CE0180960E945A094FE150E05F
:1032200070E060E0CE0180960E940C2E88A199A1EA
:103230008B3F9A4429F48DAD9EAD8B3F9A44A1F00B
:103240008FE1FE013196D80101900D928A95E1F748
:10325000C801EE960FB6F894DEBF0FBECDBFDF916A
:10326000CF911F910F9108958AA1833049F78FE183
:10327000FE01B096E8CF2F923F924F925F926F92ED
:103280007F928F929F92AF92BF92CF92DF92EF92F6
:10329000FF920F931F93CF93DF93CDB7DEB72C9799
:1032A0000FB6F894DEBF0FBECDBF6C0129013A0105
:1032B000FC01A18CB28C9E01265F3F4FA201CE0182
:1032C00001960E94F212F601E488F588EA14FB04E4
:1032D00010F40E947F3117012A183B088201241440
:1032E000350408F481018D809E80E01AF10AC40142
:1032F00080959095E816F90660F7E80CF91CC60170
:1033000040969C878B870815190538F41886AE01FE
:10331000485F5F4FB7010E94A411F601808991892F
:10332000A101401B510BB501600F711F680F791F80
:103330009501280D391D820F931F0E9484316981E8
:103340007A81F60180899189A4018A0D9B1D0E94D2
:10335000CB0D1986AE01475F5F4FB7018B859C850A
:103360000E94A411CE0101960E947115F601818D73
:10337000928D840D951D928F818FC301B2012C9681
:103380000FB6F894DEBF0FBECDBFDF91CF911F9176
:103390000F91FF90EF90DF90CF90BF90AF909F90F4
:1033A0008F907F906F905F904F903F902F900895F7
:1033B000EF92FF920F931F93CF93DF93CDB7DEB7BA
:1033C00064970FB6F894DEBF0FBECDBF8C01DC0151
:1033D000ED91FC9136970190F081E02DE80FF91FF7
:1033E0008381948185FD58C086FF3FC092FF57C0FE
:1033F0008CE993E07F936F935F934F939F938F93A9
:103400001F9284E18F939E012F5F3F4F79013F937D
:103410002F930E94A4319C01990F440B550BB701C7
:10342000C8010E94300CD801ED91FC9136970190B3
:10343000F081E02DE00FF11F838194810FB6F894A5
:10344000DEBF0FBECDBF96FF03C0C8010E940B0CAC
:1034500064960FB6F894DEBF0FBECDBFDF91CF915B
:103460001F910F91FF90EF90089587FF1BC09C0163
:103470002227307292FF08C085EA93E0232B09F0DF
:10348000B9CF8AEA93E0B6CF8FEA93E0232B09F015
:10349000B1CF83EB93E0AECF88E993E0ABCF81EA85
:1034A00093E0A8CF90E080E0A5CFCF92DF92EF929B
:1034B000FF920F931F93CF93DF931F92CDB7DEB789
:1034C0008C016A017B01BC01CE0101960E94C60CF1
:1034D000B701A601C8010E94D819C8010F90DF9159
:1034E000CF911F910F91FF90EF90DF90CF900895B3
:1034F000CF92DF92EF92FF920F931F93CF93DF93C0
:10350000CDB7DEB7EB970FB6F894DEBF0FBECDBFD9
:103510008091BA049091BB04892B39F08091BA0450
:103520009091BB04049709F0A0C060E1CE01019620
:103530000E941A0EE981FA8136970190F081E02D00
:10354000329681E090E08C0F9D1FE80FF91F81817A
:1035500092818F7180629283818367EB73E0CE01E9
:1035600001960E94CD0F8C0186E395E00E94B30A7C
:1035700028E030E040E050E00E945A31BA01A90151
:10358000C8010E94551A6CE20E94D90C2091BA041D
:103590003091BB0461E02430310509F060E00E9405
:1035A0000F0D6CE20E94D90C8C01E0913805F0916E
:1035B00039056789708D818D928D28E0C22ED12CBE
:1035C000E12CF12CA70196010E945A31BA01A90100
:1035D000C8010E94551A6CE20E94D90C8C01E0913E
:1035E0003805F09139056189728983899489A70129
:1035F00096010E945A31BA01A901C8010E94551AC8
:103600006CE20E94D90C8C01E0913805F0913905EB
:10361000638D748D072E000C880B990BA701960102
:103620000E945A31BA01A901C8010E94551A63E2E9
:103630000E94D90CAE01455C5F4FBE016D5E7F4FAD
:10364000CE01C4960E94DE11BE016C5C7F4F8FE4F8
:1036500096E00E94DC0B0E94F40CCE01C4960E94FE
:103660007115CE0101960E94D715EB960FB6F8940E
:10367000DEBF0FBECDBFDF91CF911F910F91FF90A5
:10368000EF90DF90CF9008958F929F92AF92BF926C
:10369000EF92FF920F931F93CF93DF93CDB7DEB7D7
:1036A000E4970FB6F894DEBF0FBECDBF8C017B014F
:1036B00049015A0160E1CE0101960E941A0EB7013C
:1036C000695F7F4FCE0101960E94DC0BF701668592
:1036D0000E94D90CB501A4010E94551AAE014C5CA0
:1036E0005F4FBE016D5E7F4FC8010E94DE11CE01AB
:1036F00001960E94D715C801E4960FB6F894DEBF74
:103700000FBECDBFDF91CF911F910F91FF90EF9032
:10371000BF90AF909F908F9008954F925F926F925D
:103720007F928F929F92AF92BF92CF92DF92EF9251
:10373000FF920F931F93CF93DF93CDB7DEB7EF9731
:103740000FB6F894DEBF0FBECDBF7C018B01DB014D
:103750001E968C918335C1F480913A0590913B057A
:103760000E944616B801CE0101960E94F715CE01BF
:1037700001960E947115AE014F5F5F4F60E173E0EB
:10378000C7010E94F7139CC0823549F56B01B7E071
:10379000CB0ED11C6DEB73E0C6010E949F178823EE
:1037A00069F0E0913805F09139052485358550E0C0
:1037B00040E0B801C7010E94441B82C060EC73E086
:1037C000C6010E949F178823F1F0F8018785908930
:1037D000A189B28984369105A105B10534F4AE0101
:1037E0004F5F5F4F63EC73E0CBCFE0913605F09114
:1037F00037050280F381E02D91878087B801C701EA
:103800000E94F7155DC067EC73E0C6010E949F1728
:10381000882389F0E0913805F0913905638D748D26
:10382000072E000C880B990B28E030E040E050E0B8
:103830000E945A31BECF6AEC73E0C6010E949F1706
:103840008823D1F0F80187859089A189B28923E086
:10385000880F991FAA1FBB1F2A95D1F7813DFFE250
:103860009F07A105B10508F0BACFE0913805F091A6
:103870003905948F838FC2CF6DEC73E0C6010E942F
:103880009F178823A9F1CE0101960E940A0E6DECC4
:1038900073E0CE0101960E94B91260ED73E0CE0193
:1038A00001960E94B912AE01405E5F4FBE016F5F8C
:1038B0007F4FC7010E94DE11CE0101960E94711553
:1038C000C701EF960FB6F894DEBF0FBECDBFDF91F4
:1038D000CF911F910F91FF90EF90DF90CF90BF900D
:1038E000AF909F908F907F906F905F904F900895D2
:1038F00066ED73E0C6010E949F17882309F4A0C0FB
:10390000E0913805F09139056789708D818D928D30
:103910000E94DD2F20E030E044EB53E40E94332F7F
:103920004B015C01D8011F966D917D918D919C9109
:1039300052970E94DD2F9B01AC01C501B4010E948A
:1039400092300E94AC2F2B013C0186E395E00E944F
:10395000B30A4B015C01B301A20186E395E00E942A
:10396000D90A2B013C01480C591C6A1C7B1C809114
:10397000360590913705DC01ED91FC910284F385C9
:10398000E02D099553014201861A970AA80AB90A3F
:10399000B501A401B7FE07C044275527BA0148194D
:1039A00059096A097B09E0913805F0913905838D41
:1039B000948D092E000CAA0BBB0B481759076A07F8
:1039C0007B070CF41BCF90E080E00E94230F8091D6
:1039D0001C0590911D05DC01ED91FC910484F58599
:1039E000E02D0995882359F080911C0590911D05C3
:1039F000DC01ED91FC910480F581E02D099581E0D9
:103A000090E0181419041A041B0414F090E080E0EC
:103A10008824B7FC83949924AA24BB248819990983
:103A20000E948A148091360590913705DC01ED9152
:103A3000FC910084F185E02DB301A2010995DECE51
:103A400069ED73E0C6010E949F178823B1F1E091F0
:103A50003805F0913905418952896389748986E373
:103A600095E00E94D90A8091BA049091BB04892BF9
:103A700039F08091BA049091BB04049709F0BECE4E
:103A8000E0911A05F0911B0586809780A084B1848F
:103A9000880C991CAA1CBB1C81E090E00E94230F9B
:103AA00080911C0590911D05DC01ED91FC91008435
:103AB000F185E02DB501A401C1CF6CED73E0C60125
:103AC0000E949F17882349F0E0913805F09139054D
:103AD0006189728983899489A7CE6FED73E0C601ED
:103AE0000E949F17882319F1F80147855089618941
:103AF0007289DB01CA01E3E0880F991FAA1FBB1F6F
:103B0000EA95D1F774FD6BCEE0913805F091390557
:103B10004789508D618D728D481759076A077B0759
:103B20000CF45DCE818B928BA38BB48B67CE62EE4F
:103B300073E0C6010E949F17882361F080913605CB
:103B400090913705DC01ED91FC910280F381E02D2D
:103B5000099554CE65EE73E0C6010E949F17882335
:103B600061F08091360590913705DC01ED91FC9173
:103B70000284F385E02D099557CE68EE73E0C60107
:103B80000E949F178823C1F0F80187859089A18939
:103B9000B28953E0880F991FAA1FBB1F5A95D1F70E
:103BA000E0913605F09137050280F381E02D8483A2
:103BB0009583A683B78322CE6BEE73E0C6010E9485
:103BC0009F17882349F0E0913805F09139056789FE
:103BD000708D818D928D28CE6EEE73E0C6010E94AD
:103BE0009F178823B1F02091380530913905F801ED
:103BF00087859089A189B28943E0880F991FAA1F00
:103C0000BB1F4A95D1F7F901878B908FA18FB28F97
:103C1000F5CD61EF73E0C6010E949F17882319F06C
:103C20000E94781AA8CD64EF73E0C6010E949F1726
:103C3000882399F0E0913605F09137050280F381F1
:103C4000E02D2285338550E040E093E0559547957F
:103C5000379527959A95D1F7ACCD67EF73E0C601FC
:103C60000E949F17882321F1D8011F964D905D90E7
:103C70006D907C90529783E0440C551C661C771C19
:103C80008A95D1F7C0903605D0903705F60163A12B
:103C900074A185A196A10E94AC2F4616570608F480
:103CA0009ECDD6011296ED91FC9153864286A6CD0B
:103CB0006AEF73E0C6010E949F178823B9F0CE0116
:103CC00001960E945A0980913805909139052FE19B
:103CD000FE013196DC0101900D922A95E1F74FE14A
:103CE00050E070E060E00E941C2E88CD6DEF73E024
:103CF000C6010E949F17882389F0C0903805D09094
:103D00003905CE0181960E94F9188FE1FE01B19626
:103D1000D60101900D928A95E1F770CD60E074E0D4
:103D2000C6010E949F17882309F459CD4FE150E046
:103D300070E060E08091380590913905D4CF8F9282
:103D40009F92AF92BF92CF92DF92EF92FF920F932A
:103D50001F93CF93DF931F92CDB7DEB763E074E07C
:103D60008FE496E00E94CD0F0E94F40C86E395E06C
:103D70000E94B30A60933606709337068093380624
:103D80009093390668E074E08FE496E00E94CD0FCE
:103D90008C01E090BA04F090BB04BC01CE01019606
:103DA0000E94C60CA701FF0C660B770BC8010E948E
:103DB000D819C8010E94F40C8091BA049091BB04F8
:103DC00082309105B1F0039721F484E090E00E94E5
:103DD000230F0E94781A0F90DF91CF911F910F91BE
:103DE000FF90EF90DF90CF90BF90AF909F908F901B
:103DF000089583E090E00E94230F00913405109114
:103E00003505E0911A05F0911B0580809180A28014
:103E1000B380C8010E94B30A6B017C01B501A40103
:103E2000C8010E94D90AA0911C05B0911D05AB01E3
:103E3000BC014C0D5D1D6E1D7F1DED91FC91119718
:103E40000084F185E02DCD010995C3CFCF92DF929B
:103E5000EF92FF920F931F93CF93DF93CDB7DEB70F
:103E60006C970FB6F894DEBF0FBECDBF7C018B01FF
:103E7000DB011496CD90DC90B2E0CB16D104B8F4FF
:103E8000AE014F5F5F4F63EC73E00E94F713C70111
:103E90006C960FB6F894DEBF0FBECDBFDF91CF9109
:103EA0001F910F91FF90EF90DF90CF900895CE017A
:103EB00001960E940A0ECE0108960E940A0ECE01BB
:103EC00001960E94CA05F801648175811C8EAE01BD
:103ED000445E5F4FCE0101960E94A411D801149652
:103EE0004D915C9115976D917C9189819A810E9489
:103EF000CB0D188A198A1A8A1B8AF8016081718190
:103F00006F5F7F4FCE0108960E942613F2E0CF1616
:103F1000D10489F480E38F87BE016F5F7F4FC701B3
:103F20000E948D1BCE0108960E947115CE0101964C
:103F30000E947115ACCFD8016D917C916E5F7F4F5F
:103F4000CE0108960E942613B3E0CB16D10411F3DC
:103F5000D801ED91FC9183818F87B6E0CB16D10417
:103F600040F184818C3229F5D80114964D915C91F1
:103F70004530510510F40E947F3145505109BF0171
:103F80006B5F7F4F9E01255E3F4FCE0144960E949E
:103F9000F2124AE050E070E060E08C899D890E9456
:103FA000822B688B798B8A8B9B8BCE0144960E94E7
:103FB0007115BE016F5F7F4FCE0144960E948D1B2D
:103FC000AE01455E5F4FBE016C5E7F4FC7010E9430
:103FD000DE11CE0144960E947115A4CF1F920F925C
:103FE0000FB60F9211248F939F938091E1009091CF
:103FF000E100937F9093E10083FF0FC01092E900EE
:1040000091E09093EB001092EC0092E39093ED001E
:104010001092B90498E09093F00082FF22C093E0E0
:104020009093E9009091F200992319F09AE390930C
:10403000E8009091AB04992341F09091AB0491502A
:104040009093AB04911101C05D9A9091B8049923AB
:1040500041F09091B80491509093B804911101C02F
:10406000289A84FF18C08091E2008E7E8160809340
:10407000E2008091E1008F7E8093E1008091AA04AC
:104080008E7E80618093AA049F918F910F900FBEC6
:104090000F901F90189580FFF7CF8091E2008E7EE1
:1040A00080618093E2008091E1008E7E8093E10048
:1040B0008091AA048E7E8160E5CF1F920F920FB689
:1040C0000F921124CF92DF92EF92FF920F931F93E2
:1040D0002F933F934F935F936F937F938F939F9310
:1040E000AF93BF93EF93FF93CF93DF93CDB7DEB73B
:1040F0006C97DEBFCDBF1092E9008091E80083FF8E
:1041000025C068E0CE0145960E94520282EF80935E
:10411000E8008D8987FF39C09091E80090FFFCCFBF
:10412000982F907609F034C19E894F89588D2F8938
:10413000F88C911131C0803861F58091A904809389
:10414000F1001092F1008EEF8093E8006C960FB6AC
:10415000F894DEBF0FBECDBFDF91CF91FF91EF91FD
:10416000BF91AF919F918F917F916F915F914F918F
:104170003F912F911F910F91FF90EF90DF90CF9083
:104180000F900FBE0F901F9018959EEF9093E80030
:10419000C7CF1092F100D5CF913059F48111D3CF10
:1041A0004130510581F68091A9048D7F8093A90447
:1041B000CACF933049F48111C6CF4130510519F669
:1041C0008091A9048260F2CF953041F48091E8009B
:1041D00080FFFCCF20682093E300B5CF963009F034
:1041E000A9C00B8D1C8D22E01092E9001092A7044B
:1041F0001092A604F2122EC01092A5041092A404EC
:104200000E9421021F8299E09983FA8291E09E83A5
:1042100090EA98879AEF99872091A6043091A70495
:10422000275F3F4F3C832B838D831092E9001092D0
:10423000A7041092A6041093A5040093A40449E0D7
:1042400050E0BE016F5F7F4F80E00E94FB010E9443
:10425000210279CF1093A5040093A4040E94B90110
:10426000DC0112960D911C910115110509F451C143
:10427000D801ED91FC910480F581E02DBE016B5ECB
:104280007F4FC8010995009709F03EC1F8010085EC
:104290001185EACFF3E0FF120EC08F89882309F45D
:1042A00040C0823061F440E860E187E991E00E941B
:1042B0002F24811148CF81E28093EB0047CF8130DA
:1042C00029F440E86BE08BE891E0F1CF833099F777
:1042D0000E94B901DC011296ED90FC908E010F5FF7
:1042E0001F4F6801E114F10479F0D701ED91FC91C1
:1042F0000680F781E02DB801C7010995080F111D4F
:10430000F701E084F184EECFD8011C92F601019010
:104310000020E9F73197BF016C197D0940E0C60123
:10432000C6CF65E771E0FB01449150E080E80E9450
:10433000FB0109CF973009F4BECF983021F481E01A
:104340008093F10000CF993009F0FDCE837009F021
:10435000B2CFE2EBF2E081E031E096E3219122235B
:1043600071F08093E9003093EB00DF0111972C91FD
:104370002093EC009093ED008F5F873079F78EE704
:104380008093EA001092EA008F898093B904DBCE13
:104390008B8D9C8D1092E9001092A7041092A604B8
:1043A0009093A5048093A404898D811192C08E8975
:1043B0009D89913A49F4813209F07DCF47E050E080
:1043C00060E171E080E0B3CF913209F074CF8332C5
:1043D00069F48F89988DB0E0A0E080930C019093F0
:1043E0000D01A0930E01B0930F01ADCE803269F4A0
:1043F0008091E80082FFFCCF67E080E191E00E94BD
:1044000052028BEF8093E8009ECE823209F09BCE61
:104410008F8980931701EEEFFFE7859194918B3F91
:104420009C4D51F1E0E0F8E0809110019091110174
:10443000A0911201B0911301803B9440A105B105F8
:10444000F1F48091170180FD1AC0EE3F8AE0F80771
:1044500089F587E797E79183808380916000809357
:10446000A80488E19BE00FB6F894A89580936000BB
:104470000FBE9093600067CEEEEFFAE0D5CF80815B
:1044800091818737974709F05ECEA89580916000AB
:104490008861809360008091A80480936000EE3F63
:1044A0002AE0F20789F08091FE0A9091FF0A918339
:1044B000808349CE808191818737980751F290930C
:1044C000FF0A8093FE0AC5CF1092FF0A1092FE0ADF
:1044D0003ACE0E94B901DC0112960D911C91011592
:1044E000110509F4E8CED801ED91FC910190F0811D
:1044F000E02DBE016B5E7F4FC8010995811123CE6F
:10450000F80100851185EBCF181619060CF41BCEA7
:10451000D2CEF1E0FF12BECE69E771E004CF1F9268
:104520000F920FB60F9211242F933F934F935F93E7
:104530006F937F938F939F93AF93BF93EF93FF936B
:104540008DE495E00E94FF02FF91EF91BF91AF9142
:104550009F918F917F916F915F914F913F912F919B
:104560000F900FBE0F901F9018951F920F920FB6CD
:104570000F9211242F938F939F93EF93FF93E091CA
:104580005D05F0915E058081E0916305F091640521
:1045900082FD1BC09081809166058F5F8F73209193
:1045A0006705821741F0E0916605F0E0E35BFA4FA2
:1045B000958F80936605FF91EF919F918F912F9139
:1045C0000F900FBE0F901F9018958081F4CF1F920F
:1045D0000F920FB60F9211242F933F938F939F93B7
:1045E000AF93BF9380918B0490918C04A0918D0424
:1045F000B0918E0430918A0423E0230F2D3758F5B3
:104600000196A11DB11D20938A0480938B04909381
:104610008C04A0938D04B0938E0480918F049091AC
:104620009004A0919104B09192040196A11DB11D36
:1046300080938F0490939004A0939104B09392047C
:10464000BF91AF919F918F913F912F910F900FBE8E
:104650000F901F90189526E8230F0296A11DB11DFB
:10466000D2CF1F920F920FB60F9211242F933F9328
:104670004F935F936F937F938F939F93AF93BF936A
:10468000EF93FF93E0910A01F0910B010995FF91DF
:10469000EF91BF91AF919F918F917F916F915F91BA
:1046A0004F913F912F910F900FBE0F901F90189533
:1046B0001F920F920FB60F9211242F933F934F9397
:1046C0005F936F937F938F939F93AF93BF93EF937A
:1046D000FF93E0910801F09109010995FF91EF9195
:1046E000BF91AF919F918F917F916F915F914F910A
:1046F0003F912F910F900FBE0F901F9018951F9212
:104700000F920FB60F9211242F933F934F935F9305
:104710006F937F938F939F93AF93BF93EF93FF9389
:10472000E0910601F09107010995FF91EF91BF918A
:10473000AF919F918F917F916F915F914F913F9139
:104740002F910F900FBE0F901F9018951F920F92F0
:104750000FB60F9211242F933F934F935F936F9354
:104760007F938F939F93AF93BF93EF93FF93E091CA
:104770000401F09105010995FF91EF91BF91AF916F
:104780009F918F917F916F915F914F913F912F9169
:104790000F900FBE0F901F9018951F920F920FB69B
:1047A0000F9211242F933F934F935F936F937F93B7
:1047B0008F939F93AF93BF93EF93FF93E091020189
:1047C000F09103010995FF91EF91BF91AF919F91F6
:1047D0008F917F916F915F914F913F912F910F90AA
:1047E0000FBE0F901F9018951F920F920FB60F9249
:1047F00011242F933F934F935F936F937F938F93E6
:104800009F93AF93BF93EF93FF936091BC0481E0BC
:1048100068276093BC048091790490917A04DC014C
:10482000ED91FC910190F081E02D099580910001BE
:10483000909101019093890080938800FF91EF91FE
:10484000BF91AF919F918F917F916F915F914F91A8
:104850003F912F910F900FBE0F901F901895EF92E0
:10486000FF920F931F93CF93DF93F82E192FE62E0D
:10487000042F81E0860F880F0E94CD0183E00E9403
:10488000CD01CF2DD12FEC0EFD2EF11CCE15DF0565
:10489000B9F007FF13C0FE0184910E94CD01182FCB
:1048A00080E00E94CD01812321968111EFCFDF911D
:1048B000CF911F910F91FF90EF9008958881EDCFD8
:1048C00081E0F5CFCF93DF93EB0188819981A9E750
:1048D000B6E011969C938E932A813B810697EC015A
:1048E000E881F981E758F94F3183208312961D92B0
:1048F0001D921D921C92159781E290E09483838310
:104900008FE796E0948B838B1582158ADF91CF9188
:1049100008956FE776E081E996E00E94930A4FE7F9
:1049200056E061E672E089E796E00E946224E9E7DA
:10493000F6E08DE692E09183808387E792E0918FA5
:10494000808F128611861486138616861586108A25
:104950001786128A118A148A138A8FE292E097834B
:10496000868389EC94E0978B868B88E0858B08950D
:1049700061E576E083E696E00E94930A41E556E021
:104980006DE772E08FE496E00E94EE0DEFE4F6E052
:1049900089E892E09183808383E992E0958B848B10
:1049A0001682158210861782128611861486138647
:1049B00016861586108A17868FE292E0938382838B
:1049C00089EC94E0938B828B80E1818B0895CF9367
:1049D000DF93CDE4D5E01092500510924F0588EE9C
:1049E00093E0A0E0B0E08093510590935205A0932E
:1049F0005305B09354052CEB32E030934E052093D1
:104A00004D052DEC30E030935A05209359052CECE0
:104A100030E030935C0520935B0528EC30E0309368
:104A20005E0520935D0529EC30E03093600520930E
:104A30005F052AEC30E030936205209361052EEC8F
:104A400030E0309364052093630510926605109260
:104A5000670510926805109269051092CC041092B7
:104A6000CB048093CD049093CE04A093CF04B09355
:104A7000D0048EEC92E09093CA048093C9048FEF27
:104A80009FEF9093D6048093D5041092BD041092AA
:104A9000BE041092BF041092C0041092C104109280
:104AA000C2041092C3041092C40469EC74E08FE451
:104AB00096E00E94B82469EC74E089E796E00E94D1
:104AC00089241092C8041092C70489EC94E0909352
:104AD000C6048093C50465E271E080E091E00E9425
:104AE000762C9093C8048093C70484EF92E090934F
:104AF0004E0680934D060E9464018EE296E00E946D
:104B0000F91880EE92E0909306068093050681E006
:104B100090E090930F0680930E061092100610926C
:104B2000110610921206109213061092140610929B
:104B3000150610921606109217061092180610927B
:104B4000190610921A0610921B0610922006109257
:104B5000210610922206109223061092240610922B
:104B60002506109226061092270682E396E090937F
:104B70000806809307068DE496E090930D068093D7
:104B80000C0610921C0610921D0610921E06109222
:104B90001F068CE0809309068AE080930A068BE06A
:104BA00080930B0680E090E0AAE7B3E480932806A8
:104BB00090932906A0932A06B0932B0661E08CE01F
:104BC0000E94B00461E080910B060E94B00461E095
:104BD00080910A060E94B00461E080910A060E945A
:104BE000820410922D0610922C068EEF95E00E9402
:104BF0000A0E87EF95E00E940A0ED093EB05C09352
:104C0000EA0587EF95E09093ED058093EC058EE53E
:104C10009DE09093F6058093F505D0933D05C093F4
:104C20003C058AEE95E090933F0580933E0580E435
:104C300095E00E940A0E10924805109247051092C6
:104C4000490510924A0510924C0510924B0580912F
:104C5000420590914305089730F468E070E080E4E5
:104C600095E00E94E61485E096E0909337058093E6
:104C700036052EE236E030933905209338052CE3D3
:104C800035E030933B0520933A0526E335E0309339
:104C900035052093340590931D0580931C058FE303
:104CA00096E090931B0580931A0582E08093190586
:104CB00010922C0510922D0510922E0510922F05A2
:104CC0001092300510923105109232051092330582
:104CD00087E080931E0510921F0510922005109208
:104CE000210510922205109223051092240510929E
:104CF0002505109226051092270580E395E7A0E090
:104D0000B0E08093280590932905A0932A05B093DD
:104D10002B05DF91CF910895CF93DF93CDB7DEB709
:104D20002F970FB6F894DEBF0FBECDBF789484B531
:104D3000826084BD84B5816084BD85B5826085BD97
:104D400085B5816085BD80916E00816080936E0025
:104D50001092810080918100826080938100809117
:104D600081008160809381008091800081608093C8
:104D700080008091910082608093910080919100E9
:104D80008160809391008091900081608093900079
:104D90008091C10084608093C1008091C1008260D5
:104DA0008093C1008091C10081608093C100809197
:104DB000C30081608093C3008091C00082608093B3
:104DC000C0008091C20081608093C20080917A000F
:104DD000846080937A0080917A00826080937A0068
:104DE00080917A00816080937A0080917A00806857
:104DF00080937A001092B9041092A9041092AA0428
:104E00008091D70081608093D70080EA8093D8009A
:104E100089B5806189BD89B5826089BD09B400FE0C
:104E2000FDCF61E070E080E090E00E940605809197
:104E3000D8008F7C80618093D8008091E000807FD3
:104E40008093E0008091E1008E7E8093E1008DE010
:104E50008093E200559A209A61E080910A060E94B0
:104E6000820460E0809109060E9482048FE99EE13D
:104E700090932D0680932C0662E085E00E94B0049A
:104E800062E086E00E94B0048091000690910106E5
:104E9000409730F460E170E08EEF95E00E947C1165
:104EA0008091F9059091FA05809730F460E270E006
:104EB00087EF95E00E94E6148FEF9FEF9093D60462
:104EC0008093D5048DE495E00E943D0168EE73E087
:104ED00080E090E00E9406058AEE95E00E94D205EF
:104EE0000E94BD0560932C0570932D0580932E05BF
:104EF00090932F0588EE93E0A0E0B0E0809330051A
:104F000090933105A0933205B093330562E0809110
:104F100019050E94B00490E080E00E94230F809168
:104F20001905882309F420C1813009F0ECC081EA19
:104F30009FE09093090180930801809169008F732D
:104F4000806480936900EB9A62E080911E050E9464
:104F5000B00410921F05109224051092250510929E
:104F600026051092270580E395E7A0E0B0E0809346
:104F7000280590932905A0932A05B0932B057894D2
:104F800061E08FE496E00E940F0D0E94F40C84E033
:104F900090E00E94DD2C2CE335E0DC0113963C937D
:104FA0002E9312972BE932E02D933C9390934C056E
:104FB00080934B0532E0E32EF12C4AEF842E912CA6
:104FC000A12CB12C26E0222E312C85E096E00E9407
:104FD000F40F89EC94E00E94F30318161906ECF51F
:104FE00089EC94E00E94B10397FD37C088878D302B
:104FF00031F0803409F4C6C08A3009F0C7C080910E
:10500000020690910306029740F1BE01685F7F4F50
:105010008EEF95E00E9426136EEF75E0CE010196AB
:105020000E94261F8D819E81892B79F06AE38FE48F
:1050300096E00E94D90CBE016F5F7F4F0E94DC0B8F
:1050400063E20E94D90C0E94F40C8EEF95E00E945E
:10505000CA05CE0101960E947115809149058823E9
:1050600009F42AC100913E0510913F05F8018081A5
:105070009181DC01ED91FC910084F185E02D099591
:10508000181619060CF053C180E2682E93E0C92E61
:10509000D12C77247394F80180819181DC01ED910A
:1050A000FC910084F185E02D0995181619060CF085
:1050B0003EC1F80180819181DC01ED91FC91028477
:1050C000F385E02D099597FDE6CF8F878E3719F48C
:1050D000C8010E94D205F8018681882321F08F85BE
:1050E000168286258F87D80114962D913C911597AD
:1050F0008F852115310509F48FC08D3709F055C012
:1051000016967C92C8CF823071F481EA9FE090932A
:1051100005018093040180916900837F84608093FE
:105120006900E99A11CF833071F481EA9FE090938E
:10513000030180930201809169008C7F81608093DC
:105140006900E89A01CF873009F0FECE81EA9FE03E
:1051500090930B0180930A0180916A008F7C80619B
:1051600080936A00EE9AF0CE81EA9FE09093070167
:1051700080930601809169008F7C80618093690033
:10518000EA9AE2CE8EEF95E00E94CA05809102066F
:1051900090910306409708F060CFBE01685F7F4F93
:1051A0008EEF95E00E94261358CF2330310509F485
:1051B00047C080F421303105C1F12230310509F0BA
:1051C0006ACFF80120853185282B31872087D58249
:1051D000C48261CF2430310509F43FC02530310548
:1051E00009F059CF17969C911797890F17968C93B2
:1051F00017978F3F09F05CC015963C922E9214973A
:1052000012966D917C9113971B96ED91FC911C97D2
:105210001A968C9109953FCF8E3709F03CCF81E0EB
:1052200090E0F8019583848336CF18961C921897E6
:1052300019968C9319971596FC92EE9214972BCF92
:105240001A968C931A9717968C931797E4E0F0E0D0
:105250001596FC93EE9314971ECF12968D919C9108
:10526000FC0124813581B9016F5F7F4F2617370715
:10527000E0F4AE01415F5F4F0E940E15F801878197
:105280009F85890F87830280F381E02DD8011896CE
:105290008D919C91199701972481358128173907A1
:1052A00009F0F9CEE5E0F0E0D3CF15821482E6CF25
:1052B000C8010E94D205EFCE80919A04811107C0E7
:1052C00083E994E00E940A0E81E080939A04809121
:1052D0003C0590913D05DC01ED91FC910084F18548
:1052E000E02D09951816190614F580913C0590914A
:1052F0003D05DC01ED91FC910284F385E02D0995DB
:1053000097FD15C089838D3009F076C180914705DE
:1053100090914805DC01ED91FC910484F585E02D28
:1053200063E974E0099583E994E00E94CA058091DD
:10533000470590914805009739F0DC01ED91FC910B
:105340000680F781E02D099580914B0590914C05E1
:10535000892B09F454C06FE074E08FE496E00E945A
:10536000CD0F8C0160914B0570914C05DB01ED91E7
:10537000FC910480F581E02DCE0101960995BE01D6
:105380006F5F7F4FC8010E94DC0B0E94F40CCE01BE
:1053900001960E94711580914705909148050097EC
:1053A000D9F0DC01ED91FC910084F185E02D0995A7
:1053B000809147059091480520914B0530914C050F
:1053C0008217930749F0009739F0DC01ED91FC91C9
:1053D0000280F381E02D099580914B0590914C0559
:1053E000909348058093470510924C0510924B0509
:1053F000DC01ED91FC910284F385E02D099580910B
:10540000300590913105A0913205B0913305892B7B
:105410008A2B8B2B09F4E3C00E94BD0500912C055B
:1054200010912D0520912E0530912F05601B710BD9
:10543000820B930B009130051091310520913205BC
:1054400030913305601771078207930708F4C7C0CE
:105450000E94BD0560932C0570932D0580932E0549
:1054600090932F058092300590923105A0923205DD
:10547000B092330520E030E0A90160911C067091E4
:105480001D0680911E0690911F060E942E2F8823D4
:1054900041F166E074E08FE496E00E94CD0F8C014C
:1054A000DC01ED91FC9136970190F081E02D329670
:1054B000E80FF91F818192818F71806292838183CD
:1054C00086E395E00E94B30A28E030E040E050E037
:1054D0000E945A31BA01A901C8010E94551A0E94BE
:1054E000F40C85E00E9459048C01DD24D394892BAF
:1054F00009F0D12CE0910706F09108064480558010
:10550000668077808091A304D816E9F00115110513
:10551000A1F481E090E00E948A14409145065091E8
:1055200046066091470670914806440D551D661D5C
:10553000771D85E096E00E946406012B21F085E04E
:1055400096E00E94E405D092A30486E00E945904EC
:105550008C01DD24D394892B09F0D12C8091A204F5
:10556000D816F9F001151105B1F48FEF9FEF0E94E5
:105570008A148091450690914606A0914706B09105
:105580004806B301A201481B590B6A0B7B0B85E04F
:1055900096E00E946406012B21F085E096E00E94CF
:1055A000E405D092A20480911E050E945904209126
:1055B0001F05892B49F1222341F064E174E08FE457
:1055C00096E00E94CD0F0E94F40C10921F051092DD
:1055D000240510922505109226051092270580E0DB
:1055E00090E0892B09F4F1CC0E94EB02882309F4A6
:1055F000ECCC0E940000E6CCBE016F5F7F4F83E9D8
:1056000094E00E94261393CE21113EC040902805BD
:105610005090290560902A0570902B050E94BD05C9
:1056200060932005709321058093220590932305B4
:105630004092240550922505609226057092270518
:1056400081E080931F05AE014F5F5F4F62E274E01F
:10565000CE0108960E94F713BE01685F7F4FCE010E
:1056600001960E94261FCE0101960E94711567E2E5
:1056700074E08FE496E00E94CD0F0E94F40CCE01FE
:1056800008960E947115ABCF809124059091250555
:10569000A0912605B0912705892B8A2B8B2B09F425
:1056A0009ECF0E94BD0500912005109121052091FB
:1056B000220530912305601B710B820B930B009127
:1056C00024051091250520912605309127056017A6
:1056D00071078207930708F099CF81CF80E495E0A6
:1056E0000E94711587EF95E00E9471158EEF95E08D
:1056F0000E94711589E796E00E940B098FE496E0FD
:105700000C947B0AB0E0A0E0E8E8FBE20C947C2E6D
:105710005C016B017A016115710519F0FB01918340
:105720008083E114F10449F0C7010297839728F0C0
:1057300060E070E0CB019CC05E01E5012196F501BF
:105740001081812F90E00E946D2C892BA9F71D32CA
:1057500009F056C02196F501118101E0E114F10430
:1057600009F4AEC0F0E1EF16F10409F08EC0103379
:1057700041F488818F7D883509F083C01981229694
:105780000260E0E1EE2EF12C88248A94982CA82C5B
:10579000FFE0BF2E20E060E070E0CB0127010F2C7E
:1057A000000C66087708FE0150ED352E310E39E009
:1057B000331538F43FEB310F3A31A0F549EC342E74
:1057C000310E3E141F04BCF52F3FB9F08616970624
:1057D000A806B90670F1A30192010E943E2E232D66
:1057E00030E050E040E0620F731F841F951F621786
:1057F000730784079507E8F021E021961081D3CF45
:105800001B3221F4E5012296F501118100E0A6CFBB
:1058100078E0E72EF12C88248A94982CA82C6FE14C
:10582000B62EB8CF3FE9310F3A3128F439EA332E9A
:10583000C7CF2FEFE2CFC114D10431F02223E9F01A
:105840002197F601D183C08300FF07C09095809512
:10585000709561957F4F8F4F9F4F2F3F49F482E2A4
:1058600090E09093AE068093AD066FEF7FEFCB0193
:10587000CDB7DEB7E1E10C94982E01FFE5CF22977A
:10588000E0CF10E3E114F10419F23AE0E316F10479
:10589000E9F080E1E816F10409F473CFE8E0EE16D0
:1058A000F10409F4B8CF6FEF7FEFCB0197010F2C14
:1058B000000C440B550B0E944E2E49015A016ACF31
:1058C000103309F456CF9AE0E92EF12C89E9882E9D
:1058D000982CA82C89E1B82E5DCF91110C94022E42
:1058E000803219F089508550C8F708950F931F939F
:1058F000CF93DF93009759F46115710541F4F0E0FF
:10590000E0E0CF01DF91CF911F910F9108958B01BE
:10591000EC016EE070E081E090E00E94C12CFC019F
:10592000892B69F380E883830115110571F01387D2
:10593000028781E883838091A7069091A806892B2E
:1059400021F4F093A806E093A7062097D1F2D1871F
:10595000C0878381826083838091A9069091AA0683
:10596000892B79F6F093AA06E093A9068091AB06FD
:105970009091AC06892B29F6F093AC06E093AB0628
:10598000C0CF0F931F93CF93DF93869F8001879F94
:10599000100D969F100D1124C8010E94DD2CEC0102
:1059A000009729F0A80170E060E00E94052ECE016A
:1059B000DF91CF911F910F9108950F931F93CF9374
:1059C000DF938230910510F482E090E0E091B1061F
:1059D000F091B20630E020E0B0E0A0E0309799F41A
:1059E0002115310509F44AC0281B390B2430310533
:1059F000D8F58A819B816115710589F1FB0193833B
:105A00008283FE0111C040815181028113814817B8
:105A10005907E0F04817590799F4109761F012966A
:105A20000C93129713961C933296CF01DF91CF916E
:105A30001F910F9108950093B1061093B206F4CF11
:105A40002115310551F04217530738F0A901DB0148
:105A50009A01BD01DF01F801C1CFEF01F9CF9093A9
:105A6000B2068093B106CDCFFE01E20FF31F819302
:105A700091932250310939832883D7CF2091AF06E3
:105A80003091B006232B41F420911A0130911B0173
:105A90003093B0062093AF06209118013091190180
:105AA0002115310541F42DB73EB740911C015091AD
:105AB0001D01241B350BE091AF06F091B006E217F3
:105AC000F307A0F42E1B3F0B2817390778F0AC0121
:105AD0004E5F5F4F2417350748F04E0F5F1F5093FE
