:100000000C94D6000C9473230C944C230C9425234D
:100010000C94FE220C94FE000C94FE000C94D7224B
:100020000C94FE000C94FE000C94941F0C9403207E
:100030000C94FE000C94FE000C94FE000C94FE0048
:100040000C94FE000C949A230C94FE000C94FE0079
:100050000C94FE000C94FE000C94FE000C948D2277
:100060000C94FE000C945B220C9435220C94FE0040
:100070000C94FE000C94FE000C94FE000C94FE0008
:100080000C94FE000C94FE000C94FE000C94FE00F8
:100090000C94FE000C94FE000C94FE000C94FE00E8
:1000A0000C94FE000C94FE000C94FE000000000076
:1000B000240027002A002D00300000000000250049
:1000C00028002B002E003100000000002300260035
:1000D00029002C002F000404040404030405020278
:1000E00002020403020202020606060606060404D1
:1000F0000202020404040802011040804010204063
:10010000804080080204018040201002011080100D
:10011000204040200000000200090F0000030401FD
:10012000000C0000000000000000000000000000C3
:10013000000000080B000202020000090400000198
:10014000020200000524001001052401010104241D
:10015000020605240600010705810310004009047A
:100160000100020A00000007050202400000070526
:1001700083024000000403090412010002EF02019F
:100180004041233680000101020301417264756918
:100190006E6F204C4C430041726475696E6F204C49
:1001A000656F6E6172646F006624252B11241FBE7B
:1001B000CFEFDAE0DEBFCDBF14E0A0E0B1E0E6E4CF
:1001C000F8E602C005900D92AE33B107D9F727E0EB
:1001D000AEE3B4E001C01D92A432B207E1F710E033
:1001E000C5EDD0E004C02197FE010E943431C43D2A
:1001F000D107C9F70E9440260C9416340C940000D5
:100200001F93CF93DF93182FC0912605D091270518
:100210008A3041F4E881F9810190F081E02D6DE0B0
:10022000CE010995E881F9810190F081E02D612FDF
:10023000CE01099521E030E0019711F430E020E093
:10024000C901DF91CF911F910895CF93DF93C091A2
:100250002605D0912705E881F9810084F185E02DFC
:10026000CE010995892BB9F3E881F9810284F385E0
:10027000E02DCE01DF91CF910994FC01A089B189D5
:1002800082E08C93A485B5851C92A685B7858FECFA
:100290008C93108EA489B58986E08C93A289B3894A
:1002A0008C9180618C93A289B3898C9188608C93A6
:1002B000A289B3898C9180688C930288F389E02DA0
:1002C00080818F7D80830895FC018091CB048823F9
:1002D00011F13FB7F89482E08093E9002091F20099
:1002E000822F90E01816190614F481E090E088231C
:1002F00039F0289844E64093CA044091F1004083C5
:10030000222339F02091F200211103C02BE6209323
:10031000E8003FBF08958FEF9FEF0895109281008E
:100320001092850010928400EFE6F0E080818D7FCE
:1003300080838FEF90E09093890080938800909362
:100340008B0080938A00109280001092C904089557
:100350002FB7F89483E08093E9009091E800892F0B
:10036000807295FF04C09091F20080E4891B2FBF3A
:1003700008958091C10481110DC082E08093BD0475
:1003800084E08093BE041092C0041092BF0481E008
:100390008093C1048DEB94E008954091B70450918F
:1003A000B8042091B5043091B60442175307B4F451
:1003B0009091E8009570E1F39091E80092FD19C0EA
:1003C0008093F1008091B7049091B80401968F73E7
:1003D0009927892B19F48EEF8093E8008091B70458
:1003E0009091B80401969093B8048093B70481E08B
:1003F000089580E00895DF92EF92FF920F931F938C
:10040000CF93DF93D82E8A01EB017B01E40EF51E1A
:10041000CE15DF0559F0D7FE12C0FE0184910E946F
:10042000CD0121968111F4CF0FEF1FEFC801DF91AD
:10043000CF911F910F91FF90EF90DF9008958881E9
:10044000EECF0F931F93CF93DF931F92CDB7DEB7FD
:1004500082E0898342E450E063E371E080E80E9437
:10046000FB010E94B901DC0112960D911C9101154E
:10047000110589F0D801ED91FC910280F381E02D06
:10048000BE016F5F7F4FC801099597FD04C0F80159
:1004900000851185ECCF89810F90DF91CF911F915D
:1004A0000F910895615030F02091F100FC012083FC
:1004B0000196F8CF289884E68093CA040895DC0159
:1004C000ED91FC910190F081E02D0994AF92BF92E3
:1004D000CF92DF92EF92FF920F931F93CF93DF9310
:1004E0006C017B018B01040F151FEB015E01AE183F
:1004F000BF08C017D10759F06991D601ED91FC9161
:100500000190F081E02DC6010995892B79F7C5018D
:10051000DF91CF911F910F91FF90EF90DF90CF90DF
:10052000BF90AF900895CF93C1E020E030E0A901E3
:10053000FC016789708D818D928D0E94E92E811159
:1005400001C0C0E08C2FCF910895DC011296ED918F
:10055000FC9164817581868197810895FC01538D9A
:10056000448D252F30E0842F90E0821B930B54178D
:1005700010F0CF96089501970895FC01918D828D1A
:10058000981761F0A28DAE0FBF2FB11D5D968C91B3
:10059000928D9F5F9F73928F90E008958FEF9FEFF2
:1005A0000895FC01918D828D981731F0828DE80FAE
:1005B000F11D858D90E008958FEF9FEF0895FC0168
:1005C000918D228D892F90E0805C9F4F821B910935
:1005D0008F73992708958EEB95E00E94DF0221E04A
:1005E000892B09F420E0822F089580E090E0892B88
:1005F00029F00E94EB0281110C9400000895FC0187
:10060000A48DA80FB92FB11DA35ABF4F2C91848D73
:1006100090E001968F739927848FA689B7892C93D0
:10062000A089B1898C9182748C93938D848D981359
:1006300006C00288F389E02D80818F7D8083089534
:10064000EF92FF920F931F93CF93DF93EC0181E022
:10065000888F9B8D8C8D981319C0E889F9898081CA
:1006600085FF14C09FB7F894EE89FF896083E889FD
:10067000F9898081827480839FBF81E090E0DF915F
:10068000CF911F910F91FF90EF900895F62E0B8D53
:1006900010E00F5F1F4F0F731127E02E8C8D8E110E
:1006A0000CC00FB607FCFACFE889F989808185FF75
:1006B000F5CFCE010E94FF02F1CFEB8DEC0FFD2FA5
:1006C000F11DE35AFF4FF0829FB7F8940B8FEA8930
:1006D000FB8980818062CFCFCF93DF93EC01888D3F
:1006E0008823B9F0AA89BB89E889F9898C9185FDAD
:1006F00003C0808186FD0DC00FB607FCF7CF8C913B
:1007000085FFF2CF808185FFEDCFCE010E94FF02F1
:10071000E9CFDF91CF910895CF93DF931F92CDB7AB
:10072000DEB76983DC01ED91FC910280F381E02D5D
:1007300041E050E0BE016F5F7F4F09950F90DF9160
:10074000CF91089583E08093E9008091F20088239F
:1007500019F08AE38093E80008950E94A80190E0D0
:100760000895CF93DF931F92CDB7DEB7FC01848548
:10077000958597FD08C02FEF3FEF358724870F90B1
:10078000DF91CF910895CE0101960E9464010197F7
:1007900019F4898190E0F3CF8FEF9FEFF0CF0F93A3
:1007A0001F93CF93DF931F92CDB7DEB78C01FC016F
:1007B0008485958597FF0BC0CE0101960E94640148
:1007C000019771F4898190E0F80195878487F80199
:1007D000848595850F90DF91CF911F910F9108959A
:1007E0008FEF9FEFF1CFFC018485958597FD0BC0BE
:1007F0009FB7F89482E08093E9008091F2009FBF58
:1008000090E0019608959FB7F89482E08093E90004
:100810008091F2009FBF90E0089581508F3008F0E2
:1008200047C0E82FF0E0E95EFB4F0C94343134040C
:10083000380426042C0430045804580458043B049B
:100840004104450449044F04580453048091800036
:100850008F77809380000895809180008F7DF9CFFD
:1008600080918000877FF5CF84B58F7784BD089510
:1008700084B58F7DFBCF809190008F77809390001F
:100880000895809190008F7DF9CF80919000877FAF
:10089000F5CF8091C0008F778093C000089580913C
:1008A000C0008F7DF9CF8091C200877F8093C20006
:1008B0000895CF93DF93282F30E0F901EC5EFE4FCF
:1008C0008491F901EB50FF4FD491F901EA52FF4FA7
:1008D000C491CC23A1F081110E940D04EC2FF0E013
:1008E000EE0FFF1FE853FF4FA591B491EC91ED235C
:1008F00081E090E009F480E0DF91CF91089580E0FD
:1009000090E0FACF1F93CF93DF93282F30E0F901C7
:10091000EC5EFE4F8491F901EB50FF4FD491F90149
:10092000EA52FF4FC491CC23A9F0162F81110E94E7
:100930000D04EC2FF0E0EE0FFF1FE654FF4FA591E2
:10094000B4918FB7F894EC91111108C0D095DE23C3
:10095000DC938FBFDF91CF911F910895DE2BF8CFED
:10096000CF93DF9390E0FC01EB50FF4F24918A522C
:100970009F4FFC0184918823D1F090E0880F991F4C
:10098000FC01E455FF4FA591B491FC01E654FF4FE3
:10099000C591D491623071F49FB7F8943C91822F45
:1009A000809583238C93E8812E2B28839FBFDF9132
:1009B000CF9108958FB7F894EC912E2B2C938FBF85
:1009C000F6CF3FB7F89480919F049091A004A09136
:1009D000A104B091A20426B5A89B05C02F3F19F031
:1009E0000196A11DB11D3FBFBA2FA92F982F8827AF
:1009F000BC01CD01620F711D811D911D42E0660F8A
:100A0000771F881F991F4A95D1F708958F929F925B
:100A1000AF92BF92CF92DF92EF92FF924B015C01B7
:100A20000E94E1046B017C010E94E1046C197D09C4
:100A30008E099F09683E734081059105A8F321E066
:100A4000821A9108A108B10888EEC80E83E0D81E6A
:100A5000E11CF11C81149104A104B10429F7FF9059
:100A6000EF90DF90CF90BF90AF909F908F900895C0
:100A70008F929F92AF92BF92CF92DF92EF92FF92AE
:100A80000F931F93CF93DF936C017B018A018091B9
:100A90001701882309F45CC08091CB04882309F4F2
:100AA00057C08091BB0480FF05C08091E000826048
:100AB0008093E000E801B12C8AEFA82E93E0892E04
:100AC0002AE3922E209711F4BB20D9F10E94A801AD
:100AD00081110AC0AA94AA20D9F161E070E080E0F7
:100AE00090E00E940605EECF8C171D0611F00CF069
:100AF0008C2F9FB7F8948092E9002091E80025FDA3
:100B000002C09FBFDFCF282F30E0C21BD30BF701FD
:100B1000815020F041914093F100FACFE20EF31E94
:100B2000BB2021F09092E800B12CEBCF8091E8003F
:100B300085FDE7CF9092E800BB24B394209709F39A
:100B4000F3CF5D9884E68093BC04101611063CF048
:100B500081E090E0F6019383828310E000E0C80119
:100B6000DF91CF911F910F91FF90EF90DF90CF9089
:100B7000BF90AF909F908F9008952FB7F894609199
:100B80009B0470919C0480919D0490919E042FBFC2
:100B9000089508950F931F93CF93DF93FC01448131
:100BA000558166817781452B462B472BB9F0EC01A7
:100BB0000E94BD05088119812A813B81AB01BC01DE
:100BC000401B510B620B730B81E00C811D812E8148
:100BD0003F81401751076207730708F480E0DF91F7
:100BE000CF911F910F910895FC0124813581232B12
:100BF00011F0158214820895CF93DF93EC011D82CA
:100C00001C828A819B810E94F4051E821F821986A4
:100C100018868FEF8A87DF91CF9108958F929F92E8
:100C2000AF92BF92CF92DF92EF92FF92CF93DF937A
:100C3000EC01E881F9810484F585E02D099588238C
:100C4000B9F1E881F9810284F385E02DCE0109959F
:100C50006B017C016F89788D898D9A8D9B01AC0128
:100C60000E944D309B01AC0160E070E0CB010E941E
:100C70007C2E4B015C016F8D78A189A19AA19058BF
:100C80009B01AC010E947D2E9B01AC01C501B4010A
:100C90000E94EE2E0E94602F072E000C880B990BED
:100CA000C60ED71EE81EF91ECB86DC86ED86FE86B4
:100CB000DF91CF91FF90EF90DF90CF90BF90AF90FA
:100CC0009F908F900895FC01818508952F923F9207
:100CD0004F925F926F927F928F929F92AF92BF924C
:100CE000CF92DF92EF92FF920F931F93CF93DF93F8
:100CF000EC01EA80FB80F70184819581A681B781B0
:100D00008A019B01081B190B2A0B3B0BD901C80157
:100D10004B875C876D877E8701E010E01816190607
:100D20001A061B0614F010E000E08827B7FD839533
:100D30009927AA27BB27081B190B1A870987D701F0
:100D40001A96CD90DC900C9DB0010D9D700D1C9DF0
:100D5000700D112490E080E00E94962F6B8F7C8FA5
:100D60008D8F9E8FB60190E080E00E94962F4B0100
:100D70005C01F7016085718590E080E00E94962F0C
:100D800020E030E04AE754E40E94EE2E9B01AC01E3
:100D9000C501B4010E94EE2E4B015C01B801110F98
:100DA000880B990B0E94982F9B01AC01C501B401DF
:100DB0000E944D306F8F78A389A39AA3D7011C9608
:100DC0008C9100E011E0882311F001E010E060E078
:100DD0008C810E94820489859A8597FF102F612F4C
:100DE0008E810E94820460E08D810E9482040E94B4
:100DF000BD056F87788B898B9A8BCF88D88CE98CCF
:100E0000FA8C20E030E0A901C701B6010E94483009
:100E100046015701181624F0B7FAB094B7F8B09409
:100E20004BA05CA06DA07EA00F811885F8012080EA
:100E30003180A5019401C301B2010E944830181607
:100E400074F569857A85072E000C880B990B0E9432
:100E5000982FA30192010E944D306B8B7C8B8D8B60
:100E60009E8B6F8B788F898F9A8FD101ED91FC913A
:100E70009E01B301A201C801DF91CF911F910F9193
:100E8000FF90EF90DF90CF90BF90AF909F908F90AA
:100E90007F906F905F904F903F902F900994CB8AF6
:100EA000DC8AED8AFE8AD1011496ED91FC91B501A0
:100EB000A401C801DF91CF911F910F91FF90EF9096
:100EC000DF90CF90BF90AF909F908F907F906F906A
:100ED0005F904F903F902F900994CF93DF93EC0158
:100EE00061E08D810E94820460E08C81DF91CF916E
:100EF0000C948204CF93DF93EC018F819885DC0101
:100F0000ED91FC910280F381E02D09951F8E18A2CE
:100F100019A21AA21F8A188E198E1A8E1A8619867D
:100F2000EA81FB818585811103C0CE010E946D0796
:100F3000EFA1F8A5309719F0DF91CF910994DF91D7
:100F4000CF9108951F93CF93DF93EC01162F8C81DF
:100F50000E948204EA81FB81448155816681778108
:100F6000112391F089859A85092E000CAA0BBB0BE1
:100F7000840F951FA61FB71F84839583A683B7830D
:100F8000DF91CF911F9108958B859C85AD85BE859E
:100F9000481759076A077B0799F7E881F9810280AA
:100FA000F381E02DCE01DF91CF911F910994CF9273
:100FB000DF92EF92FF92CB01BA019A01AC010E943D
:100FC0007D2E6B017C0120E034E244E75BE40E946B
:100FD000483018161CF120E030E044E753E4C70124
:100FE000B6010E94E92E87FF06C0C12CD12C94E7E0
:100FF000E92E93E4F92EA701960160E074E284E7FC
:101000009BE40E94EE2E0E94672F70930101609373
:101010000001FF90EF90DF90CF900895C12C84E203
:10102000D82E84E7E82E8BE4F82EE5CF30938A049F
:10103000209389041092C9040E94D707809100016F
:10104000909101019093890080938800109285000F
:10105000109284001092800089E080938100EFE676
:10106000F0E080818260808308950C948E01EF927D
:10107000FF920F931F93CF93DF93EC017B018A01C3
:10108000E881F9810480F581E02D099580179107A9
:1010900058F0A801B701CE01DF91CF911F910F91B8
:1010A000FF90EF900C94380590E080E0DF91CF91B5
:1010B0001F910F91FF90EF90089508950E94BD0534
:1010C000EEE1F5E0608371838283938380ED97E0A6
:1010D000A0E0B0E084839583A683B7830895089544
:1010E000DC011296ED91FC9181E0858782819381EC
:1010F0000E94FC050E94BD05EEE1F5E0608371836E
:101100008283938380E69AEEA0E0B0E084839583A7
:10111000A683B7830895CF93DF93EC018BEF9AE416
:101120009983888324E02A831B822EE0EEE1F1E09C
:10113000DE01149601900D922A95E1F71A8A1B8A16
:101140001C8A1D8A24EF31E03F8B2E8B40E459EB43
:1011500066E070E0488F598F6A8F7B8F28E532E018
:101160003D8F2C8F9F8F8E8FDF91CF91089580912F
:101170002A050E945904892B39F58091CC0490915D
:10118000CD04019709F582E090E09093CD0480931F
:10119000CC0480912D0590912E05E0912B05F091C6
:1011A0002C054081518162817381DC011296ED91A1
:1011B000FC9113974483558366837783ED91FC916B
:1011C0000480F581E02D09940895FC018789908DB4
:1011D000009739F0248935892817390728F4308F8A
:1011E000278B6FEF7FEF08C001976F3F760731F4D1
:1011F000908F878B70E060E0CB010895A089B18962
:10120000A80FB91F9B01215031092F3F310538F438
:10121000262F3C91321305C0908F878BEDCF20E0B5
:10122000F8CF278524FFDDCF908F878B6C93E4CF99
:10123000CF93DF93EC01E881F9810288F389E02DF7
:1012400009958F3F980731F02F89388D2F5F3F4FD9
:10125000388F2F8BDF91CF910895DC0157968D91B8
:101260009C91589754962D913C91559782179307CE
:1012700040F45096ED91FC91E80FF91F808190E0C9
:1012800008958FEF9FEF0895EF92FF92CF93DF9332
:10129000FC01DB0160E070E0CB01E788F08CC489E1
:1012A000D589EC16FD06A8F4621773078407950725
:1012B00084F4C089D189CE0DDF1DC881CD936F5FC5
:1012C0007F4F8F4F9F4FC789D08D2196D08FC78B6F
:1012D000E4CFDF91CF91FF90EF900895FC018489D6
:1012E00095892789308D821B930B089590E080E0CB
:1012F0000895242FDC01ED91FC910084F185E02D0F
:1013000041E009940895CF92DF92EF92FF92DC01C1
:101310001296ED91FC911397C08CD18CE28CF38CDA
:101320008D919C91DC01ED91FC910284F385E02D7F
:10133000099597FF05C06C0D7D1D8E1D9F1DF9CF72
:10134000A70196010E941531FF90EF90DF90CF909A
:1013500008958F929F92AF92BF92CF92DF92EF92B9
:10136000FF926A017B01DC011296ED91FC91808C69
:10137000918CA28CB38C0E948309C61AD70AE80A02
:10138000F90A09F1C501B40122E030E040E050E083
:101390000E9415312C153D054E055F0524F4C81833
:1013A000D908EA08FB0888279927DC01821B930BE0
:1013B000A40BB50BC816D906EA06FB0624F4C80C24
:1013C000D91CEA1CFB1CC701B601FF90EF90DF900F
:1013D000CF90BF90AF909F908F9008958F929F92E3
:1013E000AF92BF92CF92DF92EF92FF92CF93DF93B3
:1013F000EC014A015B010E9483096B017C01B5018C
:10140000A401CE010E94A9096C0D7D1D8E1D9F1D9A
:10141000DF91CF91FF90EF90DF90CF90BF90AF9092
:101420009F908F900895CF93DF93EC01E881F9812D
:101430000288F389E02D09958F3F980731F02D81BF
:101440003E812F5F3F4F3E832D83DF91CF910895E3
:101450008FEF9FEF089560E070E0CB010895FF9259
:101460000F931F93CF93DF938C01EB016F3F7607B0
:10147000B9F0F62EEAE06E1306C06DE0F80180893F
:1014800091890E945F026F2DF801808991890E94E5
:101490005F02CE01DF91CF911F910F91FF900895D0
:1014A000D0E0C0E0F6CF7F928F929F92AF92BF9232
:1014B000CF92DF92EF92FF920F931F93CF93DF9320
:1014C0008C0149015A01EB01C12CD12C7601C814C1
:1014D000D904EA04FB04B4F479908AE0781206C0D7
:1014E0006DE0F801808991890E945F02672DF80103
:1014F000808991890E945F02FFEFCF1ADF0AEF0A0D
:10150000FF0AE5CFC501B401DF91CF911F910F9183
:10151000FF90EF90DF90CF90BF90AF909F908F9013
:101520007F900895CB010895CF93DF93EC018889D4
:101530009989DC01ED91FC910084F185E02D0995FC
:10154000892BA9F388899989DC01ED91FC910284AA
:10155000F385E02DDF91CF910994CF93DF93EC01D8
:1015600088899989DC01ED91FC910084F185E02D59
:101570000995892BA9F388899989DC01ED91FC9162
:101580000484F585E02DDF91CF9109948F929F928D
:10159000AF92BF92CF92DF92EF92FF920F931F9381
:1015A000CF93DF938C0149015A01EB01C12CD12C5F
:1015B0007601D80150968D919C91DC01ED91FC91C2
:1015C0000284F385E02D09958F3F61F0C814D9049A
:1015D000EA04FB043CF48993BFEFCB1ADB0AEB0A65
:1015E000FB0AE7CFC701B601DF91CF911F910F91A1
:1015F000FF90EF90DF90CF90BF90AF909F908F9033
:101600000895DC0150968D919C91DC01ED91FC9147
:101610000084F185E02D099490E080E0089590E049
:1016200080E00895089590E080E008951F93CF939F
:10163000DF93EC01162F8F8580FF0BC0E881F981C5
:101640000084F185E02D20E144E070E060E0CE010F
:101650000995EB85FC85812F90E02D853E85E2176D
:10166000F30758F410832B853C852F5F3F4F3C8751
:101670002B87DF91CF911F910895E881F981028C2A
:10168000F38DE02DBC01CE01DF91CF911F91099424
:101690008F929F92AF92BF92CF92DF92EF92FF9282
:1016A0000F931F93CF93DF938C0149015A01EB01F4
:1016B000C12CD12C7601C814D904EA04FB0464F4CB
:1016C0006991C8010E94160B019641F08FEFC81A6C
:1016D000D80AE80AF80AEFCF75016401C701B6011C
:1016E000DF91CF911F910F91FF90EF90DF90CF90FE
:1016F000BF90AF909F908F9008950895CF93DF9300
:10170000EC01E881F98136970190F081E02DE80F36
:10171000F91F83899489DC01ED91FC910484F5859E
:10172000E02D0995019659F4E881F98136970190E9
:10173000F081E02DEC0FFD1F858181608583CE0156
:10174000DF91CF9108958F929F92AF92BF92EF92C7
:10175000FF920F931F93CF93DF93EC017B0149011D
:101760005A01E881F98136970190F081E02DE80F68
:10177000F91F03891489D8011F968C911F9780FF48
:101780000BC0ED91FC910084F185E02D20E144E057
:1017900070E060E0C8010995D801ED91FC91008CE2
:1017A000F18DE02DA5019401B701C80109956F3FA6
:1017B0007F4F79F4E881F98136970190F081E02D2F
:1017C000EC0FFD1F858123893489232B71F0826002
:1017D0008583CE01DF91CF911F910F91FF90EF9004
:1017E000BF90AF909F908F9008958360F1CFCF937B
:1017F000DF93EC01E881F98136970190F081E02DCB
:10180000E80FF91F838994890E94160B019679F4D9
:10181000E881F98136970190F081E02DEC0FFD1FF2
:10182000858123893489232B31F082608583CE0121
:10183000DF91CF9108958360F9CF4F925F926F92BD
:101840007F928F929F92AF92BF92CF92DF92EF9250
:10185000FF920F931F93CF93DF93EC018B0129012C
:101860003A01E881F98136970190F081E02D3296B6
:10187000E80FF91FC284D384E484F584C418D50822
:10188000E608F708818192818E709927049791F478
:1018900046015701181419041A041B04B4F1D701A6
:1018A000C601F7FE03C080E090E0DC01C81AD90A47
:1018B000EA0AFB0AA3019201B801CE010E94A30B20
:1018C000E881F98136970190F081E02DEC0FFD1F42
:1018D000838194818E709927029749F5E881F98177
:1018E00036970190F081E02D1C141D041E041F0486
:1018F000F4F481E0C81AD108E108F108EC0FFD1FEB
:101900006089CE010E94F70BE9CF81E0881A910827
:10191000A108B108E881F98136970190F081E02DA6
:10192000EC0FFD1F6089CE010E94F70BB3CFE88159
:10193000F981369780819181C80FD91F1C861D8639
:101940001E861F86DF91CF911F910F91FF90EF9020
:10195000DF90CF90BF90AF909F908F907F906F90CF
:101960005F904F90089521E0DC012C93DB01ED9115
:10197000FC91369780819181680F791FFB018189E5
:101980009289009711F00C947E0B0895DC01ED9183
:10199000FC9136970190F081E02DE80FF91F8EEA57
:1019A00091E09183808388EB91E09783868308950B
:1019B0002EEA31E0FC013183208328EB31E03783CC
:1019C00026830895FB0120813181FC01318320832E
:1019D000FB014281538126503109F9012081318177
:1019E000820F931FFC015183408308952AEC31E05C
:1019F000FC013183208324ED31E0318F208F6EEBA9
:101A000071E00C94E20CDC01ED91FC9136972081A1
:101A10003181820F931F0C94F60C0895DC01ED9137
:101A2000FC9136970190F081E02DE80FF91F8AE9CB
:101A300091E09183808384EA91E093838283089587
:101A40002AE931E0FC013183208324EA31E0338349
:101A500022830895FB0120813181FC0131832083A1
:101A6000FB014281538126503109F90120813181E6
:101A7000820F931FFC0151834083089526EE31E0CD
:101A8000FC013183208320EF31E0358B248B6AED1C
:101A900071E00C942A0DDC01ED91FC9136972081C8
:101AA0003181820F931F0C943E0D0895FC0181E259
:101AB00090E09483838315821682178286E090E0FB
:101AC000A0E0B0E080879187A287B387148615864F
:101AD0001686178680E991E09183808380E2808B6F
:101AE000128A118A748B638B158A08950F931F9342
:101AF000CF93DF931F92CDB7DEB78C01BC01CE012F
:101B000001960E94B30C6AE0C8010E94F70BC8015D
:101B10000E947E0BC8010F90DF91CF911F910F9112
:101B20000895FB012481358150E040E0608171819E
:101B30000C94A30BFF920F931F93CF93DF931F92ED
:101B4000CDB7DEB78C01F62EBC01CE0101960E9406
:101B5000B30C6F2DC8010E94F70BC8010F90DF91E5
:101B6000CF911F910F91FF9008958038C9F08A3866
:101B700011F58091B8059091B905E091AF05F0910C
:101B8000B0050280F381E02D0190F081E02D6081AD
:101B900070E0DC01ED91FC910088F189E02D099461
:101BA0008091B8059091B905DC01ED91FC91068416
:101BB000F785E02DF4CF089508950895CF93DF932E
:101BC00040912205509123056091240570912505CF
:101BD000452B462B472BC1F0EC018EE195E00E948E
:101BE000CA05882389F010922205109223051092CD
:101BF000240510922505E881F9810488F589E02DF6
:101C0000CE01DF91CF910994DF91CF910895CF92CA
:101C1000DF92EF92FF920F931F93FB01DC0100E034
:101C200010E098016A01F12CE12C0C151D052E0520
:101C30003F0538F461916D930F5F1F4F2F4F3F4F5A
:101C4000F4CF840F951F1F910F91FF90EF90DF90BD
:101C5000CF900895CF93DF93EB0188819981AFE214
:101C6000B5E011969C938E932A813B810697EC01F7
:101C7000E881F981E15DFA4F3183208312961D924C
:101C80001D921D921C92159781E290E094838383AC
:101C900085E395E0948B838B1582158ADF91CF9134
:101CA0000895DB012D913C911197FC013183208334
:101CB00012966D917C9126503109D901ED91FC91DC
:101CC000E80FF91F7183608381E290E0948383833E
:101CD000548B438B1582158A0895CF93DF93EC01C3
:101CE0000E943E0DCE01DF91CF910C94342DDC018A
:101CF000ED91FC91369720813181820F931F0C94D6
:101D00006D0E0C94342D0C94342D0C94342D0C94B5
:101D1000342D0C94342DCF93DF93EC010E94F60CFC
:101D2000CE01DF91CF910C94342DDC01ED91FC912B
:101D3000369720813181820F931F0C948B0E0C9467
:101D4000342D0C94342DDC01ED91FC9136972081DB
:101D50003181820F931F0C94A10E0C94342D0C949E
:101D6000342DDC01ED91FC91369720813181820F79
:101D7000931F0C94AF0E0C94342DFC018081918143
:101D80000C94342D24E132E0FC0131832083409611
:101D90000C94BD0ECF93DF93EC010E94C20ECE01D6
:101DA000DF91CF910C94342DCF93DF93EC0182E03F
:101DB00092E0998388838CE092E09E8F8D8FCE0194
:101DC00002960E94C20E66EF71E0CE01DF91CF91C4
:101DD0000C942A0DDC01ED91FC9136972081318124
:101DE000820F931F0C94D40ECF93DF93EC010E94CB
:101DF000D40ECE01DF91CF910C94342DDC01ED9106
:101E0000FC91369720813181820F931F0C94F40E40
:101E10000F931F93CF938C01C62F80919204811151
:101E20002FC08CE090E090938E0480938D0484E02A
:101E300090E09093900480938F048CE090E00E9457
:101E4000982C90938C0480938B04E8E6F1E0CF010A
:101E500088569140A0918B04B0918C0420918F04FE
:101E6000309190048217930740F4A80FB91F109780
:101E700011F080818C933196EACF81E080939204B7
:101E8000E0918B04F0918C0480918F0490919004E8
:101E90008E0F9F1FE817F90758F421912C13FACFE2
:101EA00080E2C8276DE7F801808191810E945F027E
:101EB0006C2FF80180819181CF911F910F910C942B
:101EC0005F02CF93DF93EC0188E090E09B838A83ED
:101ED0001D821C820E94982C99838883DF91CF9168
:101EE00008950F931F93CF93DF93EC018C010E5F46
:101EF0001F4FB8014D960E94560DA80166EF71E084
:101F0000CE010E94510E82E092E0998388838CE09A
:101F100092E09E8F8D8F1E821D8218861F821A86E8
:101F200019861C861B861E861D86188A1F86198A9E
:101F300084E192E09B838A83CE0142960E94610FE6
:101F40001A8E198E1C8E1B8E80E1898BDF91CF91AA
:101F50001F910F910895AF92BF92CF92DF92EF92AF
:101F6000FF920F931F93CF93DF9300D000D000D048
:101F70001F92CDB7DEB78C016B01DC0118968D91F5
:101F80009C919E838D8308969C838B830E94982CC2
:101F90009A83898390E080E02D813E8182179307A8
:101FA00088F4E981FA81E80FF91F309749F0D801E8
:101FB00014962D913C91D901A80FB91F2C91208323
:101FC0000196EACFF601E480F580FBE0EF0EF11C0C
:101FD0006EE7D8018D919C910E945F026F2DC80120
:101FE0000E94080F6E2DC8010E94080F60E0C80112
:101FF0000E94080FF801F684F394FF20F1F0F686B2
:102000006F2DC8010E94080FF801A480B580D80187
:1020100014968D919C91159718962D913C91820F55
:10202000931FA816B90670F4F501E1905F016E2DBB
:10203000C8010E94080FFE0CEACF81E08687FF24CA
:10204000F394DECF60E0C8010E94080FD601AD9086
:10205000BC90F6018081918124813581820F931F8C
:10206000A816B90648F4D501ED905D016E2DC801A2
:102070000E94080FFE0CEDCF6F2D6095C8010E94E5
:10208000080FCE0101960E94BD0E27960FB6F89458
:10209000DEBF0FBECDBFDF91CF911F910F91FF909B
:1020A000EF90DF90CF90BF90AF900895FC018281B8
:1020B00093810C94AB0FCF93DF93FC01C281D3814A
:1020C00084E090E00E94982CFC01D383C28328E630
:1020D00032E031832083988B8F87DF91CF910895F1
:1020E000CF93DF93FC01C281D38184E090E00E9412
:1020F000982CFC01D383C28328E632E0318320830D
:10210000988B8F87DF91CF910895CF93DF93FC0158
:10211000C281D38184E090E00E94982CFC01D3839B
:10212000C28328E632E031832083988B8F87DF914A
:10213000CF910895CF93DF93FC01C281D38184E0D6
:1021400090E00E94982CFC01D383C28328E632E001
:1021500031832083988B8F87DF91CF910895CF9320
:10216000DF93FC01C281D38184E090E00E94982C2F
:10217000FC01D383C28328E632E031832083988B2D
:102180008F87DF91CF9108950F931F93CF93DF93A4
:10219000EC01CB01088119817B836A830E94982C12
:1021A00099838883F801CF01801B910B2C813D819D
:1021B0008217930750F4A881B981A80FB91F10970F
:1021C00011F080818C933196EECFC801DF91CF91D1
:1021D0001F910F910C94342DEF92FF920F931F9348
:1021E000CF93DF93EC018C819D818617970740F593
:1021F0007A018B018A819B818617970740F4685F7B
:102200007F4F8617970718F4CE010E94C4108C8167
:102210009D818017910758F4E881F981E80FF91F33
:10222000309719F0D7012C9120830196F2CF1D83AE
:102230000C83DF91CF911F910F91FF90EF90089544
:1022400068177907B0F77D836C83F3CFCF92DF9265
:10225000EF92FF920F931F93CF93DF931F92CDB70F
:10226000DEB78C0181E1C82E87E0D82EF601E4802C
:10227000F580F801648175816E0D7F1D1982AE01B4
:102280004F5F5F4FC6010E94EC10F80144815581F9
:1022900060817181F601808191818E0D9F1D0E9468
:1022A000070EC6010F90DF91CF911F910F91FF9004
:1022B000EF90DF90CF900895CF93DF931F92CDB72B
:1022C000DEB781E197E00E94F4051982AE014F5F0D
:1022D0005F4F63E070E081E197E00E94EC1043E023
:1022E00050E06DE073E080911107909112070E9419
:1022F000070E0F90DF91CF910895AF92BF92CF92CA
:10230000DF92EF92FF920F931F93CF93DF931F9271
:10231000CDB7DEB78C0159016A01AC14BD04D1F10F
:10232000F60181916F018983F801808191817B01A0
:10233000E81AF90A648175816F5F7F4FAE014F5FC4
:102340005F4FC8010E94EC10F801248135812150B3
:102350003109F80180819181E216F30668F4A90140
:1023600041505109FC01E40FF51F6081820F931F5A
:10237000FC0160839A01EDCF29818E0D9F1DFC0128
:102380002083FFEFEF1AFF0AF801608171816E0D63
:102390007F1DC3CF0F90DF91CF911F910F91FF90C1
:1023A000EF90DF90CF90BF90AF900895EF92FF92A3
:1023B0000F931F93CF93DF931F92CDB7DEB7FC012E
:1023C000822F8870922F90712871283131F4423019
:1023D00009F03FC08FEF9FEF23C0413049F58B01DB
:1023E0002489358920173107A8F3882311F0108F2D
:1023F000078B9923A1F07F011982AE014F5F5F4FD8
:10240000B801CF0140960E94EC10F70184899589AC
:102410002789308D8217930710F4908F878BC8011E
:102420000F90DF91CF911F910F91FF90EF90089542
:10243000423089F404891589060F171F911102C0D3
:1024400010E000E0882361F20789108D060F171F46
:10245000C7CF413021F204891589F8CFAB01FC01C7
:10246000648175816F5F7F4F0C94EC10CF93DF9385
:10247000EC0181E197E00E94F405CE0107960E94ED
:102480002611BE01625F7F4F81E197E0DF91CF911E
:102490000C942E12EF92FF920F931F93CF93DF9322
:1024A00000D01F92CDB7DEB78C01809163048111FB
:1024B00007C08CE594E00E94610F81E08093630483
:1024C0008CE594E00E94F405E0906004F0906104D3
:1024D0001A82B7016E5F7F4FAE014E5F5F4F8CE592
:1024E00094E00E94EC1080915C0490915D0442E0C5
:1024F00050E064E273E08E0D9F1D0E94070ED8012C
:102500001696ED91FC91179714968D919C911597C5
:102510009C012F5F3F4F15963C932E931497E80F25
:10252000F91F80818B83882309F450C08C3209F015
:1025300045C064E670E080E090E00E9406058DE012
:102540008983BE016F5F7F4F8CE594E00E942E125D
:10255000D8011296ED91FC918081918140916004A7
:102560005091610460915C0470915D04DC01ED9117
:10257000FC910280F381E02D09950E94BD056093D6
:102580001E0570931F05809320059093210588E810
:1025900093E1A0E0B0E08093220590932305A093FF
:1025A0002405B093250581E00F900F900F90DF91E7
:1025B000CF911F910F91FF90EF900895BE016D5F35
:1025C0007F4F8CE594E00E942E1299CF80E0ECCFF3
:1025D0000C944A12EF92FF920F931F93CF93DF93C5
:1025E0001F92CDB7DEB78C017B016F3F760779F183
:1025F000D8011F968C911F9784FF2CC059968D91FE
:102600009C915A9754962D913C9155978217930718
:10261000B8F06983BE016F5F7F4FC80140960E948A
:102620002E12F801818D928D0196928F818FC701B4
:102630000F90DF91CF911F910F91FF90EF90089530
:102640005096ED91FC91E80FF91F6083EACFF12CD1
:10265000E12CEDCFEE24EA94FE2CE9CF0F931F93EB
:10266000CF93DF93EC01CB01088119817B836A83CF
:102670000E94982C99838883F801CF01801B910BCD
:102680002C813D818217930750F4A881B981A80F4E
:10269000B91F109711F080818C933196EECFC8014D
:1026A000DF91CF911F910F910C94342DEF92FF92F7
:1026B0000F931F93CF93DF93EC018B017A018A81F3
:1026C0009B818617970740F4685F7F4F86179707AF
:1026D00018F4CE010E942E138C819D8180179107E2
:1026E00058F4E881F981E80FF91F309719F0D70104
:1026F0002C9120830196F2CF1D830C83DF91CF9123
:102700001F910F91FF90EF900895AF92BF92CF92DB
:10271000DF92EF92FF921F93CF93DF93EC017B0147
:102720006C0184E0C80ED11CC6010E94F40519E0BA
:102730001150A9F057018FEFA81AB80A888599851A
:10274000BC016F5F7F4F8617970730F4A701C60162
:102750000E9456137501ECCF19861886FBCFDF91C6
:10276000CF911F91FF90EF90DF90CF90BF90AF90EF
:102770000895EF92FF920F931F93CF93DF931F92D1
:10278000CDB7DEB78C017B010E94610FF701648138
:1027900075811982AE014F5F5F4FC8010E94EC1036
:1027A000F80144815581F70160817181F8018081D0
:1027B00091810E94070E0F90DF91CF911F910F9191
:1027C000FF90EF900895CF92DF92EF92FF920F93D8
:1027D0001F93CF93DF931F92CDB7DEB78C017B01A0
:1027E0006A010E94610F8FEFC816D80611F40E948B
:1027F0003A31F7018081181684F41982AE014F5FD7
:102800005F4FB601C8010E94EC10F8014481558168
:10281000B701808191810E94070E0F90DF91CF91C7
:102820001F910F91FF90EF90DF90CF900895EF925E
:10283000FF920F931F93CF93DF931F92CDB7DEB715
:102840008C017B01BC01CE0101960E94B30CF70103
:1028500001900020E9F73197EE19FF099F0150E040
:1028600040E0B701C8010E941D0CC8010F90DF9124
:10287000CF911F910F91FF90EF900895AF92BF926B
:10288000CF92DF92EF92FF920F931F93CF93DF933C
:102890001F92CDB7DEB77C016B010E94610FF6017C
:1028A00001900020E9F731978F010C191D09F701FC
:1028B000A480B5801982B8016A0D7B1DAE014F5FFF
:1028C0005F4FC7010E94EC10F70180819181A80140
:1028D000B6018A0D9B1D0E94070E0F90DF91CF91CC
:1028E0001F910F91FF90EF90DF90CF90BF90AF902E
:1028F00008950F931F93CF93DF93CDB7DEB728973B
:102900000FB6F894DEBF0FBECDBF8C01DC0112966E
:10291000ED91FC911586808191810E943D01F80125
:1029200002811381AE01485F5F4F61E173E0CE0128
:1029300001960E943E14D8018D919C914D815E813B
:1029400069817A81DC01ED91FC910280F381E02DB7
:102950000995CE0101960E94BD0E0E94BD05EEE1D3
:10296000F5E0608371838283938380EB94E0A0E041
:10297000B0E084839583A683B78328960FB6F89436
:10298000DEBF0FBECDBFDF91CF911F910F91089594
:102990000F931F93CF93DF931F92CDB7DEB78C01B8
:1029A0008091720481110CC0AE014F5F5F4F65E1F1
:1029B00073E08BE694E00E943E1481E08093720401
:1029C0006BE674E0F801828193810E94AB0F0E9454
:1029D000BD0560931E0570931F058093200590939D
:1029E000210588E692E4A0E0B0E080932205909370
:1029F0002305A0932405B09325050F90DF91CF9177
:102A00001F910F9108950F931F93CF93DF931F9200
:102A1000CDB7DEB78C01AE014F5F5F4F69E173E068
:102A20000E943E14C8010F90DF91CF911F910F912A
:102A300008950F931F93CF93DF931F92CDB7DEB707
:102A40008C01AE014F5F5F4F60E273E00E943E1465
:102A5000C8010F90DF91CF911F910F9108950F93AF
:102A60001F93CF93DF931F92CDB7DEB78C01AE01DA
:102A70004F5F5F4F67E273E00E943E14C8010F9002
:102A8000DF91CF911F910F9108950F931F93CF93D3
:102A9000DF931F92CDB7DEB78C01AE014F5F5F4F62
:102AA0006EE273E00E943E14C8010F90DF91CF9157
:102AB0001F910F9108950F931F93CF93DF931F9250
:102AC000CDB7DEB78C018091540481110CC0AE01EA
:102AD0004F5F5F4F65E373E08DE494E00E943E1426
:102AE00081E0809354048091450481110CC0AE01B3
:102AF0004F5F5F4F6BE373E08EE394E00E943E1400
:102B000081E0809345046AE30F3F1F4F99F48DE500
:102B100095E00E949A0D6EE374E00E94910D63E2CD
:102B20000E949A0D0E94760D0F90DF91CF911F9118
:102B30000F9108958DE595E00E949A0D6DE474E083
:102B4000ECCF8F929F92AF92BF92CF92DF92EF9293
:102B5000FF924B015C018091A7059091A805DC01D3
:102B6000ED91FC910284F385E02D099575016401D6
:102B7000C61AD70AE80AF90AB701A601F7FE07C084
:102B800044275527BA014C195D096E097F09E09168
:102B9000A905F091AA05848D958D092E000CAA0B2C
:102BA000BB0B481759076A077B070CF444C0109207
:102BB000CD041092CC0480912D0590912E05DC015E
:102BC000ED91FC910484F585E02D0995882359F059
:102BD00080912D0590912E05DC01ED91FC910480F2
:102BE000F581E02D099581E090E01C141D041E0480
:102BF0001F0414F090E080E0CC24F7FCC394DD24A3
:102C0000EE24FF248C199D090E945B158091A70575
:102C10009091A805DC01ED91FC910084F185E02DF7
:102C2000B501A401FF90EF90DF90CF90BF90AF90DF
:102C30009F908F900994FF90EF90DF90CF90BF907E
:102C4000AF909F908F9008950F931F93CF93DF9332
:102C50001F92CDB7DEB78C01AE014F5F5F4F60E4CE
:102C600073E00E943E14C8010F90DF91CF911F9135
:102C70000F9108952F923F924F925F926F927F92A1
:102C80008F929F92AF92BF92CF92DF92EF92FF927C
:102C90000F931F93CF93DF9300D000D0CDB7DEB753
:102CA0009C838B83DC01ED91FC910484F585E02D00
:102CB0000995882309F4FFC00E94BD05EB81FC81C2
:102CC000878C90A0A1A0B2A00785108921893289A4
:102CD000601B710B820B930B0E94962F20E030E05B
:102CE0004AE754E40E94EE2EA50194010E944D3063
:102CF000AB81BC8153962D913D914D915C9156973E
:102D00000E947D2E6B017C01EB81FC810280F381AE
:102D1000E02DFA83E9834480558066807780AB811B
:102D2000BC8193963C90939794962C90949795960B
:102D30000C91959796961C9196971B966D917D9107
:102D40008D919C911E97641975098609970997FFC3
:102D500007C090958095709561957F4F8F4F9F4FDD
:102D60000E94962F2B013C01C501B4019F779B0166
:102D7000AC010E947D2E9B01AC01C301B2010E94F7
:102D80004D304B015C01232D322DA801632D722D96
:102D9000C8010E944D309B01AC01C501B4010E94E5
:102DA0007D2E0E94C0304B015C01EB81FC8161856E
:102DB0007285072E000C880B990B0E94982F2B010F
:102DC0003C01AC019B01C501B4010E944D304B0197
:102DD0005C0120E030E0A901C701B6010E94483043
:102DE000181624F0F7FAF094F7F8F09420E030E0A9
:102DF000A901C501B4010E944830181624F0B7FAA1
:102E0000B094B7F8B094A5019401C701B6010E942F
:102E1000E92E87FD02C075016401232D322DA80122
:102E2000C701B6010E94E92E87FD42C0A981BA817F
:102E30001A966D917C9190E080E00E94962F5B0144
:102E40008C019B01AC01C701B6010E9448301816E5
:102E500014F465017801A3019201C701B6010E9433
:102E60004D30EB81FC81678B708F818F928F8781D2
:102E70009085DC01ED91FC910480F581E02DB70196
:102E8000A6010F900F900F900F90DF91CF911F919F
:102E90000F91FF90EF90DF90CF90BF90AF909F90F9
:102EA0008F907F906F905F904F903F902F900994FC
:102EB000C32CD22CCFCF0F900F900F900F90DF919B
:102EC000CF911F910F91FF90EF90DF90CF90BF9027
:102ED000AF909F908F907F906F905F904F903F90BA
:102EE0002F900895AF92BF92CF92DF92EF92FF9210
:102EF0000F931F93CF93DF93CDB7DEB728970FB60D
:102F0000F894DEBF0FBECDBF5C016B01AE01485F20
:102F10005F4F66E473E0CE0101960E943E14D60135
:102F20001496ED90FC900D811E81A7010E151F05D2
:102F300008F4A80169817A81F601808191810E945B
:102F40005131DD24D394892B39F4E016F10608F0D1
:102F5000D12C0E151F0588F1CE0101960E94BD0EE1
:102F6000D1101AC0D50112960D911C9188E090E005
:102F70000E94982CFC011383028382E892E09183E3
:102F8000808389E493E09783868315821482D80135
:102F90005096FC93EE931F9728960FB6F894DEBFD9
:102FA0000FBECDBFDF91CF911F910F91FF90EF909A
:102FB000DF90CF90BF90AF900895DD24D394CCCF15
:102FC0000F931F93CF93DF93EB0109900020E9F754
:102FD0002197C61BD70BFC0104811581AE010C178C
:102FE0001D0708F4A801FC01808191810E945131E4
:102FF000892B11F080E004C081E0C017D107D1F720
:10300000DF91CF911F910F910895AF92BF92CF9210
:10301000DF92EF92FF920F931F93CF93DF9300D035
:1030200000D000D01F92CDB7DEB75C017B0180914C
:10303000810481110CC0AE014F5F5F4F61E973E005
:103040008AE794E00E943E1481E080938104F701B6
:1030500000811181C480D580C00ED11E88E090E02F
:103060009C838B831E821D820E94982C9A83898365
:10307000CE0101960E94F405A801465F5F4F698169
:103080007A819601CE0101960E947D1161E973E07B
:10309000CE0101960E94E017882371F1F70160814B
:1030A0007181F501828193810E948513F50102816E
:1030B000138184E090E00E94982CFC01138302832A
:1030C0002EE432E031832083F801908B8787CE0194
:1030D00001960E94BD0E27960FB6F894DEBF0FBE74
:1030E000CDBFDF91CF911F910F91FF90EF90DF90B7
:1030F000CF90BF90AF9008950D811E8101151105ED
:1031000031F3E981FA8180818A3329F06AE38DE520
:1031100095E00E949A0DBE016F5F7F4F8DE595E0AF
:103120000E94910DE981FA81E00FF11F31978081B2
:10313000833229F063E28DE595E00E949A0D8DE5DA
:1031400095E00E94760DC3CFCF93DF93EC01CB01C6
:1031500066E473E00E94E0178823C1F0CE010E946C
:103160004A12811110C00A80DB81C02D84E090E0FA
:103170000E94982CFC01D383C28324E332E0318384
:103180002083988B8F87DF91CF9108950A80DB8110
:10319000C02D84E090E00E94982CFC01D383C28370
:1031A00028E632E0ECCFAF92BF92CF92DF92EF925F
:1031B000FF920F931F93CF93DF9300D000D000D0E6
:1031C0001F92CDB7DEB75C017B01FB01008111814D
:1031D000C480D580C00ED11E88E090E09C838B8394
:1031E0001E821D820E94982C9A838983CE010196AB
:1031F0000E94F405A801465F5F4F69817A819601BC
:10320000CE0101960E947D1161E973E0CE01019625
:103210000E94E0178823C9F0F70160817181F501F0
:10322000828193810E948513F5010281138184E0DC
:1032300090E00E94982CFC01138302832EE432E07C
:1032400031832083F801908B8787CE0101960E94FD
:10325000BD0E27960FB6F894DEBF0FBECDBFDF912F
:10326000CF911F910F91FF90EF90DF90CF90BF9083
:10327000AF9008950F931F93CF93DF93CDB7DEB731
:10328000C054D1090FB6F894DEBF0FBECDBF8C017C
:10329000CE0101960E948B08CE0181960E948B0878
:1032A00040E250E070E060E0CE0181960E94C72DC0
:1032B00089A19AA18B3F9A4439F421968EAD9FAD96
:1032C00021978B3F9A44A9F080E2FE013196D80104
:1032D00001900D928A95E1F7C801C05CDF4F0FB6EF
:1032E000F894DEBF0FBECDBFDF91CF911F910F913C
:1032F00008958BA1843041F780E2FE01B196E7CFBB
:103300002F923F924F925F926F927F928F929F92F5
:10331000AF92BF92CF92DF92EF92FF920F931F93E3
:10332000CF93DF93CDB7DEB72C970FB6F894DEBFFF
:103330000FBECDBF6C0129013A01FC01A18CB28CFA
:103340009E01265F3F4FA201CE0101960E94E3132A
:10335000F601E488F588EA14FB0410F40E943A317F
:1033600017012A183B0882012414350408F481014E
:103370008D809E80E01AF10AC40180959095E81630
:10338000F90660F7E80CF91CC60140969C878B870C
:103390000815190538F41886AE01485F5F4FB7016C
:1033A0000E94EC10F60180899189A101401B510B0C
:1033B000B501600F711F680F791F9501280D391D28
:1033C000820F931F0E943F3169817A81F6018089C3
:1033D0009189A4018A0D9B1D0E94070E1986AE01DA
:1033E000475F5F4FB7018B859C850E94EC10CE0133
:1033F00001960E94BD0EF601818D928D840D951D62
:10340000928F818FC301B2012C960FB6F894DEBF64
:103410000FBECDBFDF91CF911F910F91FF90EF9025
:10342000DF90CF90BF90AF909F908F907F906F90E4
:103430005F904F903F902F900895CF92DF92EF9240
:10344000FF920F931F93CF93DF93CDB7DEB76597AE
:103450000FB6F894DEBF0FBECDBF8C01F42EE52E63
:10346000D62EC72EBC01CE0145960E94B30CD801C2
:10347000ED91FC9136970190F081E02DE00FF11F66
:103480008381948185FD5BC086FF42C092FF5AC054
:103490008CE993E0CF92DF92EF92FF929F938F930C
:1034A0001F9284E18F939E012F5F3F4F79013F93DD
:1034B0002F930E945F319C01990F440B550BB7016C
:1034C000C8010E941D0CD801ED91FC913697019026
:1034D000F081E02DE00FF11F838194810FB6F89405
:1034E000DEBF0FBECDBF96FF03C0C8010E947E0B9A
:1034F000C80165960FB6F894DEBF0FBECDBFDF9151
:10350000CF911F910F91FF90EF90DF90CF90089592
:1035100087FF1BC09C012227307292FF08C085EAFA
:1035200093E0232B09F0B6CF8AEA93E0B3CF8FEA7A
:1035300093E0232B09F0AECF83EB93E0ABCF88E988
:1035400093E0A8CF81EA93E0A5CF90E080E0A2CFFE
:10355000CF92DF92EF92FF920F931F93CF93DF935F
:10356000CDB7DEB7EB970FB6F894DEBF0FBECDBF79
:1035700060E1CE0101960E94710FE981FA813697D0
:103580000190F081E02D329681E090E08C0F9D1F3C
:10359000E80FF91F818192818F718062928381830C
:1035A00067EB73E0CE0101960E9417148C0187EA45
:1035B00095E00E94830928E030E040E050E00E945E
:1035C0001531BA01A901C8010E941D1A6CE20E94BE
:1035D0009A0D8C01E090CC04F090CD04BC01CE019A
:1035E000C4960E94B30CD801ED91FC9136970190DE
:1035F000F081E02DE00FF11F838184FF97C024E06C
:1036000030E040E050E06DEB73E0B4E0EB16F10425
:1036100031F025E030E040E050E062EC73E0C801BA
:103620000E941D0CD801ED91FC9136970190F0811C
:10363000E02DE00FF11F8381948196FF03C0C80144
:103640000E947E0B6CE2C8010E949A0D8C01E091F1
:10365000A905F091AA05608D718D828D938D28E06A
:10366000C22ED12CE12CF12CA70196010E9415311C
:10367000BA01A901C8010E941D1A6CE20E949A0DAC
:103680008C01E091A905F091AA056289738984896A
:103690009589A70196010E941531BA01A901C801B7
:1036A0000E941D1A6CE20E949A0D8C01E091A905FE
:1036B000F091AA05648D758D072E000C880B990B6F
:1036C000A70196010E941531BA01A901C8010E9403
:1036D0001D1A63E20E949A0DAE01455C5F4FBE0168
:1036E0006D5E7F4FCE01C4960E94B913BE016C5C23
:1036F0007F4F8DE595E00E94910D0E94760DCE01E1
:10370000C4960E94BD0ECE0101960E94D40EEB9687
:103710000FB6F894DEBF0FBECDBFDF91CF911F91E2
:103720000F91FF90EF90DF90CF90089521E030E06F
:1037300040E050E068EC73E084E0E816F10409F43E
:103740006ECF6AEC73E06BCF87EA95E00E94830945
:103750006093F7067093F8068093F9069093FA0643
:103760008091CC049091CD040397A1F484E090E083
:103770009093CD048093CC048091CC049091CD049F
:10378000892B31F08091CC049091CD04049779F588
:103790000C94A81A8091CC049091CD04029711F555
:1037A00083E090E09093CD048093CC04E0912B05CE
:1037B000F0912C0540815181628173818091A50532
:1037C0009091A6050E94EE09AB01BC0180912D05E8
:1037D00090912E05DC01ED91FC910084F185E02DA6
:1037E0000995CACF1092CD041092CC04C5CF08958C
:1037F000CF92DF92EF92FF92CF93DF93CDB7DEB7F8
:10380000EB970FB6F894DEBF0FBECDBF6A017B0108
:103810000E94361260E1CE0101960E94710FB7013D
:10382000A601CE0101960E941D1AAE01455C5F4FB4
:10383000BE016D5E7F4FCE01C4960E94B913CE01CA
:10384000C4960E942611CE01C4960E94BD0ECE01E0
:1038500001960E94D40EEB960FB6F894DEBF0FBE11
:10386000CDBFDF91CF91FF90EF90DF90CF90089583
:10387000CF92DF92EF92FF920F931F93CF93DF933C
:10388000CDB7DEB7C154D1090FB6F894DEBF0FBE75
:10389000CDBF8C010E943612D8011E968C918335C3
:1038A00071F4B8018091AB059091AC050E94AB0F0B
:1038B000C8010E94361281E197E00E94F405F801E8
:1038C00086858235B1F57801F7E0EF0EF11C6CECDE
:1038D00073E0C7010E94E017882361F0E091A90519
:1038E000F091AA054485558570E060E0C8010E940A
:1038F000F81B1FC06FEC73E0C7010E94E01788231C
:1039000041F1D8011F96CD90DD90ED90FC9052973B
:10391000B4E6CB16D104E104F10414F40E945C1166
:10392000E091A705F091A8050280F381E02DD186F2
:10393000C086CF5BDF4F0FB6F894DEBF0FBECDBFA2
:10394000DF91CF911F910F91FF90EF90DF90CF907B
:10395000089562ED73E0C7010E94E017882399F093
:10396000E091A905F091AA05648D758D072E000CD4
:10397000880B990B28E030E040E050E00E941531C0
:10398000BA01A901B3CF65ED73E0C7010E94E0174A
:103990008823F9F0F801C784D088E188F288A3E091
:1039A000CC0CDD1CEE1CFF1CAA95D1F7F1EDCF1657
:1039B000FFE2DF06E104F10410F00E945C11E091E7
:1039C000A905F091AA05D58EC48EC8010E943612B1
:1039D000B0CF68ED73E0C7010E94E0178823A9F01B
:1039E000AE014F5D5F4F6BED73E0CE0101960E941B
:1039F0003E14C8010E943612CE0101960E94261183
:103A0000CE0101960E94BD0E94CF69EE73E0C7010E
:103A10000E94E017882361F1E091A905F091AA05C1
:103A2000608D718D828D938D0E94982F20E030E003
:103A300044EB53E40E94EE2E6B017C01D8011F96EB
:103A40006D917D918D919C9152970E94982F9B0131
:103A5000AC01C701B6010E944D300E94672FAB0137
:103A6000BC0187EA95E00E94EE090E94A11561CF92
:103A70006CEE73E0C7010E94E0178823B9F1E09172
:103A8000A905F091AA05428953896489758987EA55
:103A900095E00E94A9098091CC049091CD04892BD6
:103AA00039F08091CC049091CD04049709F041CF76
:103AB000E0912B05F0912C05468157816085718539
:103AC000440F551F661F771F81E090E09093CD044F
:103AD0008093CC0480912D0590912E05DC01ED9111
:103AE000FC910084F185E02D099523CF6FEE73E002
:103AF000C7010E94E017882369F0F80147855089C3
:103B000061897289E3E0440F551F661F771FEA95AC
:103B1000D1F7A7CF62EF73E0C7010E94E0178823B7
:103B200049F0E091A905F091AA0562897389848919
:103B3000958920CF65EF73E0C7010E94E0178823C5
:103B400041F1F80187859089A189B2896C017D01D5
:103B500063E0CC0CDD1CEE1CFF1C6A95D1F7B4FDB4
:103B60000DC0E091A905F091AA05808D918DA28DDF
:103B7000B38D8C159D05AE05BF0514F40E945C1134
:103B8000E091A905F091AA05C28AD38AE48AF58A50
:103B90001CCF68EF73E0C7010E94E017882361F033
:103BA0008091A7059091A805DC01ED91FC91028020
:103BB000F381E02D0995BDCE6BEF73E0C7010E9444
:103BC000E017882361F08091A7059091A805DC019A
:103BD000ED91FC910284F385E02D0995CBCE6EEF3B
:103BE00073E0C7010E94E0178823C1F0F8018785C0
:103BF0009089A189B28953E0880F991FAA1FBB1F22
:103C00005A95D1F7E091A705F091A8050280F381BC
:103C1000E02D84839583A683B7838BCE61E074E027
:103C2000C7010E94E017882349F0E091A905F091AF
:103C3000AA05608D718D828D938D9CCE64E074E0B9
:103C4000C7010E94E0178823B1F02091A9053091A7
:103C5000AA05F80187859089A189B28943E0880F78
:103C6000991FAA1FBB1F4A95D1F7F901808F918F29
:103C7000A28FB38F5ECE67E074E0C7010E94E017A9
:103C8000882399F08091CC049091CD04892B31F058
:103C90008091CC049091CD04049711F40E94A81A4D
:103CA00081E197E00E94F40544CE6AE074E0C70128
:103CB0000E94E017882399F0E091A705F091A805EC
:103CC0000280F381E02D4285538570E060E093E04F
:103CD00075956795579547959A95D1F707CE6DE0FD
:103CE00074E0C7010E94E017882339F1D8011F96BC
:103CF000CD90DD90ED90FC90529783E0CC0CDD1CD4
:103D0000EE1CFF1C8A95D1F7E091A705F091A8055C
:103D100063A174A185A196A10E94672FC616D7063C
:103D200010F40E945C11E091A705F091A8050280B3
:103D3000F381E02DD386C286FCCD60E174E0C7013B
:103D40000E94E0178823B9F0CE0101960E948B08EB
:103D50008091A9059091AA0520E2FE013196DC012F
:103D600001900D922A95E1F740E250E070E060E0AA
:103D70000E94D72DDECD63E174E0C7010E94E017F9
:103D8000882389F00091A9051091AA05CE01829699
:103D90000E943A1980E2FE01B296D80101900D927C
:103DA0008A95E1F7C6CD66E174E0C7010E94E0178D
:103DB000882349F040E250E070E060E08091A9057E
:103DC0009091AA05D5CF69E174E0C7010E94E01780
:103DD000882309F4AECDF0E0E0E00995AACDAF92DA
:103DE000BF92CF92DF92EF92FF920F931F93CF93E8
:103DF000DF93CDB7DEB729970FB6F894DEBF0FBEBD
:103E0000CDBF7C018B010E94610F570187E0A80E96
:103E1000B11CC5010E94610FD8011496CD90DC90B1
:103E2000E016F106C9F0C7010E94F405F8016481AB
:103E300075811986AE01475F5F4FC7010E94EC1084
:103E4000D80114964D915C9115976D917C91F70175
:103E5000808191810E94070ED7011F961D921D92AD
:103E60001D921C925297F801608171816F5F7F4FA4
:103E7000C5010E942E12F3E0CF16D104B0F480E306
:103E8000F7018687F6E0CF16D104E8F1D801ED916D
:103E9000FC91119784818C32B1F514964D915C910F
:103EA0004530510598F40E943A31D8016D917C91CA
:103EB0006E5F7F4FC5010E942E12B3E0CB16D10476
:103EC000F1F2D801ED91FC918381DACF455051098F
:103ED000BF016B5F7F4F9E01285F3F4FCE01019670
:103EE0000E94E3134AE050E070E060E089819A812B
:103EF0000E943D2BF7016787708B818B928BCE01DF
:103F000001960E94BD0E29960FB6F894DEBF0FBE33
:103F1000CDBFDF91CF911F910F91FF90EF90DF9078
:103F2000CF90BF90AF9008951F920F920FB60F924F
:103F300011248F939F938091E1009091E100937FF2
:103F40009093E10083FF0FC01092E90091E09093FD
:103F5000EB001092EC0092E39093ED001092CB04F2
:103F600098E09093F00082FF22C093E09093E900E4
:103F70009091F200992319F09AE39093E8009091C0
:103F8000BC04992341F09091BC0491509093BC04DF
:103F9000911101C05D9A9091CA04992341F09091CA
:103FA000CA0491509093CA04911101C0289A84FFC9
:103FB00018C08091E2008E7E81608093E200809143
:103FC000E1008F7E8093E1008091BB048E7E806152
:103FD0008093BB049F918F910F900FBE0F901F9005
:103FE000189580FFF7CF8091E2008E7E80618093EC
:103FF000E2008091E1008E7E8093E1008091BB041D
:104000008E7E8160E5CF1F920F920FB60F92112422
:10401000CF92DF92EF92FF920F931F932F933F93D4
:104020004F935F936F937F938F939F93AF93BF93C0
:10403000EF93FF93CF93DF93CDB7DEB76C97DEBFDF
:10404000CDBF1092E9008091E80083FF25C068E0B1
:10405000CE0145960E94520282EF8093E8008D893E
:1040600087FF39C09091E80090FFFCCF982F9076A1
:1040700009F034C19E894F89588D2F89F88C911190
:1040800031C0803861F58091BA048093F1001092BC
:10409000F1008EEF8093E8006C960FB6F894DEBFC7
:1040A0000FBECDBFDF91CF91FF91EF91BF91AF9147
:1040B0009F918F917F916F915F914F913F912F9140
:1040C0001F910F91FF90EF90DF90CF900F900FBE58
:1040D0000F901F9018959EEF9093E800C7CF109215
:1040E000F100D5CF913059F48111D3CF4130510532
:1040F00081F68091BA048D7F8093BA04CACF933041
:1041000049F48111C6CF4130510519F68091BA04A6
:104110008260F2CF953041F48091E80080FFFCCFBF
:1041200020682093E300B5CF963009F0A9C00B8D2D
:104130001C8D22E01092E9001092B8041092B7048E
:10414000F2122EC01092B6041092B5040E94210201
:104150001F8299E09983FA8291E09E8390EA988782
:104160009AEF99872091B7043091B804275F3F4FA9
:104170003C832B838D831092E9001092B804109237
:10418000B7041093B6040093B50449E050E0BE01B3
:104190006F5F7F4F80E00E94FB010E94210279CF78
:1041A0001093B6040093B5040E94B901DC01129685
:1041B0000D911C910115110509F451C1D801ED9122
:1041C000FC910480F581E02DBE016B5E7F4FC8013C
:1041D0000995009709F03EC1F80100851185EACFE5
:1041E000F3E0FF120EC08F89882309F440C08230AB
:1041F00061F440E860E187E991E00E94D5238111F4
:1042000048CF81E28093EB0047CF813029F440E82A
:104210006BE08BE891E0F1CF833099F70E94B90110
:10422000DC011296ED90FC908E010F5F1F4F68012C
:10423000E114F10479F0D701ED91FC910680F7814A
:10424000E02DB801C7010995080F111DF701E084A1
:10425000F184EECFD8011C92F60101900020E9F71D
:104260003197BF016C197D0940E0C601C6CF65E7F3
:1042700071E0FB01449150E080E80E94FB0109CF0E
:10428000973009F4BECF983021F481E08093F1009B
:1042900000CF993009F0FDCE837009F0B2CFE3EB87
:1042A000F2E081E031E096E32191222371F08093E6
:1042B000E9003093EB00DF0111972C912093EC0083
:1042C0009093ED008F5F873079F78EE78093EA0057
:1042D0001092EA008F898093CB04DBCE8B8D9C8D6E
:1042E0001092E9001092B8041092B7049093B604AB
:1042F0008093B504898D811192C08E899D89913AF0
:1043000049F4813209F07DCF47E050E060E171E08F
:1043100080E0B3CF913209F074CF833269F48F8992
:10432000988DB0E0A0E080930C0190930D01A093D4
:104330000E01B0930F01ADCE803269F48091E80098
:1043400082FFFCCF67E080E191E00E9452028BEF98
:104350008093E8009ECE823209F09BCE8F898093B5
:104360001701EEEFFFE7859194918B3F9C4D51F142
:10437000E0E0F8E08091100190911101A09112010C
:10438000B0911301803B9440A105B105F1F48091F7
:10439000170180FD1AC0EE3F8AE0F80789F587E72C
:1043A00097E791838083809160008093B90488E1CE
:1043B0009BE00FB6F894A895809360000FBE909391
:1043C000600067CEEEEFFAE0D5CF8081918187372C
:1043D000974709F05ECEA895809160008861809330
:1043E00060008091B90480936000EE3F2AE0F207FC
:1043F00089F08091FE0A9091FF0A9183808349CED3
:10440000808191818737980751F29093FF0A8093BA
:10441000FE0AC5CF1092FF0A1092FE0A3ACE0E9401
:10442000B901DC0112960D911C910115110509F4D9
:10443000E8CED801ED91FC910190F081E02DBE0114
:104440006B5E7F4FC8010995811123CEF80100856D
:104450001185EBCF181619060CF41BCED2CEF1E065
:10446000FF12BECE69E771E004CF1F920F920FB624
:104470000F9211242F933F934F935F936F937F93EA
:104480008F939F93AF93BF93EF93FF938EEB95E042
:104490000E94FF02FF91EF91BF91AF919F918F9189
:1044A0007F916F915F914F913F912F910F900FBE30
:1044B0000F901F9018951F920F920FB60F92112414
:1044C0002F938F939F93EF93FF93E091CE05F091FD
:1044D000CF058081E091D405F091D50582FD1BC008
:1044E00090818091D7058F5F8F732091D8058217B7
:1044F00041F0E091D705F0E0E254FA4F958F8093B8
:10450000D705FF91EF919F918F912F910F900FBE43
:104510000F901F9018958081F4CF1F920F920FB6C5
:104520000F9211242F933F938F939F93AF93BF9339
:1045300080919B0490919C04A0919D04B0919E0455
:1045400030919A0423E0230F2D3758F50196A11DD1
:10455000B11D20939A0480939B0490939C04A09394
:104560009D04B0939E0480919F049091A004A0911B
:10457000A104B091A2040196A11DB11D80939F04D6
:104580009093A004A093A104B093A204BF91AF9113
:104590009F918F913F912F910F900FBE0F901F9081
:1045A000189526E8230F0296A11DB11DD2CF1F92A8
:1045B0000F920FB60F9211242F933F934F935F9357
:1045C0006F937F938F939F93AF93BF93EF93FF93DB
:1045D000E0910A01F0910B010995FF91EF91BF91D4
:1045E000AF919F918F917F916F915F914F913F918B
:1045F0002F910F900FBE0F901F9018951F920F9242
:104600000FB60F9211242F933F934F935F936F93A5
:104610007F938F939F93AF93BF93EF93FF93E0911B
:104620000801F09109010995FF91EF91BF91AF91B8
:104630009F918F917F916F915F914F913F912F91BA
:104640000F900FBE0F901F9018951F920F920FB6EC
:104650000F9211242F933F934F935F936F937F9308
:104660008F939F93AF93BF93EF93FF93E0910601D6
:10467000F09107010995FF91EF91BF91AF919F9143
:104680008F917F916F915F914F913F912F910F90FB
:104690000FBE0F901F9018951F920F920FB60F929A
:1046A00011242F933F934F935F936F937F938F9337
:1046B0009F93AF93BF93EF93FF93E0910401F09129
:1046C00005010995FF91EF91BF91AF919F918F9156
:1046D0007F916F915F914F913F912F910F900FBEFE
:1046E0000F901F9018951F920F920FB60F921124E2
:1046F0002F933F934F935F936F937F938F939F93EA
:10470000AF93BF93EF93FF93E0910201F091030108
:104710000995FF91EF91BF91AF919F918F917F91FB
:104720006F915F914F913F912F910F900FBE0F901E
:104730001F9018951F920F920FB60F9211242F936E
:104740003F934F935F936F937F938F939F93AF9319
:10475000BF93EF93FF936091C90481E06827609352
:10476000C9048091890490918A04DC01ED91FC9147
:104770000190F081E02D0995809100019091010157
:104780009093890080938800FF91EF91BF91AF9142
:104790009F918F917F916F915F914F913F912F9159
:1047A0000F900FBE0F901F901895EF92FF920F93EE
:1047B0001F93CF93DF93F82E192FE62E042F81E05D
:1047C000860F880F0E94CD0183E00E94CD01CF2D7E
:1047D000D12FEC0EFD2EF11CCE15DF05B9F007FF31
:1047E00013C0FE0184910E94CD01182F80E00E9429
:1047F000CD01812321968111EFCFDF91CF911F91C0
:104800000F91FF90EF9008958881EDCF81E0F5CF73
:1048100065E375E087E495E00E94560D45E355E0B9
:104820006EEB71E08FE295E00E942A0EEFE2F5E078
:104830008AEC91E09183808384ED91E0918F808F69
:10484000128611861486138616861586108A178698
:10485000128A118A148A138A80E791E097838683EB
:1048600086E796E0978B868B88E0858B08956FE5C9
:1048700075E081E795E00E94560D4FE555E06AED41
:1048800071E08DE595E00E94510EEDE5F5E086EED4
:1048900091E09183808380EF91E0958B848B1682E9
:1048A0001582108617821286118614861386168644
:1048B0001586108A178680E791E09383828386E7C6
:1048C00096E0938B828B80E1818B0895CF92DF926B
:1048D000EF92FF920F931F93CF93DF93CEEBD5E030
:1048E0001092C1051092C00588EEC82E83E0D82E24
:1048F000E12CF12CC092C205D092C305E092C40510
:10490000F092C5058DEB92E09093BF058093BE05B4
:104910008DEC90E09093CB058093CA058CEC90E0F1
:104920009093CD058093CC0588EC90E09093CF05D3
:104930008093CE0589EC90E09093D1058093D005CB
:104940008AEC90E09093D3058093D2058EEC90E0B2
:104950009093D5058093D4051092D7051092D80571
:104960001092D9051092DA051092D1041092D00459
:10497000C092D204D092D304E092D404F092D50431
:104980008FEC92E09093CF048093CE040FEF1FEF53
:104990001093DB040093DA0410921E0510921F0599
:1049A00010922005109221051092220510922305E5
:1049B00010922405109225051092290510922805C1
:1049C000109227051092260565E271E080E091E0E3
:1049D0000E94312C909329058093280581E197E06E
:1049E0000E94610F87E093E09093100780930F0778
:1049F0000E948E018FEE96E00E943A1983EF92E0BA
:104A00009093C7068093C60681E090E09093D0060D
:104A10008093CF061092D1061092D2061092D30640
:104A20001092D4061092D5061092D6061092D70690
:104A30001092D8061092D9061092DA061092DB0670
:104A40001092DC061092E1061092E2061092E30644
:104A50001092E4061092E5061092E6061092E70620
:104A60001092E80683EF96E09093C9068093C806FB
:104A70008FE097E09093CE068093CD061092DD06EE
:104A80001092DE061092DF061092E0068CE0809312
:104A9000CA068AE08093CB068BE08093CC0680E048
:104AA00090E0AAE7B3E48093E9069093EA06A09326
:104AB000EB06B093EC0661E08CE00E94B00461E08C
:104AC0008091CC060E94B00461E08091CB060E94E8
:104AD000B00461E08091CB060E9482041092EE0641
:104AE0001092ED061092790610927806C0927A061E
:104AF000D0927B06E0927C06F0927D0610938306AE
:104B00000093820681EE92E090937706809376067A
:104B10008FE696E00E94610F88E696E00E94610FA2
:104B2000D0935C06C0935B0688E696E090935E06A1
:104B300080935D0685EB9DE0909367068093660603
:104B4000D093AE05C093AD058BE596E09093B0058C
:104B50008093AF0581EB95E00E94610F1092B9053B
:104B60001092B8051092BA051092BB051092BD05BF
:104B70001092BC058091B3059091B405089730F46C
:104B800068E070E081EB95E00E942E1386EC96E0E1
:104B90009093A8058093A7052FEE36E03093AA05E1
:104BA0002093A9052DEA35E03093AC052093AB05A1
:104BB00027EA35E03093A6052093A50590932E05AE
:104BC00080932D0581E097E090932C0580932B0531
:104BD00082E080932A0510929D0510929E05109206
:104BE0009F051092A0051092A1051092A2051092A7
:104BF000A3051092A40510929505109296051092A7
:104C00009705109298051092990510929A051092A6
:104C10009B0510929C0587E080938705109288057C
:104C20001092890510928A0510928B0510928C05BE
:104C300010928D0510928E0510928F05109290059E
:104C400080E395E7A0E0B0E0809391059093920512
:104C5000A0939305B093940566E776E08DE595E023
:104C60000E94372466E776E08FE295E0DF91CF91EE
:104C70001F910F91FF90EF90DF90CF900C9408243C
:104C8000CF93DF93CDB7DEB76B970FB6F894DEBF47
:104C90000FBECDBF789484B5826084BD84B5816039
:104CA00084BD85B5826085BD85B5816085BD8091F7
:104CB0006E00816080936E0010928100809181006F
:104CC0008260809381008091810081608093810067
:104CD000809180008160809380008091910082604B
:104CE00080939100809191008160809391008091E8
:104CF00090008160809390008091C10084608093D7
:104D0000C1008091C10082608093C1008091C10088
:104D100081608093C1008091C30081608093C30053
:104D20008091C00082608093C0008091C200816049
:104D30008093C20080917A00846080937A00809191
:104D40007A00826080937A0080917A0081608093FB
:104D50007A0080917A00806880937A001092CB0468
:104D60001092BA041092BB048091D70081608093A6
:104D7000D70080EA8093D80089B5806189BD89B564
:104D8000826089BD09B400FEFDCF61E070E080E083
:104D900090E00E9406058091D8008F7C806180930E
:104DA000D8008091E000807F8093E0008091E10056
:104DB0008E7E8093E1008DE08093E200559A209AE8
:104DC00086EC96E00E946D0784EA9BE19093EE06E4
:104DD0008093ED0662E085E00E94B00462E086E028
:104DE0000E94B0048091710690917206409730F451
:104DF00060E170E08FE696E00E94C41080916A0640
:104E000090916B06809730F460E270E088E696E05F
:104E10000E942E138FEF9FEF90938306809382065C
:104E20008091280590912905009711F00E94342D5A
:104E300086E796E0909327058093260565E271E06A
:104E400080E091E00E94312C909329058093280501
:104E50008EEB95E00E943D0168EE73E080E090E00B
:104E60000E9406058BE596E00E94FC050E94BD05A8
:104E700060939D0570939E0580939F059093A00578
:104E800088EE93E0A0E0B0E08093A1059093A205A6
:104E9000A093A305B093A40510912A0562E0812F89
:104EA0000E94B0041092CD041092CC04112309F496
:104EB0004BC1113009F017C187EB98E090930901BD
:104EC00080930801809169008F73806480936900EA
:104ED000EB9A62E0809187050E94B00410928805E9
:104EE00010928D0510928E0510928F0510929005EC
:104EF00080E395E7A0E0B0E0809391059093920560
:104F0000A0939305B093940561E08DE00E94B004F6
:104F1000789484E090E00E94982C2DEA35E0DC0142
:104F200013963C932E9312972CE932E02D933C93E9
:104F30009093BD058093BC0532E0E32EF12C40EC4C
:104F4000842E47E2942E49E0A42EB12C26E0222E96
:104F5000312C86EC96E00E943A16109117016AE017
:104F600070E080E090E00E940605112309F465C01E
:104F700086E796E00E94F303181619060CF05DC050
:104F800086E796E00E94B1038C0197FD56C00E940F
:104F9000BD05609395057093960580939705909352
:104FA00098058092990590929A05A0929B05B092DF
:104FB0009C050C8B0D3021F0003471F10A3081F525
:104FC0008091730690917406029730F16FE676E057
:104FD000CE0101960E94EF1ECE0101960E94381C60
:104FE0008091150790911607892B71F06AE38DE582
:104FF00095E00E949A0D61E177E00E94910D63E2D5
:105000000E949A0D0E94760DCE0108960E94BD0E58
:10501000CE0101960E94BD0E8FE696E00E94F40537
:105020008091730690917406409738F4BE016C5ECF
:105030007F4F8FE696E00E942E128091BA0588235A
:1050400009F417C10091AF051091B005F8018081F6
:105050009181DC01ED91FC910084F185E02D0995B1
:10506000181619060CF040C180E2682E93E0C92E94
:10507000D12C77247394F80180819181DC01ED912A
:10508000FC910084F185E02D0995181619060CF0A5
:105090002BC1F80180819181DC01ED91FC910284AA
:1050A000F385E02D099597FDE6CF8B8F8E3719F4A8
:1050B000C8010E94FC05F8018681882321F08B8DB0
:1050C000168286258B8FD80114962D913C911597C9
:1050D0008B8D2115310509F47CC08D3709F042C054
:1050E00016967C92C8CF123071F487EB98E09093BB
:1050F00005018093040180916900837F846080931F
:105100006900E99AE6CE133071F487EB98E090934A
:10511000030180930201809169008C7F81608093FC
:105120006900E89AD6CE173009F0D3CE87EB98E025
:1051300090930B0180930A0180916A008F7C8061BB
:1051400080936A00EE9AC5CE87EB98E090930701B2
:1051500080930601809169008F7C80618093690053
:10516000EA9AB7CE2330310509F447C080F42130E4
:105170003105C1F12230310509F07DCFF8012085DC
:105180003185282B31872087D582C48274CF243083
:10519000310509F43FC02530310509F06CCF179671
:1051A0009C911797890F17968C9317978F3F09F04B
:1051B0005CC015963C922E92149712966D917C913C
:1051C00013971B96ED91FC911C971A968C9109955B
:1051D00052CF8E3709F04FCF81E090E0F8019583F0
:1051E000848349CF18961C92189719968C93199717
:1051F0001596FC92EE9214973ECF1A968C931A97BE
:1052000017968C931797E4E0F0E01596FC93EE93D5
:10521000149731CF12968D919C91FC012481358198
:10522000B9016F5F7F4F26173707E0F4AE01455E87
:105230005F4F0E945613F80187819B8D890F8783EA
:105240000280F381E02DD80118968D919C911997D9
:105250000197248135812817390709F00CCFE5E043
:10526000F0E0D3CF15821482E6CFC8010E94FC057E
:1052700002CF8091AA04811107C083EA94E00E94C2
:10528000610F81E08093AA048091AD059091AE05F5
:10529000DC01ED91FC910084F185E02D0995181653
:1052A000190614F58091AD059091AE05DC01ED91E4
:1052B000FC910284F385E02D099597FD15C0898343
:1052C0008D3009F06BC18091B8059091B905DC0172
:1052D000ED91FC910484F585E02D63EA74E0099575
:1052E00083EA94E00E94F4058091B8059091B90595
:1052F000009739F0DC01ED91FC910680F781E02DFB
:1053000009958091BC059091BD05892B09F454C085
:105310006CE174E08DE595E00E9417148C016091BA
:10532000BC057091BD05DB01ED91FC910480F58118
:10533000E02DCE0101960995BE016F5F7F4FC80138
:105340000E94910D0E94760DCE0101960E94BD0E25
:105350008091B8059091B9050097D9F0DC01ED91E5
:10536000FC910084F185E02D09958091B80590911C
:10537000B9052091BC053091BD058217930749F00E
:10538000009739F0DC01ED91FC910280F381E02D72
:1053900009958091BC059091BD059093B9058093C6
:1053A000B8051092BD051092BC05DC01ED91FC9191
:1053B0000284F385E02D09958DE995E00E94CA05E8
:1053C000882309F4DEC00E94BD0560939D0570939B
:1053D0009E0580939F059093A0058AEF90E0A0E042
:1053E000B0E08093A1059093A205A093A305B0938C
:1053F000A4056091B40481E068276093B4048DE053
:105400000E94820420E030E0A9016091DD067091E5
:10541000DE068091DF069091E0060E94E92E882347
:1054200041F161E274E08DE595E00E9417148C0172
:10543000DC01ED91FC9136970190F081E02D3296E0
:10544000E80FF91F818192818F718062928381833D
:1054500087EA95E00E94830928E030E040E050E0D0
:105460000E941531BA01A901C8010E941D1A0E94AB
:10547000760D85E00E9459048C01DD24D394892B9C
:1054800009F0D12CE091C806F091C90644805580FE
:10549000668077808091B304D816E9F00115110574
:1054A000A1F481E090E00E945B15409107075091C4
:1054B00008076091090770910A07440D551D661D84
:1054C000771D86EC96E00E946606012B21F086ECA3
:1054D00096E00E940E06D092B30486E00E94590422
:1054E0008C01DD24D394892B09F0D12C8091B20456
:1054F000D816F9F001151105B1F48FEF9FEF0E9456
:105500005B158091070790910807A0910907B0915A
:105510000A07B301A201481B590B6A0B7B0B86ECEF
:1055200096E00E946606012B21F086EC96E00E9430
:105530000E06D092B204809187050E9459042091F2
:105540008805892B99F1222341F063E274E08DE50F
:1055500095E00E9417140E94760D10928805109213
:105560008D0510928E0510928F051092900585E999
:1055700095E00E94CA05882321F086EC96E00E94FF
:105580006D0780E090E0892B09F4E3CC0E94EB02E8
:10559000882309F4DECC0E940000D8CCBE016F5FE6
:1055A0007F4F83EA94E00E942E129ECE211146C0C6
:1055B00040909105509092056090930570909405ED
:1055C0000E94BD056093890570938A0580938B05C1
:1055D00090938C0540928D0550928E0560928F05B8
:1055E0007092900581E08093880561E374E08DE519
:1055F00095E00E9417140E94760DAE014F5F5F4F39
:1056000068E374E0CE0144960E943E14BE016C5ED5
:105610007F4FCE0101960E94EF1ECE0101960E949F
:10562000381CCE0108960E94BD0ECE0101960E9444
:10563000BD0ECE0144960E94BD0E99CF89E895E03B
:105640000E94CA058111B4CF92CF8FE295E00E94EB
:10565000F60C8DE595E00E943E0D81EB95E00E94F1
:10566000BD0E88E696E00E94BD0E8FE696E00E9491
:10567000BD0E81E197E00C94BD0EB0E0A0E0E3E444
:10568000FBE20C94372E5C016B017A016115710508
:1056900019F0FB0191838083E114F10449F0C70103
:1056A0000297839728F060E070E0CB019CC05E0118
:1056B000E5012196F5011081812F90E00E94282CB0
:1056C000892BA9F71D3209F056C02196F5011181E9
:1056D00001E0E114F10409F4AEC0F0E1EF16F104C9
:1056E00009F08EC0103341F488818F7D883509F030
:1056F00083C0198122960260E0E1EE2EF12C88240D
:105700008A94982CA82CFFE0BF2E20E060E070E087
:10571000CB0127010F2C000C66087708FE0150ED25
:10572000352E310E39E0331538F43FEB310F3A3175
:10573000A0F549EC342E310E3E141F04BCF52F3F6A
:10574000B9F086169706A806B90670F1A301920172
:105750000E94F92D232D30E050E040E0620F731FCE
:10576000841F951F6217730784079507E8F021E0EF
:1057700021961081D3CF1B3221F4E5012296F50149
:10578000118100E0A6CF78E0E72EF12C88248A94DE
:10579000982CA82C6FE1B62EB8CF3FE9310F3A31E3
:1057A00028F439EA332EC7CF2FEFE2CFC114D1044A
:1057B00031F02223E9F02197F601D183C08300FF65
:1057C00007C090958095709561957F4F8F4F9F4F43
:1057D0002F3F49F482E290E090931F0780931E07C9
:1057E0006FEF7FEFCB01CDB7DEB7E1E10C94532E25
:1057F00001FFE5CF2297E0CF10E3E114F10419F2A5
:105800003AE0E316F104E9F080E1E816F10409F466
:1058100073CFE8E0EE16F10409F4B8CF6FEF7FEF35
:10582000CB0197010F2C000C440B550B0E94092E45
:1058300049015A016ACF103309F456CF9AE0E92E94
:10584000F12C89E9882E982CA82C89E1B82E5DCFFF
:1058500091110C94BD2D803219F089508550C8F7F4
:1058600008950F931F93CF93DF93009759F4611519
:10587000710541F4F0E0E0E0CF01DF91CF911F919D
:105880000F9108958B01EC016EE070E081E090E0F3
:105890000E947C2CFC01892B69F380E8838301152D
:1058A000110571F01387028781E8838380911807BF
:1058B00090911907892B21F4F0931907E0931807A9
:1058C0002097D1F2D187C0878381826083838091C2
:1058D0001A0790911B07892B79F6F0931B07E09329
:1058E0001A0780911C0790911D07892B29F6F093C8
:1058F0001D07E0931C07C0CF0F931F93CF93DF9337
:10590000869F8001879F100D969F100D1124C8015E
:105910000E94982CEC01009729F0A80170E060E04B
:105920000E94C02DCE01DF91CF911F910F9108955C
:105930000F931F93CF93DF938230910510F482E091
:1059400090E0E0912207F091230730E020E0B0E002
:10595000A0E0309799F42115310509F44AC0281BBD
:10596000390B24303105D8F58A819B816115710589
:1059700089F1FB0193838283FE0111C04081518133
:105980000281138148175907E0F04817590799F425
:10599000109761F012960C93129713961C933296FF
:1059A000CF01DF91CF911F910F91089500932207AE
:1059B00010932307F4CF2115310551F042175307F7
:1059C00038F0A901DB019A01BD01DF01F801C1CF67
:1059D000EF01F9CF9093230780932207CDCFFE01EB
:1059E000E20FF31F81939193225031093983288369
:1059F000D7CF2091200730912107232B41F420910C
:105A00001A0130911B013093210720932007209128
:105A10001801309119012115310541F42DB73EB718
:105A200040911C0150911D01241B350BE091200772
:105A3000F0912107E217F307A0F42E1B3F0B281764
:105A4000390778F0AC014E5F5F4F2417350748F0F7
:105A50004E0F5F1F5093210740932007819391932E
:105A60009FCFF0E0E0E09CCFCF93DF930097E9F089
:105A7000FC01329713821282A0912207B091230772
:105A8000ED0130E020E01097A1F420813181820FF8
:105A9000931F20912007309121072817390709F01B
:105AA00061C0F0932107E0932007DF91CF91089523
:105AB000EA01CE17DF07E8F54A815B819E014115B7
:105AC0005105B1F7E901FB83EA8349915991C40F6C
:105AD000D51FEC17FD0761F4808191810296840F38
