:100000000C94D6000C9471230C944A230C94232353
:100010000C94FC220C94FE000C94FE000C94D5224F
:100020000C94FE000C94FE000C94921F0C94012082
:100030000C94FE000C94FE000C94FE000C94FE0048
:100040000C94FE000C9498230C94FE000C94FE007B
:100050000C94FE000C94FE000C94FE000C948B2279
:100060000C94FE000C9459220C9433220C94FE0044
:100070000C94FE000C94FE000C94FE000C94FE0008
:100080000C94FE000C94FE000C94FE000C94FE00F8
:100090000C94FE000C94FE000C94FE000C94FE00E8
:1000A0000C94FE000C94FE000C94FE000000000076
:1000B000240027002A002D00300000000000250049
:1000C00028002B002E003100000000002300260035
:1000D00029002C002F000404040404030405020278
:1000E00002020403020202020606060606060404D1
:1000F0000202020404040802011040804010204063
:10010000804080080204018040201002011080100D
:10011000204040200000000200090F0000030401FD
:10012000000C0000000000000000000000000000C3
:10013000000000080B000202020000090400000198
:10014000020200000524001001052401010104241D
:10015000020605240600010705810310004009047A
:100160000100020A00000007050202400000070526
:1001700083024000000403090412010002EF02019F
:100180004041233680000101020301417264756918
:100190006E6F204C4C430041726475696E6F204C49
:1001A000656F6E6172646F006424342B11241FBE6E
:1001B000CFEFDAE0DEBFCDBF14E0A0E0B1E0ECE5C8
:1001C000F8E602C005900D92A233B107D9F727E0F7
:1001D000A2E3B4E001C01D92A830B207E1F710E03D
:1001E000C5EDD0E004C02197FE010E943F31C43D1F
:1001F000D107C9F70E942A260C9421340C940000E0
:100200001F93CF93DF93182FC0911A05D0911B0530
:100210008A3041F4E881F9810190F081E02D6DE0B0
:10022000CE010995E881F9810190F081E02D612FDF
:10023000CE01099521E030E0019711F430E020E093
:10024000C901DF91CF911F910895CF93DF93C091A2
:100250001A05D0911B05E881F9810084F185E02D14
:10026000CE010995892BB9F3E881F9810284F385E0
:10027000E02DCE01DF91CF910994FC01A089B189D5
:1002800082E08C93A485B5851C92A685B7858FECFA
:100290008C93108EA489B58986E08C93A289B3894A
:1002A0008C9180618C93A289B3898C9188608C93A6
:1002B000A289B3898C9180688C930288F389E02DA0
:1002C00080818F7D80830895FC018091BF04882305
:1002D00011F13FB7F89482E08093E9002091F20099
:1002E000822F90E01816190614F481E090E088231C
:1002F00039F0289844E64093BE044091F1004083D1
:10030000222339F02091F200211103C02BE6209323
:10031000E8003FBF08958FEF9FEF0895109281008E
:100320001092850010928400EFE6F0E080818D7FCE
:1003300080838FEF90E09093890080938800909362
:100340008B0080938A00109280001092BD04089563
:100350002FB7F89483E08093E9009091E800892F0B
:10036000807295FF04C09091F20080E4891B2FBF3A
:1003700008958091B50481110DC082E08093B1048D
:1003800084E08093B2041092B4041092B30481E02C
:100390008093B50481EB94E008954091AB045091B3
:1003A000AC042091A9043091AA0442175307B4F475
:1003B0009091E8009570E1F39091E80092FD19C0EA
:1003C0008093F1008091AB049091AC0401968F73FF
:1003D0009927892B19F48EEF8093E8008091AB0464
:1003E0009091AC0401969093AC048093AB0481E0AF
:1003F000089580E00895DF92EF92FF920F931F938C
:10040000CF93DF93D82E8A01EB017B01E40EF51E1A
:10041000CE15DF0559F0D7FE12C0FE0184910E946F
:10042000CD0121968111F4CF0FEF1FEFC801DF91AD
:10043000CF911F910F91FF90EF90DF9008958881E9
:10044000EECF0F931F93CF93DF931F92CDB7DEB7FD
:1004500082E0898342E450E063E371E080E80E9437
:10046000FB010E94B901DC0112960D911C9101154E
:10047000110589F0D801ED91FC910280F381E02D06
:10048000BE016F5F7F4FC801099597FD04C0F80159
:1004900000851185ECCF89810F90DF91CF911F915D
:1004A0000F910895615030F02091F100FC012083FC
:1004B0000196F8CF289884E68093BE040895DC0165
:1004C000ED91FC910190F081E02D0994AF92BF92E3
:1004D000CF92DF92EF92FF920F931F93CF93DF9310
:1004E0006C017B018B01040F151FEB015E01AE183F
:1004F000BF08C017D10759F06991D601ED91FC9161
:100500000190F081E02DC6010995892B79F7C5018D
:10051000DF91CF911F910F91FF90EF90DF90CF90DF
:10052000BF90AF900895CF93C1E020E030E0A901E3
:10053000FC016789708D818D928D0E94F42E81114E
:1005400001C0C0E08C2FCF910895DC011296ED918F
:10055000FC9164817581868197810895FC01538D9A
:10056000448D252F30E0842F90E0821B930B54178D
:1005700010F0CF96089501970895FC01918D828D1A
:10058000981761F0A28DAE0FBF2FB11D5D968C91B3
:10059000928D9F5F9F73928F90E008958FEF9FEFF2
:1005A0000895FC01918D828D981731F0828DE80FAE
:1005B000F11D858D90E008958FEF9FEF0895FC0168
:1005C000918D228D892F90E0805C9F4F821B910935
:1005D0008F73992708958AEA95E00E94DF0221E04F
:1005E000892B09F420E0822F089580E090E0892B88
:1005F00029F00E94EB0281110C9400000895FC0187
:10060000A48DA80FB92FB11DA35ABF4F2C91848D73
:1006100090E001968F739927848FA689B7892C93D0
:10062000A089B1898C9182748C93938D848D981359
:1006300006C00288F389E02D80818F7D8083089534
:10064000EF92FF920F931F93CF93DF93EC0181E022
:10065000888F9B8D8C8D981319C0E889F9898081CA
:1006600085FF14C09FB7F894EE89FF896083E889FD
:10067000F9898081827480839FBF81E090E0DF915F
:10068000CF911F910F91FF90EF900895F62E0B8D53
:1006900010E00F5F1F4F0F731127E02E8C8D8E110E
:1006A0000CC00FB607FCFACFE889F989808185FF75
:1006B000F5CFCE010E94FF02F1CFEB8DEC0FFD2FA5
:1006C000F11DE35AFF4FF0829FB7F8940B8FEA8930
:1006D000FB8980818062CFCFCF93DF93EC01888D3F
:1006E0008823B9F0AA89BB89E889F9898C9185FDAD
:1006F00003C0808186FD0DC00FB607FCF7CF8C913B
:1007000085FFF2CF808185FFEDCFCE010E94FF02F1
:10071000E9CFDF91CF910895CF93DF931F92CDB7AB
:10072000DEB76983DC01ED91FC910280F381E02D5D
:1007300041E050E0BE016F5F7F4F09950F90DF9160
:10074000CF91089583E08093E9008091F20088239F
:1007500019F08AE38093E80008950E94A80190E0D0
:100760000895CF93DF931F92CDB7DEB7FC01848548
:10077000958597FD08C02FEF3FEF358724870F90B1
:10078000DF91CF910895CE0101960E9464010197F7
:1007900019F4898190E0F3CF8FEF9FEFF0CF0F93A3
:1007A0001F93CF93DF931F92CDB7DEB78C01FC016F
:1007B0008485958597FF0BC0CE0101960E94640148
:1007C000019771F4898190E0F80195878487F80199
:1007D000848595850F90DF91CF911F910F9108959A
:1007E0008FEF9FEFF1CFFC018485958597FD0BC0BE
:1007F0009FB7F89482E08093E9008091F2009FBF58
:1008000090E0019608959FB7F89482E08093E90004
:100810008091F2009FBF90E0089581508F3008F0E2
:1008200047C0E82FF0E0E95EFB4F0C943F31340401
:10083000380426042C0430045804580458043B049B
:100840004104450449044F04580453048091800036
:100850008F77809380000895809180008F7DF9CFFD
:1008600080918000877FF5CF84B58F7784BD089510
:1008700084B58F7DFBCF809190008F77809390001F
:100880000895809190008F7DF9CF80919000877FAF
:10089000F5CF8091C0008F778093C000089580913C
:1008A000C0008F7DF9CF8091C200877F8093C20006
:1008B0000895CF93DF93282F30E0F901EC5EFE4FCF
:1008C0008491F901EB50FF4FD491F901EA52FF4FA7
:1008D000C491CC23A1F081110E940D04EC2FF0E013
:1008E000EE0FFF1FE853FF4FA591B491EC91ED235C
:1008F00081E090E009F480E0DF91CF91089580E0FD
:1009000090E0FACF1F93CF93DF93282F30E0F901C7
:10091000EC5EFE4F8491F901EB50FF4FD491F90149
:10092000EA52FF4FC491CC23A9F0162F81110E94E7
:100930000D04EC2FF0E0EE0FFF1FE654FF4FA591E2
:10094000B4918FB7F894EC91111108C0D095DE23C3
:10095000DC938FBFDF91CF911F910895DE2BF8CFED
:10096000CF93DF9390E0FC01EB50FF4F24918A522C
:100970009F4FFC0184918823D1F090E0880F991F4C
:10098000FC01E455FF4FA591B491FC01E654FF4FE3
:10099000C591D491623071F49FB7F8943C91822F45
:1009A000809583238C93E8812E2B28839FBFDF9132
:1009B000CF9108958FB7F894EC912E2B2C938FBF85
:1009C000F6CF3FB7F8948091930490919404A0914E
:1009D0009504B091960426B5A89B05C02F3F19F049
:1009E0000196A11DB11D3FBFBA2FA92F982F8827AF
:1009F000BC01CD01620F711D811D911D42E0660F8A
:100A0000771F881F991F4A95D1F708958F929F925B
:100A1000AF92BF92CF92DF92EF92FF924B015C01B7
:100A20000E94E1046B017C010E94E1046C197D09C4
:100A30008E099F09683E734081059105A8F321E066
:100A4000821A9108A108B10888EEC80E83E0D81E6A
:100A5000E11CF11C81149104A104B10429F7FF9059
:100A6000EF90DF90CF90BF90AF909F908F900895C0
:100A70008F929F92AF92BF92CF92DF92EF92FF92AE
:100A80000F931F93CF93DF936C017B018A018091B9
:100A90001701882309F45CC08091BF04882309F4FE
:100AA00057C08091AF0480FF05C08091E000826054
:100AB0008093E000E801B12C8AEFA82E93E0892E04
:100AC0002AE3922E209711F4BB20D9F10E94A801AD
:100AD00081110AC0AA94AA20D9F161E070E080E0F7
:100AE00090E00E940605EECF8C171D0611F00CF069
:100AF0008C2F9FB7F8948092E9002091E80025FDA3
:100B000002C09FBFDFCF282F30E0C21BD30BF701FD
:100B1000815020F041914093F100FACFE20EF31E94
:100B2000BB2021F09092E800B12CEBCF8091E8003F
:100B300085FDE7CF9092E800BB24B394209709F39A
:100B4000F3CF5D9884E68093B004101611063CF054
:100B500081E090E0F6019383828310E000E0C80119
:100B6000DF91CF911F910F91FF90EF90DF90CF9089
:100B7000BF90AF909F908F9008952FB7F894609199
:100B80008F047091900480919104909192042FBFF2
:100B900008950895FC0124813581232B11F01582DD
:100BA00014820895CF93DF93EC011D821C828A8109
:100BB0009B810E94CA051E821F82198618868FEFAC
:100BC0008A87DF91CF9108958F929F92AF92BF92C3
:100BD000CF92DF92EF92FF92CF93DF93EC01E88107
:100BE000F9810484F585E02D09958823B9F1E88120
:100BF000F9810284F385E02DCE0109956B017C011A
:100C00006F89788D898D9A8D9B01AC010E94583037
:100C10009B01AC0160E070E0CB010E94872E4B018C
:100C20005C016F8D78A189A19AA190589B01AC01BC
:100C30000E94882E9B01AC01C501B4010E94F92ECF
:100C40000E946B2F072E000C880B990BC60ED71E27
:100C5000E81EF91ECB86DC86ED86FE86DF91CF91FD
:100C6000FF90EF90DF90CF90BF90AF909F908F90CC
:100C70000895CF93DF93EC018F819885DC01ED918E
:100C8000FC910280F381E02D09951F8E18A219A214
:100C90001AA21F8A188E198E1A8E1A86198661E07A
:100CA0008D810E94820460E08C810E948204EFA109
:100CB000F8A5309719F0DF91CF910994DF91CF918A
:100CC0000895FC01818508952F923F924F925F9283
:100CD0006F927F928F929F92AF92BF92CF92DF924C
:100CE000EF92FF920F931F93CF93DF93EC01EA8073
:100CF000FB80F70184819581A681B7818A019B01E0
:100D0000081B190B2A0B3B0BD901C8014B875C87C9
:100D10006D877E8701E010E0181619061A061B067B
:100D200014F010E000E08827B7FD83959927AA27E3
:100D3000BB27081B190B1A870987D7011A96CD9074
:100D4000DC900C9DB0010D9D700D1C9D700D11244B
:100D500090E080E00E94A12F6B8F7C8F8D8F9E8F03
:100D6000B60190E080E00E94A12F4B015C01F701E9
:100D70006085718590E080E00E94A12F20E030E046
:100D80004AE754E40E94F92E9B01AC01C501B4016D
:100D90000E94F92E4B015C01B801110F880B990BD1
:100DA0000E94A32F9B01AC01C501B4010E945830E1
:100DB0006F8F78A389A39AA3D7011C968C9100E02A
:100DC00011E0882311F001E010E060E08C810E94C6
:100DD000820489859A8597FF102F612F8E810E944A
:100DE000820460E08D810E9482040E94BD056F87AD
:100DF000788B898B9A8BCF88D88CE98CFA8C20E001
:100E000030E0A901C701B6010E94533046015701E5
:100E1000181624F0B7FAB094B7F8B0944BA05CA0C1
:100E20006DA07EA00F811885F80120803180A5017A
:100E30009401C301B2010E945330181674F56985FC
:100E40007A85072E000C880B990B0E94A32FA30113
:100E500092010E9458306B8B7C8B8D8B9E8B6F8B9D
:100E6000788F898F9A8FD101ED91FC919E01B3010A
:100E7000A201C801DF91CF911F910F91FF90EF90D8
:100E8000DF90CF90BF90AF909F908F907F906F90AA
:100E90005F904F903F902F900994CB8ADC8AED8A27
:100EA000FE8AD1011496ED91FC91B501A401C8010F
:100EB000DF91CF911F910F91FF90EF90DF90CF9036
:100EC000BF90AF909F908F907F906F905F904F906A
:100ED0003F902F9009941F93CF93DF93EC01162F2F
:100EE0008C810E948204EA81FB8144815581668164
:100EF0007781112391F089859A85092E000CAA0B20
:100F0000BB0B840F951FA61FB71F84839583A683F1
:100F1000B783DF91CF911F9108958B859C85AD8517
:100F2000BE85481759076A077B0799F7E881F98159
:100F30000280F381E02DCE01DF91CF911F910994C2
:100F4000CF92DF92EF92FF92CB01BA019A01AC01EE
:100F50000E94882E6B017C0120E034E244E75BE4D0
:100F60000E94533018161CF120E030E044E753E4AF
:100F7000C701B6010E94F42E87FF06C0C12CD12CF8
:100F800094E7E92E93E4F92EA701960160E074E25C
:100F900084E79BE40E94F92E0E94722F7093010156
:100FA00060930001FF90EF90DF90CF900895C12CE7
:100FB00084E2D82E84E7E82E8BE4F82EE5CF309338
:100FC0007E0420937D041092BD040E94A0078091AE
:100FD0000001909101019093890080938800109204
:100FE0008500109284001092800089E08093810037
:100FF000EFE6F0E080818260808308950C948E019A
:10100000EF92FF920F931F93CF93DF93EC017B013D
:101010008A01E881F9810480F581E02D0995801726
:10102000910758F0A801B701CE01DF91CF911F9130
:101030000F91FF90EF900C94380590E080E0DF91E5
:10104000CF911F910F91FF90EF90089508950E9406
:10105000BD05E2E1F5E0608371838283938380EDD7
:1010600097E0A0E0B0E084839583A683B7830895DA
:101070000895DC011296ED91FC9181E085878281D3
:1010800093810E94D2050E94BD05E2E1F5E06083F4
:1010900071838283938380E69AEEA0E0B0E084833C
:1010A0009583A683B7830895CF93DF93EC018BEFED
:1010B0009AE49983888323E02A832B832DE0EEE151
:1010C000F1E0DE01149601900D922A95E1F7198A5C
:1010D0001A8A1B8A1C8A24EF31E03E8B2D8B40E458
:1010E00059EB66E070E04F8B588F698F7A8F20E65E
:1010F00039E03C8F2B8F9E8F8D8FDF91CF9108959C
:1011000080911E050E945904892B39F58091C004F5
:101110009091C104019709F582E090E09093C10499
:101120008093C0048091210590912205E0911F05D4
:10113000F09120054081518162817381DC0112961A
:10114000ED91FC9113974483558366837783ED91EA
:10115000FC910480F581E02D09940895FC018789B4
:10116000908D009739F0248935892817390728F49C
:10117000308F278B6FEF7FEF08C001976F3F7607A7
:1011800031F4908F878B70E060E0CB010895A089E7
:10119000B189A80FB91F9B01215031092F3F31059B
:1011A00038F4262F3C91321305C0908F878BEDCFFA
:1011B00020E0F8CF278524FFDDCF908F878B6C93BD
:1011C000E4CFCF93DF93EC01E881F9810288F389C2
:1011D000E02D09958F3F980731F02F89388D2F5FCB
:1011E0003F4F388F2F8BDF91CF910895DC015796B9
:1011F0008D919C91589754962D913C9155978217BB
:10120000930740F45096ED91FC91E80FF91F80810F
:1012100090E008958FEF9FEF0895EF92FF92CF93A4
:10122000DF93FC01DB0160E070E0CB01E788F08C2C
:10123000C489D589EC16FD06A8F4621773078407E4
:10124000950784F4C089D189CE0DDF1DC881CD9367
:101250006F5F7F4F8F4F9F4FC789D08D2196D08F63
:10126000C78BE4CFDF91CF91FF90EF900895FC0101
:10127000848995892789308D821B930B089590E08E
:1012800080E00895242FDC01ED91FC910084F1852C
:10129000E02D41E009940895CF92DF92EF92FF9202
:1012A000DC011296ED91FC911397C788D08CE18CEC
:1012B000F28C8D919C91DC01ED91FC910284F3857F
:1012C000E02D099597FF05C06C0D7D1D8E1D9F1D9E
:1012D000F9CFA70196010E942031FF90EF90DF9097
:1012E000CF9008958F929F92AF92BF92CF92DF924C
:1012F000EF92FF926A017B01DC011296ED91FC9165
:101300008788908CA18CB28C0E944C09C61AD70A8F
:10131000E80AF90A09F1C501B40122E030E040E031
:1013200050E00E9420312C153D054E055F0524F448
:10133000C818D908EA08FB0888279927DC01821B0E
:10134000930BA40BB50BC816D906EA06FB0624F4CA
:10135000C80CD91CEA1CFB1CC701B601FF90EF901A
:10136000DF90CF90BF90AF909F908F9008958F9215
:101370009F92AF92BF92CF92DF92EF92FF92CF9364
:10138000DF93EC014A015B010E944C096B017C0177
:10139000B501A401CE010E9472096C0D7D1D8E1D48
:1013A0009F1DDF91CF91FF90EF90DF90CF90BF9086
:1013B000AF909F908F900895CF93DF93EC01E881D9
:1013C000F9810288F389E02D09958F3F980731F064
:1013D0002D813E812F5F3F4F3E832D83DF91CF9143
:1013E00008958FEF9FEF089560E070E0CB010895BE
:1013F000FF920F931F93CF93DF938C01EB016F3F0D
:101400007607B9F0F62EEAE06E1306C06DE0F8013B
:10141000808991890E945F026F2DF80180899189EE
:101420000E945F02CE01DF91CF911F910F91FF903B
:101430000895D0E0C0E0F6CF7F928F929F92AF9256
:10144000BF92CF92DF92EF92FF920F931F93CF93B1
:10145000DF938C0149015A01EB01C12CD12C76019B
:10146000C814D904EA04FB04B4F479908AE0781231
:1014700006C06DE0F801808991890E945F02672DA6
:10148000F801808991890E945F02FFEFCF1ADF0A7D
:10149000EF0AFF0AE5CFC501B401DF91CF911F919B
:1014A0000F91FF90EF90DF90CF90BF90AF909F9003
:1014B0008F907F900895CB010895CF93DF93EC0137
:1014C00088899989DC01ED91FC910084F185E02DFA
:1014D0000995892BA9F388899989DC01ED91FC9103
:1014E0000284F385E02DDF91CF910994CF93DF93B0
:1014F000EC0188899989DC01ED91FC910084F185EA
:10150000E02D0995892BA9F388899989DC01ED9152
:10151000FC910484F585E02DDF91CF9109948F92A1
:101520009F92AF92BF92CF92DF92EF92FF920F9372
:101530001F93CF93DF938C0149015A01EB01C12C1A
:10154000D12C7601D80150968D919C91DC01ED91C2
:10155000FC910284F385E02D09958F3F61F0C8145A
:10156000D904EA04FB043CF48993BFEFCB1ADB0AED
:10157000EB0AFB0AE7CFC701B601DF91CF911F91BC
:101580000F91FF90EF90DF90CF90BF90AF909F9022
:101590008F900895DC0150968D919C91DC01ED9126
:1015A000FC910084F185E02D099490E080E008959D
:1015B00090E080E00895089590E080E008951F9302
:1015C000CF93DF93EC01162F8F8580FF0BC0E8814E
:1015D000F9810084F185E02D20E144E070E060E0D5
:1015E000CE010995EB85FC85812F90E02D853E8508
:1015F000E217F30758F410832B853C852F5F3F4F8C
:101600003C872B87DF91CF911F910895E881F98165
:10161000028CF38DE02DBC01CE01DF91CF911F91A3
:1016200009948F929F92AF92BF92CF92DF92EF92E6
:10163000FF920F931F93CF93DF938C0149015A01BF
:10164000EB01C12CD12C7601C814D904EA04FB04A7
:1016500064F46991C8010E94DF0A019641F08FEF9E
:10166000C81AD80AE80AF80AEFCF75016401C70161
:10167000B601DF91CF911F910F91FF90EF90DF9016
:10168000CF90BF90AF909F908F9008958F929F9230
:10169000AF92BF92EF92FF920F931F93CF93DF937E
:1016A000EC017B0149015A01E881F98136970190EB
:1016B000F081E02DE80FF91F03891489D8011F96E6
:1016C0008C911F9780FF0BC0ED91FC910084F185F8
:1016D000E02D20E144E070E060E0C8010995D80108
:1016E000ED91FC91008CF18DE02DA5019401B701E5
:1016F000C80109956F3F7F4F79F4E881F9813697EA
:101700000190F081E02DEC0FFD1F85812389348944
:10171000232B71F082608583CE01DF91CF911F91E1
:101720000F91FF90EF90BF90AF909F908F90089592
:101730008360F1CFFB012481358150E040E060817E
:1017400071810C94460B0895CF93DF93EC01E881EF
:10175000F98136970190F081E02DE80FF91F838918
:101760009489DC01ED91FC910484F585E02D0995C7
:10177000019659F4E881F98136970190F081E02DC6
:10178000EC0FFD1F858181608583CE01DF91CF91B4
:101790000895CF93DF93EC01E881F98136970190AA
:1017A000F081E02DE80FF91F838994890E94DF0AF8
:1017B000019679F4E881F98136970190F081E02D66
:1017C000EC0FFD1F858123893489232B31F0826042
:1017D0008583CE01DF91CF9108958360F9CF4F9239
:1017E0005F926F927F928F929F92AF92BF92CF92B1
:1017F000DF92EF92FF920F931F93CF93DF93EC0151
:101800008B0129013A01E881F98136970190F08135
:10181000E02D3296E80FF91FC284D384E484F58466
:10182000C418D508E608F708818192818E7099273F
:10183000049791F446015701181419041A041B0463
:10184000B4F1D701C601F7FE03C080E090E0DC01EF
:10185000C81AD90AEA0AFB0AA3019201B801CE010B
:101860000E94460BE881F98136970190F081E02DC6
:10187000EC0FFD1F838194818E709927029749F5A3
:10188000E881F98136970190F081E02D1C141D0448
:101890001E041F04F4F481E0C81AD108E108F1081D
:1018A000EC0FFD1F6089CE010E94C90BE9CF81E0DA
:1018B000881A9108A108B108E881F981369701904A
:1018C000F081E02DEC0FFD1F6089CE010E94C90B55
:1018D000B3CFE881F981369780819181C80FD91FF4
:1018E0001C861D861E861F86DF91CF911F910F914A
:1018F000FF90EF90DF90CF90BF90AF909F908F9030
:101900007F906F905F904F90089521E0DC012C93C1
:10191000DB01ED91FC91369780819181680F791FF1
:10192000FB0181899289009711F00C94A40B089512
:10193000FF920F931F93CF93DF931F92CDB7DEB724
:101940008C01F62EBC01CE0101960E94850C6F2DF4
:10195000C8010E94C90BC8010F90DF91CF911F9160
:101960000F91FF900895DC01ED91FC913697019065
:10197000F081E02DE80FF91F8DEA91E091838083DB
:1019800087EB91E09783868308952DEA31E0FC018F
:101990003183208327EB31E0378326830895FB01D1
:1019A00020813181FC0131832083FB0142815381FD
:1019B00026503109F90120813181820F931FFC01EA
:1019C00051834083089529EC31E0FC013183208369
:1019D00023ED31E0318F208F6DEB71E00C94CF0C53
:1019E000DC01ED91FC91369720813181820F931FAC
:1019F0000C94E30C0895DC01ED91FC913697019075
:101A0000F081E02DE80FF91F89E991E0918380834F
:101A100083EA91E093838283089529E931E0FC0110
:101A20003183208323EA31E0338322830895FB014D
:101A300020813181FC0131832083FB01428153816C
:101A400026503109F90120813181820F931FFC0159
:101A500051834083089525EE31E0FC0131832083DA
:101A60002FEE31E0358B248B69ED71E00C94170D6E
:101A7000DC01ED91FC91369720813181820F931F1B
:101A80000C942B0D0895FC0181E290E094838383F4
:101A900015821682178286E090E0A0E0B0E0808791
:101AA0009187A287B38714861586168617868FE8D6
:101AB00091E09183808380E2808B128A118A748BFB
:101AC000638B158A08950F931F93CF93DF931F9213
:101AD000CDB7DEB78C01BC01CE0101960E94850C0A
:101AE0006AE0C8010E94C90BC8010E94A40BC8018A
:101AF0000F90DF91CF911F910F9108958038C9F019
:101B00008A3811F58091A4059091A505E0919B0577
:101B1000F0919C050280F381E02D0190F081E02D91
:101B2000608170E0DC01ED91FC910088F189E02D8D
:101B300009948091A4059091A505DC01ED91FC919B
:101B40000684F785E02DF4CF0895089508950F9346
:101B50001F93CF93DF934091160550911705609125
:101B6000180570911905452B462B472B79F1EC018F
:101B70000E94BD05009112051091130520911405D6
:101B800030911505601B710B820B930B00911605AC
:101B900010911705209118053091190560177107EC
:101BA0008207930798F0109216051092170510926D
:101BB000180510921905E881F9810488F589E02D4E
:101BC000CE01DF91CF911F910F910994DF91CF91B9
:101BD0001F910F910895CF92DF92EF92FF920F9392
:101BE0001F93FB01DC0100E010E098016A01F12C79
:101BF000E12C0C151D052E053F0538F461916D9300
:101C00000F5F1F4F2F4F3F4FF4CF840F951F1F9132
:101C10000F91FF90EF90DF90CF900895CF93DF93D7
:101C2000EB0188819981A3E2B5E011969C938E9394
:101C30002A813B810697EC01E881F981ED5DFA4F3D
:101C40003183208312961D921D921D921C9215972E
:101C500081E290E09483838389E295E0948B838B87
:101C60001582158ADF91CF910895DB012D913C916A
:101C70001197FC013183208312966D917C9126503F
:101C80003109D901ED91FC91E80FF91F718360834F
:101C900081E290E094838383548B438B1582158A71
:101CA00008950C943F2D0C943F2D0C943F2D0C94D3
:101CB0003F2D0C943F2DCF93DF93EC010E942B0D11
:101CC000CE01DF91CF910C943F2DDC01ED91FC9181
:101CD000369720813181820F931F0C945B0ECF9336
:101CE000DF93EC010E94E30CCE01DF91CF910C94C5
:101CF0003F2DDC01ED91FC91369720813181820FDF
:101D0000931F0C946F0E0C943F2D0C943F2DDC010F
:101D1000ED91FC91369720813181820F931F0C94B5
:101D2000850E0C943F2D0C943F2DDC01ED91FC9120
:101D3000369720813181820F931F0C94930E0C945F
:101D40003F2DFC01808191810C943F2D23E132E0F5
:101D5000FC013183208340960C94A10ECF93DF9336
:101D6000EC010E94A60ECE01DF91CF910C943F2D85
:101D7000CF93DF93EC0181E092E0998388838BE03D
:101D800092E09E8F8D8FCE0102960E94A60E65EF87
:101D900071E0CE01DF91CF910C94170DDC01ED9134
:101DA000FC91369720813181820F931F0C94B80EDD
:101DB000CF93DF93EC010E94B80ECE01DF91CF915B
:101DC0000C943F2DDC01ED91FC91369720813181FF
:101DD000820F931F0C94D80ECF93DF93EC0188E011
:101DE00090E09B838A831D821C820E94A32C99838E
:101DF0008883DF91CF9108950F931F93CF93DF9343
:101E0000EC018C010E5F1F4FB8014D960E94430DEF
:101E1000A80165EF71E0CE010E94350E81E092E0ED
:101E2000998388838BE092E09E8F8D8F1E821D8226
:101E300018861F821A8619861C861B861E861D869A
:101E4000188A1F86198A83E192E09B838A83CE01D8
:101E500042960E94EC0E1A8E198E1C8E1B8E80E10B
:101E6000898BDF91CF911F910F9108950F931F934D
:101E7000CF938C01C62F8091860481112FC08CE0F6
:101E800090E0909382048093810484E090E09093AA
:101E90008404809383048CE090E00E94A32C9093B0
:101EA000800480937F04E7E6F1E0CF0187569140FC
:101EB000A0917F04B0918004209183043091840428
:101EC0008217930740F4A80FB91F109711F0808173
:101ED0008C933196EACF81E080938604E0917F0471
:101EE000F091800480918304909184048E0F9F1F51
:101EF000E817F90758F421912C13FACF80E2C8278C
:101F00006DE7F801808191810E945F026C2FF801DA
:101F100080819181CF911F910F910C945F02AF92BC
:101F2000BF92CF92DF92EF92FF920F931F93CF93C6
:101F3000DF9300D000D000D01F92CDB7DEB78C0168
:101F40006B01DC0118968D919C919E838D83089680
:101F50009C838B830E94A32C9A83898390E080E0EA
:101F60002D813E818217930788F4E981FA81E80F79
:101F7000F91F309749F0D80114962D913C91D90161
:101F8000A80FB91F2C9120830196EACFF601E480B7
:101F9000F580FBE0EF0EF11C6EE7D8018D919C916E
:101FA0000E945F026F2DC8010E94360F6E2DC8017E
:101FB0000E94360F60E0C8010E94360FF801F684D7
:101FC000F394FF20F1F0F6866F2DC8010E94360FC2
:101FD000F801A480B580D80114968D919C91159735
:101FE00018962D913C91820F931FA816B90670F494
:101FF000F501E1905F016E2DC8010E94360FFE0CC5
:10200000EACF81E08687FF24F394DECF60E0C80149
:102010000E94360FD601AD90BC90F601808191816F
:1020200024813581820F931FA816B90648F4D50183
:10203000ED905D016E2DC8010E94360FFE0CEDCFB4
:102040006F2D6095C8010E94360FCE0101960E9447
:10205000A10E27960FB6F894DEBF0FBECDBFDF915D
:10206000CF911F910F91FF90EF90DF90CF90BF9095
:10207000AF900895FC01828193810C948F0FCF93D0
:10208000DF93FC01C281D38184E090E00E94A32C05
:10209000FC01D383C28327E632E031832083988B0F
:1020A0008F87DF91CF910895CF93DF93FC01C28199
:1020B000D38184E090E00E94A32CFC01D383C283EF
:1020C00027E632E031832083988B8F87DF91CF9191
:1020D0000895CF93DF93FC01C281D38184E090E027
:1020E0000E94A32CFC01D383C28327E632E0318314
:1020F0002083988B8F87DF91CF910895CF93DF93C3
:10210000FC01C281D38184E090E00E94A32CFC01F9
:10211000D383C28327E632E031832083988B8F8775
:10212000DF91CF910895CF93DF93FC01C281D381DA
:1021300084E090E00E94A32CFC01D383C28327E6B5
:1021400032E031832083988B8F87DF91CF91089580
:102150000F931F93CF93DF93EC01CB01088119817B
:102160007B836A830E94A32C99838883F801CF0123
:10217000801B910B2C813D818217930750F4A8811D
:10218000B981A80FB91F109711F080818C933196F7
:10219000EECFC801DF91CF911F910F910C943F2D8D
:1021A000EF92FF920F931F93CF93DF93EC018C81FB
:1021B0009D818617970740F57A018B018A819B8163
:1021C0008617970740F4685F7F4F8617970718F4C4
:1021D000CE010E94A8108C819D818017910758F430
:1021E000E881F981E80FF91F309719F0D7012C9198
:1021F00020830196F2CF1D830C83DF91CF911F9135
:102200000F91FF90EF90089568177907B0F77D83DD
:102210006C83F3CFAF92BF92CF92DF92EF92FF9297
:102220000F931F93CF93DF931F92CDB7DEB78C012F
:1022300059016A01AC14BD04D1F1F60181916F011D
:102240008983F801808191817B01E81AF90A648110
:1022500075816F5F7F4FAE014F5F5F4FC8010E9476
:10226000D010F8012481358121503109F801808195
:102270009181E216F30668F4A90141505109FC016D
:10228000E40FF51F6081820F931FFC0160839A01A8
:10229000EDCF29818E0D9F1DFC012083FFEFEF1AEA
:1022A000FF0AF801608171816E0D7F1DC3CF0F9011
:1022B000DF91CF911F910F91FF90EF90DF90CF9022
:1022C000BF90AF900895EF92FF920F931F93CF931B
:1022D000DF931F92CDB7DEB7FC01822F8870922F5B
:1022E00090712871283131F4423009F03FC08FEFEE
:1022F0009FEF23C0413049F58B0124893589201790
:102300003107A8F3882311F0108F078B9923A1F0D0
:102310007F011982AE014F5F5F4FB801CF01409638
:102320000E94D010F701848995892789308D821702
:10233000930710F4908F878BC8010F90DF91CF9196
:102340001F910F91FF90EF900895423089F4048916
:102350001589060F171F911102C010E000E08823B5
:1023600061F20789108D060F171FC7CF413021F288
:1023700004891589F8CFAB01FC01648175816F5F19
:102380007F4F0C94D010EF92FF920F931F93CF9337
:10239000DF931F92CDB7DEB78C017B016F3F7607CD
:1023A00079F1D8011F968C911F9784FF2CC0599604
:1023B0008D919C915A9754962D913C9155978217E7
:1023C0009307B8F06983BE016F5F7F4FC8014096E5
:1023D0000E94BB11F801818D928D0196928F818FA1
:1023E000C7010F90DF91CF911F910F91FF90EF9058
:1023F00008955096ED91FC91E80FF91F6083EACFA4
:10240000F12CE12CEDCFEE24EA94FE2CE9CF0F93D2
:102410001F93CF93DF93EC01CB01088119817B835C
:102420006A830E94A32C99838883F801CF01801BC3
:10243000910B2C813D818217930750F4A881B981BB
:10244000A80FB91F109711F080818C933196EECFB1
:10245000C801DF91CF911F910F910C943F2DEF9206
:10246000FF920F931F93CF93DF93EC018B017A01BF
:102470008A819B818617970740F4685F7F4F861794
:10248000970718F4CE010E9407128C819D81801756
:10249000910758F4E881F981E80FF91F309719F096
:1024A000D7012C9120830196F2CF1D830C83DF91FD
:1024B000CF911F910F91FF90EF900895AF92BF922F
:1024C000CF92DF92EF92FF921F93CF93DF93EC01B5
:1024D0007B016C0184E0C80ED11CC6010E94CA05B4
:1024E00019E01150A9F057018FEFA81AB80A888592
:1024F0009985BC016F5F7F4F8617970730F4A7015E
:10250000C6010E942F127501ECCF19861886FBCFE9
:10251000DF91CF911F91FF90EF90DF90CF90BF9010
:10252000AF900895EF92FF920F931F93CF93DF9395
:102530001F92CDB7DEB78C017B010E94EC0EF70134
:10254000648175811982AE014F5F5F4FC8010E949F
:10255000D010F80144815581F70160817181F80143
:10256000808191810E94EB0D0F90DF91CF911F919F
:102570000F91FF90EF900895EF92FF920F931F93AA
:10258000CF93DF93CDB7DEB7E4970FB6F894DEBFF5
:102590000FBECDBF8C017B0160E1CE0101960E9490
:1025A000FC0EB701695F7F4FCE0101960E949A0B26
:1025B000F70166850E94980CAE014C5C5F4FBE012E
:1025C0006D5E7F4FC8010E949212CE0101960E945B
:1025D000B80EC801E4960FB6F894DEBF0FBECDBFAB
:1025E000DF91CF911F910F91FF90EF900895CF92BF
:1025F000DF92EF92FF920F931F93CF93DF931F927F
:10260000CDB7DEB78C017B016A010E94EC0E8FEF23
:10261000C816D80611F40E944531F70180811816BA
:1026200084F41982AE014F5F5F4FB601C8010E946A
:10263000D010F80144815581B701808191810E94B9
:10264000EB0D0F90DF91CF911F910F91FF90EF90C5
:10265000DF90CF900895AF92BF92CF92DF92EF922A
:10266000FF920F931F93CF93DF931F92CDB7DEB7E7
:102670007C016B01FB0101900020E9F731978F018C
:10268000061B170BFC01A480B5801982B501600FF1
:10269000711FAE014F5F5F4F0E94D010F701808124
:1026A0009181A801B6018A0D9B1D0E94EB0DC70107
:1026B0000F90DF91CF911F910F91FF90EF90DF90DE
:1026C000CF90BF90AF9008950F931F93CF93DF9358
:1026D00000D0CDB7DEB78C0180915704811107C0BF
:1026E00080E594E00E94EC0E81E08093570480E541
:1026F00094E00E94CA056FE173E080E594E00E94D7
:102700002B13D8011696ED91FC91179714968D9185
:102710009C9115979C012F5F3F4F15963C932E93EC
:102720001497E80FF91F80818A83882309F44DC02C
:102730008C3209F042C064E670E080E090E00E94D4
:1027400006058DE08983BE016F5F7F4F80E594E0D1
:102750000E94BB11D8011296ED91FC91808191816C
:10276000409154045091550460915004709151046B
:10277000DC01ED91FC910280F381E02D09950E942E
:10278000BD05609312057093130580931405909313
:10279000150588E893E1A0E0B0E0809316059093DA
:1027A0001705A0931805B093190581E00F900F90BD
:1027B000DF91CF911F910F910895BE016E5F7F4F02
:1027C00080E594E00E94BB119CCF80E0EFCF0C9499
:1027D0006413EF92FF920F931F93CF93DF931F9297
:1027E000CDB7DEB78C017B01BC01CE0101960E9402
:1027F000850CF70101900020E9F73197EE19FF09E8
:102800009F0150E040E0B701C8010E94EF0BC801F2
:102810000F90DF91CF911F910F91FF90EF9008954E
:10282000AF92BF92CF92DF92EF92FF920F931F93DE
:10283000CF93DF931F92CDB7DEB77C016B010E946F
:10284000EC0EF60101900020E9F731978F010C1989
:102850001D09F701A480B5801982B8016A0D7B1D9E
:10286000AE014F5F5F4FC7010E94D010F70180811A
:102870009181A801B6018A0D9B1D0E94EB0D0F905E
:10288000DF91CF911F910F91FF90EF90DF90CF904C
:10289000BF90AF9008950F931F93CF93DF93CDB761
:1028A000DEB728970FB6F894DEBF0FBECDBF8C0100
:1028B000DC011296ED91FC911586808191810E9438
:1028C0003D01F80102811381AE01485F5F4F6CE06A
:1028D00073E0CE0101960E941014D8018D919C9155
:1028E0004D815E8169817A81DC01ED91FC910280EC
:1028F000F381E02D0995CE0101960E94A10E0E9460
:10290000BD05E2E1F5E0608371838283938380EB10
:1029100094E0A0E0B0E084839583A683B7832896F3
:102920000FB6F894DEBF0FBECDBFDF91CF911F91E0
:102930000F9108950F931F93CF93DF931F92CDB7FD
:10294000DEB78C018091660481110CC0AE014F5F2F
:102950005F4F60E173E08FE594E00E94101481E026
:10296000809366046FE574E0F801828193810E9490
:102970008F0F0E94BD05609312057093130580931D
:1029800014059093150588E692E4A0E0B0E08093EA
:10299000160590931705A0931805B09319050F908D
:1029A000DF91CF911F910F9108950F931F93CF93B4
:1029B000DF931F92CDB7DEB78C01AE014F5F5F4F43
:1029C00064E173E00E941014C8010F90DF91CF9171
:1029D0001F910F9108950F931F93CF93DF931F9231
:1029E000CDB7DEB78C01AE014F5F5F4F6BE173E097
:1029F0000E941014C8010F90DF91CF911F910F9189
:102A000008950F931F93CF93DF931F92CDB7DEB737
:102A10008C01AE014F5F5F4F62E273E00E941014C1
:102A2000C8010F90DF91CF911F910F9108950F93DF
:102A30001F93CF93DF931F92CDB7DEB78C01AE010A
:102A40004F5F5F4F69E273E00E941014C8010F905E
:102A5000DF91CF911F910F9108950F931F93CF9303
:102A6000DF931F92CDB7DEB78C01809148048111AE
:102A70000CC0AE014F5F5F4F60E373E081E494E010
:102A80000E94101481E080934804809139048111E0
:102A90000CC0AE014F5F5F4F66E373E082E394E0EA
:102AA0000E94101481E0809339046AE30F3F1F4FA6
:102AB00099F481E595E00E94980C62E374E00E942D
:102AC0009A0B63E20E94980C0E94630D0F90DF91B5
:102AD000CF911F910F91089581E595E00E94980C88
:102AE00061E474E0ECCF8F929F92AF92BF92CF924D
:102AF000DF92EF92FF924B015C01809193059091E0
:102B00009405DC01ED91FC910284F385E02D09959B
:102B100075016401C61AD70AE80AF90AB701A601C5
:102B2000F7FE07C044275527BA014C195D096E0905
:102B30007F09E0919505F0919605838D948D092E7E
:102B4000000CAA0BBB0B481759076A077B070CF44C
:102B500044C01092C1041092C0048091210590914C
:102B60002205DC01ED91FC910484F585E02D0995A9
:102B7000882359F08091210590912205DC01ED9187
:102B8000FC910480F581E02D099581E090E01C1412
:102B90001D041E041F0414F090E080E0CC24F7FC18
:102BA000C394DD24EE24FF248C199D090E942D1569
:102BB0008091930590919405DC01ED91FC91008446
:102BC000F185E02DB501A401FF90EF90DF90CF904B
:102BD000BF90AF909F908F900994FF90EF90DF90FF
:102BE000CF90BF90AF909F908F9008950F931F93B9
:102BF000CF93DF931F92CDB7DEB78C01AE014F5F4D
:102C00005F4F6BE373E00E941014C8010F90DF91D7
:102C1000CF911F910F9108952F923F924F925F9203
:102C20006F927F928F929F92AF92BF92CF92DF92DC
:102C3000EF92FF920F931F93CF93DF9300D000D0BA
:102C4000CDB7DEB79C838B83DC01ED91FC910484CE
:102C5000F585E02D0995882309F4FFC00E94BD0584
:102C6000EB81FC81878C90A0A1A0B2A00785108980
:102C700021893289601B710B820B930B0E94A12F5B
:102C800020E030E04AE754E40E94F92EA5019401C7
:102C90000E945830AB81BC8153962D913D914D914E
:102CA0005C9156970E94882E6B017C01EB81FC8120
:102CB0000280F381E02DFA83E983448055806680A9
:102CC0007780AB81BC8193963C90939794962C909F
:102CD000949795960C91959796961C9196971B961E
:102CE0006D917D918D919C911E976419750986094E
:102CF000970997FF07C090958095709561957F4FD4
:102D00008F4F9F4F0E94A12F2B013C01C501B401A1
:102D10009F779B01AC010E94882E9B01AC01C301EF
:102D2000B2010E9458304B015C01232D322DA801C5
:102D3000632D722DC8010E9458309B01AC01C50162
:102D4000B4010E94882E0E94CB304B015C01EB81C4
:102D5000FC8161857285072E000C880B990B0E94FF
:102D6000A32F2B013C01AC019B01C501B4010E94C2
:102D700058304B015C0120E030E0A901C701B601E9
:102D80000E945330181624F0F7FAF094F7F8F094F4
:102D900020E030E0A901C501B4010E9453301816AB
:102DA00024F0B7FAB094B7F8B094A5019401C70124
:102DB000B6010E94F42E87FD02C075016401232D27
:102DC000322DA801C701B6010E94F42E87FD42C032
:102DD000A981BA811A966D917C9190E080E00E9461
:102DE000A12F5B018C019B01AC01C701B6010E94C0
:102DF0005330181614F465017801A3019201C7013C
:102E0000B6010E945830EB81FC81678B708F818FF7
:102E1000928F87819085DC01ED91FC910480F58192
:102E2000E02DB701A6010F900F900F900F90DF914A
:102E3000CF911F910F91FF90EF90DF90CF90BF90B7
:102E4000AF909F908F907F906F905F904F903F904A
:102E50002F900994C32CD22CCFCF0F900F900F90AE
:102E60000F90DF91CF911F910F91FF90EF90DF9026
:102E7000CF90BF90AF909F908F907F906F905F901A
:102E80004F903F902F900895AF92BF92CF92DF92D4
:102E9000EF92FF920F931F93CF93DF93CDB7DEB7DF
:102EA00028970FB6F894DEBF0FBECDBF5C016B0153
:102EB000AE01485F5F4F61E473E0CE0101960E946E
:102EC0001014D6011496ED90FC900D811E81A7017F
:102ED0000E151F0508F4A80169817A81F601808129
:102EE00091810E945C31DD24D394892B39F4E01662
:102EF000F10608F0D12C0E151F0588F1CE010196C0
:102F00000E94A10ED1101AC0D50112960D911C91EC
:102F100088E090E00E94A32CFC011383028381E8E7
:102F200092E09183808384E493E097838683158283
:102F30001482D8015096FC93EE931F9728960FB6F3
:102F4000F894DEBF0FBECDBFDF91CF911F910F91DF
:102F5000FF90EF90DF90CF90BF90AF900895DD2469
:102F6000D394CCCF0F931F93CF93DF93EB010990B2
:102F70000020E9F72197C61BD70BFC0104811581BE
:102F8000AE010C171D0708F4A801FC018081918196
:102F90000E945C31892B11F080E004C081E0C017F1
:102FA000D107D1F7DF91CF911F910F910895AF9283
:102FB000BF92CF92DF92EF92FF920F931F93CF9326
:102FC000DF9300D000D000D01F92CDB7DEB75C01F8
:102FD0007B018091750481110CC0AE014F5F5F4F82
:102FE0006CE873E08EE694E00E94101481E0809318
:102FF0007504F70100811181C480D580C00ED11EF7
:1030000088E090E09C838B831E821D820E94A32C0B
:103010009A838983CE0101960E94CA05A801465F62
:103020005F4F69817A819601CE0101960E940A1153
:103030006CE873E0CE0101960E94B217882371F10B
:10304000F70160817181F501828193810E945E1296
:10305000F5010281138184E090E00E94A32CFC0121
:10306000138302832DE432E031832083F801908BB7
:103070008787CE0101960E94A10E27960FB6F8947D
:10308000DEBF0FBECDBFDF91CF911F910F91FF909B
:10309000EF90DF90CF90BF90AF9008950D811E818B
:1030A0000115110531F3E981FA8180818A3329F014
:1030B0006AE381E595E00E94980CBE016F5F7F4F47
:1030C00081E595E00E949A0BE981FA81E00FF11FFA
:1030D00031978081833229F063E281E595E00E9497
:1030E000980C81E595E00E94630DC3CFCF93DF93E9
:1030F000EC01CB0161E473E00E94B2178823C1F0B8
:10310000CE010E946413811110C00A80DB81C02DA2
:1031100084E090E00E94A32CFC01D383C28323E3CC
:1031200032E031832083988B8F87DF91CF91089590
:103130000A80DB81C02D84E090E00E94A32CFC017A
:10314000D383C28327E632E0ECCFAF92BF92CF9217
:10315000DF92EF92FF920F931F93CF93DF9300D0F4
:1031600000D000D01F92CDB7DEB75C017B01FB0120
:1031700000811181C480D580C00ED11E88E090E00E
:103180009C838B831E821D820E94A32C9A83898339
:10319000CE0101960E94CA05A801465F5F4F698172
:1031A0007A819601CE0101960E940A116CE873E0C3
:1031B000CE0101960E94B2178823C9F0F701608101
:1031C0007181F501828193810E945E12F501028175
:1031D000138184E090E00E94A32CFC0113830283FE
:1031E0002DE432E031832083F801908B8787CE0174
:1031F00001960E94A10E27960FB6F894DEBF0FBE6F
:10320000CDBFDF91CF911F910F91FF90EF90DF9095
:10321000CF90BF90AF9008950F931F93CF93DF93FC
:10322000CDB7DEB7EE970FB6F894DEBF0FBECDBFB9
:103230008C01CE0101960E945408CE0180960E9416
:1032400054084FE150E070E060E0CE0180960E94AB
:10325000D22D88A199A18B3F9A4429F48DAD9EADC2
:103260008B3F9A44A1F08FE1FE013196D801019085
:103270000D928A95E1F7C801EE960FB6F894DEBF7D
:103280000FBECDBFDF91CF911F910F9108958AA1FD
:10329000833049F78FE1FE01B096E8CF2F923F923D
:1032A0004F925F926F927F928F929F92AF92BF9256
:1032B000CF92DF92EF92FF920F931F93CF93DF9302
:1032C000CDB7DEB72C970FB6F894DEBF0FBECDBFDB
:1032D0006C0129013A01FC01A18CB28C9E01265F90
:1032E0003F4FA201CE0101960E94F712F601E48839
:1032F000F588EA14FB0410F40E94453117012A18DE
:103300003B0882012414350408F481018D809E80DD
:10331000E01AF10AC40180959095E816F90660F765
:10332000E80CF91CC60140969C878B870815190587
:1033300038F41886AE01485F5F4FB7010E94D01085
:10334000F60180899189A101401B510BB501600FE5
:10335000711F680F791F9501280D391D820F931F6A
:103360000E944A3169817A81F60180899189A4019C
:103370008A0D9B1D0E94EB0D1986AE01475F5F4FC2
:10338000B7018B859C850E94D010CE0101960E94CA
:10339000A10EF601818D928D840D951D928F818FE6
:1033A000C301B2012C960FB6F894DEBF0FBECDBF9D
:1033B000DF91CF911F910F91FF90EF90DF90CF9011
:1033C000BF90AF909F908F907F906F905F904F9045
:1033D0003F902F900895CF92DF92EF92FF920F933C
:1033E0001F93CF93DF93CDB7DEB765970FB6F894F1
:1033F000DEBF0FBECDBF8C01F42EE52ED62EC72E1C
:10340000BC01CE0145960E94850CD801ED91FC913E
:1034100036970190F081E02DE00FF11F83819481B8
:1034200085FD5BC086FF42C092FF5AC087E993E0EA
:10343000CF92DF92EF92FF929F938F931F9284E13E
:103440008F939E012F5F3F4F79013F932F930E94EF
:103450006A319C01990F440B550BB701C8010E94BA
:10346000EF0BD801ED91FC9136970190F081E02DA2
:10347000E00FF11F838194810FB6F894DEBF0FBE79
:10348000CDBF96FF03C0C8010E94A40BC80165967A
:103490000FB6F894DEBF0FBECDBFDF91CF911F9165
:1034A0000F91FF90EF90DF90CF90089587FF1BC0A2
:1034B0009C012227307292FF08C080EA93E0232B00
:1034C00009F0B6CF85EA93E0B3CF8AEA93E0232BE5
:1034D00009F0AECF8EEA93E0ABCF83E993E0A8CFBB
:1034E0008CE993E0A5CF90E080E0A2CFCF92DF926D
:1034F000EF92FF920F931F93CF93DF93CDB7DEB779
:10350000EB970FB6F894DEBF0FBECDBF8091C0041D
:103510009091C104892B39F08091C0049091C1042D
:10352000049709F0CFC060E1CE0101960E94FC0E25
:10353000E981FA8136970190F081E02D329681E0A1
:1035400090E08C0F9D1FE80FF91F818192818F7190
:1035500080629283818362EB73E0CE0101960E94C8
:10356000E9138C0183E995E00E944C0928E030E0E2
:1035700040E050E00E942031BA01A901C8010E9438
:10358000EB196CE20E94980C8C01E090C004F09062
:10359000C104BC01CE01C4960E94850CD801ED91F6
:1035A000FC9136970190F081E02DE00FF11F8381AF
:1035B00084FF97C024E030E040E050E068EB73E027
:1035C000B4E0EB16F10431F025E030E040E050E0EB
:1035D0006DEB73E0C8010E94EF0BD801ED91FC91F7
:1035E00036970190F081E02DE00FF11F83819481E7
:1035F00096FF03C0C8010E94A40B6CE2C8010E94A0
:10360000980C8C01E0919505F09196056789708D75
:10361000818D928D28E0C22ED12CE12CF12CA701B6
:1036200096010E942031BA01A901C8010E94EB193C
:103630006CE20E94980C8C01E0919505F091960542
:103640006189728983899489A70196010E9420313A
:10365000BA01A901C8010E94EB196CE20E94980C02
:103660008C01E0919505F0919605638D748D072E80
:10367000000C880B990BA70196010E942031BA011A
:10368000A901C8010E94EB1963E20E94980CAE01E7
:10369000455C5F4FBE016D5E7F4FCE01C4960E94B8
:1036A0009212BE016C5C7F4F81E595E00E949A0BFF
:1036B0000E94630DCE01C4960E94A10ECE01019618
:1036C0000E94B80EEB960FB6F894DEBF0FBECDBFCA
:1036D000DF91CF911F910F91FF90EF90DF90CF90EE
:1036E000089521E030E040E050E063EC73E084E0D6
:1036F000E816F10409F46ECF6CED73E06BCF83E94B
:1037000095E00E944C096093E3067093E406809371
:10371000E5069093E6068091C0049091C10403975A
:1037200041F484E090E09093C1048093C0040C9431
:10373000761A8091C0049091C104029711F583E03C
:1037400090E09093C1048093C004E0911F05F09134
:103750002005408151816281738180919105909112
:1037600092050E94B709AB01BC018091210590919F
:103770002205DC01ED91FC910084F185E02D099595
:10378000D6CF1092C1041092C004D1CF8F929F92D5
:10379000AF92BF92EF92FF920F931F93CF93DF935D
:1037A000CDB7DEB7E4970FB6F894DEBF0FBECDBF3E
:1037B0008C017B0149015A0160E1CE0101960E9412
:1037C000FC0EB701695F7F4FCE0101960E949A0BF4
:1037D000F70166850E94980CB501A4010E94EB19BF
:1037E000AE014C5C5F4FBE016D5E7F4FC8010E9411
:1037F0009212CE0101960E94B80EC801E4960FB64F
:10380000F894DEBF0FBECDBFDF91CF911F910F9116
:10381000FF90EF90BF90AF909F908F9008954F9240
:103820005F926F927F92AF92BF92CF92DF92EF92B0
:10383000FF920F931F93CF93DF93CDB7DEB7EF9730
:103840000FB6F894DEBF0FBECDBF7C018B01DB014C
:103850001E968C918335C1F48091970590919805BF
:103860000E948F0FB801CE0101960E94BC12CE01BA
:1038700001960E94A10EAE014F5F5F4F65E274E0BA
:10388000C7010E94101419C08235F1F56B01B7E031
:10389000CB0ED11C65EC73E0C6010E94B2178823E1
:1038A00011F1E0919505F09196052485358550E05C
:1038B00040E0B801C7010E94C61BC701EF960FB6D2
:1038C000F894DEBF0FBECDBFDF91CF911F910F9156
:1038D000FF90EF90DF90CF90BF90AF907F906F9070
:1038E0005F904F90089568EC73E0C6010E94B21794
:1038F0008823F1F0F80187859089A189B2898436FF
:103900009105A105B10534F4AE014F5F5F4F6BEC3B
:1039100073E0B6CFE0919305F09194050280F381B6
:10392000E02D91878087B801C7010E94BC12C5CFE6
:103930006FEC73E0C6010E94B217882389F0E09112
:103940009505F0919605638D748D072E000C880BFC
:10395000990B28E030E040E050E00E942031A9CFF0
:1039600062ED73E0C6010E94B2178823D1F0F8011E
:1039700087859089A189B28923E0880F991FAA1FA2
:10398000BB1F2A95D1F7813DFFE29F07A105B10535
:1039900008F0BACFE0919505F0919605948F838F4A
:1039A000C2CF65ED73E0C6010E94B2178823F1F023
:1039B000CE0101960E94EC0E65ED73E0CE010196FA
:1039C0000E942B1368ED73E0CE0101960E942B1329
:1039D000AE01405E5F4FBE016F5F7F4FC7010E9427
:1039E0009212CE0101960E94A10E67CF6EED73E098
:1039F000C6010E94B217882361F1E0919505F0910C
:103A000096056789708D818D928D0E94A32F20E08D
:103A100030E044EB53E40E94F92E2B013C01D80125
:103A20001F966D917D918D919C9152970E94A32F2D
:103A30009B01AC01C301B2010E9458300E94722F59
:103A4000AB01BC0183E995E00E94B7090E947315A0
:103A50006ACF61EE73E0C6010E94B2178823B9F104
:103A6000E0919505F09196054189528963897489A1
:103A700083E995E00E9472098091C0049091C1048D
:103A8000892B39F08091C0049091C104049709F00A
:103A90004ACFE0911F05F09120054681578160854E
:103AA0007185440F551F661F771F81E090E090934A
:103AB000C1048093C0048091210590912205DC010E
:103AC000ED91FC910084F185E02D09952CCF64EEF9
:103AD00073E0C6010E94B217882369F0F801478598
:103AE000508961897289F3E0440F551F661F771F63
:103AF000FA95D1F7A7CF67EE73E0C6010E94B2171F
:103B0000882349F0E0919505F091960561897289C5
:103B1000838994891ECF6AEE73E0C6010E94B217B2
:103B2000882329F1D8011F964D915D916D917C916B
:103B30005297DB01CA01E3E0880F991FAA1FBB1F40
:103B4000EA95D1F774FDE0CEE0919505F0919605E8
:103B50004789508D618D728D481759076A077B0719
:103B60000CF4D2CE818B928BA38BB48BDCCE6DEE1A
:103B700073E0C6010E94B217882361F0809193051B
:103B800090919405DC01ED91FC910280F381E02D90
:103B90000995C9CE60EF73E0C6010E94B217882371
:103BA00061F08091930590919405DC01ED91FC9179
:103BB0000284F385E02D0995CCCE63EF73E0C60156
:103BC0000E94B2178823C1F0F80187859089A189E6
:103BD000B28953E0880F991FAA1FBB1F5A95D1F7CE
:103BE000E0919305F09194050280F381E02D8483A8
:103BF0009583A683B78397CE66EF73E0C6010E94D4
:103C0000B217882349F0E0919505F09196056789F0
:103C1000708D818D928D9DCE69EF73E0C6010E94FB
:103C2000B2178823B1F02091950530919605F801DF
:103C300087859089A189B28943E0880F991FAA1FBF
:103C4000BB1F4A95D1F7F901878B908FA18FB28F57
:103C50006ACE6CEF73E0C6010E94B217882319F098
:103C60000E94761A08CE6FEF73E0C6010E94B21769
:103C7000882399F0E0919305F09194050280F381F7
:103C8000E02D2285338550E040E093E0559547953F
:103C9000379527959A95D1F70CCE62E074E0C6016E
:103CA0000E94B217882321F1D8011F964D905D9094
:103CB0006D907C90529783E0440C551C661C771CD9
:103CC0008A95D1F7C0909305D0909405F60163A131
:103CD00074A185A196A10E94722F4616570608F47A
:103CE00013CED6011296ED91FC91538642861BCEDF
:103CF00065E074E0C6010E94B2178823B9F0CE01D6
:103D000001960E94540880919505909196052FE1A7
:103D1000FE013196DC0101900D922A95E1F74FE109
:103D200050E070E060E00E94E22DFDCD68E074E0BC
:103D3000C6010E94B217882389F0C0909505D090E3
:103D40009605CE0181960E940C198FE1FE01B19675
:103D5000D60101900D928A95E1F7E5CD6BE074E014
:103D6000C6010E94B217882349F04FE150E070E08D
:103D700060E08091950590919605D5CF6EE074E056
:103D8000C6010E94B217882309F4BECDF0E0E0E03E
:103D9000099593CDCF92DF92EF92FF920F931F93ED
:103DA000CF93DF93CDB7DEB76C970FB6F894DEBF35
:103DB0000FBECDBF7C018B01DB011496CD90DC9052
:103DC000B2E0CB16D104B8F4AE014F5F5F4F6BEC9D
:103DD00073E00E941014C7016C960FB6F894DEBF12
:103DE0000FBECDBFDF91CF911F910F91FF90EF904C
:103DF000DF90CF900895CE0101960E94EC0ECE0187
:103E000008960E94EC0ECE0101960E94CA05F801A8
:103E1000648175811C8EAE01445E5F4FCE010196B8
:103E20000E94D010D80114964D915C9115976D9118
:103E30007C9189819A810E94EB0D188A198A1A8ACD
:103E40001B8AF801608171816F5F7F4FCE010896F8
:103E50000E94BB11F2E0CF16D10489F480E38F8772
:103E6000BE016F5F7F4FC7010E940F1CCE010896F5
:103E70000E94A10ECE0101960E94A10EACCFD801E6
:103E80006D917C916E5F7F4FCE0108960E94BB11B1
:103E9000B3E0CB16D10411F3D801ED91FC918381ED
:103EA0008F87B6E0CB16D10440F184818C3229F59E
:103EB000D80114964D915C914530510510F40E9443
:103EC000453145505109BF016B5F7F4F9E01255E13
:103ED0003F4FCE0144960E94F7124AE050E070E056
:103EE00060E08C899D890E94482B688B798B8A8B36
:103EF0009B8BCE0144960E94A10EBE016F5F7F4F47
:103F0000CE0144960E940F1CAE01455E5F4FBE017C
:103F10006C5E7F4FC7010E949212CE0144960E94B0
:103F2000A10EA4CF1F920F920FB60F9211248F9360
:103F30009F938091E1009091E100937F9093E10045
:103F400083FF0FC01092E90091E09093EB00109274
:103F5000EC0092E39093ED001092BF0498E09093F0
:103F6000F00082FF22C093E09093E9009091F2006C
:103F7000992319F09AE39093E8009091B004992363
:103F800041F09091B00491509093B004911101C010
:103F90005D9A9091BE04992341F09091BE04915096
:103FA0009093BE04911101C0289A84FF18C080919B
:103FB000E2008E7E81608093E2008091E1008F7E3E
:103FC0008093E1008091AF048E7E80618093AF0486
:103FD0009F918F910F900FBE0F901F90189580FFAB
:103FE000F7CF8091E2008E7E80618093E200809125
:103FF000E1008E7E8093E1008091AF048E7E81602F
:10400000E5CF1F920F920FB60F921124CF92DF923D
:10401000EF92FF920F931F932F933F934F935F93D2
:104020006F937F938F939F93AF93BF93EF93FF9380
:10403000CF93DF93CDB7DEB76C97DEBFCDBF1092C5
:10404000E9008091E80083FF25C068E0CE01459635
:104050000E94520282EF8093E8008D8987FF39C069
:104060009091E80090FFFCCF982F907609F034C132
:104070009E894F89588D2F89F88C911131C08038D5
:1040800061F58091AE048093F1001092F1008EEF03
:104090008093E8006C960FB6F894DEBF0FBECDBFDC
:1040A000DF91CF91FF91EF91BF91AF919F918F9150
:1040B0007F916F915F914F913F912F911F910F9140
:1040C000FF90EF90DF90CF900F900FBE0F901F905A
:1040D00018959EEF9093E800C7CF1092F100D5CFCE
:1040E000913059F48111D3CF4130510581F680913F
:1040F000AE048D7F8093AE04CACF933049F4811112
:10410000C6CF4130510519F68091AE048260F2CFDE
:10411000953041F48091E80080FFFCCF2068209327
:10412000E300B5CF963009F0A9C00B8D1C8D22E0BD
:104130001092E9001092AC041092AB04F2122EC05F
:104140001092AA041092A9040E9421021F8299E0F1
:104150009983FA8291E09E8390EA98879AEF9987F3
:104160002091AB043091AC04275F3F4F3C832B83FD
:104170008D831092E9001092AC041092AB0410935E
:10418000AA040093A90449E050E0BE016F5F7F4F8D
:1041900080E00E94FB010E94210279CF1093AA04C3
:1041A0000093A9040E94B901DC0112960D911C91A3
:1041B0000115110509F451C1D801ED91FC9104805C
:1041C000F581E02DBE016B5E7F4FC8010995009718
:1041D00009F03EC1F80100851185EACFF3E0FF1236
:1041E0000EC08F89882309F440C0823061F440E812
:1041F00060E187E991E00E94D323811148CF81E2F9
:104200008093EB0047CF813029F440E86BE08BE8E6
:1042100091E0F1CF833099F70E94B901DC01129649
:10422000ED90FC908E010F5F1F4F6801E114F104C7
:1042300079F0D701ED91FC910680F781E02DB8016E
:10424000C7010995080F111DF701E084F184EECF35
:10425000D8011C92F60101900020E9F73197BF01C7
:104260006C197D0940E0C601C6CF65E771E0FB012E
:10427000449150E080E80E94FB0109CF973009F497
:10428000BECF983021F481E08093F10000CF9930C7
:1042900009F0FDCE837009F0B2CFE2EBF2E081E0ED
:1042A00031E096E32191222371F08093E90030936D
:1042B000EB00DF0111972C912093EC009093ED001F
:1042C0008F5F873079F78EE78093EA001092EA00DB
:1042D0008F898093BF04DBCE8B8D9C8D1092E9007B
:1042E0001092AC041092AB049093AA048093A9049A
:1042F000898D811192C08E899D89913A49F48132CC
:1043000009F07DCF47E050E060E171E080E0B3CF9D
:10431000913209F074CF833269F48F89988DB0E0BF
:10432000A0E080930C0190930D01A0930E01B09337
:104330000F01ADCE803269F48091E80082FFFCCF9E
:1043400067E080E191E00E9452028BEF8093E800E9
:104350009ECE823209F09BCE8F8980931701EEEFBB
:10436000FFE7859194918B3F9C4D51F1E0E0F8E09F
:104370008091100190911101A0911201B09113014F
:10438000803B9440A105B105F1F48091170180FDB7
:104390001AC0EE3F8AE0F80789F587E797E791832F
:1043A0008083809160008093AD0488E19BE00FB62C
:1043B000F894A895809360000FBE9093600067CE3C
:1043C000EEEFFAE0D5CF808191818737974709F0EA
:1043D0005ECEA89580916000886180936000809196
:1043E000AD0480936000EE3F2AE0F20789F08091EF
:1043F000FE0A9091FF0A9183808349CE808191814A
:104400008737980751F29093FF0A8093FE0AC5CF31
:104410001092FF0A1092FE0A3ACE0E94B901DC0106
:1044200012960D911C910115110509F4E8CED801E1
:10443000ED91FC910190F081E02DBE016B5E7F4F0C
:10444000C8010995811123CEF80100851185EBCFB4
:10445000181619060CF41BCED2CEF1E0FF12BECE18
:1044600069E771E004CF1F920F920FB60F921124EB
:104470002F933F934F935F936F937F938F939F936C
:10448000AF93BF93EF93FF938AEA95E00E94FF02F8
:10449000FF91EF91BF91AF919F918F917F916F911C
:1044A0005F914F913F912F910F900FBE0F901F90F2
:1044B00018951F920F920FB60F9211242F938F937E
:1044C0009F93EF93FF93E091BA05F091BB05808134
:1044D000E091C005F091C10582FD1BC090818091E3
:1044E000C3058F5F8F732091C405821741F0E0915F
:1044F000C305F0E0E655FA4F958F8093C305FF9111
:10450000EF919F918F912F910F900FBE0F901F9061
:1045100018958081F4CF1F920F920FB60F9211243D
:104520002F933F938F939F93AF93BF9380918F046B
:1045300090919004A0919104B091920430918E04D6
:1045400023E0230F2D3758F50196A11DB11D2093AF
:104550008E0480938F0490939004A0939104B09361
:1045600092048091930490919404A0919504B09149
:1045700096040196A11DB11D809393049093940419
:10458000A0939504B0939604BF91AF919F918F91A2
:104590003F912F910F900FBE0F901F90189526E816
:1045A000230F0296A11DB11DD2CF1F920F920FB6FD
:1045B0000F9211242F933F934F935F936F937F93A9
:1045C0008F939F93AF93BF93EF93FF93E0910A0173
:1045D000F0910B010995FF91EF91BF91AF919F91E0
:1045E0008F917F916F915F914F913F912F910F909C
:1045F0000FBE0F901F9018951F920F920FB60F923B
:1046000011242F933F934F935F936F937F938F93D7
:104610009F93AF93BF93EF93FF93E0910801F091C5
:1046200009010995FF91EF91BF91AF919F918F91F2
:104630007F916F915F914F913F912F910F900FBE9E
:104640000F901F9018951F920F920FB60F92112482
:104650002F933F934F935F936F937F938F939F938A
:10466000AF93BF93EF93FF93E0910601F0910701A1
:104670000995FF91EF91BF91AF919F918F917F919C
:104680006F915F914F913F912F910F900FBE0F90BF
:104690001F9018951F920F920FB60F9211242F930F
:1046A0003F934F935F936F937F938F939F93AF93BA
:1046B000BF93EF93FF93E0910401F09105010995F9
:1046C000FF91EF91BF91AF919F918F917F916F91EA
:1046D0005F914F913F912F910F900FBE0F901F90C0
:1046E00018951F920F920FB60F9211242F933F939C
:1046F0004F935F936F937F938F939F93AF93BF93EA
:10470000EF93FF93E0910201F09103010995FF916E
:10471000EF91BF91AF919F918F917F916F915F9139
:104720004F913F912F910F900FBE0F901F901895B2
:104730001F920F920FB60F9211242F933F934F9316
:104740005F936F937F938F939F93AF93BF93EF93F9
:10475000FF936091BD0481E068276093BD04809160
:104760007D0490917E04DC01ED91FC910190F0813B
:10477000E02D0995809100019091010190938900AD
:1047800080938800FF91EF91BF91AF919F918F919E
:104790007F916F915F914F913F912F910F900FBE3D
:1047A0000F901F901895EF92FF920F931F93CF9346
:1047B000DF93F82E192FE62E042F81E0860F880F45
:1047C0000E94CD0183E00E94CD01CF2DD12FEC0EB0
:1047D000FD2EF11CCE15DF05B9F007FF13C0FE0159
:1047E00084910E94CD01182F80E00E94CD01812389
:1047F00021968111EFCFDF91CF911F910F91FF9003
:10480000EF9008958881EDCF81E0F5CF69E275E002
:104810008BE395E00E94430D49E255E06DEB71E0BA
:1048200083E295E00E940E0EE3E2F5E089EC91E070
:104830009183808383ED91E0918F808F1286118622
:104840001486138616861586108A1786128A118A90
:10485000148A138A8FE691E09783868382E696E036
:10486000978B868B88E0858B089563E575E085E6F8
:1048700095E00E94430D43E555E069ED71E081E567
:1048800095E00E94350EE1E5F5E085EE91E091833B
:1048900080838FEE91E0958B848B16821582108633
:1048A0001782128611861486138616861586108A3C
:1048B00017868FE691E09383828382E696E0938B5E
:1048C000828B80E1818B0895CF92DF92EF92FF92ED
:1048D0000F931F93CF93DF93CAEAD5E01092AD05F3
:1048E0001092AC0588EEC82E83E0D82EE12CF12C76
:1048F000C092AE05D092AF05E092B005F092B1053E
:104900008CEB92E09093AB058093AA058DEC90E040
:104910009093B7058093B6058CEC90E09093B90521
:104920008093B80588EC90E09093BB058093BA051E
:1049300089EC90E09093BD058093BC058AEC90E0F3
:104940009093BF058093BE058EEC90E09093C105D7
:104950008093C0051092C3051092C4051092C5053E
:104960001092C6051092C5041092C404C092C604E9
:10497000D092C704E092C804F092C9048EEC92E091
:104980009093C3048093C2040FEF1FEF1093CF04E2
:104990000093CE0410921205109213051092140584
:1049A0001092150510921605109217051092180511
:1049B0001092190510921D0510921C0510921B05EE
:1049C00010921A0565E271E080E091E00E943C2CB3
:1049D00090931D0580931C0586E093E09093FB0661
:1049E0008093FA060E948E018BED96E00E940C19CE
:1049F00082EF92E09093B3068093B20681E090E05C
:104A00009093BC068093BB061092BD061092BE0622
:104A10001092BF061092C0061092C1061092C206F4
:104A20001092C3061092C4061092C5061092C606D4
:104A30001092C7061092C8061092CD061092CE06AC
:104A40001092CF061092D0061092D1061092D20684
:104A50001092D3061092D4068FED96E09093B5068F
:104A60008093B4068AEF96E09093BA068093B906D5
:104A70001092C9061092CA061092CB061092CC066C
:104A80008CE08093B6068AE08093B7068BE0809333
:104A9000B80680E090E0AAE7B3E48093D50690934F
:104AA000D606A093D706B093D80661E08CE00E94AA
:104AB000B00461E08091B8060E94B00461E080918A
:104AC000B7060E94B00461E08091B7060E9482049C
:104AD0001092DA061092D9061092650610926406BA
:104AE000C0926606D0926706E0926806F092690668
:104AF00010936F0600936E0680EE92E0909363062B
:104B0000809362068BE596E00E94EC0E84E596E0C9
:104B10000E94EC0ED0934806C093470684E596E0C9
:104B200090934A06809349068EE79DE09093530642
:104B300080935206D0939A05C093990587E496E036
:104B400090939C0580939B058DE995E00E94EC0E67
:104B50001092A5051092A4051092A6051092A70523
:104B60001092A9051092A80580919F059091A0052B
:104B7000089730F468E070E08DE995E00E94071234
:104B800082EB96E090939405809393052BED36E0AD
:104B9000309396052093950529E935E030939805E3
:104BA0002093970523E935E03093920520939105F2
:104BB00090932205809321058CEE96E0909320053A
:104BC00080931F0582E080931E0510928905109244
:104BD0008A0510928B0510928C0510928D0510920B
:104BE0008E0510928F051092900587E080937B05CB
:104BF00010927C0510927D0510927E0510927F0523
:104C00001092800510928105109282051092830502
:104C10001092840580E395E7A0E0B0E080938505DD
:104C200090938605A0938705B093880562E676E0A9
:104C300081E595E00E94352462E676E083E295E026
:104C4000DF91CF911F910F91FF90EF90DF90CF9068
:104C50000C940624CF93DF93CDB7DEB72F970FB612
:104C6000F894DEBF0FBECDBF789484B5826084BD5A
:104C700084B5816084BD85B5826085BD85B5816060
:104C800085BD80916E00816080936E0010928100DE
:104C90008091810082608093810080918100816099
:104CA000809381008091800081608093800080915A
:104CB0009100826080939100809191008160809347
:104CC0009100809190008160809390008091C1005C
:104CD00084608093C1008091C10082608093C10094
:104CE0008091C10081608093C1008091C300816088
:104CF0008093C3008091C00082608093C000809147
:104D0000C20081608093C20080917A0084608093A9
:104D10007A0080917A00826080937A0080917A0094
:104D2000816080937A0080917A00806880937A0015
:104D30001092BF041092AE041092AF048091D7007D
:104D400081608093D70080EA8093D80089B5806124
:104D500089BD89B5826089BD09B400FEFDCF61E0DF
:104D600070E080E090E00E9406058091D8008F7C82
:104D700080618093D8008091E000807F8093E00084
:104D80008091E1008E7E8093E1008DE08093E200CF
:104D9000559A209A61E08091B7060E94820460E0F3
:104DA0008091B6060E9482048FE79BE19093DA0619
:104DB0008093D90662E085E00E94B00462E086E05C
:104DC0000E94B00480915D0690915E06409730F499
:104DD00060E170E08BE596E00E94A8108091560695
:104DE00090915706809730F460E270E084E596E099
:104DF0000E9407128FEF9FEF90936F0680936E06CD
:104E000080911C0590911D05009711F00E943F2D87
:104E100082E696E090931B0580931A0565E271E0A7
:104E200080E091E00E943C2C90931D0580931C052E
:104E30008AEA95E00E943D0168EE73E080E090E030
:104E40000E94060587E496E00E94D2050E94BD05F7
:104E50006093890570938A0580938B0590938C05E8
:104E600088EE93E0A0E0B0E080938D0590938E05EE
:104E7000A0938F05B093900510911E0562E0812FDD
:104E80000E94B0041092C1041092C004112309F4CE
:104E900028C1113009F0F4C080E898E0909309012E
:104EA00080930801809169008F738064809369000A
:104EB000EB9A62E080917B050E94B00410927C0521
:104EC000109281051092820510928305109284053C
:104ED00080E395E7A0E0B0E0809385059093860598
:104EE000A0938705B093880561E08DE00E94B0042F
:104EF000789484E090E00E94A32C29E935E0DC015D
:104F000013963C932E9312972BE932E02D933C930A
:104F10009093A9058093A80532E0E32EF12C4AEF87
:104F2000842E912CA12CB12C26E0222E312C82EB48
:104F300096E00E940C16109117016AE070E080E084
:104F400090E00E940605112309F444C082E696E031
:104F50000E94F30318161906ECF582E696E00E940B
:104F6000B10397FD37C088878D3031F0803409F464
:104F7000C6C08A3009F0C7C080915F069091600674
:104F8000029740F1BE01685F7F4F8BE596E00E947B
:104F9000BB116BE576E0CE0101960E94CA1E8D81A1
:104FA0009E81892B79F06AE381E595E00E94980C57
:104FB000BE016F5F7F4F0E949A0B63E20E94980CC4
:104FC0000E94630D8BE596E00E94CA05CE01019612
:104FD0000E94A10E8091A605882309F42AC10091A0
:104FE0009B0510919C05F80180819181DC01ED9178
:104FF000FC910084F185E02D0995181619060CF036
:1050000053C180E2682E93E0C92ED12C772473948B
:10501000F80180819181DC01ED91FC910084F185A2
:10502000E02D0995181619060CF03EC1F801808193
:105030009181DC01ED91FC910284F385E02D0995CD
:1050400097FDE6CF8F878E3719F4C8010E94D205ED
:10505000F8018681882321F08F85168286258F8727
:10506000D80114962D913C9115978F852115310506
:1050700009F48FC08D3709F055C016967C92C8CFC1
:10508000123071F480E898E0909305018093040158
:1050900080916900837F846080936900E99A09CFD9
:1050A000133071F480E898E090930301809302013B
:1050B000809169008C7F816080936900E89AF9CEC5
:1050C000173009F0F6CE80E898E090930B018093BA
:1050D0000A0180916A008F7C806180936A00EE9A59
:1050E000E8CE80E898E090930701809306018091D4
:1050F00069008F7C806180936900EA9ADACE8BE543
:1051000096E00E94CA0580915F06909160064097E4
:1051100008F060CFBE01685F7F4F8BE596E00E948C
:10512000BB1158CF2330310509F447C080F421303A
:105130003105C1F12230310509F06ACFF80120852F
:105140003185282B31872087D582C48261CF2430D6
:10515000310509F43FC02530310509F059CF1796C4
:105160009C911797890F17968C9317978F3F09F08B
:105170005CC015963C922E92149712966D917C917C
:1051800013971B96ED91FC911C971A968C9109959B
:105190003FCF8E3709F03CCF81E090E0F801958356
:1051A000848336CF18961C92189719968C9319976A
:1051B0001596FC92EE9214972BCF1A968C931A9711
:1051C00017968C931797E4E0F0E01596FC93EE9316
:1051D00014971ECF12968D919C91FC0124813581EC
:1051E000B9016F5F7F4F26173707E0F4AE01415FCB
:1051F0005F4F0E942F12F80187819F85890F878357
:105200000280F381E02DD80118968D919C91199719
:105210000197248135812817390709F0F9CEE5E097
:10522000F0E0D3CF15821482E6CFC8010E94D205E8
:10523000EFCE80919E04811107C087E994E00E941F
:10524000EC0E81E080939E048091990590919A05DF
:10525000DC01ED91FC910084F185E02D0995181693
:10526000190614F58091990590919A05DC01ED914C
:10527000FC910284F385E02D099597FD15C0898383
:105280008D3009F07FC18091A4059091A505DC01C6
:10529000ED91FC910484F585E02D67E974E00995B2
:1052A00087E994E00E94CA058091A4059091A50524
:1052B000009739F0DC01ED91FC910680F781E02D3B
:1052C00009958091A8059091A905892B09F454C0EE
:1052D00061E174E081E595E00E94E9138C01609141
:1052E000A8057091A905DB01ED91FC910480F58181
:1052F000E02DCE0101960995BE016F5F7F4FC80179
:105300000E949A0B0E94630DCE0101960E94A10E8D
:105310008091A4059091A5050097D9F0DC01ED914D
:10532000FC910084F185E02D09958091A405909170
:10533000A5052091A8053091A9058217930749F08A
:10534000009739F0DC01ED91FC910280F381E02DB2
:1053500009958091A8059091A9059093A505809342
:10536000A4051092A9051092A805DC01ED91FC910D
:105370000284F385E02D099580918D0590918E052D
:10538000A0918F05B0919005892B8A2B8B2B09F466
:10539000ECC00E94BD050091890510918A052091FD
:1053A0008B0530918C05601B710B820B930B009168
:1053B0008D0510918E0520918F0530919005601715
:1053C00071078207930708F4D0C00E94BD0560935F
:1053D000890570938A0580938B0590938C05809244
:1053E0008D0590928E05A0928F05B09290056091E8
:1053F000A80481E068276093A8048DE00E948204DD
:1054000020E030E0A9016091C9067091CA06809140
:10541000CB069091CC060E94F42E882341F166E1E0
:1054200074E081E595E00E94E9138C01DC01ED91C7
:10543000FC9136970190F081E02D3296E80FF91F2C
:10544000818192818F7180629283818383E995E06B
:105450000E944C0928E030E040E050E00E942031FA
:10546000BA01A901C8010E94EB190E94630D85E0F1
:105470000E9459048C01DD24D394892B09F0D12C8E
:10548000E091B406F091B50644805580668077803F
:105490008091A704D816E9F001151105A1F481E067
:1054A00090E00E942D154091F2065091F306609114
:1054B000F4067091F506440D551D661D771D82EBAF
:1054C00096E00E946406012B21F082EB96E00E9498
:1054D000E405D092A70486E00E9459048C01DD24E3
:1054E000D394892B09F0D12C8091A604D816F9F019
:1054F00001151105B1F48FEF9FEF0E942D158091DA
:10550000F2069091F306A091F406B091F506B3016E
:10551000A201481B590B6A0B7B0B82EB96E00E94A1
:105520006406012B21F082EB96E00E94E405D09204
:10553000A60480917B050E94590420917C05892B4B
:1055400049F1222341F068E174E081E595E00E9491
:10555000E9130E94630D10927C0510928105109250
:105560008205109283051092840580E090E0892BDB
:1055700009F4DDCC0E94EB02882309F4D8CC0E9408
:105580000000D2CCBE016F5F7F4F87E994E00E949C
:10559000BB118ACE21113EC04090850550908605F2
:1055A00060908705709088050E94BD0560937D0519
:1055B00070937E0580937F059093800540928105CE
:1055C00050928205609283057092840581E08093F9
:1055D0007C05AE014F5F5F4F66E274E0CE01089636
:1055E0000E941014BE01685F7F4FCE0101960E9499
:1055F000CA1ECE0101960E94A10E6BE274E081E505
:1056000095E00E94E9130E94630DCE0108960E9466
:10561000A10EABCF8091810590918205A091830569
:10562000B0918405892B8A2B8B2B09F49ECF0E9485
:10563000BD0500917D0510917E0520917F0530917B
:105640008005601B710B820B930B009181051091FB
:1056500082052091830530918405601771078207C8
:10566000930708F099CF81CF83E295E00E94E30C85
:1056700081E595E00E942B0D8DE995E00E94A10E39
:1056800084E596E00E94A10E8BE596E00C94A10EB5
:10569000B0E0A0E0EEE4FBE20C94422E5C016B0172
:1056A0007A016115710519F0FB0191838083E11482
:1056B000F10449F0C7010297839728F060E070E099
:1056C000CB019CC05E01E5012196F5011081812F7F
:1056D00090E00E94332C892BA9F71D3209F056C0A7
:1056E0002196F501118101E0E114F10409F4AEC045
:1056F000F0E1EF16F10409F08EC0103341F4888117
:105700008F7D883509F083C0198122960260E0E11F
:10571000EE2EF12C88248A94982CA82CFFE0BF2E22
:1057200020E060E070E0CB0127010F2C000C660840
:105730007708FE0150ED352E310E39E0331538F47F
:105740003FEB310F3A31A0F549EC342E310E3E14C7
:105750001F04BCF52F3FB9F086169706A806B906B8
:1057600070F1A30192010E94042E232D30E050E03D
:1057700040E0620F731F841F951F62177307840731
:105780009507E8F021E021961081D3CF1B3221F458
:10579000E5012296F501118100E0A6CF78E0E72E21
:1057A000F12C88248A94982CA82C6FE1B62EB8CFBF
:1057B0003FE9310F3A3128F439EA332EC7CF2FEFC2
:1057C000E2CFC114D10431F02223E9F02197F60190
:1057D000D183C08300FF07C0909580957095619537
:1057E0007F4F8F4F9F4F2F3F49F482E290E090937D
:1057F0000307809302076FEF7FEFCB01CDB7DEB7D2
:10580000E1E10C945E2E01FFE5CF2297E0CF10E39B
:10581000E114F10419F23AE0E316F104E9F080E151
:10582000E816F10409F473CFE8E0EE16F10409F488
:10583000B8CF6FEF7FEFCB0197010F2C000C440B1B
:10584000550B0E94142E49015A016ACF103309F4F6
:1058500056CF9AE0E92EF12C89E9882E982CA82CB5
:1058600089E1B82E5DCF91110C94C82D803219F0CA
:1058700089508550C8F708950F931F93CF93DF93F6
:10588000009759F46115710541F4F0E0E0E0CF01B3
:10589000DF91CF911F910F9108958B01EC016EE084
:1058A00070E081E090E00E94872CFC01892B69F375
:1058B00080E883830115110571F01387028781E861
:1058C00083838091FC069091FD06892B21F4F0934F
:1058D000FD06E093FC062097D1F2D187C087838133
:1058E000826083838091FE069091FF06892B79F672
:1058F000F093FF06E093FE06809100079091010768
:10590000892B29F6F0930107E0930007C0CF0F938E
:105910001F93CF93DF93869F8001879F100D969FE3
:10592000100D1124C8010E94A32CEC01009729F04E
:10593000A80170E060E00E94CB2DCE01DF91CF91F5
:105940001F910F9108950F931F93CF93DF93823090
:10595000910510F482E090E0E0910607F0910707CE
:1059600030E020E0B0E0A0E0309799F42115310557
:1059700009F44AC0281B390B24303105D8F58A8137
:105980009B816115710589F1FB0193838283FE017F
:1059900011C0408151810281138148175907E0F0FD
:1059A0004817590799F4109761F012960C931297C3
:1059B00013961C933296CF01DF91CF911F910F91D7
:1059C00008950093060710930707F4CF21153105BA
:1059D00051F04217530738F0A901DB019A01BD01CC
:1059E000DF01F801C1CFEF01F9CF90930707809352
:1059F0000607CDCFFE01E20FF31F81939193225052
:105A0000310939832883D7CF2091040730910507C6
:105A1000232B41F420911A0130911B01309305078B
:105A200020930407209118013091190121153105A7
:105A300041F42DB73EB740911C0150911D01241B2C
:105A4000350BE0910407F0910507E217F307A0F486
:105A50002E1B3F0B2817390778F0AC014E5F5F4FC4
:105A60002417350748F04E0F5F1F509305074093EA
:105A70000407819391939FCFF0E0E0E09CCFCF9318
:105A8000DF930097E9F0FC01329713821282A09114
:105A90000607B0910707ED0130E020E01097A1F470
:105AA00020813181820F931F2091040730910507D7
:105AB0002817390709F061C0F0930507E093040740
:105AC000DF91CF910895EA01CE17DF07E8F54A810B
:105AD0005B819E0141155105B1F7E901FB83EA8322
