:100000000C94DC000C940F240C94E8230C94C12372
:100010000C949A230C9404010C9404010C94732303
:100020000C9404010C9404010C9430200C949F2037
:100030000C9404010C9404010C9404010C9404012C
:100040000C9404010C9436240C9404010C940401C7
:100050000C9404010C9404010C9404010C942923C5
:100060000C9404010C94F7220C94D1220C940401FA
:100070000C9404010C9404010C9404010C940401EC
:100080000C9404010C9404010C9404010C940401DC
:100090000C9404010C9404010C9404010C940401CC
:1000A0000C9404010C9404010C9404010000000061
:1000B000240027002A002D00300000000000250049
:1000C00028002B002E003100000000002300260035
:1000D00029002C002F000404040404030405020278
:1000E00002020403020202020606060606060404D1
:1000F0000202020404040802011040804010204063
:10010000804080080204018040201002011080100D
:10011000204040200000000200090F0000030401FD
:10012000000C0000000000000000000000000000C3
:10013000000000070605040100080A0B0C0D090861
:100140000B0002020200000904000001020200008C
:1001500005240010010524010101042402060524E0
:100160000600010705810310004009040100020A8E
:10017000000000070502024000000705830240005E
:10018000000403090412010002EF0201404123367A
:100190008000010102030141726475696E6F204C99
:1001A0004C430041726475696E6F204C656F6E61DF
:1001B00072646F000225F42C11241FBECFEFDAE029
:1001C000DEBFCDBF14E0A0E0B1E0E4E2FCE602C097
:1001D00005900D92A436B107D9F727E0A4E6B4E064
:1001E00001C01D92A93BB207E1F710E0CBEDD0E0D2
:1001F00004C02197FE010E942333CA3DD107C9F7ED
:100200000E94FD260C9405360C9400001F93CF939A
:10021000DF93182FC091A205D091A3058A3041F435
:10022000E881F9810190F081E02D6DE0CE01099522
:10023000E881F9810190F081E02D612FCE010995CF
:1002400021E030E0019711F430E020E0C901DF91B6
:10025000CF911F910895CF93DF93C091A205D091C4
:10026000A305E881F9810084F185E02DCE0109958F
:10027000892BB9F3E881F9810284F385E02DCE0161
:10028000DF91CF910994FC01A089B18982E08C9320
:10029000A485B5851C92A685B7858FEC8C93108EAE
:1002A000A489B58986E08C93A289B3898C918061F9
:1002B0008C93A289B3898C9188608C93A289B3892D
:1002C0008C9180688C930288F389E02D80818F7DEA
:1002D00080830895E82FF0E0EE0FFF1FE25FFE4FEE
:1002E000718360838230D9F028F4882341F0813013
:1002F00071F008958330D9F0843009F10895809128
:1003000069008C7F826080936900E89A08958091EB
:100310006900837F886080936900E99A08958091DD
:1003200069008F7C806280936900EA9A08958091C9
:1003300069008F73806880936900EB9A08958091BB
:100340006A008F7C806280936A00EE9A0895FC01B7
:1003500080910E05882311F13FB7F89482E08093D5
:10036000E9002091F200822F90E01816190614F48B
:1003700081E090E0882339F0289844E640930D0509
:100380004091F1004083222339F02091F2002111A5
:1003900003C02BE62093E8003FBF08958FEF9FEF47
:1003A0000895109281001092850010928400EFE66B
:1003B000F0E080818D7F80838FEF90E090938900C3
:1003C0008093880090938B0080938A001092800025
:1003D00010920C0508952FB7F89483E08093E900FC
:1003E0009091E800892F807295FF04C09091F200EF
:1003F00080E4891B2FBF08958091040581110DC0F1
:1004000082E08093000584E080930105109203054B
:100410001092020581E08093040580E095E0089544
:100420004091FA045091FB042091F8043091F904B2
:1004300042175307B4F49091E8009570E1F390915E
:10044000E80092FD19C08093F1008091FA04909128
:10045000FB0401968F739927892B19F48EEF8093F3
:10046000E8008091FA049091FB0401969093FB04BC
:100470008093FA0481E0089580E00895DF92EF927E
:10048000FF920F931F93CF93DF93D82E8A01EB0136
:100490007B01E40EF51ECE15DF0559F0D7FE12C024
:1004A000FE0184910E94100221968111F4CF0FEF7A
:1004B0001FEFC801DF91CF911F910F91FF90EF9037
:1004C000DF9008958881EECF0F931F93CF93DF9332
:1004D0001F92CDB7DEB782E0898342E450E06FE33C
:1004E00071E080E80E943E020E94FC01DC0112964D
:1004F0000D911C910115110589F0D801ED91FC9128
:100500000280F381E02DBE016F5F7F4FC801099526
:1005100097FD04C0F80100851185ECCF89810F900B
:10052000DF91CF911F910F910895615030F020918C
:10053000F100FC0120830196F8CF289884E680938F
:100540000D050895DC01ED91FC910190F081E02D05
:100550000994AF92BF92CF92DF92EF92FF920F93E6
:100560001F93CF93DF936C017B018B01040F151F49
:10057000EB015E01AE18BF08C017D10759F06991B1
:10058000D601ED91FC910190F081E02DC601099515
:10059000892B79F7C501DF91CF911F910F91FF90C2
:1005A000EF90DF90CF90BF90AF900895CF93C1E0D0
:1005B00020E030E0A901FC016789708D818D928D6A
:1005C0000E94C430811101C0C0E08C2FCF910895EA
:1005D000FC01538D448D252F30E0842F90E0821B49
:1005E000930B541710F0CF96089501970895FC01CE
:1005F000918D828D981761F0A28DAE0FBF2FB11D26
:100600005D968C91928D9F5F9F73928F90E008957D
:100610008FEF9FEF0895FC01918D828D981731F037
:10062000828DE80FF11D858D90E008958FEF9FEF8B
:100630000895FC01918D228D892F90E0805C9F4F61
:10064000821B91098F739927089582E496E00E9496
:10065000190321E0892B09F420E0822F089580E01E
:1006600090E0892B29F00E94250381110C94000051
:100670000895FC01A48DA80FB92FB11DA35ABF4F37
:100680002C91848D90E001968F739927848FA68991
:10069000B7892C93A089B1898C9182748C93938DA6
:1006A000848D981306C00288F389E02D80818F7DA8
:1006B00080830895EF92FF920F931F93CF93DF9360
:1006C000EC0181E0888F9B8D8C8D981319C0E8898F
:1006D000F989808185FF14C09FB7F894EE89FF895E
:1006E0006083E889F9898081827480839FBF81E07B
:1006F00090E0DF91CF911F910F91FF90EF900895BF
:10070000F62E0B8D10E00F5F1F4F0F731127E02E99
:100710008C8D8E110CC00FB607FCFACFE889F989D1
:10072000808185FFF5CFCE010E943903F1CFEB8D9B
:10073000EC0FFD2FF11DE35AFF4FF0829FB7F894A5
:100740000B8FEA89FB8980818062CFCFCF93DF93C3
:10075000EC01888D8823B9F0AA89BB89E889F989D9
:100760008C9185FD03C0808186FD0DC00FB607FC0E
:10077000F7CF8C9185FFF2CF808185FFEDCFCE0141
:100780000E943903E9CFDF91CF910895CF93DF9392
:100790001F92CDB7DEB76983DC01ED91FC91028039
:1007A000F381E02D41E050E0BE016F5F7F4F09957E
:1007B0000F90DF91CF91089583E08093E9008091BD
:1007C000F200882319F08AE38093E80008950E94DC
:1007D000EB0190E00895CF93DF931F92CDB7DEB782
:1007E000FC018485958597FD08C02FEF3FEF358785
:1007F00024870F90DF91CF910895CE0101960E943A
:10080000A701019719F4898190E0F3CF8FEF9FEF53
:10081000F0CF0F931F93CF93DF931F92CDB7DEB727
:100820008C01FC018485958597FF0BC0CE01019654
:100830000E94A701019771F4898190E0F8019587E2
:100840008487F801848595850F90DF91CF911F9162
:100850000F9108958FEF9FEFF1CFFC01848595856F
:1008600097FD0BC09FB7F89482E08093E9008091D8
:10087000F2009FBF90E0019608959FB7F89482E040
:100880008093E9008091F2009FBF90E0089581502D
:100890008F3008F047C0E82FF0E0EF5AFB4F0C9480
:1008A00023336E047204600466046A0492049204A2
:1008B000920475047B047F048304890492048D04EC
:1008C000809180008F7780938000089580918000D0
:1008D0008F7DF9CF80918000877FF5CF84B58F77AA
:1008E00084BD089584B58F7DFBCF809190008F7774
:1008F000809390000895809190008F7DF9CF809132
:100900009000877FF5CF8091C0008F778093C000E3
:1009100008958091C0008F7DF9CF8091C200877FBC
:100920008093C2000895CF93DF93282F30E0F90120
:10093000EC5EFE4F8491F901EB50FF4FD491F90129
:10094000EA52FF4FC491CC23A1F081110E944704C9
:10095000EC2FF0E0EE0FFF1FE853FF4FA591B4918D
:10096000EC91ED2381E090E009F480E0DF91CF91FC
:10097000089580E090E0FACF1F93CF93DF93282F64
:1009800030E0F901EC5EFE4F8491F901EB50FF4F2E
:10099000D491F901EA52FF4FC491CC23A9F0162F4C
:1009A00081110E944704EC2FF0E0EE0FFF1FE65488
:1009B000FF4FA591B4918FB7F894EC91111108C035
:1009C000D095DE23DC938FBFDF91CF911F910895E7
:1009D000DE2BF8CFCF93DF9390E0FC01EB50FF4F7D
:1009E00024918A529F4FFC0184918823D1F090E09A
:1009F000880F991FFC01E455FF4FA591B491FC01AC
:100A0000E654FF4FC591D491623071F49FB7F894CA
:100A10003C91822F809583238C93E8812E2B288311
:100A20009FBFDF91CF9108958FB7F894EC912E2B53
:100A30002C938FBFF6CF3FB7F8948091A704909185
:100A4000A804A091A904B091AA0426B5A89B05C04A
:100A50002F3F19F00196A11DB11D3FBFBA2FA92F3D
:100A6000982F8827BC01CD01620F711D811D911D3A
:100A700042E0660F771F881F991F4A95D1F70895A6
:100A80008F929F92AF92BF92CF92DF92EF92FF929E
:100A90004B015C010E941B056B017C010E941B0540
:100AA0006C197D098E099F09683E73408105910587
:100AB000A8F321E0821A9108A108B10888EEC80EB7
:100AC00083E0D81EE11CF11C81149104A104B1043F
:100AD00029F7FF90EF90DF90CF90BF90AF909F905D
:100AE0008F9008958F929F92AF92BF92CF92DF9294
:100AF000EF92FF920F931F93CF93DF936C017B01D3
:100B00008A0180910D01882309F45CC080910E0553
:100B1000882309F457C08091FE0480FF05C08091AE
:100B2000E00082608093E000E801B12C8AEFA82EFB
:100B300093E0892E2AE3922E209711F4BB20D9F15D
:100B40000E94EB0181110AC0AA94AA20D9F161E0A8
:100B500070E080E090E00E944005EECF8C171D060B
:100B600011F00CF08C2F9FB7F8948092E90020913F
:100B7000E80025FD02C09FBFDFCF282F30E0C21B59
:100B8000D30BF701815020F041914093F100FACF4F
:100B9000E20EF31EBB2021F09092E800B12CEBCFC7
:100BA0008091E80085FDE7CF9092E800BB24B394E4
:100BB000209709F3F3CF5D9884E68093FF04101625
:100BC00011063CF081E090E0F6019383828310E00F
:100BD00000E0C801DF91CF911F910F91FF90EF903E
:100BE000DF90CF90BF90AF909F908F900895089521
:100BF0000F931F93FC0184819581A681B781892B76
:100C00008A2B8B2BE9F08FB7F8944091A304509175
:100C1000A4046091A5047091A6048FBF8081918186
:100C2000A281B381481B590B6A0B7B0B81E00481C5
:100C3000158126813781401751076207730708F431
:100C400080E01F910F9108950F931F93EFB7F894D1
:100C50000091A3041091A4042091A5043091A6044E
:100C6000EFBFFC01008311832283338344835583C8
:100C7000668377831F910F910895FC01248135814C
:100C8000232B11F01582148208958F929F92AF92B8
:100C9000BF92CF92DF92EF92FF92CF93DF93EC015E
:100CA000E881F9810484F585E02D09958823B9F15F
:100CB000E881F9810284F385E02DCE0109956B016D
:100CC0007C016F89788D898D9A8D9B01AC010E9482
:100CD00028329B01AC0160E070E0CB010E945730EC
:100CE0004B015C016F8D78A189A19AA190589B015D
:100CF000AC010E9458309B01AC01C501B4010E94B7
:100D0000C9300E943B31072E000C880B990BC60E90
:100D1000D71EE81EF91ECB86DC86ED86FE86DF91A7
:100D2000CF91FF90EF90DF90CF90BF90AF909F90CA
:100D30008F900895CF93DF93EC018F819885DC012C
:100D4000ED91FC910280F381E02D09951F8E18A290
:100D500019A21AA21F8A188E198E1A8E1A8619863F
:100D6000EA81FB818585811108C061E08D810E9447
:100D7000BC0460E08C810E94BC04EFA1F8A5309710
:100D800019F0DF91CF910994DF91CF910895FC0183
:100D900081850895DC011296ED91FC916481758145
:100DA0008681978108952F923F924F925F926F9222
:100DB0007F928F929F92AF92BF92CF92DF92EF92EB
:100DC000FF920F931F93CF93DF93EC01EA80FB8098
:100DD000F70184819581A681B7818A019B01081B57
:100DE000190B2A0B3B0BD901C8014B875C876D8718
:100DF0007E8701E010E0181619061A061B0614F08B
:100E000010E000E08827B7FD83959927AA27BB2724
:100E1000081B190B1A870987D7011A96CD90DC9009
:100E20000C9DB0010D9D700D1C9D700D112490E066
:100E300080E00E9471316B8F7C8F8D8F9E8FB60109
:100E400090E080E00E9471314B015C01F701608508
:100E5000718590E080E00E94713120E030E04AE747
:100E600054E40E94C9309B01AC01C501B4010E9449
:100E7000C9304B015C01B801110F880B990B0E941E
:100E800073319B01AC01C501B4010E9428326F8F00
:100E900078A389A39AA3D7011C968C9100E011E056
:100EA000882311F001E010E060E08C810E94BC0416
:100EB00089859A8597FF102F612F8E810E94BC042F
:100EC00060E08D810E94BC042FB7F8948091A30448
:100ED0009091A404A091A504B091A6042FBF8F8780
:100EE000988BA98BBA8BCF88D88CE98CFA8C20E0B0
:100EF00030E0A901C701B6010E9423324601570123
:100F0000181624F0B7FAB094B7F8B0944BA05CA0D0
:100F10006DA07EA00F811885F80120803180A50189
:100F20009401C301B2010E942332181674F5698539
:100F30007A85072E000C880B990B0E947331A30150
:100F400092010E9428326B8B7C8B8D8B9E8B6F8BDA
:100F5000788F898F9A8FD101ED91FC919E01B30119
:100F6000A201C801DF91CF911F910F91FF90EF90E7
:100F7000DF90CF90BF90AF909F908F907F906F90B9
:100F80005F904F903F902F900994CB8ADC8AED8A36
:100F9000FE8AD1011496ED91FC91B501A401C8011E
:100FA000DF91CF911F910F91FF90EF90DF90CF9045
:100FB000BF90AF909F908F907F906F905F904F9079
:100FC0003F902F9009941F93CF93DF93EC01162F3E
:100FD0008C810E94BC04EA81FB8144815581668139
:100FE0007781112391F089859A85092E000CAA0B2F
:100FF000BB0B840F951FA61FB71F84839583A68301
:10100000B783DF91CF911F9108958B859C85AD8526
:10101000BE85481759076A077B0799F7E881F98168
:101020000280F381E02DCE01DF91CF911F910994D1
:10103000CF92DF92EF92FF92CB01BA019A01AC01FD
:101040000E9458306B017C0120E034E244E75BE40D
:101050000E94233218161CF120E030E044E753E4EC
:10106000C701B6010E94C43087FF06C0C12CD12C35
:1010700094E7E92E93E4F92EA701960160E074E26B
:1010800084E79BE40E94C9300E94423170930101C1
:1010900060930001FF90EF90DF90CF900895C12CF6
:1010A00084E2D82E84E7E82E8BE4F82EE5CF309347
:1010B00092042093910410920C050E9418088091CC
:1010C0000001909101019093890080938800109213
:1010D0008500109284001092800089E08093810046
:1010E000EFE6F0E080818260808308950C94D10166
:1010F000EF92FF920F931F93CF93DF93EC017B014D
:101100008A01E881F9810480F581E02D0995801735
:10111000910758F0A801B701CE01DF91CF911F913F
:101120000F91FF90EF900C94720590E080E0DF91BA
:10113000CF911F910F91FF90EF900895089540E790
:1011400057E160E070E08AE995E00C942406089588
:10115000CF93DF93EC0140E45FE160E070E08AE967
:1011600095E00E942406188619861A861B86DF9150
:10117000CF9108950895CF93DF93EC018BEF9AE41C
:101180009983888324E02A831B822EE0EEE1F1E03C
:10119000DE01149601900D922A95E1F72AE02A8B40
:1011A00028EB2B8B2BE02C8B1D8A1E8A1F8A188E16
:1011B000198E1A8E1C8E1B8E20E32D8F25E72E8F05
:1011C0001F8E18A219A21AA21BA21CA29EA38DA355
:1011D000DF91CF910895CF93DF93C091A605D09171
:1011E000A70520E030E0A9016F89788D898D9A8D5F
:1011F0000E9423321816DCF4E881F9810284F38519
:10120000E02DCE010995A091A605B091A705AB01EF
:10121000BC01405E5C4F6F4F7F4FED91FC91119789
:101220000084F185E02DCD01DF91CF910994DF910C
:10123000CF910895CF93DF938091AB04811128C0A3
:10124000C091A605D091A70520E030E0A9016F89E3
:10125000788D898D9A8D0E94C43087FF19C081E0F6
:101260008093AB04EA81FB8180E293E0A0E0B0E0F0
:1012700084839583A683B783E881F9810084F1850F
:10128000E02D40E050E0BA01CE01DF91CF9109940A
:10129000DF91CF910895CF93DF93EC01E881F9813D
:1012A0000288F389E02D09958F3F980731F02D8151
:1012B0003E812F5F3F4F3E832D83DF91CF91089575
:1012C0008FEF9FEF089560E070E0CB01089590E00C
:1012D00080E00895FF920F931F93CF93DF938C01CB
:1012E000EB016F3F7607B9F0F62EEAE06E1306C009
:1012F0006DE0F801808991890E94A2026F2DF801AA
:10130000808991890E94A202CE01DF91CF911F9125
:101310000F91FF900895D0E0C0E0F6CF7F928F92BA
:101320009F92AF92BF92CF92DF92EF92FF920F9374
:101330001F93CF93DF938C0149015A01EB01C12C1C
:10134000D12C7601C814D904EA04FB04B4F47990D2
:101350008AE0781206C06DE0F801808991890E94C8
:10136000A202672DF801808991890E94A202FFEFF5
:10137000CF1ADF0AEF0AFF0AE5CFC501B401DF91FA
:10138000CF911F910F91FF90EF90DF90CF90BF9082
:10139000AF909F908F907F900895CB010895CF9349
:1013A000DF93EC0188899989DC01ED91FC9100843F
:1013B000F185E02D0995892BA9F388899989DC01AC
:1013C000ED91FC910284F385E02DDF91CF9109949A
:1013D000CF93DF93EC0188899989DC01ED91FC9131
:1013E0000084F185E02D0995892BA9F388899989D5
:1013F000DC01ED91FC910484F585E02DDF91CF9126
:1014000009948F929F92AF92BF92CF92DF92EF9208
:10141000FF920F931F93CF93DF938C0149015A01E1
:10142000EB01C12CD12C7601D80150968D919C9165
:10143000DC01ED91FC910284F385E02D09958F3F4D
:1014400061F0C814D904EA04FB043CF48993BFEFAB
:10145000CB1ADB0AEB0AFB0AE7CFC701B601DF9123
:10146000CF911F910F91FF90EF90DF90CF90BF90A1
:10147000AF909F908F900895DC0150968D919C9134
:10148000DC01ED91FC910084F185E02D099490E060
:1014900080E0089590E080E00895FC018789908DB8
:1014A000009739F0248935892817390728F4308FB7
:1014B000278B6FEF7FEF08C001976F3F760731F4FE
:1014C000908F878B70E060E0CB010895A089B1898F
:1014D000A80FB91F9B01215031092F3F310538F466
:1014E000262F3C91321305C0908F878BEDCF20E0E3
:1014F000F8CF278524FFDDCF908F878B6C93E4CFC7
:10150000CF93DF93EC01E881F9810288F389E02D24
:1015100009958F3F980731F02F89388D2F5F3F4F06
:10152000388F2F8BDF91CF910895DC0157968D91E5
:101530009C91589754962D913C91559782179307FB
:1015400040F45096ED91FC91E80FF91F808190E0F6
:1015500008958FEF9FEF0895EF92FF92CF93DF935F
:10156000FC01DB0160E070E0CB01E788F08CC4890E
:10157000D589EC16FD06A8F4621773078407950752
:1015800084F4C089D189CE0DDF1DC881CD936F5FF2
:101590007F4F8F4F9F4FC789D08D2196D08FC78B9C
:1015A000E4CFDF91CF91FF90EF900895FC01848903
:1015B00095892789308D821B930B0895242FDC0198
:1015C000ED91FC910084F185E02D41E009940895AE
:1015D000089590E080E008951F93CF93DF93EC018E
:1015E000162F8F8580FF0BC0E881F9810084F1857B
:1015F000E02D20E144E070E060E0CE010995EB854C
:10160000FC85812F90E02D853E85E217F30758F485
:1016100010832B853C852F5F3F4F3C872B87DF91C5
:10162000CF911F910895E881F981028CF38DE02D0F
:10163000BC01CE01DF91CF911F9109948F929F92AF
:10164000AF92BF92CF92DF92EF92FF920F931F93D0
:10165000CF93DF938C0149015A01EB01C12CD12CAE
:101660007601C814D904EA04FB0464F46991C80142
:101670000E94EC0A019641F08FEFC81AD80AE80AD6
:10168000F80AEFCF75016401C701B601DF91CF9170
:101690001F910F91FF90EF90DF90CF90BF90AF9090
:1016A0009F908F9008950895CF93DF93EC01E88188
:1016B000F98136970190F081E02DE80FF91F8389B9
:1016C0009489DC01ED91FC910484F585E02D099568
:1016D000019659F4E881F98136970190F081E02D67
:1016E000EC0FFD1F858181608583CE01DF91CF9155
:1016F0000895CF93DF93EC01E881F981369701904B
:10170000F081E02DE80FF91F838994890E94EC0A8B
:10171000019679F4E881F98136970190F081E02D06
:10172000EC0FFD1F858123893489232B31F08260E2
:101730008583CE01DF91CF9108958360F9CF21E0B9
:10174000DC012C93DB01ED91FC9136978081918136
:10175000680F791FFB0181899289009711F00C9421
:10176000540B0895FF920F931F93CF93DF931F9213
:10177000CDB7DEB78C01F62EBC01CE0101960E94DA
:101780009F0B6F2DC8010E94790BC8010F90DF914C
:10179000CF911F910F91FF9008958F929F92AF92DA
:1017A000BF92EF92FF920F931F93CF93DF93EC01C1
:1017B0007B0149015A01E881F98136970190F08156
:1017C000E02DE80FF91F03891489D8011F968C9129
:1017D0001F9780FF0BC0ED91FC910084F185E02DF7
:1017E00020E144E070E060E0C8010995D801ED9186
:1017F000FC91008CF18DE02DA5019401B701C80189
:1018000009956F3F7F4F79F4E881F9813697019010
:10181000F081E02DEC0FFD1F858123893489232B76
:1018200071F082608583CE01DF91CF911F910F917E
:10183000FF90EF90BF90AF909F908F90089583603E
:10184000F1CF4F925F926F927F928F929F92AF9261
:10185000BF92CF92DF92EF92FF920F931F93CF939D
:10186000DF93EC018B0129013A01E881F981369778
:101870000190F081E02D3296E80FF91FC284D384E5
:10188000E484F584C418D508E608F70881819281BC
:101890008E709927049791F4460157011814190482
:1018A0001A041B04B4F1D701C601F7FE03C080E09F
:1018B00090E0DC01C81AD90AEA0AFB0AA3019201E6
:1018C000B801CE010E94CD0BE881F98136970190D5
:1018D000F081E02DEC0FFD1F838194818E7099279C
:1018E000029749F5E881F98136970190F081E02D62
:1018F0001C141D041E041F04F4F481E0C81AD1084E
:10190000E108F108EC0FFD1F6089CE010E94790B00
:10191000E9CF81E0881A9108A108B108E881F9812E
:1019200036970190F081E02DEC0FFD1F6089CE010C
:101930000E94790BB3CFE881F9813697808191813C
:10194000C80FD91F1C861D861E861F86DF91CF916A
:101950001F910F91FF90EF90DF90CF90BF90AF90CD
:101960009F908F907F906F905F904F900895FF921F
:101970000F931F93CF93DF931F92CDB7DEB78C01E8
:10198000F62EBC01CE0101960E949F0BD801ED916D
:10199000FC9136970190F081E02DE00FF11F8381DB
:1019A00084FF29C024E030E040E050E06FE273E0C3
:1019B000F11006C025E030E040E050E064E373E061
:1019C000C8010E94210CD801ED91FC91369701903D
:1019D000F081E02DE00FF11F8381948196FF03C019
:1019E000C8010E94540BC8010F90DF91CF911F9145
:1019F0000F91FF90089521E030E040E050E06AE36D
:101A000073E0F110DDCF6CE373E0DACFDC01ED9130
:101A1000FC9136970190F081E02DE80FF91F82EDDF
:101A200091E0918380838CED91E097838683089584
:101A300022ED31E0FC01318320832CED31E037834E
:101A400026830895FB0120813181FC0131832083AD
:101A5000FB014281538126503109F90120813181F6
:101A6000820F931FFC015183408308952EE032E0E2
:101A7000FC013183208328E132E0318F208F62E046
:101A800072E00C94220DDC01ED91FC9136972081DF
:101A90003181820F931F0C94360D0895DC01ED9176
:101AA000FC9136970190F081E02DE80FF91F8EEB45
:101AB00091E09183808388EC91E093838283089501
:101AC0002EEB31E0FC013183208328EC31E03383BD
:101AD00022830895FB0120813181FC013183208321
:101AE000FB014281538126503109F9012081318166
:101AF000820F931FFC015183408308952AE232E054
:101B0000FC013183208324E332E0358B248B6EE1AA
:101B100072E00C946A0DDC01ED91FC913697208106
:101B20003181820F931F0C947E0D0895FC0181E298
:101B300090E09483838315821682178286E090E07A
:101B4000A0E0B0E080879187A287B38714861586CE
:101B50001686178684EB91E09183808380E2808BE8
:101B6000128A118A748B638B158A08958038C9F0A4
:101B70008A3811F580913C0690913D06E09133063C
:101B8000F09134060280F381E02D0190F081E02D88
:101B9000608170E0DC01ED91FC910088F189E02D1D
:101BA000099480913C0690913D06DC01ED91FC91F9
:101BB0000684F785E02DF4CF089508950895CF9316
:101BC000DF9340919E0550919F056091A005709113
:101BD000A105452B462B472BC1F0EC018AE995E086
:101BE0000E94F805882389F010929E0510929F05A7
:101BF0001092A0051092A105E881F9810488F58969
:101C0000E02DCE01DF91CF910994DF91CF9108951E
:101C1000CF92DF92EF92FF920F931F93FB01DC01B3
:101C200000E010E098016A01F12CE12C0C151D0573
:101C30002E053F0538F461916D930F5F1F4F2F4FB5
:101C40003F4FF4CF840F951F1F910F91FF90EF909E
:101C5000DF90CF900895CF93DF93EB018881998136
:101C6000A8EAB5E011969C938E932A813B81069752
:101C7000EC01E881F981E855FA4F3183208312960F
:101C80001D921D921D921C92159781E290E0948303
:101C900083838EEA95E0948B838B1582158ADF917E
:101CA000CF910895DB012D913C911197FC01318377
:101CB000208312966D917C9126503109D901ED91C6
:101CC000FC91E80FF91F7183608381E290E09483B7
:101CD0008383548B438B1582158A08950C94092FA6
:101CE0000C94092F0C94092F0C94092F0C94092F94
:101CF0000C94092FCF93DF93EC010E947E0DCE014F
:101D0000DF91CF910C94092FDC01ED91FC91369776
:101D100020813181820F931F0C947A0ECF93DF9331
:101D2000EC010E94360DCE01DF91CF910C94092F6A
:101D3000DC01ED91FC91369720813181820F931F58
:101D40000C948E0E0C94092F0C94092FDC01ED914C
:101D5000FC91369720813181820F931F0C94A40E41
:101D60000C94092F0C94092FDC01ED91FC9136970E
:101D700020813181820F931F0C94B20E0C94092F95
:101D8000FC01808191810C94092F24EE31E0FC014B
:101D90003183208340960C94C00ECF93DF93EC01E7
:101DA0000E94C50ECE01DF91CF910C94092FCF93E5
:101DB000DF93EC0182EA91E0998388838CEA91E0D9
:101DC0009E8F8D8FCE0102960E94C50E66E971E04E
:101DD000CE01DF91CF910C946A0DDC01ED91FC9165
:101DE000369720813181820F931F0C94D70ECF93A9
:101DF000DF93EC010E94D70ECE01DF91CF910C94BE
:101E0000092FDC01ED91FC91369720813181820F01
:101E1000931F0C94F70ECF93DF93EC010E94DF0D1C
:101E2000CE0104960E94F805882381F00A80DB81A8
:101E3000C02D84E090E00E946D2EFC01D383C2830C
:101E40002EEB32E031832083988B8F87DF91CF9107
:101E50000895CF93DF93EC0188E090E09B838A8321
:101E60001D821C820E946D2E99838883DF91CF9101
:101E700008950F931F93CF93DF93EC018C010E5FB6
:101E80001F4FB8014D960E94960DA80166E971E0BA
:101E9000CE010E94520E82EA91E0998388838CEAF7
:101EA00091E09E8F8D8F1E821D8218861F821A865A
:101EB00019861C861B861E861D86188A1F86198A0F
:101EC00084EE91E09B838A83CE0142960E94290F83
:101ED0001A8E198E1C8E1B8E80E1898BDF91CF911B
:101EE0001F910F910895CF93DF93D0910C06C0916D
:101EF0000D0690930F0680930E06880F991F0E947F
:101F00006D2E80930C0690930D0620911006309153
:101F10001106FC01AD2FBC2F90E080E02817390797
:101F200059F0309729F04D915C911197518340837E
:101F3000019632961296F2CF8D2F9C2FDF91CF9182
:101F40000C94092F0F931F93CF93DF93EC018B0118
:101F500020910E0630910F062817390730F40896A5
:101F60002817390710F40E94730F80911006909182
:101F700011069C01220F331FE0910C06F0910D0613
:101F8000E20FF31F8C179D0750F4309729F0D8010A
:101F90002D913C913183208301963296F3CFD093DB
:101FA0001106C0931006DF91CF911F910F910895F4
:101FB0000F931F93CF93DF9300D0CDB7DEB79A83F3
:101FC00089838CE096E00E943D0610E000E02091BD
:101FD00015063091160602171307B4F42091100667
:101FE00030911106C90101962817390740F4BE0146
:101FF0006F5F7F4F0E94A20F0F5F1F4FE8CF1092BD
:10200000110610921006F8CF89819A81289FA001AD
:10201000299F500D389F500D112450931406409362
:10202000130690931C0680931B060F900F90DF9170
:10203000CF911F910F9108950F931F93CF938C0110
:10204000C62F80919A0481112FC08CE090E090936C
:1020500096048093950484E090E090939804809394
:1020600097048CE090E00E946D2E909394048093EE
:102070009304E0E7F1E0CF0180579140A0919304F1
:10208000B09194042091970430919804821793079B
:1020900040F4A80FB91F109711F080818C933196EE
:1020A000EACF81E080939A04E0919304F091940444
:1020B00080919704909198048E0F9F1FE817F9075D
:1020C00058F421912C13FACF80E2C8276DE7F8016C
:1020D000808191810E94A2026C2FF8018081918100
:1020E000CF911F910F910C94A202AF92BF92CF9209
:1020F000DF92EF92FF920F931F93CF93DF9300D065
:1021000000D000D01F92CDB7DEB78C016B01DC018F
:1021100018968D919C919E838D8308969C838B83CA
:102120000E946D2E9A83898390E080E02D813E810C
:102130008217930788F4E981FA81E80FF91F309735
:1021400049F0D80114962D913C91D901A80FB91FDF
:102150002C9120830196EACFF601E480F580FBE024
:10216000EF0EF11C6EE7D8018D919C910E94A202A6
:102170006F2DC8010E941C106E2DC8010E941C10FA
:1021800060E0C8010E941C10F801F684F394FF205F
:10219000F1F0F6866F2DC8010E941C10F801A48092
:1021A000B580D80114968D919C91159718962D9114
:1021B0003C91820F931FA816B90670F4F501E190C7
:1021C0005F016E2DC8010E941C10FE0CEACF81E059
:1021D0008687FF24F394DECF60E0C8010E941C10C4
:1021E000D601AD90BC90F60180819181248135812A
:1021F000820F931FA816B90648F4D501ED905D0132
:102200006E2DC8010E941C10FE0CEDCF6F2D609545
:10221000C8010E941C10CE0101960E94C00E279694
:102220000FB6F894DEBF0FBECDBFDF91CF911F91E7
:102230000F91FF90EF90DF90CF90BF90AF900895F7
:10224000CF93DF93FC01C281D38184E090E00E94B0
:102250006D2EFC01D383C2832AE832E031832083D0
:10226000988B8F87DF91CF910895CF93DF93FC01F7
:10227000C281D38184E090E00E946D2EFC01D38363
:10228000C2832EEB32E031832083988B8F87DF91DE
:10229000CF9108950F931F93CF93DF93EC018B01A0
:1022A00040E25EE460E070E08AE995E00E94240686
:1022B0000230110581F40A80DB81C02D84E090E0BA
:1022C0000E946D2EFC01D383C28320E732E031836C
:1022D0002083988B8F87DF91CF911F910F91089565
:1022E000CF93DF93FC01C281D38184E090E00E9410
:1022F0006D2EFC01D383C2832AE832E03183208330
:10230000988B8F87DF91CF910895CF93DF93FC0156
:10231000C281D38184E090E00E946D2EFC01D383C2
:10232000C2832EEB32E031832083988B8F87DF913D
:10233000CF910895CF93DF93FC01C281D38184E0D4
:1023400090E00E946D2EFC01D383C2832AE832E024
:1023500031832083988B8F87DF91CF9108950F93DE
:102360001F93CF93DF93EC01CB01088119817B830D
:102370006A830E946D2E99838883F801CF01801BA8
:10238000910B2C813D818217930750F4A881B9816C
:10239000A80FB91F109711F080818C933196EECF62
:1023A000C801DF91CF911F910F910C94092FEF92EB
:1023B000FF920F931F93CF93DF93EC018C819D814C
:1023C0008617970740F57A018B018A819B818617D2
:1023D000970740F4685F7F4F8617970718F4CE0180
:1023E0000E94AF118C819D818017910758F4E8817C
:1023F000F981E80FF91F309719F0D7012C9120834C
:102400000196F2CF1D830C83DF91CF911F910F9125
:10241000FF90EF90089568177907B0F77D836C837C
:10242000F3CFCF92DF92EF92FF920F931F93CF9350
:10243000DF931F92CDB7DEB78C0186EAC82E87E006
:10244000D82EF601E480F580F801648175816E0D67
:102450007F1D1982AE014F5F5F4FC6010E94D711E9
:10246000F8014481558160817181F60180819181FB
:102470008E0D9F1D0E94080EC6010F90DF91CF9117
:102480001F910F91FF90EF90DF90CF900895CF9321
:10249000DF931F92CDB7DEB786EA97E00E943D0634
:1024A0001982AE014F5F5F4F63E070E086EA97E00C
:1024B0000E94D71143E050E06EE373E08091A607DD
:1024C0009091A7070E94080E0F90DF91CF91089579
:1024D000AF92BF92CF92DF92EF92FF920F931F9332
:1024E000CF93DF931F92CDB7DEB78C0159016A01FC
:1024F000AC14BD04D1F1F60181916F018983F8011B
:10250000808191817B01E81AF90A648175816F5F8E
:102510007F4FAE014F5F5F4FC8010E94D711F80196
:102520002481358121503109F80180819181E216A1
:10253000F30668F4A90141505109FC01E40FF51FAD
:102540006081820F931FFC0160839A01EDCF298186
:102550008E0D9F1DFC012083FFEFEF1AFF0AF8018B
:10256000608171816E0D7F1DC3CF0F90DF91CF9180
:102570001F910F91FF90EF90DF90CF90BF90AF90A1
:102580000895EF92FF920F931F93CF93DF931F92C3
:10259000CDB7DEB78C017B010E943D06F701648157
:1025A00075811982AE014F5F5F4FC8010E94D7113C
:1025B000F7014481558160817181F80180819181A9
:1025C0000E94080E0F90DF91CF911F910F91FF9005
:1025D000EF900895CF93DF93EC0142966817790747
:1025E00011F00E94C1121A8E198E898981FF13C0C1
:1025F0008E899F899C8F8B8FE881F98136978081A6
:102600009181C80FD91F8B899C89892B39F01D8234
:10261000DF91CF9108951C8E1B8EEECF81E08D83CC
:10262000F7CFEF92FF920F931F93CF93DF931F92F9
:10263000CDB7DEB7FC01822F8870922F9071287180
:10264000283131F4423009F03FC08FEF9FEF23C0B3
:10265000413049F58B012489358920173107A8F3CA
:10266000882311F0108F078B9923A1F07F01198225
:10267000AE014F5F5F4FB801CF0140960E94D71166
:10268000F701848995892789308D8217930710F483
:10269000908F878BC8010F90DF91CF911F910F9181
:1026A000FF90EF900895423089F404891589060F50
:1026B000171F911102C010E000E0882361F2078922
:1026C000108D060F171FC7CF413021F204891589DD
:1026D000F8CFAB01FC01648175816F5F7F4F0C9473
:1026E000D711CF93DF93EC0186EA97E00E943D0675
:1026F000CE0107960E941112BE01625F7F4F86EAEB
:1027000097E0DF91CF910C946913EF92FF920F93B2
:102710001F93CF93DF9300D01F92CDB7DEB78C010C
:1027200080917A04811107C083E794E00E94290F09
:1027300081E080937A0483E794E00E943D06E09074
:102740007704F09078041A82B7016E5F7F4FAE0174
:102750004E5F5F4F83E794E00E94D711809173042E
:102760009091740442E050E061E773E08E0D9F1D8C
:102770000E94080ED8011696ED91FC9117971496B9
:102780008D919C9115979C012F5F3F4F15963C931F
:102790002E931497E80FF91F80818B83882309F407
:1027A00041C08C32B9F564E670E080E090E00E94B0
:1027B00040058DE08983BE016F5F7F4F83E794E022
:1027C0000E946913D8011296ED91FC91808191814C
:1027D000409177045091780460917304709174046F
:1027E000DC01ED91FC910280F381E02D099548E830
:1027F00053E160E070E08AE995E00E94240681E000
:102800000F900F900F90DF91CF911F910F91FF903C
:10281000EF900895BE016D5F7F4F83E794E00E94C3
:102820006913A8CF80E0ECCFCF93DF93EC0148E8A9
:1028300053E160E070E08AE995E00E942406CE0151
:10284000DF91CF910C948513EF92FF920F931F931A
:10285000CF93DF931F92CDB7DEB78C017B016F3F23
:10286000760779F1D8011F968C911F9784FF2CC0B1
:1028700059968D919C915A9754962D913C915597CC
:1028800082179307B8F06983BE016F5F7F4FC8015D
:1028900040960E946913F801818D928D0196928F66
:1028A000818FC7010F90DF91CF911F910F91FF9002
:1028B000EF9008955096ED91FC91E80FF91F608319
:1028C000EACFF12CE12CEDCFEE24EA94FE2CE9CFF7
:1028D0000F931F93CF93DF93EC01CB0108811981F4
:1028E0007B836A830E946D2E99838883F801CF01D0
:1028F000801B910B2C813D818217930750F4A88196
:10290000B981A80FB91F109711F080818C9331966F
:10291000EECFC801DF91CF911F910F910C94092F39
:10292000EF92FF920F931F93CF93DF93EC018B01F4
:102930007A018A819B818617970740F4685F7F4FF1
:102940008617970718F4CE010E9468148C819D8128
:102950008017910758F4E881F981E80FF91F309743
:1029600019F0D7012C9120830196F2CF1D830C839F
:10297000DF91CF911F910F91FF90EF900895AF924B
:10298000BF92CF92DF92EF92FF921F93CF93DF938C
:10299000EC017B016C0184E0C80ED11CC6010E94D1
:1029A0003D0619E01150A9F057018FEFA81AB80A97
:1029B00088859985BC016F5F7F4F8617970730F434
:1029C000A701C6010E9490147501ECCF19861886E4
:1029D000FBCFDF91CF911F91FF90EF90DF90CF90D1
:1029E000BF90AF900895EF92FF920F931F93CF93F4
:1029F000DF9300D000D000D01F92CDB7DEB78C019E
:102A0000DC011296ED90FC9080E190E09C838B833A
:102A100088E090E09E838D8380E190E00E946D2E9F
:102A20009A838983E8E6F1E0CF0188569140698175
:102A30007A812D813E818217930750F4680F791FA8
:102A40006115710519F08081DB018C933196ECCF13
:102A5000C7010E94BF14CE0101960E94C00ED8018A
:102A60001296ED91FC9181E0858702811381F80136
:102A700015821482828193810E943D06D8011696A8
:102A80001C92169717961C92179719961C921E92D5
:102A900018978FEF1A968C9340E25EE460E070E046
:102AA0008AE995E00E94240627960FB6F894DEBFC7
:102AB0000FBECDBFDF91CF911F910F91FF90EF908F
:102AC0000895CF92DF92EF92FF920F931F93CF93CF
:102AD000DF931F92CDB7DEB78C017B016A010E94A4
:102AE000290F8FEFC816D80611F40E942933F70179
:102AF0008081181684F41982AE014F5F5F4FB601D2
:102B0000C8010E94D711F80144815581B701808125
:102B100091810E94080E0F90DF91CF911F910F912C
:102B2000FF90EF90DF90CF900895EF92FF920F9378
:102B30001F93CF93DF931F92CDB7DEB78C017B013C
:102B40000E94290FF701648175811982AE014F5FE0
:102B50005F4FC8010E94D711F80144815581F701E8
:102B600060817181F801808191810E94080E0F902F
:102B7000DF91CF911F910F91FF90EF9008950F93E8
:102B80001F93CF93DF93CDB7DEB7EB970FB6F894D3
:102B9000DEBF0FBECDBF8C0160E1CE0101960E9469
:102BA000390F6AE3CE0101960E94B20BF80124812D
:102BB000358150E040E0608171810E94CD0B63E27D
:102BC0000E94B20B0091060610910706AE01455C0B
:102BD0005F4FBE016D5E7F4FCE01C4960E9495157A
:102BE000BE016C5C7F4FC8010E947510CE01C49677
:102BF0000E94C00ECE0101960E94D70EEB960FB632
:102C0000F894DEBF0FBECDBFDF91CF911F910F9122
:102C10000895EF92FF920F931F93CF93DF931F922C
:102C2000CDB7DEB78C017B01BC01CE0101960E94BD
:102C30009F0BF70101900020E9F73197EE19FF098A
:102C40009F0150E040E0B701C8010E94210CC8017B
:102C50000F90DF91CF911F910F91FF90EF9008950A
:102C6000AF92BF92CF92DF92EF92FF920F931F939A
:102C7000CF93DF931F92CDB7DEB77C016B010E942B
:102C8000290FF60101900020E9F731978F010C1907
:102C90001D09F701A480B5801982B8016A0D7B1D5A
:102CA000AE014F5F5F4FC7010E94D711F7018081CE
:102CB0009181A801B6018A0D9B1D0E94080E0F90FC
:102CC000DF91CF911F910F91FF90EF90DF90CF9008
:102CD000BF90AF900895CF93DF93CDB7DEB728971D
:102CE0000FB6F894DEBF0FBECDBFAE01485F5F4F99
:102CF00062E473E0CE0101960E943016CE01019687
:102D00000E94BF15CE0101960E94C00E28960FB6F4
:102D1000F894DEBF0FBECDBFDF91CF910895CF9362
:102D2000DF93CDB7DEB728970FB6F894DEBF0FBE9E
:102D3000CDBFAE01485F5F4F68E473E0CE010196FE
:102D40000E943016CE0101960E94BF15CE01019659
:102D50000E94C00E28960FB6F894DEBF0FBECDBFFE
:102D6000DF91CF9108950F931F93CF93DF93CDB74A
:102D7000DEB728970FB6F894DEBF0FBECDBF8C012B
:102D8000DC011296ED91FC911586808191810E9463
:102D90004301F80102811381AE01485F5F4F6DE48A
:102DA00073E0CE0101960E943016D8018D919C915E
:102DB0004D815E8169817A81DC01ED91FC91028017
:102DC000F381E02D0995CE0101960E94C00E40EBE3
:102DD00054E060E070E08AE995E00E9424062896BD
:102DE0000FB6F894DEBF0FBECDBFDF91CF911F911C
:102DF0000F9108950F931F93CF93DF931F92CDB739
:102E0000DEB78C018091890481110CC0AE014F5F47
:102E10005F4F61E573E082E894E00E94301681E044
:102E20008093890462E874E0F801828193810E94B2
:102E3000751040E45FE160E070E08AE995E00E948F
:102E4000240648EB5BE060E070E0C80104960E9455
:102E500024060F90DF91CF911F910F9108950F934A
:102E60001F93CF93DF931F92CDB7DEB78C01AE01D6
:102E70004F5F5F4F68E573E00E943016C8010F9006
:102E8000DF91CF911F910F9108950F931F93CF93CF
:102E9000DF931F92CDB7DEB78C01AE014F5F5F4F5E
:102EA00066E673E00E943016C8010F90DF91CF9163
:102EB0001F910F9108950F931F93CF93DF931F924C
:102EC000CDB7DEB78C0148EB5BE060E070E08AE9EB
:102ED00095E00E94240680916B0481110CC0AE0124
:102EE0004F5F5F4F61E573E084E694E00E94301627
:102EF00081E080936B0464E674E0F8018281938141
:102F00000E9475100F90DF91CF911F910F9108953E
:102F10000F931F93CF93DF931F92CDB7DEB78C0132
:102F2000AE014F5F5F4F6DE673E00E943016C8013F
:102F30000F90DF91CF911F910F9108950F931F93E1
:102F4000CF93DF931F92CDB7DEB78C01AE014F5FF9
:102F50005F4F64E773E00E943016C8010F90DF9165
:102F6000CF911F910F9108950F931F93CF93DF93EC
:102F70001F92CDB7DEB78C01AE014F5F5F4F6BE79D
:102F800073E00E943016C8010F90DF91CF911F911E
:102F90000F9108950F931F93CF93DF931F92CDB797
:102FA000DEB78C01AE014F5F5F4F66E873E00E94B1
:102FB0003016C8010F90DF91CF911F910F910895A6
:102FC000EF92FF920F931F93CF93DF93CDB7DEB7AE
:102FD00064970FB6F894DEBF0FBECDBF8C01DC0145
:102FE000ED91FC9136970190F081E02DE80FF91FEB
:102FF0008381948185FD58C086FF3FC092FF57C0F2
:1030000080E993E07F936F935F934F939F938F93A8
:103010001F9284E18F939E012F5F3F4F79013F9371
:103020002F930E944E339C01990F440B550BB7010F
:10303000C8010E94210CD801ED91FC9136970190B6
:10304000F081E02DE00FF11F838194810FB6F89499
:10305000DEBF0FBECDBF96FF03C0C8010E94540B58
:1030600064960FB6F894DEBF0FBECDBFDF91CF914F
:103070001F910F91FF90EF90089587FF1BC09C0157
:103080002227307292FF08C089E993E0232B09F0D0
:10309000B9CF8EE993E0B6CF83EA93E0232B09F012
:1030A000B1CF87EA93E0AECF8CE893E0ABCF85E970
:1030B00093E0A8CF90E080E0A5CF8F929F92AF924F
:1030C000BF92CF92DF92EF92FF920F931F93CF9315
:1030D000DF93CDB7DEB728970FB6F894DEBF0FBEEB
:1030E000CDBF80914205811108C060E18FE095E07D
:1030F0000E94390F81E08093420580913F059091B5
:103100004005892B09F4B7C010923105AE01485F24
:103110005F4F60E573E0CE0101960E943016BE015C
:103120006F5F7F4F8FE095E00E94EA12CE0101961B
:103130000E94C00E6AE38FE095E00E94B20B6BEA3A
:1031400073E00E9409166CE20E94B20B8C01809120
:10315000000690910106DC01ED91FC910284F3855B
:10316000E02D09954B015C01B801CE0101960E944A
:103170009F0B88E0C82ED12CE12CF12CC501B401A5
:10318000A70196010E940433BA01A901C8010E9457
:10319000E0176CE2C8010E94B20B8C01E0910006BE
:1031A000F09101060280F381E02D608171818281BE
:1031B0009381A70196010E94043369017A01B80145
:1031C000CE0101960E949F0BB701A601C8010E9483
:1031D000E0176CE2C8010E94B20B8C01E09104067A
:1031E000F091050680810E94930461E0892B09F02B
:1031F00060E0C8010E94B70C6CE20E94B20B8C0127
:10320000E0910406F091050681810E94930461E03B
:10321000892B09F060E0C8010E94B70C63E20E94AC
:10322000B20B0091060610910706AE01485F5F4F92
:1032300061E275E0CE0101960E949515BE016F5FB7
:103240007F4FC8010E947510CE0101960E94C00EEA
:1032500028960FB6F894DEBF0FBECDBFDF91CF9199
:103260001F910F91FF90EF90DF90CF90BF90AF90A4
:103270009F908F90089581E08093310547CF109201
:10328000AB040C945D18CF92DF92EF92FF92CF9334
:10329000DF93CDB7DEB7EB970FB6F894DEBF0FBE66
:1032A000CDBF6A017B010E94711360E1CE010196DE
:1032B0000E94390FBE016F5F7F4FCE01C4960E94FE
:1032C0009F0BB701A601CE0101960E94E017AE0147
:1032D000455C5F4FBE016D5E7F4FCE01C4960E947C
:1032E0009515CE01C4960E941112CE01C4960E947B
:1032F000C00ECE0101960E94D70EEB960FB6F89441
:10330000DEBF0FBECDBFDF91CF91FF90EF90DF907A
:10331000CF9008952F923F924F925F926F927F923B
:103320008F929F92AF92BF92CF92DF92EF92FF92D5
:103330000F931F93CF93DF9300D000D0CDB7DEB7AC
:103340009C838B83DC01ED91FC910484F585E02D59
:103350000995882309F408C12FB7F8946091A30454
:103360007091A4048091A5049091A6042FBFEB81D5
:10337000FC81878C90A0A1A0B2A00785108921892B
:103380003289601B710B820B930B0E94713120E01C
:1033900030E04AE754E40E94C930A50194010E943C
:1033A0002832AB81BC8153962D913D914D915C911A
:1033B00056970E9458306B017C01EB81FC810280A2
:1033C000F381E02DFA83E98344805580668077801D
:1033D000AB81BC8193963C90939794962C90949754
:1033E00095960C91959796961C9196971B966D9134
:1033F0007D918D919C911E97641975098609970995
:1034000097FF07C090958095709561957F4F8F4F7E
:103410009F4F0E9471312B013C01C501B4019F7780
:103420009B01AC010E9458309B01AC01C301B20169
:103430000E9428324B015C01232D322DA801632DFF
:10344000722DC8010E9428329B01AC01C501B40154
:103450000E9458300E949B324B015C01EB81FC8141
:1034600061857285072E000C880B990B0E947331C1
:103470002B013C01AC019B01C501B4010E94283223
:103480004B015C0120E030E0A901C701B6010E94B8
:103490002332181624F0F7FAF094F7F8F09420E0AD
:1034A00030E0A901C501B4010E942332181624F0AE
:1034B000B7FAB094B7F8B094A5019401C701B6016A
:1034C0000E94C43087FD02C075016401232D322D96
:1034D000A801C701B6010E94C43087FD42C0A9817E
:1034E000BA811A966D917C9190E080E00E947131D2
:1034F0005B018C019B01AC01C701B6010E94233224
:10350000181614F465017801A3019201C701B601F0
:103510000E942832EB81FC81678B708F818F928FA4
:1035200087819085DC01ED91FC910480F581E02D8F
:10353000B701A6010F900F900F900F90DF91CF91E0
:103540001F910F91FF90EF90DF90CF90BF90AF90C1
:103550009F908F907F906F905F904F903F902F90B3
:103560000994C32CD22CCFCF0F900F900F900F90B7
:10357000DF91CF911F910F91FF90EF90DF90CF904F
:10358000BF90AF909F908F907F906F905F904F9083
:103590003F902F900895AF92BF92CF92DF92EF921B
:1035A000FF920F931F93CF93DF93CDB7DEB728978A
:1035B0000FB6F894DEBF0FBECDBF5C016B01AE014C
:1035C000485F5F4F6FEA73E0CE0101960E943016AC
:1035D000D6011496ED90FC900D811E81A7010E1569
:1035E0001F0508F4A80169817A81F6018081918123
:1035F0000E944033DD24D394892B39F4E016F10680
:1036000008F0D12C0E151F0588F1CE0101960E94FD
:10361000C00ED1101AC0D50112960D911C9188E0F0
:1036200090E00E946D2EFC011383028384EA92E0F5
:103630009183808382EB93E0978386831582148243
:10364000D8015096FC93EE931F9728960FB6F894E6
:10365000DEBF0FBECDBFDF91CF911F910F91FF90C5
:10366000EF90DF90CF90BF90AF900895DD24D3947A
:10367000CCCF0F931F93CF93DF93EB0109900020E2
:10368000E9F72197C61BD70BFC0104811581AE0118
:103690000C171D0708F4A801FC01808191810E948C
:1036A0004033892B11F080E004C081E0C017D107BE
:1036B000D1F7DF91CF911F910F910895CF93DF93B1
:1036C000EC01CB016FEA73E00E94391B8823C1F043
:1036D000CE010E948513811110C00A80DB81C02DAC
:1036E00084E090E00E946D2EFC01D383C28326E526
:1036F00032E031832083988B8F87DF91CF910895BB
:103700000A80DB81C02D84E090E00E946D2EFC01D8
:10371000D383C2832EEB32E0ECCFAF92BF92CF9235
:10372000DF92EF92FF920F931F93CF93DF9300D01E
:1037300000D000D01F92CDB7DEB75C017B01DB016A
:103740000D911C9111971496CD90DC90C00ED11E56
:1037500088E090E09C838B831E821D820E946D2EE8
:103760009A838983CE0101960E943D06A801465F97
:103770005F4F69817A819601CE0101960E9468129D
:1037800064E074E0CE0101960E94391B882321F188
:10379000F70160817181D50112968D919C910E94F3
:1037A000BF14F501028113818CE090E00E946D2E20
:1037B000FC01138302838CE392E091838083148263
:1037C0001582168217821086118612861386D801FA
:1037D0005096FC93EE931F97CE0101960E94C00E67
:1037E00027960FB6F894DEBF0FBECDBFDF91CF9105
:1037F0001F910F91FF90EF90DF90CF90BF90AF900F
:1038000008950F931F93CF93DF93CDB7DEB7CE54B8
:10381000D1090FB6F894DEBF0FBECDBF8C01CE012B
:1038200001960E94BB08CE0188960E94BB0847E221
:1038300050E070E060E0CE0188960E949C2F88A541
:1038400099A58B3F9A4439F42F968EAD9FAD2F9753
:103850008B3F9A44A9F087E2FE013196D80101908E
:103860000D928A95E1F7C801C25BDF4F0FB6F8945D
:10387000DEBF0FBECDBFDF91CF911F910F91089595
:103880008AA5843041F787E2FE01B896E7CF8F9290
:103890009F92AF92BF92CF92DF92EF92FF920F93DF
:1038A0001F93CF93DF93CDB7DEB7CF54D1090FB6B7
:1038B000F894DEBF0FBECDBF7C018C01095F1F4FA6
:1038C00068E074E0C8010E94391B882359F0E09138
:1038D0000206F09103064485558570E060E0C7015B
:1038E0000E9443196BE074E0C8010E94391B8823D1
:1038F00069F0F70187859089A189B289843691059D
:10390000A105B1050CF0D0C10E9447126EE074E031
:10391000C8010E94391B882359F0E0910206F091FA
:103920000306438D548D70E060E0C7010E94431987
:1039300061E174E0C8010E94391B882351F0E091D5
:103940000206F0910306D7011F968D919C91948FEA
:10395000838F64E174E0C8010E94391B8823D1F091
:10396000E0910406F091050681810E949304892B61
:1039700089F00E946B168091000690910106DC018F
:10398000ED91FC910084F185E02D48E15CEF6FEF53
:103990007FEF099567E174E0C8010E94391B882315
:1039A000A1F0AE01485D5F4F6AE174E0CE0101967F
:1039B0000E943016C7010E947113CE0101960E9429
:1039C0001112CE0101960E94C00E68E274E0C80197
:1039D0000E94391B882361F1E0910406F0910506ED
:1039E00080810E949304892B19F1E0910806F091DF
:1039F0000906A5A1B6A12189328919968D919C91BC
:103A000028173907A8F00E948F1680910006909120
:103A10000106E0910206F09103064481558166811A
:103A20007781DC01ED91FC910084F185E02D099511
:103A30006BE274E0C8010E94391B8823B1F08091C9
:103A4000000690910106DC01ED91FC910284F38562
:103A5000E02D099528E030E040E050E00E9404337A
:103A6000BA01A901C7010E9443196EE274E0C801BE
:103A70000E94391B8823B9F0F70187859089A189B5
:103A8000B28953E0880F991FAA1FBB1F5A95D1F71F
:103A9000E0910006F09101060280F381E02D84831D
:103AA0009583A683B78361E374E0C8010E94391B44
:103AB0008823B1F0E0910006F09101060280F381C5
:103AC000E02D608171818281938128E030E040E0C7
:103AD00050E00E940433BA01A901C7010E944319B2
:103AE00064E374E0C8010E94391B8823B9F0E091B7
:103AF0000006F091010622813381F70187859089C4
:103B0000A189B28943E0880F991FAA1FBB1F4A955C
:103B1000D1F7F90180839183A283B38367E374E0D3
:103B2000C8010E94391B882331F00E945D1886EA83
:103B300097E00E943D066AE374E0C8010E94391BC9
:103B4000882359F08091000690910106DC01ED91E7
:103B5000FC910280F381E02D09956DE374E0C801CA
:103B60000E94391B8823A9F0E0910006F09101061C
:103B70000280F381E02D4285538570E060E093E0A0
:103B800075956795579547959A95D1F7C7010E9406
:103B9000431960E474E0C8010E94391B8823F9F0DE
:103BA000F70187849088A188B28883E0880C991CEB
:103BB000AA1CBB1C8A95D1F7E0900006F090010684
:103BC000D70193966D917D918D919C9196970E94CE
:103BD00042318616970608F071C00E94471263E4CE
:103BE00074E0C8010E94391B8823E1F0CE010196E0
:103BF0000E94BB08809102069091030627E2FE0115
:103C00003196DC0101900D922A95E1F747E250E0F0
:103C100070E060E00E94AC2F6BEF7AE48EE490E0FD
:103C20000E94CE2F66E474E0C8010E94391B8823ED
:103C300081F0E0900206F0900306CE0189960E9482
:103C4000011C87E2FE01B996D70101900D928A9579
:103C5000E1F769E474E0C8010E94391B882381F010
:103C600047E250E070E060E0809102069091030628
:103C70000E94AC2F6BEF7AE48EE490E00E94CE2F8E
:103C8000C15BDF4F0FB6F894DEBF0FBECDBFDF9133
:103C9000CF911F910F91FF90EF90DF90CF90BF9049
:103CA000AF909F908F900895E0910006F0910106EB
:103CB0000280F381E02D9187808728CED70112966C
:103CC000ED91FC91938682868ACFCF93DF93EC01AE
:103CD0000E9471138E85833529F4CE01DF91CF9137
:103CE0000C94471CDF91CF9108952F923F924F92F1
:103CF0005F926F927F928F929F92AF92BF92CF927C
:103D0000DF92EF92FF920F931F93CF93DF93CDB784
:103D1000DEB72C970FB6F894DEBF0FBECDBF6C0197
:103D200029013A01FC01A18CB28C9E01265F3F4F14
:103D3000A201CE0101960E946115F601E488F58882
:103D4000EA14FB0410F40E94293317012A183B08D7
:103D500082012414350408F481018D809E80E01ACC
:103D6000F10AC40180959095E816F90660F7E80C11
:103D7000F91CC60140969C878B870815190538F4F5
:103D80001886AE01485F5F4FB7010E94D711F60158
:103D900080899189A101401B510BB501600F711FF2
:103DA000680F791F9501280D391D820F931F0E94FE
:103DB0002E3369817A81F60180899189A4018A0D67
:103DC0009B1D0E94080E1986AE01475F5F4FB70129
:103DD0008B859C850E94D711CE0101960E94C00E52
:103DE000F601818D928D840D951D928F818FC30177
:103DF000B2012C960FB6F894DEBF0FBECDBFDF9197
:103E0000CF911F910F91FF90EF90DF90CF90BF90D7
:103E1000AF909F908F907F906F905F904F903F906A
:103E20002F900895AF92BF92CF92DF92EF92FF92C0
:103E30000F931F93CF93DF93CDB7DEB728970FB6BD
:103E4000F894DEBF0FBECDBF7C018B010E94290F0D
:103E5000570187E0A80EB11CC5010E94290FD801A7
:103E60001496CD90DC90E016F10621F0B801C70160
:103E70000E94C112F7011786108A118A128AD8018E
:103E80006D917C916F5F7F4FC5010E946913B3E014
:103E9000CB16D104B0F480E3F7018687F6E0CF16A5
:103EA000D104E8F1D801ED91FC91119784818C3215
:103EB000B1F514964D915C914530510598F40E94EE
:103EC0002933F801608171816E5F7F4FC5010E94C7
:103ED0006913F3E0CF16D104F1F2D801ED91FC9112
:103EE0008381DACF45505109BF016B5F7F4F9E013F
:103EF000285F3F4FCE0101960E9461154AE050E0D5
:103F000070E060E089819A810E94122DF701678735
:103F1000708B818B928BCE0101960E94C00E2896E9
:103F20000FB6F894DEBF0FBECDBFDF91CF911F91CA
:103F30000F91FF90EF90DF90CF90BF90AF900895DA
:103F40008F929F92AF92BF92CF92DF92EF92FF92A9
:103F50000F931F93CF93DF93CDB7DEB76A970FB65A
:103F6000F894DEBF0FBECDBFDB011496AD90BC90C0
:103F7000BAE0AB16B10408F448C08B017C01FB0128
:103F8000C080D18046018A0C9B1C88E090E09F8B0A
:103F90008E8B198E188E0E946D2E9D8B8C8BCE0170
:103FA00044960E943D06A601465F5F4F6C897D895D
:103FB0009401CE0144960E946812FAE0AF16B10453
:103FC000B9F1D801ED91FC918285803489F5BE016B
:103FD0006C5E7F4FCE0101960E94121FCE010196AA
:103FE0000E94651E66EA77E0F701828193810E9454
:103FF0007510CE0108960E94C00ECE0101960E9457
:10400000C00ECE0144960E94C00E6A960FB6F89478
:10401000DEBF0FBECDBFDF91CF911F910F91FF90FB
:10402000EF90DF90CF90BF90AF909F908F900895CA
:1040300064E074E0CE0144960E94391B882309F3A2
:10404000D70118961D921D921D921C921B9740E459
:104050005FE160E070E08AE995E00E942406D1CF3C
:104060001F920F920FB60F9211248F939F938091FE
:10407000E1009091E100937F9093E10083FF0FC0F6
:104080001092E90091E09093EB001092EC0092E323
:104090009093ED0010920E0598E09093F00082FF4F
:1040A00022C093E09093E9009091F200992319F0D7
:1040B0009AE39093E8009091FF04992341F0909146
:1040C000FF0491509093FF04911101C05D9A90916B
:1040D0000D05992341F090910D05915090930D0598
:1040E000911101C0289A84FF18C08091E2008E7E51
:1040F00081608093E2008091E1008F7E8093E100F7
:104100008091FE048E7E80618093FE049F918F914A
:104110000F900FBE0F901F90189580FFF7CF8091E2
:10412000E2008E7E80618093E2008091E1008E7ECD
:104130008093E1008091FE048E7E8160E5CF1F9226
:104140000F920FB60F921124CF92DF92EF92FF924F
:104150000F931F932F933F934F935F936F937F938F
:104160008F939F93AF93BF93EF93FF93CF93DF937F
:10417000CDB7DEB76C97DEBFCDBF1092E90080915E
:10418000E80083FF25C068E0CE0145960E949502B5
:1041900082EF8093E8008D8987FF39C09091E80015
:1041A00090FFFCCF982F907609F034C19E894F89FB
:1041B000588D2F89F88C911131C0803861F580912C
:1041C000FD048093F1001092F1008EEF8093E800DF
:1041D0006C960FB6F894DEBF0FBECDBFDF91CF91C6
:1041E000FF91EF91BF91AF919F918F917F916F91CF
:1041F0005F914F913F912F911F910F91FF90EF9001
:10420000DF90CF900F900FBE0F901F9018959EEFEC
:104210009093E800C7CF1092F100D5CF913059F4B8
:104220008111D3CF4130510581F68091FD048D7FFE
:104230008093FD04CACF933049F48111C6CF413039
:10424000510519F68091FD048260F2CF953041F45A
:104250008091E80080FFFCCF20682093E300B5CF79
:10426000963009F0A9C00B8D1C8D22E01092E90058
:104270001092FB041092FA04F2122EC01092F9046C
:104280001092F8040E9464021F8299E09983FA82D6
:1042900091E09E8390EA98879AEF99872091FA049B
:1042A0003091FB04275F3F4F3C832B838D8310921B
:1042B000E9001092FB041092FA041093F9040093A1
:1042C000F80449E050E0BE016F5F7F4F80E00E943C
:1042D0003E020E94640279CF1093F9040093F8041F
:1042E0000E94FC01DC0112960D911C910115110533
:1042F00009F451C1D801ED91FC910480F581E02DC4
:10430000BE016B5E7F4FC8010995009709F03EC161
:10431000F80100851185EACFF3E0FF120EC08F8906
:10432000882309F440C0823061F440E860E183EA08
:1043300091E00E947124811148CF81E28093EB00CB
:1043400047CF813029F440E86BE087E991E0F1CF75
:10435000833099F70E94FC01DC011296ED90FC90ED
:104360008E010F5F1F4F6801E114F10479F0D7014E
:10437000ED91FC910680F781E02DB801C701099508
:10438000080F111DF701E084F184EECFD8011C92D3
:10439000F60101900020E9F73197BF016C197D0902
:1043A00040E0C601C6CF61E871E0FB01449150E0F6
:1043B00080E80E943E0209CF973009F4BECF9830C2
:1043C00021F481E08093F10000CF993009F0FDCE17
:1043D000837009F0B2CFE5EDF2E081E031E096E3E1
:1043E0002191222371F08093E9003093EB00DF01EB
:1043F00011972C912093EC009093ED008F5F873004
:1044000079F78EE78093EA001092EA008F89809313
:104410000E05DBCE8B8D9C8D1092E9001092FB0473
:104420001092FA049093F9048093F804898D811115
:1044300092C08E899D89913A49F4813209F07DCFED
:1044400047E050E066E071E080E0B3CF913209F0E0
:1044500074CF833269F48F89988DB0E0A0E08093A7
:10446000020190930301A0930401B0930501ADCE26
:10447000803269F48091E80082FFFCCF67E086E03B
:1044800091E00E9495028BEF8093E8009ECE8232ED
:1044900009F09BCE8F8980930D01EEEFFFE78591A8
:1044A00094918B3F9C4D51F1E0E0F8E08091060142
:1044B00090910701A0910801B0910901803B9440BF
:1044C000A105B105F1F480910D0180FD1AC0EE3F08
:1044D0008AE0F80789F587E797E7918380838091E1
:1044E00060008093FC0488E19BE00FB6F894A895E7
:1044F000809360000FBE9093600067CEEEEFFAE00D
:10450000D5CF808191818737974709F05ECEA895F6
:10451000809160008861809360008091FC048093AA
:104520006000EE3F2AE0F20789F08091FE0A909148
:10453000FF0A9183808349CE8081918187379807D4
:1045400051F29093FF0A8093FE0AC5CF1092FF0AA2
:104550001092FE0A3ACE0E94FC01DC0112960D91E7
:104560001C910115110509F4E8CED801ED91FC91DB
:104570000190F081E02DBE016B5E7F4FC80109956F
:10458000811123CEF80100851185EBCF181619068D
:104590000CF41BCED2CEF1E0FF12BECE65E871E086
:1045A00004CF1F920F920FB60F9211242F933F93B7
:1045B0004F935F936F937F938F939F93AF93BF932B
:1045C000EF93FF9382E496E00E943903FF91EF910D
:1045D000BF91AF919F918F917F916F915F914F911B
:1045E0003F912F910F900FBE0F901F9018951F9223
:1045F0000F920FB60F9211242F938F939F93EF93E7
:10460000FF93E0915206F09153068081E0915806A5
:10461000F091590682FD1BC0908180915B068F5FEF
:104620008F7320915C06821741F0E0915B06F0E009
:10463000EE5BF94F958F80935B06FF91EF919F9111
:104640008F912F910F900FBE0F901F901895808122
:10465000F4CF1F920F920FB60F9211242F933F9316
:104660008F939F93AF93BF938091A3049091A404E1
:10467000A091A504B091A6043091A20423E0230FD9
:104680002D3758F50196A11DB11D2093A2048093EA
:10469000A3049093A404A093A504B093A6048091CE
:1046A000A7049091A804A091A904B091AA0401962E
:1046B000A11DB11D8093A7049093A804A093A90401
:1046C000B093AA04BF91AF919F918F913F912F9189
:1046D0000F900FBE0F901F90189526E8230F02969B
:1046E000A11DB11DD2CF1F920F920FB60F921124B0
:1046F0002F933F934F935F936F937F938F939F93EA
:10470000AF93BF93EF93FF93E0911601F0911701E0
:104710000995FF91EF91BF91AF919F918F917F91FB
:104720006F915F914F913F912F910F900FBE0F901E
:104730001F9018951F920F920FB60F9211242F936E
:104740003F934F935F936F937F938F939F93AF9319
:10475000BF93EF93FF93E0911401F0911501099538
:10476000FF91EF91BF91AF919F918F917F916F9149
:104770005F914F913F912F910F900FBE0F901F901F
:1047800018951F920F920FB60F9211242F933F93FB
:104790004F935F936F937F938F939F93AF93BF9349
:1047A000EF93FF93E0911201F09113010995FF91AE
:1047B000EF91BF91AF919F918F917F916F915F9199
:1047C0004F913F912F910F900FBE0F901F90189512
:1047D0001F920F920FB60F9211242F933F934F9376
:1047E0005F936F937F938F939F93AF93BF93EF9359
:1047F000FF93E0911001F09111010995FF91EF9164
:10480000BF91AF919F918F917F916F915F914F91E8
:104810003F912F910F900FBE0F901F9018951F92F0
:104820000F920FB60F9211242F933F934F935F93E4
:104830006F937F938F939F93AF93BF93EF93FF9368
:10484000E0910E01F0910F010995FF91EF91BF9159
:10485000AF919F918F917F916F915F914F913F9118
:104860002F910F900FBE0F901F9018951F920F92CF
:104870000FB60F9211242F933F934F935F936F9333
:104880007F938F939F93AF93BF93EF93FF93609129
:104890000C0581E0682760930C058091910490914C
:1048A0009204DC01ED91FC910190F081E02D0995DD
:1048B000809100019091010190938900809388007C
:1048C000FF91EF91BF91AF919F918F917F916F91E8
:1048D0005F914F913F912F910F900FBE0F901F90BE
:1048E0001895EF92FF920F931F93CF93DF93F82EBB
:1048F000192FE62E042F81E0860F880F0E941002E8
:1049000083E00E941002CF2DD12FEC0EFD2EF11C62
:10491000CE15DF05B9F007FF13C0FE0184910E9498
:104920001002182F80E00E9410028123219681112D
:10493000EFCFDF91CF911F910F91FF90EF900895EE
:104940008881EDCF81E0F5CF6EEA75E080EC95E0EF
:104950000E94960D4EEA55E062E072E088EA95E02A
:104960000E942B0EE8EAF5E08EE092E091838083CE
:1049700088E192E0918F808F1286118614861386CB
:1049800016861586108A1786128A118A148A138A47
:1049900088E791E0978386838AEF96E0978B868BF2
:1049A00088E0858B089568ED75E08AEE95E00E94B9
:1049B000960D48ED55E06EE172E086ED95E00E94BF
:1049C000520EE6EDF5E08AE292E09183808384E383
:1049D00092E0958B848B1682158210861782128640
:1049E00011861486138616861586108A178688E720
:1049F00091E0938382838AEF96E0938B828B80E1B0
:104A0000818B0895CF92DF92EF92FF920F931F93C5
:104A1000CF93DF93C2E4D6E010924506109244068D
:104A200088EEC82E83E0D82EE12CF12CC0924606E9
:104A3000D0924706E0924806F09249068FED92E048
:104A400090934306809342068DEC90E090934F063E
:104A500080934E068CEC90E0909351068093500624
:104A600088EC90E0909353068093520689EC90E096
:104A700090935506809354068AEC90E090935706E5
:104A8000809356068EEC90E09093590680935806DA
:104A900010925B0610925C0610925D0610925E0604
:104AA00010924D0510924C05C0924E05D0924F05C4
:104AB000E0925005F092510581EF92E090934B0502
:104AC00080934A050FEF1FEF10935705009356058B
:104AD00010929A0510929B0510929C0510929D05CC
:104AE00010929E0510929F051092A0051092A105AC
:104AF0001092A5051092A4051092A3051092A2058C
:104B00006BE271E086E091E00E94062E9093A5058D
:104B10008093A40586EA97E00E94290F10929E07D1
:104B200010929F071092A0071092A1071092A2075F
:104B30001092A3071092A4071092A50789E293E0B0
:104B400090939D0780939C070E94D10185E797E091
:104B50000E94011C85E193E090934D0780934C07E0
:104B600081E090E090935607809355071092570785
:104B7000109258071092590710925A0710925B072B
:104B800010925C0710925D0710925E0710925F070B
:104B900010926007109261071092620710926707E7
:104BA000109268071092690710926A0710926B07BB
:104BB00010926C0710926D0710926E0789E797E0CC
:104BC00090934F0780934E078CE997E0909354079A
:104BD0008093530710926307109264071092650741
:104BE000109266078CE0809350078AE0809351070B
:104BF0008BE08093520780E090E0AAE7B3E48093D3
:104C00006F0790937007A0937107B093720761E0EC
:104C10008CE00E94EA0461E0809152070E94EA045D
:104C200061E0809151070E94EA0461E080915107A0
:104C30000E94BC04109274071092730783E0809363
:104C40004A0782E080934B078CE497E09093A70596
:104C50008093A6051092FD061092FC06C092FE06F7
:104C6000D092FF06E0920007F09201071093070729
:104C70000093060783E093E09093FB068093FA0687
:104C800083EF96E00E94290F8CEE96E00E94290F98
:104C9000D093E006C093DF068CEE96E09093E20698
:104CA0008093E10686EB9DE09093EB068093EA0605
:104CB000D0933206C09331068FED96E09093340680
:104CC0008093330685E396E00E94290F10923D06FB
:104CD00010923C0610923E0610923F06109241063A
:104CE000109240068091370690913806089730F46C
:104CF00068E070E085E396E00E94681401E316E046
:104D000010930B0600930A06C0918707D0E088E055
:104D100090E090930F0680930E0610921106109269
:104D2000100680E190E00E946D2E90930D06809316
:104D30000C06D0931606C093150690E080E00E9402
:104D4000D80F10921D0610921E0610921F06109288
:104D5000200610922106109222061092230610922D
:104D6000240610922506109226061092270610920D
:104D700028061092290610922A0610922B061092ED
:104D80002C0682E190E090932E0680932D0687E812
:104D900097E09093300680932F068CE497E09093F1
:104DA00001068093000685E797E0909303068093C1
:104DB00002068AE497E09093050680930406109318
:104DC0000706009306068AE096E090930906809312
:104DD00008066AEF76E086ED95E00E94D3246AEF3C
:104DE00076E088EA95E0DF91CF911F910F91FF90D7
:104DF000EF90DF90CF900C94A424CF93DF93CDB7A6
:104E0000DEB7C855D1090FB6F894DEBF0FBECDBFCF
:104E1000789484B5826084BD84B5816084BD85B595
:104E2000826085BD85B5816085BD80916E008160A1
:104E300080936E0010928100809181008260809347
:104E40008100809181008160809381008091800049
:104E500081608093800080919100826080939100B6
:104E60008091910081608093910080919000816099
:104E7000809390008091C10084608093C1008091F4
:104E8000C10082608093C1008091C10081608093E5
:104E9000C1008091C30081608093C3008091C000F5
:104EA00082608093C0008091C20081608093C200C4
:104EB00080917A00846080937A0080917A00826089
:104EC00080937A0080917A00816080937A0080914B
:104ED0007A00806880937A0010920E051092FD048B
:104EE0001092FE048091D70081608093D70080EA01
:104EF0008093D80089B5806189BD89B5826089BDFC
:104F000009B400FEFDCF61E070E080E090E00E9417
:104F100040058091D8008F7C80618093D80080917B
:104F2000E000807F8093E0008091E1008E7E80939E
:104F3000E1008DE08093E200559A209A61E0809133
:104F400051070E94BC0460E0809150070E94BC049D
:104F50008FE399E1909374078093730762E085E093
:104F60000E94EA0462E086E00E94EA048091F5066D
:104F70009091F606409730F460E170E083EF96E0A0
:104F80000E94AF118091EE069091EF06809730F469
:104F900060E270E08CEE96E00E9468148FEF9FEF65
:104FA00090930707809306078091A4059091A5052B
:104FB000009711F00E94092F8AEF96E09093A305C5
:104FC0008093A2056BE271E086E091E00E94062EDC
:104FD0009093A5058093A40582E496E00E94430186
:104FE00048EE53E060E070E08EE997E00E9424060E
:104FF000789484E090E00E946D2E21E336E0DC019D
:1050000013963C932E9312972EEB32E02D933C9304
:10501000909341068093400662E080914A070E9487
:10502000EA0462E080914B070E94EA041092AB040C
:1050300080914A07882309F430C1813009F42FC1D7
:10504000823009F42EC1833009F42DC1873029F450
:1050500084E06BEE78E00E946A0180914B07882320
:1050600009F423C1813009F422C1823009F421C13D
:10507000833009F420C1873029F484E06AE179E0C3
:105080000E946A0140E157E260E070E08DE196E045
:105090000E942406E0912F06F09130064385548546
:1050A0006585768585E296E00E9424068FEF9FEF66
:1050B0000E94D80F44244394512C34E0632E712C69
:1050C00045E0E42EF12C8091F004811108C060E1EC
:1050D0008DEB94E00E94390F81E08093F0048CE422
:1050E00097E00E948A1910910D016AE070E080E05B
:1050F00090E00E944005112309F45AC08AEF96E01F
:105100000E942D04181619060CF052C08AEF96E082
:105110000E94EB0397FD4CC029968FAF29978D30E5
:1051200031F0803409F4C9C08A3009F0CAC08091D6
:10513000F7069091F8060297D8F163EF76E0CE017A
:1051400001960E94121FCE0101960E9471138F8555
:10515000833521F4CE0101960E94471C2091AA07B5
:105160003091AB0721153105B9F050E040E0609176
:10517000A6077091A70786ED95E00E94CD0B8C01E4
:10518000BC01CE01C4960E949F0B6AE0C8010E9438
:10519000790BC8010E94540B83EF96E00E943D06F4
:1051A000CE0108960E94C00ECE0101960E94C00E4C
:1051B00080913E06882309F425C1009133061091A1
:1051C0003406F80180819181DC01ED91FC9100842D
:1051D000F185E02D0995181619060CF04EC13324FF
:1051E0003A9486E0C82ED12C92E0A92EB12C23E06F
:1051F000822E912C22242394F80180819181DC015C
:10520000ED91FC910084F185E02D099518161906A1
:105210000CF033C1F80180819181DC01ED91FC91AA
:105220000284F385E02D099597FDE6CF69968FAF4F
:1052300069978E37A1F4F8011582148282819381D7
:105240000E943D06D80116961C92169717961C923E
:10525000179719961C921E9218971A963C92F8016D
:105260008681882349F069968FAD69971682F0E2AE
:105270008F2769968FAF6997D80114962D913C912D
:10528000159769968FAD69972115310509F455C0B9
:105290008D3731F516962C92AFCF82E0DACE83E0CF
:1052A000D8CE81E0D6CE80E0D4CE82E0E7CE83E0D7
:1052B000E5CE81E0E3CE80E0E1CE83EF96E00E9490
:1052C0003D068091F7069091F806409708F070CF60
:1052D000BE01685B7F4F83EF96E00E94691368CF41
:1052E00023303105E1F180F42130310569F12230BC
:1052F000310509F081CFF80120853185282B3187D0
:1053000020879582848278CF2430310599F1253029
:10531000310509F071CFF8019781980F9783628169
:1053200073819F3F09F05BC0D582C4820384F485FA
:10533000E02D1A968C9109955FCF8E3709F05CCFDE
:10534000F8015582448258CF18961C9218971996E6
:105350008C9319971596BC92AE9214974DCF1A96CE
:105360008C931A9717968C93179715967C926E923A
:10537000149742CFF80182819381DC0114962D911C
:105380003C91B9016F5F7F4F2617370720F5AE01BB
:10539000485A5F4F0E949014D80117968C91179726
:1053A00069969FAD6997890F17968C9317971296F8
:1053B000ED91FC91139718968D919C9119970197F7
:1053C000248135812817390709F016CF1596FC92EC
:1053D000EE92149711CFFC0115821482DDCF158255
:1053E0001482CB010E943D06D80116961C92169796
:1053F00017961C92179719961C921E9218971A9638
:105400003C92FACE8091B304811107C08CEA94E0FB
:105410000E94290F81E08093B3048091310690911E
:105420003206DC01ED91FC910084F185E02D0995B7
:105430001816190614F58091310690913206DC0198
:10544000ED91FC910284F385E02D099597FD15C03F
:1054500089838D3009F0E7C080913C0690913D062C
:10546000DC01ED91FC910484F585E02D6CEA74E09B
:1054700009958CEA94E00E943D0680913C0690914B
:105480003D06009739F0DC01ED91FC910680F78133
:10549000E02D09958091400690914106892B09F4F1
:1054A00062C060E574E086ED95E00E9409168C010B
:1054B0006091400670914106DB01ED91FC91048002
:1054C000F581E02DCE01019609952D813E8150E0B8
:1054D00040E069817A81C8010E94CD0B8C01BC013A
:1054E000CE01C4960E949F0B6AE0C8010E94790B0E
:1054F000C8010E94540BCE0101960E94C00E8091FB
:105500003C0690913D060097D9F0DC01ED91FC91AD
:105510000084F185E02D099580913C0690913D062F
:1055200020914006309141068217930749F0009779
:1055300039F0DC01ED91FC910280F381E02D0995B9
:10554000809140069091410690933D0680933C06E1
:105550001092410610924006DC01ED91FC9102840C
:10556000F385E02D09958DE196E00E94F8058823EA
:1055700009F44EC1E0912F06F0913006418152812D
:10558000638174818DE196E00E942406E0912D06EE
:10559000E23108F0E251F0E0ED5CFE4FE4919091D1
:1055A0007B008E2F880F880F80729F7D892B8093C0
:1055B0007B00E770E064E0937C0080917A00806477
:1055C00080937A0080917A0086FDFCCF209178004C
:1055D00080917900382F68963FAF2EAF6897E091A1
:1055E0000C06F0910D0680911306909114064081EF
:1055F0005181841B950B820F931F90931406809307
:10560000130630E020E04091100650911106CA01C7
:1056100001972817390778F42F5F3F4F82819381D4
:1056200081939193F0CFBE016F5F7F4F8CEA94E03E
:105630000E94691322CF8417950720F490931106D6
:10564000809310062091100630911106C901019631
:105650002817390708F09FC1BE016A5A7F4F0E9480
:10566000A20F809113069091140660911506709117
:1056700016060E94F03270931C0660931B0685E2AA
:1056800096E00E94F805882309F4C2C0E0912F0635
:10569000F0913006438554856585768585E296E0F0
:1056A0000E94240660E1CE0101960E94390F6AE350
:1056B000CE0101960E94B20B65E574E00E940916C6
:1056C0006C0100911B0610911C06BC01CE01885B89
:1056D0009F4F0E949F0BA801D601ED91FC91369738
:1056E0000190F081E02DEC0DFD1D8381948185FDFD
:1056F0006EC186FF55C192FF6DC180E993E01F9294
:105700001F925F934F939F938F931F9284E18F9388
:105710008E010C5C1F4F1F930F930E944E339C0110
:10572000990F440B550BB801C6010E94210CD601FC
:10573000ED91FC9136970190F081E02DEC0DFD1D6F
:10574000838194810FB6F894DEBF0FBECDBF96FF64
:1057500003C0C6010E94540B63E2C6010E94B20B53
:10576000C0900A06D0900B06AE01485B5F4FBE01A9
:105770006D5E7F4FC8010E949515B801C6010E9459
:105780007510C8010E94C00EE0912F06F0913006FE
:1057900020911B0630911C068185928528173907B8
:1057A00098F5A80168E574E0CE01815B9F4F0E94E7
:1057B0003016A8016EE574E0CE01885B9F4F0E9411
:1057C0003016BE01685B7F4FC8010E94121FC801DE
:1057D0000E94651EBE01615B7F4F80910A06909119
:1057E0000B060E947510CE01CB960E94C00EC80118
:1057F0000E94C00ECE01885B9F4F0E94C00ECE015A
:10580000815B9F4F0E94C00ECE0101960E94D70E71
:105810008EE997E00E94F805882309F4AFC04AEFAB
:1058200050E060E070E08EE997E00E94240685E099
:105830000E9493046C0111E0892B09F010E0809123
:10584000BC04181799F0C114D10451F40E948F16AA
:1058500040E054E965E377E78CE497E00E94D306E3
:10586000CD2821F08CE497E00E9445061093BC04FB
:1058700086E00E9493046C0111E0892B09F010E08E
:105880008091BB04181799F0C114D10451F40E94FF
:105890006B1640E05CE66AEC78E88CE497E00E94E6
:1058A000D306CD2821F08CE497E00E9445061093A2
:1058B000BB0420E030E0A9016091630770916407A8
:1058C00080916507909166070E94C430882309F48F
:1058D00055C08091000690910106DC01ED91FC918C
:1058E0000284F385E02D099528E030E040E050E0A7
:1058F0000E94043349015A018091ED049091EE0415
:10590000892B09F46DC01092DF04AE014C5C5F4F2F
:1059100060E573E0CE0101960E943016BE016F5F14
:105920007F4F8DEB94E00E94EA12CE0101960E9417
:10593000C00E6DEA73E08DEB94E00E9409168C01B5
:10594000BC01CE0101960E949F0BB501A401C801C4
:105950000E94E017AE014C5C5F4F6FEC74E0CE012B
:1059600001960E949515BE016F5F7F4F81E396E01F
:105970000E947510CE0101960E94C00E80E090E05A
:10598000892B09F4A0CB0E942503882309F495CB29
:105990000E9400008FCB109211061092100661CE6B
:1059A00087FF1BC09C012227307292FF08C089E943
:1059B00093E0232B09F0A3CE8EE993E0A0CE83EAF7
:1059C00093E0232B09F09BCE87EA93E098CE8CE4FA
:1059D00094E095CE85E993E092CE90E080E08FCE82
:1059E00081E08093DF0491CF88EA95E00E94360D34
:1059F00086ED95E00E947E0D80910C0690910D063B
:105A00000E94092F85E396E00E94C00E8CEE96E07E
:105A10000E94C00E83EF96E00E94C00E86EA97E0D7
:105A20000C94C00EB0E0A0E0E8E1FDE20C9412306E
:105A30005C016B017A016115710519F0FB0191831D
:105A40008083E114F10449F0C7010297839728F09D
:105A500060E070E0CB019CC05E01E5012196F5019C
:105A60001081812F90E00E94FD2D892BA9F71D3216
:105A700009F056C02196F501118101E0E114F1040D
:105A800009F4AEC0F0E1EF16F10409F08EC0103356
:105A900041F488818F7D883509F083C01981229671
:105AA0000260E0E1EE2EF12C88248A94982CA82C38
:105AB000FFE0BF2E20E060E070E0CB0127010F2C5B
:105AC000000C66087708FE0150ED352E310E39E0E6
:105AD000331538F43FEB310F3A31A0F549EC342E51
