:100000000C94DC000C940B240C94E4230C94BD237E
:100010000C9496230C9404010C9404010C946F230B
:100020000C9404010C9404010C942C200C949B203F
:100030000C9404010C9404010C9404010C9404012C
:100040000C9404010C9432240C9404010C940401CB
:100050000C9404010C9404010C9404010C942523C9
:100060000C9404010C94F3220C94CD220C94040102
:100070000C9404010C9404010C9404010C940401EC
:100080000C9404010C9404010C9404010C940401DC
:100090000C9404010C9404010C9404010C940401CC
:1000A0000C9404010C9404010C9404010000000061
:1000B000240027002A002D00300000000000250049
:1000C00028002B002E003100000000002300260035
:1000D00029002C002F000404040404030405020278
:1000E00002020403020202020606060606060404D1
:1000F0000202020404040802011040804010204063
:10010000804080080204018040201002011080100D
:10011000204040200000000200090F0000030401FD
:10012000000C0000000000000000000000000000C3
:10013000000000070605040100080A0B0C0D090861
:100140000B0002020200000904000001020200008C
:1001500005240010010524010101042402060524E0
:100160000600010705810310004009040100020A8E
:10017000000000070502024000000705830240005E
:10018000000403090412010002EF0201404123367A
:100190008000010102030141726475696E6F204C99
:1001A0004C430041726475696E6F204C656F6E61DF
:1001B00072646F00FE24F02C11241FBECFEFDAE032
:1001C000DEBFCDBF14E0A0E0B1E0ECE1FCE602C090
:1001D00005900D92A236B107D9F727E0A2E6B4E068
:1001E00001C01D92A63BB207E1F710E0CBEDD0E0D5
:1001F00004C02197FE010E941F33CA3DD107C9F7F1
:100200000E94F9260C9401360C9400001F93CF93A2
:10021000DF93182FC091A005D091A1058A3041F439
:10022000E881F9810190F081E02D6DE0CE01099522
:10023000E881F9810190F081E02D612FCE010995CF
:1002400021E030E0019711F430E020E0C901DF91B6
:10025000CF911F910895CF93DF93C091A005D091C6
:10026000A105E881F9810084F185E02DCE01099591
:10027000892BB9F3E881F9810284F385E02DCE0161
:10028000DF91CF910994FC01A089B18982E08C9320
:10029000A485B5851C92A685B7858FEC8C93108EAE
:1002A000A489B58986E08C93A289B3898C918061F9
:1002B0008C93A289B3898C9188608C93A289B3892D
:1002C0008C9180688C930288F389E02D80818F7DEA
:1002D00080830895E82FF0E0EE0FFF1FE25FFE4FEE
:1002E000718360838230D9F028F4882341F0813013
:1002F00071F008958330D9F0843009F10895809128
:1003000069008C7F826080936900E89A08958091EB
:100310006900837F886080936900E99A08958091DD
:1003200069008F7C806280936900EA9A08958091C9
:1003300069008F73806880936900EB9A08958091BB
:100340006A008F7C806280936A00EE9A0895FC01B7
:1003500080910C05882311F13FB7F89482E08093D7
:10036000E9002091F200822F90E01816190614F48B
:1003700081E090E0882339F0289844E640930B050B
:100380004091F1004083222339F02091F2002111A5
:1003900003C02BE62093E8003FBF08958FEF9FEF47
:1003A0000895109281001092850010928400EFE66B
:1003B000F0E080818D7F80838FEF90E090938900C3
:1003C0008093880090938B0080938A001092800025
:1003D00010920A0508952FB7F89483E08093E900FE
:1003E0009091E800892F807295FF04C09091F200EF
:1003F00080E4891B2FBF08958091020581110DC0F3
:1004000082E08093FE0484E08093FF041092010553
:100410001092000581E0809302058EEF94E008952C
:100420004091F8045091F9042091F6043091F704BA
:1004300042175307B4F49091E8009570E1F390915E
:10044000E80092FD19C08093F1008091F80490912A
:10045000F90401968F739927892B19F48EEF8093F5
:10046000E8008091F8049091F90401969093F904C2
:100470008093F80481E0089580E00895DF92EF9280
:10048000FF920F931F93CF93DF93D82E8A01EB0136
:100490007B01E40EF51ECE15DF0559F0D7FE12C024
:1004A000FE0184910E94100221968111F4CF0FEF7A
:1004B0001FEFC801DF91CF911F910F91FF90EF9037
:1004C000DF9008958881EECF0F931F93CF93DF9332
:1004D0001F92CDB7DEB782E0898342E450E06FE33C
:1004E00071E080E80E943E020E94FC01DC0112964D
:1004F0000D911C910115110589F0D801ED91FC9128
:100500000280F381E02DBE016F5F7F4FC801099526
:1005100097FD04C0F80100851185ECCF89810F900B
:10052000DF91CF911F910F910895615030F020918C
:10053000F100FC0120830196F8CF289884E680938F
:100540000B050895DC01ED91FC910190F081E02D07
:100550000994AF92BF92CF92DF92EF92FF920F93E6
:100560001F93CF93DF936C017B018B01040F151F49
:10057000EB015E01AE18BF08C017D10759F06991B1
:10058000D601ED91FC910190F081E02DC601099515
:10059000892B79F7C501DF91CF911F910F91FF90C2
:1005A000EF90DF90CF90BF90AF900895CF93C1E0D0
:1005B00020E030E0A901FC016789708D818D928D6A
:1005C0000E94C030811101C0C0E08C2FCF910895EE
:1005D000FC01538D448D252F30E0842F90E0821B49
:1005E000930B541710F0CF96089501970895FC01CE
:1005F000918D828D981761F0A28DAE0FBF2FB11D26
:100600005D968C91928D9F5F9F73928F90E008957D
:100610008FEF9FEF0895FC01918D828D981731F037
:10062000828DE80FF11D858D90E008958FEF9FEF8B
:100630000895FC01918D228D892F90E0805C9F4F61
:10064000821B91098F739927089580E496E00E9498
:10065000190321E0892B09F420E0822F089580E01E
:1006600090E0892B29F00E94250381110C94000051
:100670000895FC01A48DA80FB92FB11DA35ABF4F37
:100680002C91848D90E001968F739927848FA68991
:10069000B7892C93A089B1898C9182748C93938DA6
:1006A000848D981306C00288F389E02D80818F7DA8
:1006B00080830895EF92FF920F931F93CF93DF9360
:1006C000EC0181E0888F9B8D8C8D981319C0E8898F
:1006D000F989808185FF14C09FB7F894EE89FF895E
:1006E0006083E889F9898081827480839FBF81E07B
:1006F00090E0DF91CF911F910F91FF90EF900895BF
:10070000F62E0B8D10E00F5F1F4F0F731127E02E99
:100710008C8D8E110CC00FB607FCFACFE889F989D1
:10072000808185FFF5CFCE010E943903F1CFEB8D9B
:10073000EC0FFD2FF11DE35AFF4FF0829FB7F894A5
:100740000B8FEA89FB8980818062CFCFCF93DF93C3
:10075000EC01888D8823B9F0AA89BB89E889F989D9
:100760008C9185FD03C0808186FD0DC00FB607FC0E
:10077000F7CF8C9185FFF2CF808185FFEDCFCE0141
:100780000E943903E9CFDF91CF910895CF93DF9392
:100790001F92CDB7DEB76983DC01ED91FC91028039
:1007A000F381E02D41E050E0BE016F5F7F4F09957E
:1007B0000F90DF91CF91089583E08093E9008091BD
:1007C000F200882319F08AE38093E80008950E94DC
:1007D000EB0190E00895CF93DF931F92CDB7DEB782
:1007E000FC018485958597FD08C02FEF3FEF358785
:1007F00024870F90DF91CF910895CE0101960E943A
:10080000A701019719F4898190E0F3CF8FEF9FEF53
:10081000F0CF0F931F93CF93DF931F92CDB7DEB727
:100820008C01FC018485958597FF0BC0CE01019654
:100830000E94A701019771F4898190E0F8019587E2
:100840008487F801848595850F90DF91CF911F9162
:100850000F9108958FEF9FEFF1CFFC01848595856F
:1008600097FD0BC09FB7F89482E08093E9008091D8
:10087000F2009FBF90E0019608959FB7F89482E040
:100880008093E9008091F2009FBF90E0089581502D
:100890008F3008F047C0E82FF0E0EF5AFB4F0C9480
:1008A0001F336E047204600466046A0492049204A6
:1008B000920475047B047F048304890492048D04EC
:1008C000809180008F7780938000089580918000D0
:1008D0008F7DF9CF80918000877FF5CF84B58F77AA
:1008E00084BD089584B58F7DFBCF809190008F7774
:1008F000809390000895809190008F7DF9CF809132
:100900009000877FF5CF8091C0008F778093C000E3
:1009100008958091C0008F7DF9CF8091C200877FBC
:100920008093C2000895CF93DF93282F30E0F90120
:10093000EC5EFE4F8491F901EB50FF4FD491F90129
:10094000EA52FF4FC491CC23A1F081110E944704C9
:10095000EC2FF0E0EE0FFF1FE853FF4FA591B4918D
:10096000EC91ED2381E090E009F480E0DF91CF91FC
:10097000089580E090E0FACF1F93CF93DF93282F64
:1009800030E0F901EC5EFE4F8491F901EB50FF4F2E
:10099000D491F901EA52FF4FC491CC23A9F0162F4C
:1009A00081110E944704EC2FF0E0EE0FFF1FE65488
:1009B000FF4FA591B4918FB7F894EC91111108C035
:1009C000D095DE23DC938FBFDF91CF911F910895E7
:1009D000DE2BF8CFCF93DF9390E0FC01EB50FF4F7D
:1009E00024918A529F4FFC0184918823D1F090E09A
:1009F000880F991FFC01E455FF4FA591B491FC01AC
:100A0000E654FF4FC591D491623071F49FB7F894CA
:100A10003C91822F809583238C93E8812E2B288311
:100A20009FBFDF91CF9108958FB7F894EC912E2B53
:100A30002C938FBFF6CF3FB7F8948091A504909187
:100A4000A604A091A704B091A80426B5A89B05C050
:100A50002F3F19F00196A11DB11D3FBFBA2FA92F3D
:100A6000982F8827BC01CD01620F711D811D911D3A
:100A700042E0660F771F881F991F4A95D1F70895A6
:100A80008F929F92AF92BF92CF92DF92EF92FF929E
:100A90004B015C010E941B056B017C010E941B0540
:100AA0006C197D098E099F09683E73408105910587
:100AB000A8F321E0821A9108A108B10888EEC80EB7
:100AC00083E0D81EE11CF11C81149104A104B1043F
:100AD00029F7FF90EF90DF90CF90BF90AF909F905D
:100AE0008F9008958F929F92AF92BF92CF92DF9294
:100AF000EF92FF920F931F93CF93DF936C017B01D3
:100B00008A0180910D01882309F45CC080910C0555
:100B1000882309F457C08091FC0480FF05C08091B0
:100B2000E00082608093E000E801B12C8AEFA82EFB
:100B300093E0892E2AE3922E209711F4BB20D9F15D
:100B40000E94EB0181110AC0AA94AA20D9F161E0A8
:100B500070E080E090E00E944005EECF8C171D060B
:100B600011F00CF08C2F9FB7F8948092E90020913F
:100B7000E80025FD02C09FBFDFCF282F30E0C21B59
:100B8000D30BF701815020F041914093F100FACF4F
:100B9000E20EF31EBB2021F09092E800B12CEBCFC7
:100BA0008091E80085FDE7CF9092E800BB24B394E4
:100BB000209709F3F3CF5D9884E68093FD04101627
:100BC00011063CF081E090E0F6019383828310E00F
:100BD00000E0C801DF91CF911F910F91FF90EF903E
:100BE000DF90CF90BF90AF909F908F900895089521
:100BF0000F931F93FC0184819581A681B781892B76
:100C00008A2B8B2BE9F08FB7F8944091A104509177
:100C1000A2046091A3047091A4048FBF808191818C
:100C2000A281B381481B590B6A0B7B0B81E00481C5
:100C3000158126813781401751076207730708F431
:100C400080E01F910F9108950F931F93EFB7F894D1
:100C50000091A1041091A2042091A3043091A40456
:100C6000EFBFFC01008311832283338344835583C8
:100C7000668377831F910F910895FC01248135814C
:100C8000232B11F01582148208958F929F92AF92B8
:100C9000BF92CF92DF92EF92FF92CF93DF93EC015E
:100CA000E881F9810484F585E02D09958823B9F15F
:100CB000E881F9810284F385E02DCE0109956B016D
:100CC0007C016F89788D898D9A8D9B01AC010E9482
:100CD00024329B01AC0160E070E0CB010E945330F4
:100CE0004B015C016F8D78A189A19AA190589B015D
:100CF000AC010E9454309B01AC01C501B4010E94BB
:100D0000C5300E943731072E000C880B990BC60E98
:100D1000D71EE81EF91ECB86DC86ED86FE86DF91A7
:100D2000CF91FF90EF90DF90CF90BF90AF909F90CA
:100D30008F900895CF93DF93EC018F819885DC012C
:100D4000ED91FC910280F381E02D09951F8E18A290
:100D500019A21AA21F8A188E198E1A8E1A8619863F
:100D600061E08D810E94BC0460E08C810E94BC0423
:100D7000EFA1F8A5309719F0DF91CF910994DF9199
:100D8000CF910895FC0181850895DC011296ED91C3
:100D9000FC91648175818681978108952F923F929D
:100DA0004F925F926F927F928F929F92AF92BF927B
:100DB000CF92DF92EF92FF920F931F93CF93DF9327
:100DC000EC01EA80FB80F70184819581A681B781DF
:100DD0008A019B01081B190B2A0B3B0BD901C80187
:100DE0004B875C876D877E8701E010E01816190637
:100DF0001A061B0614F010E000E08827B7FD839563
:100E00009927AA27BB27081B190B1A870987D7011F
:100E10001A96CD90DC900C9DB0010D9D700D1C9D1F
:100E2000700D112490E080E00E946D316B8F7C8FFB
:100E30008D8F9E8FB60190E080E00E946D314B0156
:100E40005C01F7016085718590E080E00E946D3162
:100E500020E030E04AE754E40E94C5309B01AC0139
:100E6000C501B4010E94C5304B015C01B801110FEE
:100E7000880B990B0E946F319B01AC01C501B40135
:100E80000E9424326F8F78A389A39AA3D7011C965E
:100E90008C9100E011E0882311F001E010E060E0A7
:100EA0008C810E94BC0489859A8597FF102F612F41
:100EB0008E810E94BC0460E08D810E94BC042FB72B
:100EC000F8948091A1049091A204A091A304B09100
:100ED000A4042FBF8F87988BA98BBA8BCF88D88C0F
:100EE000E98CFA8C20E030E0A901C701B6010E942C
:100EF0001F3246015701181624F0B7FAB094B7F81C
:100F0000B0944BA05CA06DA07EA00F811885F80165
:100F100020803180A5019401C301B2010E941F32DB
:100F2000181674F569857A85072E000C880B990BC5
:100F30000E946F31A30192010E9424326B8B7C8B43
:100F40008D8B9E8B6F8B788F898F9A8FD101ED91CE
:100F5000FC919E01B301A201C801DF91CF911F91C5
:100F60000F91FF90EF90DF90CF90BF90AF909F9048
:100F70008F907F906F905F904F903F902F9009944B
:100F8000CB8ADC8AED8AFE8AD1011496ED91FC9120
:100F9000B501A401C801DF91CF911F910F91FF907E
:100FA000EF90DF90CF90BF90AF909F908F907F9009
:100FB0006F905F904F903F902F9009941F93CF9325
:100FC000DF93EC01162F8C810E94BC04EA81FB8127
:100FD0004481558166817781112391F089859A85B5
:100FE000092E000CAA0BBB0B840F951FA61FB71F61
:100FF00084839583A683B783DF91CF911F91089552
:101000008B859C85AD85BE85481759076A077B0788
:1010100099F7E881F9810280F381E02DCE01DF911B
:10102000CF911F910994CF92DF92EF92FF92CB0163
:10103000BA019A01AC010E9454306B017C0120E09E
:1010400034E244E75BE40E941F3218161CF120E0F2
:1010500030E044E753E4C701B6010E94C03087FF87
:1010600006C0C12CD12C94E7E92E93E4F92EA701F8
:10107000960160E074E284E79BE40E94C5300E9420
:101080003E317093010160930001FF90EF90DF907B
:10109000CF900895C12C84E2D82E84E7E82E8BE40B
:1010A000F82EE5CF3093900420938F0410920A0518
:1010B0000E94130880910001909101019093890092
:1010C0008093880010928500109284001092800016
:1010D00089E080938100EFE6F0E080818260808388
:1010E00008950C94D101EF92FF920F931F93CF9329
:1010F000DF93EC017B018A01E881F9810480F581AD
:10110000E02D09958017910758F0A801B701CE018D
:10111000DF91CF911F910F91FF90EF900C9472058A
:1011200090E080E0DF91CF911F910F91FF90EF90C1
:101130000895089540E757E160E070E088E995E0A0
:101140000C9424060895CF93DF93EC0140E45FE113
:1011500060E070E088E995E00E9424061886198610
:101160001A861B86DF91CF9108950895CF93DF9360
:10117000EC018BEF9AE49983888323E02A8324E0AF
:101180002B832DE0EEE1F1E0DE01149601900D924B
:101190002A95E1F72AE0298B28EB2A8B2BE02B8B71
:1011A0001C8A1D8A1E8A1F8A188E198E1B8E1A8E03
:1011B00020E32C8F25E72D8F1E8E1F8E18A219A2DB
:1011C0001AA21BA29DA38CA3DF91CF910895CF9368
:1011D000DF93C091A405D091A50520E030E0A901DE
:1011E0006F89788D898D9A8D0E941F321816DCF4D4
:1011F000E881F9810284F385E02DCE010995A09163
:10120000A405B091A505AB01BC01405E5C4F6F4FDA
:101210007F4FED91FC9111970084F185E02DCD0178
:10122000DF91CF910994DF91CF910895CF93DF9310
:101230008091A904811128C0C091A405D091A50571
:1012400020E030E0A9016F89788D898D9A8D0E9408
:10125000C03087FF19C081E08093A904EA81FB8137
:1012600080E293E0A0E0B0E084839583A683B78317
:10127000E881F9810084F185E02D40E050E0BA0179
:10128000CE01DF91CF910994DF91CF910895CF9353
:10129000DF93EC01E881F9810288F389E02D09955B
:1012A0008F3F980731F02D813E812F5F3F4F3E8366
:1012B0002D83DF91CF9108958FEF9FEF089560E028
:1012C00070E0CB01089590E080E00895FF920F93C5
:1012D0001F93CF93DF938C01EB016F3F7607B9F03B
:1012E000F62EEAE06E1306C06DE0F8018089918960
:1012F0000E94A2026F2DF801808991890E94A202AA
:10130000CE01DF91CF911F910F91FF900895D0E012
:10131000C0E0F6CF7F928F929F92AF92BF92CF9212
:10132000DF92EF92FF920F931F93CF93DF938C0185
:1013300049015A01EB01C12CD12C7601C814D90402
:10134000EA04FB04B4F479908AE0781206C06DE0F8
:10135000F801808991890E94A202672DF801808995
:1013600091890E94A202FFEFCF1ADF0AEF0AFF0A5B
:10137000E5CFC501B401DF91CF911F910F91FF908F
:10138000EF90DF90CF90BF90AF909F908F907F9025
:101390000895CB010895CF93DF93EC018889998953
:1013A000DC01ED91FC910084F185E02D0995892BFC
:1013B000A9F388899989DC01ED91FC910284F38578
:1013C000E02DDF91CF910994CF93DF93EC018889D1
:1013D0009989DC01ED91FC910084F185E02D09955E
:1013E000892BA9F388899989DC01ED91FC9104840A
:1013F000F585E02DDF91CF9109948F929F92AF9266
:10140000BF92CF92DF92EF92FF920F931F93CF93F1
:10141000DF938C0149015A01EB01C12CD12C7601DB
:10142000D80150968D919C91DC01ED91FC91028444
:10143000F385E02D09958F3F61F0C814D904EA04C3
:10144000FB043CF48993BFEFCB1ADB0AEB0AFB0ADF
:10145000E7CFC701B601DF91CF911F910F91FF90A8
:10146000EF90DF90CF90BF90AF909F908F900895B6
:10147000DC0150968D919C91DC01ED91FC910084F2
:10148000F185E02D099490E080E0089590E080E0FF
:101490000895FC018789908D009739F0248935895A
:1014A0002817390728F4308F278B6FEF7FEF08C09C
:1014B00001976F3F760731F4908F878B70E060E083
:1014C000CB010895A089B189A80FB91F9B012150B4
:1014D00031092F3F310538F4262F3C91321305C0D6
:1014E000908F878BEDCF20E0F8CF278524FFDDCFCD
:1014F000908F878B6C93E4CFCF93DF93EC01E881DF
:10150000F9810288F389E02D09958F3F980731F022
:101510002F89388D2F5F3F4F388F2F8BDF91CF91E1
:101520000895DC0157968D919C91589754962D9172
:101530003C9155978217930740F45096ED91FC919A
:10154000E80FF91F808190E008958FEF9FEF0895D5
:10155000EF92FF92CF93DF93FC01DB0160E070E03C
:10156000CB01E788F08CC489D589EC16FD06A8F478
:10157000621773078407950784F4C089D189CE0D5B
:10158000DF1DC881CD936F5F7F4F8F4F9F4FC789FE
:10159000D08D2196D08FC78BE4CFDF91CF91FF9074
:1015A000EF900895FC01848995892789308D821BED
:1015B000930B0895242FDC01ED91FC910084F185BB
:1015C000E02D41E009940895089590E080E00895A9
:1015D0001F93CF93DF93EC01162F8F8580FF0BC0F5
:1015E000E881F9810084F185E02D20E144E070E09C
:1015F00060E0CE010995EB85FC85812F90E02D857B
:101600003E85E217F30758F410832B853C852F5F46
:101610003F4F3C872B87DF91CF911F910895E88141
:10162000F981028CF38DE02DBC01CE01DF91CF91C9
:101630001F9109948F929F92AF92BF92CF92DF92A7
:10164000EF92FF920F931F93CF93DF938C01490189
:101650005A01EB01C12CD12C7601C814D904EA043B
:10166000FB0464F46991C8010E94E80A019641F004
:101670008FEFC81AD80AE80AF80AEFCF750164019B
:10168000C701B601DF91CF911F910F91FF90EF90AD
:10169000DF90CF90BF90AF909F908F900895089566
:1016A000CF93DF93EC01E881F98136970190F081C7
:1016B000E02DE80FF91F83899489DC01ED91FC91FD
:1016C0000484F585E02D0995019659F4E881F981A6
:1016D00036970190F081E02DEC0FFD1F8581816030
:1016E0008583CE01DF91CF910895CF93DF93EC01F5
:1016F000E881F98136970190F081E02DE80FF91F1C
:10170000838994890E94E80A019679F4E881F98135
:1017100036970190F081E02DEC0FFD1F8581238924
:101720003489232B31F082608583CE01DF91CF9104
:1017300008958360F9CF21E0DC012C93DB01ED916A
:10174000FC91369780819181680F791FFB01818917
:101750009289009711F00C94500B0895FF920F930B
:101760001F93CF93DF931F92CDB7DEB78C01F62E78
:10177000BC01CE0101960E949B0B6F2DC8010E94F7
:10178000750BC8010F90DF91CF911F910F91FF90C2
:1017900008958F929F92AF92BF92EF92FF920F9314
:1017A0001F93CF93DF93EC017B0149015A01E8813C
:1017B000F98136970190F081E02DE80FF91F038938
:1017C0001489D8011F968C911F9780FF0BC0ED9153
:1017D000FC910084F185E02D20E144E070E060E0C0
:1017E000C8010995D801ED91FC91008CF18DE02D97
:1017F000A5019401B701C80109956F3F7F4F79F4A6
:10180000E881F98136970190F081E02DEC0FFD1F02
:10181000858123893489232B71F082608583CE01F1
:10182000DF91CF911F910F91FF90EF90BF90AF90FC
:101830009F908F9008958360F1CF4F925F926F9247
:101840007F928F929F92AF92BF92CF92DF92EF9250
:10185000FF920F931F93CF93DF93EC018B0129012C
:101860003A01E881F98136970190F081E02D3296B6
:10187000E80FF91FC284D384E484F584C418D50822
:10188000E608F708818192818E709927049791F478
:1018900046015701181419041A041B04B4F1D701A6
:1018A000C601F7FE03C080E090E0DC01C81AD90A47
:1018B000EA0AFB0AA3019201B801CE010E94C90BFA
:1018C000E881F98136970190F081E02DEC0FFD1F42
:1018D000838194818E709927029749F5E881F98177
:1018E00036970190F081E02D1C141D041E041F0486
:1018F000F4F481E0C81AD108E108F108EC0FFD1FEB
:101900006089CE010E94750BE9CF81E0881A9108A9
:10191000A108B108E881F98136970190F081E02DA6
:10192000EC0FFD1F6089CE010E94750BB3CFE881DB
:10193000F981369780819181C80FD91F1C861D8639
:101940001E861F86DF91CF911F910F91FF90EF9020
:10195000DF90CF90BF90AF909F908F907F906F90CF
:101960005F904F900895FF920F931F93CF93DF9353
:101970001F92CDB7DEB78C01F62EBC01CE010196C9
:101980000E949B0BD801ED91FC9136970190F0815C
:10199000E02DE00FF11F838184FF29C024E030E0B7
:1019A00040E050E06EE273E0F11006C025E030E068
:1019B00040E050E063E373E0C8010E941D0CD801D1
:1019C000ED91FC9136970190F081E02DE00FF11F31
:1019D0008381948196FF03C0C8010E94500BC80107
:1019E0000F90DF91CF911F910F91FF90089521E00B
:1019F00030E040E050E069E373E0F110DDCF6BE3ED
:101A000073E0DACFDC01ED91FC9136970190F08123
:101A1000E02DE80FF91F81ED91E0918380838BED3C
:101A200091E097838683089521ED31E0FC013183B5
:101A300020832BED31E0378326830895FB0120813D
:101A40003181FC0131832083FB0142815381265087
:101A50003109F90120813181820F931FFC015183EB
:101A6000408308952DE032E0FC013183208327E19B
:101A700032E0318F208F61E072E00C941E0DDC01AA
:101A8000ED91FC91369720813181820F931F0C9448
:101A9000320D0895DC01ED91FC9136970190F081B3
:101AA000E02DE80FF91F8DEB91E09183808387ECA7
:101AB00091E09383828308952DEB31E0FC01318323
:101AC000208327EC31E0338322830895FB012081BA
:101AD0003181FC0131832083FB01428153812650F7
:101AE0003109F90120813181820F931FFC0151835B
:101AF0004083089529E232E0FC013183208323E30F
:101B000032E0358B248B6DE172E00C94660DDC01C4
:101B1000ED91FC91369720813181820F931F0C94B7
:101B20007A0D0895FC0181E290E09483838315820D
:101B30001682178286E090E0A0E0B0E0808791876F
:101B4000A287B387148615861686178683EB91E0E5
:101B50009183808380E2808B128A118A748B638BDD
:101B6000158A08958038C9F08A3811F580913A06AF
:101B700090913B06E0913106F09132060280F381AC
:101B8000E02D0190F081E02D608170E0DC01ED91AD
:101B9000FC910088F189E02D099480913A0690919A
:101BA0003B06DC01ED91FC910684F785E02DF4CF36
:101BB000089508950895CF93DF9340919C05509127
:101BC0009D0560919E0570919F05452B462B472BE7
:101BD000C1F0EC0188E995E00E94F805882389F0BE
:101BE00010929C0510929D0510929E0510929F05E3
:101BF000E881F9810488F589E02DCE01DF91CF914C
:101C00000994DF91CF910895CF92DF92EF92FF92E6
:101C10000F931F93FB01DC0100E010E098016A01C3
:101C2000F12CE12C0C151D052E053F0538F46191B2
:101C30006D930F5F1F4F2F4F3F4FF4CF840F951FB2
:101C40001F910F91FF90EF90DF90CF900895CF9369
:101C5000DF93EB0188819981A6EAB5E011969C9308
:101C60008E932A813B810697EC01E881F981EA5540
:101C7000FA4F3183208312961D921D921D921C9261
:101C8000159781E290E0948383838CEA95E0948BAE
:101C9000838B1582158ADF91CF910895DB012D91F9
:101CA0003C911197FC013183208312966D917C91B8
:101CB00026503109D901ED91FC91E80FF91F71838C
:101CC000608381E290E094838383548B438B1582FD
:101CD000158A08950C94052F0C94052F0C94052F4C
:101CE0000C94052F0C94052F0C94052FCF93DF93A4
:101CF000EC010E947A0DCE01DF91CF910C94052F5B
:101D0000DC01ED91FC91369720813181820F931F88
:101D10000C94760ECF93DF93EC010E94320DCE012E
:101D2000DF91CF910C94052FDC01ED91FC9136975A
:101D300020813181820F931F0C948A0E0C94052F01
:101D40000C94052FDC01ED91FC91369720813181B7
:101D5000820F931F0C94A00E0C94052F0C94052F4A
:101D6000DC01ED91FC91369720813181820F931F28
:101D70000C94AE0E0C94052FFC01808191810C9483
:101D8000052F23EE31E0FC013183208340960C9433
:101D9000BC0ECF93DF93EC010E94C10ECE01DF9108
:101DA000CF910C94052FCF93DF93EC0181EA91E062
:101DB000998388838BEA91E09E8F8D8FCE01029666
:101DC0000E94C10E65E971E0CE01DF91CF910C94C4
:101DD000660DDC01ED91FC91369720813181820FF7
:101DE000931F0C94D30ECF93DF93EC010E94D30E7C
:101DF000CE01DF91CF910C94052FDC01ED91FC9188
:101E0000369720813181820F931F0C94F30ECF936C
:101E1000DF93EC010E94DB0DCE0104960E94F805D1
:101E2000882381F00A80DB81C02D84E090E00E944D
:101E3000692EFC01D383C2832DEB32E031832083F2
:101E4000988B8F87DF91CF910895CF93DF93EC012B
:101E500088E090E09B838A831D821C820E94692E09
:101E600099838883DF91CF9108950F931F93CF9328
:101E7000DF93EC018C010E5F1F4FB8014D960E945D
:101E8000920DA80165E971E0CE010E944E0E81EA33
:101E900091E0998388838BEA91E09E8F8D8F1E82DB
:101EA0001D8218861F821A8619861C861B861E862E
:101EB0001D86188A1F86198A83EE91E09B838A8388
:101EC000CE0142960E94250F1A8E198E1C8E1B8EF3
:101ED00080E1898BDF91CF911F910F910895CF936E
:101EE000DF93D0910A06C0910B0690930D06809364
:101EF0000C06880F991F0E94692E80930A06909302
:101F00000B0620910E0630910F06FC01AD2FBC2F61
:101F100090E080E02817390759F0309729F04D916B
:101F20005C91119751834083019632961296F2CFBD
:101F30008D2F9C2FDF91CF910C94052F0F931F9322
:101F4000CF93DF93EC018B0120910C0630910D06AD
:101F50002817390730F408962817390710F40E941B
:101F60006F0F80910E0690910F069C01220F331F78
:101F7000E0910A06F0910B06E20FF31F8C179D0704
:101F800050F4309729F0D8012D913C913183208372
:101F900001963296F3CFD0930F06C0930E06DF91D1
:101FA000CF911F910F9108950F931F93CF93DF93BC
:101FB00000D0CDB7DEB79A8389838AE096E00E948D
:101FC0003D0610E000E02091130630911406021740
:101FD0001307B4F420910E0630910F06C901019643
:101FE0002817390740F4BE016F5F7F4F0E949E0F94
:101FF0000F5F1F4FE8CF10920F0610920E06F8CF1A
:1020000089819A81289FA001299F500D389F500DEA
:102010001124509312064093110690931A06809350
:1020200019060F900F90DF91CF911F910F91089596
:102030000F931F93CF938C01C62F80919804811129
:102040002FC08CE090E0909394048093930484E0FC
:1020500090E090939604809395048CE090E00E9429
:10206000692E9093920480939104EFE6F1E0CF0102
:102070008F569140A0919104B091920420919504C3
:10208000309196048217930740F4A80FB91F109758
:1020900011F080818C933196EACF81E0809398048F
:1020A000E0919104F09192048091950490919604AE
:1020B0008E0F9F1FE817F90758F421912C13FACFC0
:1020C00080E2C8276DE7F801808191810E94A20219
:1020D0006C2FF80180819181CF911F910F910C9409
:1020E000A202AF92BF92CF92DF92EF92FF920F9334
:1020F0001F93CF93DF9300D000D000D01F92CDB7B5
:10210000DEB78C016B01DC0118968D919C919E834A
:102110008D8308969C838B830E94692E9A83898382
:1021200090E080E02D813E818217930788F4E98159
:10213000FA81E80FF91F309749F0D80114962D91D4
:102140003C91D901A80FB91F2C9120830196EACFA9
:10215000F601E480F580FBE0EF0EF11C6EE7D8019C
:102160008D919C910E94A2026F2DC8010E941810AF
:102170006E2DC8010E94181060E0C8010E9418105E
:10218000F801F684F394FF20F1F0F6866F2DC80174
:102190000E941810F801A480B580D80114968D9182
:1021A0009C91159718962D913C91820F931FA8161C
:1021B000B90670F4F501E1905F016E2DC8010E942F
:1021C0001810FE0CEACF81E08687FF24F394DECF5F
:1021D00060E0C8010E941810D601AD90BC90F601D5
:1021E0008081918124813581820F931FA816B906C1
:1021F00048F4D501ED905D016E2DC8010E941810C4
:10220000FE0CEDCF6F2D6095C8010E941810CE0115
:1022100001960E94BC0E27960FB6F894DEBF0FBE43
:10222000CDBFDF91CF911F910F91FF90EF90DF9085
:10223000CF90BF90AF900895CF93DF93FC01C28100
:10224000D38184E090E00E94692EFC01D383C28395
:1022500029E832E031832083988B8F87DF91CF91FB
:102260000895CF93DF93FC01C281D38184E090E095
:102270000E94692EFC01D383C2832DEB32E03183AF
:102280002083988B8F87DF91CF9108950F931F93B1
:10229000CF93DF93EC018B0140E25EE460E070E0FD
:1022A00088E995E00E9424060230110581F40A8035
:1022B000DB81C02D84E090E00E94692EFC01D38375
:1022C000C2832FE632E031832083988B8F87DF91A2
:1022D000CF911F910F910895CF93DF93FC01C2819D
:1022E000D38184E090E00E94692EFC01D383C283F5
:1022F00029E832E031832083988B8F87DF91CF915B
:102300000895CF93DF93FC01C281D38184E090E0F4
:102310000E94692EFC01D383C2832DEB32E031830E
:102320002083988B8F87DF91CF910895CF93DF9390
:10233000FC01C281D38184E090E00E94692EFC01FF
:10234000D383C28329E832E031832083988B8F873F
:10235000DF91CF9108950F931F93CF93DF93EC01FB
:10236000CB01088119817B836A830E94692E99833E
:102370008883F801CF01801B910B2C813D8182174E
:10238000930750F4A881B981A80FB91F109711F0D5
:1023900080818C933196EECFC801DF91CF911F9150
:1023A0000F910C94052FEF92FF920F931F93CF93F1
:1023B000DF93EC018C819D818617970740F57A01A8
:1023C0008B018A819B818617970740F4685F7F4F56
:1023D0008617970718F4CE010E94AB118C819D815E
:1023E0008017910758F4E881F981E80FF91F3097B9
:1023F00019F0D7012C9120830196F2CF1D830C8315
:10240000DF91CF911F910F91FF90EF900895681782
:102410007907B0F77D836C83F3CFCF92DF92EF9291
:10242000FF920F931F93CF93DF931F92CDB7DEB729
:102430008C0183EAC82E87E0D82EF601E480F5806F
:10244000F801648175816E0D7F1D1982AE014F5FA9
:102450005F4FC6010E94D311F8014481558160810C
:102460007181F601808191818E0D9F1D0E94040E65
:10247000C6010F90DF91CF911F910F91FF90EF90C8
:10248000DF90CF900895CF93DF931F92CDB7DEB743
:1024900083EA97E00E943D061982AE014F5F5F4FCD
:1024A00063E070E083EA97E00E94D31143E050E0DC
:1024B0006DE373E08091A3079091A4070E94040E3E
:1024C0000F90DF91CF910895AF92BF92CF92DF929C
:1024D000EF92FF920F931F93CF93DF931F92CDB78D
:1024E000DEB78C0159016A01AC14BD04D1F1F601CB
:1024F00081916F018983F801808191817B01E81AC4
:10250000F90A648175816F5F7F4FAE014F5F5F4F46
:10251000C8010E94D311F80124813581215031096D
:10252000F80180819181E216F30668F4A901415017
:102530005109FC01E40FF51F6081820F931FFC011C
:1025400060839A01EDCF29818E0D9F1DFC012083B0
:10255000FFEFEF1AFF0AF801608171816E0D7F1D98
:10256000C3CF0F90DF91CF911F910F91FF90EF900C
:10257000DF90CF90BF90AF900895EF92FF920F93AE
:102580001F93CF93DF931F92CDB7DEB78C017B01F2
:102590000E943D06F701648175811982AE014F5F8B
:1025A0005F4FC8010E94D311F701448155816081BA
:1025B0007181F801808191810E94040E0F90DF915A
:1025C000CF911F910F91FF90EF900895CF93DF93DC
:1025D000EC0142966817790711F00E94BD121A8E1D
:1025E000198E898981FF13C08E899F899C8F8B8F5B
:1025F000E881F981369780819181C80FD91F8B8935
:102600009C89892B39F01D82DF91CF9108951C8E12
:102610001B8EEECF81E08D83F7CFEF92FF920F9369
:102620001F93CF93DF931F92CDB7DEB7FC01822FAC
:102630008870922F90712871283131F4423009F05E
:102640003FC08FEF9FEF23C0413049F58B012489B4
:10265000358920173107A8F3882311F0108F078BD5
:102660009923A1F07F011982AE014F5F5F4FB8013E
:10267000CF0140960E94D311F7018489958927895B
:10268000308D8217930710F4908F878BC8010F90BD
:10269000DF91CF911F910F91FF90EF9008954230FD
:1026A00089F404891589060F171F911102C010E0E3
:1026B00000E0882361F20789108D060F171FC7CF2E
:1026C000413021F204891589F8CFAB01FC01648106
:1026D00075816F5F7F4F0C94D311CF93DF93EC0123
:1026E00083EA97E00E943D06CE0107960E940D12F4
:1026F000BE01625F7F4F83EA97E0DF91CF910C9438
:102700006513EF92FF920F931F93CF93DF9300D047
:102710001F92CDB7DEB78C0180917804811107C07C
:1027200081E794E00E94250F81E08093780481E79F
:1027300094E00E943D06E0907504F09076041A82C1
:10274000B7016E5F7F4FAE014E5F5F4F81E794E050
:102750000E94D311809171049091720442E050E084
:1027600060E773E08E0D9F1D0E94040ED80116963F
:10277000ED91FC91179714968D919C9115979C0162
:102780002F5F3F4F15963C932E931497E80FF91F38
:1027900080818B83882309F441C08C32B9F564E6CB
:1027A00070E080E090E00E9440058DE08983BE01EA
:1027B0006F5F7F4F81E794E00E946513D801129606
:1027C000ED91FC9180819181409175045091760446
:1027D0006091710470917204DC01ED91FC910280B2
:1027E000F381E02D099548E853E160E070E088E965
:1027F00095E00E94240681E00F900F900F90DF91EA
:10280000CF911F910F91FF90EF900895BE016D5FE2
:102810007F4F81E794E00E946513A8CF80E0ECCF62
:10282000CF93DF93EC0148E853E160E070E088E982
:1028300095E00E942406CE01DF91CF910C94811384
:10284000EF92FF920F931F93CF93DF931F92CDB719
:10285000DEB78C017B016F3F760779F1D8011F96B7
:102860008C911F9784FF2CC059968D919C915A97FB
:1028700054962D913C91559782179307B8F0698330
:10288000BE016F5F7F4FC80140960E946513F8013B
:10289000818D928D0196928F818FC7010F90DF916C
:1028A000CF911F910F91FF90EF9008955096ED9169
:1028B000FC91E80FF91F6083EACFF12CE12CEDCFFA
:1028C000EE24EA94FE2CE9CF0F931F93CF93DF936E
:1028D000EC01CB01088119817B836A830E94692EF8
:1028E00099838883F801CF01801B910B2C813D8156
:1028F0008217930750F4A881B981A80FB91F1097C8
:1029000011F080818C933196EECFC801DF91CF9189
:102910001F910F910C94052FEF92FF920F931F932D
:10292000CF93DF93EC018B017A018A819B8186171B
:10293000970740F4685F7F4F8617970718F4CE011A
:102940000E9464148C819D818017910758F4E8815E
:10295000F981E80FF91F309719F0D7012C912083E6
:102960000196F2CF1D830C83DF91CF911F910F91C0
:10297000FF90EF900895AF92BF92CF92DF92EF92C7
:10298000FF921F93CF93DF93EC017B016C0184E0F6
:10299000C80ED11CC6010E943D0619E01150A9F0D5
:1029A00057018FEFA81AB80A88859985BC016F5F17
:1029B0007F4F8617970730F4A701C6010E948C1439
:1029C0007501ECCF19861886FBCFDF91CF911F914F
:1029D000FF90EF90DF90CF90BF90AF900895EF926F
:1029E000FF920F931F93CF93DF9300D000D000D0BE
:1029F0001F92CDB7DEB78C01DC011296ED90FC90F2
:102A000080E190E09C838B8388E090E09E838D83BF
:102A100080E190E00E94692E9A838983E7E6F1E0E5
:102A2000CF018756914069817A812D813E8182173D
:102A3000930750F4680F791F6115710519F08081B3
:102A4000DB018C933196ECCFC7010E94BB14CE0101
:102A500001960E94BC0ED8011296ED91FC9181E086
:102A6000858702811381F801158214828281938106
:102A70000E943D06D80116961C92169717961C9236
:102A8000179719961C921E9218978FEF1A968C938F
:102A900040E25EE460E070E088E995E00E94240690
:102AA00027960FB6F894DEBF0FBECDBFDF91CF9152
:102AB0001F910F91FF90EF900895CF92DF92EF92C8
:102AC000FF920F931F93CF93DF931F92CDB7DEB783
:102AD0008C017B016A010E94250F8FEFC816D80672
:102AE00011F40E942533F7018081181684F41982AD
:102AF000AE014F5F5F4FB601C8010E94D311F801CC
:102B000044815581B701808191810E94040E0F900C
:102B1000DF91CF911F910F91FF90EF90DF90CF90B9
:102B20000895EF92FF920F931F93CF93DF931F921D
:102B3000CDB7DEB78C017B010E94250FF7016481C0
:102B400075811982AE014F5F5F4FC8010E94D3119A
:102B5000F80144815581F70160817181F80180811C
:102B600091810E94040E0F90DF91CF911F910F91E0
:102B7000FF90EF9008950F931F93CF93DF93CDB7FE
:102B8000DEB7EB970FB6F894DEBF0FBECDBF8C015A
:102B900060E1CE0101960E94350F6AE3CE010196F5
:102BA0000E94AE0BF8012481358150E040E0608145
:102BB00071810E94C90B63E20E94AE0B0091040672
:102BC00010910506AE01455C5F4FBE016D5E7F4F03
:102BD000CE01C4960E949115BE016C5C7F4FC80166
:102BE0000E947110CE01C4960E94BC0ECE010196C7
:102BF0000E94D30EEB960FB6F894DEBF0FBECDBF8A
:102C0000DF91CF911F910F910895EF92FF920F9353
:102C10001F93CF93DF931F92CDB7DEB78C017B015B
:102C2000BC01CE0101960E949B0BF7010190002090
:102C3000E9F73197EE19FF099F0150E040E0B70135
:102C4000C8010E941D0CC8010F90DF91CF911F9108
:102C50000F91FF90EF900895AF92BF92CF92DF92C5
:102C6000EF92FF920F931F93CF93DF931F92CDB7F5
:102C7000DEB77C016B010E94250FF6010190002058
:102C8000E9F731978F010C191D09F701A480B58070
:102C90001982B8016A0D7B1DAE014F5F5F4FC701FE
:102CA0000E94D311F70180819181A801B6018A0D9C
:102CB0009B1D0E94040E0F90DF91CF911F910F91E9
:102CC000FF90EF90DF90CF90BF90AF900895CF939B
:102CD000DF93CDB7DEB728970FB6F894DEBF0FBEEF
:102CE000CDBFAE01485F5F4F61E473E0CE01019656
:102CF0000E942C16CE0101960E94BB15CE010196B2
:102D00000E94BC0E28960FB6F894DEBF0FBECDBF52
:102D1000DF91CF910895CF93DF93CDB7DEB728979A
:102D20000FB6F894DEBF0FBECDBFAE01485F5F4F58
:102D300067E473E0CE0101960E942C16CE01019645
:102D40000E94BB15CE0101960E94BC0E28960FB6BC
:102D5000F894DEBF0FBECDBFDF91CF9108950F93E2
:102D60001F93CF93DF93CDB7DEB728970FB6F894B4
:102D7000DEBF0FBECDBF8C01DC011296ED91FC9140
:102D80001586808191810E944301F801028113819F
:102D9000AE01485F5F4F6CE473E0CE0101960E9484
:102DA0002C16D8018D919C914D815E8169817A812B
:102DB000DC01ED91FC910280F381E02D0995CE01BB
:102DC00001960E94BC0E40EB54E060E070E088E9A0
:102DD00095E00E94240628960FB6F894DEBF0FBE39
:102DE000CDBFDF91CF911F910F9108950F931F9346
:102DF000CF93DF931F92CDB7DEB78C01809187040C
:102E000081110CC0AE014F5F5F4F60E573E080E859
:102E100094E00E942C1681E08093870460E874E0BF
:102E2000F801828193810E94711040E45FE160E0CB
:102E300070E088E995E00E94240648EB5BE060E0E2
:102E400070E0C80104960E9424060F90DF91CF9194
:102E50001F910F9108950F931F93CF93DF931F92AC
:102E6000CDB7DEB78C01AE014F5F5F4F67E573E012
:102E70000E942C16C8010F90DF91CF911F910F91E6
:102E800008950F931F93CF93DF931F92CDB7DEB7B3
:102E90008C01AE014F5F5F4F65E673E00E942C1618
:102EA000C8010F90DF91CF911F910F9108950F935B
:102EB0001F93CF93DF931F92CDB7DEB78C0148EB02
:102EC0005BE060E070E088E995E00E942406809174
:102ED000690481110CC0AE014F5F5F4F60E573E084
:102EE00082E694E00E942C1681E08093690462E6F9
:102EF00074E0F801828193810E9471100F90DF913C
:102F0000CF911F910F9108950F931F93CF93DF934C
:102F10001F92CDB7DEB78C01AE014F5F5F4F6CE6FD
:102F200073E00E942C16C8010F90DF91CF911F9182
:102F30000F9108950F931F93CF93DF931F92CDB7F7
:102F4000DEB78C01AE014F5F5F4F63E773E00E9415
:102F50002C16C8010F90DF91CF911F910F9108950A
:102F60000F931F93CF93DF931F92CDB7DEB78C01E2
:102F7000AE014F5F5F4F6AE773E00E942C16C801F5
:102F80000F90DF91CF911F910F9108950F931F9391
:102F9000CF93DF931F92CDB7DEB78C01AE014F5FA9
:102FA0005F4F65E873E00E942C16C8010F90DF9117
:102FB000CF911F910F910895EF92FF920F931F935E
:102FC000CF93DF93CDB7DEB764970FB6F894DEBF2B
:102FD0000FBECDBF8C01DC01ED91FC9136970190C5
:102FE000F081E02DE80FF91F8381948185FD58C0A1
:102FF00086FF3FC092FF57C08FE893E07F936F93A7
:103000005F934F939F938F931F9284E18F939E01C1
:103010002F5F3F4F79013F932F930E944A339C01CA
:10302000990F440B550BB701C8010E941D0CD80124
:10303000ED91FC9136970190F081E02DE00FF11FAA
:10304000838194810FB6F894DEBF0FBECDBF96FF8B
:1030500003C0C8010E94500B64960FB6F894DEBFFF
:103060000FBECDBFDF91CF911F910F91FF90EF90D9
:10307000089587FF1BC09C012227307292FF08C071
:1030800088E993E0232B09F0B9CF8DE993E0B6CF1F
:1030900082EA93E0232B09F0B1CF86EA93E0AECF2A
:1030A0008BE893E0ABCF84E993E0A8CF90E080E099
:1030B000A5CF8F929F92AF92BF92CF92DF92EF9265
:1030C000FF920F931F93CF93DF93CDB7DEB728976F
:1030D0000FB6F894DEBF0FBECDBF809140058111C1
:1030E00008C060E18DE095E00E94350F81E080939B
:1030F000400580913D0590913E05892B09F4B7C0AC
:1031000010922F05AE01485F5F4F6FE473E0CE0170
:1031100001960E942C16BE016F5F7F4F8DE095E0F7
:103120000E94E612CE0101960E94BC0E6AE38DE079
:1031300095E00E94AE0B6AEA73E00E9405166CE20D
:103140000E94AE0B8C018091FE059091FF05DC0181
:10315000ED91FC910284F385E02D09954B015C0112
:10316000B801CE0101960E949B0B88E0C82ED12C9D
:10317000E12CF12CC501B401A70196010E94003396
:10318000BA01A901C8010E94DC176CE2C8010E94C3
:10319000AE0B8C01E091FE05F091FF050280F381FA
:1031A000E02D6081718182819381A70196010E9447
:1031B000003369017A01B801CE0101960E949B0B90
:1031C000B701A601C8010E94DC176CE2C8010E9489
:1031D000AE0B8C01E0910206F091030680810E9403
:1031E000930461E0892B09F060E0C8010E94B30CF0
:1031F0006CE20E94AE0B8C01E0910206F091030696
:1032000081810E94930461E0892B09F060E0C8018C
:103210000E94B30C63E20E94AE0B00910406109171
:103220000506AE01485F5F4F6FE175E0CE01019684
:103230000E949115BE016F5F7F4FC8010E947110FF
:10324000CE0101960E94BC0E28960FB6F894DEBF00
:103250000FBECDBFDF91CF911F910F91FF90EF90E7
:10326000DF90CF90BF90AF909F908F90089581E0B6
:1032700080932F0547CF1092A9040C945918CF9230
:10328000DF92EF92FF92CF93DF93CDB7DEB7EB974C
:103290000FB6F894DEBF0FBECDBF6A017B010E945E
:1032A0006D1360E1CE0101960E94350FBE016F5F84
:1032B0007F4FCE01C4960E949B0BB701A601CE01A1
:1032C00001960E94DC17AE01455C5F4FBE016D5E4A
:1032D0007F4FCE01C4960E949115CE01C4960E94E4
:1032E0000D12CE01C4960E94BC0ECE0101960E9422
:1032F000D30EEB960FB6F894DEBF0FBECDBFDF91B5
:10330000CF91FF90EF90DF90CF9008952F923F9252
:103310004F925F926F927F928F929F92AF92BF92E5
:10332000CF92DF92EF92FF920F931F93CF93DF9391
:1033300000D000D0CDB7DEB79C838B83DC01ED914C
:10334000FC910484F585E02D0995882309F408C1D2
:103350002FB7F8946091A1047091A2048091A30406
:103360009091A4042FBFEB81FC81878C90A0A1A039
:10337000B2A00785108921893289601B710B820BED
:10338000930B0E946D3120E030E04AE754E40E9444
:10339000C530A50194010E942432AB81BC815396B3
:1033A0002D913D914D915C9156970E9454306B0147
:1033B0007C01EB81FC810280F381E02DFA83E983BB
:1033C0004480558066807780AB81BC8193963C9029
:1033D000939794962C90949795960C919597969692
:1033E0001C9196971B966D917D918D919C911E9746
:1033F000641975098609970997FF07C0909580950C
:10340000709561957F4F8F4F9F4F0E946D312B01BB
:103410003C01C501B4019F779B01AC010E9454306F
:103420009B01AC01C301B2010E9424324B015C013B
:10343000232D322DA801632D722DC8010E94243244
:103440009B01AC01C501B4010E9454300E94973227
:103450004B015C01EB81FC8161857285072E000CBC
:10346000880B990B0E946F312B013C01AC019B0131
:10347000C501B4010E9424324B015C0120E030E020
:10348000A901C701B6010E941F32181624F0F7FAED
:10349000F094F7F8F09420E030E0A901C501B40100
:1034A0000E941F32181624F0B7FAB094B7F8B094FF
:1034B000A5019401C701B6010E94C03087FD02C07A
:1034C00075016401232D322DA801C701B6010E94A8
:1034D000C03087FD42C0A981BA811A966D917C9156
:1034E00090E080E00E946D315B018C019B01AC019A
:1034F000C701B6010E941F32181614F46501780145
:10350000A3019201C701B6010E942432EB81FC8124
:10351000678B708F818F928F87819085DC01ED9111
:10352000FC910480F581E02DB701A6010F900F906A
:103530000F900F90DF91CF911F910F91FF90EF901F
:10354000DF90CF90BF90AF909F908F907F906F90C3
:103550005F904F903F902F900994C32CD22CCFCFE7
:103560000F900F900F900F90DF91CF911F910F91BF
:10357000FF90EF90DF90CF90BF90AF909F908F9093
:103580007F906F905F904F903F902F900895AF92F3
:10359000BF92CF92DF92EF92FF920F931F93CF9340
:1035A000DF93CDB7DEB728970FB6F894DEBF0FBE16
:1035B000CDBF5C016B01AE01485F5F4F6EEA73E007
:1035C000CE0101960E942C16D6011496ED90FC9027
:1035D0000D811E81A7010E151F0508F4A801698140
:1035E0007A81F601808191810E943C33DD24D3945D
:1035F000892B39F4E016F10608F0D12C0E151F05C1
:1036000088F1CE0101960E94BC0ED1101AC0D501DE
:1036100012960D911C9188E090E00E94692EFC01A9
:103620001383028383EA92E09183808381EB93E0AA
:103630009783868315821482D8015096FC93EE936B
:103640001F9728960FB6F894DEBF0FBECDBFDF914F
:10365000CF911F910F91FF90EF90DF90CF90BF908F
:10366000AF900895DD24D394CCCF0F931F93CF93C5
:10367000DF93EB0109900020E9F72197C61BD70BD8
:10368000FC0104811581AE010C171D0708F4A80187
:10369000FC01808191810E943C33892B11F080E0F4
:1036A00004C081E0C017D107D1F7DF91CF911F91FE
:1036B0000F910895CF93DF93EC01CB016EEA73E095
:1036C0000E94351B8823C1F0CE010E948113811115
:1036D00010C00A80DB81C02D84E090E00E94692E3A
:1036E000FC01D383C28325E532E031832083988BAC
:1036F0008F87DF91CF9108950A80DB81C02D84E010
:1037000090E00E94692EFC01D383C2832DEB32E04E
:10371000ECCFAF92BF92CF92DF92EF92FF920F93D6
:103720001F93CF93DF9300D000D000D01F92CDB76E
:10373000DEB75C017B01DB010D911C9111971496A2
:10374000CD90DC90C00ED11E88E090E09C838B83EE
:103750001E821D820E94692E9A838983CE01019662
:103760000E943D06A801465F5F4F69817A819601FC
:10377000CE0101960E94641263E074E0CE010196CE
:103780000E94351B882321F1F70160817181D501E9
:1037900012968D919C910E94BB14F50102811381B8
:1037A0008CE090E00E94692EFC01138302838BE37E
:1037B00092E091838083148215821682178210868C
:1037C000118612861386D8015096FC93EE931F97AC
:1037D000CE0101960E94BC0E27960FB6F894DEBF6C
:1037E0000FBECDBFDF91CF911F910F91FF90EF9052
:1037F000DF90CF90BF90AF9008950F931F93CF931A
:10380000DF93CDB7DEB7CC54D1090FB6F894DEBF45
:103810000FBECDBF8C01CE0101960E94B608CE012D
:1038200087960E94B60846E250E070E060E0CE0164
:1038300087960E94982F8FA198A58B3F9A4439F4C0
:103840002D968EAD9FAD2D978B3F9A44A9F086E2C1
:10385000FE013196D80101900D928A95E1F7C801D9
:10386000C45BDF4F0FB6F894DEBF0FBECDBFDF9154
:10387000CF911F910F91089589A5833041F786E27A
:10388000FE01B796E7CF8F929F92AF92BF92CF92F1
:10389000DF92EF92FF920F931F93CF93DF93CDB7F9
:1038A000DEB7CD54D1090FB6F894DEBF0FBECDBF41
:1038B0007C018C01095F1F4F67E074E0C8010E9422
:1038C000351B882359F0E0910006F09101064485EC
:1038D000558570E060E0C7010E943F196AE074E01E
:1038E000C8010E94351B882369F0F70187859089FC
:1038F000A189B28984369105A105B1050CF0D0C12A
:103900000E9443126DE074E0C8010E94351B8823B9
:1039100059F0E0910006F0910106428D538D70E060
:1039200060E0C7010E943F1960E174E0C8010E9495
:10393000351B882351F0E0910006F0910106D70174
:103940001F968D919C91938F828F63E174E0C801E3
:103950000E94351B8823D1F0E0910206F091030606
:1039600081810E949304892B89F00E9467168091BF
:10397000FE059091FF05DC01ED91FC910084F1853D
:10398000E02D48E15CEF6FEF7FEF099566E174E0B1
:10399000C8010E94351B8823A1F0AE01495D5F4F2D
:1039A00069E174E0CE0101960E942C16C7010E94C5
:1039B0006D13CE0101960E940D12CE0101960E9458
:1039C000BC0E67E274E0C8010E94351B882361F1D8
:1039D000E0910206F091030680810E949304892BF6
:1039E00019F1E0910606F0910706A5A1B6A121897B
:1039F000328919968D919C9128173907A8F00E9459
:103A00008B168091FE059091FF05E0910006F091E4
:103A100001064481558166817781DC01ED91FC913D
:103A20000084F185E02D09956AE274E0C8010E94E6
:103A3000351B8823B1F08091FE059091FF05DC01D4
:103A4000ED91FC910284F385E02D099528E030E0AA
:103A500040E050E00E940033BA01A901C7010E9472
:103A60003F196DE274E0C8010E94351B8823B9F04C
:103A7000F70187859089A189B28953E0880F991F42
:103A8000AA1FBB1F5A95D1F7E091FE05F091FF05E3
:103A90000280F381E02D84839583A683B78360E35E
:103AA00074E0C8010E94351B8823B1F0E091FE0547
:103AB000F091FF050280F381E02D608171818281A8
:103AC000938128E030E040E050E00E940033BA01EA
:103AD000A901C7010E943F1963E374E0C8010E9475
:103AE000351B8823B9F0E091FE05F091FF05228196
:103AF0003381F70187859089A189B28943E0880FD6
:103B0000991FAA1FBB1F4A95D1F7F90180839183A2
:103B1000A283B38366E374E0C8010E94351B882347
:103B200031F00E94591883EA97E00E943D0669E34C
:103B300074E0C8010E94351B882359F08091FE056E
:103B40009091FF05DC01ED91FC910280F381E02D65
:103B500009956CE374E0C8010E94351B8823A9F025
:103B6000E091FE05F091FF050280F381E02D428592
:103B7000538570E060E093E075956795579547959C
:103B80009A95D1F7C7010E943F196FE374E0C8010D
:103B90000E94351B8823F9F0F70187849088A1885B
:103BA000B28883E0880C991CAA1CBB1C8A95D1F7AB
:103BB000E090FE05F090FF05D70193966D917D9101
:103BC0008D919C9196970E943E318616970608F03B
:103BD00071C00E94431262E474E0C8010E94351B68
:103BE0008823E1F0CE0101960E94B608809100067C
:103BF0009091010626E2FE013196DC0101900D92C2
:103C00002A95E1F746E250E070E060E00E94A82FBC
:103C10006BEF7AE48CE490E00E94CA2F65E474E0D4
:103C2000C8010E94351B882381F0E0900006F090C7
:103C30000106CE0188960E94FD1B86E2FE01B89621
:103C4000D70101900D928A95E1F768E474E0C8010C
:103C50000E94351B882381F046E250E070E060E06E
:103C600080910006909101060E94A82F6BEF7AE4E4
:103C70008CE490E00E94CA2FC35BDF4F0FB6F8942C
:103C8000DEBF0FBECDBFDF91CF911F910F91FF908F
:103C9000EF90DF90CF90BF90AF909F908F9008955E
:103CA000E091FE05F091FF050280F381E02D918700
:103CB000808728CED7011296ED91FC91938682865B
:103CC0008ACFCF93DF93EC010E946D138E858335ED
:103CD00029F4CE01DF91CF910C94431CDF91CF9159
:103CE00008952F923F924F925F926F927F928F92A0
:103CF0009F92AF92BF92CF92DF92EF92FF920F937B
:103D00001F93CF93DF93CDB7DEB72C970FB6F89400
:103D1000DEBF0FBECDBF6C0129013A01FC01A18CB1
:103D2000B28C9E01265F3F4FA201CE0101960E94F8
:103D30005D15F601E488F588EA14FB0410F40E948E
:103D4000253317012A183B0882012414350408F48E
:103D500081018D809E80E01AF10AC40180959095C2
:103D6000E816F90660F7E80CF91CC60140969C8736
:103D70008B870815190538F41886AE01485F5F4F28
:103D8000B7010E94D311F60180899189A101401BDE
:103D9000510BB501600F711F680F791F9501280D38
:103DA000391D820F931F0E942A3369817A81F6019F
:103DB00080899189A4018A0D9B1D0E94040E198699
:103DC000AE01475F5F4FB7018B859C850E94D31181
:103DD000CE0101960E94BC0EF601818D928D840D5C
:103DE000951D928F818FC301B2012C960FB6F89466
:103DF000DEBF0FBECDBFDF91CF911F910F91FF901E
:103E0000EF90DF90CF90BF90AF909F908F907F907A
:103E10006F905F904F903F902F900895AF92BF9218
:103E2000CF92DF92EF92FF920F931F93CF93DF9386
:103E3000CDB7DEB728970FB6F894DEBF0FBECDBF63
:103E40007C018B010E94250F570187E0A80EB11C51
:103E5000C5010E94250FD8011496CD90DC90E01684
:103E6000F10621F0B801C7010E94BD12F7011786C3
:103E7000108A118A128AD8016D917C916F5F7F4FF1
:103E8000C5010E946513B3E0CB16D104B0F480E302
:103E9000F7018687F6E0CF16D104E8F1D801ED915D
:103EA000FC91119784818C32B1F514964D915C91FF
:103EB0004530510598F40E942533F80160817181E5
:103EC0006E5F7F4FC5010E946513F3E0CF16D104EA
:103ED000F1F2D801ED91FC918381DACF455051097F
:103EE000BF016B5F7F4F9E01285F3F4FCE01019660
:103EF0000E945D154AE050E070E060E089819A819F
:103F00000E940E2DF7016787708B818B928BCE01FB
:103F100001960E94BC0E28960FB6F894DEBF0FBE25
:103F2000CDBFDF91CF911F910F91FF90EF90DF9068
:103F3000CF90BF90AF9008958F929F92AF92BF9213
:103F4000CF92DF92EF92FF920F931F93CF93DF9365
:103F5000CDB7DEB76A970FB6F894DEBF0FBECDBF00
:103F6000DB011496AD90BC90BAE0AB16B10408F436
:103F700048C08B017C01FB01C080D18046018A0CC6
:103F80009B1C88E090E09F8B8E8B198E188E0E9470
:103F9000692E9D8B8C8BCE0144960E943D06A60116
:103FA000465F5F4F6C897D899401CE0144960E94E3
:103FB0006412FAE0AF16B104B9F1D801ED91FC91A9
:103FC0008285803489F5BE016C5E7F4FCE010196FB
:103FD0000E940E1FCE0101960E94611E63EA77E0E7
:103FE000F701828193810E947110CE0108960E9490
:103FF000BC0ECE0101960E94BC0ECE0144960E94DA
:10400000BC0E6A960FB6F894DEBF0FBECDBFDF912F
:10401000CF911F910F91FF90EF90DF90CF90BF90C5
:10402000AF909F908F90089563E074E0CE01449626
:104030000E94351B882309F3D70118961D921D9203
:104040001D921C921B9740E45FE160E070E088E9FC
:1040500095E00E942406D1CF1F920F920FB60F92C7
:1040600011248F939F938091E1009091E100937FC1
:104070009093E10083FF0FC01092E90091E09093CC
:10408000EB001092EC0092E39093ED0010920C057F
:1040900098E09093F00082FF22C093E09093E900B3
:1040A0009091F200992319F09AE39093E80090918F
:1040B000FD04992341F09091FD0491509093FD04EB
:1040C000911101C05D9A90910B05992341F0909157
:1040D0000B05915090930B05911101C0289A84FF14
:1040E00018C08091E2008E7E81608093E200809112
:1040F000E1008F7E8093E1008091FC048E7E8061E0
:104100008093FC049F918F910F900FBE0F901F9092
:10411000189580FFF7CF8091E2008E7E80618093BA
:10412000E2008091E1008E7E8093E1008091FC04AA
:104130008E7E8160E5CF1F920F920FB60F921124F1
:10414000CF92DF92EF92FF920F931F932F933F93A3
:104150004F935F936F937F938F939F93AF93BF938F
:10416000EF93FF93CF93DF93CDB7DEB76C97DEBFAE
:10417000CDBF1092E9008091E80083FF25C068E080
:10418000CE0145960E94950282EF8093E8008D89CA
:1041900087FF39C09091E80090FFFCCF982F907670
:1041A00009F034C19E894F89588D2F89F88C91115F
:1041B00031C0803861F58091FB048093F10010924A
:1041C000F1008EEF8093E8006C960FB6F894DEBF96
:1041D0000FBECDBFDF91CF91FF91EF91BF91AF9116
:1041E0009F918F917F916F915F914F913F912F910F
:1041F0001F910F91FF90EF90DF90CF900F900FBE27
:104200000F901F9018959EEF9093E800C7CF1092E3
:10421000F100D5CF913059F48111D3CF4130510500
:1042200081F68091FB048D7F8093FB04CACF93308D
:1042300049F48111C6CF4130510519F68091FB0434
:104240008260F2CF953041F48091E80080FFFCCF8E
:1042500020682093E300B5CF963009F0A9C00B8DFC
:104260001C8D22E01092E9001092F9041092F804DB
:10427000F2122EC01092F7041092F6040E9464020B
:104280001F8299E09983FA8291E09E8390EA988751
:104290009AEF99872091F8043091F904275F3F4FF6
:1042A0003C832B838D831092E9001092F9041092C5
:1042B000F8041093F7040093F60449E050E0BE01BF
:1042C0006F5F7F4F80E00E943E020E94640279CFC0
:1042D0001093F7040093F6040E94FC01DC0112968F
:1042E0000D911C910115110509F451C1D801ED91F1
:1042F000FC910480F581E02DBE016B5E7F4FC8010B
:104300000995009709F03EC1F80100851185EACFB3
:10431000F3E0FF120EC08F89882309F440C0823079
:1043200061F440E860E183EA91E00E946D2481112C
:1043300048CF81E28093EB0047CF813029F440E8F9
:104340006BE087E991E0F1CF833099F70E94FC019F
:10435000DC011296ED90FC908E010F5F1F4F6801FB
:10436000E114F10479F0D701ED91FC910680F78119
:10437000E02DB801C7010995080F111DF701E08470
:10438000F184EECFD8011C92F60101900020E9F7EC
:104390003197BF016C197D0940E0C601C6CF61E8C5
:1043A00071E0FB01449150E080E80E943E0209CF99
:1043B000973009F4BECF983021F481E08093F1006A
:1043C00000CF993009F0FDCE837009F0B2CFE4ED53
:1043D000F2E081E031E096E32191222371F08093B5
:1043E000E9003093EB00DF0111972C912093EC0052
:1043F0009093ED008F5F873079F78EE78093EA0026
:104400001092EA008F8980930C05DBCE8B8D9C8DFA
:104410001092E9001092F9041092F8049093F704B6
:104420008093F604898D811192C08E899D89913A7D
:1044300049F4813209F07DCF47E050E066E071E059
:1044400080E0B3CF913209F074CF833269F48F8961
:10445000988DB0E0A0E08093020190930301A093B7
:104460000401B0930501ADCE803269F48091E8007B
:1044700082FFFCCF67E086E091E00E9495028BEF1F
:104480008093E8009ECE823209F09BCE8F89809384
:104490000D01EEEFFFE7859194918B3F9C4D51F11B
:1044A000E0E0F8E08091060190910701A0910801F9
:1044B000B0910901803B9440A105B105F1F48091D0
:1044C0000D0180FD1AC0EE3F8AE0F80789F587E705
:1044D00097E791838083809160008093FA0488E15C
:1044E0009BE00FB6F894A895809360000FBE909360
:1044F000600067CEEEEFFAE0D5CF808191818737FB
:10450000974709F05ECEA8958091600088618093FE
:1045100060008091FA0480936000EE3F2AE0F20789
:1045200089F08091FE0A9091FF0A9183808349CEA1
:10453000808191818737980751F29093FF0A809389
:10454000FE0AC5CF1092FF0A1092FE0A3ACE0E94D0
:10455000FC01DC0112960D911C910115110509F465
:10456000E8CED801ED91FC910190F081E02DBE01E3
:104570006B5E7F4FC8010995811123CEF80100853C
:104580001185EBCF181619060CF41BCED2CEF1E034
:10459000FF12BECE65E871E004CF1F920F920FB6F6
:1045A0000F9211242F933F934F935F936F937F93B9
:1045B0008F939F93AF93BF93EF93FF9380E496E025
:1045C0000E943903FF91EF91BF91AF919F918F911D
:1045D0007F916F915F914F913F912F910F900FBEFF
:1045E0000F901F9018951F920F920FB60F921124E3
:1045F0002F938F939F93EF93FF93E0915006F09149
:1046000051068081E0915606F091570682FD1BC04D
:104610009081809159068F5F8F7320915A0682177F
:1046200041F0E0915906F0E0E05CF94F958F8093FE
:104630005906FF91EF919F918F912F910F900FBE8F
:104640000F901F9018958081F4CF1F920F920FB694
:104650000F9211242F933F938F939F93AF93BF9308
:104660008091A1049091A204A091A304B091A4040C
:104670003091A00423E0230F2D3758F50196A11D9A
:10468000B11D2093A0048093A1049093A204A09351
:10469000A304B093A4048091A5049091A604A091D2
:1046A000A704B091A8040196A11DB11D8093A50493
:1046B0009093A604A093A704B093A804BF91AF91D0
:1046C0009F918F913F912F910F900FBE0F901F9050
:1046D000189526E8230F0296A11DB11DD2CF1F9277
:1046E0000F920FB60F9211242F933F934F935F9326
:1046F0006F937F938F939F93AF93BF93EF93FF93AA
:10470000E0911601F09117010995FF91EF91BF918A
:10471000AF919F918F917F916F915F914F913F9159
:104720002F910F900FBE0F901F9018951F920F9210
:104730000FB60F9211242F933F934F935F936F9374
:104740007F938F939F93AF93BF93EF93FF93E091EA
:104750001401F09115010995FF91EF91BF91AF916F
:104760009F918F917F916F915F914F913F912F9189
:104770000F900FBE0F901F9018951F920F920FB6BB
:104780000F9211242F933F934F935F936F937F93D7
:104790008F939F93AF93BF93EF93FF93E091120199
:1047A000F09113010995FF91EF91BF91AF919F9106
:1047B0008F917F916F915F914F913F912F910F90CA
:1047C0000FBE0F901F9018951F920F920FB60F9269
:1047D00011242F933F934F935F936F937F938F9306
:1047E0009F93AF93BF93EF93FF93E0911001F091EC
:1047F00011010995FF91EF91BF91AF919F918F9119
:104800007F916F915F914F913F912F910F900FBECC
:104810000F901F9018951F920F920FB60F921124B0
:104820002F933F934F935F936F937F938F939F93B8
:10483000AF93BF93EF93FF93E0910E01F0910F01BF
:104840000995FF91EF91BF91AF919F918F917F91CA
:104850006F915F914F913F912F910F900FBE0F90ED
:104860001F9018951F920F920FB60F9211242F933D
:104870003F934F935F936F937F938F939F93AF93E8
:10488000BF93EF93FF9360910A0581E068276093DF
:104890000A0580918F0490919004DC01ED91FC91C8
:1048A0000190F081E02D0995809100019091010126
:1048B0009093890080938800FF91EF91BF91AF9111
:1048C0009F918F917F916F915F914F913F912F9128
:1048D0000F900FBE0F901F901895EF92FF920F93BD
:1048E0001F93CF93DF93F82E192FE62E042F81E02C
:1048F000860F880F0E94100283E00E941002CF2DC5
:10490000D12FEC0EFD2EF11CCE15DF05B9F007FFFF
:1049100013C0FE0184910E941002182F80E00E94B3
:104920001002812321968111EFCFDF91CF911F914A
:104930000F91FF90EF9008958881EDCF81E0F5CF42
:104940006CEA75E08EEB95E00E94920D4CEA55E022
:1049500061E072E086EA95E00E94270EE6EAF5E063
:104960008DE092E09183808387E192E0918F808F48
:10497000128611861486138616861586108A178667
:10498000128A118A148A138A87E791E097838683B3
:1049900088EF96E0978B868B88E0858B089566ED8F
:1049A00075E088EE95E00E94920D46ED55E06DE1D0
:1049B00072E084ED95E00E944E0EE4EDF5E089E2B0
:1049C00092E09183808383E392E0958B848B1682BF
:1049D0001582108617821286118614861386168613
:1049E0001586108A178687E791E09383828388EF84
:1049F00096E0938B828B80E1818B0895CF92DF923A
:104A0000EF92FF920F931F93CF93DF93C0E4D6E012
:104A1000109243061092420688EEC82E83E0D82EEC
:104A2000E12CF12CC0924406D0924506E092460655
:104A3000F09247068EED92E09093410680934006F7
:104A40008DEC90E090934D0680934C068CEC90E0BA
:104A500090934F0680934E0688EC90E09093510619
:104A60008093500689EC90E0909353068093520611
:104A70008AEC90E090935506809354068EEC90E07B
:104A800090935706809356061092590610925A0634
:104A900010925B0610925C0610924B0510924A052C
:104AA000C0924C05D0924D05E0924E05F0924F0514
:104AB00080EF92E090934905809348050FEF1FEF38
:104AC000109355050093540510929805109299057E
:104AD00010929A0510929B0510929C0510929D05CC
:104AE00010929E0510929F051092A3051092A205A8
:104AF0001092A1051092A0056BE271E086E091E0B2
:104B00000E94022E9093A3058093A20583EA97E06A
:104B10000E94250F10929B0710929C0710929D07F0
:104B200010929E0710929F071092A0071092A10763
:104B30001092A20788E293E090939A0780939907D6
:104B40000E94D10183E797E00E94FD1B84E193E07E
:104B500090934B0780934A0781E090E0909354072D
:104B600080935307109255071092560710925707DB
:104B7000109258071092590710925A0710925B072B
:104B800010925C0710925D0710925E0710925F070B
:104B900010926007109265071092660710926707DF
:104BA000109268071092690710926A0710926B07BB
:104BB00010926C0787E797E090934D0780934C071E
:104BC00089E997E09093520780935107109261070B
:104BD0001092620710926307109264078CE0809332
:104BE0004E078AE080934F078BE08093500780E068
:104BF00090E0AAE7B3E480936D0790936E07A093CB
:104C00006F07B093700761E08CE00E94EA0461E0F6
:104C1000809150070E94EA0461E080914F070E9452
:104C2000EA0461E080914F070E94BC041092720771
:104C30001092710783E08093480782E080934907D0
:104C40008AE497E09093A5058093A4051092FB0653
:104C50001092FA06C092FC06D092FD06E092FE0683
:104C6000F092FF06109305070093040782E093E09B
:104C70009093F9068093F80681EF96E00E94250F45
:104C80008AEE96E00E94250FD093DE06C093DD06E3
:104C90008AEE96E09093E0068093DF0682EB9DE03B
:104CA0009093E9068093E806D0933006C0932F06D0
:104CB0008DED96E0909332068093310683E396E083
:104CC0000E94250F10923B0610923A0610923C0665
:104CD00010923D0610923F0610923E0680913506D6
:104CE00090913606089730F468E070E083E396E030
:104CF0000E9464140FE216E0109309060093080660
:104D0000C0918407D0E088E090E090930D068093F6
:104D10000C0610920F0610920E0680E190E00E94A1
:104D2000692E90930B0680930A06D0931406C093C5
:104D3000130690E080E00E94D40F10921B061092A0
:104D40001C0610921D0610921E0610921F0610924D
:104D5000200610922106109222061092230610922D
:104D6000240610922506109226061092270610920D
:104D700028061092290610922A0682E190E090936C
:104D80002C0680932B0684E897E090932E06809360
:104D90002D068AE497E09093FF058093FE0583E754
:104DA00097E0909301068093000688E497E0909343
:104DB000030680930206109305060093040688E01C
:104DC00096E0909307068093060668EF76E084ED00
:104DD00095E00E94CF2468EF76E086EA95E0DF91C7
:104DE000CF911F910F91FF90EF90DF90CF900C9497
:104DF000A024CF93DF93CDB7DEB7C855D1090FB646
:104E0000F894DEBF0FBECDBF789484B5826084BDB8
:104E100084B5816084BD85B5826085BD85B58160BE
:104E200085BD80916E00816080936E00109281003C
:104E300080918100826080938100809181008160F7
:104E400080938100809180008160809380008091B8
:104E500091008260809391008091910081608093A5
:104E60009100809190008160809390008091C100BA
:104E700084608093C1008091C10082608093C100F2
:104E80008091C10081608093C1008091C3008160E6
:104E90008093C3008091C00082608093C0008091A5
:104EA000C20081608093C20080917A008460809308
:104EB0007A0080917A00826080937A0080917A00F3
:104EC000816080937A0080917A00806880937A0074
:104ED00010920C051092FB041092FC048091D700F4
:104EE00081608093D70080EA8093D80089B5806183
:104EF00089BD89B5826089BD09B400FEFDCF61E03E
:104F000070E080E090E00E9440058091D8008F7CA6
:104F100080618093D8008091E000807F8093E000E2
:104F20008091E1008E7E8093E1008DE08093E2002D
:104F3000559A209A61E080914F070E94BC0460E07E
:104F400080914E070E94BC048BE399E19093720715
:104F50008093710762E085E00E94EA0462E086E0E7
:104F60000E94EA048091F3069091F406409730F491
:104F700060E170E081EF96E00E94AB118091EC0659
:104F80009091ED06809730F460E270E08AEE96E052
:104F90000E9464148FEF9FEF90930507809304079E
:104FA0008091A2059091A305009711F00E94052F12
:104FB00088EF96E09093A1058093A0056BE271E0E5
:104FC00086E091E00E94022E9093A3058093A205B3
:104FD00080E496E00E94430148EE53E060E070E018
:104FE0008BE997E00E942406789484E090E00E9488
:104FF000692E2FE236E0DC0113963C932E93129734
:105000002DEB32E02D933C9390933F0680933E0628
:1050100062E0809148070E94EA0462E080914907BB
:105020000E94EA041092A90480914807882309F499
:1050300030C1813009F42FC1823009F42EC1833090
:1050400009F42DC1873029F484E067EE78E00E94EE
:105050006A0180914907882309F423C1813009F44A
:1050600022C1823009F421C1833009F420C1873084
:1050700029F484E066E179E00E946A0140E157E2A8
:1050800060E070E08BE196E00E942406E0912D063E
:10509000F0912E06438554856585768583E296E0FA
:1050A0000E9424068FEF9FEF0E94D40F4424439464
:1050B000512C34E0632E712C45E0E42EF12C8091CC
:1050C000EE04811108C060E18BEB94E00E94350F83
:1050D00081E08093EE048AE497E00E9486191091A3
:1050E0000D016AE070E080E090E00E94400511232D
:1050F00009F45AC088EF96E00E942D04181619068C
:105100000CF052C088EF96E00E94EB0397FD4CC074
:1051100029968FAF29978D3031F0803409F4C9C0BA
:105120008A3009F0CAC08091F5069091F606029780
:10513000D8F161EF76E0CE0101960E940E1FCE01FC
:1051400001960E946D138F85833521F4CE0101965F
:105150000E94431C2091A7073091A8072115310513
:10516000B9F050E040E06091A3077091A40784ED8E
:1051700095E00E94C90B8C01BC01CE01C4960E942F
:105180009B0B6AE0C8010E94750BC8010E94500B7E
:1051900081EF96E00E943D06CE0108960E94BC0E6B
:1051A000CE0101960E94BC0E80913C06882309F432
:1051B00025C10091310610913206F801808191815C
:1051C000DC01ED91FC910084F185E02D0995181624
:1051D00019060CF04EC133243A9486E0C82ED12C27
:1051E00092E0A92EB12C23E0822E912C222423942C
:1051F000F80180819181DC01ED91FC910084F185C1
:10520000E02D0995181619060CF033C1F8018081BC
:105210009181DC01ED91FC910284F385E02D0995EB
:1052200097FDE6CF69968FAF69978E37A1F4F801A5
:1052300015821482828193810E943D06D8011696C0
:105240001C92169717961C92179719961C921E92ED
:1052500018971A963C92F8018681882349F069963E
:105260008FAD69971682F0E28F2769968FAF6997A5
:10527000D80114962D913C91159769968FAD699739
:105280002115310509F455C08D3731F516962C924C
:10529000AFCF82E0DACE83E0D8CE81E0D6CE80E018
:1052A000D4CE82E0E7CE83E0E5CE81E0E3CE80E0BD
:1052B000E1CE81EF96E00E943D068091F506909147
:1052C000F606409708F070CFBE01685B7F4F81EF14
:1052D00096E00E94651368CF23303105E1F180F438
:1052E0002130310569F12230310509F081CFF80113
:1052F00020853185282B318720879582848278CF3D
:105300002430310599F12530310509F071CFF801CC
:105310009781980F9783628173819F3F09F05BC0EB
:10532000D582C4820384F485E02D1A968C91099568
:105330005FCF8E3709F05CCFF8015582448258CF99
:1053400018961C92189719968C9319971596BC92DB
:10535000AE9214974DCF1A968C931A9717968C93FA
:10536000179715967C926E92149742CFF80182811E
:105370009381DC0114962D913C91B9016F5F7F4FB1
:105380002617370720F5AE01485A5F4F0E948C144C
:10539000D80117968C91179769969FAD6997890FD9
:1053A00017968C9317971296ED91FC911397189678
:1053B0008D919C9119970197248135812817390780
:1053C00009F016CF1596FC92EE92149711CFFC01BE
:1053D00015821482DDCF15821482CB010E943D0616
:1053E000D80116961C92169717961C921797199625
:1053F0001C921E9218971A963C92FACE8091B10494
:10540000811107C08AEA94E00E94250F81E0809311
:10541000B10480912F0690913006DC01ED91FC9152
:105420000084F185E02D09951816190614F5809170
:105430002F0690913006DC01ED91FC910284F385FA
:10544000E02D099597FD15C089838D3009F0E7C0DF
:1054500080913A0690913B06DC01ED91FC91048429
:10546000F585E02D6AEA74E009958AEA94E00E94E5
:105470003D0680913A0690913B06009739F0DC0199
:10548000ED91FC910680F781E02D099580913E0613
:1054900090913F06892B09F462C06FE474E084EDBB
:1054A00095E00E9405168C0160913E0670913F06C2
:1054B000DB01ED91FC910480F581E02DCE01019698
:1054C00009952D813E8150E040E069817A81C801D3
:1054D0000E94C90B8C01BC01CE01C4960E949B0B9B
:1054E0006AE0C8010E94750BC8010E94500BCE01F2
:1054F00001960E94BC0E80913A0690913B0600975F
:10550000D9F0DC01ED91FC910084F185E02D099545
:1055100080913A0690913B0620913E0630913F06DD
:105520008217930749F0009739F0DC01ED91FC9167
:105530000280F381E02D099580913E0690913F060F
:1055400090933B0680933A0610923F0610923E06D7
:10555000DC01ED91FC910284F385E02D09958BE14E
:1055600096E00E94F805882309F44EC1E0912D06CB
:10557000F0912E0641815281638174818BE196E026
:105580000E942406E0912B06E23108F0E251F0E09F
:10559000ED5CFE4FE49190917B008E2F880F880F79
:1055A00080729F7D892B80937B00E770E064E0939D
:1055B0007C0080917A00806480937A0080917A00E8
:1055C00086FDFCCF2091780080917900382F689675
:1055D0003FAF2EAF6897E0910A06F0910B068091DD
:1055E00011069091120640815181841B950B820F08
:1055F000931F909312068093110630E020E04091B3
:105600000E0650910F06CA0101972817390778F442
:105610002F5F3F4F8281938181939193F0CFBE01A1
:105620006F5F7F4F8AEA94E00E94651322CF841750
:10563000950720F490930F0680930E0620910E0696
:1056400030910F06C90101962817390708F09FC14C
:10565000BE016A5A7F4F0E949E0F80911106909161
:10566000120660911306709114060E94EC3270933A
:105670001A066093190683E296E00E94F8058823D3
:1056800009F4C2C0E0912D06F0912E0643855485A1
:105690006585768583E296E00E94240660E1CE016E
:1056A00001960E94350F6AE3CE0101960E94AE0B6F
:1056B00064E574E00E9405166C01009119061091D2
:1056C0001A06BC01CE01885B9F4F0E949B0BA8016C
:1056D000D601ED91FC9136970190F081E02DEC0D13
:1056E000FD1D8381948185FD6EC186FF55C192FFAA
:1056F0006DC18FE893E01F921F925F934F939F932A
:105700008F931F9284E18F938E010C5C1F4F1F9328
:105710000F930E944A339C01990F440B550BB8011B
:10572000C6010E941D0CD601ED91FC9136970190A7
:10573000F081E02DEC0DFD1D838194810FB6F8946E
:10574000DEBF0FBECDBF96FF03C0C6010E94500B47
:1057500063E2C6010E94AE0BC0900806D090090615
:10576000AE01485B5F4FBE016D5E7F4FC8010E9476
:105770009115B801C6010E947110C8010E94BC0EAB
:10578000E0912D06F0912E062091190630911A060F
:10579000818592852817390798F5A80167E574E097
:1057A000CE01815B9F4F0E942C16A8016DE574E02D
:1057B000CE01885B9F4F0E942C16BE01685B7F4F15
:1057C000C8010E940E1FC8010E94611EBE01615BDC
:1057D0007F4F80910806909109060E947110CE01BA
:1057E000CB960E94BC0EC8010E94BC0ECE01885B05
:1057F0009F4F0E94BC0ECE01815B9F4F0E94BC0E4A
:10580000CE0101960E94D30E8BE997E00E94F80525
:10581000882309F4AFC04AEF50E060E070E08BE904
:1058200097E00E94240685E00E9493046C0111E039
:10583000892B09F010E08091BA04181799F0C1146F
:10584000D10451F40E948B1640E054E965E377E7F8
:105850008AE497E00E94CE06CD2821F08AE497E002
:105860000E9445061093BA0486E00E9493046C01DE
:1058700011E0892B09F010E08091B904181799F014
:10588000C114D10451F40E94671640E05CE66AEC52
:1058900078E88AE497E00E94CE06CD2821F08AE4D9
:1058A00097E00E9445061093B90420E030E0A9017A
:1058B000609161077091620780916307909164071E
:1058C0000E94C030882309F455C08091FE05909154
:1058D000FF05DC01ED91FC910284F385E02D099533
:1058E00028E030E040E050E00E94003349015A01D6
:1058F0008091EB049091EC04892B09F46DC0109217
:10590000DD04AE014C5C5F4F6FE473E0CE010196A5
:105910000E942C16BE016F5F7F4F8BEB94E00E94BC
:10592000E612CE0101960E94BC0E6CEA73E08BEB8E
:1059300094E00E9405168C01BC01CE0101960E94E4
:105940009B0BB501A401C8010E94DC17AE014C5CA1
:105950005F4F6DEC74E0CE0101960E949115BE017F
:105960006F5F7F4F8FE296E00E947110CE0101962B
:105970000E94BC0E80E090E0892B09F4A0CB0E942D
:105980002503882309F495CB0E9400008FCB109249
:105990000F0610920E0661CE87FF1BC09C012227C6
:1059A000307292FF08C088E993E0232B09F0A3CE60
:1059B0008DE993E0A0CE82EA93E0232B09F09BCE01
:1059C00086EA93E098CE8BE494E095CE84E993E068
:1059D00092CE90E080E08FCE81E08093DD0491CF85
:1059E00086EA95E00E94320D84ED95E00E947A0DE2
:1059F00080910A0690910B060E94052F83E396E0A2
:105A00000E94BC0E8AEE96E00E94BC0E81EF96E0EA
:105A10000E94BC0E83EA97E00C94BC0EB0E0A0E0BC
:105A2000E4E1FDE20C940E305C016B017A0161153A
:105A3000710519F0FB0191838083E114F10449F0B1
:105A4000C7010297839728F060E070E0CB019CC00B
:105A50005E01E5012196F5011081812F90E00E9401
:105A6000F92D892BA9F71D3209F056C02196F501B1
:105A7000118101E0E114F10409F4AEC0F0E1EF1688
:105A8000F10409F08EC0103341F488818F7D883590
:105A900009F083C0198122960260E0E1EE2EF12C1C
:105AA00088248A94982CA82CFFE0BF2E20E060E088
:105AB00070E0CB0127010F2C000C66087708FE016F
:105AC00050ED352E310E39E0331538F43FEB310F00
:105AD0003A31A0F549EC342E310E3E141F04BCF5CA
