:100000000C94DC000C94D8230C94B1230C948A2318
:100010000C9463230C9404010C9404010C943C2371
:100020000C9404010C9404010C94F91F0C946820A6
:100030000C9404010C9404010C9404010C9404012C
:100040000C9404010C94FF230C9404010C940401FF
:100050000C9404010C9404010C9404010C94F222FD
:100060000C9404010C94C0220C949A220C94040168
:100070000C9404010C9404010C9404010C940401EC
:100080000C9404010C9404010C9404010C940401DC
:100090000C9404010C9404010C9404010C940401CC
:1000A0000C9404010C9404010C9404010000000061
:1000B000240027002A002D00300000000000250049
:1000C00028002B002E003100000000002300260035
:1000D00029002C002F000404040404030405020278
:1000E00002020403020202020606060606060404D1
:1000F0000202020404040802011040804010204063
:10010000804080080204018040201002011080100D
:10011000204040200000000200090F0000030401FD
:10012000000C0000000000000000000000000000C3
:10013000000000070605040100080A0B0C0D090861
:100140000B0002020201000904000001020200008B
:1001500005240010010524010101042402060524E0
:100160000600010705810310004009040100020A8E
:10017000000000070502024000000705830240005E
:10018000000403090412010002EF0201404123367A
:100190008000010102030141726475696E6F204C99
:1001A0004C430041726475696E6F204C656F6E61DF
:1001B00072646F00F224572C11241FBECFEFDAE0D7
:1001C000DEBFCDBF14E0A0E0B1E0E2EEFAE602C08F
:1001D00005900D92A633B107D9F727E0A6E3B4E066
:1001E00001C01D92A033B207E1F710E0CBEDD0E0E3
:1001F00004C02197FE010E948232CA3DD107C9F78F
:100200000E94C2260C9464350C9400001F93CF9377
:10021000DF93182FC0912305D09124058A3041F433
:10022000E881F9810190F081E02D6DE0CE01099522
:10023000E881F9810190F081E02D612FCE010995CF
:1002400021E030E0019711F430E020E0C901DF91B6
:10025000CF911F910895CF93DF93C0912305D09143
:100260002405E881F9810084F185E02DCE0109950E
:10027000892BB9F3E881F9810284F385E02DCE0161
:10028000DF91CF910994FC01A089B18982E08C9320
:10029000A485B5851C92A685B7858FEC8C93108EAE
:1002A000A489B58986E08C93A289B3898C918061F9
:1002B0008C93A289B3898C9188608C93A289B3892D
:1002C0008C9180688C930288F389E02D80818F7DEA
:1002D00080830895E82FF0E0EE0FFF1FE25FFE4FEE
:1002E000718360838230D9F028F4882341F0813013
:1002F00071F008958330D9F0843009F10895809128
:1003000069008C7F826080936900E89A08958091EB
:100310006900837F886080936900E99A08958091DD
:1003200069008F7C806280936900EA9A08958091C9
:1003300069008F73806880936900EB9A08958091BB
:100340006A008F7C806280936A00EE9A0895109212
:1003500081001092850010928400EFE6F0E0808129
:100360008D7F80838FEF90E0909389008093880049
:1003700090938B0080938A00109280001092DF048B
:100380000895FC018091DE04882311F13FB7F894B1
:1003900082E08093E9002091F200822F90E018160D
:1003A000190614F481E090E0882339F0289844E697
:1003B0004093DD044091F1004083222339F02091E5
:1003C000F200211103C02BE62093E8003FBF0895FF
:1003D0008FEF9FEF08952FB7F89483E08093E900A3
:1003E0009091E800892F807295FF04C09091F200EF
:1003F00080E4891B2FBF08958091D50481110DC021
:1004000082E08093D10484E08093D2041092D404DB
:100410001092D30481E08093D50481ED94E0089597
:100420004091CB045091CC042091C9043091CA046E
:1004300042175307B4F49091E8009570E1F390915E
:10044000E80092FD19C08093F1008091CB04909157
:10045000CC0401968F739927892B19F48EEF809322
:10046000E8008091CB049091CC0401969093CC0449
:100470008093CB0481E0089580E00895DF92EF92AD
:10048000FF920F931F93CF93DF93D82E8A01EB0136
:100490007B01E40EF51ECE15DF0559F0D7FE12C024
:1004A000FE0184910E94100221968111F4CF0FEF7A
:1004B0001FEFC801DF91CF911F910F91FF90EF9037
:1004C000DF9008958881EECF0F931F93CF93DF9332
:1004D0001F92CDB7DEB782E0898342E450E06FE33C
:1004E00071E080E80E943E020E94FC01DC0112964D
:1004F0000D911C910115110589F0D801ED91FC9128
:100500000280F381E02DBE016F5F7F4FC801099526
:1005100097FD04C0F80100851185ECCF89810F900B
:10052000DF91CF911F910F910895615030F020918C
:10053000F100FC0120830196F8CF289884E680938F
:10054000DD040895DC01ED91FC910190F081E02D36
:100550000994AF92BF92CF92DF92EF92FF920F93E6
:100560001F93CF93DF936C017B018B01040F151F49
:10057000EB015E01AE18BF08C017D10759F06991B1
:10058000D601ED91FC910190F081E02DC601099515
:10059000892B79F7C501DF91CF911F910F91FF90C2
:1005A000EF90DF90CF90BF90AF900895CF93C1E0D0
:1005B00020E030E0A901FC016789708D818D928D6A
:1005C0000E942330811101C0C0E08C2FCF9108958B
:1005D000FC01538D448D252F30E0842F90E0821B49
:1005E000930B541710F0CF96089501970895FC01CE
:1005F000918D828D981761F0A28DAE0FBF2FB11D26
:100600005D968C91928D9F5F9F73928F90E008957D
:100610008FEF9FEF0895FC01918D828D981731F037
:10062000828DE80FF11D858D90E008958FEF9FEF8B
:100630000895FC01918D228D892F90E0805C9F4F61
:10064000821B91098F739927089589EB95E00E9489
:10065000190321E0892B09F420E0822F089580E01E
:1006600090E0892B29F00E94250381110C94000051
:100670000895FC01A48DA80FB92FB11DA35ABF4F37
:100680002C91848D90E001968F739927848FA68991
:10069000B7892C93A089B1898C9182748C93938DA6
:1006A000848D981306C00288F389E02D80818F7DA8
:1006B00080830895EF92FF920F931F93CF93DF9360
:1006C000EC0181E0888F9B8D8C8D981319C0E8898F
:1006D000F989808185FF14C09FB7F894EE89FF895E
:1006E0006083E889F9898081827480839FBF81E07B
:1006F00090E0DF91CF911F910F91FF90EF900895BF
:10070000F62E0B8D10E00F5F1F4F0F731127E02E99
:100710008C8D8E110CC00FB607FCFACFE889F989D1
:10072000808185FFF5CFCE010E943903F1CFEB8D9B
:10073000EC0FFD2FF11DE35AFF4FF0829FB7F894A5
:100740000B8FEA89FB8980818062CFCFCF93DF93C3
:10075000EC01888D8823B9F0AA89BB89E889F989D9
:100760008C9185FD03C0808186FD0DC00FB607FC0E
:10077000F7CF8C9185FFF2CF808185FFEDCFCE0141
:100780000E943903E9CFDF91CF910895CF93DF9392
:100790001F92CDB7DEB76983DC01ED91FC91028039
:1007A000F381E02D41E050E0BE016F5F7F4F09957E
:1007B0000F90DF91CF91089583E08093E9008091BD
:1007C000F200882319F08AE38093E80008950E94DC
:1007D000EB0190E00895CF93DF931F92CDB7DEB782
:1007E000FC018485958597FD08C02FEF3FEF358785
:1007F00024870F90DF91CF910895CE0101960E943A
:10080000C101019719F4898190E0F3CF8FEF9FEF39
:10081000F0CF0F931F93CF93DF931F92CDB7DEB727
:100820008C01FC018485958597FF0BC0CE01019654
:100830000E94C101019771F4898190E0F8019587C8
:100840008487F801848595850F90DF91CF911F9162
:100850000F9108958FEF9FEFF1CFFC01848595856F
:1008600097FD0BC09FB7F89482E08093E9008091D8
:10087000F2009FBF90E0019608959FB7F89482E040
:100880008093E9008091F2009FBF90E0089581502D
:100890008F3008F047C0E82FF0E0EF5AFB4F0C9480
:1008A00082326E047204600466046A049204920444
:1008B000920475047B047F048304890492048D04EC
:1008C000809180008F7780938000089580918000D0
:1008D0008F7DF9CF80918000877FF5CF84B58F77AA
:1008E00084BD089584B58F7DFBCF809190008F7774
:1008F000809390000895809190008F7DF9CF809132
:100900009000877FF5CF8091C0008F778093C000E3
:1009100008958091C0008F7DF9CF8091C200877FBC
:100920008093C2000895CF93DF93282F30E0F90120
:10093000EC5EFE4F8491F901EB50FF4FD491F90129
:10094000EA52FF4FC491CC23A1F081110E944704C9
:10095000EC2FF0E0EE0FFF1FE853FF4FA591B4918D
:10096000EC91ED2381E090E009F480E0DF91CF91FC
:10097000089580E090E0FACF1F93CF93DF93282F64
:1009800030E0F901EC5EFE4F8491F901EB50FF4F2E
:10099000D491F901EA52FF4FC491CC23A9F0162F4C
:1009A00081110E944704EC2FF0E0EE0FFF1FE65488
:1009B000FF4FA591B4918FB7F894EC91111108C035
:1009C000D095DE23DC938FBFDF91CF911F910895E7
:1009D000DE2BF8CFCF93DF9390E0FC01EB50FF4F7D
:1009E00024918A529F4FFC0184918823D1F090E09A
:1009F000880F991FFC01E455FF4FA591B491FC01AC
:100A0000E654FF4FC591D491623071F49FB7F894CA
:100A10003C91822F809583238C93E8812E2B288311
:100A20009FBFDF91CF9108958FB7F894EC912E2B53
:100A30002C938FBFF6CF3FB7F894809179049091B3
:100A40007A04A0917B04B0917C0426B5A89B05C0D4
:100A50002F3F19F00196A11DB11D3FBFBA2FA92F3D
:100A6000982F8827BC01CD01620F711D811D911D3A
:100A700042E0660F771F881F991F4A95D1F70895A6
:100A80008F929F92AF92BF92CF92DF92EF92FF929E
:100A90004B015C010E941B056B017C010E941B0540
:100AA0006C197D098E099F09683E73408105910587
:100AB000A8F321E0821A9108A108B10888EEC80EB7
:100AC00083E0D81EE11CF11C81149104A104B1043F
:100AD00029F7FF90EF90DF90CF90BF90AF909F905D
:100AE0008F9008958F929F92AF92BF92CF92DF9294
:100AF000EF92FF920F931F93CF93DF936C017B01D3
:100B00008A0180910D01882309F45CC08091DE0484
:100B1000882309F457C08091CF0480FF05C08091DD
:100B2000E00082608093E000E801B12C8AEFA82EFB
:100B300093E0892E2AE3922E209711F4BB20D9F15D
:100B40000E94EB0181110AC0AA94AA20D9F161E0A8
:100B500070E080E090E00E944005EECF8C171D060B
:100B600011F00CF08C2F9FB7F8948092E90020913F
:100B7000E80025FD02C09FBFDFCF282F30E0C21B59
:100B8000D30BF701815020F041914093F100FACF4F
:100B9000E20EF31EBB2021F09092E800B12CEBCFC7
:100BA0008091E80085FDE7CF9092E800BB24B394E4
:100BB000209709F3F3CF5D9884E68093D004101654
:100BC00011063CF081E090E0F6019383828310E00F
:100BD00000E0C801DF91CF911F910F91FF90EF903E
:100BE000DF90CF90BF90AF909F908F900895089521
:100BF0000F931F93FC0184819581A681B781892B76
:100C00008A2B8B2BE9F08FB7F894409175045091A3
:100C1000760460917704709178048FBF8081918110
:100C2000A281B381481B590B6A0B7B0B81E00481C5
:100C3000158126813781401751076207730708F431
:100C400080E01F910F9108950F931F93EFB7F894D1
:100C50000091750410917604209177043091780406
:100C6000EFBFFC01008311832283338344835583C8
:100C7000668377831F910F910895FC01248135814C
:100C8000232B11F01582148208958F929F92AF92B8
:100C9000BF92CF92DF92EF92FF92CF93DF93EC015E
:100CA000E881F9810484F585E02D09958823B9F15F
:100CB000E881F9810284F385E02DCE0109956B016D
:100CC0007C016F89788D898D9A8D9B01AC010E9482
:100CD00087319B01AC0160E070E0CB010E94B62F30
:100CE0004B015C016F8D78A189A19AA190589B015D
:100CF000AC010E94B72F9B01AC01C501B4010E9459
:100D000028300E949A30072E000C880B990BC60ED3
:100D1000D71EE81EF91ECB86DC86ED86FE86DF91A7
:100D2000CF91FF90EF90DF90CF90BF90AF909F90CA
:100D30008F900895CF93DF93EC018F819885DC012C
:100D4000ED91FC910280F381E02D09951F8E18A290
:100D500019A21AA21F8A188E198E1A8E1A8619863F
:100D600061E08D810E94BC0460E08C810E94BC0423
:100D7000EFA1F8A5309719F0DF91CF910994DF9199
:100D8000CF910895FC0181850895DC011296ED91C3
:100D9000FC91648175818681978108952F923F929D
:100DA0004F925F926F927F928F929F92AF92BF927B
:100DB000CF92DF92EF92FF920F931F93CF93DF9327
:100DC000EC01EA80FB80F70184819581A681B781DF
:100DD0008A019B01081B190B2A0B3B0BD901C80187
:100DE0004B875C876D877E8701E010E01816190637
:100DF0001A061B0614F010E000E08827B7FD839563
:100E00009927AA27BB27081B190B1A870987D7011F
:100E10001A96CD90DC900C9DB0010D9D700D1C9D1F
:100E2000700D112490E080E00E94D0306B8F7C8F99
:100E30008D8F9E8FB60190E080E00E94D0304B01F4
:100E40005C01F7016085718590E080E00E94D03000
:100E500020E030E04AE754E40E9428309B01AC01D6
:100E6000C501B4010E9428304B015C01B801110F8B
:100E7000880B990B0E94D2309B01AC01C501B401D3
:100E80000E9487316F8F78A389A39AA3D7011C96FC
:100E90008C9100E011E0882311F001E010E060E0A7
:100EA0008C810E94BC0489859A8597FF102F612F41
:100EB0008E810E94BC0460E08D810E94BC042FB72B
:100EC000F8948091750490917604A0917704B09184
:100ED00078042FBF8F87988BA98BBA8BCF88D88C3B
:100EE000E98CFA8C20E030E0A901C701B6010E942C
:100EF000823146015701181624F0B7FAB094B7F8BA
:100F0000B0944BA05CA06DA07EA00F811885F80165
:100F100020803180A5019401C301B2010E94823179
:100F2000181674F569857A85072E000C880B990BC5
:100F30000E94D230A30192010E9487316B8B7C8B7F
:100F40008D8B9E8B6F8B788F898F9A8FD101ED91CE
:100F5000FC919E01B301A201C801DF91CF911F91C5
:100F60000F91FF90EF90DF90CF90BF90AF909F9048
:100F70008F907F906F905F904F903F902F9009944B
:100F8000CB8ADC8AED8AFE8AD1011496ED91FC9120
:100F9000B501A401C801DF91CF911F910F91FF907E
:100FA000EF90DF90CF90BF90AF909F908F907F9009
:100FB0006F905F904F903F902F9009941F93CF9325
:100FC000DF93EC01162F8C810E94BC04EA81FB8127
:100FD0004481558166817781112391F089859A85B5
:100FE000092E000CAA0BBB0B840F951FA61FB71F61
:100FF00084839583A683B783DF91CF911F91089552
:101000008B859C85AD85BE85481759076A077B0788
:1010100099F7E881F9810280F381E02DCE01DF911B
:10102000CF911F910994CF92DF92EF92FF92CB0163
:10103000BA019A01AC010E94B72F6B017C0120E03C
:1010400034E244E75BE40E94823118161CF120E090
:1010500030E044E753E4C701B6010E94233087FF24
:1010600006C0C12CD12C94E7E92E93E4F92EA701F8
:10107000960160E074E284E79BE40E9428300E94BD
:10108000A1307093010160930001FF90EF90DF9019
:10109000CF900895C12C84E2D82E84E7E82E8BE40B
:1010A000F82EE5CF30936404209363041092DF049C
:1010B0000E94130880910001909101019093890092
:1010C0008093880010928500109284001092800016
:1010D00089E080938100EFE6F0E080818260808388
:1010E00008950C94A701FF920F931F93CF93DF9362
:1010F0008C01EB016F3F7607B9F0F62EEAE06E1334
:1011000006C06DE0F801808991890E94A2026F2DCE
:10111000F801808991890E94A202CE01DF91CF91CE
:101120001F910F91FF900895D0E0C0E0F6CF7F921D
:101130008F929F92AF92BF92CF92DF92EF92FF92E7
:101140000F931F93CF93DF938C0149015A01EB0159
:10115000C12CD12C7601C814D904EA04FB04B4F4E0
:1011600079908AE0781206C06DE0F8018089918953
:101170000E94A202672DF801808991890E94A20233
:10118000FFEFCF1ADF0AEF0AFF0AE5CFC501B4016E
:10119000DF91CF911F910F91FF90EF90DF90CF9053
:1011A000BF90AF909F908F907F900895CF93DF93E3
:1011B000EC0188899989DC01ED91FC910084F1852D
:1011C000E02D0995892BA9F388899989DC01ED9196
:1011D000FC910284F385E02DDF91CF910994CF93A8
:1011E000DF93EC0188899989DC01ED91FC91008401
:1011F000F185E02D0995892BA9F388899989DC016E
:10120000ED91FC910484F585E02DDF91CF91099457
:101210008F929F92AF92BF92CF92DF92EF92FF9206
:101220000F931F93CF93DF938C0149015A01EB0178
:10123000C12CD12C7601D80150968D919C91DC0166
:10124000ED91FC910284F385E02D09958F3F61F0CB
:10125000C814D904EA04FB043CF48993BFEFCB1A09
:10126000DB0AEB0AFB0AE7CFC701B601DF91CF919A
:101270001F910F91FF90EF90DF90CF90BF90AF90B4
:101280009F908F900895DC0150968D919C91DC0188
:10129000ED91FC910084F185E02D0994DC01ED9144
:1012A000FC9136970190F081E02DE80FF91F83E75C
:1012B00092E0918380838DE792E0978386830895FF
:1012C00023E732E0FC01318320832DE732E03783CE
:1012D00026830895FB0120813181FC013183208325
:1012E000FB014281538126503109F901208131816E
:1012F000820F931FFC015183408308952FE832E051
:10130000FC013183208329E932E0318F208F63E8AB
:1013100072E00C946A09DC01ED91FC913697208112
:101320003181820F931F0C947E09089508950895CA
:10133000CF93DF93EC0140E45FE160E070E08BE18C
:1013400095E00E942406188619861A861B86DF916E
:10135000CF9108950895CF93DF93EC018BEF9AE43A
:101360009983888323E02A8321E02B832DE0EEE11B
:10137000F1E0DE01149601900D922A95E1F72AE042
:10138000298B28EB2A8B2BE02B8B1C8A1D8A1E8A2B
:101390001F8A188E198E1B8E1A8E20E32C8F25E73C
:1013A0002D8F1E8E1F8E18A219A21AA21BA29DA3FA
:1013B0008CA3DF91CF910895CF93DF93C0917705F0
:1013C000D091780520E030E0A9016F89788D898D72
:1013D0009A8D0E9482311816DCF4E881F98102842A
:1013E000F385E02DCE010995A0917705B0917805A0
:1013F000AB01BC01405E5C4F6F4F7F4FED91FC91A4
:1014000011970084F185E02DCD01DF91CF910994F2
:10141000DF91CF910895CF93DF93C0917705D0915D
:10142000780520E030E0A9016F89788D898D9A8D4B
:101430000E94233087FF16C0EA81FB8180E293E09F
:10144000A0E0B0E084839583A683B783E881F98127
:101450000084F185E02D40E050E0BA01CE01DF913B
:10146000CF910994DF91CF910895CB010895CF9347
:10147000DF93EC01E881F9810288F389E02D099579
:101480008F3F980731F02D813E812F5F3F4F3E8384
:101490002D83DF91CF9108958FEF9FEF089560E046
:1014A00070E0CB01089590E080E0089590E080E046
:1014B000089590E080E00895FC018789908D009761
:1014C00039F0248935892817390728F4308F278B7C
:1014D0006FEF7FEF08C001976F3F760731F4908F71
:1014E000878B70E060E0CB010895A089B189A80FD7
:1014F000B91F9B01215031092F3F310538F4262FA8
:101500003C91321305C0908F878BEDCF20E0F8CF50
:10151000278524FFDDCF908F878B6C93E4CFCF930B
:10152000DF93EC01E881F9810288F389E02D0995C8
:101530008F3F980731F02F89388D2F5F3F4F388FBD
:101540002F8BDF91CF910895DC0157968D919C915F
:10155000589754962D913C9155978217930740F4D4
:101560005096ED91FC91E80FF91F808190E008956D
:101570008FEF9FEF0895EF92FF92CF93DF93FC01DF
:10158000DB0160E070E0CB01E788F08CC489D5898D
:10159000EC16FD06A8F4621773078407950784F418
:1015A000C089D189CE0DDF1DC881CD936F5F7F4F7C
:1015B0008F4F9F4FC789D08D2196D08FC78BE4CF97
:1015C000DF91CF91FF90EF900895FC018489958978
:1015D0002789308D821B930B0895242FDC01ED9118
:1015E000FC910084F185E02D41E00994089508956F
:1015F00090E080E008951F93CF93DF93EC01162FC6
:101600008F8580FF0BC0E881F9810084F185E02D92
:1016100020E144E070E060E0CE010995EB85FC85B7
:10162000812F90E02D853E85E217F30758F4108353
:101630002B853C852F5F3F4F3C872B87DF91CF91D8
:101640001F910895E881F981028CF38DE02DBC0192
:10165000CE01DF91CF911F9109948F929F92AF920B
:10166000BF92CF92DF92EF92FF920F931F93CF938F
:10167000DF938C0149015A01EB01C12CD12C760179
:10168000C814D904EA04FB0464F46991C8010E94F7
:10169000FB0A019641F08FEFC81AD80AE80AF80A47
:1016A000EFCF75016401C701B601DF91CF911F91A2
:1016B0000F91FF90EF90DF90CF90BF90AF909F90F1
:1016C0008F9008958F929F92AF92BF92EF92FF9268
:1016D0000F931F93CF93DF93EC017B0149015A01D4
:1016E000E881F98136970190F081E02DE80FF91F2C
:1016F00003891489D8011F968C911F9780FF0BC016
:10170000ED91FC910084F185E02D20E144E070E052
:1017100060E0C8010995D801ED91FC91008CF18D34
:10172000E02DA5019401B701C80109956F3F7F4FD6
:1017300079F4E881F98136970190F081E02DEC0F82
:10174000FD1F858123893489232B71F08260858375
:10175000CE01DF91CF911F910F91FF90EF90BF903D
:10176000AF909F908F9008958360F1CFFB0124810B
:10177000358150E040E0608171810C94620B0895E6
:10178000CF93DF93EC01E881F98136970190F081E6
:10179000E02DE80FF91F83899489DC01ED91FC911C
:1017A0000484F585E02D0995019659F4E881F981C5
:1017B00036970190F081E02DEC0FFD1F858181604F
:1017C0008583CE01DF91CF910895CF93DF93EC0114
:1017D000E881F98136970190F081E02DE80FF91F3B
:1017E000838994890E94FB0A019679F4E881F98142
:1017F00036970190F081E02DEC0FFD1F8581238944
:101800003489232B31F082608583CE01DF91CF9123
:1018100008958360F9CF4F925F926F927F928F927B
:101820009F92AF92BF92CF92DF92EF92FF920F936F
:101830001F93CF93DF93EC018B0129013A01E881DB
:10184000F98136970190F081E02D3296E80FF91F6B
:10185000C284D384E484F584C418D508E608F70864
:10186000818192818E709927049791F446015701E6
:10187000181419041A041B04B4F1D701C601F7FEA9
:1018800003C080E090E0DC01C81AD90AEA0AFB0A2A
:10189000A3019201B801CE010E94620BE881F98197
:1018A00036970190F081E02DEC0FFD1F838194812C
:1018B0008E709927029749F5E881F9813697019052
:1018C000F081E02D1C141D041E041F04F4F481E0BB
:1018D000C81AD108E108F108EC0FFD1F6089CE019C
:1018E0000E94E50BE9CF81E0881A9108A108B108B0
:1018F000E881F98136970190F081E02DEC0FFD1F12
:101900006089CE010E94E50BB3CFE881F98136975B
:1019100080819181C80FD91F1C861D861E861F8657
:10192000DF91CF911F910F91FF90EF90DF90CF90BB
:10193000BF90AF909F908F907F906F905F904F90EF
:10194000089521E0DC012C93DB01ED91FC913697A9
:1019500080819181680F791FFB01818992890097AD
:1019600011F00C94C00B0895FF920F931F93CF9327
:10197000DF931F92CDB7DEB78C01F62EBC01CE01EE
:1019800001960E94A10CD801ED91FC91369701902F
:10199000F081E02DE00FF11F838184FF29C024E056
:1019A00030E040E050E06CE173E0F11006C025E06B
:1019B00030E040E050E061E273E0C8010E940B0CAF
:1019C000D801ED91FC9136970190F081E02DE00F68
:1019D000F11F8381948196FF03C0C8010E94C00B50
:1019E000C8010F90DF91CF911F910F91FF90089543
:1019F00021E030E040E050E067E273E0F110DDCF3D
:101A000063E074E0DACFFF920F931F93CF93DF93DD
:101A10001F92CDB7DEB78C01F62EBC01CE01019628
:101A20000E94A10C6F2DC8010E94E50BC8010F9008
:101A3000DF91CF911F910F91FF900895DC01ED91FF
:101A4000FC9136970190F081E02DE80FF91F8DE9A8
:101A500091E09183808387EA91E093838283089564
:101A60002DE931E0FC013183208327EA31E0338323
:101A700022830895FB0120813181FC013183208381
:101A8000FB014281538126503109F90120813181C6
:101A9000820F931FFC015183408308952BEA32E0AB
:101AA000FC013183208325EB32E0358B248B6FE9F9
:101AB00072E00C943A0DDC01ED91FC913697208197
:101AC0003181820F931F0C944E0D0895FC0181E229
:101AD00090E09483838315821682178286E090E0DB
:101AE000A0E0B0E080879187A287B387148615862F
:101AF0001686178683E991E09183808380E2808B4C
:101B0000128A118A748B638B158A08950F931F9321
:101B1000CF93DF931F92CDB7DEB78C01BC01CE010E
:101B200001960E94A10C6AE0C8010E94E50BC80161
:101B30000E94C00BC8010F90DF91CF911F910F91B0
:101B400008958038C9F08A3811F58091B3059091D5
:101B5000B405E091AA05F091AB050280F381E02D78
:101B60000190F081E02D608170E0DC01ED91FC914D
:101B70000088F189E02D09948091B3059091B40516
:101B8000DC01ED91FC910684F785E02DF4CF0895FA
:101B900008950895CF93DF9340911F05509120053C
:101BA0006091210570912205452B462B472BC1F0F2
:101BB000EC018BE195E00E94F805882389F01092F2
:101BC0001F05109220051092210510922205E88130
:101BD000F9810488F589E02DCE01DF91CF91099438
:101BE000DF91CF910895CF92DF92EF92FF920F9302
:101BF0001F93FB01DC0100E010E098016A01F12C69
:101C0000E12C0C151D052E053F0538F461916D93EF
:101C10000F5F1F4F2F4F3F4FF4CF840F951F1F9122
:101C20000F91FF90EF90DF90CF900895DB012D9101
:101C30003C911197FC013183208312966D917C9128
:101C400026503109D901ED91FC91E80FF91F7183FC
:101C5000608381E290E094838383548B438B15826D
:101C6000158A0895CF93DF93EC010E944E0DCE01AB
:101C7000DF91CF910C94682EDC01ED91FC913697A9
:101C800020813181820F931F0C94320ECF93DF930A
:101C9000EC010E947E09CE01DF91CF910C94682E59
:101CA000DC01ED91FC91369720813181820F931FE9
:101CB0000C94460E0C94682EDC01ED91FC91369745
:101CC00020813181820F931F0C945A0E0C94682E40
:101CD0000C94682E0C94682E0C94682E0C94682E2C
:101CE0000C94682E0C94682E0C94682E0C94682E1C
:101CF000DC01ED91FC91369720813181820F931F99
:101D00000C94760E0C94682EFC01808191810C94C9
:101D1000682E2FEA31E0FC013183208340960C9439
:101D2000840ECF93DF93EC010E94890ECE01DF91E8
:101D3000CF910C94682ECF93DF93EC0181E891E072
:101D4000998388838BE891E09E8F8D8FCE010296D8
:101D50000E94890E65E771E0CE01DF91CF910C946E
:101D60003A0DDC01ED91FC91369720813181820F93
:101D7000931F0C949B0ECF93DF93EC010E949B0E5C
:101D8000CE01DF91CF910C94682EDC01ED91FC9196
:101D9000369720813181820F931F0C94BB0ECF9315
:101DA000DF93EC0188E090E09B838A831D821C8294
:101DB0000E94CC2D99838883DF91CF9108950F9352
:101DC0001F93CF93DF93EC018C010E5F1F4FB8017F
:101DD0004D960E94660DA80165E771E0CE010E9454
:101DE000160E81E891E0998388838BE891E09E8FBD
:101DF0008D8F1E821D8218861F821A8619861C8668
:101E00001B861E861D86188A1F86198A8FEA91E016
:101E10009B838A83CE0142960E94CF0E1A8E198E22
:101E20001C8E1B8E80E1898BDF91CF911F910F91CA
:101E30000895CF93DF93D0917B05C0917C0590935B
:101E40007E0580937D05880F991F0E94CC2D80937D
:101E50007B0590937C0520917F0530918005FC01E6
:101E6000AD2FBC2F90E080E02817390759F030974C
:101E700029F04D915C9111975183408301963296E0
:101E80001296F2CF8D2F9C2FDF91CF910C94682E5C
:101E90000F931F93CF93DF93EC018B0120917D056E
:101EA00030917E052817390730F40896281739072E
:101EB00010F40E94190F80917F05909180059C017C
:101EC000220F331FE0917B05F0917C05E20FF31F99
:101ED0008C179D0750F4309729F0D8012D913C9133
:101EE0003183208301963296F3CFD0938005C0933F
:101EF0007F05DF91CF911F910F9108950F931F934D
:101F0000CF93DF9300D0CDB7DEB79A8389838BE779
:101F100095E00E943D0610E000E02091840530919C
:101F2000850502171307B4F420917F0530918005D1
:101F3000C90101962817390740F4BE016F5F7F4F32
:101F40000E94480F0F5F1F4FE8CF1092800510923C
:101F50007F05F8CF89819A81289FA001299F500D84
:101F6000389F500D11245093830540938205909320
:101F70008B0580938A050F900F90DF91CF911F9171
:101F80000F9108950F931F93CF938C01C62F8091CB
:101F90006C0481112FC08CE090E0909368048093D2
:101FA000670484E090E090936A04809369048CE075
:101FB00090E00E94CC2D9093660480936504E7E640
:101FC000F1E0CF0187569140A0916504B09166047D
:101FD0002091690430916A048217930740F4A80F96
:101FE000B91F109711F080818C933196EACF81E070
:101FF00080936C04E0916504F0916604809169041B
:1020000090916A048E0F9F1FE817F90758F42191E9
:102010002C13FACF80E2C8276DE7F8018081918107
:102020000E94A2026C2FF80180819181CF911F91B3
:102030000F910C94A202AF92BF92CF92DF92EF92D7
:10204000FF920F931F93CF93DF9300D000D000D067
:102050001F92CDB7DEB78C016B01DC0118968D9114
:102060009C919E838D8308969C838B830E94CC2DAC
:102070009A83898390E080E02D813E8182179307C7
:1020800088F4E981FA81E80FF91F309749F0D80107
:1020900014962D913C91D901A80FB91F2C91208342
:1020A0000196EACFF601E480F580FBE0EF0EF11C2B
:1020B0006EE7D8018D919C910E94A2026F2DC801FC
:1020C0000E94C20F6E2DC8010E94C20F60E0C801BD
:1020D0000E94C20FF801F684F394FF20F1F0F68617
:1020E0006F2DC8010E94C20FF801A480B580D801ED
:1020F00014968D919C91159718962D913C91820F75
:10210000931FA816B90670F4F501E1905F016E2DDA
:10211000C8010E94C20FFE0CEACF81E08687FF242F
:10212000F394DECF60E0C8010E94C20FD601AD90EB
:10213000BC90F6018081918124813581820F931FAB
:10214000A816B90648F4D501ED905D016E2DC801C1
:102150000E94C20FFE0CEDCF6F2D6095C8010E944A
:10216000C20FCE0101960E94840E27960FB6F894F6
:10217000DEBF0FBECDBFDF91CF911F910F91FF90BA
:10218000EF90DF90CF90BF90AF900895CF93DF9303
:10219000FC01C281D38184E090E00E94CC2DFC013F
:1021A000D383C2832DE132E031832083988B8F87E4
:1021B000DF91CF910895CF93DF93FC01C281D3814A
:1021C00084E090E00E94CC2DFC01D383C2832DEBF0
:1021D00032E031832083988B8F87DF91CF910895F0
:1021E0000F931F93CF93DF93EC018B0140E25EE4EA
:1021F00060E070E08BE195E00E942406023011055A
:1022000081F40A80DB81C02D84E090E00E94CC2D17
:10221000FC01D383C28323E032E031832083988B97
:102220008F87DF91CF911F910F910895CF93DF9307
:10223000FC01C281D38184E090E00E94CC2DFC019E
:10224000D383C2832DE132E031832083988B8F8743
:10225000DF91CF910895CF93DF93EC010E94CA0DD7
:10226000CE0104960E94F805882381F00A80DB8164
:10227000C02D84E090E00E94CC2DFC01D383C2836A
:102280002DEB32E031832083988B8F87DF91CF91C4
:102290000895CF93DF93FC01C281D38184E090E065
:1022A0000E94CC2DFC01D383C2832DEB32E031831D
:1022B0002083988B8F87DF91CF910895CF93DF9301
:1022C000FC01C281D38184E090E00E94CC2DFC010E
:1022D000D383C2832DE132E031832083988B8F87B3
:1022E000DF91CF9108950F931F93CF93DF93EC016C
:1022F000CB01088119817B836A830E94CC2D99834D
:102300008883F801CF01801B910B2C813D818217BE
:10231000930750F4A881B981A80FB91F109711F045
:1023200080818C933196EECFC801DF91CF911F91C0
:102330000F910C94682EEF92FF920F931F93CF93FF
:10234000DF93EC018C819D818617970740F57A0118
:102350008B018A819B818617970740F4685F7F4FC6
:102360008617970718F4CE010E9473118C819D8106
:102370008017910758F4E881F981E80FF91F309729
:1023800019F0D7012C9120830196F2CF1D830C8385
:10239000DF91CF911F910F91FF90EF9008956817F3
:1023A0007907B0F77D836C83F3CFAF92BF92CF9262
:1023B000DF92EF92FF920F931F93CF93DF931F92C1
:1023C000CDB7DEB78C0159016A01AC14BD04D1F15F
:1023D000F60181916F018983F801808191817B01F0
:1023E000E81AF90A648175816F5F7F4FAE014F5F14
:1023F0005F4FC8010E949B11F80124813581215053
:102400003109F80180819181E216F30668F4A9018F
:1024100041505109FC01E40FF51F6081820F931FA9
:10242000FC0160839A01EDCF29818E0D9F1DFC0177
:102430002083FFEFEF1AFF0AF801608171816E0DB2
:102440007F1DC3CF0F90DF91CF911F910F91FF9010
:10245000EF90DF90CF90BF90AF900895EF92FF92F2
:102460000F931F93CF93DF931F92CDB7DEB78C01ED
:102470007B010E943D06F701648175811982AE01DE
:102480004F5F5F4FC8010E949B11F7014481558146
:1024900060817181F801808191810E94F30D0F901C
:1024A000DF91CF911F910F91FF90EF900895CF93FF
:1024B000DF93EC0142966817790711F00E942E1203
:1024C0001A8E198E898981FF13C08E899F899C8FEE
:1024D0008B8FE881F981369780819181C80FD91F50
:1024E0008B899C89892B39F01D82DF91CF910895CA
:1024F0001C8E1B8EEECF81E08D83F7CFEF92FF9283
:102500000F931F93CF93DF931F92CDB7DEB7FC01DC
:10251000822F8870922F90712871283131F44230C7
:1025200009F03FC08FEF9FEF23C0413049F58B0189
:102530002489358920173107A8F3882311F0108FDB
:10254000078B9923A1F07F011982AE014F5F5F4F86
:10255000B801CF0140960E949B11F70184899589AB
:102560002789308D8217930710F4908F878BC801CD
:102570000F90DF91CF911F910F91FF90EF900895F1
:10258000423089F404891589060F171F911102C082
:1025900010E000E0882361F20789108D060F171FF5
:1025A000C7CF413021F204891589F8CFAB01FC0176
:1025B000648175816F5F7F4F0C949B11EF92FF9246
:1025C0000F931F93CF93DF931F92CDB7DEB78C018C
:1025D0007B016F3F760779F1D8011F968C911F9789
:1025E00084FF2CC059968D919C915A9754962D91A9
:1025F0003C91559782179307B8F06983BE016F5FCE
:102600007F4FC80140960E94D612F801818D928DAD
:102610000196928F818FC7010F90DF91CF911F910B
:102620000F91FF90EF9008955096ED91FC91E80F77
:10263000F91F6083EACFF12CE12CEDCFEE24EA9470
:10264000FE2CE9CF0F931F93CF93DF93EC01CB01C7
:10265000088119817B836A830E94CC2D99838883AA
:10266000F801CF01801B910B2C813D8182179307CC
:1026700050F4A881B981A80FB91F109711F080817B
:102680008C933196EECFC801DF91CF911F910F91BE
:102690000C94682EEF92FF920F931F93CF93DF93CA
:1026A000EC018B017A018A819B818617970740F4A0
:1026B000685F7F4F8617970718F4CE010E94221398
:1026C0008C819D818017910758F4E881F981E80F8A
:1026D000F91F309719F0D7012C9120830196F2CF82
:1026E0001D830C83DF91CF911F910F91FF90EF908D
:1026F0000895AF92BF92CF92DF92EF92FF921F9315
:10270000CF93DF93EC017B016C0184E0C80ED11CF8
:10271000C6010E943D0619E01150A9F057018FEF44
:10272000A81AB80A88859985BC016F5F7F4F861704
:10273000970730F4A701C6010E944A137501ECCF38
:1027400019861886FBCFDF91CF911F91FF90EF90F4
:10275000DF90CF90BF90AF9008950F931F93CF93CA
:10276000DF9300D000D000D01F92CDB7DEB78C0130
:1027700080E190E09C838B8388E090E09E838D8352
:1027800080E190E00E94CC2D9A838983EBE6F1E012
:10279000CF018B56914069817A812D813E818217CC
:1027A000930750F4680F791F6115710519F0808146
:1027B000DB018C933196ECCFC8010E947913CE01D6
:1027C00001960E94840E27960FB6F894DEBF0FBEC6
:1027D000CDBFDF91CF911F910F910895CF93DF93DC
:1027E000EC018A819B810E94AD13EA81FB8181E02B
:1027F0008587C281D3811D821C828A819B810E9430
:102800003D061E821F82198618868FEF8A8740E256
:102810005EE460E070E08BE195E0DF91CF910C9495
:102820002406CF93DF93EC018A819B810E94AD1334
:10283000EA81FB811586808191810E94430148E8ED
:1028400053E160E070E08BE195E0DF91CF910C9473
:102850002406EF92FF920F931F93CF93DF931F9263
:10286000CDB7DEB78C017B010E94CF0EF7016481EA
:1028700075811982AE014F5F5F4FC8010E949B11A5
:10288000F80144815581F70160817181F8018081EF
:1028900091810E94F30D0F90DF91CF911F910F91C5
:1028A000FF90EF9008950F931F93CF93DF93CDB7D1
:1028B000DEB7EB970FB6F894DEBF0FBECDBF8C012D
:1028C00060E1CE0101960E94DF0E6AE3CE0101961F
:1028D0000E94030DB8010E94B60B63E20E94030D33
:1028E0000091A6051091A705AE01455C5F4FBE01A2
:1028F0006D5E7F4FCE01C4960E942914BE016C5CB0
:102900007F4FC8010E941B10CE01C4960E94840E06
:10291000AE01455C5F4FBE016D5E7F4FCE01C49638
:102920000E942914BE016C5C7F4F8CEC96E00E94E3
:10293000B60B0E94860DCE01C4960E94840ECE0175
:1029400001960E949B0EEB960FB6F894DEBF0FBE69
:10295000CDBFDF91CF911F910F910895EF92FF921C
:102960000F931F93CF93DF93CDB7DEB7E4970FB6E6
:10297000F894DEBF0FBECDBF8C017B0160E1CE01BC
:1029800001960E94DF0EB701695F7F4FCE0101966D
:102990000E94B60BF70166850E94030DAE014C5CE8
:1029A0005F4FBE016D5E7F4FC8010E942914CE01AA
:1029B00001960E949B0EC801E4960FB6F894DEBF04
:1029C0000FBECDBFDF91CF911F910F91FF90EF9080
:1029D0000895CF92DF92EF92FF920F931F93CF93C0
:1029E000DF931F92CDB7DEB78C017B016A010E9495
:1029F000CF0E8FEFC816D80611F40E948832F70167
:102A00008081181684F41982AE014F5F5F4FB601C2
:102A1000C8010E949B11F80144815581B701808152
:102A200091810E94F30D0F90DF91CF911F910F9133
:102A3000FF90EF90DF90CF900895AF92BF92CF922A
:102A4000DF92EF92FF920F931F93CF93DF931F922A
:102A5000CDB7DEB77C016B01FB0101900020E9F7E7
:102A600031978F01061B170BFC01A480B5801982DA
:102A7000B501600F711FAE014F5F5F4F0E949B1148
:102A8000F70180819181A801B6018A0D9B1D0E94EA
:102A9000F30DC7010F90DF91CF911F910F91FF9020
:102AA000EF90DF90CF90BF90AF9008950F931F935A
:102AB000CF93DF9300D0CDB7DEB78C0180914C046B
:102AC000811107C085E494E00E94CF0E81E08093DD
:102AD0004C0485E494E00E943D0668E573E085E4DB
:102AE00094E00E941D15D8011696ED91FC91179760
:102AF00014968D919C9115979C012F5F3F4F1596D1
:102B00003C932E931497E80FF91F80818A838823C2
:102B1000F1F18C32A1F564E670E080E090E00E9473
:102B200040058DE08983BE016F5F7F4F85E494E0AF
:102B30000E94D612D8011296ED91FC91808191816C
:102B40004091490450914A046091450470914604B3
:102B5000DC01ED91FC910280F381E02D099548E8BC
:102B600053E160E070E08BE195E00E94240681E093
:102B70000F900F90DF91CF911F910F910895BE019B
:102B80006E5F7F4F85E494E00E94D612ACCF80E068
:102B9000EFCFCF93DF93EC0148E853E160E070E0C2
:102BA0008BE195E00E942406CE01DF91CF910C9439
:102BB0005615EF92FF920F931F93CF93DF931F92BF
:102BC000CDB7DEB78C017B01BC01CE0101960E941E
:102BD000A10CF70101900020E9F73197EE19FF09E8
:102BE0009F0150E040E0B701C8010E940B0CC801F2
:102BF0000F90DF91CF911F910F91FF90EF9008956B
:102C0000AF92BF92CF92DF92EF92FF920F931F93FA
:102C1000CF93DF931F92CDB7DEB77C016B010E948B
:102C2000CF0EF60101900020E9F731978F010C19C2
:102C30001D09F701A480B5801982B8016A0D7B1DBA
:102C4000AE014F5F5F4FC7010E949B11F70180816A
:102C50009181A801B6018A0D9B1D0E94F30D0F9072
:102C6000DF91CF911F910F91FF90EF90DF90CF9068
:102C7000BF90AF900895CF93DF93CDB7DEB728977D
:102C80000FB6F894DEBF0FBECDBFAE01485F5F4FF9
:102C900069E273E0CE0101960E940016CE01019612
:102CA0000E945314CE0101960E94840E28960FB6FE
:102CB000F894DEBF0FBECDBFDF91CF910895CF93C3
:102CC000DF93CDB7DEB728970FB6F894DEBF0FBEFF
:102CD000CDBFAE01485F5F4F6EE273E0CE0101965B
:102CE0000E940016CE0101960E945314CE01019657
:102CF0000E94840E28960FB6F894DEBF0FBECDBF9B
:102D0000DF91CF9108950F931F93CF93DF93CDB7AA
:102D1000DEB728970FB6F894DEBF0FBECDBF8C018B
:102D2000DC011296ED91FC911586808191810E94C3
:102D30004301F80102811381AE01485F5F4F64E3F4
:102D400073E0CE0101960E940016D8018D919C91EE
:102D50004D815E8169817A81DC01ED91FC91028077
:102D6000F381E02D0995CE0101960E94840E40EB7F
:102D700054E060E070E08BE195E00E942406289624
:102D80000FB6F894DEBF0FBECDBFDF91CF911F917C
:102D90000F9108950F931F93CF93DF931F92CDB799
:102DA000DEB78C0180915B0481110CC0AE014F5FD6
:102DB0005F4F68E373E084E594E00E94001681E0D1
:102DC00080935B0464E574E0F801828193810E9442
:102DD0001B1040E45FE160E070E08BE195E00E9451
:102DE000240648EB5BE060E070E0C80104960E94B6
:102DF00024060F90DF91CF911F910F9108950F93AB
:102E00001F93CF93DF931F92CDB7DEB78C01AE0136
:102E10004F5F5F4F6FE373E00E940016C8010F9091
:102E2000DF91CF911F910F9108950F931F93CF932F
:102E3000DF931F92CDB7DEB78C01AE014F5F5F4FBE
:102E40006DE473E00E940016C8010F90DF91CF91EE
:102E50001F910F9108950F931F93CF93DF931F92AC
:102E6000CDB7DEB78C0148EB5BE060E070E08BE152
:102E700095E00E94240680913D0481110CC0AE01B2
:102E80004F5F5F4F68E373E086E394E00E940016B3
:102E900081E080933D0466E374E0F80182819381D0
:102EA0000E941B100F90DF91CF911F910F910895F9
:102EB0000F931F93CF93DF931F92CDB7DEB78C0193
:102EC000AE014F5F5F4F64E573E00E940016C801DA
:102ED0000F90DF91CF911F910F9108950F931F9342
:102EE000CF93DF931F92CDB7DEB78C01AE014F5F5A
:102EF0005F4F6BE573E00E940016C8010F90DF91F1
:102F0000CF911F910F9108950F931F93CF93DF934C
:102F10001F92CDB7DEB78C01AE014F5F5F4F62E607
:102F200073E00E940016C8010F90DF91CF911F91AE
:102F30000F9108950F931F93CF93DF931F92CDB7F7
:102F4000DEB78C01AE014F5F5F4F6DE673E00E940C
:102F50000016C8010F90DF91CF911F910F91089536
:102F6000CF92DF92EF92FF920F931F93CF93DF9355
:102F7000CDB7DEB765970FB6F894DEBF0FBECDBFF5
:102F80008C01F42EE52ED62EC72EBC01CE0145961F
:102F90000E94A10CD801ED91FC9136970190F0812F
:102FA000E02DE00FF11F8381948185FD5BC086FFDA
:102FB00042C092FF5AC087E793E0CF92DF92EF9230
:102FC000FF929F938F931F9284E18F939E012F5FB7
:102FD0003F4F79013F932F930E94AD329C01990F8F
:102FE000440B550BB701C8010E940B0CD801ED91A1
:102FF000FC9136970190F081E02DE00FF11F838165
:1030000094810FB6F894DEBF0FBECDBF96FF03C00C
:10301000C8010E94C00BC80165960FB6F894DEBFC8
:103020000FBECDBFDF91CF911F910F91FF90EF9019
:10303000DF90CF90089587FF1BC09C01222730723C
:1030400092FF08C080E893E0232B09F0B6CF85E813
:1030500093E0B3CF8AE893E0232B09F0AECF8EE85C
:1030600093E0ABCF83E793E0A8CF8CE793E0A5CFC5
:1030700090E080E0A2CFCF92DF92EF92FF920F9389
:103080001F93CF93DF93CDB7DEB728970FB6F89491
:10309000DEBF0FBECDBF80911305811108C060E176
:1030A00080EE94E00E94DF0E81E080931305809112
:1030B000100590911105892B09F4B7C010920205F3
:1030C000AE01485F5F4F67E373E0CE0101960E9457
:1030D0000016BE016F5F7F4F80EE94E00E94571292
:1030E000CE0101960E94840E6AE380EE94E00E9475
:1030F000030D62E973E00E94D9156CE20E94030D92
:103100008C018091A0059091A105DC01ED91FC91CD
:103110000284F385E02D099528E0C22ED12CE12C04
:10312000F12CA70196010E946332BA01A901C801DE
:103130000E94B0176CE20E94030D8C01E091A00583
:10314000F091A1050280F381E02D6081718182817F
:103150009381A70196010E946332BA01A901C801B7
:103160000E94B0176CE20E94030D7C01E091A4055F
:10317000F091A50580810E94930461E0892B09F0FC
:1031800060E0C7010E94B40C6CE20E94030D7C0158
:10319000E091A405F091A50581810E94930461E06E
:1031A000892B09F060E0C7010E94B40C63E20E9421
:1031B000030DE090A605F090A705AE01485F5F4FB4
:1031C00062EF74E0CE0101960E942914BE016F5F88
:1031D0007F4FC7010E941B10CE0101960E94840EF2
:1031E000AE01485F5F4F62EF74E0CE0101960E942E
:1031F0002914BE016F5F7F4F8CEC96E00E94B60BE6
:103200000E94860DCE0101960E94840E28960FB66C
:10321000F894DEBF0FBECDBFDF91CF911F910F910C
:10322000FF90EF90DF90CF90089581E080930205AA
:1032300047CF0C943B188F929F92AF92BF92EF9220
:10324000FF920F931F93CF93DF93CDB7DEB7E49731
:103250000FB6F894DEBF0FBECDBF8C017B014901D4
:103260005A0160E1CE0101960E94DF0EB701695F4D
:103270007F4FCE0101960E94B60BF70166850E9432
:10328000030DB501A4010E94B017AE014C5C5F4F65
:10329000BE016D5E7F4FC8010E942914CE010196C8
:1032A0000E949B0EC801E4960FB6F894DEBF0FBED5
:1032B000CDBFDF91CF911F910F91FF90EF90BF9005
:1032C000AF909F908F9008952F923F924F925F9270
:1032D0006F927F928F929F92AF92BF92CF92DF9226
:1032E000EF92FF920F931F93CF93DF9300D000D004
:1032F000CDB7DEB79C838B83DC01ED91FC91048418
:10330000F585E02D0995882309F408C12FB7F894B5
:10331000609175047091760480917704909178049F
:103320002FBFEB81FC81878C90A0A1A0B2A0078564
:10333000108921893289601B710B820B930B0E94CB
:10334000D03020E030E04AE754E40E942830A50164
:1033500094010E948731AB81BC8153962D913D91A0
:103360004D915C9156970E94B72F6B017C01EB81C8
:10337000FC810280F381E02DFA83E983448055804B
:1033800066807780AB81BC8193963C9093979496AE
:103390002C90949795960C91959796961C9196974C
:1033A0001B966D917D918D919C911E976419750965
:1033B0008609970997FF07C090958095709561954C
:1033C0007F4F8F4F9F4F0E94D0302B013C01C50192
:1033D000B4019F779B01AC010E94B72F9B01AC0108
:1033E000C301B2010E9487314B015C01232D322DB4
:1033F000A801632D722DC8010E9487319B01AC0189
:10340000C501B4010E94B72F0E94FA314B015C0143
:10341000EB81FC8161857285072E000C880B990B6E
:103420000E94D2302B013C01AC019B01C501B401CB
:103430000E9487314B015C0120E030E0A901C70107
:10344000B6010E948231181624F0F7FAF094F7F8CA
:10345000F09420E030E0A901C501B4010E9482315E
:10346000181624F0B7FAB094B7F8B094A5019401F7
:10347000C701B6010E94233087FD02C075016401B7
:10348000232D322DA801C701B6010E94233087FDEC
:1034900042C0A981BA811A966D917C9190E080E03A
:1034A0000E94D0305B018C019B01AC01C701B601C9
:1034B0000E948231181614F465017801A30192016B
:1034C000C701B6010E948731EB81FC81678B708F49
:1034D000818F928F87819085DC01ED91FC91048032
:1034E000F581E02DB701A6010F900F900F900F907E
:1034F000DF91CF911F910F91FF90EF90DF90CF90D0
:10350000BF90AF909F908F907F906F905F904F9003
:103510003F902F900994C32CD22CCFCF0F900F90B7
:103520000F900F90DF91CF911F910F91FF90EF902F
:10353000DF90CF90BF90AF909F908F907F906F90D3
:103540005F904F903F902F900895AF92BF92CF928F
:10355000DF92EF92FF920F931F93CF93DF93CDB73C
:10356000DEB728970FB6F894DEBF0FBECDBF5C0163
:103570006B01AE01485F5F4F66E973E0CE010196D3
:103580000E940016D6011496ED90FC900D811E81CC
:10359000A7010E151F0508F4A80169817A81F601BB
:1035A000808191810E949F32DD24D394892B39F44C
:1035B000E016F10608F0D12C0E151F0588F1CE019A
:1035C00001960E94840ED1101AC0D50112960D9159
:1035D0001C9188E090E00E94CC2DFC0113830283B3
:1035E00087E392E09183808389E993E097838683E0
:1035F00015821482D8015096FC93EE931F9728965B
:103600000FB6F894DEBF0FBECDBFDF91CF911F91F3
:103610000F91FF90EF90DF90CF90BF90AF90089503
:10362000DD24D394CCCF0F931F93CF93DF93EB0183
:1036300009900020E9F72197C61BD70BFC010481F4
:103640001581AE010C171D0708F4A801FC0180814B
:1036500091810E949F32892B11F080E004C081E0AB
:10366000C017D107D1F7DF91CF911F910F91089526
:10367000CF93DF93EC01CB0166E973E00E94131B4B
:103680008823C1F0CE010E945615811110C00A8016
:10369000DB81C02D84E090E00E94CC2DFC01D3831F
:1036A000C28329EE31E031832083988B8F87DF91AD
:1036B000CF9108950A80DB81C02D84E090E00E94C4
:1036C000CC2DFC01D383C2832DEB32E0ECCFAF9243
:1036D000BF92CF92DF92EF92FF920F931F93CF93FF
:1036E000DF9300D000D000D01F92CDB7DEB75C01D1
:1036F0007B01DB010D911C9111971496CD90DC900C
:10370000C00ED11E88E090E09C838B831E821D82B8
:103710000E94CC2D9A838983CE0101960E943D069A
:10372000A801465F5F4F69817A819601CE010196BB
:103730000E94D5116BEE73E0CE0101960E94131B1F
:10374000882321F1F70160817181D50112968D9155
:103750009C910E947913F501028113818CE090E025
:103760000E94CC2DFC01138302838FEC91E09183A6
:103770008083148215821682178210861186128623
:103780001386D8015096FC93EE931F97CE010196B5
:103790000E94840E27960FB6F894DEBF0FBECDBFF1
:1037A000DF91CF911F910F91FF90EF90DF90CF901D
:1037B000BF90AF9008950F931F93CF93DF93CDB732
:1037C000DEB7CC54D1090FB6F894DEBF0FBECDBF23
:1037D0008C01CE0101960E94AB09CE0187960E9412
:1037E000AB0946E250E070E060E0CE0187960E94AF
:1037F000FB2E8FA198A58B3F9A4439F42D968EAD60
:103800009FAD2D978B3F9A44A9F086E2FE01319639
:10381000D80101900D928A95E1F7C801C45BDF4F92
:103820000FB6F894DEBF0FBECDBFDF91CF911F91D1
:103830000F91089589A5833041F786E2FE01B7967E
:10384000E7CF4F925F926F927F92AF92BF92CF92EB
:10385000DF92EF92FF920F931F93CF93DF93CDB739
:10386000DEB7CD54D1090FB6F894DEBF0FBECDBF81
:103870008C017B01DB011E968C91833549F56B0130
:10388000B7E0CB0ED11C6FEE73E0C6010E94131B94
:10389000882369F0E091A205F091A3052485358580
:1038A00050E040E0B701C8010E941B196BC062EFF5
:1038B00073E0C6010E94131B8823F1F0F70187858E
:1038C0009089A189B28984369105A105B10534F4A6
:1038D000AE014F5F5F4F65EF73E01CC1E091A00543
:1038E000F091A1050280F381E02D91878087B701D7
:1038F000C8010E94AE1446C069EF73E0C6010E9481
:10390000131B8823D9F0E091A405F091A5058181CE
:103910000E949304892B59F30E945F168091A005A1
:103920009091A105DC01ED91FC910084F185E02DE1
:1039300048E15CEF6FEF7FEF0995D9CF6CEF73E053
:10394000C6010E94131B8823A1F1CE0101960E949B
:10395000CF0E6CEF73E0CE0101960E941D156FEF44
:1039600073E0CE0101960E941D15AE01495D5F4FC7
:10397000BE016F5F7F4FC8010E942914CE010196DE
:103980000E94840EC801C35BDF4F0FB6F894DEBF00
:103990000FBECDBFDF91CF911F910F91FF90EF90A0
:1039A000DF90CF90BF90AF907F906F905F904F90DF
:1039B000089565E074E0C6010E94131B8823F9F0A6
:1039C000E091A405F091A50580810E949304892BC4
:1039D00009F48DCF0E943B168091A0059091A1051E
:1039E000E091A205F091A30544815581668177811C
:1039F000DC01ED91FC910084F185E02D9DCF68E024
:103A000074E0C6010E94131B882361F08091A00519
:103A10009091A105DC01ED91FC910280F381E02DF4
:103A2000099565CF6BE074E0C6010E94131B8823E3
:103A300091F08091A0059091A105DC01ED91FC91A0
:103A40000284F385E02D099528E030E040E050E065
:103A50000E94633227CF6EE074E0C6010E94131B00
:103A60008823C1F0F70187859089A189B28953E045
:103A7000880F991FAA1FBB1F5A95D1F7E091A00587
:103A8000F091A1050280F381E02D84839583A683C4
:103A9000B7832DCF61E174E0C6010E94131B882318
:103AA00061F0E091A005F091A1050280F381E02D85
:103AB0006081718182819381C7CF64E174E0C60126
:103AC0000E94131B8823C1F0E091A005F091A1058D
:103AD00022813381F70187859089A189B28943E0EA
:103AE000880F991FAA1FBB1F4A95D1F7F901808340
:103AF0009183A283B383FBCE67E174E0C6010E9489
:103B0000131B882359F00E943B18AE014F5F5F4F93
:103B100067E373E0C8010E94001634CF6AE174E0E5
:103B2000C6010E94131B882399F0E091A005F09133
:103B3000A1050280F381E02D2285338550E040E02D
:103B400093E055954795379527959A95D1F7AACE45
:103B50006DE174E0C6010E94131B882321F1D70197
:103B60001F964D905D906D907C90529783E0440C31
:103B7000551C661C771C8A95D1F7C090A005D09083
:103B8000A105F60163A174A185A196A10E94A130AF
:103B90004616570608F49CCED6011296ED91FC917C
:103BA00053864286A4CE60E274E0C6010E94131BD5
:103BB0008823E9F0CE0101960E94AB098091A2050D
:103BC0009091A30526E2FE013196DC0101900D9251
:103BD0002A95E1F746E250E070E060E00E940B2F8A
:103BE0006BEF7AE48CE490E00E942D2F80CE63E2AC
:103BF00074E0C6010E94131B882389F0C090A205BF
:103C0000D090A305CE0188960E94DB1B86E2FE01C0
:103C1000B896D60101900D928A95E1F768CE66E2DA
:103C200074E0C6010E94131B882309F451CE46E2BA
:103C300050E070E060E08091A2059091A305CECFA6
:103C40002F923F924F925F926F927F928F929F92AC
:103C5000AF92BF92CF92DF92EF92FF920F931F939A
:103C6000CF93DF93CDB7DEB72C970FB6F894DEBFB6
:103C70000FBECDBF6C0129013A01FC01A18CB28CB1
:103C80009E01265F3F4FA201CE0101960E94E914DA
:103C9000F601E488F588EA14FB0410F40E948832E7
:103CA00017012A183B0882012414350408F4810105
:103CB0008D809E80E01AF10AC40180959095E816E7
:103CC000F90660F7E80CF91CC60140969C878B87C3
:103CD0000815190538F41886AE01485F5F4FB70123
:103CE0000E949B11F60180899189A101401B510B13
:103CF000B501600F711F680F791F9501280D391DDF
:103D0000820F931F0E948D3269817A81F60180892A
:103D10009189A4018A0D9B1D0E94F30D1986AE01A5
:103D2000475F5F4FB7018B859C850E949B11CE0139
:103D300001960E94840EF601818D928D840D951D51
:103D4000928F818FC301B2012C960FB6F894DEBF1B
:103D50000FBECDBFDF91CF911F910F91FF90EF90DC
:103D6000DF90CF90BF90AF909F908F907F906F909B
:103D70005F904F903F902F900895CF92DF92EF92F7
:103D8000FF920F931F93CF93DF93CDB7DEB76B975F
:103D90000FB6F894DEBF0FBECDBF7C018B01DB01F7
:103DA0001496CD90DC90B2E0CB16D104B8F4AE01FD
:103DB0004F5F5F4F65EF73E00E940016C7016B967F
:103DC0000FB6F894DEBF0FBECDBFDF91CF911F912C
:103DD0000F91FF90EF90DF90CF900895CE01019664
:103DE0000E94CF0ECE0108960E94CF0EB801CE01E0
:103DF00001960E942E12188A198A1A8A1B8AF801C3
:103E0000608171816F5F7F4FCE0108960E94D6124C
:103E1000F2E0CF16D10489F480E38F87BE016F5F93
:103E20007F4FC7010E94211CCE0108960E94840E7C
:103E3000CE0101960E94840EC1CFD8016D917C9174
:103E40006E5F7F4FCE0108960E94D612B3E0CB166C
:103E5000D10411F3D801ED91FC9183818F87B6E0F5
:103E6000CB16D10440F184818C3229F5D801149607
:103E70004D915C914530510510F40E9488324550B7
:103E80005109BF016B5F7F4F9E01255E3F4FCE0101
:103E900044960E94E9144AE050E070E060E08C89AA
:103EA0009D890E94712C688B798B8A8B9B8BCE01AC
:103EB00044960E94840EBE016F5F7F4FCE014496F0
:103EC0000E94211CAE01455E5F4FBE016C5E7F4FBC
:103ED000C7010E942914CE0144960E94840EA4CFEB
:103EE0008F929F92AF92BF92CF92DF92EF92FF920A
:103EF0000F931F93CF93DF93CDB7DEB72E970FB6F7
:103F0000F894DEBF0FBECDBFDB011496AD90BC9020
:103F1000BAE0AB16B10408F441C08B017C01FB018F
:103F2000C080D18046018A0C9B1C88E090E09B8772
:103F30008A871D861C860E94CC2D99878887CE0192
:103F400008960E943D06A601465F5F4F6885798509
:103F50009401CE0108960E94D511FAE0AF16B10483
:103F600081F1D801ED91FC918285803451F5BE013B
:103F7000685F7F4FCE0101960E94BD1EBE016F5F3C
:103F80007F4FF701828193810E941B10CE01019621
:103F90000E94840ECE0108960E94840E2E960FB6C3
:103FA000F894DEBF0FBECDBFDF91CF911F910F916F
:103FB000FF90EF90DF90CF90BF90AF909F908F9049
:103FC00008956BEE73E0CE0108960E94131B8823C0
:103FD00009F3D70118961D921D921D921C921B97F2
:103FE00040E45FE160E070E08BE195E00E94240630
:103FF000D1CF1F920F920FB60F9211248F939F93E0
:104000008091E1009091E100937F9093E10083FF24
:104010000FC01092E90091E09093EB001092EC0039
:1040200092E39093ED001092DE0498E09093F000FC
:1040300082FF22C093E09093E9009091F2009923CF
:1040400019F09AE39093E8009091D004992341F0FD
:104050009091D00491509093D004911101C05D9A39
:104060009091DD04992341F09091DD04915090935B
:10407000DD04911101C0289A84FF18C08091E200EC
:104080008E7E81608093E2008091E1008F7E80933C
:10409000E1008091CF048E7E80618093CF049F9158
:1040A0008F910F900FBE0F901F90189580FFF7CF44
:1040B0008091E2008E7E80618093E2008091E10039
:1040C0008E7E8093E1008091CF048E7E8160E5CF6B
:1040D0001F920F920FB60F921124CF92DF92EF92A0
:1040E000FF920F931F932F933F934F935F936F9381
:1040F0007F938F939F93AF93BF93EF93FF93CF9350
:10410000DF93CDB7DEB76C97DEBFCDBF1092E9006D
:104110008091E80083FF25C068E0CE0145960E94AB
:10412000950282EF8093E8008D8987FF39C09091D6
:10413000E80090FFFCCF982F907609F034C19E895B
:104140004F89588D2F89F88C911131C0803861F5D5
:104150008091CE048093F1001092F1008EEF809355
:10416000E8006C960FB6F894DEBF0FBECDBFDF91AE
:10417000CF91FF91EF91BF91AF919F918F917F91DF
:104180006F915F914F913F912F911F910F91FF90F0
:10419000EF90DF90CF900F900FBE0F901F9018956B
:1041A0009EEF9093E800C7CF1092F100D5CF9130E9
:1041B00059F48111D3CF4130510581F68091CE045D
:1041C0008D7F8093CE04CACF933049F48111C6CF3E
:1041D0004130510519F68091CE048260F2CF9530BE
:1041E00041F48091E80080FFFCCF20682093E30039
:1041F000B5CF963009F0A9C00B8D1C8D22E010922E
:10420000E9001092CC041092CB04F2122EC010924E
:10421000CA041092C9040E9464021F8299E0998323
:10422000FA8291E09E8390EA98879AEF998720918D
:10423000CB043091CC04275F3F4F3C832B838D838D
:104240001092E9001092CC041092CB041093CA048F
:104250000093C90449E050E0BE016F5F7F4F80E0EA
:104260000E943E020E94640279CF1093CA04009318
:10427000C9040E94FC01DC0112960D911C910115EC
:10428000110509F451C1D801ED91FC910480F5812B
:10429000E02DBE016B5E7F4FC8010995009709F0C4
:1042A0003EC1F80100851185EACFF3E0FF120EC090
:1042B0008F89882309F440C0823061F440E860E1CE
:1042C00083EA91E00E943A24811148CF81E28093F1
:1042D000EB0047CF813029F440E86BE087E991E0BB
:1042E000F1CF833099F70E94FC01DC011296ED902A
:1042F000FC908E010F5F1F4F6801E114F10479F00B
:10430000D701ED91FC910680F781E02DB801C7013E
:104310000995080F111DF701E084F184EECFD80153
:104320001C92F60101900020E9F73197BF016C194A
:104330007D0940E0C601C6CF61E871E0FB01449110
:1043400050E080E80E943E0209CF973009F4BECFCA
:10435000983021F481E08093F10000CF993009F08A
:10436000FDCE837009F0B2CFE4EDF2E081E031E000
:1043700096E32191222371F08093E9003093EB00C2
:10438000DF0111972C912093EC009093ED008F5F4B
:10439000873079F78EE78093EA001092EA008F89E0
:1043A0008093DE04DBCE8B8D9C8D1092E900109201
:1043B000CC041092CB049093CA048093C904898DD5
:1043C000811192C08E899D89913A49F4813209F018
:1043D0007DCF47E050E066E071E080E0B3CF9132FE
:1043E00009F074CF833269F48F89988DB0E0A0E032
:1043F0008093020190930301A0930401B0930501FF
:10440000ADCE803269F48091E80082FFFCCF67E096
:1044100086E091E00E9495028BEF8093E8009ECEAB
:10442000823209F09BCE8F8980930D01EEEFFFE77A
:10443000859194918B3F9C4D51F1E0E0F8E08091A3
:10444000060190910701A0910801B0910901803BFC
:104450009440A105B105F1F480910D0180FD1AC0D1
:10446000EE3F8AE0F80789F587E797E79183808335
:10447000809160008093CD0488E19BE00FB6F894B2
:10448000A895809360000FBE9093600067CEEEEF1A
:10449000FAE0D5CF808191818737974709F05ECECA
:1044A000A895809160008861809360008091CD0420
:1044B00080936000EE3F2AE0F20789F08091FE0AC7
:1044C0009091FF0A9183808349CE808191818737C3
:1044D000980751F29093FF0A8093FE0AC5CF10927D
:1044E000FF0A1092FE0A3ACE0E94FC01DC011296ED
:1044F0000D911C910115110509F4E8CED801ED913B
:10450000FC910190F081E02DBE016B5E7F4FC801F0
:104510000995811123CEF80100851185EBCF18167E
:1045200019060CF41BCED2CEF1E0FF12BECE65E828
:1045300071E004CF1F920F920FB60F9211242F93A8
:104540003F934F935F936F937F938F939F93AF931B
:10455000BF93EF93FF9389EB95E00E943903FF919E
:10456000EF91BF91AF919F918F917F916F915F91EB
:104570004F913F912F910F900FBE0F901F90189564
:104580001F920F920FB60F9211242F938F939F9328
:10459000EF93FF93E091C905F091CA058081E09106
:1045A000CF05F091D00582FD1BC090818091D2058E
:1045B0008F5F8F732091D305821741F0E091D20570
:1045C000F0E0E754FA4F958F8093D205FF91EF9179
:1045D0009F918F912F910F900FBE0F901F90189564
:1045E0008081F4CF1F920F920FB60F9211242F9358
:1045F0003F938F939F93AF93BF9380917504909156
:104600007604A0917704B09178043091740423E08B
:10461000230F2D3758F50196A11DB11D2093740469
:104620008093750490937604A0937704B0937804F4
:104630008091790490917A04A0917B04B0917C04DC
:104640000196A11DB11D8093790490937A04A093E3
:104650007B04B0937C04BF91AF919F918F913F9168
:104660002F910F900FBE0F901F90189526E8230FE3
:104670000296A11DB11DD2CF1F920F920FB60F92BD
:1046800011242F933F934F935F936F937F938F9357
:104690009F93AF93BF93EF93FF93E0911601F09137
:1046A00017010995FF91EF91BF91AF919F918F9164
:1046B0007F916F915F914F913F912F910F900FBE1E
:1046C0000F901F9018951F920F920FB60F92112402
:1046D0002F933F934F935F936F937F938F939F930A
:1046E000AF93BF93EF93FF93E0911401F091150105
:1046F0000995FF91EF91BF91AF919F918F917F911C
:104700006F915F914F913F912F910F900FBE0F903E
:104710001F9018951F920F920FB60F9211242F938E
:104720003F934F935F936F937F938F939F93AF9339
:10473000BF93EF93FF93E0911201F091130109955C
:10474000FF91EF91BF91AF919F918F917F916F9169
:104750005F914F913F912F910F900FBE0F901F903F
:1047600018951F920F920FB60F9211242F933F931B
:104770004F935F936F937F938F939F93AF93BF9369
:10478000EF93FF93E0911001F09111010995FF91D2
:10479000EF91BF91AF919F918F917F916F915F91B9
:1047A0004F913F912F910F900FBE0F901F90189532
:1047B0001F920F920FB60F9211242F933F934F9396
:1047C0005F936F937F938F939F93AF93BF93EF9379
:1047D000FF93E0910E01F0910F010995FF91EF9188
:1047E000BF91AF919F918F917F916F915F914F9109
:1047F0003F912F910F900FBE0F901F9018951F9211
:104800000F920FB60F9211242F933F934F935F9304
:104810006F937F938F939F93AF93BF93EF93FF9388
:104820006091DF0481E068276093DF048091630476
:1048300090916404DC01ED91FC910190F081E02DF8
:1048400009958091000190910101909389008093D6
:104850008800FF91EF91BF91AF919F918F917F91D0
:104860006F915F914F913F912F910F900FBE0F90DD
:104870001F901895EF92FF920F931F93CF93DF93A2
:10488000F82E192FE62E042F81E0860F880F0E9444
:10489000100283E00E941002CF2DD12FEC0EFD2ECE
:1048A000F11CCE15DF05B9F007FF13C0FE0184919E
:1048B0000E941002182F80E00E941002812321968E
:1048C0008111EFCFDF91CF911F910F91FF90EF906A
:1048D00008958881EDCF81E0F5CFCF93DF93EB0191
:1048E00088819981A6EFB6E011969C938E932A81D8
:1048F0003B810697EC01E881F981EA50F94F318359
:10490000208312961D921D921D921C92159781E292
:1049100090E0948383838CEF96E0948B838B158255
:10492000158ADF91CF9108956CEF76E08EE097E0E5
:104930000E94660D4CEF56E063E872E086EF96E069
:104940000E946D24E6EFF6E08FE892E09183808389
:1049500089E992E0918F808F1286118614861386E2
:1049600016861586108A1786128A118A148A138A67
:1049700081E592E09783868387E295E0978B868B2B
:1049800088E0858B08956EEC76E080EE96E00E94DC
:10499000660D4EEC56E06FE972E08CEC96E00E94FA
:1049A000160EECECF6E08BEA92E09183808385EBC7
:1049B00092E0958B848B1682158210861782128660
:1049C00011861486138616861586108A178681E549
:1049D00092E09383828387E295E0938B828B80E1E0
:1049E000818B0895CF93DF93C9EBD5E01092BC057E
:1049F0001092BB0588EE93E0A0E0B0E08093BD0587
:104A00009093BE05A093BF05B093C0052EED32E094
:104A10003093BA052093B9052DEC30E03093C605EC
:104A20002093C5052CEC30E03093C8052093C705D2
:104A300028EC30E03093CA052093C90529EC30E01A
:104A40003093CC052093CB052AEC30E03093CE0593
:104A50002093CD052EEC30E03093D0052093CF0588
:104A60001092D2051092D3051092D4051092D5055C
:104A700010922A051092290580932B0590932C05FE
:104A8000A0932D05B0932E0580EF92E0909328051A
:104A9000809327058FEF9FEF909334058093330524
:104AA00010921B0510921C0510921D0510921E05F8
:104AB00010921F05109220051092210510922205D8
:104AC00067E275E08CEC96E00E94C32467E275E033
:104AD00086EF96E00E9494241092260510922505F8
:104AE00087E295E090932405809323056BE271E0C3
:104AF00086E091E00E94652D909326058093250520
:104B00001092C4061092C5061092C6061092C706EF
:104B10001092C8061092C9061092CA061092CB06CF
:104B200086E193E09093C3068093C2060E94A7019A
:104B30008CE996E00E94DB1B82E093E09093740680
:104B40008093730681E090E090937D0680937C06CD
:104B500010927E0610927F061092800610928106B7
:104B60001092820610928306109284061092850697
:104B70001092860610928706109288061092890677
:104B800010928E0610928F06109290061092910647
:104B90001092920610929306109294061092950627
:104BA00080EA96E0909376068093750682EC96E014
:104BB00090937B0680937A0610928A0610928B0659
:104BC00010928C0610928D068CE0809377068AE016
:104BD000809378068BE08093790680E090E0AAE7E6
:104BE000B3E48093960690939706A0939806B093AB
:104BF000990661E08CE00E94EA0461E08091790608
:104C00000E94EA0461E0809178060E94EA0461E073
:104C1000809178060E94BC0410929B0610929A061E
:104C200083E08093710682E08093720683E796E0CA
:104C300090937805809377058AE696E00E94CF0EE0
:104C400083E696E00E94CF0ED0935706C093560697
:104C500083E696E0909359068093580681EA9DE09A
:104C60009093620680936106D093A905C093A8052E
:104C700086E596E09093AB058093AA058CEA95E0D3
:104C80000E94CF0E1092B4051092B3051092B50594
:104C90001092B6051092B8051092B7058091AE0536
:104CA0009091AF05089730F468E070E08CEA95E0E9
:104CB0000E94221383E796E09093A1058093A005BC
:104CC0008CE996E09093A3058093A20581E796E096
:104CD0009093A5058093A40588EA95E09093A70595
:104CE0008093A60590937A0580937905C091AD06CF
:104CF000D0E088E090E090937E0580937D0510924F
:104D0000800510927F0580E190E00E94CC2D909369
:104D10007C0580937B05D0938505C093840590E046
:104D200080E00E947E0F10928C0510928D051092EB
:104D30008E0510928F051092900510929105109299
:104D40009205109293051092940510929505109279
:104D50009605109297051092980510929905109259
:104D60009A0510929B0582E190E090939D058093B7
:104D70009C058DEA96E090939F0580939E05DF91B8
:104D8000CF910895CF93DF93CDB7DEB7CB54D10940
:104D90000FB6F894DEBF0FBECDBF789484B58260A5
:104DA00084BD84B5816084BD85B5826085BD85B5CF
:104DB000816085BD80916E00816080936E0010924D
:104DC00081008091810082608093810080918100C8
:104DD0008160809381008091800081608093800059
:104DE0008091910082608093910080919100816018
:104DF00080939100809190008160809390008091D9
:104E0000C10084608093C1008091C1008260809362
:104E1000C1008091C10081608093C1008091C30076
:104E200081608093C3008091C00082608093C00045
:104E30008091C20081608093C20080917A0084607A
:104E400080937A0080917A00826080937A008091CA
:104E50007A00816080937A0080917A0080688093E4
:104E60007A001092DE041092CE041092CF0480914A
:104E7000D70081608093D70080EA8093D80089B5FD
:104E8000806189BD89B5826089BD09B400FEFDCF0E
:104E900061E070E080E090E00E9440058091D800E1
:104EA0008F7C80618093D8008091E000807F809328
:104EB000E0008091E1008E7E8093E1008DE08093A0
:104EC000E200559A209A61E0809178060E94BC0425
:104ED00060E0809177060E94BC0489E199E190939B
:104EE0009B0680939A0662E085E00E94EA0462E0F5
:104EF00086E00E94EA0480916C0690916D064097CE
:104F000030F460E170E08AE696E00E9473118091CF
:104F1000650690916606809730F460E270E083E663
:104F200096E00E9422138FEF9FEF909334058093B9
:104F3000330589EB95E00E94430148EE53E060E0C1
:104F400070E084EC96E00E942406789484E090E07F
:104F50000E94CC2D28EA35E0DC0113963C932E9379
:104F600012972DEB32E02D933C939093B8058093EC
:104F7000B70562E0809171060E94EA0462E08091C8
:104F800072060E94EA0480917106882309F40FC119
:104F9000813009F40EC1823009F40DC1833009F467
:104FA0000CC1873029F484E06CED79E00E946A013D
:104FB00080917206882309F402C1813009F401C18D
:104FC000823009F400C1833009F4FFC0873029F42E
:104FD00084E06BE07AE00E946A0140E157E260E021
:104FE00070E08CE895E00E942406E0919E05F09127
:104FF0009F05438554856585768584E995E00E9403
:1050000024068FEF9FEF0E947E0F44244394512C7F
:1050100034E0632E712C45E0E42EF12C26E0C22E04
:10502000D12C8091C104811108C060E18EE894E028
:105030000E94DF0E81E08093C10483E796E00E9426
:10504000641987E295E00E942D0418161906ECF504
:1050500087E295E00E94EB0397FD37C08CAB8D3063
:1050600031F0803409F4B3C08A3009F0B4C08091C3
:105070006E0690916F06029740F1BE016C5C7F4F07
:105080008AE696E00E94D6126AE676E0CE010196A4
:105090000E94BD1E8D819E81892B79F06AE38CEC84
:1050A00096E00E94030DBE016F5F7F4F0E94B60B1A
:1050B00063E20E94030D0E94860D8AE696E00E943C
:1050C0003D06CE0101960E94840E8091B50588238D
:1050D00009F422C10091AA051091AB05F801808165
:1050E0009181DC01ED91FC910084F185E02D099521
:1050F000181619060CF04BC133243A9482E0A82EFE
:10510000B12C93E0892E912C22242394F8018081E4
:105110009181DC01ED91FC910084F185E02D0995F0
:10512000181619060CF033C1F80180819181DC0159
:10513000ED91FC910284F385E02D099597FDE6CF72
:105140002C968FAF2C978E37A1F4F801158214821C
:10515000828193810E943D06D80116961C92169773
:1051600017961C92179719961C921E9218971A96CA
:105170003C92F8018681882349F02C968FAD2C97BC
:105180001682F0E28F272C968FAF2C97D8011496B9
:105190002D913C9115972C968FAD2C9721153105AB
:1051A00009F455C08D3731F516962C92AFCF82E0B9
:1051B000FBCE83E0F9CE81E0F7CE80E0F5CE82E051
:1051C00008CF83E006CF81E004CF80E002CF8AE6FB
:1051D00096E00E943D0680916E0690916F06409782
:1051E00008F073CFBE016C5C7F4F8AE696E00E94A8
:1051F000D6126BCF23303105E1F180F42130310537
:1052000069F12230310509F081CFF801208531851F
:10521000282B318720879582848278CF24303105EE
:1052200099F12530310509F071CFF8019781980F78
:105230009783628173819F3F09F05BC0D582C482EE
:105240000384F485E02D1A968C9109955FCF8E37F3
:1052500009F05CCFF8015582448258CF18961C9211
:10526000189719968C9319971596BC92AE9214972D
:105270004DCF1A968C931A9717968C93179715966D
:105280007C926E92149742CFF80182819381DC0167
:1052900014962D913C91B9016F5F7F4F2617370708
:1052A00020F5AE01455B5F4F0E944A13D801179667
:1052B0008C9117972C969FAD2C97890F17968C93EE
:1052C00017971296ED91FC91139718968D919C91DA
:1052D00019970197248135812817390709F016CFCE
:1052E0001596FC92EE92149711CFFC011582148250
:1052F000DDCF15821482CB010E943D06D80116969F
:105300001C92169717961C92179719961C921E922C
:1053100018971A963C92FACE80918404811107C0A6
:105320008DE794E00E94CF0E81E080938404809109
:10533000A8059091A905DC01ED91FC910084F1850F
:10534000E02D09951816190614F58091A80590917D
:10535000A905DC01ED91FC910284F385E02D09950E
:1053600097FD15C089838D3009F0D9C08091B305B0
:105370009091B405DC01ED91FC910484F585E02D5C
:105380006DE774E009958DE794E00E943D068091F9
:10539000B3059091B405009739F0DC01ED91FC91D3
:1053A0000680F781E02D09958091B7059091B805A9
:1053B000892B09F454C06DE274E08CEC96E00E94F5
:1053C000D9158C016091B7057091B805DB01ED919D
:1053D000FC910480F581E02DCE0101960995BE0176
:1053E0006F5F7F4FC8010E94B60B0E94860DCE01F1
:1053F00001960E94840E8091B3059091B4050097A8
:10540000D9F0DC01ED91FC910084F185E02D099546
:105410008091B3059091B4052091B7053091B805FE
:105420008217930749F0009739F0DC01ED91FC9168
:105430000280F381E02D09958091B7059091B80520
:105440009093B4058093B3051092B8051092B705F8
:10545000DC01ED91FC910284F385E02D09958CE847
:1054600095E00E94F805882309F420C1E0919E058B
:10547000F0919F0541815281638174818CE895E0B0
:105480000E942406E0919C05E23108F0E251F0E030
:10549000ED5CFE4FE49190917B008E2F880F880F7A
:1054A00080729F7D892B80937B00E770E064E0939E
:1054B0007C0080917A00806480937A0080917A00E9
:1054C00086FDFCCF2091780080917900382F2A96B4
:1054D0003FAF2EAF2A97E0917B05F0917C0580913C
:1054E00082059091830540815181841B950B820F29
:1054F000931F909383058093820530E020E04091D4
:105500007F0550918005CA0101972817390778F463
:105510002F5F3F4F8281938181939193F0CFBE01A2
:105520006F5F7F4F8DE794E00E94D61230CF8417D3
:10553000950720F49093800580937F0520917F0547
:1055400030918005C90101962817390708F086C1F6
:10555000BE01685B7F4F0E94480F80918205909149
:10556000830560918405709185050E944F32709388
:105570008B0560938A0584E995E00E94F8058823ED
:1055800009F494C0E0919E05F0919F0543855485F0
:105590006585768584E995E00E94240660E1CE0168
:1055A00001960E94DF0E6AE3CE0101960E94030D70
:1055B00062E374E00E94D9155C0100918A051091A4
:1055C0008B05BC01CE01865B9F4F0E94A10CD501CB
:1055D000ED91FC9136970190F081E02DEA0DFB1DD5
:1055E0008381948185FD56C186FF3DC192FF55C1DF
:1055F00087E793E01F921F921F930F939F938F93C0
:105600001F9284E18F938E010C5C1F4F1F930F93A9
:105610000E94AD329C01990F440B550BB801C50196
:105620000E940B0CD501ED91FC9136970190F08111
:10563000E02DEA0DFB1D838194810FB6F894DEBF47
:105640000FBECDBF96FF03C0C5010E94C00B63E231
:10565000C5010E94030DA0907905B0907A05AE01B6
:10566000465B5F4FBE016D5E7F4FC8010E942914EB
:10567000B801C5010E941B10C8010E94840EAE0132
:10568000465B5F4FBE016D5E7F4FC8010E942914CB
:10569000B8018CEC96E00E94B60B0E94860DC80102
:1056A0000E94840ECE0101960E949B0E84EC96E02F
:1056B0000E94F805882309F4C4C04AEF50E060E076
:1056C00070E084EC96E00E94240685E00E9493043A
:1056D0005C0111E0892B09F010E080918D0418170E
:1056E00099F0A114B10451F40E943B1640E054E932
:1056F00065E377E783E796E00E94CE06AB2821F0CA
:1057000083E796E00E94450610938D0486E00E9490
:1057100093045C0111E0892B09F010E080918C0466
:10572000181799F0A114B10451F40E945F1640E0DB
:105730005CE66AEC78E883E796E00E94CE06AB2848
:1057400021F083E796E00E94450610938C0420E048
:1057500030E0A90160918A0670918B0680918C06D9
:1057600090918D060E942330882309F46AC08091AD
:10577000A0059091A105DC01ED91FC910284F385D7
:10578000E02D099528E030E040E050E00E946332CF
:1057900049015A018091BE049091BF04892B09F4FC
:1057A00082C01092B004AE014C5C5F4F67E373E0BF
:1057B000CE0101960E940016BE016F5F7F4F8EE8FA
:1057C00094E00E945712CE0101960E94840E64E973
:1057D00073E08EE894E00E94D915B501A4010E94FF
:1057E000B01764E973E08CEC96E00E94D915DC01F7
:1057F000ED91FC9136970190F081E02D3296E80F03
:10580000F91F218132812F71206232832183B501FA
:10581000A4010E94B0170E94860DAE014C5C5F4F40
:1058200060EA74E0CE0101960E942914BE016F5F08
:105830007F4F88EA95E00E941B10CE0101960E94DE
:10584000840E80E090E0892B09F4EBCB0E942503C5
:10585000882309F4E3CB0E940000DACB1092800584
:1058600010927F057ACE87FF1BC0AC01442750728F
:1058700092FF08C080E893E0452B09F0BBCE85E895
:1058800093E0B8CE8AE893E0452B09F0B3CE8EE8DA
:1058900093E0B0CE89E294E0ADCE8CE793E0AACE5F
:1058A00090E080E0A7CE81E08093B0047CCF80912F
:1058B0007B0590917C050E94682E8CEA95E00E9401
:1058C000840E83E696E00E94840E8AE696E00E94AB
:1058D000840E86EF96E00E947E098CEC96E00C9494
:1058E0004E0DB0E0A0E0E7E7FCE20C94712F5C0104
:1058F0006B017A016115710519F0FB0191838083B9
:10590000E114F10449F0C7010297839728F060E0A1
:1059100070E0CB019CC05E01E5012196F50110818C
:10592000812F90E00E945C2D892BA9F71D3209F090
:1059300056C02196F501118101E0E114F10409F44A
:10594000AEC0F0E1EF16F10409F08EC0103341F45F
:1059500088818F7D883509F083C019812296026085
:10596000E0E1EE2EF12C88248A94982CA82CFFE0FC
:10597000BF2E20E060E070E0CB0127010F2C000C6F
:1059800066087708FE0150ED352E310E39E03315EB
:1059900038F43FEB310F3A31A0F549EC342E310E9B
:1059A0003E141F04BCF52F3FB9F086169706A806D3
:1059B000B90670F1A30192010E94332F232D30E02C
:1059C00050E040E0620F731F841F951F621773073A
:1059D00084079507E8F021E021961081D3CF1B3290
:1059E00021F4E5012296F501118100E0A6CF78E0CF
:1059F000E72EF12C88248A94982CA82C6FE1B62EDF
:105A0000B8CF3FE9310F3A3128F439EA332EC7CF06
:105A10002FEFE2CFC114D10431F02223E9F0219716
:105A2000F601D183C08300FF07C0909580957095E3
:105A300061957F4F8F4F9F4F2F3F49F482E290E057
:105A400090932B0780932A076FEF7FEFCB01CDB7A1
:105A5000DEB7E1E10C948D2F01FFE5CF2297E0CF77
:105A600010E3E114F10419F23AE0E316F104E9F06D
:105A700080E1E816F10409F473CFE8E0EE16F104D2
:105A800009F4B8CF6FEF7FEFCB0197010F2C000C1B
:105A9000440B550B0E94432F49015A016ACF103322
:105AA00009F456CF9AE0E92EF12C89E9882E982C3A
:105AB000A82C89E1B82E5DCF91110C94F12E803283
:105AC00019F089508550C8F708950F931F93CF930D
:105AD000DF93009759F46115710541F4F0E0E0E0BF
