:100000000C94DC000C9427240C9400240C94D92329
:100010000C94B2230C9404010C9404010C948B23D3
:100020000C9404010C9404010C9448200C94B72007
:100030000C9404010C9404010C9404010C9404012C
:100040000C9404010C944E240C9404010C940401AF
:100050000C9404010C9404010C9404010C944123AD
:100060000C9404010C940F230C94E9220C940401C9
:100070000C9404010C9404010C9404010C940401EC
:100080000C9404010C9404010C9404010C940401DC
:100090000C9404010C9404010C9404010C940401CC
:1000A0000C9404010C9404010C9404010000000061
:1000B000240027002A002D00300000000000250049
:1000C00028002B002E003100000000002300260035
:1000D00029002C002F000404040404030405020278
:1000E00002020403020202020606060606060404D1
:1000F0000202020404040802011040804010204063
:10010000804080080204018040201002011080100D
:10011000204040200000000200090F0000030401FD
:10012000000C0000000000000000000000000000C3
:10013000000000070605040100080A0B0C0D090861
:100140000B0002020200000904000001020200008C
:1001500005240010010524010101042402060524E0
:100160000600010705810310004009040100020A8E
:10017000000000070502024000000705830240005E
:10018000000403090412010002EF0201404123367A
:100190008000010102030141726475696E6F204C99
:1001A0004C430041726475696E6F204C656F6E61DF
:1001B00072646F001A25C52C11241FBECFEFDAE040
:1001C000DEBFCDBF14E0A0E0B1E0EEEBFBE602C085
:1001D00005900D92A834B107D9F727E0A8E4B4E060
:1001E00001C01D92A339B207E1F710E0CBEDD0E0DA
:1001F00004C02197FE010E94F032CA3DD107C9F721
:100200000E940B270C94D2350C9400001F93CF93BF
:10021000DF93182FC0918605D09187058A3041F46D
:10022000E881F9810190F081E02D6DE0CE01099522
:10023000E881F9810190F081E02D612FCE010995CF
:1002400021E030E0019711F430E020E0C901DF91B6
:10025000CF911F910895CF93DF93C0918605D091E0
:100260008705E881F9810084F185E02DCE010995AB
:10027000892BB9F3E881F9810284F385E02DCE0161
:10028000DF91CF910994FC01A089B18982E08C9320
:10029000A485B5851C92A685B7858FEC8C93108EAE
:1002A000A489B58986E08C93A289B3898C918061F9
:1002B0008C93A289B3898C9188608C93A289B3892D
:1002C0008C9180688C930288F389E02D80818F7DEA
:1002D00080830895E82FF0E0EE0FFF1FE25FFE4FEE
:1002E000718360838230D9F028F4882341F0813013
:1002F00071F008958330D9F0843009F10895809128
:1003000069008C7F826080936900E89A08958091EB
:100310006900837F886080936900E99A08958091DD
:1003200069008F7C806280936900EA9A08958091C9
:1003300069008F73806880936900EB9A08958091BB
:100340006A008F7C806280936A00EE9A0895FC01B7
:100350008091F204882311F13FB7F89482E08093F2
:10036000E9002091F200822F90E01816190614F48B
:1003700081E090E0882339F0289844E64093F10426
:100380004091F1004083222339F02091F2002111A5
:1003900003C02BE62093E8003FBF08958FEF9FEF47
:1003A0000895109281001092850010928400EFE66B
:1003B000F0E080818D7F80838FEF90E090938900C3
:1003C0008093880090938B0080938A001092800025
:1003D0001092F00408952FB7F89483E08093E90019
:1003E0009091E800892F807295FF04C09091F200EF
:1003F00080E4891B2FBF08958091E80481110DC00E
:1004000082E08093E40484E08093E5041092E704A2
:100410001092E60481E08093E80484EE94E008956D
:100420004091DE045091DF042091DC043091DD0422
:1004300042175307B4F49091E8009570E1F390915E
:10044000E80092FD19C08093F1008091DE04909144
:10045000DF0401968F739927892B19F48EEF80930F
:10046000E8008091DE049091DF0401969093DF0410
:100470008093DE0481E0089580E00895DF92EF929A
:10048000FF920F931F93CF93DF93D82E8A01EB0136
:100490007B01E40EF51ECE15DF0559F0D7FE12C024
:1004A000FE0184910E94100221968111F4CF0FEF7A
:1004B0001FEFC801DF91CF911F910F91FF90EF9037
:1004C000DF9008958881EECF0F931F93CF93DF9332
:1004D0001F92CDB7DEB782E0898342E450E06FE33C
:1004E00071E080E80E943E020E94FC01DC0112964D
:1004F0000D911C910115110589F0D801ED91FC9128
:100500000280F381E02DBE016F5F7F4FC801099526
:1005100097FD04C0F80100851185ECCF89810F900B
:10052000DF91CF911F910F910895615030F020918C
:10053000F100FC0120830196F8CF289884E680938F
:10054000F1040895DC01ED91FC910190F081E02D22
:100550000994AF92BF92CF92DF92EF92FF920F93E6
:100560001F93CF93DF936C017B018B01040F151F49
:10057000EB015E01AE18BF08C017D10759F06991B1
:10058000D601ED91FC910190F081E02DC601099515
:10059000892B79F7C501DF91CF911F910F91FF90C2
:1005A000EF90DF90CF90BF90AF900895CF93C1E0D0
:1005B00020E030E0A901FC016789708D818D928D6A
:1005C0000E949130811101C0C0E08C2FCF9108951D
:1005D000FC01538D448D252F30E0842F90E0821B49
:1005E000930B541710F0CF96089501970895FC01CE
:1005F000918D828D981761F0A28DAE0FBF2FB11D26
:100600005D968C91928D9F5F9F73928F90E008957D
:100610008FEF9FEF0895FC01918D828D981731F037
:10062000828DE80FF11D858D90E008958FEF9FEF8B
:100630000895FC01918D228D892F90E0805C9F4F61
:10064000821B91098F739927089584E296E00E9496
:10065000190321E0892B09F420E0822F089580E01E
:1006600090E0892B29F00E94250381110C94000051
:100670000895FC01A48DA80FB92FB11DA35ABF4F37
:100680002C91848D90E001968F739927848FA68991
:10069000B7892C93A089B1898C9182748C93938DA6
:1006A000848D981306C00288F389E02D80818F7DA8
:1006B00080830895EF92FF920F931F93CF93DF9360
:1006C000EC0181E0888F9B8D8C8D981319C0E8898F
:1006D000F989808185FF14C09FB7F894EE89FF895E
:1006E0006083E889F9898081827480839FBF81E07B
:1006F00090E0DF91CF911F910F91FF90EF900895BF
:10070000F62E0B8D10E00F5F1F4F0F731127E02E99
:100710008C8D8E110CC00FB607FCFACFE889F989D1
:10072000808185FFF5CFCE010E943903F1CFEB8D9B
:10073000EC0FFD2FF11DE35AFF4FF0829FB7F894A5
:100740000B8FEA89FB8980818062CFCFCF93DF93C3
:10075000EC01888D8823B9F0AA89BB89E889F989D9
:100760008C9185FD03C0808186FD0DC00FB607FC0E
:10077000F7CF8C9185FFF2CF808185FFEDCFCE0141
:100780000E943903E9CFDF91CF910895CF93DF9392
:100790001F92CDB7DEB76983DC01ED91FC91028039
:1007A000F381E02D41E050E0BE016F5F7F4F09957E
:1007B0000F90DF91CF91089583E08093E9008091BD
:1007C000F200882319F08AE38093E80008950E94DC
:1007D000EB0190E00895CF93DF931F92CDB7DEB782
:1007E000FC018485958597FD08C02FEF3FEF358785
:1007F00024870F90DF91CF910895CE0101960E943A
:10080000A701019719F4898190E0F3CF8FEF9FEF53
:10081000F0CF0F931F93CF93DF931F92CDB7DEB727
:100820008C01FC018485958597FF0BC0CE01019654
:100830000E94A701019771F4898190E0F8019587E2
:100840008487F801848595850F90DF91CF911F9162
:100850000F9108958FEF9FEFF1CFFC01848595856F
:1008600097FD0BC09FB7F89482E08093E9008091D8
:10087000F2009FBF90E0019608959FB7F89482E040
:100880008093E9008091F2009FBF90E0089581502D
:100890008F3008F047C0E82FF0E0EF5AFB4F0C9480
:1008A000F0326E047204600466046A0492049204D6
:1008B000920475047B047F048304890492048D04EC
:1008C000809180008F7780938000089580918000D0
:1008D0008F7DF9CF80918000877FF5CF84B58F77AA
:1008E00084BD089584B58F7DFBCF809190008F7774
:1008F000809390000895809190008F7DF9CF809132
:100900009000877FF5CF8091C0008F778093C000E3
:1009100008958091C0008F7DF9CF8091C200877FBC
:100920008093C2000895CF93DF93282F30E0F90120
:10093000EC5EFE4F8491F901EB50FF4FD491F90129
:10094000EA52FF4FC491CC23A1F081110E944704C9
:10095000EC2FF0E0EE0FFF1FE853FF4FA591B4918D
:10096000EC91ED2381E090E009F480E0DF91CF91FC
:10097000089580E090E0FACF1F93CF93DF93282F64
:1009800030E0F901EC5EFE4F8491F901EB50FF4F2E
:10099000D491F901EA52FF4FC491CC23A9F0162F4C
:1009A00081110E944704EC2FF0E0EE0FFF1FE65488
:1009B000FF4FA591B4918FB7F894EC91111108C035
:1009C000D095DE23DC938FBFDF91CF911F910895E7
:1009D000DE2BF8CFCF93DF9390E0FC01EB50FF4F7D
:1009E00024918A529F4FFC0184918823D1F090E09A
:1009F000880F991FFC01E455FF4FA591B491FC01AC
:100A0000E654FF4FC591D491623071F49FB7F894CA
:100A10003C91822F809583238C93E8812E2B288311
:100A20009FBFDF91CF9108958FB7F894EC912E2B53
:100A30002C938FBFF6CF3FB7F89480918B049091A1
:100A40008C04A0918D04B0918E0426B5A89B05C09E
:100A50002F3F19F00196A11DB11D3FBFBA2FA92F3D
:100A6000982F8827BC01CD01620F711D811D911D3A
:100A700042E0660F771F881F991F4A95D1F70895A6
:100A80008F929F92AF92BF92CF92DF92EF92FF929E
:100A90004B015C010E941B056B017C010E941B0540
:100AA0006C197D098E099F09683E73408105910587
:100AB000A8F321E0821A9108A108B10888EEC80EB7
:100AC00083E0D81EE11CF11C81149104A104B1043F
:100AD00029F7FF90EF90DF90CF90BF90AF909F905D
:100AE0008F9008958F929F92AF92BF92CF92DF9294
:100AF000EF92FF920F931F93CF93DF936C017B01D3
:100B00008A0180910D01882309F45CC08091F20470
:100B1000882309F457C08091E20480FF05C08091CA
:100B2000E00082608093E000E801B12C8AEFA82EFB
:100B300093E0892E2AE3922E209711F4BB20D9F15D
:100B40000E94EB0181110AC0AA94AA20D9F161E0A8
:100B500070E080E090E00E944005EECF8C171D060B
:100B600011F00CF08C2F9FB7F8948092E90020913F
:100B7000E80025FD02C09FBFDFCF282F30E0C21B59
:100B8000D30BF701815020F041914093F100FACF4F
:100B9000E20EF31EBB2021F09092E800B12CEBCFC7
:100BA0008091E80085FDE7CF9092E800BB24B394E4
:100BB000209709F3F3CF5D9884E68093E304101641
:100BC00011063CF081E090E0F6019383828310E00F
:100BD00000E0C801DF91CF911F910F91FF90EF903E
:100BE000DF90CF90BF90AF909F908F900895089521
:100BF0000F931F93FC0184819581A681B781892B76
:100C00008A2B8B2BE9F08FB7F89440918704509191
:100C100088046091890470918A048FBF80819181DA
:100C2000A281B381481B590B6A0B7B0B81E00481C5
:100C3000158126813781401751076207730708F431
:100C400080E01F910F9108950F931F93EFB7F894D1
:100C500000918704109188042091890430918A04BE
:100C6000EFBFFC01008311832283338344835583C8
:100C7000668377831F910F910895FC01248135814C
:100C8000232B11F01582148208958F929F92AF92B8
:100C9000BF92CF92DF92EF92FF92CF93DF93EC015E
:100CA000E881F9810484F585E02D09958823B9F15F
:100CB000E881F9810284F385E02DCE0109956B016D
:100CC0007C016F89788D898D9A8D9B01AC010E9482
:100CD000F5319B01AC0160E070E0CB010E94243053
:100CE0004B015C016F8D78A189A19AA190589B015D
:100CF000AC010E9425309B01AC01C501B4010E94EA
:100D000096300E940831072E000C880B990BC60EF6
:100D1000D71EE81EF91ECB86DC86ED86FE86DF91A7
:100D2000CF91FF90EF90DF90CF90BF90AF909F90CA
:100D30008F900895CF93DF93EC018F819885DC012C
:100D4000ED91FC910280F381E02D09951F8E18A290
:100D500019A21AA21F8A188E198E1A8E1A8619863F
:100D600061E08D810E94BC0460E08C810E94BC0423
:100D7000EFA1F8A5309719F0DF91CF910994DF9199
:100D8000CF910895FC0181850895DC011296ED91C3
:100D9000FC91648175818681978108952F923F929D
:100DA0004F925F926F927F928F929F92AF92BF927B
:100DB000CF92DF92EF92FF920F931F93CF93DF9327
:100DC000EC01EA80FB80F70184819581A681B781DF
:100DD0008A019B01081B190B2A0B3B0BD901C80187
:100DE0004B875C876D877E8701E010E01816190637
:100DF0001A061B0614F010E000E08827B7FD839563
:100E00009927AA27BB27081B190B1A870987D7011F
:100E10001A96CD90DC900C9DB0010D9D700D1C9D1F
:100E2000700D112490E080E00E943E316B8F7C8F2A
:100E30008D8F9E8FB60190E080E00E943E314B0185
:100E40005C01F7016085718590E080E00E943E3191
:100E500020E030E04AE754E40E9496309B01AC0168
:100E6000C501B4010E9496304B015C01B801110F1D
:100E7000880B990B0E9440319B01AC01C501B40164
:100E80000E94F5316F8F78A389A39AA3D7011C968E
:100E90008C9100E011E0882311F001E010E060E0A7
:100EA0008C810E94BC0489859A8597FF102F612F41
:100EB0008E810E94BC0460E08D810E94BC042FB72B
:100EC000F8948091870490918804A0918904B0914E
:100ED0008A042FBF8F87988BA98BBA8BCF88D88C29
:100EE000E98CFA8C20E030E0A901C701B6010E942C
:100EF000F03146015701181624F0B7FAB094B7F84C
:100F0000B0944BA05CA06DA07EA00F811885F80165
:100F100020803180A5019401C301B2010E94F0310B
:100F2000181674F569857A85072E000C880B990BC5
:100F30000E944031A30192010E94F5316B8B7C8BA2
:100F40008D8B9E8B6F8B788F898F9A8FD101ED91CE
:100F5000FC919E01B301A201C801DF91CF911F91C5
:100F60000F91FF90EF90DF90CF90BF90AF909F9048
:100F70008F907F906F905F904F903F902F9009944B
:100F8000CB8ADC8AED8AFE8AD1011496ED91FC9120
:100F9000B501A401C801DF91CF911F910F91FF907E
:100FA000EF90DF90CF90BF90AF909F908F907F9009
:100FB0006F905F904F903F902F9009941F93CF9325
:100FC000DF93EC01162F8C810E94BC04EA81FB8127
:100FD0004481558166817781112391F089859A85B5
:100FE000092E000CAA0BBB0B840F951FA61FB71F61
:100FF00084839583A683B783DF91CF911F91089552
:101000008B859C85AD85BE85481759076A077B0788
:1010100099F7E881F9810280F381E02DCE01DF911B
:10102000CF911F910994CF92DF92EF92FF92CB0163
:10103000BA019A01AC010E9425306B017C0120E0CD
:1010400034E244E75BE40E94F03118161CF120E022
:1010500030E044E753E4C701B6010E94913087FFB6
:1010600006C0C12CD12C94E7E92E93E4F92EA701F8
:10107000960160E074E284E79BE40E9496300E944F
:101080000F317093010160930001FF90EF90DF90AA
:10109000CF900895C12C84E2D82E84E7E82E8BE40B
:1010A000F82EE5CF30937604209375041092F00467
:1010B0000E94130880910001909101019093890092
:1010C0008093880010928500109284001092800016
:1010D00089E080938100EFE6F0E080818260808388
:1010E00008950C94D101EF92FF920F931F93CF9329
:1010F000DF93EC017B018A01E881F9810480F581AD
:10110000E02D09958017910758F0A801B701CE018D
:10111000DF91CF911F910F91FF90EF900C9472058A
:1011200090E080E0DF91CF911F910F91FF90EF90C1
:101130000895089540E757E160E070E08EE795E09C
:101140000C9424060895CF93DF93EC0140E45FE113
:1011500060E070E08EE795E00E942406188619860C
:101160001A861B86DF91CF9108950895CF93DF9360
:10117000EC018BEF9AE49983888323E02A832B8305
:101180002DE0EEE1F1E0DE01149601900D922A953A
:10119000E1F72AE0298B28EB2A8B2BE02B8B1C8A8A
:1011A0001D8A1E8A1F8A188E198E1B8E1A8E20E3A6
:1011B0002C8F25E72D8F1E8E1F8E18A219A21AA222
:1011C0001BA29DA38CA3DF91CF910895CF93DF93B2
:1011D000C0918A05D0918B0520E030E0A9016F898C
:1011E000788D898D9A8D0E94F0311816DCF4E88193
:1011F000F9810284F385E02DCE010995A0918A053D
:10120000B0918B05AB01BC01405E5C4F6F4F7F4FCF
:10121000ED91FC9111970084F185E02DCD01DF91D6
:10122000CF910994DF91CF910895CF93DF9380916F
:101230008F04811128C0C0918A05D0918B0520E0D0
:1012400030E0A9016F89788D898D9A8D0E94913047
:1012500087FF19C081E080938F04EA81FB8180E2DF
:1012600093E0A0E0B0E084839583A683B783E88110
:10127000F9810084F185E02D40E050E0BA01CE0113
:10128000DF91CF910994DF91CF910895CF93DF93B0
:10129000EC01E881F9810288F389E02D09958F3FFF
:1012A000980731F02D813E812F5F3F4F3E832D8384
:1012B000DF91CF9108958FEF9FEF089560E070E088
:1012C000CB01089590E080E00895FF920F931F9363
:1012D000CF93DF938C01EB016F3F7607B9F0F62EC9
:1012E000EAE06E1306C06DE0F801808991890E94E2
:1012F000A2026F2DF801808991890E94A202CE017D
:10130000DF91CF911F910F91FF900895D0E0C0E041
:10131000F6CF7F928F929F92AF92BF92CF92DF9241
:10132000EF92FF920F931F93CF93DF938C014901AC
:101330005A01EB01C12CD12C7601C814D904EA045E
:10134000FB04B4F479908AE0781206C06DE0F801ED
:10135000808991890E94A202672DF8018089918974
:101360000E94A202FFEFCF1ADF0AEF0AFF0AE5CFC1
:10137000C501B401DF91CF911F910F91FF90EF90C4
:10138000DF90CF90BF90AF909F908F907F90089507
:10139000CB010895CF93DF93EC0188899989DC0113
:1013A000ED91FC910084F185E02D0995892BA9F33D
:1013B00088899989DC01ED91FC910284F385E02D07
:1013C000DF91CF910994CF93DF93EC0188899989BC
:1013D000DC01ED91FC910084F185E02D0995892BCC
:1013E000A9F388899989DC01ED91FC910484F58544
:1013F000E02DDF91CF9109948F929F92AF92BF928F
:10140000CF92DF92EF92FF920F931F93CF93DF93D0
:101410008C0149015A01EB01C12CD12C7601D80174
:1014200050968D919C91DC01ED91FC910284F385A5
:10143000E02D09958F3F61F0C814D904EA04FB043C
:101440003CF48993BFEFCB1ADB0AEB0AFB0AE7CF28
:10145000C701B601DF91CF911F910F91FF90EF90DF
:10146000DF90CF90BF90AF909F908F900895DC0158
:1014700050968D919C91DC01ED91FC910084F18559
:10148000E02D099490E080E0089590E080E00895D8
:10149000FC018789908D009739F0248935892817B8
:1014A000390728F4308F278B6FEF7FEF08C0019743
:1014B0006F3F760731F4908F878B70E060E0CB014F
:1014C0000895A089B189A80FB91F9B012150310946
:1014D0002F3F310538F4262F3C91321305C0908FF1
:1014E000878BEDCF20E0F8CF278524FFDDCF908FCD
:1014F000878B6C93E4CFCF93DF93EC01E881F98184
:101500000288F389E02D09958F3F980731F02F89E4
:10151000388D2F5F3F4F388F2F8BDF91CF910895FC
:10152000DC0157968D919C91589754962D913C9142
:1015300055978217930740F45096ED91FC91E80F70
:10154000F91F808190E008958FEF9FEF0895EF924B
:10155000FF92CF93DF93FC01DB0160E070E0CB01F1
:10156000E788F08CC489D589EC16FD06A8F46217CB
:1015700073078407950784F4C089D189CE0DDF1DD8
:10158000C881CD936F5F7F4F8F4F9F4FC789D08D9D
:101590002196D08FC78BE4CFDF91CF91FF90EF9052
:1015A0000895FC01848995892789308D821B930BCE
:1015B0000895242FDC01ED91FC910084F185E02D4C
:1015C00041E009940895089590E080E008951F9304
:1015D000CF93DF93EC01162F8F8580FF0BC0E8813E
:1015E000F9810084F185E02D20E144E070E060E0C5
:1015F000CE010995EB85FC85812F90E02D853E85F8
:10160000E217F30758F410832B853C852F5F3F4F7B
:101610003C872B87DF91CF911F910895E881F98155
:10162000028CF38DE02DBC01CE01DF91CF911F9193
:1016300009948F929F92AF92BF92CF92DF92EF92D6
:10164000FF920F931F93CF93DF938C0149015A01AF
:10165000EB01C12CD12C7601C814D904EA04FB0497
:1016600064F46991C8010E94E70A019641F08FEF86
:10167000C81AD80AE80AF80AEFCF75016401C70151
:10168000B601DF91CF911F910F91FF90EF90DF9006
:10169000CF90BF90AF909F908F9008958F929F9220
:1016A000AF92BF92EF92FF920F931F93CF93DF936E
:1016B000EC017B0149015A01E881F98136970190DB
:1016C000F081E02DE80FF91F03891489D8011F96D6
:1016D0008C911F9780FF0BC0ED91FC910084F185E8
:1016E000E02D20E144E070E060E0C8010995D801F8
:1016F000ED91FC91008CF18DE02DA5019401B701D5
:10170000C80109956F3F7F4F79F4E881F9813697D9
:101710000190F081E02DEC0FFD1F85812389348934
:10172000232B71F082608583CE01DF91CF911F91D1
:101730000F91FF90EF90BF90AF909F908F90089582
:101740008360F1CFFB012481358150E040E060816E
:1017500071810C944E0B0895CF93DF93EC01E881D7
:10176000F98136970190F081E02DE80FF91F838908
:101770009489DC01ED91FC910484F585E02D0995B7
:10178000019659F4E881F98136970190F081E02DB6
:10179000EC0FFD1F858181608583CE01DF91CF91A4
:1017A0000895CF93DF93EC01E881F981369701909A
:1017B000F081E02DE80FF91F838994890E94E70AE0
:1017C000019679F4E881F98136970190F081E02D56
:1017D000EC0FFD1F858123893489232B31F0826032
:1017E0008583CE01DF91CF9108958360F9CF4F9229
:1017F0005F926F927F928F929F92AF92BF92CF92A1
:10180000DF92EF92FF920F931F93CF93DF93EC0140
:101810008B0129013A01E881F98136970190F08125
:10182000E02D3296E80FF91FC284D384E484F58456
:10183000C418D508E608F708818192818E7099272F
:10184000049791F446015701181419041A041B0453
:10185000B4F1D701C601F7FE03C080E090E0DC01DF
:10186000C81AD90AEA0AFB0AA3019201B801CE01FB
:101870000E944E0BE881F98136970190F081E02DAE
:10188000EC0FFD1F838194818E709927029749F593
:10189000E881F98136970190F081E02D1C141D0438
:1018A0001E041F04F4F481E0C81AD108E108F1080D
:1018B000EC0FFD1F6089CE010E94D10BE9CF81E0C2
:1018C000881A9108A108B108E881F981369701903A
:1018D000F081E02DEC0FFD1F6089CE010E94D10B3D
:1018E000B3CFE881F981369780819181C80FD91FE4
:1018F0001C861D861E861F86DF91CF911F910F913A
:10190000FF90EF90DF90CF90BF90AF909F908F901F
:101910007F906F905F904F90089521E0DC012C93B1
:10192000DB01ED91FC91369780819181680F791FE1
:10193000FB0181899289009711F00C94AC0B0895FA
:10194000FF920F931F93CF93DF931F92CDB7DEB714
:101950008C01F62EBC01CE0101960E948D0CD8019F
:10196000ED91FC9136970190F081E02DE00FF11F91
:10197000838184FF29C024E030E040E050E06EE243
:1019800073E0F11006C025E030E040E050E063E392
:1019900073E0C8010E94F70BD801ED91FC913697D6
:1019A0000190F081E02DE00FF11F8381948196FF7B
:1019B00003C0C8010E94AC0BC8010F90DF91CF910A
:1019C0001F910F91FF90089521E030E040E050E03A
:1019D00069E373E0F110DDCF65E174E0DACFFF92E7
:1019E0000F931F93CF93DF931F92CDB7DEB78C0178
:1019F000F62EBC01CE0101960E948D0C6F2DC80100
:101A00000E94D10BC8010F90DF91CF911F910F91D0
:101A1000FF900895DC01ED91FC9136970190F081E3
:101A2000E02DE80FF91F81ED91E0918380838BED2C
:101A300091E097838683089521ED31E0FC013183A5
:101A400020832BED31E0378326830895FB0120812D
:101A50003181FC0131832083FB0142815381265077
:101A60003109F90120813181820F931FFC015183DB
:101A7000408308952DE032E0FC013183208327E18B
:101A800032E0318F208F61E072E00C94260DDC0192
:101A9000ED91FC91369720813181820F931F0C9438
:101AA0003A0D0895DC01ED91FC9136970190F0819B
:101AB000E02DE80FF91F8DEB91E09183808387EC97
:101AC00091E09383828308952DEB31E0FC01318313
:101AD000208327EC31E0338322830895FB012081AA
:101AE0003181FC0131832083FB01428153812650E7
:101AF0003109F90120813181820F931FFC0151834B
:101B00004083089529E232E0FC013183208323E3FE
:101B100032E0358B248B6DE172E00C946E0DDC01AC
:101B2000ED91FC91369720813181820F931F0C94A7
:101B3000820D0895FC0181E290E0948383831582F5
:101B40001682178286E090E0A0E0B0E0808791875F
:101B5000A287B387148615861686178683EB91E0D5
:101B60009183808380E2808B128A118A748B638BCD
:101B7000158A08950F931F93CF93DF931F92CDB7CC
:101B8000DEB78C01BC01CE0101960E948D0C6AE08B
:101B9000C8010E94D10BC8010E94AC0BC8010F9074
:101BA000DF91CF911F910F9108958038C9F08A3845
:101BB00011F580911E0690911F06E0911506F09197
:101BC00016060280F381E02D0190F081E02D608106
:101BD00070E0DC01ED91FC910088F189E02D099421
:101BE00080911E0690911F06DC01ED91FC91068408
:101BF000F785E02DF4CF089508950895CF93DF93EE
:101C0000409182055091830560918405709185050E
:101C1000452B462B472BC1F0EC018EE795E00E9447
:101C2000F805882389F0109282051092830510929E
:101C3000840510928505E881F9810488F589E02DF5
:101C4000CE01DF91CF910994DF91CF910895CF928A
:101C5000DF92EF92FF920F931F93FB01DC0100E0F4
:101C600010E098016A01F12CE12C0C151D052E05E0
:101C70003F0538F461916D930F5F1F4F2F4F3F4F1A
:101C8000F4CF840F951F1F910F91FF90EF90DF907D
:101C9000CF900895CF93DF93EB0188819981ACE8D1
:101CA000B5E011969C938E932A813B810697EC01B7
:101CB000E881F981E457FA4F3183208312961D920F
:101CC0001D921D921C92159781E290E0948383836C
:101CD00082E995E0948B838B1582158ADF91CF91F1
:101CE0000895DB012D913C911197FC0131832083F4
:101CF00012966D917C9126503109D901ED91FC919C
:101D0000E80FF91F7183608381E290E094838383FD
:101D1000548B438B1582158A0895CF93DF93EC0182
:101D200088E090E09B838A831D821C820E943A2E69
:101D300099838883DF91CF9108950F931F93CF9359
:101D4000DF93EC018C010E5F1F4FB8014D960E948E
:101D50009A0DA80165E971E0CE010E94710E81EA39
:101D600091E0998388838BEA91E09E8F8D8F1E820C
:101D70001D8218861F821A8619861C861B861E865F
:101D80001D86188A1F86198A83EE91E09B838A83B9
:101D9000CE0142960E948D0E1A8E198E1C8E1B8EBD
:101DA00080E1898BDF91CF911F910F9108950F935F
:101DB0001F93CF938C01C62F80917E0481112FC079
:101DC0008CE090E090937A048093790484E090E032
:101DD00090937C0480937B048CE090E00E943A2EE8
:101DE0009093780480937704EFE6F1E0CF018F566B
:101DF0009140A0917704B091780420917B043091B8
:101E00007C048217930740F4A80FB91F109711F0B4
:101E100080818C933196EACF81E080937E04E091BB
:101E20007704F091780480917B0490917C048E0F6C
:101E30009F1FE817F90758F421912C13FACF80E27D
:101E4000C8276DE7F801808191810E94A2026C2F62
:101E5000F80180819181CF911F910F910C94A20282
:101E6000CF93DF93FC01C281D38184E090E00E9494
:101E70003A2EFC01D383C28329E832E031832083E8
:101E8000988B8F87DF91CF910895CF93DF93FC01DB
:101E9000C281D38184E090E00E943A2EFC01D3837A
:101EA000C2832DEB32E031832083988B8F87DF91C3
:101EB000CF9108950F931F93CF93DF93EC018B0184
:101EC00040E25EE460E070E08EE795E00E94240668
:101ED0000230110581F40A80DB81C02D84E090E09E
:101EE0000E943A2EFC01D383C2832FE632E0318375
:101EF0002083988B8F87DF91CF911F910F91089549
:101F0000CF93DF93FC01C281D38184E090E00E94F3
:101F10003A2EFC01D383C28329E832E03183208347
:101F2000988B8F87DF91CF910895CF93DF93EC014A
:101F30000E94FE0DCE0104960E94F805882381F0D0
:101F40000A80DB81C02D84E090E00E943A2EFC01E3
:101F5000D383C2832DEB32E031832083988B8F872C
:101F6000DF91CF910895CF93DF93FC01C281D3819C
:101F700084E090E00E943A2EFC01D383C2832DEBD3
:101F800032E031832083988B8F87DF91CF91089542
:101F9000CF93DF93FC01C281D38184E090E00E9463
:101FA0003A2EFC01D383C28329E832E031832083B7
:101FB000988B8F87DF91CF9108950C94D62ECF9375
:101FC000DF93D091E605C091E7059093E9058093F2
:101FD000E805880F991F0E943A2E8093E60590939A
:101FE000E7052091EA053091EB05FC01AD2FBC2FF0
:101FF00090E080E02817390759F0309729F04D918B
:102000005C91119751834083019632961296F2CFDC
:102010008D2F9C2FDF91CF910C94D62E0F931F9371
:10202000CF93DF93EC018B012091E8053091E90516
:102030002817390730F408962817390710F40E943A
:10204000DF0F8091EA059091EB059C01220F331F71
:10205000E091E605F091E705E20FF31F8C179D076D
:1020600050F4309729F0D8012D913C913183208391
:1020700001963296F3CFD093EB05C093EA05DF913A
:10208000CF911F910F9108950F931F93CF93DF93DB
:1020900000D0CDB7DEB79A83898386EE95E00E94A3
:1020A0003D0610E000E02091EF053091F0050217A9
:1020B0001307B4F42091EA053091EB05C9010196AC
:1020C0002817390740F4BE016F5F7F4F0E940E1042
:1020D0000F5F1F4FE8CF1092EB051092EA05F8CF83
:1020E00089819A81289FA001299F500D389F500D0A
:1020F00011245093EE054093ED059093F6058093DF
:10210000F5050F900F90DF91CF911F910F910895DA
:102110000C94D62E0C94D62E0C94D62E0C94D62E2F
:102120000C94D62E0F931F93CF93DF93EC01CB012A
:10213000088119817B836A830E943A2E9983888360
:10214000F801CF01801B910B2C813D8182179307F1
:1021500050F4A881B981A80FB91F109711F08081A0
:102160008C933196EECFC801DF91CF911F910F91E3
:102170000C94D62EEF92FF920F931F93CF93DF9381
:10218000EC018C819D818617970740F57A018B01C0
:102190008A819B818617970740F4685F7F4F861777
:1021A000970718F4CE010E9492108C819D818017B0
:1021B000910758F4E881F981E80FF91F309719F079
:1021C000D7012C9120830196F2CF1D830C83DF91E0
:1021D000CF911F910F91FF90EF90089568177907A5
:1021E000B0F77D836C83F3CFAF92BF92CF92DF9233
:1021F000EF92FF920F931F93CF93DF931F92CDB770
:10220000DEB78C0159016A01AC14BD04D1F1F601AD
:1022100081916F018983F801808191817B01E81AA6
:10222000F90A648175816F5F7F4FAE014F5F5F4F29
:10223000C8010E94BA10F80124813581215031096A
:10224000F80180819181E216F30668F4A9014150FA
:102250005109FC01E40FF51F6081820F931FFC01FF
:1022600060839A01EDCF29818E0D9F1DFC01208393
:10227000FFEFEF1AFF0AF801608171816E0D7F1D7B
:10228000C3CF0F90DF91CF911F910F91FF90EF90EF
:10229000DF90CF90BF90AF900895EF92FF920F9391
:1022A0001F93CF93DF931F92CDB7DEB78C017B01D5
:1022B0000E943D06F701648175811982AE014F5F6E
:1022C0005F4FC8010E94BA10F701448155816081B7
:1022D0007181F801808191810E94270E0F90DF911A
:1022E000CF911F910F91FF90EF900895CF93DF93BF
:1022F000EC0142966817790711F00E944D111A8E71
:10230000198E898981FF13C08E899F899C8F8B8F3D
:10231000E881F981369780819181C80FD91F8B8917
:102320009C89892B39F01D82DF91CF9108951C8EF5
:102330001B8EEECF81E08D83F7CFEF92FF920F934C
:102340001F93CF93DF931F92CDB7DEB7FC01822F8F
:102350008870922F90712871283131F4423009F041
:102360003FC08FEF9FEF23C0413049F58B01248997
:10237000358920173107A8F3882311F0108F078BB8
:102380009923A1F07F011982AE014F5F5F4FB80121
:10239000CF0140960E94BA10F70184899589278958
:1023A000308D8217930710F4908F878BC8010F90A0
:1023B000DF91CF911F910F91FF90EF9008954230E0
:1023C00089F404891589060F171F911102C010E0C6
:1023D00000E0882361F20789108D060F171FC7CF11
:1023E000413021F204891589F8CFAB01FC016481E9
:1023F00075816F5F7F4F0C94BA10EF92FF920F932D
:102400001F93CF93DF931F92CDB7DEB78C017B0173
:102410006F3F760779F1D8011F968C911F9784FF43
:102420002CC059968D919C915A9754962D913C9120
:10243000559782179307B8F06983BE016F5F7F4F8E
:10244000C80140960E94F511F801818D928D019688
:10245000928F818FC7010F90DF91CF911F910F91C4
:10246000FF90EF9008955096ED91FC91E80FF91FC1
:102470006083EACFF12CE12CEDCFEE24EA94FE2C20
:10248000E9CF0F931F93CF93DF93EC01CB0108812A
:1024900019817B836A830E943A2E99838883F8018D
:1024A000CF01801B910B2C813D818217930750F443
:1024B000A881B981A80FB91F109711F080818C9362
:1024C0003196EECFC801DF91CF911F910F910C94FF
:1024D000D62EEF92FF920F931F93CF93DF93EC01D1
:1024E0008B017A018A819B818617970740F4685F88
:1024F0007F4F8617970718F4CE010E9441128C81F6
:102500009D818017910758F4E881F981E80FF91F40
:10251000309719F0D7012C9120830196F2CF1D83BB
:102520000C83DF91CF911F910F91FF90EF90089551
:10253000AF92BF92CF92DF92EF92FF921F93CF9311
:10254000DF93EC017B016C0184E0C80ED11CC60155
:102550000E943D0619E01150A9F057018FEFA81A0B
:10256000B80A88859985BC016F5F7F4F86179707EA
:1025700030F4A701C6010E9469127501ECCF1986DB
:102580001886FBCFDF91CF911F91FF90EF90DF90E6
:10259000CF90BF90AF900895CF93DF93EC010E944E
:1025A000820DCE01DF91CF910C94D62EDC01ED91FE
:1025B000FC91369720813181820F931F0C94CC12AD
:1025C000CF93DF93EC010E943A0DCE01DF91CF91C2
:1025D0000C94D62EDC01ED91FC913697208131814F
:1025E000820F931F0C94E0120C94D62E0C94D62ECE
:1025F000DC01ED91FC91369720813181820F931F90
:102600000C94F6120C94D62E0C94D62EDC01ED917F
:10261000FC91369720813181820F931F0C94041313
:102620000C94D62EFC01808191810C94D62E23EE41
:1026300031E0FC013183208340960C941213CF9338
:10264000DF93EC010E941713CE01DF91CF910C9420
:10265000D62ECF93DF93EC0181EA91E099838883B2
:102660008BEA91E09E8F8D8FCE0102960E94171308
:1026700065E971E0CE01DF91CF910C946E0DDC0124
:10268000ED91FC91369720813181820F931F0C943C
:102690002913AF92BF92CF92DF92EF92FF920F93E6
:1026A0001F93CF93DF9300D000D000D01F92CDB7FF
:1026B000DEB78C016B01DC0118968D919C919E8395
:1026C0008D8308969C838B830E943A2E9A838983FC
:1026D00090E080E02D813E818217930788F4E981A4
:1026E000FA81E80FF91F309749F0D80114962D911F
:1026F0003C91D901A80FB91F2C9120830196EACFF4
:10270000F601E480F580FBE0EF0EF11C6EE7D801E6
:102710008D919C910E94A2026F2DC8010E94D70E3C
:102720006E2DC8010E94D70E60E0C8010E94D70E2E
:10273000F801F684F394FF20F1F0F6866F2DC801BE
:102740000E94D70EF801A480B580D80114968D910F
:102750009C91159718962D913C91820F931FA81666
:10276000B90670F4F501E1905F016E2DC8010E9479
:10277000D70EFE0CEACF81E08687FF24F394DECFEC
:1027800060E0C8010E94D70ED601AD90BC90F60162
:102790008081918124813581820F931FA816B9060B
:1027A00048F4D501ED905D016E2DC8010E94D70E51
:1027B000FE0CEDCF6F2D6095C8010E94D70ECE01A3
:1027C00001960E94121327960FB6F894DEBF0FBE33
:1027D000CDBFDF91CF911F910F91FF90EF90DF90D0
:1027E000CF90BF90AF900895EF92FF920F931F93F9
:1027F000CF93DF9300D000D000D01F92CDB7DEB7CB
:102800008C01DC011296ED90FC9080E190E09C83BD
:102810008B8388E090E09E838D8380E190E00E942E
:102820003A2E9A838983E7E6F1E0CF0187569140FB
:1028300069817A812D813E818217930750F4680F58
:10284000791F6115710519F08081DB018C93319638
:10285000ECCFC7010E949812CE0101960E9412137C
:10286000D8011296ED91FC9181E085870281138158
:10287000F80115821482828193810E943D06D8015D
:1028800016961C92169717961C92179719961C92DB
:102890001E9218978FEF1A968C9340E25EE460E0E8
:1028A00070E08EE795E00E94240627960FB6F89414
:1028B000DEBF0FBECDBFDF91CF911F910F91FF9073
:1028C000EF900895CF93DF93EC010E942913CE017E
:1028D000DF91CF910C94D62EDC01ED91FC913697CF
:1028E00020813181820F931F0C946214EF92FF922A
:1028F0000F931F93CF93DF931F92CDB7DEB78C0159
:102900007B010E948D0EF701648175811982AE01F1
:102910004F5F5F4FC8010E94BA10F8014481558192
:10292000F70160817181F801808191810E94270EF9
:102930000F90DF91CF911F910F91FF90EF9008952D
:102940000F931F93CF93DF93CDB7DEB7EB970FB6FF
:10295000F894DEBF0FBECDBF8C0160E1CE010196C1
:102960000E949D0E6AE3CE0101960E94EF0CB80111
:102970000E94A20B63E20E94EF0C009111061091DD
:102980001206AE01455C5F4FBE016D5E7F4FCE010A
:10299000C4960E947614BE016C5C7F4FC8010E94F1
:1029A0004913CE01C4960E941213AE01455C5F4FDD
:1029B000BE016D5E7F4FCE01C4960E947614BE01AB
:1029C0006C5C7F4F8AEB95E00E94A20B0E94BA0DCF
:1029D000CE01C4960E941213CE0101960E942913C3
:1029E000EB960FB6F894DEBF0FBECDBFDF91CF914F
:1029F0001F910F910895EF92FF920F931F93CF9322
:102A0000DF93CDB7DEB7E4970FB6F894DEBF0FBE05
:102A1000CDBF8C017B0160E1CE0101960E949D0E2D
:102A2000B701695F7F4FCE0101960E94A20BF701AB
:102A300066850E94EF0CAE014C5C5F4FBE016D5E7F
:102A40007F4FC8010E947614CE0101960E9429137F
:102A5000C801E4960FB6F894DEBF0FBECDBFDF917C
:102A6000CF911F910F91FF90EF900895CF92DF9239
:102A7000EF92FF920F931F93CF93DF931F92CDB7E7
:102A8000DEB78C017B016A010E948D0E8FEFC816A4
:102A9000D80611F40E94F632F7018081181684F4EA
:102AA0001982AE014F5F5F4FB601C8010E94BA1094
:102AB000F80144815581B701808191810E94270EE0
:102AC0000F90DF91CF911F910F91FF90EF90DF90CA
:102AD000CF900895AF92BF92CF92DF92EF92FF9284
:102AE0000F931F93CF93DF931F92CDB7DEB77C0177
:102AF0006B01FB0101900020E9F731978F01061B64
:102B0000170BFC01A480B5801982B501600F711FFD
:102B1000AE014F5F5F4F0E94BA10F7018081918133
:102B2000A801B6018A0D9B1D0E94270EC7010F90B8
:102B3000DF91CF911F910F91FF90EF90DF90CF9099
:102B4000BF90AF9008950F931F93CF93DF9300D062
:102B5000CDB7DEB78C0180915E04811107C087E597
:102B600094E00E948D0E81E080935E0487E594E0FE
:102B70000E943D066AE673E087E594E00E946A15CC
:102B8000D8011696ED91FC91179714968D919C9112
:102B900015979C012F5F3F4F15963C932E931497EA
:102BA000E80FF91F80818A838823F1F18C32A1F527
:102BB00064E670E080E090E00E9440058DE089834B
:102BC000BE016F5F7F4F87E594E00E94F511D80149
:102BD0001296ED91FC918081918140915B0450911E
:102BE0005C046091570470915804DC01ED91FC91F4
:102BF0000280F381E02D099548E853E160E070E040
:102C00008EE795E00E94240681E00F900F90DF91FF
:102C1000CF911F910F910895BE016E5F7F4F87E5A1
:102C200094E00E94F511ACCF80E0EFCFCF93DF931B
:102C3000EC0148E853E160E070E08EE795E00E9427
:102C40002406CE01DF91CF910C94A315EF92FF9251
:102C50000F931F93CF93DF931F92CDB7DEB78C01F5
:102C60007B01BC01CE0101960E948D0CF701019001
:102C70000020E9F73197EE19FF099F0150E040E08D
:102C8000B701C8010E94F70BC8010F90DF91CF91E7
:102C90001F910F91FF90EF900895AF92BF92CF9246
:102CA000DF92EF92FF920F931F93CF93DF931F92C8
:102CB000CDB7DEB77C016B010E948D0EF60101904D
:102CC0000020E9F731978F010C191D09F701A48045
:102CD000B5801982B8016A0D7B1DAE014F5F5F4F51
:102CE000C7010E94BA10F70180819181A801B60145
:102CF0008A0D9B1D0E94270E0F90DF91CF911F918F
:102D00000F91FF90EF90DF90CF90BF90AF9008951C
:102D1000CF93DF93CDB7DEB728970FB6F894DEBF19
:102D20000FBECDBFAE01485F5F4F6BE373E0CE01D6
:102D300001960E944D16CE0101960E94A014CE016C
:102D400001960E94121328960FB6F894DEBF0FBEAC
:102D5000CDBFDF91CF910895CF93DF93CDB7DEB78D
:102D600028970FB6F894DEBF0FBECDBFAE01485F07
:102D70005F4F60E473E0CE0101960E944D16CE01D4
:102D800001960E94A014CE0101960E94121328966B
:102D90000FB6F894DEBF0FBECDBFDF91CF9108957F
:102DA0000F931F93CF93DF93CDB7DEB728970FB65E
:102DB000F894DEBF0FBECDBF8C01DC011296ED9101
:102DC000FC911586808191810E944301F801028166
:102DD0001381AE01485F5F4F66E473E0CE01019658
:102DE0000E944D16D8018D919C914D815E81698123
:102DF0007A81DC01ED91FC910280F381E02D09954F
:102E0000CE0101960E94121340EB54E060E070E0A6
:102E10008EE795E00E94240628960FB6F894DEBF50
:102E20000FBECDBFDF91CF911F910F9108950F93EA
:102E30001F93CF93DF931F92CDB7DEB78C018091A4
:102E40006D0481110CC0AE014F5F5F4F6AE473E007
:102E500086E694E00E944D1681E080936D0466E65C
:102E600074E0F801828193810E94491340E45FE19C
:102E700060E070E08EE795E00E94240648EB5BE09E
:102E800060E070E0C80104960E9424060F90DF9174
:102E9000CF911F910F9108950F931F93CF93DF93BD
:102EA0001F92CDB7DEB78C01AE014F5F5F4F61E57A
:102EB00073E00E944D16C8010F90DF91CF911F91D2
:102EC0000F9108950F931F93CF93DF931F92CDB768
:102ED000DEB78C01AE014F5F5F4F6FE573E00E947C
:102EE0004D16C8010F90DF91CF911F910F9108955A
:102EF0000F931F93CF93DF931F92CDB7DEB78C0153
:102F000048EB5BE060E070E08EE795E00E9424060D
:102F100080914F0481110CC0AE014F5F5F4F6AE496
:102F200073E088E494E00E944D1681E080934F04A2
:102F300068E474E0F801828193810E9449130F9044
:102F4000DF91CF911F910F9108950F931F93CF930E
:102F5000DF931F92CDB7DEB78C01AE014F5F5F4F9D
:102F600066E673E00E944D16C8010F90DF91CF9185
:102F70001F910F9108950F931F93CF93DF931F928B
:102F8000CDB7DEB78C01AE014F5F5F4F6DE673E0EA
:102F90000E944D16C8010F90DF91CF911F910F91A4
:102FA00008950F931F93CF93DF931F92CDB7DEB792
:102FB0008C01AE014F5F5F4F64E773E00E944D16D6
:102FC000C8010F90DF91CF911F910F9108950F933A
:102FD0001F93CF93DF931F92CDB7DEB78C01AE0165
:102FE0004F5F5F4F6FE773E00E944D16C8010F906F
:102FF000DF91CF911F910F910895CF92DF92EF92C1
:10300000FF920F931F93CF93DF93CDB7DEB76597F2
:103010000FB6F894DEBF0FBECDBF8C01F42EE52EA7
:10302000D62EC72EBC01CE0145960E948D0CD8012C
:10303000ED91FC9136970190F081E02DE00FF11FAA
:103040008381948185FD5BC086FF42C092FF5AC098
:1030500089E893E0CF92DF92EF92FF929F938F9354
:103060001F9284E18F939E012F5F3F4F79013F9321
:103070002F930E941B339C01990F440B550BB701F2
:10308000C8010E94F70BD801ED91FC913697019091
:10309000F081E02DE00FF11F838194810FB6F89449
:1030A000DEBF0FBECDBF96FF03C0C8010E94AC0BB0
:1030B000C80165960FB6F894DEBF0FBECDBFDF9195
:1030C000CF911F910F91FF90EF90DF90CF900895D7
:1030D00087FF1BC09C012227307292FF08C082E943
:1030E00093E0232B09F0B6CF87E993E0B3CF8CE9C7
:1030F00093E0232B09F0AECF80EA93E0ABCF85E8D5
:1031000093E0A8CF8EE893E0A5CF90E080E0A2CF37
:10311000CF92DF92EF92FF920F931F93CF93DF93A3
:10312000CDB7DEB728970FB6F894DEBF0FBECDBF80
:1031300080912605811108C060E183EF94E00E9430
:103140009D0E81E0809326058091230590912405B2
:10315000892B09F4B7C010921505AE01485F5F4F87
:1031600069E473E0CE0101960E944D16BE016F5FC7
:103170007F4F83EF94E00E947611CE0101960E946A
:1031800012136AE383EF94E00E94EF0C64EA73E0A9
:103190000E9426166CE20E94EF0C8C0180910B06B7
:1031A00090910C06DC01ED91FC910284F385E02DF9
:1031B000099528E0C22ED12CE12CF12CA701960113
:1031C0000E94D132BA01A901C8010E94FD176CE228
:1031D0000E94EF0C8C01E0910B06F0910C0602802E
:1031E000F381E02D6081718182819381A701960135
:1031F0000E94D132BA01A901C8010E94FD176CE2F8
:103200000E94EF0C7C01E0910F06F0911006808186
:103210000E94930461E0892B09F060E0C7010E94DD
:10322000A00C6CE20E94EF0C7C01E0910F06F09183
:10323000100681810E94930461E0892B09F060E00F
:10324000C7010E94A00C63E20E94EF0CE0901106FF
:10325000F0901206AE01485F5F4F65E075E0CE0169
:1032600001960E947614BE016F5F7F4FC7010E94D6
:103270004913CE0101960E941213AE01485F5F4FC1
:1032800065E075E0CE0101960E947614BE016F5F85
:103290007F4F8AEB95E00E94A20B0E94BA0DCE01EF
:1032A00001960E94121328960FB6F894DEBF0FBE47
:1032B000CDBFDF91CF911F910F91FF90EF90DF90E5
:1032C000CF90089581E08093150547CF10928F0429
:1032D0000C9488188F929F92AF92BF92EF92FF92B8
:1032E0000F931F93CF93DF93CDB7DEB7E4970FB65D
:1032F000F894DEBF0FBECDBF8C017B0149015A019E
:1033000060E1CE0101960E949D0EB701695F7F4F7B
:10331000CE0101960E94A20BF70166850E94EF0C78
:10332000B501A4010E94FD17AE014C5C5F4FBE01C8
:103330006D5E7F4FC8010E947614CE0101960E94F7
:103340002913C801E4960FB6F894DEBF0FBECDBFB7
:10335000DF91CF911F910F91FF90EF90BF90AF90B1
:103360009F908F9008952F923F924F925F926F920D
:103370007F928F929F92AF92BF92CF92DF92EF9205
:10338000FF920F931F93CF93DF9300D000D0CDB760
:10339000DEB79C838B83DC01ED91FC910484F58581
:1033A000E02D0995882309F408C12FB7F89460919E
:1033B0008704709188048091890490918A042FBFBA
:1033C000EB81FC81878C90A0A1A0B2A00785108919
:1033D00021893289601B710B820B930B0E943E3155
:1033E00020E030E04AE754E40E949630A5019401C1
:1033F0000E94F531AB81BC8153962D913D914D9149
:103400005C9156970E9425306B017C01EB81FC8119
:103410000280F381E02DFA83E98344805580668041
:103420007780AB81BC8193963C90939794962C9037
:10343000949795960C91959796961C9196971B96B6
:103440006D917D918D919C911E97641975098609E6
:10345000970997FF07C090958095709561957F4F6C
:103460008F4F9F4F0E943E312B013C01C501B4019B
:103470009F779B01AC010E9425309B01AC01C301E9
:10348000B2010E94F5314B015C01232D322DA801C0
:10349000632D722DC8010E94F5319B01AC01C5015D
:1034A000B4010E9425300E9468324B015C01EB811F
:1034B000FC8161857285072E000C880B990B0E9498
:1034C00040312B013C01AC019B01C501B4010E94BC
:1034D000F5314B015C0120E030E0A901C701B601E4
:1034E0000E94F031181624F0F7FAF094F7F8F094EF
:1034F00020E030E0A901C501B4010E94F0311816A6
:1035000024F0B7FAB094B7F8B094A5019401C701BC
:10351000B6010E94913087FD02C075016401232D20
:10352000322DA801C701B6010E94913087FD42C02B
:10353000A981BA811A966D917C9190E080E00E94F9
:103540003E315B018C019B01AC01C701B6010E94B9
:10355000F031181614F465017801A3019201C70136
:10356000B6010E94F531EB81FC81678B708F818FF2
:10357000928F87819085DC01ED91FC910480F5812B
:10358000E02DB701A6010F900F900F900F90DF91E3
:10359000CF911F910F91FF90EF90DF90CF90BF9050
:1035A000AF909F908F907F906F905F904F903F90E3
:1035B0002F900994C32CD22CCFCF0F900F900F9047
:1035C0000F90DF91CF911F910F91FF90EF90DF90BF
:1035D000CF90BF90AF909F908F907F906F905F90B3
:1035E0004F903F902F900895AF92BF92CF92DF926D
:1035F000EF92FF920F931F93CF93DF93CDB7DEB778
:1036000028970FB6F894DEBF0FBECDBF5C016B01EB
:10361000AE01485F5F4F68EA73E0CE0101960E94F9
:103620004D16D6011496ED90FC900D811E81A701D8
:103630000E151F0508F4A80169817A81F6018081C1
:1036400091810E940D33DD24D394892B39F4E01647
:10365000F10608F0D12C0E151F0588F1CE01019658
:103660000E941213D1101AC0D50112960D911C910F
:1036700088E090E00E943A2EFC011383028383EAE3
:1036800092E0918380838BEA93E09783868315820F
:103690001482D8015096FC93EE931F9728960FB68C
:1036A000F894DEBF0FBECDBFDF91CF911F910F9178
:1036B000FF90EF90DF90CF90BF90AF900895DD2402
:1036C000D394CCCF0F931F93CF93DF93EB0109904B
:1036D0000020E9F72197C61BD70BFC010481158157
:1036E000AE010C171D0708F4A801FC01808191812F
:1036F0000E940D33892B11F080E004C081E0C017D7
:10370000D107D1F7DF91CF911F910F910895CF93FA
:10371000DF93EC01CB0168EA73E00E94621B88230F
:10372000C1F0CE010E94A315811110C00A80DB8177
:10373000C02D84E090E00E943A2EFC01D383C28326
:1037400025E532E031832083988B8F87DF91CF91FD
:1037500008950A80DB81C02D84E090E00E943A2E1B
:10376000FC01D383C2832DEB32E0ECCFAF92BF924A
:10377000CF92DF92EF92FF920F931F93CF93DF933D
:1037800000D000D000D01F92CDB7DEB75C017B0126
:10379000DB010D911C9111971496CD90DC90C00E19
:1037A000D11E88E090E09C838B831E821D820E9444
:1037B0003A2E9A838983CE0101960E943D06A80184
:1037C000465F5F4F69817A819601CE0101960E9422
:1037D000F4106DEF73E0CE0101960E94621B882306
:1037E00021F1F70160817181D50112968D919C9133
:1037F0000E949812F501028113818CE090E00E94F2
:103800003A2EFC01138302838BE392E09183808341
:1038100014821582168217821086118612861386EC
:10382000D8015096FC93EE931F97CE0101960E940B
:10383000121327960FB6F894DEBF0FBECDBFDF91EF
:10384000CF911F910F91FF90EF90DF90CF90BF909D
:10385000AF9008950F931F93CF93DF93CDB7DEB74B
:10386000CC54D1090FB6F894DEBF0FBECDBF8C018A
:10387000CE0101960E94B608CE0187960E94B60836
:1038800046E250E070E060E0CE0187960E94692F2A
:103890008FA198A58B3F9A4439F42D968EAD9FAD9C
:1038A0002D978B3F9A44A9F086E2FE013196D8010C
:1038B00001900D928A95E1F7C801C45BDF4F0FB606
:1038C000F894DEBF0FBECDBFDF91CF911F910F9156
:1038D000089589A5833041F786E2FE01B796E7CFC8
:1038E0004F925F926F927F92AF92BF92CF92DF9290
:1038F000EF92FF920F931F93CF93DF93CDB7DEB775
:10390000CD54D1090FB6F894DEBF0FBECDBF8C01E8
:103910007B01DB011E968C91833549F56B01B7E085
:10392000CB0ED11C61E074E0C6010E94621B8823AB
:1039300069F0E0910D06F0910E062485358550E082
:1039400040E0B701C8010E946A196BC064E074E0EE
:10395000C6010E94621B8823F1F0F70187859089D8
:10396000A189B28984369105A105B10534F4AE016F
:103970004F5F5F4F67E074E01CC1E0910B06F09170
:103980000C060280F381E02D91878087B701C80182
:103990000E94FB1446C06BE074E0C6010E94621BEB
:1039A0008823D9F0E0910F06F091100681810E94E2
:1039B0009304892B59F30E94AC1680910B069091C9
:1039C0000C06DC01ED91FC910084F185E02D48E1CD
:1039D0005CEF6FEF7FEF0995D9CF6EE074E0C60121
:1039E0000E94621B8823A1F1CE0101960E948D0ED8
:1039F0006EE074E0CE0101960E946A1561E174E008
:103A0000CE0101960E946A15AE01495D5F4FBE016D
:103A10006F5F7F4FC8010E947614CE0101960E940D
:103A20001213C801C35BDF4F0FB6F894DEBF0FBEA1
:103A3000CDBFDF91CF911F910F91FF90EF90DF905D
:103A4000CF90BF90AF907F906F905F904F90089510
:103A500067E174E0C6010E94621B8823F9F0E091DF
:103A60000F06F091100680810E949304892B09F4BF
:103A70008DCF0E94881680910B0690910C06E091E4
:103A80000D06F0910E064481558166817781DC0137
:103A9000ED91FC910084F185E02D9DCF6AE174E009
:103AA000C6010E94621B882361F080910B069091F1
:103AB0000C06DC01ED91FC910280F381E02D09956B
:103AC00065CF6DE174E0C6010E94621B882391F00E
:103AD00080910B0690910C06DC01ED91FC91028423
:103AE000F385E02D099528E030E040E050E00E94A9
:103AF000D13227CF60E274E0C6010E94621B8823A6
:103B0000C1F0F70187859089A189B28953E0880FB8
:103B1000991FAA1FBB1F5A95D1F7E0910B06F09190
:103B20000C060280F381E02D84839583A683B783FE
:103B30002DCF63E274E0C6010E94621B882361F00E
:103B4000E0910B06F0910C060280F381E02D60817C
:103B5000718182819381C7CF66E274E0C6010E94C1
:103B6000621B8823C1F0E0910B06F0910C062281C4
:103B70003381F70187859089A189B28943E0880F55
:103B8000991FAA1FBB1F4A95D1F7F9018083918322
:103B9000A283B383FBCE69E274E0C6010E94621B7C
:103BA000882359F00E948818AE014F5F5F4F69E487
:103BB00073E0C8010E944D1634CF6CE274E0C60178
:103BC0000E94621B882399F0E0910B06F0910C068D
:103BD0000280F381E02D2285338550E040E093E0C0
:103BE00055954795379527959A95D1F7AACE6FE2C7
:103BF00074E0C6010E94621B882321F1D7011F9641
:103C00004D905D906D907C90529783E0440C551CD4
:103C1000661C771C8A95D1F7C0900B06D0900C06D5
:103C2000F60163A174A185A196A10E940F314616E9
:103C3000570608F49CCED6011296ED91FC9153865E
:103C40004286A4CE62E374E0C6010E94621B882310
:103C5000E9F0CE0101960E94B60880910D06909180
:103C60000E0626E2FE013196DC0101900D922A95A6
:103C7000E1F746E250E070E060E00E94792F6BEFE0
:103C80007AE48CE490E00E949B2F80CE65E374E0A0
:103C9000C6010E94621B882389F0C0900D06D09057
:103CA0000E06CE0188960E942A1C86E2FE01B89676
:103CB000D60101900D928A95E1F768CE68E374E031
:103CC000C6010E94621B882309F451CE46E250E0EF
:103CD00070E060E080910D0690910E06CECF2F929D
:103CE0003F924F925F926F927F928F929F92AF928C
:103CF000BF92CF92DF92EF92FF920F931F93CF93D9
:103D0000DF93CDB7DEB72C970FB6F894DEBF0FBEAA
:103D1000CDBF6C0129013A01FC01A18CB28C9E013E
:103D2000265F3F4FA201CE0101960E943615F60193
:103D3000E488F588EA14FB0410F40E94F6321701B7
:103D40002A183B0882012414350408F481018D806F
:103D50009E80E01AF10AC40180959095E816F90654
:103D600060F7E80CF91CC60140969C878B87081504
:103D7000190538F41886AE01485F5F4FB7010E94FD
:103D8000BA10F60180899189A101401B510BB50140
:103D9000600F711F680F791F9501280D391D820F63
:103DA000931F0E94FB3269817A81F6018089918993
:103DB000A4018A0D9B1D0E94270E1986AE01475F44
:103DC0005F4FB7018B859C850E94BA10CE0101968A
:103DD0000E941213F601818D928D840D951D928F94
:103DE000818FC301B2012C960FB6F894DEBF0FBECF
:103DF000CDBFDF91CF911F910F91FF90EF90DF909A
:103E0000CF90BF90AF909F908F907F906F905F907A
:103E10004F903F902F900895CF92DF92EF92FF92B4
:103E20000F931F93CF93DF93CDB7DEB76B970FB68A
:103E3000F894DEBF0FBECDBF7C018B01DB01149671
:103E4000CD90DC90B2E0CB16D104B8F4AE014F5F58
:103E50005F4F67E074E00E944D16C7016B960FB686
:103E6000F894DEBF0FBECDBFDF91CF911F910F91B0
:103E7000FF90EF90DF90CF900895CE0101960E94C1
:103E80008D0ECE0108960E948D0EB801CE010196CE
:103E90000E944D11188A198A1A8A1B8AF8016081BA
:103EA00071816F5F7F4FCE0108960E94F511F2E09D
:103EB000CF16D10489F480E38F87BE016F5F7F4FF7
:103EC000C7010E94701CCE0108960E941213CE01F9
:103ED00001960E941213C1CFD8016D917C916E5F43
:103EE0007F4FCE0108960E94F511B3E0CB16D104A6
:103EF00011F3D801ED91FC9183818F87B6E0CB1649
:103F0000D10440F184818C3229F5D80114964D9169
:103F10005C914530510510F40E94F632455051092C
:103F2000BF016B5F7F4F9E01255E3F4FCE014496E0
:103F30000E9436154AE050E070E060E08C899D896F
:103F40000E94DF2C688B798B8A8B9B8BCE014496E9
:103F50000E941213BE016F5F7F4FCE0144960E94F4
:103F6000701CAE01455E5F4FBE016C5E7F4FC701A6
:103F70000E947614CE0144960E941213A4CF8F9211
:103F80009F92AF92BF92CF92DF92EF92FF920F93E8
:103F90001F93CF93DF93CDB7DEB72E970FB6F8946C
:103FA000DEBF0FBECDBFDB011496AD90BC90BAE072
:103FB000AB16B10408F441C08B017C01FB01C08049
:103FC000D18046018A0C9B1C88E090E09B878A8701
:103FD0001D861C860E943A2E99878887CE010896F6
:103FE0000E943D06A601465F5F4F68857985940172
:103FF000CE0108960E94F410FAE0AF16B10481F1E8
:10400000D801ED91FC918285803451F5BE01685F45
:104010007F4FCE0101960E940C1FBE016F5F7F4F44
:10402000F701828193810E944913CE0101960E947B
:104030001213CE0108960E9412132E960FB6F89412
:10404000DEBF0FBECDBFDF91CF911F910F91FF90CB
:10405000EF90DF90CF90BF90AF909F908F9008959A
:104060006DEF73E0CE0108960E94621B882309F36E
:10407000D70118961D921D921D921C921B9740E429
:104080005FE160E070E08EE795E00E942406D1CF0A
:104090001F920F920FB60F9211248F939F938091CE
:1040A000E1009091E100937F9093E10083FF0FC0C6
:1040B0001092E90091E09093EB001092EC0092E3F3
:1040C0009093ED001092F20498E09093F00082FF3C
:1040D00022C093E09093E9009091F200992319F0A7
:1040E0009AE39093E8009091E304992341F0909132
:1040F000E30491509093E304911101C05D9A909173
:10410000F104992341F09091F10491509093F104BE
:10411000911101C0289A84FF18C08091E2008E7E20
:1041200081608093E2008091E1008F7E8093E100C6
:104130008091E2048E7E80618093E2049F918F9152
:104140000F900FBE0F901F90189580FFF7CF8091B2
:10415000E2008E7E80618093E2008091E1008E7E9D
:104160008093E1008091E2048E7E8160E5CF1F9212
:104170000F920FB60F921124CF92DF92EF92FF921F
:104180000F931F932F933F934F935F936F937F935F
:104190008F939F93AF93BF93EF93FF93CF93DF934F
:1041A000CDB7DEB76C97DEBFCDBF1092E90080912E
:1041B000E80083FF25C068E0CE0145960E94950285
:1041C00082EF8093E8008D8987FF39C09091E800E5
:1041D00090FFFCCF982F907609F034C19E894F89CB
:1041E000588D2F89F88C911131C0803861F58091FC
:1041F000E1048093F1001092F1008EEF8093E800CB
:104200006C960FB6F894DEBF0FBECDBFDF91CF9195
:10421000FF91EF91BF91AF919F918F917F916F919E
:104220005F914F913F912F911F910F91FF90EF90D0
:10423000DF90CF900F900FBE0F901F9018959EEFBC
:104240009093E800C7CF1092F100D5CF913059F488
:104250008111D3CF4130510581F68091E1048D7FEA
:104260008093E104CACF933049F48111C6CF413025
:10427000510519F68091E1048260F2CF953041F446
:104280008091E80080FFFCCF20682093E300B5CF49
:10429000963009F0A9C00B8D1C8D22E01092E90028
:1042A0001092DF041092DE04F2122EC01092DD0490
:1042B0001092DC040E9464021F8299E09983FA82C2
:1042C00091E09E8390EA98879AEF99872091DE0487
:1042D0003091DF04275F3F4F3C832B838D83109207
:1042E000E9001092DF041092DE041093DD040093C5
:1042F000DC0449E050E0BE016F5F7F4F80E00E9428
:104300003E020E94640279CF1093DD040093DC0426
:104310000E94FC01DC0112960D911C910115110502
:1043200009F451C1D801ED91FC910480F581E02D93
:10433000BE016B5E7F4FC8010995009709F03EC131
:10434000F80100851185EACFF3E0FF120EC08F89D6
:10435000882309F440C0823061F440E860E183EAD8
:1043600091E00E948924811148CF81E28093EB0083
:1043700047CF813029F440E86BE087E991E0F1CF45
:10438000833099F70E94FC01DC011296ED90FC90BD
:104390008E010F5F1F4F6801E114F10479F0D7011E
:1043A000ED91FC910680F781E02DB801C7010995D8
:1043B000080F111DF701E084F184EECFD8011C92A3
:1043C000F60101900020E9F73197BF016C197D09D2
:1043D00040E0C601C6CF61E871E0FB01449150E0C6
:1043E00080E80E943E0209CF973009F4BECF983092
:1043F00021F481E08093F10000CF993009F0FDCEE7
:10440000837009F0B2CFE4EDF2E081E031E096E3B1
:104410002191222371F08093E9003093EB00DF01BA
:1044200011972C912093EC009093ED008F5F8730D3
:1044300079F78EE78093EA001092EA008F898093E3
:10444000F204DBCE8B8D9C8D1092E9001092DF047C
:104450001092DE049093DD048093DC04898D811139
:1044600092C08E899D89913A49F4813209F07DCFBD
:1044700047E050E066E071E080E0B3CF913209F0B0
:1044800074CF833269F48F89988DB0E0A0E0809377
:10449000020190930301A0930401B0930501ADCEF6
:1044A000803269F48091E80082FFFCCF67E086E00B
:1044B00091E00E9495028BEF8093E8009ECE8232BD
:1044C00009F09BCE8F8980930D01EEEFFFE7859178
:1044D00094918B3F9C4D51F1E0E0F8E08091060112
:1044E00090910701A0910801B0910901803B94408F
:1044F000A105B105F1F480910D0180FD1AC0EE3FD8
:104500008AE0F80789F587E797E7918380838091B0
:1045100060008093E00488E19BE00FB6F894A895D2
:10452000809360000FBE9093600067CEEEEFFAE0DC
:10453000D5CF808191818737974709F05ECEA895C6
:10454000809160008861809360008091E004809396
:104550006000EE3F2AE0F20789F08091FE0A909118
:10456000FF0A9183808349CE8081918187379807A4
:1045700051F29093FF0A8093FE0AC5CF1092FF0A72
:104580001092FE0A3ACE0E94FC01DC0112960D91B7
:104590001C910115110509F4E8CED801ED91FC91AB
:1045A0000190F081E02DBE016B5E7F4FC80109953F
:1045B000811123CEF80100851185EBCF181619065D
:1045C0000CF41BCED2CEF1E0FF12BECE65E871E056
:1045D00004CF1F920F920FB60F9211242F933F9387
:1045E0004F935F936F937F938F939F93AF93BF93FB
:1045F000EF93FF9384E296E00E943903FF91EF91DD
:10460000BF91AF919F918F917F916F915F914F91EA
:104610003F912F910F900FBE0F901F9018951F92F2
:104620000F920FB60F9211242F938F939F93EF93B6
:10463000FF93E0913406F09135068081E0913A06CF
:10464000F0913B0682FD1BC0908180913D068F5FFB
:104650008F7320913E06821741F0E0913D06F0E015
:10466000EC5DF94F958F80933D06FF91EF919F91FF
:104670008F912F910F900FBE0F901F9018958081F2
:10468000F4CF1F920F920FB60F9211242F933F93E6
:104690008F939F93AF93BF938091870490918804E9
:1046A000A0918904B0918A043091860423E0230FFD
:1046B0002D3758F50196A11DB11D209386048093D6
:1046C000870490938804A0938904B0938A0480910E
:1046D0008B0490918C04A0918D04B0918E0401966E
:1046E000A11DB11D80938B0490938C04A0938D0425
:1046F000B0938E04BF91AF919F918F913F912F9175
:104700000F900FBE0F901F90189526E8230F02966A
:10471000A11DB11DD2CF1F920F920FB60F9211247F
:104720002F933F934F935F936F937F938F939F93B9
:10473000AF93BF93EF93FF93E0911601F0911701B0
:104740000995FF91EF91BF91AF919F918F917F91CB
:104750006F915F914F913F912F910F900FBE0F90EE
:104760001F9018951F920F920FB60F9211242F933E
:104770003F934F935F936F937F938F939F93AF93E9
:10478000BF93EF93FF93E0911401F0911501099508
:10479000FF91EF91BF91AF919F918F917F916F9119
:1047A0005F914F913F912F910F900FBE0F901F90EF
:1047B00018951F920F920FB60F9211242F933F93CB
:1047C0004F935F936F937F938F939F93AF93BF9319
:1047D000EF93FF93E0911201F09113010995FF917E
:1047E000EF91BF91AF919F918F917F916F915F9169
:1047F0004F913F912F910F900FBE0F901F901895E2
:104800001F920F920FB60F9211242F933F934F9345
:104810005F936F937F938F939F93AF93BF93EF9328
:10482000FF93E0911001F09111010995FF91EF9133
:10483000BF91AF919F918F917F916F915F914F91B8
:104840003F912F910F900FBE0F901F9018951F92C0
:104850000F920FB60F9211242F933F934F935F93B4
:104860006F937F938F939F93AF93BF93EF93FF9338
:10487000E0910E01F0910F010995FF91EF91BF9129
:10488000AF919F918F917F916F915F914F913F91E8
:104890002F910F900FBE0F901F9018951F920F929F
:1048A0000FB60F9211242F933F934F935F936F9303
:1048B0007F938F939F93AF93BF93EF93FF936091F9
:1048C000F00481E068276093F00480917504909172
:1048D0007604DC01ED91FC910190F081E02D0995C9
:1048E000809100019091010190938900809388004C
:1048F000FF91EF91BF91AF919F918F917F916F91B8
:104900005F914F913F912F910F900FBE0F901F908D
:104910001895EF92FF920F931F93CF93DF93F82E8A
:10492000192FE62E042F81E0860F880F0E941002B7
:1049300083E00E941002CF2DD12FEC0EFD2EF11C32
:10494000CE15DF05B9F007FF13C0FE0184910E9468
:104950001002182F80E00E941002812321968111FD
:10496000EFCFDF91CF911F910F91FF90EF900895BE
:104970008881EDCF81E0F5CF62E975E084EA95E0CA
:104980000E949A0D42E955E061E072E08CE895E002
:104990000E944A0EECE8F5E08DE092E0918380837E
:1049A00087E192E0918F808F12861186148613869C
:1049B00016861586108A1786128A118A148A138A17
:1049C00087E791E0978386838CED96E0978B868BC3
:1049D00088E0858B08956CEB75E08EEC95E00E9485
:1049E0009A0D4CEB55E06DE172E08AEB95E00E9488
:1049F000710EEAEBF5E089E292E09183808383E334
:104A000092E0958B848B168215821086178212860F
:104A100011861486138616861586108A178687E7F0
:104A200091E0938382838CED96E0938B828B80E17F
:104A3000818B0895CF92DF92EF92FF920F931F9395
:104A4000CF93DF93C4E2D6E0109227061092260699
:104A500088EEC82E83E0D82EE12CF12CC0922806D7
:104A6000D0922906E0922A06F0922B068EED92E073
:104A700090932506809324068DEC90E09093310668
:104A8000809330068CEC90E090933306809332064E
:104A900088EC90E0909335068093340689EC90E0A2
:104AA00090933706809336068AEC90E0909339060F
:104AB000809338068EEC90E090933B0680933A0604
:104AC00010923D0610923E0610923F06109240064C
:104AD0001092310510923005C0923205D092330504
:104AE000E0923405F092350580EF92E090932F0527
:104AF00080932E050FEF1FEF10933B0500933A05AF
:104B000010927E0510927F0510928005109281050B
:104B100010928205109283051092840510928505EB
:104B200010928905109288051092870510928605CB
:104B30006BE271E086E091E00E94D32D90938905AD
:104B40008093880510927F0710928007109281074A
:104B500010928207109283071092840710928507A3
:104B60001092860788E293E090937E0780937D07FA
:104B70000E94D10187E597E00E942A1C84E193E01E
:104B800090932F0780932E0781E090E09093380751
:104B9000809337071092390710923A0710923B071B
:104BA00010923C0710923D0710923E0710923F076B
:104BB000109240071092410710924207109243074B
:104BC000109244071092490710924A0710924B071F
:104BD00010924C0710924D0710924E0710924F07FB
:104BE000109250078BE597E0909331078093300740
:104BF0008DE797E09093360780933507109245072D
:104C00001092460710924707109248078CE0809355
:104C100032078AE0809333078BE08093340780E08B
:104C200090E0AAE7B3E48093510790935207A093D2
:104C30005307B093540761E08CE00E94EA0461E0FE
:104C4000809134070E94EA0461E0809133070E945A
:104C5000EA0461E0809133070E94BC041092560779
:104C60001092550783E080932C0782E080932D07F4
:104C70008EE297E090938B0580938A051092DF0671
:104C80001092DE06C092E006D092E106E092E206C3
:104C9000F092E3061093E9060093E80682E093E0C1
:104CA0009093DD068093DC0685ED96E00E948D0EE4
:104CB0008EEC96E00E948D0ED093C206C093C10682
:104CC0008EEC96E09093C4068093C30685ED9DE03C
:104CD0009093CD068093CC06D0931406C093130610
:104CE00081EC96E0909316068093150687E196E096
:104CF0000E948D0E10921F0610921E061092200622
:104D00001092210610922306109222068091190615
:104D100090911A06089730F468E070E087E196E019
:104D20000E9441128EE297E090930C0680930B064E
:104D300087E597E090930E0680930D068CE297E04E
:104D40009093100680930F0683E196E090931206ED
:104D5000809311069093E5058093E405C091680760
:104D6000D0E088E090E09093E9058093E805109208
:104D7000EB051092EA0580E190E00E943A2E9093B4
:104D8000E7058093E605D093F005C093EF0590E02A
:104D900080E00E9444101092F7051092F8051092DE
:104DA000F9051092FA051092FB051092FC0510927D
:104DB000FD051092FE051092FF051092000610925C
:104DC0000106109202061092030610920406109239
:104DD00005061092060682E190E090930806809303
:104DE000070688E697E090930A06809309066CED23
:104DF00076E08AEB95E00E94EB246CED76E08CE89F
:104E000095E0DF91CF911F910F91FF90EF90DF9090
:104E1000CF900C94BC24CF93DF93CDB7DEB7CB54A7
:104E2000D1090FB6F894DEBF0FBECDBF789484B51C
:104E3000826084BD84B5816084BD85B5826085BD96
:104E400085B5816085BD80916E00816080936E0024
:104E50001092810080918100826080938100809116
:104E600081008160809381008091800081608093C7
:104E700080008091910082608093910080919100E8
:104E80008160809391008091900081608093900078
:104E90008091C10084608093C1008091C1008260D4
:104EA0008093C1008091C10081608093C100809196
:104EB000C30081608093C3008091C00082608093B2
:104EC000C0008091C20081608093C20080917A000E
:104ED000846080937A0080917A00826080937A0067
:104EE00080917A00816080937A0080917A00806856
:104EF00080937A001092F2041092E1041092E2047E
:104F00008091D70081608093D70080EA8093D80099
:104F100089B5806189BD89B5826089BD09B400FE0B
:104F2000FDCF61E070E080E090E00E94400580915C
:104F3000D8008F7C80618093D8008091E000807FD2
:104F40008093E0008091E1008E7E8093E1008DE00F
:104F50008093E200559A209A61E0809133070E9485
:104F6000BC0460E0809132070E94BC0486E699E1AF
:104F7000909356078093550762E085E00E94EA040B
:104F800062E086E00E94EA048091D7069091D806FC
:104F9000409730F460E170E085ED96E00E94921059
:104FA0008091D0069091D106809730F460E270E055
:104FB0008EEC96E00E9441128FEF9FEF9093E906EE
:104FC0008093E8068091880590918905009711F0FB
:104FD0000E94D62E8CED96E09093870580938605EF
:104FE0006BE271E086E091E00E94D32D90938905F9
:104FF0008093880584E296E00E94430148EE53E0E6
:1050000060E070E08FE797E00E942406789484E0E7
:1050100090E00E943A2E23E136E0DC0113963C93A7
:105020002E9312972DEB32E02D933C939093230611
:105030008093220662E080912C070E94EA0462E0DD
:1050400080912D070E94EA0410928F0480912C0712
:10505000882309F41AC1813009F419C1823009F496
:1050600018C1833009F417C1873029F484E066EE53
:1050700078E00E946A0180912D07882309F40DC110
:10508000813009F40CC1823009F40BC1833009F47A
:105090000AC1873029F484E065E179E00E946A0161
:1050A00040E157E260E070E087EF95E00E9424065F
:1050B000E0910906F0910A06438554856585768559
:1050C0008FEF95E00E9424068FEF9FEF0E9444101F
:1050D00044244394512C34E0632E712C45E0E42E9B
:1050E000F12C26E0C22ED12C8091D404811108C06D
:1050F00060E181EA94E00E949D0E81E08093D404F7
:105100008EE297E00E94B31910910D016AE070E001
:1051100080E090E00E944005112309F444C08CED2A
:1051200096E00E942D0418161906ECF58CED96E019
:105130000E94EB0397FD37C08CAB8D3031F080348B
:1051400009F4B3C08A3009F0B4C08091D9069091B7
:10515000DA06029740F1BE016C5C7F4F85ED96E068
:105160000E94F51165ED76E0CE0101960E940C1FBC
:105170008D819E81892B79F06AE38AEB95E00E940C
:10518000EF0CBE016F5F7F4F0E94A20B63E20E9493
:10519000EF0C0E94BA0D85ED96E00E943D06CE010F
:1051A00001960E94121380912006882309F422C1DF
:1051B0000091150610911606F80180819181DC019D
:1051C000ED91FC910084F185E02D099518161906E2
:1051D0000CF04BC133243A9482E0A82EB12C93E01A
:1051E000892E912C22242394F80180819181DC0165
:1051F000ED91FC910084F185E02D099518161906B2
:105200000CF033C1F80180819181DC01ED91FC91BA
:105210000284F385E02D099597FDE6CF2C968FAF9C
:105220002C978E37A1F4F801158214828281938124
:105230000E943D06D80116961C92169717961C924E
:10524000179719961C921E9218971A963C92F8017D
:105250008681882349F02C968FAD2C971682F0E238
:105260008F272C968FAF2C97D80114962D913C91B7
:1052700015972C968FAD2C972115310509F455C043
:105280008D3731F516962C92AFCF82E0F0CE83E0C9
:10529000EECE81E0ECCE80E0EACE82E0FDCE83E08F
:1052A000FBCE81E0F9CE80E0F7CE85ED96E00E945E
:1052B0003D068091D9069091DA06409708F073CFA9
:1052C000BE016C5C7F4F85ED96E00E94F5116BCFBF
:1052D00023303105E1F180F42130310569F12230CC
:1052E000310509F081CFF80120853185282B3187E0
:1052F00020879582848278CF2430310599F125303A
:10530000310509F071CFF8019781980F9783628179
:1053100073819F3F09F05BC0D582C4820384F4850A
:10532000E02D1A968C9109955FCF8E3709F05CCFEE
:10533000F8015582448258CF18961C9218971996F6
:105340008C9319971596BC92AE9214974DCF1A96DE
:105350008C931A9717968C93179715967C926E924A
:10536000149742CFF80182819381DC0114962D912C
:105370003C91B9016F5F7F4F2617370720F5AE01CB
:10538000455B5F4F0E946912D80117968C91179761
:105390002C969FAD2C97890F17968C931797129682
:1053A000ED91FC91139718968D919C911997019707
:1053B000248135812817390709F016CF1596FC92FC
:1053C000EE92149711CFFC0115821482DDCF158265
:1053D0001482CB010E943D06D80116961C921697A6
:1053E00017961C92179719961C921E9218971A9648
:1053F0003C92FACE80919704811107C080E994E035
:105400000E948D0E81E08093970480911306909105
:105410001406DC01ED91FC910084F185E02D0995E5
:105420001816190614F58091130690911406DC01E4
:10543000ED91FC910284F385E02D099597FD15C04F
:1054400089838D3009F0D9C080911E0690911F0686
:10545000DC01ED91FC910484F585E02D60E974E0B8
:10546000099580E994E00E943D0680911E06909186
:105470001F06009739F0DC01ED91FC910680F78161
:10548000E02D09958091220690912306892B09F43D
:1054900054C06FE374E08AEB95E00E9426168C01FD
:1054A0006091220670912306DB01ED91FC9104804E
:1054B000F581E02DCE0101960995BE016F5F7F4F0A
:1054C000C8010E94A20B0E94BA0DCE0101960E9453
:1054D000121380911E0690911F060097D9F0DC01EF
:1054E000ED91FC910084F185E02D099580911E06D7
:1054F00090911F0620912206309123068217930770
:1055000049F0009739F0DC01ED91FC910280F381C4
:10551000E02D0995809122069091230690931F0615
:1055200080931E061092230610922206DC01ED9154
:10553000FC910284F385E02D099587EF95E00E94A8
:10554000F805882309F420C1E0910906F0910A06C4
:10555000418152816381748187EF95E00E94240626
:10556000E0910706E23108F0E251F0E0ED5CFE4F19
:10557000E49190917B008E2F880F880F80729F7D21
:10558000892B80937B00E770E064E0937C0080913E
:105590007A00806480937A0080917A0086FDFCCF47
:1055A0002091780080917900382F2A963FAF2EAF56
:1055B0002A97E091E605F091E7058091ED0590913D
:1055C000EE0540815181841B950B820F931F9093B0
:1055D000EE058093ED0530E020E04091EA05509122
:1055E000EB05CA0101972817390778F42F5F3F4F61
:1055F0008281938181939193F0CFBE016F5F7F4F42
:1056000080E994E00E94F51130CF8417950720F4CB
:105610009093EB058093EA052091EA053091EB0524
:10562000C90101962817390708F086C1BE01685BD9
:105630007F4F0E940E108091ED059091EE056091D4
:10564000EF057091F0050E94BD327093F6056093EE
:10565000F5058FEF95E00E94F805882309F494C0C2
:10566000E0910906F0910A064385548565857685A3
:105670008FEF95E00E94240660E1CE0101960E9422
:105680009D0E6AE3CE0101960E94EF0C64E474E083
:105690000E9426165C010091F5051091F605BC01EB
:1056A000CE01865B9F4F0E948D0CD501ED91FC9140
:1056B00036970190F081E02DEA0DFB1D83819481E6
:1056C00085FD56C186FF3DC192FF55C189E893E033
:1056D0001F921F921F930F939F938F931F9284E1AA
:1056E0008F938E010C5C1F4F1F930F930E941B33EF
:1056F0009C01990F440B550BB801C5010E94F70B93
:10570000D501ED91FC9136970190F081E02DEA0DE5
:10571000FB1D838194810FB6F894DEBF0FBECDBF11
:1057200096FF03C0C5010E94AC0B63E2C5010E9455
:10573000EF0CA090E405B090E505AE01465B5F4F2D
:10574000BE016D5E7F4FC8010E947614B801C5018D
:105750000E944913C8010E941213AE01465B5F4FBD
:10576000BE016D5E7F4FC8010E947614B8018AEBBE
:1057700095E00E94A20B0E94BA0DC8010E9412136C
:10578000CE0101960E9429138FE797E00E94F80549
:10579000882309F4C4C04AEF50E060E070E08FE76E
:1057A00097E00E94240685E00E9493045C0111E0CA
:1057B000892B09F010E08091A004181799F0A1142A
:1057C000B10451F40E94881640E054E965E377E79C
:1057D0008EE297E00E94CE06AB2821F08EE297E0A1
:1057E0000E9445061093A00486E00E9493045C0189
:1057F00011E0892B09F010E080919F04181799F0AF
:10580000A114B10451F40E94AC1640E05CE66AECCD
:1058100078E88EE297E00E94CE06AB2821F08EE277
:1058200097E00E94450610939F0420E030E0A90114
:10583000609145077091460780914707909148070E
:105840000E949130882309F46AC080910B069091E0
:105850000C06DC01ED91FC910284F385E02D0995A5
:1058600028E030E040E050E00E94D13249015A0186
:105870008091D1049091D204892B09F482C01092B6
:10588000C304AE014C5C5F4F69E473E0CE01019646
:105890000E944D16BE016F5F7F4F81EA94E00E9427
:1058A0007611CE0101960E94121366EA73E081EA36
:1058B00094E00E942616B501A4010E94FD1766EA35
:1058C00073E08AEB95E00E942616DC01ED91FC91D5
:1058D00036970190F081E02D3296E80FF91F218173
:1058E00032812F71206232832183B501A4010E948D
:1058F000FD170E94BA0DAE014C5C5F4F63EB74E084
:10590000CE0101960E947614BE016F5F7F4F83E146
:1059100096E00E944913CE0101960E94121380E086
:1059200090E0892B09F4E0CB0E942503882309F439
:10593000D8CB0E940000CFCB1092EB051092EA0565
:105940007ACE87FF1BC0AC014427507292FF08C07B
:1059500082E993E0452B09F0BBCE87E993E0B8CE0E
:105960008CE993E0452B09F0B3CE80EA93E0B0CE0A
:105970008BE394E0ADCE8EE893E0AACE90E080E099
:10598000A7CE81E08093C3047CCF8CE895E00E9491
:105990003A0D8AEB95E00E94820D8091E605909188
:1059A000E7050E94D62E87E196E00E9412138EEC46
:1059B00096E00E94121385ED96E00C941213B0E06D
:1059C000A0E0E5EEFCE20C94DF2F5C016B017A01B4
:1059D0006115710519F0FB0191838083E114F104D5
:1059E00049F0C7010297839728F060E070E0CB018F
:1059F0009CC05E01E5012196F5011081812F90E0A8
:105A00000E94CA2D892BA9F71D3209F056C0219694
:105A1000F501118101E0E114F10409F4AEC0F0E1F7
:105A2000EF16F10409F08EC0103341F488818F7DA8
:105A3000883509F083C0198122960260E0E1EE2EDC
:105A4000F12C88248A94982CA82CFFE0BF2E20E00B
:105A500060E070E0CB0127010F2C000C660877088E
:105A6000FE0150ED352E310E39E0331538F43FEBA1
:105A7000310F3A31A0F549EC342E310E3E141F049B
:105A8000BCF52F3FB9F086169706A806B90670F147
:105A9000A30192010E94A12F232D30E050E040E0AD
:105AA000620F731F841F951F621773078407950782
:105AB000E8F021E021961081D3CF1B3221F4E501DB
:105AC0002296F501118100E0A6CF78E0E72EF12CB7
:105AD00088248A94982CA82C6FE1B62EB8CF3FE981
