:100000000C94EB000C94BC180C9495180C946E187E
:100010000C9447180C9413010C9413010C942018A1
:100020000C9413010C9413010C942F210C94A12116
:100030000C9413010C9413010C9413010C941301F0
:100040000C9413010C94030D0C9413010C941301E4
:100050000C9413010C9413010C9413010C94D617F7
:100060000C9413010C9414070C94EE060C941301D9
:100070000C9413010C9413010C9413010C941301B0
:100080000C9413010C9413010C9413010C941301A0
:100090000C9413010C9413010C9413010C94130190
:1000A0000C9413010C9413010C9413019E15A115CB
:1000B000901594159A15C215C215C215A515A91546
:1000C000AD15B315B715C215BD150706050401001A
:1000D000080A0B0C0D0900000000240027002A006C
:1000E0002D00300000000000250028002B002E000D
:1000F0003100000000002300260029002C002F0002
:1001000004040404040304050202020204030202BC
:10011000020206060606060604040202020404049D
:1001200008020110408040102040804080080204F6
:10013000018040201002011080102040402000006B
:10014000000200090F0000030401000C0000000081
:1001500000000000000000000000000000080B008C
:10016000020202010009040000010202000005244D
:1001700000100105240101010424020605240600E3
:10018000010705810310004009040100020A000074
:10019000000705020240000007058302400000043A
:1001A00003090412010002EF0201404123368000DE
:1001B000010102030141726475696E6F204C4C436A
:1001C0000041726475696E6F204C656F6E61726478
:1001D0006F007C298E2C11241FBECFEFDAE0DEBF2A
:1001E000CDBF14E0A0E0B1E0EAE9FBE602C0059073
:1001F0000D92A836B107D9F727E0A8E6B4E001C010
:100200001D92AB35B207E1F710E0CAEED0E004C0B2
:100210002197FE010E94CB32C93ED107C9F70E9447
:1002200051240C94C0350C940000DF92EF92FF92A1
:100230000F931F93CF93DF93CDB7DEB7E4970FB63D
:10024000F894DEBF0FBECDBF7C018B01CE010196BD
:100250000E94361FF801D684B801695F7F4FCE0136
:1002600001960E9410126D2D0E944814AE014C5C44
:100270005F4FBE016D5E7F4FC7010E940B1FCE0115
:1002800001960E94C01CC701E4960FB6F894DEBF29
:100290000FBECDBFDF91CF911F910F91FF90EF90D7
:1002A000DF9008958F929F92AF92BF92DF92EF926C
:1002B000FF920F931F93CF93DF93CDB7DEB7E497F1
:1002C0000FB6F894DEBF0FBECDBF7C018B01490194
:1002D0005A01CE0101960E94361FF801D684B8015A
:1002E000695F7F4FCE0101960E9410126D2D0E9412
:1002F0004814B501A4010E94E41FAE014C5C5F4F9D
:10030000BE016D5E7F4FC7010E940B1FCE0101969B
:100310000E94C01CC701E4960FB6F894DEBF0FBE62
:10032000CDBFDF91CF911F910F91FF90EF90DF90A4
:10033000BF90AF909F908F900895FC01A089B189E4
:1003400082E08C93A485B5851C92A685B7858FEC39
:100350008C93108EA489B58986E08C93A289B38989
:100360008C9180618C93A289B3898C9188608C93E5
:10037000A289B3898C9180688C930288F389E02DDF
:1003800080818F7D80830895CF93DF93D0919E05E8
:10039000C0919F059093A1058093A005880F991F98
:1003A0000E94132E80939E0590939F052091A20595
:1003B0003091A305FC01AD2FBC2F80E090E0281701
:1003C000390759F0309729F04D915C91119751837D
:1003D0004083019632961296F2CF8D2F9C2FDF919B
:1003E000CF910C94AB2E0F931F93CF93DF93EC011F
:1003F0008B012091A0053091A1052817390730F411
:1004000008962817390710F40E94C4012091A2050C
:100410003091A305C901880F991FE0919E05F091C5
:100420009F05E80FF91F2C173D0758F4309729F066
:10043000D8018D919C91918380832F5F3F4F32969D
:10044000F2CFD093A305C093A205DF91CF911F9166
:100450000F9108950F931F93CF93DF9300D0CDB7E3
:10046000DEB79A8389838EE995E00E94FB0C00E059
:1004700010E02091A7053091A80502171307CCF4CE
:100480002091A2053091A305C901019628173907CB
:1004900030F4BE016F5F7F4F0E94F30107C08217E7
:1004A000930720F49093A3058093A2050F5F1F4F3D
:1004B000E0CF89819A81289FA001299F500D389F04
:1004C000500D11245093A6054093A5059093AE05B9
:1004D0008093AD050F900F90DF91CF911F910F91F9
:1004E0000895E82FF0E0EE0FFF1FE050FF4F7183FB
:1004F00060838230D9F028F4882341F0813071F094
:1005000008958330D9F0843009F10895809169000D
:100510008C7F826080936900E89A089580916900D9
:10052000837F886080936900E99A089580916900CB
:100530008F7C806280936900EA9A089580916900B7
:100540008F73806880936900EB9A089580916A00A8
:100550008F7C806280936A00EE9A089520916904EE
:10056000211103C08FEF9FEF08955FB7F89422E049
:100570002093E9002091F20030E01216130614F4E3
:1005800021E030E0422FFC0184E6415038F0289809
:10059000809368049091F1009193F7CF2115310574
:1005A00021F08091F200882319F05FBFC9010895FE
:1005B0008BE68093E800F9CF2F923F924F925F92A3
:1005C0006F927F928F929F92AF92BF92CF92DF9263
:1005D000EF92FF920F931F93CF93DF93CDB7DEB7C8
:1005E0002A970FB6F894DEBF0FBECDBF80919D0451
:1005F000811107C08AE694E00E94361F81E0809353
:100600009D0480919A0490919B04892B19F010927B
:100610008C0403C081E080938C04AE01485F5F4F7F
:1006200062E574E0CE0101960E94D41DBE016F5FA9
:100630007F4F8AE694E00E94E71ECE0101960E9459
:10064000A91CE091C705F091C80581810E941D1782
:100650009A878987E091C705F091C80580810E943B
:100660001D171C010091C3051091C405D8011296F5
:10067000ED91FC911397608171818281938128E0D3
:10068000C22ED12CE12CF12CA70196010E94AC3294
:1006900049015A01D801ED91FC910284F385E02DC6
:1006A000C80109952B013C0160EF76E08AE694E0F1
:1006B0000E94101262E473E00E941F1D6CE20E940F
:1006C00048148C01C301B201A70196010E94AC320B
:1006D000BA01A901C8010E94E41F6CE20E944814FB
:1006E000B501A4010E94E41F6CE20E94481461E07D
:1006F000232809F060E00E94931F6CE20E944814D6
:1007000061E029853A85232B09F060E00E94931F60
:1007100069EE76E00E941012AE01485F5F4F6CE711
:1007200074E0CE0101960E940B1FBE016F5F7F4FE8
:100730008091C9059091CA050E945B0DCE0101967A
:100740000E94A91CAE01485F5F4F6CE774E0CE01C8
:1007500001960E940B1FBE016F5F7F4F87EF96E0EF
:100760000E9410120E94041DCE0101960E94A91C35
:100770002A960FB6F894DEBF0FBECDBFDF91CF91A2
:100780001F910F91FF90EF90DF90CF90BF90AF90AF
:100790009F908F907F906F905F904F903F902F90A1
:1007A00008950F931F93CF93DF93CDB7DEB7EB97E9
:1007B0000FB6F894DEBF0FBECDBF8C01CE010196FF
:1007C0000E94361F60EF76E0CE0101960E94101263
:1007D000B8010E94101269EE76E00E941012AE017C
:1007E000455C5F4FBE016D5E7F4FCE01C4960E9497
:1007F0000B1FBE016C5C7F4F8091C9059091CA05AB
:100800000E945B0DCE01C4960E94A91CAE01455CFE
:100810005F4FBE016D5E7F4FCE01C4960E940B1FDD
:10082000BE016C5C7F4F87EF96E00E9410120E9421
:10083000041DCE01C4960E94A91CCE0101960E94FF
:10084000C01CEB960FB6F894DEBF0FBECDBFDF9194
:10085000CF911F910F910895CF93DF93CDB7DEB75E
:1008600028970FB6F894DEBF0FBECDBFAE01485F2C
:100870005F4F66E473E0CE0101960E94D41DCE0165
:1008800001960E94D103CE0101960E94A91C2896D0
:100890000FB6F894DEBF0FBECDBFDF91CF910895A4
:1008A000CF93DF93CDB7DEB728970FB6F894DEBFAE
:1008B0000FBECDBFAE01485F5F4F6BE473E0CE016A
:1008C00001960E94D41DCE0101960E94D103CE0153
:1008D00001960E94A91C28960FB6F894DEBF0FBEA1
:1008E000CDBFDF91CF9108954F925F926F927F922B
:1008F000AF92BF92CF92DF92EF92FF920F931F932E
:10090000CF93DF93CDB7DEB7C554D1090FB6F894B6
:10091000DEBF0FBECDBF8C017B01DB011E968C912B
:10092000833509F0C6C16B01B7E0CB0ED11C61E580
:1009300073E0C6010E94E911882349F0E091C505E2
:10094000F091C6052285338540E050E0B8C064E5EB
:1009500073E0C6010E94E9118823A9F0F701878599
:100960009089A189B28984369105A105B1050CF45D
:10097000A0C1E091C305F091C4050280F381E02D90
:100980009187808791C16BE573E0C6010E94E911F0
:100990008823E1F0E091C705F091C80581810E94AC
:1009A0001D17892B09F480C10E9450048091C30552
:1009B0009091C405DC01ED91FC910084F185E02D5E
:1009C00048E15CEF6FEF7FEF09956EC166E074E080
:1009D000C6010E94E911882309F1BE016D5D7F4FB8
:1009E000CE0101960E94F41C66E074E0CE010196EF
:1009F0000E94B0116EE573E0CE0101960E94B01125
:100A0000AE014D5D5F4FBE016F5F7F4FC8010E9419
:100A10000B1FCE0101960E94A91C53C16CE673E026
:100A2000C6010E94E9118823F9F0E091C705F09111
:100A3000C80580810E941D17892B09F435C10E94C9
:100A40002C048091C3059091C405E091C505F091F7
:100A5000C6054281538164817581DC01ED91FC9171
:100A60000084F185E02DB0CF6FE673E0C6010E94EF
:100A7000E911882361F08091C3059091C405DC01E0
:100A8000ED91FC910280F381E02D09950DC162E7A3
:100A900073E0C6010E94E9118823B1F08091C3057B
:100AA0009091C405DC01ED91FC910284F385E02D69
:100AB000099528E030E040E050E00E94AC32B701F8
:100AC000C8010E945201FDC065E773E0C6010E94A3
:100AD000E9118823C1F0F70187859089A189B2893E
:100AE00053E0880F991FAA1FBB1F5A95D1F7E091B9
:100AF000C305F091C4050280F381E02D84839583C2
:100B0000A683B783D1C068E773E0C6010E94E911EC
:100B1000882361F0E091C305F091C4050280F38160
:100B2000E02D6081718182819381C3CF6BE773E097
:100B3000C6010E94E9118823C1F0E091C305F0913C
:100B4000C40522813381F70187859089A189B28903
:100B500043E0880F991FAA1FBB1F4A95D1F7F901DF
:100B600080839183A283B3839FC06EE773E0C60145
:100B70000E94E911882341F00E94DC02AE014F5F20
:100B80005F4F62E574E09AC061E873E0C6010E94BD
:100B9000E9118823B1F0E091C305F091C40502800A
:100BA000F381E02D22853385C901A0E0B0E09C01EE
:100BB000AD0193E055954795379527959A95D1F7CF
:100BC0007ECF64E873E0C6010E94E911882329F111
:100BD000D7011F964D905D906D907C90529783E069
:100BE000440C551C661C771C8A95D1F7C090C30530
:100BF000D090C405F60163A174A185A196A10E94BD
:100C0000EA304616570608F454C0D6011296ED9104
:100C1000FC9113975386428647C067E873E0C6018C
:100C20000E94E911882389F0C090C505D090C605BF
:100C3000CE0101960E94451182E2FE013196D60155
:100C400001900D928A95E1F71FC06AE873E0C60132
:100C50000E94E911882389F0C090C505D090C6058F
:100C6000CE0184960E946F1182E2FE01B496D601F5
:100C700001900D928A95E1F717C06DE873E0C60107
:100C80000E94E9118823A9F042E250E060E070E0A0
:100C90008091C5059091C6050E94542F6BEF7AE4B0
:100CA00084E490E00E94762FB701C8010E941501EC
:100CB00008C0AE014F5F5F4F67E573E0C8010E9457
:100CC000D41DC801CB5BDF4F0FB6F894DEBF0FBE5B
:100CD000CDBFDF91CF911F910F91FF90EF90DF90EB
:100CE000CF90BF90AF907F906F905F904F9008959E
:100CF000CF92DF92EF92FF920F931F93CF93DF93E8
:100D00006C017A018B01C0E0D0E0CE15DF0581F0E7
:100D1000D8016D918D01D601ED91FC910190F0818A
:100D2000E02DC6010995892B11F02196EECF7E01A9
:100D3000C701DF91CF911F910F91FF90EF90DF904E
:100D4000CF9008958AED95E00E94311521E0892B1E
:100D500009F420E0822F08954091790550917A0599
:100D6000209177053091780542175307B4F490919C
:100D7000E8009570E1F39091E80092FD19C080932E
:100D8000F1008091790590917A0501968F739927EA
:100D9000892B19F48EEF8093E8008091790590916A
:100DA0007A05019690937A058093790581E00895FC
:100DB00080E00895615030F02091F100FC01208323
:100DC0000196F8CF289884E6809368040895DC01A2
:100DD000ED91FC910190F081E02D09941F920F920A
:100DE0000FB60F9211242F933F934F935F936F93FE
:100DF0007F938F939F93AF93BF93EF93FF938AED6E
:100E000095E00E948E16FF91EF91BF91AF919F9157
:100E10008F917F916F915F914F913F912F910F90A3
:100E20000FBE0F901F9018951F920F920FB60F9242
:100E300011242F938F939F93EF93FF93E091EA05F3
:100E4000F091EB058081E091F005F091F10582FDD4
:100E500012C090818091F3058F5F8F732091F4050C
:100E6000821751F0E091F305F0E0E652FA4F958FCA
:100E70008093F30501C08081FF91EF919F918F9145
:100E80002F910F900FBE0F901F9018958F929F92E9
:100E9000AF92BF92CF92DF92EF92FF92CF93DF9308
:100EA000EC01E881F9810484F585E02D099588231A
:100EB000C9F1E881F9810284F385E02DCE0109951D
:100EC0006B017C016F89788D898D9A8D9B01AC01B6
:100ED0000E94D0319B01AC0160E070E0CB010E9428
:100EE000FF2F4B015C018F8D98A1A9A1BAA1BC0174
:100EF000CD0190589B01AC010E9400309B01AC01D8
:100F0000C501B4010E9471300E94E330CB01770F1C
:100F1000AA0BBB0BC80ED91EEA1EFB1ECB86DC86B5
:100F2000ED86FE86DF91CF91FF90EF90DF90CF901E
:100F3000BF90AF909F908F900895FC018185089598
:100F4000CF93C1E020E030E0A901FC016789708DFA
:100F5000818D928D0E946C30811101C0C0E08C2F78
:100F6000CF910895DC011296ED91FC911397648165
:100F70007581868197810895CF92DF92EF92FF92DB
:100F8000CB01BA019B01AC010E9400306B017C01D6
:100F900020E034E244E75BE40E94CB3118168CF089
:100FA00020E030E044E753E4C701B6010E946C3012
:100FB00087FF0EC0C12CD12C94E7E92E93E4F92EC3
:100FC00007C0C12C84E2D82E84E7E82E8BE4F82EEB
:100FD000A701960160E074E284E79BE40E9471300F
:100FE0000E94EA3070930B0160930A01FF90EF902A
:100FF000DF90CF9008953093F2042093F104109283
:10100000F3040E94BC0780910A0190910B01909318
:1010100089008093880010928500109284001092BD
:10102000800089E080938100EFE6F0E080818260BB
:1010300080830895CF93DF93EC0188899989DC013F
:10104000ED91FC910084F185E02D0995892BA9F3A0
:1010500088899989DC01ED91FC910284F385E02D6A
:10106000DF91CF910994CF93DF93EC01888999891F
:10107000DC01ED91FC910084F185E02D0995892B2F
:10108000A9F388899989DC01ED91FC910484F585A7
:10109000E02DDF91CF9109948F929F92AF92BF92F2
:1010A000CF92DF92EF92FF920F931F93CF93DF9334
:1010B0008C0149015A01EB01C12CD12C7601D801D8
:1010C00050968D919C915197DC01ED91FC91028499
:1010D000F385E02D09958F3F61F0C814D904EA0427
:1010E000FB043CF48993BFEFCB1ADB0AEB0AFB0A43
:1010F000E6CFC701B601DF91CF911F910F91FF900D
:10110000EF90DF90CF90BF90AF909F908F90089519
:10111000DC0150968D919C915197DC01ED91FC91F1
:101120000084F185E02D0994CF93DF93C0912305CE
:10113000D0912405E881F9810084F185E02DCE016C
:101140000995892BB9F3E881F9810284F385E02DB3
:10115000CE01DF91CF9109941F93CF93DF93182F86
:10116000C0912305D09124058A3041F4E881F981AA
:101170000190F081E02D6DE0CE010995E881F981C3
:101180000190F081E02D612FCE01099521E030E042
:10119000019711F420E030E0C901DF91CF911F9158
:1011A0000895089508950F931F93CF93DF936F3F92
:1011B0002FEF720719F480E090E011C0EB018C0171
:1011C0006A3031F46DE0F801808991890E94E70668
:1011D0006C2FF801808991890E94E706CE01DF918A
:1011E000CF911F910F9108957F928F929F92AF920E
:1011F000BF92CF92DF92EF92FF920F931F93CF9304
:10120000DF938C0149015A01EB01C12CD12C7601ED
:10121000C814D904EA04FB04B4F479908AE0781283
:1012200006C06DE0F801808991890E94E706672D6C
:10123000F801808991890E94E706FFEFCF1ADF0A43
:10124000EF0AFF0AE5CFC501B401DF91CF911F91ED
:101250000F91FF90EF90DF90CF90BF90AF909F9055
:101260008F907F9008952F923F924F925F926F924E
:101270007F928F929F92AF92BF92CF92DF92EF9226
:10128000FF920F931F93CF93DF93CDB7DEB72897CD
:101290000FB6F894DEBF0FBECDBF98878F83DC01F9
:1012A000ED91FC910484F585E02D0995882309F4DE
:1012B00028C12FB7F8948091030590910405A0915F
:1012C0000505B09106052FBFEF81F885C78CD0A02A
:1012D000E1A0F2A00785108921893289BC01CD01E6
:1012E000601B710B820B930B0E94193120E030E0E0
:1012F0004AE754E40E947130A70196010E94D03160
:10130000AF81B88553962D913D914D915C91569743
:101310000E9400304B015C01EF81F8850280F3816F
:10132000E02DFA83E9834480558066807780AF8121
:10133000B88593962C90939794963C909497959615
:101340000C91959796961C9196971B968D919D91D1
:101350000D90BC91A02DBC01CD01641975098609C1
:10136000970997FF07C090958095709561957F4F7D
:101370008F4F9F4F0E9419312B013C01C701B601CD
:101380009F779B01AC010E9400309B01AC01C3011F
:10139000B2010E94D0316B017C019101A801B10121
:1013A000C8010E94D0319B01AC01C701B6010E9467
:1013B00000300E9443326B017C01EF81F88561852A
:1013C0007285072E000C880B990B0E941B316B83D2
:1013D0007C838D839E839B01AC01C701B6010E9473
:1013E000D0316B017C0120E030E0A901C501B401DE
:1013F0000E94CB3124013501181624F077FA70943D
:1014000077F8709420E030E0A901C701B6010E948E
:10141000CB3118160CF46CC0F7FAF094F7F8F0948E
:10142000A3019201C701B6010E94CB3118167CF4CA
:1014300020E030E0A901C501B4010E94CB31750163
:101440006401181624F0F7FAF094F7F8F09491017B
:10145000A801C701B6010E946C3087FD16C0A981A2
:10146000BA811A966D917C911B9780E090E00E9462
:1014700019315B018C019B01AC01C701B6010E94CF
:10148000CB31181624F4650101C0610178012B816C
:101490003C814D815E81C701B6010E94D031EF8150
:1014A000F885678B708F818F928F87819085DC01A3
:1014B000ED91FC910480F581E02DB701A6012896FD
:1014C0000FB6F894DEBF0FBECDBFDF91CF911F9155
:1014D0000F91FF90EF90DF90CF90BF90AF909F90D3
:1014E0008F907F906F905F904F903F902F900994D6
:1014F000A7019601C301B2010E946C3087FD98CF0D
:10150000A6CF28960FB6F894DEBF0FBECDBFDF91F1
:10151000CF911F910F91FF90EF90DF90CF90BF90F0
:10152000AF909F908F907F906F905F904F903F9083
:101530002F900895CF93DF93EC018F819885DC0184
:10154000ED91FC910280F381E02D09951F8E18A288
:1015500019A21AA21F8A188E198E1A8E1A86198637
:1015600061E08D810E94461760E08C810E944617E1
:10157000EFA1F8A5309719F0DF91CF910994DF9191
:10158000CF9108958F929F92AF92BF92CF92DF92A8
:10159000EF92FF920F931F93CF93DF93EC010A8199
:1015A0001B81F80184819581A681B7816A017B0145
:1015B000C81AD90AEA0AFB0AD701C6014B875C8719
:1015C0006D877E8761E070E01C141D041E041F04FB
:1015D00014F060E070E08827B7FD83959927AA276B
:1015E000BB277B01E81AF90AFA86E986D8011A9620
:1015F000CD90DC901B97EC9CB001ED9C700DFC9C99
:10160000700D112480E090E00E9419316B8F7C8F67
:101610008D8F9E8FB60180E090E00E9419314B01C2
:101620005C01F8016085718580E090E00E941931CD
:1016300020E030E04AE754E40E9471309B01AC01A5
:10164000C501B4010E9471304B015C01B701FF0C70
:10165000880B990B0E941B319B01AC01C501B401A1
:101660000E94D0316F8F78A389A39AA3D8011C96CA
:101670008C91882319F011E000E002C010E001E035
:1016800060E08C810E94461789859A8597FF02C089
:10169000602F01C0612F8E810E94461760E08D810E
:1016A0000E9446172FB7F894809103059091040586
:1016B000A0910505B09106052FBF8F87988BA98B48
:1016C000BA8BCF88D88CE98CFA8C20E030E0A90165
:1016D000C701B6010E94CB31181624F0C701B6012C
:1016E000905802C0C701B6018BA09CA0ADA0BEA0BF
:1016F000A50194010E946C300F81188587FF2BC0D3
:1017000069857A85072E000C880B990B0E941B3186
:10171000A50194010E94D0316B8B7C8B8D8B9E8BAD
:101720006F8B788F898F9A8FD801ED91FC91019002
:10173000F081E02D9E01B501A401C801DF91CF9198
:101740001F910F91FF90EF90DF90CF90BF90AF90DF
:101750009F908F900994CB8ADC8AED8AFE8AD8010B
:10176000ED91FC91C481D58120E030E0A901C70151
:10177000B6010E94CB31181624F0F7FAF094F7F86E
:10178000F094B701A601C801FE01DF91CF911F912E
:101790000F91FF90EF90DF90CF90BF90AF909F9010
:1017A0008F9009941F93CF93DF93EC01162F8C81B8
:1017B0000E944617EA81FB814481558166817781C9
:1017C000112379F089859A85092E000CAA0BBB0B91
:1017D000840F951FA61FB71F84839583A683B783A5
:1017E00013C08B859C85AD85BE85481759076A0750
:1017F0007B0751F4E881F9810280F381E02DCE016D
:10180000DF91CF911F910994DF91CF911F9108959E
:10181000A1EBB2E01296ED91FC91139736972081DF
:101820003181820F931F14962D913C911597FC01E5
:10183000318320830895DC01ED91FC91369720815E
:101840003181820F931F0C94080CCF93DF93EC012E
:101850000E94080CCE01DF91CF910C94AB2EDC01DD
:10186000ED91FC91369720813181820F931F0C946A
:10187000250C089508950C94AB2EDC01ED91FC919C
:10188000369720813181820F931F0C943B0C0C946E
:10189000AB2E0C94AB2E0C94AB2E27E033E0FC0166
:1018A0003183208321E133E0358B248B67E173E0C2
:1018B0000C943E1CDC01ED91FC9136972081318126
:1018C000820F931F0C944D0CCF93DF93EC010E9479
:1018D0004D0CCE01DF91CF910C94AB2EDC01ED913C
:1018E000FC91369720813181820F931F0C94640CF8
:1018F000CF93DF93EC0184E090E00E94132EBC01B3
:101900008A819B81FB019383828324EA31E03183C6
:101910002083DF91CF910C948319CF93DF93EC0157
:1019200084E090E00E94132EBC018A819B81FB0120
:101930009383828322E231E031832083DF91CF9150
:101940000C9483190F931F93CF93DF93EC018B01BA
:1019500040E25EE460E070E08BE195E00E940F19E8
:1019600002301105A1F484E090E00E94132EBC0126
:101970008A819B81FB019383828326E531E0318359
:101980002083DF91CF911F910F910C948319DF91E8
:10199000CF911F910F910895EF92FF920F931F9394
:1019A000CF93DF93EC018B017A018A819B818617AB
:1019B000970740F4685F7F4F8617970718F4CE01AA
:1019C0000E9441128C819D818017910758F4E88113
:1019D000F981E80FF91F309719F0D7012C91208376
:1019E0000196F2CF1D830C83DF91CF911F910F9150
:1019F000FF90EF900895FC0124813581232B11F095
:101A00001582148208951F920F920FB60F9211241F
:101A10002F933F934F935F936F937F938F939F93F6
:101A2000AF93BF93EF93FF936091F30481E0682736
:101A30006093F3048091F1049091F204DC01ED9144
:101A4000FC910190F081E02D099580910A0190911F
:101A50000B019093890080938800FF91EF91BF91D3
:101A6000AF919F918F917F916F915F914F913F9136
:101A70002F910F900FBE0F901F901895109281001C
:101A80001092850010928400EFE6F0E080818D7F57
:101A900080838FEF90E090938900809388009093EB
:101AA0008B0080938A00109280001092F3040895B6
:101AB0000C943E0D0895AF92BF92CF92DF92EF92B9
:101AC000FF920F931F93CF93DF93CDB7DEB7279786
:101AD0000FB6F894DEBF0FBECDBF8C016B01FC01C9
:101AE000808591859E838D8308969C838B830E943D
:101AF000132E9A83898380E090E02D813E818217A6
:101B0000930778F4F801A481B581A80FB91FE98182
:101B1000FA81E80FF91F309711F02C91208301967C
:101B2000ECCFF601E480F580FBE0EF0EF11C6EE7F0
:101B3000F801808191810E94E7066F2DC8010E9403
:101B400028196E2DC8010E94281960E0C8010E9462
:101B50002819F8018685FF24F394F80E21F492E009
:101B6000F92EF80EF801F6866F2DC8010E9428198B
:101B7000F801A480B580F8012481358180859185A4
:101B8000820F931FA816B90648F4F501E1905F0192
:101B90006E2DC8010E942819FE0CEDCF60E0C8012F
:101BA0000E942819F601A080B180F60120813181C0
:101BB00084819581820F931FA816B90648F4F50118
:101BC000E1905F016E2DC8010E942819FE0CEDCF37
:101BD0006F2D6095C8010E942819CE0101960E94C0
:101BE000A91C27960FB6F894DEBF0FBECDBFDF91BC
:101BF000CF911F910F91FF90EF90DF90CF90BF900A
:101C0000AF900895EF92FF920F931F93CF93DF93BE
:101C1000CDB7DEB728970FB6F894DEBF0FBECDBFA5
:101C20008C017B01AE01485F5F4F62EB73E0CE0138
:101C300001960E94D41DBE016F5F7F4FC7010E94B5
:101C4000DC20F82ECE0101960E94A91CF11019C0CB
:101C500088E090E00E94132EFC01D80112968D912D
:101C60009C911397938382832AE831E03183208308
:101C700025EB33E03783268315821482BF010E944F
:101C8000831928960FB6F894DEBF0FBECDBFDF9143
:101C9000CF911F910F91FF90EF9008950F931F9395
:101CA000CF93DF93CDB7DEB728970FB6F894DEBF9A
:101CB0000FBECDBF8C01DC011296ED91FC91139704
:101CC0001586808191810E949D01AE01485F5F4F22
:101CD00069E074E0CE0101960E94D41DD8011296ED
:101CE000ED91FC911397808191814D815E81698195
:101CF0007A81DC01ED91FC910280F381E02D099560
:101D0000CE0101960E94A91C4CED55E060E070E008
:101D10008BE195E00E940F1928960FB6F894DEBF6C
:101D20000FBECDBFDF91CF911F910F910895089500
:101D3000CF93DF93C0919A05D0919B0520E030E0CE
:101D4000A9016F89788D898D9A8D0E94CB311816E3
:101D5000DCF4E881F9810284F385E02DCE01099558
:101D6000A0919A05B0919B05AB01BC01405E5C4F10
:101D70006F4F7F4FED91FC9111970084F185E02D1D
:101D8000CD01DF91CF910994DF91CF910895CF9349
:101D9000DF93C0919A05D0919B0520E030E0A90126
:101DA0006F89788D898D9A8D0E946C3087FF16C05F
:101DB000EA81FB8180E293E0A0E0B0E08483958338
:101DC000A683B783E881F9810084F185E02D40E0A6
:101DD00050E0BA01CE01DF91CF910994DF91CF910C
:101DE0000895CB010895CF93DF93EC01E881F98149
:101DF0000288F389E02D09958F3F2FEF920731F08C
:101E00002D813E812F5F3F4F3E832D83DF91CF9108
:101E100008958FEF9FEF089560E070E0CB01089583
:101E200080E090E0089580E090E00895FC018789CB
:101E3000908D009769F1248935892817390718F49E
:101E4000308F278B25C001976F3F2FEF720729F442
:101E5000908F878B80E090E008959B01215031099D
:101E60002F3F310558F4262FA089B189A80FB91F3B
:101E70003C91231305C0908F878B08C020E0F4CFDE
:101E8000278524FF05C0908F878B6C93CB01089525
:101E90008FEF9FEF0895CF93DF93EC01E881F981F5
:101EA0000288F389E02D09958F3F2FEF920731F0DB
:101EB0002F89388D2F5F3F4F388F2F8BDF91CF9138
:101EC0000895FC012789308D848995892817390761
:101ED00040F480899189FC01E20FF31F808190E03A
:101EE00008958FEF9FEF0895EF92FF92CF93DF93C6
:101EF000FC01DB0160E070E0CB01E788F08CC48975
:101F0000D589EC16FD06A8F46217730784079507B8
:101F100084F4C089D189CE0DDF1DC881CD936F5F58
:101F20007F4F8F4F9F4FC789D08D2196D08FC78B02
:101F3000E4CFDF91CF91FF90EF900895FC01848969
:101F400095892789308D821B930B0895242FDC01FE
:101F5000ED91FC910084F185E02D41E00994089514
:101F6000089580E090E0089540E157E260E070E07D
:101F70008BE195E00C940F190C94AB2E0C94AB2EC6
:101F80000C94AB2E0C94AB2ECF93DF93EC0184E03A
:101F900090E00E94132EBC018A819B81FB019383F8
:101FA000828324EA31E031832083DF91CF910C9446
:101FB0008319CF93DF93EC0184E090E00E94132E0D
:101FC000BC018A819B81FB019383828326E531E0FA
:101FD00031832083DF91CF910C948319CF93DF93CA
:101FE000EC0184E090E00E94132EBC018A819B8169
:101FF000FB019383828322E231E031832083DF91EE
:10200000CF910C948319CF93DF93EC018A819B814C
:102010000E94171AEA81FB811586808191810E94B6
:102020009D0148E853E160E070E08BE195E0DF91CD
:10203000CF910C940F190C94DF23AF92BF92CF92E3
:10204000DF92EF92FF920F931F93CF93DF931F9234
:10205000CDB7DEB77C0159016A01AC14BD04B9F1FA
:10206000F60181916F018983F701808191818B0154
:10207000081B190B648175816F5F7F4FAE014F5F45
:102080005F4FC7010E946F1CF701248135812150E9
:102090003109F701808191810217130758F4FC017F
:1020A000E20FF31F21503109DC01A20FB31F8C9105
:1020B0008083EFCF2981FC01E00FF11F20830F5FA8
:1020C0001F4FF70160817181600F711FC6CF0F90A4
:1020D000DF91CF911F910F91FF90EF90DF90CF9004
:1020E000BF90AF900895EF92FF920F931F93CF93FD
:1020F000DF931F92CDB7DEB7FC01922F9870822F2D
:1021000080712871283119F44230A9F43BC0413064
:1021100011F48B0116C0423081F4882329F0048920
:102120001589060F171F02C000E010E0992349F03F
:102130000789108D04C0413061F304891589060FA9
:10214000171F2489358920173107E0F0992311F0F2
:10215000108F078B8823A1F07F011982AE014F5F9A
:102160005F4FB801CF0140960E946F1CF701848930
:1021700095892789308D8217930710F4908F878B6C
:10218000C80102C08FEF9FEF0F90DF91CF911F9199
:102190000F91FF90EF900895EF92FF920F931F938E
:1021A000CF93DF931F92CDB7DEB76F3F2FEF72074C
:1021B00019F480E090E028C0FC01278524FF22C0AC
:1021C0007B018C01FC01818D928D248935898217D8
:1021D000930748F06983BE016F5F7F4FC801409647
:1021E0000E94461D07C0F80120893189F901E80FD6
:1021F000F91F6083F801818D928D0196928F818FF6
:10220000C70102C08FEF9FEF0F90DF91CF911F9119
:102210000F91FF90EF9008958F929F92AF92BF928F
:10222000CF92DF92EF92FF920F931F93CF93DF93A2
:102230008C0149015A01EB01C12CD12C7601C81443
:10224000D904EA04FB0464F46991C8010E94BF1A2E
:10225000019649F08FEFC81AD80AE80AF80AEFCFBA
:10226000B401C50102C0B601C701DF91CF911F9132
:102270000F91FF90EF90DF90CF90BF90AF909F9025
:102280008F900895089508950895CF93DF93EC01FA
:1022900083E0888319828DE0EAEBF1E0DE0112969B
:1022A00001900D928A95E1F78AE08F8788EB888B01
:1022B0008BE0898B1A8A1B8A1C8A1D8A1E8A1F8AB8
:1022C000198E188E80E38A8F85E78B8F1C8E1D8E6A
:1022D0001E8E1F8E18A219A2DF91CF9108950F9321
:1022E0001F93CF93DF93CDB7DEB7C454D1090FB698
:1022F000F894DEBF0FBECDBF8C01CE0101960E94C7
:102300004511CE0183960E94451142E250E060E003
:1023100070E0CE0183960E943E2F84E490E00E94FC
:102320004E2F8B3F9A4421F082E2FE01319606C087
:102330008BA18330C9F782E2FE01B396D8010190E8
:102340000D928A95E1F7C801CC5BDF4F0FB6F89488
:10235000DEBF0FBECDBFDF91CF911F910F910895CA
:10236000AF92BF92CF92DF92EF92FF920F931F93A3
:10237000CF93DF931F92CDB7DEB77C016B01FB01DA
:1023800001900020E9F731978F01061B170BFC0124
:10239000A480B5801982B501600F711FAE014F5F37
:1023A0005F4F0E946F1CF70180819181A801B601E7
:1023B0008A0D9B1D0E944F1DC7010F90DF91CF9189
:1023C0001F910F91FF90EF90DF90CF90BF90AF9053
:1023D00008950F931F93CF93DF93EB010990002093
:1023E000E9F72197C61BD70BFC0104811581AE01CB
:1023F0000C171D0708F4A801FC01808191810E943F
:10240000E832892B39F4C017D10720F081E00C178E
:102410001D0708F480E0DF91CF911F910F9108957F
:10242000FB012481358140E050E0608171810C9492
:10243000F11A0F931F93CF93DF93EC01CB01088127
:1024400019817B836A830E94132E99838883D80124
:10245000CD01801B910B2C813D818217930750F495
:10246000E881F981E80FF91F309711F08C91808392
:102470001196EECFC801DF91CF911F910F910C946F
:10248000AB2E0F931F93CF93DF93EC01CB01088109
:1024900019817B836A830E94132E99838883D801D4
:1024A000CD01801B910B2C813D818217930750F445
:1024B000E881F981E80FF91F309711F08C91808342
:1024C0001196EECFC801DF91CF911F910F910C941F
:1024D000AB2ECF93DF93EC018A819B810E94171A68
:1024E000EA81FB8181E08587C281D3811D821C82C4
:1024F0008A819B810E94FB0C1E821F82198618868E
:102500008FEF8A8740E25EE460E070E08BE195E067
:10251000DF91CF910C940F190F931F93CF93DF93FB
:102520001F92CDB7DEB78C01AE014F5F5F4F6DE0FC
:1025300074E00E94D41DC8010F90DF91CF911F91CC
:102540000F9108950F931F93CF93DF931F92CDB7F1
:10255000DEB78C01AE014F5F5F4F64E174E00E9413
:10256000D41DC8010F90DF91CF911F910F91089555
:102570000F931F93CF93DF931F92CDB7DEB78C01DC
:10258000AE014F5F5F4F62E274E00E94D41DC8014C
:102590000F90DF91CF911F910F9108950F931F938B
:1025A000CF93DF931F92CDB7DEB78C0148E853E19C
:1025B00060E070E08BE195E00E940F198091FB04D0
:1025C00081110CC0AE014F5F5F4F69E274E084EF90
:1025D00094E00E94D41D81E08093FB0464EF74E0DA
:1025E000F801828193810E945B0D0F90DF91CF9162
:1025F0001F910F9108950F931F93CF93DF931F9215
:10260000CDB7DEB78C01AE014F5F5F4F60E374E082
:102610000E94D41DC8010F90DF91CF911F910F919F
:1026200008950F931F93CF93DF931F92CDB7DEB71B
:102630008C01AE014F5F5F4F67E374E00E94D41DD1
:10264000C8010F90DF91CF911F910F910895CF9204
:10265000DF92EF92FF920F931F93CF93DF93CDB74B
:10266000DEB72E970FB6F894DEBF0FBECDBFFB01CD
:10267000248135812B303105C8F100811181F801A9
:102680004285403499F56C017801E20EF31E88E032
:1026900090E09B878A871D861C860E94132E99874F
:1026A0008887CE0108960E94FB0CA801465F5F4F09
:1026B000688579859701CE0108960E941D10BE019C
:1026C000685F7F4FCE0101960E94131EBE016F5FAF
:1026D0007F4FF601828193810E945B0DCE010196AE
:1026E0000E94A91CCE0108960E94A91C2E960FB626
:1026F000F894DEBF0FBECDBFDF91CF911F910F9138
:10270000FF90EF90DF90CF900895EF92FF920F939C
:102710001F93CF93DF93CDB7DEB728970FB6F8940A
:10272000DEBF0FBECDBF8C017B01AE01485F5F4FA6
:1027300062EB73E0CE0101960E94D41DBE016F5F73
:102740007F4FC7010E94DC20F82ECE0101960E9427
:10275000A91CFF2089F084E090E00E94132EBC01A8
:10276000F80182819381FB019383828322E231E02D
:10277000318320830E948319C8010E94DF238111C5
:1027800011C084E090E00E94132EBC01F801828108
:102790009381FB019383828320E731E0318320839F
:1027A0000E94831928960FB6F894DEBF0FBECDBFE6
:1027B000DF91CF911F910F91FF90EF900895AF920D
:1027C000BF92CF92DF92EF92FF920F931F93CF931E
:1027D000DF93CDB7DEB727970FB6F894DEBF0FBEF5
:1027E000CDBF6C017B01FB0100811181A480B5800C
:1027F000A00EB11E88E090E09C838B831E821D8218
:102800000E94132E9A838983CE0101960E94FB0CAD
:10281000A801465F5F4F69817A819501CE010196DB
:102820000E941D1062E474E0CE0101960E94E9113D
:102830008823C9F0F70160817181F601828193815B
:102840000E94E01984E090E00E94132EBC01F60182
:1028500082819381FB01938382832BEC31E031836E
:1028600020830E948319CE0101960E94A91C2796FD
:102870000FB6F894DEBF0FBECDBFDF91CF911F9191
:102880000F91FF90EF90DF90CF90BF90AF900895A1
:10289000FF920F931F93CF93DF931F92CDB7DEB7B5
:1028A0008C01F62EBC01CE0101960E942C1C6F2DCE
:1028B000C8010E946D1BC8010F90DF91CF911F913D
:1028C0000F91FF9008952F923F924F925F926F92D7
:1028D0007F928F929F92AF92BF92CF92DF92EF92B0
:1028E000FF920F931F93CF93DF93CDB7DEB72C9753
:1028F0000FB6F894DEBF0FBECDBF6C0129013A01BF
:10290000FC01A18CB28C9E01265F3F4FA201CE013B
:1029100001960E94721DF601E488F588EA14FB0412
:1029200010F40E94D13217012A183B0882012414A6
:10293000350408F481018D809E80E01AF10AC401FB
:1029400080959095E816F90660F7E80CF91CC60129
:1029500040969C878B870815190538F41886AE01B8
:10296000485F5F4FB7010E946F1CF6018089918913
:10297000A101401B510BB501600F711F680F791F3A
:102980009501280D391D820F931F0E94D63269814F
:102990007A81F60180899189A4018A0D9B1D0E948C
:1029A0004F1D1986AE01475F5F4FB7018B859C8530
:1029B0000E946F1CCE0101960E94A91CF601818D18
:1029C000928D840D951D928F818FC301B2012C963B
:1029D0000FB6F894DEBF0FBECDBFDF91CF911F9130
:1029E0000F91FF90EF90DF90CF90BF90AF909F90AE
:1029F0008F907F906F905F904F903F902F900895B1
:102A0000FC01538D448D252F30E0842F90E0821BF4
:102A1000930B541710F0CF96089501970895FC0179
:102A2000918D828D981761F0828DDF01A80FB11D05
:102A30005D968C91928D9F5F9F73928F90E0089529
:102A40008FEF9FEF0895FC01918D828D981731F0E3
:102A5000828DE80FF11D858D90E008958FEF9FEF37
:102A60000895FC01918D228D892F90E0805C9F4F0D
:102A7000821B91098F739927089580E090E0892B3C
:102A800029F00E94A20681110C9400000895CF93B2
:102A9000DF931F92CDB7DEB76983DC01ED91FC9126
:102AA0000280F381E02D41E050E0BE016F5F7F4F77
:102AB00009950F90DF91CF91089583E08093E9000D
:102AC0008091F200882319F08AE38093E80008954A
:102AD000FC018485958597FD0BC09FB7F89482E033
:102AE0008093E9008091F2009FBF90E001960895E5
:102AF0009FB7F89482E08093E9008091F2009FBF35
:102B000090E00895089580E090E0089590E0FC0141
:102B10003197EF30F105B0F5EA5AFF4F0C94CB3204
:102B2000809180008F7703C0809180008F7D80939B
:102B30008000089580918000877FF9CF84B58F77DA
:102B400002C084B58F7D84BD0895809190008F77F9
:102B500007C0809190008F7D03C080919000877F97
:102B60008093900008958091C0008F7703C080917A
:102B7000C0008F7D8093C00008958091C200877F40
:102B80008093C200089508958F929F92AF92BF9252
:102B9000CF92DF92EF92FF920F931F93CF93DF9329
:102BA0006C017B018A0180911701882309F458C0C8
:102BB00080916904882309F453C080917C0580FFCB
:102BC00005C08091E00082608093E000E801B12CB4
:102BD0008AEFA82E93E0892E2AE3922E209711F4F3
:102BE000BB20B9F10E941E21811106C0AA94AA201F
:102BF000B9F10E940421F2CF282F30E0C217D30789
:102C00000CF48C2F9FB7F8948092E9002091E80093
:102C100025FF1DC0282F30E0C21BD30BF7018150C8
:102C200020F041914093F100FACFE20EF31EBB2059
:102C300019F09092E8000AC08091E80085FD07C075
:102C40009092E800BB24B394209709F0B12C9FBF69
:102C5000C5CF5D9884E680937D051016110644F07B
:102C600081E090E0F6019383828380E090E001C0F0
:102C7000C801DF91CF911F910F91FF90EF90DF90EE
:102C8000CF90BF90AF909F908F9008950E941E218B
:102C900090E008950F931F93CF93DF931F92CDB7CA
:102CA000DEB78C01FC018485958597FF0EC0CE01AF
:102CB00001960E94AE02019719F4898190E002C04A
:102CC0008FEF9FEFF80195878487F80184859585BC
:102CD0000F90DF91CF911F910F910895CF93DF93C4
:102CE0001F92CDB7DEB7FC018485958597FD05C0A1
:102CF0002FEF3FEF358724870BC0CE0101960E944E
:102D0000AE02019719F4898190E002C08FEF9FEF26
:102D10000F90DF91CF9108950E94D132FC01848DF4
:102D2000DF01A80FB11DA35ABF4F2C91848D90E0F5
:102D300001968F739927848FA689B7892C93A089D0
:102D4000B1898C9182748C93938D848D981306C075
:102D50000288F389E02D80818F7D80830895EF9232
:102D6000FF920F931F93CF93DF93EC0181E0888F45
:102D70009B8D8C8D981305C0E889F989808185FD2C
:102D800026C0F62E0B8D10E00F5F1F4F0F7311271B
:102D9000E02E8C8DE8120CC00FB607FCFACFE88944
:102DA000F989808185FFF5CFCE010E948E16F1CF83
:102DB0008B8DFE01E80FF11DE35AFF4FF0829FB7A4
:102DC000F8940B8FEA89FB898081806209C09FB7E4
:102DD000F894EE89FF896083E889F989808182749B
:102DE00080839FBF81E090E0DF91CF911F910F9191
:102DF000FF90EF900895CF93DF93EC01888D8823A7
:102E0000C9F0EA89FB89808185FD05C0A889B98957
:102E10008C9186FD0FC00FB607FCF5CF808185FF32
:102E2000F2CFA889B9898C9185FFEDCFCE010E94A0
:102E30008E16E7CFDF91CF910895CF93DF93282FA0
:102E400030E0F901E25CFE4F8491F901E15EFE4F52
:102E5000D491F901E050FF4FC491CC2391F081113E
:102E60000E948615EC2FF0E0EE0FFF1FEE50FF4F93
:102E7000A591B491EC91ED2381E090E021F480E004
:102E800002C080E090E0DF91CF9108951F93CF932F
:102E9000DF93282F30E0F901E25CFE4F8491F901C5
:102EA000E15EFE4FD491F901E050FF4FC491CC2375
:102EB000C1F0162F81110E948615EC2FF0E0EE0F65
:102EC000FF1FEC51FF4FA591B4919FB7F8941111DA
:102ED00004C08C91D095D82302C0EC91DE2BDC93FA
:102EE0009FBFDF91CF911F910895CF93DF9390E023
:102EF000FC01E15EFE4F2491FC01E050FF4F849104
:102F0000882361F190E0880F991FFC01EA52FF4F7E
:102F1000C591D491FC01EC51FF4FA591B491611181
:102F200009C09FB7F8948881209582238883EC910B
:102F30002E230BC0623061F49FB7F8948881322F42
:102F4000309583238883EC912E2B2C939FBF06C052
:102F50008FB7F894E8812E2B28838FBFDF91CF9114
:102F600008953FB7F8948091170590911805A091A6
:102F70001905B0911A0526B5A89B05C02F3F19F079
:102F80000196A11DB11D3FBFBA2FA92F982F8827E9
:102F9000820F911DA11DB11DBC01CD0142E0660F44
:102FA000771F881F991F4A95D1F708951F920F9296
:102FB0000FB60F9211242F933F938F939F93AF934C
:102FC000BF938091030590910405A0910505B091F0
:102FD00006053091160523E0230F2D3720F40196C6
:102FE000A11DB11D05C026E8230F0296A11DB11D2C
:102FF000209316058093030590930405A09305057F
:10300000B09306058091170590911805A0911905B8
:10301000B0911A050196A11DB11D809317059093DB
:103020001805A0931905B0931A05BF91AF919F9110
:103030008F913F912F910F900FBE0F901F90189579
:103040001F920F920FB60F9211242F933F934F931D
:103050005F936F937F938F939F93AF93BF93EF9300
:10306000FF93E0910801F09109010995FF91EF911B
:10307000BF91AF919F918F917F916F915F914F9190
:103080003F912F910F900FBE0F901F9018951F9298
:103090000F920FB60F9211242F933F934F935F938C
:1030A0006F937F938F939F93AF93BF93EF93FF9310
:1030B000E0910601F09107010995FF91EF91BF9111
:1030C000AF919F918F917F916F915F914F913F91C0
:1030D0002F910F900FBE0F901F9018951F920F9277
:1030E0000FB60F9211242F933F934F935F936F93DB
:1030F0007F938F939F93AF93BF93EF93FF93E09151
:103100000401F09105010995FF91EF91BF91AF91F5
:103110009F918F917F916F915F914F913F912F91EF
:103120000F900FBE0F901F9018951F920F920FB621
:103130000F9211242F933F934F935F936F937F933D
:103140008F939F93AF93BF93EF93FF93E09102010F
:10315000F09103010995FF91EF91BF91AF919F917C
:103160008F917F916F915F914F913F912F910F9030
:103170000FBE0F901F9018951F920F920FB60F92CF
:1031800011242F933F934F935F936F937F938F936C
:103190009F93AF93BF93EF93FF93E0910001F09162
:1031A00001010995FF91EF91BF91AF919F918F918F
:1031B0007F916F915F914F913F912F910F900FBE33
:1031C0000F901F9018950F931F93FC018481958198
:1031D000A681B781892B8A2B8B2BE9F08FB7F894C6
:1031E0004091030550910405609105057091060515
:1031F0008FBF80819181A281B381481B590B6A0BDB
:103200007B0B81E0048115812681378140175107AE
:103210006207730708F480E01F910F9108950F93E0
:103220001F93EFB7F89400910305109104052091C6
:10323000050530910605EFBFFC0100831183228351
:10324000338344835583668377831F910F91089559
:103250000F931F93CF938C01C62F80910E05811180
:103260002FC08CE090E090930A058093090584E0DC
:1032700090E090930C0580930B058CE090E00E9409
:10328000132E9093080580930705A1EEB1E0CD01C0
:10329000815E914020910B0530910C0582179307B8
:1032A00060F4E0910705F0910805E80FF91F3097E9
:1032B00011F08C9180831196EACF81E080930E0506
:1032C000809107059091080520910B0530910C0520
:1032D000280F391FFC018217930760F40196408183
:1032E000C413F8CF80E2C8276DE7F801808191818F
:1032F0000E94E7066C2FF80180819181CF911F9188
:103300000F910C94E706EF92FF920F931F93CF93C8
:10331000DF93CDB7DEB727970FB6F894DEBF0FBEA9
:10332000CDBF7C018B01DB01ED91FC910480F58127
:10333000E02DCE010196099566E474E087EF96E0F2
:103340000E941F1DBE016F5F7F4F0E9410120E94DE
:10335000041DCE0101960E94A91CF7018385948566
:103360000097B1F0DC01ED91FC910084F185E02D36
:103370000995F701838594850817190749F0009787
:1033800039F0DC01ED91FC910280F381E02D09958B
:10339000F70114870387D801ED91FC910284F3852E
:1033A000E02DC801099527960FB6F894DEBF0FBE31
:1033B000CDBFDF91CF911F910F91FF90EF900895B6
:1033C000AF92BF92CF92DF92EF92FF921F93CF9373
:1033D000DF93EC017B016C0184E0C80ED11CC601B7
:1033E0000E94FB0C19E01150C1F057018FEFA81A91
:1033F000B80A88859985BC016F5F7F4F861797074C
:1034000030F4A701C6010E94CC0C7501ECCF6817FF
:103410007907D8F779876887F8CFDF91CF911F9127
:10342000FF90EF90DF90CF90BF90AF9008950F93F3
:103430001F93CF93DF93CDB7DEB727970FB6F894DE
:10344000DEBF0FBECDBF8C0180E190E09C838B83FB
:1034500088E090E09E838D8380E190E00E94132EAF
:103460009A838983A5EEB1E0CD01855E91402D81DF
:103470003E818217930750F4E981FA81E80FF91F22
:10348000309711F08C9180831196EECF69817A810B
:10349000C8010E94E019CE0101960E94A91C27963E
:1034A0000FB6F894DEBF0FBECDBFDF91CF911F9155
:1034B0000F9108958038C9F08A3811F58091D605AA
:1034C0009091D705E091CD05F091CE050280F38172
:1034D000E02D0190F081E02D608170E0DC01ED9144
:1034E000FC910088F189E02D0AC08091D605909169
:1034F000D705DC01ED91FC910684F785E02D099458
:10350000089508950C94AB2E089508950C94AB2E55
:10351000DC01ED91FC91369720813181820F931F60
:103520000C94861A0C94AB2E0C94DC02CF93DF9390
:1035300040911F0550912005609121057091220551
:10354000452B462B472BC1F0EC018BE195E00E9407
:10355000E318882389F010921F051092200510921D
:10356000210510922205E881F9810488F589E02D72
:10357000CE01DF91CF910994DF91CF9108951F93F0
:10358000CF93DF93EC01162F8F8580FF0BC0E8816E
:10359000F9810084F185E02D20E144E060E070E0F5
:1035A000CE010995EB85FC852D853E85812F90E028
:1035B000E217F30758F410832B853C852F5F3F4FAC
:1035C0003C872B87DF91CF911F910895E881F98186
:1035D000028CF38DE02DBC01CE01DF91CF911F91C4
:1035E00009948F929F92AF92BF92EF92FF920F93A6
:1035F0001F93CF93DF93EC017B0149015A01E881CE
:10360000F98136970190F081E02DE80FF91F0389C9
:103610001489D8011F968C911F9780FF0BC0ED91E4
:10362000FC910084F185E02D20E144E060E070E051
:10363000C8010995D801ED91FC91008CF18DE02D28
:10364000A5019401B701C80109956F3F7F4F99F417
:10365000E881F98136970190F081E02DEC0FFD1F94
:103660008581982F926023893489232B11F09583CB
:1036700002C083608583CE01DF91CF911F910F91AE
:10368000FF90EF90BF90AF909F908F900895089516
:10369000CF93DF93EC01E881F98136970190F081B7
:1036A000E02DE80FF91F83899489DC01ED91FC91ED
:1036B0000484F585E02D0995019659F4E881F98196
:1036C00036970190F081E02DEC0FFD1F8581816020
:1036D0008583CE01DF91CF910895CF93DF93EC01E5
:1036E000E881F98136970190F081E02DE80FF91F0C
:1036F000838994890E94BF1A019699F4E881F9811F
:1037000036970190F081E02DEC0FFD1F8581982FF9
:10371000926023893489232B11F0958302C0836042
:103720008583CE01DF91CF9108954F925F926F9282
:103730007F928F929F92AF92BF92CF92DF92EF9241
:10374000FF920F931F93CF93DF93EC018B0129011D
:103750003A01E881F98136970190F081E02D3296A7
:10376000E80FF91FC284D384E484F584C21AD30A13
:10377000E40AF50A818192818E709927049729F5D0
:1037800046015701181419041A041B0464F0D701E8
:10379000C601F7FE03C080E090E0DC01C81AD90A38
:1037A000EA0AFB0A12C081E0881A9108A108B10850
:1037B000E881F98136970190F081E02DEC0FFD1F33
:1037C0006089CE010E946D1BDDCFA3019201B8017B
:1037D000CE010E94F11AE881F98136970190F081BB
:1037E000E02DEC0FFD1F838194818E709927029745
:1037F000B9F41C141D041E041F0494F481E0C81ABB
:10380000D108E108F108E881F98136970190F0814B
:10381000E02DEC0FFD1F6089CE010E946D1BE9CFEA
:10382000E881F981369780819181C80FD91F1C8664
:103830001D861E861F86DF91CF911F910F91FF90ED
:10384000EF90DF90CF90BF90AF909F908F907F9040
:103850006F905F904F90089521E0FC012083FB0161
:10386000A081B18116978D919C91E80FF91F8189F4
:103870009289009711F00C94481B0895FB01208158
:103880003181FC0131832083FB0142815381F901A5
:10389000369720813181FC01E20FF31F5183408371
:1038A0000895DB012D913C911197FC013183208318
:1038B000F901369720813181FC01E20FF31F129646
:1038C0008D919C9113979183808381E290E0948302
:1038D0008383548B438B1582158A08950895EF9244
:1038E000FF920F931F93CF93DF93EC018C819D8107
:1038F0008617970710F57A018B018A819B818617BD
:10390000970740F4685F7F4F8617970718F4CE013A
:103910000E9419128C819D818017910758F4E881CB
:10392000F981E80FF91F309719F0D7012C91208306
:103930000196F2CF1D830C8305C06817790710F438
:103940007D836C83DF91CF911F910F91FF90EF905A
:103950000895FC01808191810C94AB2E2DE232E020
:10396000FC013183208340960C94A91CCF93DF93F4
:10397000EC010E94AE1CCE01DF91CF910C94AB2ED6
:10398000CF93DF93EC018FE492E09983888389E5FC
:1039900092E09E8F8D8FCE0102960E94AE1C6FE545
:1039A00072E0CE01DF91CF910C943E1CDC01ED91D1
:1039B000FC91369720813181820F931F0C94C01C9B
:1039C000CF93DF93EC010E94C01CCE01DF91CF9119
:1039D0000C94AB2EDC01ED91FC9136972081318166
:1039E000820F931F0C94E01CCF93DF93EC0188E0CF
:1039F00090E09B838A831D821C820E94132E9983F0
:103A00008883DF91CF9108950F931F93CF93DF9316
:103A10001F92CDB7DEB78C01BC01CE0101960E948A
:103A20002C1C6AE0C8010E946D1BC8010E94481B43
:103A3000C8010F90DF91CF911F910F910895EF92E0
:103A4000FF920F931F93CF93DF931F92CDB7DEB7F3
:103A50008C017B01BC01CE0101960E942C1CF70158
:103A600001900020E9F731979F012E193F0940E0AE
:103A700050E0B701C8010E94951BC8010F90DF916B
:103A8000CF911F910F91FF90EF900895AB01FC0132
:103A900024813581B9016F5F7F4F0C946F1CCF92E9
:103AA000DF92EF92FF920F931F93FB01DC0100E086
:103AB00010E098016A01E12CF12C0C151D052E0572
:103AC0003F0538F461916D930F5F1F4F2F4F3F4FAC
:103AD000F4CF840F951F1F910F91FF90EF90DF900F
:103AE000CF900895CF92DF92EF92FF920F931F93A2
:103AF000CF93DF931F92CDB7DEB78C017B016A01B4
:103B0000B9010E94F41C8FEFC816D80611F40E9468
:103B1000D132F7018081181684F41982AE014F5F0B
:103B20005F4FB601C8010E946F1CF80144815581A6
:103B3000B701808191810E944F1D0F90DF91CF913D
:103B40001F910F91FF90EF90DF90CF900895EF922B
:103B5000FF920F931F93CF93DF931F92CDB7DEB7E2
:103B60008C017B0168177907B1F00E94FB0CF7010B
:103B7000648175811982AE014F5F5F4FC8010E9459
:103B80006F1CF7014481558160817181F80180814A
:103B900091810E944F1DC8010F90DF91CF911F911D
:103BA0000F91FF90EF900895AF92BF92CF92DF9266
:103BB000EF92FF920F931F93CF93DF931F92CDB796
:103BC000DEB76C017B01BA010E94F41CE114F10420
:103BD000F1F0F70101900020E9F731978F010E19FC
:103BE0001F09F601A480B5801982B8016A0D7B1DFA
:103BF000AE014F5F5F4FC6010E946F1CF6018081CE
:103C00009181A801B7018A0D9B1D0E944F1D0F9045
:103C1000DF91CF911F910F91FF90EF90DF90CF90A8
:103C2000BF90AF900895CF92DF92EF92FF920F93E3
:103C30001F93CF93DF93CDB7DEB76B970FB6F89492
:103C4000DEBF0FBECDBF7C018B01DB011496CD9092
:103C5000DC901597B2E0CB16D10440F4AE014F5F73
:103C60005F4F67E573E00E94D41D8BC0BE016C5EA0
:103C70007F4FCE0101960E94F41CBE016C5E7F4F07
:103C8000CE0108960E94F41CB801CE0101960E9454
:103C9000A71D188A198A1A8A1B8AF8016081718106
:103CA0006F5F7F4FCE0108960E94461DF2E0CF164F
:103CB000D10449F480E38F87BE016F5F7F4FC70156
:103CC0000E9474044AC0D8016D917C916E5F7F4F51
:103CD000CE0108960E94461DB3E0CB16D10451F3E5
:103CE000D801ED91FC9183818F87B6E0CB16D1048A
:103CF00000F184818C32E9F439C045505109BF018B
:103D00006B5F7F4F9E01255E3F4FCE0144960E9420
:103D1000721D4AE050E060E070E08C899D890E944D
:103D2000AE2C688B798B8A8B9B8BCE0144960E943C
:103D3000A91CBE016F5F7F4FCE0144960E947404A0
:103D4000AE01455E5F4FBE016C5E7F4FC7010E94B2
:103D50000B1FCE0144960E94A91CCE0108960E941A
:103D6000A91CCE0101960E94A91C0BC0D801149673
:103D70004D915C9115974530510508F0BECF0E94DA
:103D8000D132C7016B960FB6F894DEBF0FBECDBF20
:103D9000DF91CF911F910F91FF90EF90DF90CF9027
:103DA00008950F931F93CF93DF931F92CDB7DEB784
:103DB0008C01AE014F5F5F4F6BE474E00E94D41D35
:103DC000C8010F90DF91CF911F910F910895CF936C
:103DD000DF93EC0142960E94A71D1A8E198E8989E5
:103DE00081FF05C08E899F899C8F8B8F02C01C8E9E
:103DF0001B8EE881F981369780819181C80FD91F88
:103E00008B899C89892B11F01D8202C081E08D83F2
:103E1000DF91CF910895EF92FF920F931F93CF936D
:103E2000DF931F92CDB7DEB78C017B01BA010E94F0
:103E3000F41CF701648175811982AE014F5F5F4FF9
:103E4000C8010E946F1CF80144815581F70160810F
:103E50007181F801808191810E944F1D0F90DF9147
:103E6000CF911F910F91FF90EF9008950F931F93A3
:103E7000CF93DF931F92CDB7DEB78C01AC014E5FBD
:103E80005F4F81E290E0F80191A380A312A213A2F8
:103E900014A286E090E0A0E0B0E085A396A3A7A3DB
:103EA000B0A711A612A613A614A68DED92E0968FC8
:103EB000858F80E285A717A616A651AB40AB12AA44
:103EC0006FE572E0C8010E94511C8FE492E0F80196
:103ED0009183808389E592E0968F858F1682158283
:103EE000108617821286118614861386168615860A
:103EF000108A1786118A8DE292E093838283BE0135
:103F00006F5F7F4FC80142960E94F41CF801128E29
:103F1000118E148E138E80E1818B0F90DF91CF91E3
:103F20001F910F910895FF920F931F93CF93DF93EB
:103F30001F92CDB7DEB78C01F62EBC01CE010196E3
:103F40000E942C1CD801ED91FC9136970190F081D4
:103F5000E02DE00FF11F838184FF10C0FF2039F0B6
:103F600024E030E040E050E065E574E012C025E078
:103F700030E040E050E06AE574E00BC021E030E062
:103F800040E050E0FF2019F060E674E002C062E615
:103F900074E0C8010E94951BD801ED91FC91369701
:103FA0000190F081E02DE00FF11F8381948196FF55
:103FB00003C0C8010E94481BC8010F90DF91CF9138
:103FC0001F910F91FF900895CF92DF92EF92FF9291
:103FD0000F931F93CF93DF93CDB7DEB765970FB6DF
:103FE000F894DEBF0FBECDBF8C01F42EE52ED62E89
:103FF000C72EBC01CE0145960E942C1CD801ED9124
:10400000FC9136970190F081E02DE00FF11F838144
:10401000948185FD18C086FF05C092FD17C089E90F
:1040200093E01FC087FF15C09C012227307292FFCA
:1040300005C0232B89F482EA93E013C0232B79F483
:104040008BEA93E00EC084E694E00BC084E993E031
:1040500008C080E090E005C08DE993E002C087EAE7
:1040600093E0CF92DF92EF92FF929F938F931F92F4
:1040700084E18F939E012F5F3F4F79013F932F93F0
:104080000E94F6329C01990F440B550BB701C801F1
:104090000E94951BD801ED91FC9136970190F0811B
:1040A000E02DE00FF11F838194810FB6F894DEBFFD
:1040B0000FBECDBF96FF03C0C8010E94481BC801B8
:1040C00065960FB6F894DEBF0FBECDBFDF91CF91DE
:1040D0001F910F91FF90EF90DF90CF900895809106
:1040E000830581110DC082E080937F0584E0809379
:1040F0008005109282051092810581E080938305EE
:104100008FE795E00895DF92EF92FF920F931F9350
:10411000CF93DF93D82E8A017B01E40EF51EEB01CD
:10412000CE15DF0571F0D7FE03C0FE01849101C0FA
:1041300088810E94AC0621968111F2CF8FEF9FEF0C
:1041400001C0C801DF91CF911F910F91FF90EF90B7
:10415000DF9008950F931F93CF93DF931F92CDB7F6
:10416000DEB782E0898342E450E06DE571E080E8EB
:104170000E9483200E946F20DC0112960D911C91F9
:1041800013970115110589F0D801ED91FC9102807A
:10419000F381E02DBE016F5F7F4FC801099597FD48
:1041A00004C0F80100851185ECCF89810F90DF9163
:1041B000CF911F910F9108950F931F93CF93DF938A
:1041C000FC0104811581FB01C481D581A801C017C0
:1041D000D10708F4AE01FB0160817181FC0180818F
:1041E00091810E94E832892B49F481E0C017D10700
:1041F00030F00C171D0718F080E001C081E0DF915E
:10420000CF911F910F910895CF92DF92EF92FF927D
:104210000E94B1176B017C010E94B117DC01CB0138
:104220008C199D09AE09BF09883E9340A105B105CF
:1042300098F3FF90EF90DF90CF9008952FB7F89408
:1042400083E08093E9009091E800892F807295FFC8
:1042500004C09091F20080E4891B2FBF08951F9243
:104260000F920FB60F9211248F939F938091E100CC
:104270009091E100937F9093E10083FF0FC0109233
:10428000E90091E09093EB001092EC0092E39093A0
:10429000ED001092690498E09093F00082FF20C036
:1042A00093E09093E9009091F200992319F09AE33A
:1042B0009093E80090917D05992339F090917D05C8
:1042C000915090937D05992389F1909168049923E9
:1042D00039F090916804915090936804992341F1CA
:1042E00084FF10C08091E2008E7E81608093E200A6
:1042F0008091E1008F7E8093E10080917C058E7E2D
:10430000806111C080FF16C08091E2008E7E8061C6
:104310008093E2008091E1008E7E8093E1008091A5
:104320007C058E7E816080937C0504C05D9ACDCF34
:10433000289AD6CF9F918F910F900FBE0F901F900C
:1043400018951F920F920FB60F921124CF92DF9201
:10435000EF92FF920F931F932F933F934F935F938F
:104360006F937F938F939F93AF93BF93EF93FF933D
:10437000CF93DF93CDB7DEB76C97DEBFCDBF109282
:10438000E9008091E80083FFFBC168E0CE0145961B
:104390000E94DA0682EF8093E8008D8987FF05C0CE
:1043A0009091E80090FFFCCF03C09EEF9093E8004F
:1043B000982F907609F0C6C09E894F89588D2F8915
:1043C000F88C91110CC0803829F480917B05809382
:1043D000F10002C01092F1001092F10045C191303D
:1043E00051F4811141C14130510509F03DC1809125
:1043F0007B058D7F0BC0933061F4811135C1413055
:10440000510509F031C180917B05826080937B0565
:104410002BC1953049F48091E80080FFFCCF822FBA
:1044200080688093E30020C1963009F05EC00B8D58
:104430001C8D22E01092E90010927A051092790505
:10444000F21232C010927805109277050E94AA20CD
:1044500099E0BE016F5F7F4FDB01E92F1D92EA9566
:10446000E9F79983FA8291E09E8390EA98879AEF20
:1044700099872091790530917A05275F3F4F3C83DA
:104480002B838D831092E90010927A0510927905A2
:10449000109378050093770549E050E080E00E9492
:1044A00083200E94AA20E0C010937805009377052E
:1044B0000E946F20DC0112960D911C91139701153B
:1044C000110509F4BBC0D801ED91FC910480F58180
:1044D000E02DBE016B5E7F4FC8010995009709F082
:1044E000C7C0F80100851185EACF973009F445C1AE
:1044F000983021F481E08093F100B6C0993009F042
:10450000B3C0837009F039C1ECE3F3E081E031E03E
:1045100096E32081211109C08EE78093EA00109272
:10452000EA008F89809369049FC08093E9003093EB
:10453000EB0021912093EC009093ED008F5F87308A
:1045400041F7EACF8B8D9C8D1092E90010927A058D
:10455000109279059093780580937705898D811164
:1045600053C08E899D89913A49F4813209F005C181
:1045700047E050E060E171E080E0BBC0913209F0BB
:10458000FCC0833269F48F89988DA0E0B0E08093FD
:104590000C0190930D01A0930E01B0930F0164C024
:1045A000803269F48091E80082FFFCCF67E080E10F
:1045B00091E00E94DA068BEF8093E80055C08232CA
:1045C00009F052C08F8980931701EEEFFFE78591C4
:1045D00094918B3F9C4D19F0E0E0F8E002C0EEEFC3
:1045E000FAE08091100190911101A0911201B09117
:1045F0001301803B9440A105B10509F09EC0809154
:10460000170180FF79C099C00E946F20FC010281D0
:1046100013810115110509F4B0C0D801ED91FC9189
:104620000190F081E02DBE016B5E7F4FC8010995BE
:1046300081111AC0F80100851185EBCFF1E0FF165A
:1046400009F44EC0F3E0FF1298C08F89882309F463
:104650004AC0823089F440E860E181EC91E00E9438
:10466000592C882309F489C08EEF8093E80088C014
:1046700018161906CCF381C0813029F440E86BE0AC
:1046800085EB91E0ECCF833009F077C00E946F207A
:10469000DC011296ED90FC9013978E010F5F1F4F77
:1046A0006801E114F10479F0D701ED91FC910680E5
:1046B000F781E02DB801C7010995080F111DF70119
:1046C000E084F184EECFD8011C92F6010190002025
:1046D000E9F73197BF016C197D0940E0C601BFCFF2
:1046E00063EA71E002C06FE971E0FB01449150E0C0
:1046F00080E80E948320B8CFEE3F2AE0F20751F015
:10470000808191818737A7E79A0721F09093FF0A6C
:104710008093FE0A87E797E791838083809160000A
:1047200080937E059BE088E10FB6F894A89580936E
:1047300060000FBE9093600097CF80819181873792
:10474000974709F091CFA895809160008861809388
:10475000600080917E0580936000EE3FBAE0FB0729
:1047600039F08091FE0A9091FF0A918380837CCF7B
:104770001092FF0A1092FE0A77CF81E28093EB003D
:104780006C960FB6F894DEBF0FBECDBFDF91CF9110
:10479000FF91EF91BF91AF919F918F917F916F9119
:1047A0005F914F913F912F911F910F91FF90EF904B
:1047B000DF90CF900F900FBE0F901F9018950F9322
:1047C0001F93CF93DF9300D0CDB7DEB78C018091DC
:1047D000920581110AC0BE016F5F7F4F8BE895E0A3
:1047E0000E94F41C81E0809392058BE895E00E9482
:1047F000FB0C61E174E08BE895E00E94B011D801F8
:1048000016962D913C91179714968D919C91159722
:10481000AC014F5F5F4F15965C934E931497F9016F
:10482000E80FF91F80818A83882399F18C3249F53A
:104830008DE08983BE016F5F7F4F8BE895E00E941A
:10484000461DD8011296ED91FC91139780819181BC
:1048500040918F055091900560918B0570918C056A
:10486000DC01ED91FC910280F381E02D099548E88F
:1048700053E160E070E08BE195E00E940F1981E068
:1048800009C0BE016E5F7F4F8BE895E00E94461D18
:10489000B6CF80E00F900F90DF91CF911F910F91D5
:1048A0000895CF93DF93CDB7DEB7CB54D1090FB6C0
:1048B000F894DEBF0FBECDBF789484B5826084BD0E
:1048C00084B5816084BD85B5826085BD85B5816014
:1048D00085BD80916E00816080936E001092810092
:1048E000809181008260809381008091810081604D
:1048F000809381008091800081608093800080910E
:1049000091008260809391008091910081608093FA
:104910009100809190008160809390008091C1000F
:1049200084608093C1008091C10082608093C10047
:104930008091C10081608093C1008091C30081603B
:104940008093C3008091C00082608093C0008091FA
:10495000C20081608093C20080917A00846080935D
:104960007A0080917A00826080937A0080917A0048
:10497000816080937A0080917A00806880937A00C9
:104980001092690410927B0510927C058091D700EB
:1049900081608093D70080EA8093D80089B58061D8
:1049A00089BD89B5826089BD09B400FEFDCF0E9432
:1049B00004218091D8008F7C80618093D800809101
:1049C000E000807F8093E0008091E1008E7E809304
:1049D000E1008DE08093E200559A209A61E0809199
:1049E00099060E94461760E0809198060E9446173B
:1049F00084E99AE19093BC068093BB0662E085E06F
:104A00000E94751762E086E00E94751780918D06FE
:104A100090918E06409730F460E170E08BE896E06C
:104A20000E9419128091860690918706809730F433
:104A300060E270E084E896E00E9441128FEF9FEF01
:104A400090933405809333058AED95E00E949D0193
:104A500048EE53E060E070E081EE96E00E940F19AE
:104A6000789484E090E00E94132E2BEC35E0DC017A
:104A700013963C932E93129722E231E02D933C93B0
:104A8000BC018BEC95E00E94831962E08091920654
:104A90000E94751762E0809193060E9475178091BD
:104AA0009206882309F40CC4813009F40BC48230C7
:104AB00009F40AC4833009F409C4873009F408C42E
:104AC00080919306882309F409C4813009F408C44D
:104AD000823009F407C4833009F406C4873009F42E
:104AE00005C440E157E260E070E08FEA95E00E9483
:104AF0000F19E091C105F091C20543855485658584
:104B0000768587EB95E00E940F198FEF9FEF0E944B
:104B10002A0244244394512C74E0672E712CE5E062
:104B2000EE2EF12CF6E0CF2ED12C8091E9048111EC
:104B300007C086EB94E00E94361F81E08093E90471
:104B400084E996E00E94330987E295E00E946815A7
:104B5000181619060CF04EC087E295E00E946E16FA
:104B600097FD48C08CAB8D3021F0803491F18A30B4
:104B7000A1F580918F06909190060297D8F1BE0121
:104B80006C5C7F4F8BE896E00E94461D6BE876E0F8
:104B9000CE0101960E94131E8D819E81892B81F08A
:104BA0006AE387EF96E00E944814BE016F5F7F4F73
:104BB0000E94101269EE76E00E9410120E94041DFD
:104BC0008BE896E00E94FB0CCE0101960E94A91C86
:104BD00011C08BE896E00E94FB0C80918F069091AB
:104BE0009006409738F4BE016C5C7F4F8BE896E0EE
:104BF0000E94461D8091D805882309F4EFC00091DA
:104C0000CD051091CE05F80180819181DC01ED91F7
:104C1000FC910084F185E02D0995181619060CF019
:104C200022C142E0A42EB12C53E0852E912CF80134
:104C300080819181DC01ED91FC910084F185E02D72
:104C40000995181619060CF00EC1F80180819181A2
:104C5000DC01ED91FC910284F385E02D099597FD2F
:104C6000E6CF2C968FAF2C978E37A9F4F8011582DA
:104C70001482828193810E94FB0CD80116961C92AB
:104C8000169717961C92179719961C921E921897B2
:104C9000EFEF1A96EC93D80116968C91169788230D
:104CA00051F016961C922C968FAD2C97B0E28B2764
:104CB0002C968FAF2C97F80184819581009709F18C
:104CC0002C962FAD2C972D3719F421E02683AFCFEA
:104CD0008330910529F170F481309105D9F0029764
:104CE00009F0A5CF80859185822B91878087958259
:104CF00084829DCF84309105C9F0059709F447C09F
:104D000096CF2C968FAD2C978E3709F090CF558289
:104D100044828DCFF80110862187B582A48287CF87
:104D2000F801228727837582648281CF82819381F3
:104D3000FC0124813581B9016F5F7F4F261737074A
:104D400030F4AE01455B5F4F0E94CC0C05C062178A
:104D5000730710F475836483F80197812C968FADE7
:104D60002C97890F87830280F381E02DD801189654
:104D70008D919C91199701972481358128173907C6
:104D800009F055CF1596FC92EE92149750CFF8018A
:104D90008781280F2783828193812F3F59F4D58201
:104DA000C4820384F485E02DBC01D8011A968C914D
:104DB00009953DCFF801158214820E94FB0CD801A1
:104DC00016961C92169717961C92179719961C9276
:104DD0001E921897EFEF1A96EC9329CF8091AC04AE
:104DE00081110AC0BE016F5F7F4F85EA94E00E9487
:104DF000F41C81E08093AC048091CB059091CC05AC
:104E0000DC01ED91FC910084F185E02D09951816E7
:104E100019064CF58091CB059091CC05DC01ED9104
:104E2000FC910284F385E02D099597FD1CC08983D0
:104E30008D3091F48091D6059091D705DC01ED91EC
:104E4000FC910484F585E02D65EA74E0099585EA16
:104E500094E00E94FB0C07C0BE016F5F7F4F85EAA4
:104E600094E00E94461D8091D6059091D705DC0103
:104E7000ED91FC910680F781E02D09958FEA95E090
:104E80000E94E318882309F448C1E091C105F0911C
:104E9000C20541815281638174818FEA95E00E944D
:104EA0000F19E091BF05E23108F0E251F0E0E6535E
:104EB000FF4FE49120917B00E3FB222420F8312C6A
:104EC000C10135E0880F991F3A95E1F7922F9F7D38
:104ED000892B80937B00E770E064E0937C008091F5
:104EE0007A00806480937A0080917A0086FDFCCFFE
:104EF000809178002091790090E0922B2A969FAFC4
:104F00008EAF2A97E0919E05F0919F052091A5050F
:104F10003091A60540815181241B350B820F931FD0
:104F20009093A6058093A50520E030E04091A2056E
:104F30005091A305CA0101972817390738F42F5F4C
:104F40003F4F8281938181939193F0CF841795078E
:104F500020F49093A3058093A2052091A20530919F
:104F6000A305C90101962817390730F4BE01685B13
:104F70007F4F0E94F30107C08217930720F490939C
:104F8000A3058093A2058091A5059091A605609147
:104F9000A7057091A8050E9498327093AE056093A2
:104FA000AD0587EB95E00E94E318882309F4B5C0AE
:104FB000E091C105F091C2054385548565857685EC
:104FC00087EB95E00E940F19CE0101960E94361FD3
:104FD0000091AD051091AE0560EF76E0CE0101962F
:104FE0000E9410126FEA73E00E941F1D5C01BC0159
:104FF000CE01865B9F4F0E942C1CA801D501ED912C
:10500000FC9136970190F081E02DEA0DFB1D838124
:10501000948185FD18C086FF05C092FF17C084E902
:1050200093E01FC087FF15C09C012227307292FFBA
:1050300005C0232B89F08DE993E013C0232B79F071
:1050400087EA93E00EC080E993E00BC089E993E022
:1050500008C080E090E005C082EA93E002C08BEADD
:1050600093E01F921F925F934F939F938F931F9292
:1050700084E18F938E010C5C1F4F1F930F930E944E
:10508000F6329C01990F440B550BB801C5010E94E3
:10509000951BD501ED91FC9136970190F081E02DA3
:1050A000EA0DFB1D838194810FB6F894DEBF0FBE1D
:1050B000CDBF96FF03C0C5010E94481B69EE76E094
:1050C000C5010E941012AE01465B5F4FBE016D5ECE
:1050D0007F4FC8010E940B1FB80180919C059091E1
:1050E0009D050E945B0DC8010E94A91CAE01465B94
:1050F0005F4FBE016D5E7F4FC8010E940B1FB8015C
:1051000087EF96E00E9410120E94041DC8010E94C1
:10511000A91CCE0101960E94C01C81EE96E00E945F
:10512000E318882309F4C9C04AEF50E060E070E05A
:1051300081EE96E00E940F1985E00E941D178C01F8
:10514000BB24B394892B09F0B12C8091B504B81617
:1051500099F00115110551F40E942C0440E054E926
:1051600065E377E784E996E00E94C20A012B21F00B
:1051700084E996E00E944607B092B50486E00E945A
:105180001D178C01BB24B394892B09F0B12C80919D
:10519000B404B81699F00115110551F40E94500499
:1051A00040E05CE66AEC78E884E996E00E94C20A96
:1051B000012B21F084E996E00E944607B092B404E6
:1051C00020E030E0A9016091AB067091AC068091BF
:1051D000AD069091AE060E946C30882309F46DC034
:1051E0008091C3059091C405DC01ED91FC9102848E
:1051F000F385E02D099528E030E040E050E00E9482
:10520000AC3249015A018091E6049091E704892B60
:1052100019F01092D80403C081E08093D804AE0145
:105220004C5C5F4F62E574E0CE0101960E94D41D94
:10523000BE016F5F7F4F86EB94E00E94E71ECE01B8
:1052400001960E94A91C64E473E086EB94E00E943E
:105250001F1DB501A4010E94E41F64E473E087EF01
:1052600096E00E941F1DDC01ED91FC9136970190A4
:10527000F081E02D3296E80FF91F218132812F71E4
:10528000206232832183B501A4010E94E41F0E94A1
:10529000041DAE014C5C5F4F68EC74E0CE010196DA
:1052A0000E940B1FBE016F5F7F4F8BEC95E00E9449
:1052B0005B0DCE0101960E94A91C0E943D1535CCC4
:1052C00082E007C083E005C081E003C080E001C048
:1052D00084E068E97EE00E947102F2CB82E007C0C0
:1052E00083E005C081E003C080E001C084E067EC9A
:1052F0007EE00E947102F5CB4F925F926F927F9297
:10530000AF92BF92DF92EF92FF920F931F93CF93D2
:10531000DF93CDB7DEB727970FB6F894DEBF0FBE89
:10532000CDBF9AEDE92E95E0F92E1092DD05109291
:10533000DC0588EE93E0A0E0B0E08093DE0590937A
:10534000DF05A093E005B093E10529E632E0309354
:10535000DB052093DA052DEC30E03093E705209350
:10536000E6052CEC30E03093E9052093E80528ECC5
:1053700030E03093EB052093EA0529EC30E03093E0
:10538000ED052093EC052AEC30E03093EF052093F7
:10539000EE052EEC30E03093F1052093F0051092ED
:1053A000F3051092F4051092F5051092F60507E248
:1053B00015E010922A051092290580932B059093F1
:1053C0002C05A0932D05B0932E058BE792E09093CA
:1053D0002805809327058FEF9FEF909334058093E6
:1053E000330510921B0510921C0510921D0510929A
:1053F0001E0510921F051092200510922105109293
:10540000220521E2A22EB12CB0920F07A0920E0726
:1054100010921007109211071092120736E0432ED7
:10542000512C612C712C40921307509214076092FA
:10543000150770921607109217071092180710920E
:10544000190710921A078DED92E090930C07809344
:105450000B0740E2D42ED0921B0710921D0710922A
:105460001C0789EF96E090931F0780931E07109208
:105470002007AC0167E173E087EF96E00E94511CC2
:1054800087E093E09093F8068093F70681E193E03C
:1054900090930C0780930B071092FD061092FC0668
:1054A0001092FF061092FE0610920107109200075C
:1054B000109203071092020710920507109204073A
:1054C000109207071092060785EE92E09093FA0675
:1054D0008093F90610930A070093090720E12093AF
:1054E0000807B0923D07A0923C0710923E07109229
:1054F0003F07109240074092410750924207609246
:105500004307709244071092450710924607109285
:10551000470710924807D092490710924B07109204
:105520004A0710924E0710922307109224071092F8
:1055300025071092260727E237E030934D07209386
:105540004C0723EA32E030932207209321072DEA0B
:1055500032E030933A072093390710922B071092CC
:105560002A0710922D0710922C0710922F071092E5
:105570002E071092310710923007109233071092C5
:1055800032071092350710923407909328078093C2
:105590002707109338070093370788E08093360772
:1055A00010922605109225051093240500932305DB
:1055B00064E978E08CEA98E00E94AC2D909326058F
:1055C00080932505AE014F5F5F4F61E574E089EE82
:1055D00096E00E94D41DAE014F5F5F4F63E574E01B
:1055E00080EF96E00E94D41D1092E1061092E20630
:1055F0001092E3061092E4061092E5061092E60679
:105600001092E7061092E80685E393E09093E00697
:105610008093DF068FED96E00E943E0D8DEB96E0C5
:105620000E946F1181E293E0909395068093940617
:1056300081E090E090939E0680939D0610929F06D5
:105640001092A0061092A1061092A2061092A30634
:105650001092A4061092A5061092A6061092A70614
:105660001092A8061092A9061092AA061092AF06F0
:105670001092B0061092B1061092B2061092B306C4
:105680001092B4061092B5061092B6068FEB96E013
:1056900090939706809396068FED96E090939C06E4
:1056A00080939B061092AB061092AC061092AD064A
:1056B0001092AE068CE0809398068AE0809399065B
:1056C0008BE080939A0680E090E0AAE7B3E48093B1
:1056D000B7069093B806A093B906B093BA0661E0F6
:1056E0008CE00E94751761E080919A060E94751700
:1056F00061E0809199060E94751761E0809199069A
:105700000E9446171092BC061092BB0683E080935D
:10571000920682E08093930684E996E090939B053D
:1057200080939A05BE016F5F7F4F8BE896E00E94E1
:10573000F41CBE016F5F7F4F84E896E00E94F41C6A
:10574000F0927806E092770684E896E090937A06E5
:10575000809379068AE59AE1909383068093820686
:10576000F092CC05E092CB0587E796E09093CE05CA
:105770008093CD05BE016F5F7F4F8FEC95E00E9457
:10578000F41C1092D8051092D9058091D105909102
:10579000D205089730F468E070E08FEC95E00E9445
:1057A000411284E996E09093C4058093C3058DEB84
:1057B00096E09093C6058093C50582E996E09093A4
:1057C000C8058093C7058BEC95E09093CA0580933C
:1057D000C90590939D0580939C050091CC0610E02F
:1057E00088E0E82EF12CF092A105E092A00510923D
:1057F000A3051092A20580E190E00E94132E9093E1
:105800009F0580939E051093A8050093A705FC8231
:10581000EB821E821D8280E190E00E94132E9A830B
:105820008983CE0101960E94A91C80E090E00E942D
:105830002A021092AF051092B0051092B105109295
:10584000B2051092B3051092B4051092B5051092EE
:10585000B6051092B7051092B8051092B9051092CE
:10586000BA051092BB051092BC051092BD051092AE
:10587000BE0582E190E09093C0058093BF058CEC5B
:1058800096E09093C2058093C10527960FB6F894D1
:10589000DEBF0FBECDBFDF91CF911F910F91FF9063
:1058A000EF90DF90BF90AF907F906F905F904F90A0
:1058B0000895DF92EF92FF920F931F93CF93DF93A0
:1058C000D82EF92EE42E062F10E0C8010196880F7D
:1058D0000E94AC0683E00E94AC06CD2DDF2D0C0F9C
:1058E0001D1FC017D10789F0E7FE03C0FE01849198
:1058F00001C088810E94AC06F82E80E00E94AC06B0
:105900008F2121968111EDCF01C081E0DF91CF91F0
:105910001F910F91FF90EF90DF9008958EE995E031
:105920000E94A91C8FEC95E00E94A91C84E896E0D7
:105930000E94A91C8BE896E00E94A91C80EF96E0CB
:105940000E94A91C89EE96E00E94A91C81E297E0C2
:105950000E94080C87EF96E00C944D0CA0E0B0E09C
:10596000E4EBFCE20C94BA2F5C016B017A01611547
:10597000710519F0FB0191838083E114F10429F092
:10598000C7010297839708F0C9C0E5012196F50188
:105990001081812F90E00E94A32D892B11F05E01D0
:1059A000F4CF1D3229F42196F501118101E007C0E1
:1059B0001B3221F4E5012296F501118100E0E1148A
:1059C000F104B1F0F0E1EF16F10429F4B0C010E3F6
:1059D000E114F10401F12AE0E216F104B1F180E1F1
:1059E000E816F10471F0E8E0EE16F104F1F413C0EA
:1059F000103341F588818F7D883549F719812296CA
:105A00000260F0E1EF2EF12C88248A94982CA82CC7
:105A1000AFE0BA2E20C078E0E72EF12C88248A94DB
:105A2000982CA82CEFE1BE2E16C06FEF7FEFCB01B4
:105A300097010F2C000C440B550B0E948C2F490131
:105A40005A0109C08AE0E82EF12C69E9862E982CCB
:105A5000A82C69E1B62E40E060E070E0CB012701A0
:105A60000F2C000C66087708FE0150ED352E310E24
:105A700029E0231570F42FEB210F2A3118F439ECAB
:105A8000332E06C02FE9210F2A3130F529EA322EB4
:105A9000310E232D30E02E153F05F4F44F3FC9F0B1
:105AA00086169706A806B90688F0A30192010E94FF
:105AB0007C2F232D30E040E050E0620F731F841FE5
:105AC000951F621773078407950710F44FEF01C005
:105AD00041E021961081C8CFC114D10451F0442374
