:100000000C94D6000C9470230C9449230C94222356
:100010000C94FB220C94FE000C94FE000C94D42251
:100020000C94FE000C94FE000C94911F0C94002084
:100030000C94FE000C94FE000C94FE000C94FE0048
:100040000C94FE000C9497230C94FE000C94FE007C
:100050000C94FE000C94FE000C94FE000C948A227A
:100060000C94FE000C9458220C9432220C94FE0046
:100070000C94FE000C94FE000C94FE000C94FE0008
:100080000C94FE000C94FE000C94FE000C94FE00F8
:100090000C94FE000C94FE000C94FE000C94FE00E8
:1000A0000C94FE000C94FE000C94FE000000000076
:1000B000240027002A002D00300000000000250049
:1000C00028002B002E003100000000002300260035
:1000D00029002C002F000404040404030405020278
:1000E00002020403020202020606060606060404D1
:1000F0000202020404040802011040804010204063
:10010000804080080204018040201002011080100D
:10011000204040200000000200090F0000030401FD
:10012000000C0000000000000000000000000000C3
:10013000000000080B000202020100090400000197
:10014000020200000524001001052401010104241D
:10015000020605240600010705810310004009047A
:100160000100020A00000007050202400000070526
:1001700083024000000403090412010002EF02019F
:100180004041233680000101020301417264756918
:100190006E6F204C4C430041726475696E6F204C49
:1001A000656F6E6172646F008A24B52A11241FBEC8
:1001B000CFEFDAE0DEBFCDBF14E0A0E0B1E0E4E8CD
:1001C000F7E602C005900D92AA34B107D9F726E0F0
:1001D000AAE4B4E001C01D92AA3CB207E1F710E026
:1001E000C5EDD0E004C02197FE010E94D330C43D8C
:1001F000D107C9F70E9420260C94B5330C94000057
:100200001F93CF93DF93182FC091E204D091E304A2
:100210008A3041F4E881F9810190F081E02D6DE0B0
:10022000CE010995E881F9810190F081E02D612FDF
:10023000CE01099521E030E0019711F430E020E093
:10024000C901DF91CF911F910895CF93DF93C091A2
:10025000E204D091E304E881F9810084F185E02D86
:10026000CE010995892BB9F3E881F9810284F385E0
:10027000E02DCE01DF91CF910994FC01A089B189D5
:1002800082E08C93A485B5851C92A685B7858FECFA
:100290008C93108EA489B58986E08C93A289B3894A
:1002A0008C9180618C93A289B3898C9188608C93A6
:1002B000A289B3898C9180688C930288F389E02DA0
:1002C00080818F7D80830895109281001092850037
:1002D00010928400EFE6F0E080818D7F80838FEFC5
:1002E00090E0909389008093880090938B00809396
:1002F0008A00109280001092D6040895FC0180912B
:10030000D504882311F13FB7F89482E08093E90087
:100310002091F200822F90E01816190614F481E063
:1003200090E0882339F0289844E64093D404409123
:10033000F1004083222339F02091F200211103C003
:100340002BE62093E8003FBF08958FEF9FEF0895BD
:100350002FB7F89483E08093E9009091E800892F0B
:10036000807295FF04C09091F20080E4891B2FBF3A
:1003700008958091CC0481110DC082E08093C8045F
:1003800084E08093C9041092CB041092CA0481E0E7
:100390008093CC0488EC94E008954091C20450917D
:1003A000C3042091C0043091C10442175307B4F430
:1003B0009091E8009570E1F39091E80092FD19C0EA
:1003C0008093F1008091C2049091C30401968F73D1
:1003D0009927892B19F48EEF8093E8008091C2044D
:1003E0009091C30401969093C3048093C20481E06A
:1003F000089580E00895DF92EF92FF920F931F938C
:10040000CF93DF93D82E8A01EB017B01E40EF51E1A
:10041000CE15DF0559F0D7FE12C0FE0184910E946F
:10042000CD0121968111F4CF0FEF1FEFC801DF91AD
:10043000CF911F910F91FF90EF90DF9008958881E9
:10044000EECF0F931F93CF93DF931F92CDB7DEB7FD
:1004500082E0898342E450E063E371E080E80E9437
:10046000FB010E94B901DC0112960D911C9101154E
:10047000110589F0D801ED91FC910280F381E02D06
:10048000BE016F5F7F4FC801099597FD04C0F80159
:1004900000851185ECCF89810F90DF91CF911F915D
:1004A0000F910895615030F02091F100FC012083FC
:1004B0000196F8CF289884E68093D4040895DC014F
:1004C000ED91FC910190F081E02D0994AF92BF92E3
:1004D000CF92DF92EF92FF920F931F93CF93DF9310
:1004E0006C017B018B01040F151FEB015E01AE183F
:1004F000BF08C017D10759F06991D601ED91FC9161
:100500000190F081E02DC6010995892B79F7C5018D
:10051000DF91CF911F910F91FF90EF90DF90CF90DF
:10052000BF90AF900895CF93C1E020E030E0A901E3
:10053000FC016789708D818D928D0E94882E8111BA
:1005400001C0C0E08C2FCF910895DC011296ED918F
:10055000FC9164817581868197810895FC01538D9A
:10056000448D252F30E0842F90E0821B930B54178D
:1005700010F0CF96089501970895FC01918D828D1A
:10058000981761F0A28DAE0FBF2FB11D5D968C91B3
:10059000928D9F5F9F73928F90E008958FEF9FEFF2
:1005A0000895FC01918D828D981731F0828DE80FAE
:1005B000F11D858D90E008958FEF9FEF0895FC0168
:1005C000918D228D892F90E0805C9F4F821B910935
:1005D0008F73992708958AE595E00E94DF0221E054
:1005E000892B09F420E0822F089580E090E0892B88
:1005F00029F00E94EB0281110C9400000895FC0187
:10060000A48DA80FB92FB11DA35ABF4F2C91848D73
:1006100090E001968F739927848FA689B7892C93D0
:10062000A089B1898C9182748C93938D848D981359
:1006300006C00288F389E02D80818F7D8083089534
:10064000EF92FF920F931F93CF93DF93EC0181E022
:10065000888F9B8D8C8D981319C0E889F9898081CA
:1006600085FF14C09FB7F894EE89FF896083E889FD
:10067000F9898081827480839FBF81E090E0DF915F
:10068000CF911F910F91FF90EF900895F62E0B8D53
:1006900010E00F5F1F4F0F731127E02E8C8D8E110E
:1006A0000CC00FB607FCFACFE889F989808185FF75
:1006B000F5CFCE010E94FF02F1CFEB8DEC0FFD2FA5
:1006C000F11DE35AFF4FF0829FB7F8940B8FEA8930
:1006D000FB8980818062CFCFCF93DF93EC01888D3F
:1006E0008823B9F0AA89BB89E889F9898C9185FDAD
:1006F00003C0808186FD0DC00FB607FCF7CF8C913B
:1007000085FFF2CF808185FFEDCFCE010E94FF02F1
:10071000E9CFDF91CF910895CF93DF931F92CDB7AB
:10072000DEB76983DC01ED91FC910280F381E02D5D
:1007300041E050E0BE016F5F7F4F09950F90DF9160
:10074000CF91089583E08093E9008091F20088239F
:1007500019F08AE38093E80008950E94A80190E0D0
:100760000895CF93DF931F92CDB7DEB7FC01848548
:10077000958597FD08C02FEF3FEF358724870F90B1
:10078000DF91CF910895CE0101960E947E010197DD
:1007900019F4898190E0F3CF8FEF9FEFF0CF0F93A3
:1007A0001F93CF93DF931F92CDB7DEB78C01FC016F
:1007B0008485958597FF0BC0CE0101960E947E012E
:1007C000019771F4898190E0F80195878487F80199
:1007D000848595850F90DF91CF911F910F9108959A
:1007E0008FEF9FEFF1CFFC018485958597FD0BC0BE
:1007F0009FB7F89482E08093E9008091F2009FBF58
:1008000090E0019608959FB7F89482E08093E90004
:100810008091F2009FBF90E0089581508F3008F0E2
:1008200047C0E82FF0E0E95EFB4F0C94D33034046E
:10083000380426042C0430045804580458043B049B
:100840004104450449044F04580453048091800036
:100850008F77809380000895809180008F7DF9CFFD
:1008600080918000877FF5CF84B58F7784BD089510
:1008700084B58F7DFBCF809190008F77809390001F
:100880000895809190008F7DF9CF80919000877FAF
:10089000F5CF8091C0008F778093C000089580913C
:1008A000C0008F7DF9CF8091C200877F8093C20006
:1008B0000895CF93DF93282F30E0F901EC5EFE4FCF
:1008C0008491F901EB50FF4FD491F901EA52FF4FA7
:1008D000C491CC23A1F081110E940D04EC2FF0E013
:1008E000EE0FFF1FE853FF4FA591B491EC91ED235C
:1008F00081E090E009F480E0DF91CF91089580E0FD
:1009000090E0FACF1F93CF93DF93282F30E0F901C7
:10091000EC5EFE4F8491F901EB50FF4FD491F90149
:10092000EA52FF4FC491CC23A9F0162F81110E94E7
:100930000D04EC2FF0E0EE0FFF1FE654FF4FA591E2
:10094000B4918FB7F894EC91111108C0D095DE23C3
:10095000DC938FBFDF91CF911F910895DE2BF8CFED
:10096000CF93DF9390E0FC01EB50FF4F24918A522C
:100970009F4FFC0184918823D1F090E0880F991F4C
:10098000FC01E455FF4FA591B491FC01E654FF4FE3
:10099000C591D491623071F49FB7F8943C91822F45
:1009A000809583238C93E8812E2B28839FBFDF9132
:1009B000CF9108958FB7F894EC912E2B2C938FBF85
:1009C000F6CF3FB7F8948091AB049091AC04A0911E
:1009D000AD04B091AE0426B5A89B05C02F3F19F019
:1009E0000196A11DB11D3FBFBA2FA92F982F8827AF
:1009F000BC01CD01620F711D811D911D42E0660F8A
:100A0000771F881F991F4A95D1F708958F929F925B
:100A1000AF92BF92CF92DF92EF92FF924B015C01B7
:100A20000E94E1046B017C010E94E1046C197D09C4
:100A30008E099F09683E734081059105A8F321E066
:100A4000821A9108A108B10888EEC80E83E0D81E6A
:100A5000E11CF11C81149104A104B10429F7FF9059
:100A6000EF90DF90CF90BF90AF909F908F900895C0
:100A70008F929F92AF92BF92CF92DF92EF92FF92AE
:100A80000F931F93CF93DF936C017B018A018091B9
:100A90001701882309F45CC08091D504882309F4E8
:100AA00057C08091C60480FF05C08091E00082603D
:100AB0008093E000E801B12C8AEFA82E93E0892E04
:100AC0002AE3922E209711F4BB20D9F10E94A801AD
:100AD00081110AC0AA94AA20D9F161E070E080E0F7
:100AE00090E00E940605EECF8C171D0611F00CF069
:100AF0008C2F9FB7F8948092E9002091E80025FDA3
:100B000002C09FBFDFCF282F30E0C21BD30BF701FD
:100B1000815020F041914093F100FACFE20EF31E94
:100B2000BB2021F09092E800B12CEBCF8091E8003F
:100B300085FDE7CF9092E800BB24B394209709F39A
:100B4000F3CF5D9884E68093C704101611063CF03D
:100B500081E090E0F6019383828310E000E0C80119
:100B6000DF91CF911F910F91FF90EF90DF90CF9089
:100B7000BF90AF909F908F9008952FB7F894609199
:100B8000A7047091A8048091A9049091AA042FBF92
:100B900008950895FC0124813581232B11F01582DD
:100BA00014820895CF93DF93EC011D821C828A8109
:100BB0009B810E94CA051E821F82198618868FEFAC
:100BC0008A87DF91CF9108958F929F92AF92BF92C3
:100BD000CF92DF92EF92FF92CF93DF93EC01E88107
:100BE000F9810484F585E02D09958823B9F1E88120
:100BF000F9810284F385E02DCE0109956B017C011A
:100C00006F89788D898D9A8D9B01AC010E94EC2FA4
:100C10009B01AC0160E070E0CB010E941B2E4B01F8
:100C20005C016F8D78A189A19AA190589B01AC01BC
:100C30000E941C2E9B01AC01C501B4010E948D2EA7
:100C40000E94FF2E072E000C880B990BC60ED71E94
:100C5000E81EF91ECB86DC86ED86FE86DF91CF91FD
:100C6000FF90EF90DF90CF90BF90AF909F908F90CC
:100C70000895CF93DF93EC018F819885DC01ED918E
:100C8000FC910280F381E02D09951F8E18A219A214
:100C90001AA21F8A188E198E1A8E1A86198661E07A
:100CA0008D810E94820460E08C810E948204EFA109
:100CB000F8A5309719F0DF91CF910994DF91CF918A
:100CC0000895FC01818508952F923F924F925F9283
:100CD0006F927F928F929F92AF92BF92CF92DF924C
:100CE000EF92FF920F931F93CF93DF93EC01EA8073
:100CF000FB80F70184819581A681B7818A019B01E0
:100D0000081B190B2A0B3B0BD901C8014B875C87C9
:100D10006D877E8701E010E0181619061A061B067B
:100D200014F010E000E08827B7FD83959927AA27E3
:100D3000BB27081B190B1A870987D7011A96CD9074
:100D4000DC900C9DB0010D9D700D1C9D700D11244B
:100D500090E080E00E94352F6B8F7C8F8D8F9E8F6F
:100D6000B60190E080E00E94352F4B015C01F70155
:100D70006085718590E080E00E94352F20E030E0B2
:100D80004AE754E40E948D2E9B01AC01C501B401D9
:100D90000E948D2E4B015C01B801110F880B990B3D
:100DA0000E94372F9B01AC01C501B4010E94EC2FBA
:100DB0006F8F78A389A39AA3D7011C968C9100E02A
:100DC00011E0882311F001E010E060E08C810E94C6
:100DD000820489859A8597FF102F612F8E810E944A
:100DE000820460E08D810E9482040E94BD056F87AD
:100DF000788B898B9A8BCF88D88CE98CFA8C20E001
:100E000030E0A901C701B6010E94E72F4601570152
:100E1000181624F0B7FAB094B7F8B0944BA05CA0C1
:100E20006DA07EA00F811885F80120803180A5017A
:100E30009401C301B2010E94E72F181674F5698569
:100E40007A85072E000C880B990B0E94372FA3017F
:100E500092010E94EC2F6B8B7C8B8D8B9E8B6F8B0A
:100E6000788F898F9A8FD101ED91FC919E01B3010A
:100E7000A201C801DF91CF911F910F91FF90EF90D8
:100E8000DF90CF90BF90AF909F908F907F906F90AA
:100E90005F904F903F902F900994CB8ADC8AED8A27
:100EA000FE8AD1011496ED91FC91B501A401C8010F
:100EB000DF91CF911F910F91FF90EF90DF90CF9036
:100EC000BF90AF909F908F907F906F905F904F906A
:100ED0003F902F9009941F93CF93DF93EC01162F2F
:100EE0008C810E948204EA81FB8144815581668164
:100EF0007781112391F089859A85092E000CAA0B20
:100F0000BB0B840F951FA61FB71F84839583A683F1
:100F1000B783DF91CF911F9108958B859C85AD8517
:100F2000BE85481759076A077B0799F7E881F98159
:100F30000280F381E02DCE01DF91CF911F910994C2
:100F4000CF92DF92EF92FF92CB01BA019A01AC01EE
:100F50000E941C2E6B017C0120E034E244E75BE43C
:100F60000E94E72F18161CF120E030E044E753E41C
:100F7000C701B6010E94882E87FF06C0C12CD12C64
:100F800094E7E92E93E4F92EA701960160E074E25C
:100F900084E79BE40E948D2E0E94062F709301012E
:100FA00060930001FF90EF90DF90CF900895C12CE7
:100FB00084E2D82E84E7E82E8BE4F82EE5CF309338
:100FC0009604209395041092D6040E94A007809165
:100FD0000001909101019093890080938800109204
:100FE0008500109284001092800089E08093810037
:100FF000EFE6F0E080818260808308950C946401C4
:10100000FF920F931F93CF93DF938C01EB016F3F00
:101010007607B9F0F62EEAE06E1306C06DE0F8012F
:10102000808991890E945F026F2DF80180899189E2
:101030000E945F02CE01DF91CF911F910F91FF902F
:101040000895D0E0C0E0F6CF7F928F929F92AF924A
:10105000BF92CF92DF92EF92FF920F931F93CF93A5
:10106000DF938C0149015A01EB01C12CD12C76018F
:10107000C814D904EA04FB04B4F479908AE0781225
:1010800006C06DE0F801808991890E945F02672D9A
:10109000F801808991890E945F02FFEFCF1ADF0A71
:1010A000EF0AFF0AE5CFC501B401DF91CF911F918F
:1010B0000F91FF90EF90DF90CF90BF90AF909F90F7
:1010C0008F907F900895CF93DF93EC018889998961
:1010D000DC01ED91FC910084F185E02D0995892BCF
:1010E000A9F388899989DC01ED91FC910284F3854B
:1010F000E02DDF91CF910994CF93DF93EC018889A4
:101100009989DC01ED91FC910084F185E02D099530
:10111000892BA9F388899989DC01ED91FC910484DC
:10112000F585E02DDF91CF9109948F929F92AF9238
:10113000BF92CF92DF92EF92FF920F931F93CF93C4
:10114000DF938C0149015A01EB01C12CD12C7601AE
:10115000D80150968D919C91DC01ED91FC91028417
:10116000F385E02D09958F3F61F0C814D904EA0496
:10117000FB043CF48993BFEFCB1ADB0AEB0AFB0AB2
:10118000E7CFC701B601DF91CF911F910F91FF907B
:10119000EF90DF90CF90BF90AF909F908F90089589
:1011A000DC0150968D919C91DC01ED91FC910084C5
:1011B000F185E02D0994DC01ED91FC9136970190C9
:1011C000F081E02DE80FF91F81E592E091838083A3
:1011D0008BE592E097838683089521E532E0FC0158
:1011E000318320832BE532E0378326830895FB018A
:1011F00020813181FC0131832083FB0142815381B5
:1012000026503109F90120813181820F931FFC01A1
:101210005183408308952DE632E0FC013183208321
:1012200027E732E0318F208F61E672E00C94F708F7
:10123000DC01ED91FC91369720813181820F931F63
:101240000C940B0908950895DC011296ED91FC9120
:101250001586808191810E943D010E94BD05EAEDC5
:10126000F4E0608371838283938388E893E1A0E054
:10127000B0E084839583A683B78308950895DC0145
:101280001296ED91FC9181E08587828193810E9485
:10129000D2050E94BD05EAEDF4E06083718382838C
:1012A000938380E49CE9A0E0B0E084839583A683E7
:1012B000B7830895CF93DF93EC0181E0888389831E
:1012C0008DE0EEE1F1E0DE01129601900D928A953B
:1012D000E1F71F86188A198A1A8A84EF91E09C8B9D
:1012E0008B8B80E499EBA6E0B0E08D8B9E8BAF8B6F
:1012F000B88F80E699E09A8F898FDF91CF9108951A
:10130000CB010895CF93DF93EC01E881F981028846
:10131000F389E02D09958F3F980731F02D813E81AB
:101320002F5F3F4F3E832D83DF91CF9108958FEF45
:101330009FEF089560E070E0CB01089590E080E0B9
:10134000089590E080E0089590E080E00895FC0129
:101350008789908D009739F02489358928173907B6
:1013600028F4308F278B6FEF7FEF08C001976F3F16
:10137000760731F4908F878B70E060E0CB010895A1
:10138000A089B189A80FB91F9B01215031092F3FB6
:10139000310538F4262F3C91321305C0908F878B8E
:1013A000EDCF20E0F8CF278524FFDDCF908F878B0E
:1013B0006C93E4CFCF93DF93EC01E881F98102884D
:1013C000F389E02D09958F3F980731F02F89388DEB
:1013D0002F5F3F4F388F2F8BDF91CF910895DC0126
:1013E00057968D919C91589754962D913C91559775
:1013F0008217930740F45096ED91FC91E80FF91F86
:10140000808190E008958FEF9FEF0895EF92FF9213
:10141000CF93DF93FC01DB0160E070E0CB01E78854
:10142000F08CC489D589EC16FD06A8F46217730701
:101430008407950784F4C089D189CE0DDF1DC8814A
:10144000CD936F5F7F4F8F4F9F4FC789D08D219670
:10145000D08FC78BE4CFDF91CF91FF90EF900895AD
:10146000FC01848995892789308D821B930B08950F
:10147000242FDC01ED91FC910084F185E02D41E009
:101480000994089508950895DC01ED91FC91369733
:101490000190F081E02DE80FF91F85E991E091833B
:1014A00080838FE991E093838283089525E931E079
:1014B000FC01318320832FE931E0338322830895B7
:1014C000FB0120813181FC0131832083FB014281BA
:1014D000538126503109F90120813181820F931FF8
:1014E000FC0151834083089529E832E0FC013183F7
:1014F000208323E932E0358B248B6DE772E00C9476
:10150000600ADC01ED91FC91369720813181820FD8
:10151000931F0C94740A0895FC0181E290E0948377
:10152000838315821682178286E090E0A0E0B0E007
:1015300080879187A287B3871486158616861786BB
:101540008BE891E09183808380E2808B128A118AFC
:10155000748B638B158A0895CF92DF92EF92FF927E
:10156000DC011296ED91FC911397C588D688E78827
:10157000F08C8D919C91DC01ED91FC910284F385BE
:10158000E02D099597FF05C06C0D7D1D8E1D9F1DDB
:10159000F9CFA70196010E94B430FF90EF90DF9041
:1015A000CF9008958F929F92AF92BF92CF92DF9289
:1015B000EF92FF926A017B01DC011296ED91FC91A2
:1015C00085889688A788B08C0E94AC0AC61AD70A6C
:1015D000E80AF90A09F1C501B40122E030E040E06F
:1015E00050E00E94B4302C153D054E055F0524F4F3
:1015F000C818D908EA08FB0888279927DC01821B4C
:10160000930BA40BB50BC816D906EA06FB0624F407
:10161000C80CD91CEA1CFB1CC701B601FF90EF9057
:10162000DF90CF90BF90AF909F908F90089590E003
:1016300080E008951F93CF93DF93EC01162F8F85E1
:1016400080FF0BC0E881F9810084F185E02D20E165
:1016500044E070E060E0CE010995EB85FC85812FC8
:1016600090E02D853E85E217F30758F410832B8513
:101670003C852F5F3F4F3C872B87DF91CF911F9198
:101680000895E881F981028CF38DE02DBC01CE0133
:10169000DF91CF911F9109948F929F92AF92BF9249
:1016A000CF92DF92EF92FF920F931F93CF93DF932E
:1016B0008C0149015A01EB01C12CD12C7601C814CF
:1016C000D904EA04FB0464F46991C8010E941A0B6E
:1016D000019641F08FEFC81AD80AE80AF80AEFCF4E
:1016E00075016401C701B601DF91CF911F910F9180
:1016F000FF90EF90DF90CF90BF90AF909F908F9032
:1017000008958F929F92AF92BF92EF92FF920F93A4
:101710001F93CF93DF93EC017B0149015A01E881CC
:10172000F98136970190F081E02DE80FF91F0389C8
:101730001489D8011F968C911F9780FF0BC0ED91E3
:10174000FC910084F185E02D20E144E070E060E050
:10175000C8010995D801ED91FC91008CF18DE02D27
:10176000A5019401B701C80109956F3F7F4F79F436
:10177000E881F98136970190F081E02DEC0FFD1F93
:10178000858123893489232B71F082608583CE0182
:10179000DF91CF911F910F91FF90EF90BF90AF908D
:1017A0009F908F9008958360F1CFFB012481358154
:1017B00050E040E0608171810C94810BCF93DF9306
:1017C000EC01E881F98136970190F081E02DE80F76
:1017D000F91F838994890E941A0B019679F4E88194
:1017E000F98136970190F081E02DEC0FFD1F858186
:1017F00023893489232B31F082608583CE01DF91E8
:10180000CF9108958360F9CFCF93DF93EC01E88106
:10181000F98136970190F081E02DE80FF91F838957
:101820009489DC01ED91FC910484F585E02D099506
:10183000019659F4E881F98136970190F081E02D05
:10184000EC0FFD1F858181608583CE01DF91CF91F3
:1018500008954F925F926F927F928F929F92AF9274
:10186000BF92CF92DF92EF92FF920F931F93CF938D
:10187000DF93EC018B0129013A01E881F981369768
:101880000190F081E02D3296E80FF91FC284D384D5
:10189000E484F584C418D508E608F70881819281AC
:1018A0008E709927049791F4460157011814190472
:1018B0001A041B04B4F1D701C601F7FE03C080E08F
:1018C00090E0DC01C81AD90AEA0AFB0AA3019201D6
:1018D000B801CE010E94810BE881F9813697019011
:1018E000F081E02DEC0FFD1F838194818E7099278C
:1018F000029749F5E881F98136970190F081E02D52
:101900001C141D041E041F04F4F481E0C81AD1083D
:10191000E108F108EC0FFD1F6089CE010E94DE0B8B
:10192000E9CF81E0881A9108A108B108E881F9811E
:1019300036970190F081E02DEC0FFD1F6089CE01FC
:101940000E94DE0BB3CFE881F981369780819181C7
:10195000C80FD91F1C861D861E861F86DF91CF915A
:101960001F910F91FF90EF90DF90CF90BF90AF90BD
:101970009F908F907F906F905F904F90089521E09F
:10198000DC012C93DB01ED91FC91369780819181F4
:10199000680F791FFB0181899289009711F00C94DF
:1019A000040C0895FF920F931F93CF93DF931F9220
:1019B000CDB7DEB78C01F62EBC01CE0101960E9498
:1019C000BF0C6F2DC8010E94DE0BC8010F90DF9184
:1019D000CF911F910F91FF9008950F931F93CF9375
:1019E000DF931F92CDB7DEB78C01BC01CE0101960B
:1019F0000E94BF0C6AE0C8010E94DE0BC8010E9471
:101A0000040CC8010F90DF91CF911F910F910895A1
:101A1000FF920F931F93CF93DF931F92CDB7DEB743
:101A20008C01F62EBC01CE0101960E94BF0CD8019C
:101A3000ED91FC9136970190F081E02DE00FF11FC0
:101A4000838184FF29C024E030E040E050E06AEF69
:101A500072E0F11006C025E030E040E050E06FEFAA
:101A600072E0C8010E94290CD801ED91FC913697D3
:101A70000190F081E02DE00FF11F8381948196FFAA
:101A800003C0C8010E94040CC8010F90DF91CF91E0
:101A90001F910F91FF90089521E030E040E050E069
:101AA00065E073E0F110DDCF67E073E0DACF8038F6
:101AB000C9F08A3811F58091560590915705E0914B
:101AC0004D05F0914E050280F381E02D0190F081EB
:101AD000E02D608170E0DC01ED91FC910088F189DE
:101AE000E02D09948091560590915705DC01ED9108
:101AF000FC910684F785E02DF4CF089508950895AC
:101B00000F931F93CF93DF934091DE045091DF0436
:101B10006091E0047091E104452B462B472B79F14D
:101B2000EC010E94BD050091DA041091DB042091C4
:101B3000DC043091DD04601B710B820B930B009170
:101B4000DE041091DF042091E0043091E10460177D
:101B500071078207930798F01092DE041092DF0459
:101B60001092E0041092E104E881F9810488F5897B
:101B7000E02DCE01DF91CF911F910F910994DF915C
:101B8000CF911F910F910895CF92DF92EF92FF9224
:101B90000F931F93FB01DC0100E010E098016A0144
:101BA000F12CE12C0C151D052E053F0538F4619133
:101BB0006D930F5F1F4F2F4F3F4FF4CF840F951F33
:101BC0001F910F91FF90EF90DF90CF900895DB0170
:101BD0002D913C911197FC013183208312966D91D8
:101BE0007C9126503109D901ED91FC91E80FF91F44
:101BF0007183608381E290E094838383548B438B71
:101C00001582158A0895CF93DF93EC0188E090E068
:101C10009B838A831D821C820E942B2C998388833C
:101C2000DF91CF9108950F931F93CF93DF93EC0132
:101C30008C010E5F1F4FB8014D960E948C0AA801BF
:101C40006DE671E0CE010E94E70D89E791E099838E
:101C5000888383E891E09E8F8D8F1E821D82188677
:101C60001F821A8619861C861B861E861D86188A68
:101C70001F86198A87EA91E09B838A83CE01429668
:101C80000E94030E1A8E198E1C8E1B8E80E1898B8A
:101C9000DF91CF911F910F9108950F931F93CF93D1
:101CA0008C01C62F80919E0481112FC08CE090E0A2
:101CB00090939A048093990484E090E090939C041C
:101CC00080939B048CE090E00E942B2C90939804CE
:101CD00080939704E7E6F1E0CF0187569140A09109
:101CE0009704B091980420919B0430919C04821732
:101CF000930740F4A80FB91F109711F080818C93BF
:101D00003196EACF81E080939E04E0919704F091B0
:101D1000980480919B0490919C048E0F9F1FE8175C
:101D2000F90758F421912C13FACF80E2C8276DE708
:101D3000F801808191810E945F026C2FF8018081FF
:101D40009181CF911F910F910C945F02EF92FF92BE
:101D50000F931F93CF93DF931F92CDB7DEB78C0104
:101D60007B01BC01CE0101960E94BF0CF7010190DE
:101D70000020E9F73197EE19FF099F0150E040E09C
:101D8000B701C8010E94290CC8010F90DF91CF91C3
:101D90001F910F91FF90EF900895809136050E945A
:101DA000590421E0892B09F420E02093D904809183
:101DB000D804882341F169E073E086E696E00E944A
:101DC000A60E0E94ED0C8091390590913A05E091A4
:101DD0003705F09138054081518162817381DC01C2
:101DE0001296ED91FC911397448355836683778314
:101DF0001092D80421E02093D704ED91FC91048047
:101E0000F581E02D099408952F923F924F925F92B1
:101E10006F927F928F929F92AF92BF92CF92DF92FA
:101E2000EF92FF920F931F93CF93DF9300D000D0D8
:101E3000CDB7DEB79C838B83DC01ED91FC910484EC
:101E4000F585E02D0995882309F4FFC00E94BD05A2
:101E5000EB81FC81878C90A0A1A0B2A0078510899E
:101E600021893289601B710B820B930B0E94352FE5
:101E700020E030E04AE754E40E948D2EA501940151
:101E80000E94EC2FAB81BC8153962D913D914D91D9
:101E90005C9156970E941C2E6B017C01EB81FC81AA
:101EA0000280F381E02DFA83E983448055806680C7
:101EB0007780AB81BC8193963C90939794962C90BD
:101EC000949795960C91959796961C9196971B963C
:101ED0006D917D918D919C911E976419750986096C
:101EE000970997FF07C090958095709561957F4FF2
:101EF0008F4F9F4F0E94352F2B013C01C501B4012C
:101F00009F779B01AC010E941C2E9B01AC01C30179
:101F1000B2010E94EC2F4B015C01232D322DA80150
:101F2000632D722DC8010E94EC2F9B01AC01C501ED
:101F3000B4010E941C2E0E945F304B015C01EB81BA
:101F4000FC8161857285072E000C880B990B0E941D
:101F5000372F2B013C01AC019B01C501B4010E944C
:101F6000EC2F4B015C0120E030E0A901C701B60174
:101F70000E94E72F181624F0F7FAF094F7F8F0947F
:101F800020E030E0A901C501B4010E94E72F181636
:101F900024F0B7FAB094B7F8B094A5019401C70142
:101FA000B6010E94882E87FD02C075016401232DB1
:101FB000322DA801C701B6010E94882E87FD42C0BC
:101FC000A981BA811A966D917C9190E080E00E947F
:101FD000352F5B018C019B01AC01C701B6010E944A
:101FE000E72F181614F465017801A3019201C701C7
:101FF000B6010E94EC2FEB81FC81678B708F818F83
:10200000928F87819085DC01ED91FC910480F581B0
:10201000E02DB701A6010F900F900F900F90DF9168
:10202000CF911F910F91FF90EF90DF90CF90BF90D5
:10203000AF909F908F907F906F905F904F903F9068
:102040002F900994C32CD22CCFCF0F900F900F90CC
:102050000F90DF91CF911F910F91FF90EF90DF9044
:10206000CF90BF90AF909F908F907F906F905F9038
:102070004F903F902F900895CF93DF93EC010E94F3
:10208000740ACE01DF91CF910C94C72CDC01ED9145
:10209000FC91369720813181820F931F0C943C1064
:1020A000CF93DF93EC010E940B09CE01DF91CF911A
:1020B0000C94C72CDC01ED91FC9136972081318185
:1020C000820F931F0C9450100C94C72CDC01ED91DF
:1020D000FC91369720813181820F931F0C946410FC
:1020E0000C94C72C0C94C72C0C94C72C0C94C72CA4
:1020F0000C94C72C0C94C72C0C94C72C0C94C72C94
:10210000DC01ED91FC91369720813181820F931F84
:102110000C947E100C94C72C0F931F93CF93DF93D6
:10212000EC01CB01088119817B836A830E942B2CEF
:1021300099838883F801CF01801B910B2C813D810D
:102140008217930750F4A881B981A80FB91F10977F
:1021500011F080818C933196EECFC801DF91CF9141
:102160001F910F910C94C72CEF92FF920F931F9326
:10217000CF93DF93EC018C819D818617970740F503
:102180007A018B018A819B818617970740F4685FEB
:102190007F4F8617970718F4CE010E948C108C8110
:1021A0009D818017910758F4E881F981E80FF91FA4
:1021B000309719F0D7012C9120830196F2CF1D831F
:1021C0000C83DF91CF911F910F91FF90EF900895B5
:1021D00068177907B0F77D836C83F3CFEF92FF9296
:1021E0000F931F93CF93DF931F92CDB7DEB78C0170
:1021F0007B010E94030EF701648175811982AE0193
:102200004F5F5F4FC8010E94B410F80144815581AF
:10221000F70160817181F801808191810E94C40D74
:102220000F90DF91CF911F910F91FF90EF90089544
:10223000AF92BF92CF92DF92EF92FF920F931F93D4
:10224000CF93DF931F92CDB7DEB78C0159016A019E
:10225000AC14BD04D1F1F60181916F018983F801BD
:10226000808191817B01E81AF90A648175816F5F31
:102270007F4FAE014F5F5F4FC8010E94B410F8015D
:102280002481358121503109F80180819181E21644
:10229000F30668F4A90141505109FC01E40FF51F50
:1022A0006081820F931FFC0160839A01EDCF298129
:1022B0008E0D9F1DFC012083FFEFEF1AFF0AF8012E
:1022C000608171816E0D7F1DC3CF0F90DF91CF9123
:1022D0001F910F91FF90EF90DF90CF90BF90AF9044
:1022E0000895EF92FF920F931F93CF93DF931F9266
:1022F000CDB7DEB7FC01822F8870922F90712871C4
:10230000283131F4423009F03FC08FEF9FEF23C0F6
:10231000413049F58B012489358920173107A8F30D
:10232000882311F0108F078B9923A1F07F01198268
:10233000AE014F5F5F4FB801CF0140960E94B410CD
:10234000F701848995892789308D8217930710F4C6
:10235000908F878BC8010F90DF91CF911F910F91C4
:10236000FF90EF900895423089F404891589060F93
:10237000171F911102C010E000E0882361F2078965
:10238000108D060F171FC7CF413021F20489158920
:10239000F8CFAF92BF92CF92DF92EF92FF920F935E
:1023A0001F93CF93DF931F92CDB7DEB77C016B01F4
:1023B000FB0101900020E9F731978F01061B170BF5
:1023C000FC01A480B5801982B501600F711FAE01B8
:1023D0004F5F5F4F0E94B410F70180819181A80187
:1023E000B6018A0D9B1D0E94C40DC7010F90DF919D
:1023F000CF911F910F91FF90EF90DF90CF90BF9002
:10240000AF900895CF92DF92EF92FF920F931F93B8
:10241000CF93DF931F92CDB7DEB78C017B016A01AA
:102420000E94030E8FEFC816D80611F40E94D9300F
:10243000F7018081181684F41982AE014F5F5F4F57
:10244000B601C8010E94B410F80144815581B7015A
:10245000808191810E94C40D0F90DF91CF911F91D7
:102460000F91FF90EF90DF90CF900895AB01FC01AA
:10247000648175816F5F7F4F0C94B4100F931F932D
:10248000CF93DF9300D0CDB7DEB78C0180916F047E
:10249000811107C088E694E00E94030E81E08093DA
:1024A0006F0488E694E00E94CA0567E173E088E65D
:1024B00094E00E94C911D8011696ED91FC911797EE
:1024C00014968D919C9115979C012F5F3F4F159607
:1024D0003C932E931497E80FF91F80818A838823F9
:1024E00009F446C08C32E1F58DE08983BE016F5F4F
:1024F0007F4F88E694E00E943612D8011296ED9143
:10250000FC918081918140916C0450916D046091A7
:10251000680470916904DC01ED91FC910280F38103
:10252000E02D09950E94BD056093DA047093DB04E9
:102530008093DC049093DD0488E893E1A0E0B0E0B0
:102540008093DE049093DF04A093E004B093E10451
:1025500081E00F900F90DF91CF911F910F9108951F
:10256000BE016E5F7F4F88E694E00E943612A3CFD3
:1025700080E0EFCF0C943E12EF92FF920F931F93E7
:10258000CF93DF931F92CDB7DEB78C017B016F3FF6
:10259000760779F1D8011F968C911F9784FF2CC084
:1025A00059968D919C915A9754962D913C9155979F
:1025B00082179307B8F06983BE016F5F7F4FC80130
:1025C00040960E943612F801818D928D0196928F6D
:1025D000818FC7010F90DF91CF911F910F91FF90D5
:1025E000EF9008955096ED91FC91E80FF91F6083EC
:1025F000EACFF12CE12CEDCFEE24EA94FE2CE9CFCA
:10260000AF92BF92CF92DF92EF92FF920F931F9300
:10261000CF93DF931F92CDB7DEB77C016B010E9491
:10262000030EF60101900020E9F731978F010C1994
:102630001D09F701A480B5801982B8016A0D7B1DC0
:10264000AE014F5F5F4FC7010E94B410F701808158
:102650009181A801B6018A0D9B1D0E94C40D0F90A7
:10266000DF91CF911F910F91FF90EF90DF90CF906E
:10267000BF90AF9008950F931F93CF93DF931F9256
:10268000CDB7DEB78C01AE014F5F5F4F63E173E002
:102690000E940013C8010F90DF91CF911F910F91FD
:1026A00008950F931F93CF93DF931F92CDB7DEB79B
:1026B0008C01AE014F5F5F4F6AE173E00E9400132F
:1026C000C8010F90DF91CF911F910F9108950F9343
:1026D0001F93CF93DF931F92CDB7DEB78C01AE016E
:1026E0004F5F5F4F61E273E00E940013C8010F90DB
:1026F000DF91CF911F910F9108950F931F93CF9367
:10270000DF931F92CDB7DEB78C01AE014F5F5F4FF5
:1027100068E273E00E940013C8010F90DF91CF912F
:102720001F910F9108950F931F93CF93DF931F92E3
:10273000CDB7DEB78C018091600481110CC0AE0171
:102740004F5F5F4F6FE273E089E594E00E940013F2
:1027500081E0809360048091510481110CC0AE012E
:102760004F5F5F4F65E373E08AE494E00E940013DB
:1027700081E0809351046FE576E00F3F1F4FA1F495
:1027800086E696E00E94D50B6AE474E00E94D50BC1
:1027900068E576E00E94D50B0E94ED0C0F90DF916A
:1027A000CF911F910F91089586E696E00E94D50B78
:1027B00069E574E0EBCF0F931F93CF93DF931F92E4
:1027C000CDB7DEB78C01AE014F5F5F4F6AE373E0B8
:1027D0000E940013C8010F90DF91CF911F910F91BC
:1027E00008950F931F93CF93DF93EC01CB010881E2
:1027F00019817B836A830E942B2C99838883F8013B
:10280000CF01801B910B2C813D818217930750F4DF
:10281000A881B981A80FB91F109711F080818C93FE
:102820003196EECFC801DF91CF911F910F910C949B
:10283000C72CEF92FF920F931F93CF93DF93EC017E
:102840008B017A018A819B818617970740F4685F24
:102850007F4F8617970718F4CE010E94F1138C81E1
:102860009D818017910758F4E881F981E80FF91FDD
:10287000309719F0D7012C9120830196F2CF1D8358
:102880000C83DF91CF911F910F91FF90EF900895EE
:10289000AF92BF92CF92DF92EF92FF921F93CF93AE
:1028A000DF93EC017B016C0184E0C80ED11CC601F2
:1028B0000E94CA0519E01150A9F057018FEFA81A1C
:1028C000B80A88859985BC016F5F7F4F8617970787
:1028D00030F4A701C6010E9419147501ECCF1986C6
:1028E0001886FBCFDF91CF911F91FF90EF90DF9083
:1028F000CF90BF90AF900895FC01808191810C949E
:10290000C72CCF92DF92EF92FF920F931F93CF933A
:10291000DF9300D000D000D01F92CDB7DEB77C018E
:102920008B0160E473E086E696E00E94A60E6C01DF
:10293000D801ED91FC910480F581E02DB801CE0124
:1029400001960995BE016F5F7F4FC6010E94D50BAE
:102950000E94ED0CCE0101960E947C14F701838544
:1029600094850097B1F0DC01ED91FC910084F18534
:10297000E02D0995F701838594858017910749F02B
:10298000009739F0DC01ED91FC910280F381E02D9C
:102990000995F70114870387D801ED91FC91028412
:1029A000F385E02DC801099527960FB6F894DEBF90
:1029B0000FBECDBFDF91CF911F910F91FF90EF9090
:1029C000DF90CF900895CF93DF93FC01C281D38134
:1029D00084E090E00E942B2CFC01D383C2832BEF78
:1029E00031E031832083BC01CE01DF91CF910C9483
:1029F0008114CF93DF93FC01C281D38184E090E006
:102A00000E942B2CFC01D383C2832BEF31E0318356
:102A10002083BC01CE01DF91CF910C948114CF9320
:102A2000DF93FC01C281D38184E090E00E942B2CD3
:102A3000FC01D383C28327EC31E031832083BC01C6
:102A4000CE01DF91CF910C948114CF93DF93FC01E1
:102A5000C281D38184E090E00E942B2CFC01D383BF
:102A6000C2832BE932E031832083BC01CE01DF91A8
:102A7000CF910C948114CF93DF93FC01C281D38159
:102A800084E090E00E942B2CFC01D383C2832BE9CD
:102A900032E031832083BC01CE01DF91CF910C94D1
:102AA00081140F931F93CF93DF93CDB7DEB7289791
:102AB0000FB6F894DEBF0FBECDBF8C01DC011296BD
:102AC000ED91FC911586808191810E943D01F80174
:102AD00002811381AE01485F5F4F65E473E0CE0170
:102AE00001960E940013D8018D919C914D815E81C9
:102AF00069817A81DC01ED91FC910280F381E02D06
:102B00000995CE0101960E947C140E94BD05EAED54
:102B1000F4E060837183828393838CED95E0A0E081
:102B2000B0E084839583A683B78328960FB6F89484
:102B3000DEBF0FBECDBFDF91CF911F910F910895E2
:102B400027EA31E0FC013183208340960C947C1409
:102B5000CF93DF93EC010E94A015CE01DF91CF91BE
:102B60000C94C72CCF93DF93EC0189E791E0998314
:102B7000888383E891E09E8F8D8FCE0102960E941C
:102B8000A0156DE671E0CE01DF91CF910C94600A43
:102B9000DC01ED91FC91369720813181820F931FEA
:102BA0000C94B215EF92FF920F931F93CF93DF9384
:102BB000CDB7DEB7E4970FB6F894DEBF0FBECDBF3A
:102BC0008C017B0160E1CE0101960E94130EB701DA
:102BD000695F7F4FCE0101960E94D50BF701668594
:102BE0000E94D20CAE014C5C5F4FBE016D5E7F4F08
:102BF000C8010E94EE10CE0101960E94B215C801D4
:102C0000E4960FB6F894DEBF0FBECDBFDF91CF9133
:102C10001F910F91FF90EF900895CF93DF93EC01F8
:102C20000E94B215CE01DF91CF910C94C72CDC012C
:102C3000ED91FC91369720813181820F931F0C9486
:102C40000D16AF92BF92CF92DF92EF92FF920F9349
:102C50001F93CF93DF9300D000D000D01F92CDB749
:102C6000DEB78C016B01DC0118968D919C919E83DF
:102C70008D8308969C838B830E942B2C9A83898357
:102C800090E080E02D813E818217930788F4E981EE
:102C9000FA81E80FF91F309749F0D80114962D9169
:102CA0003C91D901A80FB91F2C9120830196EACF3E
:102CB000F601E480F580FBE0EF0EF11C6EE7D80131
:102CC0008D919C910E945F026F2DC8010E944D0E54
:102CD0006E2DC8010E944D0E60E0C8010E944D0E8D
:102CE000F801F684F394FF20F1F0F6866F2DC80109
:102CF0000E944D0EF801A480B580D80114968D91E4
:102D00009C91159718962D913C91820F931FA816B0
:102D1000B90670F4F501E1905F016E2DC8010E94C3
:102D20004D0EFE0CEACF81E08687FF24F394DECFC0
:102D300060E0C8010E944D0ED601AD90BC90F60136
:102D40008081918124813581820F931FA816B90655
:102D500048F4D501ED905D016E2DC8010E944D0E25
:102D6000FE0CEDCF6F2D6095C8010E944D0ECE0177
:102D700001960E947C1427960FB6F894DEBF0FBE12
:102D8000CDBFDF91CF911F910F91FF90EF90DF901A
:102D9000CF90BF90AF900895FC01828193810C94F5
:102DA00021160F931F93CF93DF931F92CDB7DEB7FA
:102DB0008C0180917E0481110CC0AE014F5F5F4F8A
:102DC00069E473E087E794E00E94001381E0809358
:102DD0007E0467E774E0F801828193810E942116E6
:102DE0000E94BD056093DA047093DB048093DC04D9
:102DF0009093DD0480E395E7A0E0B0E08093DE04EB
:102E00009093DF04A093E004B093E1040F90DF916E
:102E1000CF911F910F910895AF92BF92CF92DF9201
:102E2000EF92FF920F931F93CF93DF93CDB7DEB74F
:102E3000C854D1090FB6F894DEBF0FBECDBF6C01E8
:102E40008B01F22EE32EB42EA52E60E1CE01019669
:102E50000E94130EB801695F7F4FCE0101960E9458
:102E6000D50BD8011E966C910E94D20C8C01BC012E
:102E7000CE01885B9F4F0E94BF0CD801ED91FC9161
:102E800036970190F081E02DE00FF11F838194814E
:102E900085FD69C086FF50C092FF68C087E593E05A
:102EA000AF92BF92EF92FF929F938F931F9284E114
:102EB0008F937E01B4E3EB0EF11CFF92EF920E9420
:102EC000FE309C01990F440B550BB701C8010E94BD
:102ED000290CD801ED91FC9136970190F081E02DFD
:102EE000E00FF11F838194810FB6F894DEBF0FBE0F
:102EF000CDBF96FF03C0C8010E94040CA701BE010C
:102F00006D5E7F4FC6010E94EE10CE0101960E94B9
:102F1000B215C601C85BDF4F0FB6F894DEBF0FBE17
:102F2000CDBFDF91CF911F910F91FF90EF90DF9078
:102F3000CF90BF90AF90089587FF1BC09C012227C0
:102F4000307292FF08C080E693E0232B09F0A8CFEF
:102F500085E693E0A5CF8AE693E0232B09F0A0CF86
:102F60008EE693E09DCF83E593E09ACF8CE593E0E6
:102F700097CF90E080E094CFEF92FF920F931F9352
:102F8000CF93DF93CDB7DEB764970FB6F894DEBF6B
:102F90000FBECDBF8C01DC01ED91FC913697019005
:102FA000F081E02DE80FF91F8381948185FD58C0E1
:102FB00086FF3FC092FF57C087E593E07F936F93F2
:102FC0005F934F939F938F931F9284E18F939E0102
:102FD0002F5F3F4F79013F932F930E94FE309C015A
:102FE000990F440B550BB701C8010E94290CD80159
:102FF000ED91FC9136970190F081E02DE00FF11FEB
:10300000838194810FB6F894DEBF0FBECDBF96FFCB
:1030100003C0C8010E94040C64960FB6F894DEBF8A
:103020000FBECDBFDF91CF911F910F91FF90EF9019
:10303000089587FF1BC09C012227307292FF08C0B1
:1030400080E693E0232B09F0B9CF85E693E0B6CF75
:103050008AE693E0232B09F0B1CF8EE693E0AECF62
:1030600082E793E0ABCF8CE593E0A8CF90E080E0DF
:10307000A5CFCF92DF92EF92FF920F931F93CF9342
:10308000DF931F92CDB7DEB78C016A017B01BC01D3
:10309000CE0101960E94BF0CB701A601C8010E9493
:1030A000BC17C8010F90DF91CF911F910F91FF9036
:1030B000EF90DF90CF900895CF92DF92EF92FF9242
:1030C0000F931F93CF93DF93CDB7DEB7EB970FB678
:1030D000F894DEBF0FBECDBF60E1CE0101960E9425
:1030E000130EE981FA8136970190F081E02D329636
:1030F00081E090E08C0F9D1FE80FF91F8181928184
:103100008F7180629283818366E773E0CE010196BE
:103110000E94A60E8C0185E495E00E94AC0A28E08E
:1031200030E040E050E00E94B430BA01A901C8018B
:103130000E9439186CE20E94D20C6091D90461118E
:103140007EC02091D804211104C06091D70421E0F1
:1031500062270E94080D6CE20E94D20C8C01E09163
:103160004705F0914805658976898789908D28E023
:10317000C22ED12CE12CF12CA70196010E94B43073
:10318000BA01A901C8010E9439186CE20E94D20C50
:103190008C01E0914705F091480567857089818928
:1031A0009289A70196010E94B430BA01A901C80111
:1031B0000E9439186CE20E94D20C8C01E091470504
:1031C000F0914805618D728D072E000C880B990BCC
:1031D000A70196010E94B430BA01A901C8010E945A
:1031E000391868E576E00E94D50BAE01455C5F4F6B
:1031F000BE016D5E7F4FCE01C4960E94EE10BE01EF
:103200006C5C7F4F86E696E00E94D50B0E94ED0C29
:10321000CE01C4960E947C14CE0101960E94B21584
:10322000EB960FB6F894DEBF0FBECDBFDF91CF9106
:103230001F910F91FF90EF90DF90CF90089560E085
:1032400088CF4F925F926F927F928F929F92AF92B0
:10325000BF92EF92FF92CF93DF9385E495E00E94B7
:10326000AC0A6093410670934206809343069093A4
:1032700044060E945C186CE773E086E696E00E94C4
:10328000A60E0E94ED0C1092D8048091D7048823DA
:1032900009F456C01092D704E0904305F09044051D
:1032A000E0913705F091380540805180628073804D
:1032B000C7010E94AC0A4B015C01B301A201C70126
:1032C0000E94D20A860E971EA81EB91E6BE873E0F4
:1032D00086E696E00E94A60EEC0180913905909159
:1032E0003A05DC01ED91FC910284F385E02D09950E
:1032F000AB01BC01CE010E9439186BE973E00E945A
:10330000A60EB501A4010E9439180E94ED0C80910F
:10331000390590913A05DC01ED91FC910084F1852D
:10332000E02DB501A401DF91CF91FF90EF90BF9008
:10333000AF909F908F907F906F905F904F90099487
:10334000DF91CF91FF90EF90BF90AF909F908F90C3
:103350007F906F905F904F9008950F931F93CF933E
:10336000DF93FC0104811581FB01C481D581A80193
:10337000C017D10708F4AE01FB0160817181FC0127
:10338000808191810E94F030892B31F081E0DF91C2
:10339000CF911F910F91089581E00C171D07B9F788
:1033A00080E0F5CFEF92FF920F931F93CF93DF93BF
:1033B000CDB7DEB728970FB6F894DEBF0FBECDBFEE
:1033C0008C017B01AE01485F5F4F60EA73E0CE0184
:1033D00001960E940013BE016F5F7F4FC7010E94DC
:1033E000AD19F82ECE0101960E947C14FF2091F0B9
:1033F000F801E280F38084E090E00E942B2CFC0135
:10340000F382E2822BE932E031832083BC01C701E1
:103410000E948114C8010E943E12811112C0F8015D
:103420000281138184E090E00E942B2CFC01138325
:10343000028327EC31E031832083BC01C8010E9464
:10344000811428960FB6F894DEBF0FBECDBFDF9172
:10345000CF911F910F91FF90EF900895EF92FF92FF
:103460000F931F93CF93DF93CDB7DEB728970FB697
:10347000F894DEBF0FBECDBF8C017B01AE01485F6B
:103480005F4F60EA73E0CE0101960E940013BE0117
:103490006F5F7F4FC7010E94AD19F82ECE010196D4
:1034A0000E947C14F11018C0F8010281138188E099
:1034B00090E00E942B2CFC011383028385E192E0B3
:1034C0009183808383EA93E09783868315821482B5
:1034D000BF01C8010E94811428960FB6F894DEBF80
:1034E0000FBECDBFDF91CF911F910F91FF90EF9055
:1034F00008950F931F93CF93DF93EB010990002062
:10350000E9F72197C61BD70BFC0104811581A8019F
:10351000C017D10708F4AE01FC01808191810E949F
:10352000F030009769F481E090E0C017D10740F0D7
:103530000C171D0710F090E080E09195819591099E
:10354000DF91CF911F910F910895AF92BF92CF92CB
:10355000DF92EF92FF920F931F93CF93DF9300D0F0
:1035600000D000D01F92CDB7DEB75C017B01809107
:103570008D0481110CC0AE014F5F5F4F6DEE73E0A3
:1035800086E894E00E94001381E080938D04F701A7
:1035900000811181C480D580C00ED11E88E090E0EA
:1035A0009C838B831E821D820E942B2C9A8389838D
:1035B000CE0101960E94CA05A801465F5F4F69814E
:1035C0007A819601CE0101960E9418116DEE73E08A
:1035D000CE0101960E94791A892B79F5F701608155
:1035E0007181F501828193810E944814F501028165
:1035F000138184E090E00E942B2CFC011383028352
:1036000021EE31E031832083BC01C8010E94811486
:10361000CE0101960E947C1427960FB6F894DEBF67
:103620000FBECDBFDF91CF911F910F91FF90EF9013
:10363000DF90CF90BF90AF900895BE016F5F7F4F36
:1036400086E696E00E94D50B0E94ED0CE1CF0E9429
:10365000791A21E0892B09F020E0822F0895AF929A
:10366000BF92CF92DF92EF92FF920F931F93CF936F
:10367000DF9300D000D000D01F92CDB7DEB75C0141
:103680007B01FB0100811181C480D580C00ED11E59
:1036900088E090E09C838B831E821D820E942B2CED
:1036A0009A838983CE0101960E94CA05A801465FCC
:1036B0005F4F69817A819601CE0101960E941811AF
:1036C0006DEE73E0CE0101960E94271B8823D1F096
:1036D000F70160817181F501828193810E94481414
:1036E000F5010281138184E090E00E942B2CFC0103
:1036F0001383028321EE31E031832083BC01C801B2
:103700000E948114CE0101960E947C1427960FB668
:10371000F894DEBF0FBECDBFDF91CF911F910F9107
:10372000FF90EF90DF90CF90BF90AF9008950F93F0
:103730001F93CF93DF93CDB7DEB7E6970FB6F8941C
:10374000DEBF0FBECDBF8C01CE0101960E945A098B
:10375000CE014C960E945A094BE150E070E060E0C7
:10376000CE014C960E945A2D86E390E00E946A2D6D
:103770008B3F9A44A1F08BE1FE013196D801019074
:103780000D928A95E1F7C801E6960FB6F894DEBF70
:103790000FBECDBFDF91CF911F910F9108958C8DFA
:1037A000813049F78BE1FE017C96E8CF2F923F9262
:1037B0004F925F926F927F928F929F92AF92BF9241
:1037C000CF92DF92EF92FF920F931F93CF93DF93ED
:1037D000CDB7DEB7E7970FB6F894DEBF0FBECDBF0B
:1037E0007C018B01DB011E968C918335C1F48091A5
:1037F000490590914A050E942116B801CE01019613
:103800000E94D215CE0101960E947C14AE014F5F3A
:103810005F4F6AE973E0C7010E9400139EC08235C2
:1038200059F56B01B7E0CB0ED11C64EF73E0C60114
:103830000E94271B882379F0E0914705F091480505
:1038400022853385032E000C440B550BB801C701AC
:103850000E940C1782C067EF73E0C6010E94271B0D
:103860008823F1F0F80187859089A189B28984368F
:103870009105A105B10534F4AE014F5F5F4F6AEFCA
:1038800073E0C9CFE0914505F09146050280F381D0
:10389000E02D91878087B801C7010E94D2155DC0D5
:1038A0006EEF73E0C6010E94271B882389F0E09128
:1038B0004705F0914805618D728D072E000C880B2D
:1038C000990B28E030E040E050E00E94B430BECFD9
:1038D00061E074E0C6010E94271B8823D1F0F80143
:1038E00087859089A189B28923E0880F991FAA1F33
:1038F000BB1F2A95D1F7813DFFE29F07A105B105C6
:1039000008F0BACFE0914705F0914805928F818F7A
:10391000C2CF6AEE73E0C6010E94271B8823B9F16B
:10392000CE0101960E94030E6AEE73E0CE0101966D
:103930000E94C91164E074E0CE0101960E94C91191
:10394000AE01445E5F4FBE016F5F7F4FC7010E94B3
:10395000EE10CE0101960E947C14C701E7960FB6C7
:10396000F894DEBF0FBECDBFDF91CF911F910F91B5
:10397000FF90EF90DF90CF90BF90AF909F908F908F
:103980007F906F905F904F903F902F90089562E1ED
:1039900074E0C6010E94271B882309F4A8C0E091A7
:1039A0004705F0914805658976898789908D0E9441
:1039B000372F20E030E044EB53E40E948D2E4B0182
:1039C0005C01D8011F966D917D918D919C915297CC
:1039D0000E94372F9B01AC01C501B4010E94EC2F5E
:1039E0000E94062F2B013C0185E495E00E94AC0A61
:1039F0004B015C01B301A20185E495E00E94D20A6B
:103A00002B013C01480C591C6A1C7B1C809145050C
:103A100090914605DC01ED91FC910284F385E02D47
:103A2000099553014201861A970AA80AB90AB501F5
:103A3000A40186E696E00E94391865E174E00E94D0
:103A4000A60E1C01E0914705F0914805C18CD28C6F
:103A5000BC01CE0101960E94BF0CA601DD0C660BD5
:103A6000770BC1010E94BC1768E174E0C1010E949C
:103A7000A60E0E94ED0CB501A401B7FE07C04427B5
:103A80005527BA01481959096A097B09E091470588
:103A9000F0914805818D928D092E000CAA0BBB0B6D
:103AA000481759076A077B070CF4F5CE81E090E0D0
:103AB000181419041A041B0414F090E080E0882400
:103AC000B7FC83949924AA24BB24881999090E94DD
:103AD00093138091450590914605DC01ED91FC9191
:103AE0000084F185E02DB301A2010995D4CE6AE1ED
:103AF00074E0C6010E94271B882341F1E09147052D
:103B0000F0914805478550896189728985E495E07F
:103B10000E94D20A81E08093D8041092D704809149
:103B2000390590913A05E0913705F09138054681C5
:103B3000578160857185440F551F661F771FDC0113
:103B4000ED91FC910084F185E02DCFCF6DE174E023
:103B5000C6010E94271B882379F0E0914705F09168
:103B60004805678570898189928928E030E040E0C6
:103B700050E00E94B43066CE60E274E0C6010E945C
:103B8000271B882319F1F8014785508961897289BB
:103B9000DB01CA01E3E0880F991FAA1FBB1FEA954A
:103BA000D1F774FD69CEE0914705F091480545894C
:103BB00056896789708D481759076A077B070CF487
:103BC0005BCE8787908BA18BB28B65CE63E274E06E
:103BD000C6010E94271B882361F0809145059091C2
:103BE0004605DC01ED91FC910280F381E02D099501
:103BF00052CE66E274E0C6010E94271B882361F062
:103C00008091450590914605DC01ED91FC9102847F
:103C1000F385E02D099555CE69E274E0C6010E9456
:103C2000271B8823C1F0F80187859089A189B28973
:103C300053E0880F991FAA1FBB1F5A95D1F7E09137
:103C40004505F09146050280F381E02D848395833C
:103C5000A683B78320CE6CE274E0C6010E94271BC6
:103C6000882349F0E0914705F091480565897689F8
:103C70008789908D26CE6FE274E0C6010E94271BD3
:103C80008823B1F02091470530914805F8018785D8
:103C90009089A189B28943E0880F991FAA1FBB1F91
:103CA0004A95D1F7F901858B968BA78BB08FF3CD11
:103CB00062E374E0C6010E94271B882319F00E946A
:103CC0005C18A4CD65E374E0C6010E94271B88231D
:103CD00099F0E0914505F09146050280F381E02DD1
:103CE0002285338550E040E093E055954795379520
:103CF00027959A95D1F7AACD68E374E0C6010E9492
:103D0000271B882321F1D8011F964D905D906D905F
:103D10007C90529783E0440C551C661C771C8A9556
:103D2000D1F7C0904505D0904605F60163A174A176
:103D300085A196A10E94062F4616570608F49CCD31
:103D4000D6011296ED91FC9153864286A4CD6BE389
:103D500074E0C6010E94271B8823E9F0CE0101967A
:103D60000E945A0980914705909148052BE1FE0178
:103D70003196DC0101900D922A95E1F74BE150E07C
:103D800070E060E00E94702D6BEF7AE486E390E0D3
:103D90000E94922D80CD6EE374E0C6010E94271B25
:103DA000882389F0C0904705D0904805CE014D96F4
:103DB0000E94971B8BE1FE017D96D60101900D922A
:103DC0008A95E1F768CD61E474E0C6010E94271B83
:103DD000882309F451CD4BE150E070E060E0809120
:103DE000470590914805CECF2F923F924F925F9218
:103DF0006F927F928F929F92AF92BF92CF92DF92FB
:103E0000EF92FF920F931F93CF93DF93CDB7DEB75F
:103E10002C970FB6F894DEBF0FBECDBF6C01290101
:103E20003A01FC01A18CB28C9E01265F3F4FA2019A
:103E3000CE0101960E940212F601E488F588EA1488
:103E4000FB0410F40E94D93017012A183B088201A4
:103E50002414350408F481018D809E80E01AF10A53
:103E6000C40180959095E816F90660F7E80CF91CF6
:103E7000C60140969C878B870815190538F418866B
:103E8000AE01485F5F4FB7010E94B410F601808910
:103E90009189A101401B510BB501600F711F680F83
:103EA000791F9501280D391D820F931F0E94DE3066
:103EB00069817A81F60180899189A4018A0D9B1D0F
:103EC0000E94C40D1986AE01475F5F4FB7018B8515
:103ED0009C850E94B410CE0101960E947C14F601CC
:103EE000818D928D840D951D928F818FC301B201BA
:103EF0002C960FB6F894DEBF0FBECDBFDF91CF91E9
:103F00001F910F91FF90EF90DF90CF90BF90AF90F7
:103F10009F908F907F906F905F904F903F902F90E9
:103F200008951F920F920FB60F9211248F939F93B3
:103F30008091E1009091E100937F9093E10083FFF5
:103F40000FC01092E90091E09093EB001092EC000A
:103F500092E39093ED001092D50498E09093F000D6
:103F600082FF22C093E09093E9009091F2009923A0
:103F700019F09AE39093E8009091C704992341F0D7
:103F80009091C70491509093C704911101C05D9A1C
:103F90009091D404992341F09091D404915090933E
:103FA000D404911101C0289A84FF18C08091E200C6
:103FB0008E7E81608093E2008091E1008F7E80930D
:103FC000E1008091C6048E7E80618093C6049F913B
:103FD0008F910F900FBE0F901F90189580FFF7CF15
:103FE0008091E2008E7E80618093E2008091E1000A
:103FF0008E7E8093E1008091C6048E7E8160E5CF45
:104000001F920F920FB60F921124CF92DF92EF9270
:10401000FF920F931F932F933F934F935F936F9351
:104020007F938F939F93AF93BF93EF93FF93CF9320
:10403000DF93CDB7DEB76C97DEBFCDBF1092E9003E
:104040008091E80083FF25C068E0CE0145960E947C
:10405000520282EF8093E8008D8987FF39C09091EA
:10406000E80090FFFCCF982F907609F034C19E892C
:104070004F89588D2F89F88C911131C0803861F5A6
:104080008091C5048093F1001092F1008EEF80932F
:10409000E8006C960FB6F894DEBF0FBECDBFDF917F
:1040A000CF91FF91EF91BF91AF919F918F917F91B0
:1040B0006F915F914F913F912F911F910F91FF90C1
:1040C000EF90DF90CF900F900FBE0F901F9018953C
:1040D0009EEF9093E800C7CF1092F100D5CF9130BA
:1040E00059F48111D3CF4130510581F68091C50437
:1040F0008D7F8093C504CACF933049F48111C6CF18
:104100004130510519F68091C5048260F2CF953097
:1041100041F48091E80080FFFCCF20682093E30009
:10412000B5CF963009F0A9C00B8D1C8D22E01092FE
:10413000E9001092C3041092C204F2122EC0109231
:10414000C1041092C0040E9421021F8299E0998349
:10415000FA8291E09E8390EA98879AEF998720915E
:10416000C2043091C304275F3F4F3C832B838D8370
:104170001092E9001092C3041092C2041093C1047B
:104180000093C00449E050E0BE016F5F7F4F80E0C4
:104190000E94FB010E94210279CF1093C104009379
:1041A000C0040E94B901DC0112960D911C91011509
:1041B000110509F451C1D801ED91FC910480F581FC
:1041C000E02DBE016B5E7F4FC8010995009709F095
:1041D0003EC1F80100851185EACFF3E0FF120EC061
:1041E0008F89882309F440C0823061F440E860E19F
:1041F00087E991E00E94D223811148CF81E2809328
:10420000EB0047CF813029F440E86BE08BE891E088
:10421000F1CF833099F70E94B901DC011296ED903D
:10422000FC908E010F5F1F4F6801E114F10479F0DB
:10423000D701ED91FC910680F781E02DB801C7010F
:104240000995080F111DF701E084F184EECFD80124
:104250001C92F60101900020E9F73197BF016C191B
:104260007D0940E0C601C6CF65E771E0FB014491DE
:1042700050E080E80E94FB0109CF973009F4BECFDF
:10428000983021F481E08093F10000CF993009F05B
:10429000FDCE837009F0B2CFE2EBF2E081E031E0D5
:1042A00096E32191222371F08093E9003093EB0093
:1042B000DF0111972C912093EC009093ED008F5F1C
:1042C000873079F78EE78093EA001092EA008F89B1
:1042D0008093D504DBCE8B8D9C8D1092E9001092DB
:1042E000C3041092C2049093C1048093C004898DCA
:1042F000811192C08E899D89913A49F4813209F0E9
:104300007DCF47E050E060E171E080E0B3CF9132D3
:1043100009F074CF833269F48F89988DB0E0A0E002
:1043200080930C0190930D01A0930E01B0930F01A7
:10433000ADCE803269F48091E80082FFFCCF67E067
:1043400080E191E00E9452028BEF8093E8009ECEC4
:10435000823209F09BCE8F8980931701EEEFFFE741
:10436000859194918B3F9C4D51F1E0E0F8E0809174
:10437000100190911101A0911201B0911301803BA5
:104380009440A105B105F1F48091170180FD1AC098
:10439000EE3F8AE0F80789F587E797E79183808306
:1043A000809160008093C40488E19BE00FB6F8948C
:1043B000A895809360000FBE9093600067CEEEEFEB
:1043C000FAE0D5CF808191818737974709F05ECE9B
:1043D000A895809160008861809360008091C404FA
:1043E00080936000EE3F2AE0F20789F08091FE0A98
:1043F0009091FF0A9183808349CE80819181873794
:10440000980751F29093FF0A8093FE0AC5CF10924D
:10441000FF0A1092FE0A3ACE0E94B901DC01129600
:104420000D911C910115110509F4E8CED801ED910B
:10443000FC910190F081E02DBE016B5E7F4FC801C1
:104440000995811123CEF80100851185EBCF18164F
:1044500019060CF41BCED2CEF1E0FF12BECE69E7F6
:1044600071E004CF1F920F920FB60F9211242F9379
:104470003F934F935F936F937F938F939F93AF93EC
:10448000BF93EF93FF938AE595E00E94FF02FF91AF
:10449000EF91BF91AF919F918F917F916F915F91BC
:1044A0004F913F912F910F900FBE0F901F90189535
:1044B0001F920F920FB60F9211242F938F939F93F9
:1044C000EF93FF93E0916A05F0916B058081E09195
:1044D0007005F091710582FD1BC09081809173057C
:1044E0008F5F8F7320917405821741F0E0917305FF
:1044F000F0E0E65AFA4F958F80937305FF91EF91A4
:104500009F918F912F910F900FBE0F901F90189534
:104510008081F4CF1F920F920FB60F9211242F9328
:104520003F938F939F93AF93BF938091A7049091F4
:10453000A804A091A904B091AA043091A60423E094
:10454000230F2D3758F50196A11DB11D2093A60408
:104550008093A7049093A804A093A904B093AA04FD
:104560008091AB049091AC04A091AD04B091AE04E5
:104570000196A11DB11D8093AB049093AC04A09350
:10458000AD04B093AE04BF91AF919F918F913F91D5
:104590002F910F900FBE0F901F90189526E8230FB4
:1045A0000296A11DB11DD2CF1F920F920FB60F928E
:1045B00011242F933F934F935F936F937F938F9328
:1045C0009F93AF93BF93EF93FF93E0910A01F09114
:1045D0000B010995FF91EF91BF91AF919F918F9141
:1045E0007F916F915F914F913F912F910F900FBEEF
:1045F0000F901F9018951F920F920FB60F921124D3
:104600002F933F934F935F936F937F938F939F93DA
:10461000AF93BF93EF93FF93E0910801F0910901ED
:104620000995FF91EF91BF91AF919F918F917F91EC
:104630006F915F914F913F912F910F900FBE0F900F
:104640001F9018951F920F920FB60F9211242F935F
:104650003F934F935F936F937F938F939F93AF930A
:10466000BF93EF93FF93E0910601F0910701099545
:10467000FF91EF91BF91AF919F918F917F916F913A
:104680005F914F913F912F910F900FBE0F901F9010
:1046900018951F920F920FB60F9211242F933F93EC
:1046A0004F935F936F937F938F939F93AF93BF933A
:1046B000EF93FF93E0910401F09105010995FF91BB
:1046C000EF91BF91AF919F918F917F916F915F918A
:1046D0004F913F912F910F900FBE0F901F90189503
:1046E0001F920F920FB60F9211242F933F934F9367
:1046F0005F936F937F938F939F93AF93BF93EF934A
:10470000FF93E0910201F09103010995FF91EF9170
:10471000BF91AF919F918F917F916F915F914F91D9
:104720003F912F910F900FBE0F901F9018951F92E1
:104730000F920FB60F9211242F933F934F935F93D5
:104740006F937F938F939F93AF93BF93EF93FF9359
:104750006091D60481E068276093D6048091950427
:1047600090919604DC01ED91FC910190F081E02D97
:1047700009958091000190910101909389008093A7
:104780008800FF91EF91BF91AF919F918F917F91A1
:104790006F915F914F913F912F910F900FBE0F90AE
:1047A0001F901895EF92FF920F931F93CF93DF9373
:1047B000F82E192FE62E042F81E0860F880F0E9415
:1047C000CD0183E00E94CD01CF2DD12FEC0EFD2E27
:1047D000F11CCE15DF05B9F007FF13C0FE0184916F
:1047E0000E94CD01182F80E00E94CD0181232196E7
:1047F0008111EFCFDF91CF911F910F91FF90EF903B
:1048000008958881EDCF81E0F5CFCF93DF93EB0161
:1048100088819981A0E9B6E011969C938E932A81B4
:104820003B810697EC01E881F981E057F94F31832C
:10483000208312961D921D921D921C92159781E263
:1048400090E09483838386E996E0948B838B158232
:10485000158ADF91CF91089566E976E088EA96E0BF
:104860000E948C0A46E956E061E672E080E996E033
:104870000E940524E0E9F6E08DE692E091838083D2
:1048800087E792E0918F808F1286118614861386B7
:1048900016861586108A1786128A118A148A138A38
:1048A0008FE292E09783868386EE94E0978B868BE7
:1048B00088E0858B089568E676E08AE796E00E94B6
:1048C0008C0A48E656E06DE772E086E696E00E94C4
:1048D000E70DE6E6F6E089E892E09183808383E9DC
:1048E00092E0958B848B1682158210861782128631
:1048F00011861486138616861586108A17868FE20F
:1049000092E09383828386EE94E0938B828B80E1A6
:10491000818B08950F931F93CF93DF931F92CDB791
:10492000DEB70AE515E010925D0510925C0588EE91
:1049300093E0A0E0B0E080935E0590935F05A093C4
:104940006005B09361052CEB32E030935B0520935A
:104950005A052DEC30E030936705209366052CEC6A
:1049600030E0309369052093680528EC30E03093FF
:104970006B0520936A0529EC30E030936D05209398
:104980006C052AEC30E030936F0520936E052EEC19
:1049900030E03093710520937005109273051092EA
:1049A000740510927505109276051092E904109224
:1049B000E8048093EA049093EB04A093EC04B09392
:1049C000ED048EEC92E09093E7048093E6048FEF81
:1049D0009FEF9093F3048093F2041092DA04109204
:1049E000DB041092DC041092DD041092DE041092BD
:1049F000DF041092E0041092E10466EE74E086E6B3
:104A000096E00E945B2466EE74E080E996E00E94E6
:104A10002C241092E5041092E40486EE94E0909326
:104A2000E3048093E20465E271E080E091E00E949B
:104A3000C52B9093E5048093E404AE014F5F5F4F74
:104A400064E474E088E596E00E940013AE014F5FD5
:104A50005F4F66E474E08FE596E00E94001384EFF8
:104A600092E090935706809356060E9464018BE370
:104A700096E00E94971B80EE92E09093130680933D
:104A8000120681E090E090931C0680931B06109222
:104A90001D0610921E0610921F06109220061092FC
:104AA00021061092220610922306109224061092DC
:104AB00025061092260610922706109228061092BC
:104AC0002D0610922E0610922F061092300610928C
:104AD00031061092320610923306109234068DE39E
:104AE00096E0909315068093140686E596E09093E1
:104AF0001A06809319061092290610922A0610921F
:104B00002B0610922C068CE0809316068AE0809388
:104B100017068BE08093180680E090E0AAE7B3E4E4
:104B20008093350690933606A0933706B0933806E7
:104B300061E08CE00E94B00461E0809118060E9460
:104B4000B00461E0809117060E94B00461E080919A
:104B500017060E94820410923A06109239068BE0E2
:104B600096E00E94030E84E096E00E94030E1093EC
:104B7000F8050093F70584E096E09093FA0580939A
:104B8000F90587E59DE09093030680930206109354
:104B90004C0500934B0587EF95E090934E0580936D
:104BA0004D058FE495E00E94030E10925805109277
:104BB00059058091510590915205089730F468E0AD
:104BC00070E08FE495E00E94F11382E196E090930B
:104BD0004605809345052BE336E030934805209346
:104BE00047052BE435E030934A052093490525E439
:104BF00035E0309344052093430590933A05809324
:104C000039058AE496E0909338058093370582E071
:104C10008093360510923B0510923C0510923D059D
:104C200010923E0510923F051092400510924105EA
:104C3000109242050F90DF91CF911F910F9108952F
:104C4000CF93DF93CDB7DEB7A5970FB6F894DEBF4D
:104C50000FBECDBF789484B5826084BD84B5816079
:104C600084BD85B5826085BD85B5816085BD809137
:104C70006E00816080936E001092810080918100AF
:104C800082608093810080918100816080938100A7
:104C9000809180008160809380008091910082608B
:104CA0008093910080919100816080939100809128
:104CB00090008160809390008091C1008460809317
:104CC000C1008091C10082608093C1008091C100C9
:104CD00081608093C1008091C30081608093C30094
:104CE0008091C00082608093C0008091C20081608A
:104CF0008093C20080917A00846080937A008091D2
:104D00007A00826080937A0080917A00816080933B
:104D10007A0080917A00806880937A001092D5049E
:104D20001092C5041092C6048091D70081608093D0
:104D3000D70080EA8093D80089B5806189BD89B5A4
:104D4000826089BD09B400FEFDCF61E070E080E0C3
:104D500090E00E9406058091D8008F7C806180934E
:104D6000D8008091E000807F8093E0008091E10096
:104D70008E7E8093E1008DE08093E200559A209A28
:104D800061E0809117060E94820460E0809116061F
:104D90000E94820481E299E190933A068093390659
:104DA00062E085E00E94B00462E086E00E94B00408
:104DB00080910D0690910E06409730F460E170E00E
:104DC0008BE096E00E948C10809106069091070679
:104DD000809730F460E270E084E096E00E94F11386
:104DE0008FEF9FEF9093F3048093F2048AE595E0B0
:104DF0000E943D0168EE73E080E090E00E940605AD
:104E000087EF95E00E94D2050E94BD0560933B05A7
:104E100070933C0580933D0590933E0588EE93E0AA
:104E2000A0E0B0E080933F0590934005A09341053A
:104E3000B09342051091360562E0812F0E94B004C4
:104E4000812F0E94590421E0892B09F420E020934E
:104E5000D9041092D8041092D704112309F413C175
:104E6000113009F0DFC08DEC9EE090930901809332
:104E70000801809169008F73806480936900EB9AC8
:104E8000789461E086E696E00E94080D0E94ED0CA1
:104E900084E090E00E942B2C2BE435E0DC0113969B
:104EA0003C932E9312972BE932E02D933C93BC0157
:104EB0008BE495E00E94811432E0E32EF12C4AEF5E
:104EC000842E912CA12CB12C26E0222E312C82E1B3
:104ED00096E00E94040F86EE94E00E94F3031816F9
:104EE00019060CF049C086EE94E00E94B10397FDCC
:104EF00043C08DA38D3031F0803409F46DC18A3008
:104F000009F06EC180910F06909110060297A0F1F2
:104F1000BE016B5D7F4F8BE096E00E9436120091E0
:104F20000F06109110060230110508F0BAC0AE014C
:104F30004F5F5F4F6AEF73E0CE014B960E94001304
:104F40008F8D98A1892B81F06AE386E696E00E9416
:104F5000D20CBE01655E7F4F0E94D50B68E576E0FE
:104F60000E94D50B0E94ED0C8BE096E00E94CA05D2
:104F7000CE014B960E947C1480915805882309F439
:104F8000C5C100914D0510914E05F80180819181B8
:104F9000DC01ED91FC910084F185E02D0995181656
:104FA00019060CF0EEC180E2682E93E0C92ED12CD8
:104FB00077247394F80180819181DC01ED91FC915B
:104FC0000084F185E02D0995181619060CF0D9C159
:104FD000F80180819181DC01ED91FC910284F385DF
:104FE000E02D099597FDE6CF8AA38E3719F4C80105
:104FF0000E94D205F8018681882321F08AA11682B9
:1050000086258AA3D80114962D913C9115978AA1E3
:105010002115310509F42AC18D3709F0F0C0169623
:105020007C92C8CF123071F48DEC9EE09093050114
:105030008093040180916900837F8460809369007C
:10504000E99A1ECF133071F48DEC9EE0909303012A
:1050500080930201809169008C7F81608093690058
:10506000E89A0ECF173009F00BCF8DEC9EE09093AD
:105070000B0180930A0180916A008F7C806180938C
:105080006A00EE9AFDCE8DEC9EE09093070180932E
:105090000601809169008F7C806180936900EA9AA3
:1050A000EFCECE0101960E94030ECE0108960E941B
:1050B000030ECE0101960E94CA0560910F06709101
:1050C00010061CA2AE014C5D5F4FCE0101960E94FE
:1050D000B41040910F065091100660910B0670912C
:1050E0000C0689819A810E94C40D188A198A1A8A2D
:1050F0001B8A60910B0670910C066F5F7F4FCE018B
:1051000008960E9436120230110591F480E38F87D1
:10511000BE016F5F7F4FCE014B960E94D61BCE0122
:1051200008960E947C14CE0101960E947C1408CF40
:1051300060910B0670910C066E5F7F4FCE01089652
:105140000E9436120330110509F3E0910B06F0912D
:105150000C0683818F870630110540F184818C32E3
:1051600029F540910F06509110064530510510F475
:105170000E94D93045505109BF016B5F7F4F9E019E
:10518000255E3F4FCE0144960E9402124AE050E055
:1051900070E060E08C899D890E94D12A688B798BB0
:1051A0008A8B9B8BCE0144960E947C14BE016F5F5C
:1051B0007F4FCE0144960E94D61BAE014D5D5F4FDE
:1051C000BE016C5E7F4FCE014B960E94EE10CE0169
:1051D00044960E947C14A3CF8BE096E00E94CA05FF
:1051E00080910F0690911006409708F0C5CEBE0141
:1051F0006B5D7F4F8BE096E00E943612BDCE233070
:10520000310509F447C080F421303105C1F1223065
:10521000310509F0CFCEF80120853185282B318763
:105220002087D582C482C6CE2430310509F43FC020
:105230002530310509F0BECE17969C911797890F3E
:1052400017968C9317978F3F09F05CC015963C9288
:105250002E92149712966D917C9113971B96ED9157
:10526000FC911C971A968C910995A4CE8E3709F063
:10527000A1CE81E090E0F801958384839BCE1896BF
:105280001C92189719968C9319971596FC92EE928A
:10529000149790CE1A968C931A9717968C9317970B
:1052A000E4E0F0E01596FC93EE93149783CE12960B
:1052B0008D919C91FC0124813581B9016F5F7F4FF5
:1052C00026173707E0F4AE014E5D5F4F0E941914B8
:1052D000F80187819AA1890F87830280F381E02DED
:1052E000D80118968D919C91199701972481358149
:1052F0002817390709F05ECEE5E0F0E0D3CF15823C
:105300001482E6CFC8010E94D20554CE8091B60423
:10531000811107C08FEA94E00E94030E81E0809320
:10532000B60480914B0590914C05DC01ED91FC9108
:105330000084F185E02D09951816190614F5809161
:105340004B0590914C05DC01ED91FC910284F385B5
:10535000E02D099597FD15C089838D3009F0FDC0BA
:105360008091560590915705DC01ED91FC910484E4
:10537000F585E02D6FEA74E009958FEA94E00E94CC
:10538000CA058091560590915705DC01ED91FC917D
:105390000680F781E02D099580913F0590914005A9
:1053A000A0914105B0914205892B8A2B8B2B09F4E2
:1053B000C7C00E94BD0500913B0510913C0520919E
:1053C0003D0530913E05601B710B820B930B0091E4
:1053D0003F0510914005209141053091420560172D
:1053E00071078207930708F4ABC00E94BD05609364
:1053F0003B0570933C0580933D0590933E0580925C
:105400003F0590924005A0924105B092420520E0F0
:1054100030E0A9016091290670912A0680912B063F
:1054200090912C060E94882E882341F168E474E054
:1054300086E696E00E94A60E8C01DC01ED91FC91BF
:1054400036970190F081E02D3296E80FF91F8181A7
:1054500092818F7180629283818385E495E00E94BE
:10546000AC0A28E030E040E050E00E94B430BA01DD
:10547000A901C8010E9439180E94ED0C85E00E9424
:1054800059048C01DD24D394892B09F0D12CE091AF
:105490001406F091150644805580668077808091CF
:1054A000BF04D816E9F001151105A1F481E090E0E0
:1054B0000E949313409150065091510660915206FC
:1054C00070915306440D551D661D771D82E196E0CF
:1054D0000E946406012B21F082E196E00E94E4051F
:1054E000D092BF0486E00E9459048C01DD24D3943D
:1054F000892B09F0D12C8091BE04D816F9F0011542
:105500001105B1F48FEF9FEF0E9493138091500625
:1055100090915106A0915206B0915306B301A20199
:10552000481B590B6A0B7B0B82E196E00E946406D4
:10553000012B21F082E196E00E94E405D092BE04A6
:1055400080E090E0892B09F4C2CC0E94EB02882312
:1055500009F4BDCC0E940000B7CCBE016F5F7F4F45
:105560008FEA94E00E9436120CCF8FE495E00E94FF
:105570007C1484E096E00E947C148BE096E00E940C
:105580007C148FE596E00E947C1488E596E00E94EA
:105590007C1480E996E00E940B0986E696E00C9464
:1055A000740AB0E0A0E0E7EDFAE20C94D62D5C01BD
:1055B0006B017A016115710519F0FB0191838083FC
:1055C000E114F10449F0C7010297839728F060E0E5
:1055D00070E0CB019CC05E01E5012196F5011081D0
:1055E000812F90E00E94BC2B892BA9F71D3209F076
:1055F00056C02196F501118101E0E114F10409F48E
:10560000AEC0F0E1EF16F10409F08EC0103341F4A2
:1056100088818F7D883509F083C0198122960260C8
:10562000E0E1EE2EF12C88248A94982CA82CFFE03F
:10563000BF2E20E060E070E0CB0127010F2C000CB2
:1056400066087708FE0150ED352E310E39E033152E
:1056500038F43FEB310F3A31A0F549EC342E310EDE
:105660003E141F04BCF52F3FB9F086169706A80616
:10567000B90670F1A30192010E94982D232D30E00C
:1056800050E040E0620F731F841F951F621773077D
:1056900084079507E8F021E021961081D3CF1B32D3
:1056A00021F4E5012296F501118100E0A6CF78E012
:1056B000E72EF12C88248A94982CA82C6FE1B62E22
:1056C000B8CF3FE9310F3A3128F439EA332EC7CF4A
:1056D0002FEFE2CFC114D10431F02223E9F021975A
:1056E000F601D183C08300FF07C090958095709527
:1056F00061957F4F8F4F9F4F2F3F49F482E290E09B
:105700009093C5068093C4066FEF7FEFCB01CDB7B2
:10571000DEB7E1E10C94F22D01FFE5CF2297E0CF57
:1057200010E3E114F10419F23AE0E316F104E9F0B0
:1057300080E1E816F10409F473CFE8E0EE16F10415
:1057400009F4B8CF6FEF7FEFCB0197010F2C000C5E
:10575000440B550B0E94A82D49015A016ACF103302
:1057600009F456CF9AE0E92EF12C89E9882E982C7D
:10577000A82C89E1B82E5DCF91110C94502D803268
:1057800019F089508550C8F708950F931F93CF9350
:10579000DF93EC018B01892B51F4672B41F4F0E08E
:1057A000E0E0CF01DF91CF911F910F9108956EE05E
:1057B00070E081E090E00E940F2CFC01892B79F3CE
:1057C00080E883830115110571F01387028781E852
:1057D00083838091BE069091BF06892B21F4F093BC
:1057E000BF06E093BE062097E1F2D187C087838190
:1057F000826083838091C0069091C106892B89F6CF
:10580000F093C106E093C0068091C2069091C30652
:10581000892B39F6F093C306E093C206C2CF0F93EB
:105820001F93CF93DF93869F8001879F100D969FD4
:10583000100D1124C8010E942B2CEC01009729F0B7
:10584000A80170E060E00E94532DCE01DF91CF915E
:105850001F910F9108950F931F93CF93DF93823081
:10586000910510F482E090E0E091C806F091C9063D
:1058700030E020E0B0E0A0E0309799F42115310548
:1058800009F44AC0281B390B24303105D8F58A8128
:105890009B816115710589F1FB0193838283FE0170
:1058A00011C0408151810281138148175907E0F0EE
:1058B0004817590799F4109761F012960C931297B4
:1058C00013961C933296CF01DF91CF911F910F91C8
:1058D00008950093C8061093C906F4CF2115310529
:1058E00051F04217530738F0A901DB019A01BD01BD
:1058F000DF01F801C1CFEF01F9CF9093C906809382
:10590000C806CDCFFE01E20FF31F81939193225081
:10591000310939832883D7CF2091C6063091C70635
:10592000232B41F420911A0130911B013093C706BB
:105930002093C606209118013091190121153105D7
:1059400041F42DB73EB740911C0150911D01241B1D
:10595000350BE091C606F091C706E217F307A0F4F5
:105960002E1B3F0B2817390778F0AC014E5F5F4FB5
:105970002417350748F04E0F5F1F5093C70640931A
:10598000C606819391939FCFF0E0E0E09CCFCF9348
:10599000DF930097E9F0FC01329713821282A09105
:1059A000C806B091C906ED0130E020E01097A1F4DF
:1059B00020813181820F931F2091C6063091C70646
:1059C0002817390709F061C0F093C706E093C606AF
:1059D000DF91CF910895EA01CE17DF07E8F54A81FC
:1059E0005B819E0141155105B1F7E901FB83EA8313
:1059F00049915991C40FD51FEC17FD0761F48081BF
:105A000091810296840F951FE90199838883828191
:105A100093819B838A83F0E0E0E012968D919C91C4
:105A200013970097B9F52D913C911197CD010296EE
:105A3000820F931F2091C6063091C7062817390799
:105A400039F6309751F51092C9061092C806B093F6
:105A5000C706A093C606BCCFD383C28340815181C1
:105A6000840F951FC817D90761F44E5F5F4F888177
:105A70009981480F591F518340838A819B81938369
:105A800082832115310509F0B0CFF093C906E09368
:105A9000C8069ECFFD01DC01C0CF13821282D7CF92
:105AA000992788270895DC0101C06D93415050402B
:105AB000E0F70895DC01CB01FC01F999FECF06C0A7
:105AC000F2BDE1BDF89A319600B40D9241505040BC
:105AD000B8F70895A8E1B0E042E050E00C945C2DE6
