:100000000C94E5000C94131F0C94EC1E0C94C51E6C
:100010000C949E1E0C940D010C940D010C94771EF3
:100020000C940D010C940D010C9457210C94C921D2
:100030000C940D010C940D010C940D010C940D0108
:100040000C940D010C94200E0C940D010C940D01D8
:100050000C940D010C940D010C940D010C942D1EAB
:100060000C940D010C9428020C9402020C940D01C6
:100070000C940D010C940D010C940D010C940D01C8
:100080000C940D010C940D010C940D010C940D01B8
:100090000C940D010C940D010C940D010C940D01A8
:1000A0000C940D010C940D010C940D01191C1C1CD9
:1000B0000B1C0F1C151C3D1C3D1C3D1C201C241C36
:1000C000281C2E1C321C3D1C381C00000000240083
:1000D00027002A002D003000000000002500280025
:1000E0002B002E0031000000000023002600290014
:1000F0002C002F000404040404030405020202027D
:1001000004030202020206060606060604040202B0
:100110000204040408020110408040102040804086
:10012000800802040180402010020110801020404D
:1001300040200000000200090F0000030401000C31
:1001400000000000000000000000000000000000AF
:1001500000080B0002020201000904000001020273
:1001600000000524001001052401010104240206F9
:100170000524060001070581031000400904010061
:10018000020A000000070502024000000705830282
:100190004000000403090412010002EF0201404183
:1001A00023368000010102030141726475696E6F9C
:1001B000204C4C430041726475696E6F204C656F32
:1001C0006E6172646F003D29212911241FBECFEF9B
:1001D000DAE0DEBFCDBF14E0A0E0B1E0ECE2FAE689
:1001E00002C005900D92AE37B107D9F727E0AEE710
:1001F000B4E001C01D92AC30B207E1F710E0C4EEEC
:10020000D0E004C02197FE010E941432C33ED10702
:10021000C9F70E9488240C9409350C940000CF92F1
:10022000DF92EF92FF920F931F93CF93DF936C01B6
:100230007A018B01C0E0D0E0CE15DF0581F0D80156
:100240006D918D01D601ED91FC910190F081E02D31
:10025000C6010995892B11F02196EECF7E01C701C9
:10026000DF91CF911F910F91FF90EF90DF90CF9092
:100270000895FC01538D448D252F30E0842F90E0AC
:10028000821B930B541710F0CF9608950197089591
:1002900089E795E00E94AC1B21E0892B09F420E05E
:1002A000822F0895EF92FF920F931F93CF93DF93C6
:1002B000EC0181E0888F9B8D8C8D981305C0E889B7
:1002C000F989808185FD26C0F62E0B8D10E00F5F29
:1002D0001F4F0F731127E02E8C8DE8120CC00FB644
:1002E00007FCFACFE889F989808185FFF5CFCE0137
:1002F0000E94AC1CF1CF8B8DFE01E80FF11DE35A7B
:10030000FF4FF0829FB7F8940B8FEA89FB898081B9
:10031000806209C09FB7F894EE89FF896083E889FD
:10032000F9898081827480839FBF81E090E0DF91B2
:10033000CF911F910F91FF90EF900895CF93DF938E
:10034000EC01888D8823C9F0EA89FB89808185FDCD
:1003500005C0A889B9898C9186FD0FC00FB607FC2E
:10036000F5CF808185FFF2CFA889B9898C9185FF6F
:10037000EDCFCE010E94AC1CE7CFDF91CF91089565
:100380004091DF065091E0062091DD063091DE06B7
:1003900042175307B4F49091E8009570E1F39091FF
:1003A000E80092FD19C08093F1008091DF069091E2
:1003B000E00601968F739927892B19F48EEF8093AD
:1003C000E8008091DF069091E00601969093E006A8
:1003D0008093DF0681E0089580E00895615030F059
:1003E0002091F100FC0120830196F8CF289884E643
:1003F0008093CE040895DC01ED91FC910190F08191
:10040000E02D09941F920F920FB60F9211242F9393
:100410003F934F935F936F937F938F939F93AF938C
:10042000BF93EF93FF9389E795E00E94AC1CFF9187
:10043000EF91BF91AF919F918F917F916F915F915C
:100440004F913F912F910F900FBE0F901F901895D5
:100450001F920F920FB60F9211242F938F939F9399
:10046000EF93FF93E0918905F0918A058081E091F7
:100470008F05F091900582FD12C0908180919205C8
:100480008F5F8F7320919305821751F0E091920551
:10049000F0E0E758FA4F958F8093920501C0808174
:1004A000FF91EF919F918F912F910F900FBE0F9021
:1004B0001F9018950895CB010895CF93DF93EC0119
:1004C000E881F9810288F389E02D09958F3F2FEFAC
:1004D000920731F02D813E812F5F3F4F3E832D8368
:1004E000DF91CF9108958FEF9FEF089560E070E066
:1004F000CB01089580E090E0089580E090E00895B9
:10050000FC018789908D009769F124893589281726
:10051000390718F4308F278B25C001976F3F2FEFD5
:10052000720729F4908F878B80E090E008959B01FB
:10053000215031092F3F310558F4262FA089B18968
:10054000A80FB91F3C91231305C0908F878B08C05B
:1005500020E0F4CF278524FF05C0908F878B6C9314
:10056000CB0108958FEF9FEF0895CF93DF93EC01B8
:10057000E881F9810288F389E02D09958F3F2FEFFB
:10058000920731F02F89388D2F5F3F4F388F2F8B97
:10059000DF91CF910895FC012789308D8489958959
:1005A0002817390740F480899189FC01E20FF31F75
:1005B000808190E008958FEF9FEF0895EF92FF9272
:1005C000CF93DF93FC01DB0160E070E0CB01E788B3
:1005D000F08CC489D589EC16FD06A8F46217730760
:1005E0008407950784F4C089D189CE0DDF1DC881A9
:1005F000CD936F5F7F4F8F4F9F4FC789D08D2196CF
:10060000D08FC78BE4CFDF91CF91FF90EF9008950B
:10061000FC01848995892789308D821B930B08956D
:10062000242FDC01ED91FC910084F185E02D41E067
:10063000099408950895FC01828193810C94790EA8
:10064000CF93DF93EC0184E090E00E94702DBC0119
:100650008A819B81FB019383828323E631E031838E
:100660002083DF91CF910C94CC1FCF93DF93EC01CB
:1006700084E090E00E94702DBC018A819B81FB0187
:100680009383828322E231E031832083DF91CF9113
:100690000C94CC1FCF93DF93EC0184E090E00E9498
:1006A000702DBC018A819B81FB019383828322E2AE
:1006B00031E031832083DF91CF910C94CC1F0C94D7
:1006C000082E0C94082E0C94082E089508950C946E
:1006D000082EDC01ED91FC91369720813181820F4B
:1006E000931F0C9467030C94082E0C940724AF926C
:1006F000BF92CF92DF92EF92FF920F931F93CF930F
:10070000DF931F92CDB7DEB77C0159016A01AC14AB
:10071000BD04B9F1F60181916F018983F7018081F0
:1007200091818B01081B190B648175816F5F7F4F6D
:10073000AE014F5F5F4FC7010E947313F701248121
:10074000358121503109F70180819181021713070A
:1007500058F4FC01E20FF31F21503109DC01A20F14
:10076000B31F8C918083EFCF2981FC01E00FF11F33
:1007700020830F5F1F4FF70160817181600F711F30
:10078000C6CF0F90DF91CF911F910F91FF90EF9007
:10079000DF90CF90BF90AF900895EF92FF920F93AC
:1007A0001F93CF93DF931F92CDB7DEB7FC01922F3B
:1007B0009870822F80712871283119F44230A9F481
:1007C0003BC0413011F48B0116C0423081F48823C4
:1007D00029F004891589060F171F02C000E010E0F8
:1007E000992349F00789108D04C0413061F30489D1
:1007F0001589060F171F2489358920173107E0F066
:10080000992311F0108F078B8823A1F07F011982A3
:10081000AE014F5F5F4FB801CF0140960E94731346
:10082000F701848995892789308D8217930710F401
:10083000908F878BC80102C08FEF9FEF0F90DF91E1
:10084000CF911F910F91FF90EF900895DC011296C8
:10085000ED91FC91139781E08587828193810E94BD
:100860000E0E0E94211EEBEEF4E060837183828302
:10087000938380E49CE9A0E0B0E084839583A68321
:10088000B7830895809147050E94CD1C21E0892BF4
:1008900009F420E02093D2048091D104882341F10F
:1008A0006CE373E083E896E00E94E5130E9458131E
:1008B000E0914805F0914905408151816281738141
:1008C00080914A0590914B05DC011296ED91FC91C7
:1008D000139744835583668377831092D10421E074
:1008E0002093D004ED91FC910480F581E02D0994D2
:1008F0000895EF92FF920F931F93CF93DF931F9270
:10090000CDB7DEB76F3F2FEF720719F480E090E0AC
:1009100028C0FC01278524FF22C07B018C01FC013B
:10092000818D928D248935898217930748F06983D8
:10093000BE016F5F7F4FC80140960E94EB1407C055
:10094000F80120893189F901E80FF91F6083F80166
:10095000818D928D0196928F818FC70102C08FEF9A
:100960009FEF0F90DF91CF911F910F91FF90EF902C
:1009700008950F931F93CF93DF93EB01099000200D
:10098000E9F72197C61BD70BFC0104811581A8014B
:10099000C017D10708F4AE01FC01808191810E944B
:1009A0003132009769F481E090E0C017D10740F040
:1009B0000C171D0710F080E090E09195819591094A
:1009C000DF91CF911F910F910895CF93DF93EC01A9
:1009D0000E94D110CE01DF91CF910C94082EDC0142
:1009E000ED91FC91369720813181820F931F0C94F9
:1009F000E504DC01ED91FC91369720813181820F75
:100A0000931F0C94D11008950895CF93DF93EC01B8
:100A100083E0888319828DE0E2E5F1E0DE01129641
:100A200001900D928A95E1F71F86188A198A1A8A11
:100A300084EF91E09C8B8B8B80E499EBA6E0B0E097
:100A40008D8B9E8BAF8BB88F80E699E09A8F898FC4
:100A5000DF91CF9108950F931F93CF93DF93CDB77D
:100A6000DEB7E6970FB6F894DEBF0FBECDBF8C01A0
:100A7000CE0101960E940505CE014C960E94050507
:100A80004BE150E060E070E0CE014C960E949B2E5E
:100A900086E390E00E94AB2E8B3F9A4421F08BE1DD
:100AA000FE01319606C08C8D8330C9F78BE1FE01C3
:100AB0007C96D80101900D928A95E1F7C801E696DF
:100AC0000FB6F894DEBF0FBECDBFDF91CF911F915F
:100AD0000F9108950895FB0120813181FC0131833C
:100AE0002083FB0142815381F901369720813181B6
:100AF000FC01E20FF31F518340830895DB012D9128
:100B00003C911197FC0131832083F90136972081B4
:100B10003181FC01E20FF31F12968D919C91139786
:100B20009183808381E290E094838383548B438B11
:100B30001582158A08950895AF92BF92CF92DF92E1
:100B4000EF92FF920F931F93CF93DF931F92CDB736
:100B5000DEB77C016B01FB0101900020E9F73197C2
:100B60008F01061B170BFC01A480B5801982B5010B
:100B7000600F711FAE014F5F5F4F0E947313F7014B
:100B800080819181A801B6018A0D9B1D0E94F414F9
:100B9000C7010F90DF91CF911F910F91FF90EF90C0
:100BA000DF90CF90BF90AF9008950E94B90421E0EC
:100BB000892B09F020E0822F0895FB0124813581E3
:100BC00040E050E0608171810C94B411AF92BF920B
:100BD000CF92DF92EF92FF920F931F93CF93DF9309
:100BE000CDB7DEB727970FB6F894DEBF0FBECDBFE7
:100BF0006C017B01FB0100811181A480B580A00EF6
:100C0000B11E88E090E09C838B831E821D820E942F
:100C1000702D9A838983CE0101960E94060EA80149
:100C2000465F5F4F69817A819501CE0101960E94EE
:100C3000770366E473E0CE0101960E94D505882310
:100C4000C9F0F70160817181F601828193810E9470
:100C5000951F84E090E00E94702DBC01F601828116
:100C60009381FB01938382832DE731E031832083DD
:100C70000E94CC1FCE0101960E94AD1327960FB69D
:100C8000F894DEBF0FBECDBFDF91CF911F910F91C2
:100C9000FF90EF90DF90CF90BF90AF9008952BE042
:100CA00032E0FC013183208340960C94AD13CF9346
:100CB000DF93EC010E944F06CE01DF91CF910C949F
:100CC000082EAF92BF92CF92DF92EF92FF920F93D6
:100CD0001F93CF93DF93CDB7DEB727970FB6F89466
:100CE000DEBF0FBECDBF6C017B018091A5048111D9
:100CF0000CC0AE014F5F5F4F66E473E08EE994E095
:100D00000E944C1581E08093A504F70100811181B8
:100D1000A480B580A00EB11E88E090E09C838B83F8
:100D20001E821D820E94702D9A838983CE010196B6
:100D30000E94060EA801465F5F4F69817A81950186
:100D4000CE0101960E94770366E473E0CE0101961E
:100D50000E94B904892BD1F4F70160817181F601F9
:100D6000828193810E94951F84E090E00E94702D03
:100D7000BC01F60182819381FB01938382832DE77D
:100D800031E0318320830E94CC1F09C0BE016F5F18
:100D90007F4F83E896E00E94DD050E945813CE0144
:100DA00001960E94AD1327960FB6F894DEBF0FBED2
:100DB000CDBFDF91CF911F910F91FF90EF90DF900A
:100DC000CF90BF90AF9008950F931F93CF93DF9371
:100DD0001F92CDB7DEB78C018091960481110CC0B3
:100DE000AE014F5F5F4F6DE473E08FE894E00E94C7
:100DF0004C1581E0809396046FE874E0F8018281DD
:100E000093810E94790E0E94211E6093EB047093DF
:100E1000EC048093ED049093EE0480E395E7A0E06A
:100E2000B0E08093EF049093F004A093F104B093AA
:100E3000F2040F90DF91CF911F910F910895EF92DF
:100E4000FF920F931F93CF93DF93CDB7DEB7289711
:100E50000FB6F894DEBF0FBECDBF8C017B01AE0193
:100E6000485F5F4F61E573E0CE0101960E944C152B
:100E7000BE016F5F7F4FC7010E941E21F82ECE0179
:100E800001960E94AD13FF2089F084E090E00E945B
:100E9000702DBC01F80182819381FB0193838283D1
:100EA00022E231E0318320830E94CC1FC8010E94DE
:100EB0000724811111C084E090E00E94702DBC01D4
:100EC000F80182819381FB019383828323E631E0E1
:100ED000318320830E94CC1F28960FB6F894DEBF82
:100EE0000FBECDBFDF91CF911F910F91FF90EF907B
:100EF00008950F931F93CF93DF931F92CDB7DEB763
:100F00008C01AE014F5F5F4F64E573E00E944C15AA
:100F1000C8010F90DF91CF911F910F9108950F930A
:100F20001F93CF93DF931F92CDB7DEB78C01AE0135
:100F30004F5F5F4F6BE573E00E944C15C8010F9047
:100F4000DF91CF911F910F9108950F931F93CF932E
:100F5000DF931F92CDB7DEB78C01AE014F5F5F4FBD
:100F600062E673E00E944C15C8010F90DF91CF91AB
:100F70001F910F9108952F923F924F925F926F921F
:100F80007F928F929F92AF92BF92CF92DF92EF9219
:100F9000FF920F931F93CF93DF93CDB7DEB72C97BC
:100FA0000FB6F894DEBF0FBECDBF6C0129013A0128
:100FB000FC01A18CB28C9E01265F3F4FA201CE01A5
:100FC00001960E941715F601E488F588EA14FB04DF
:100FD00010F40E941A3217012A183B0882012414C7
:100FE000350408F481018D809E80E01AF10AC40165
:100FF00080959095E816F90660F7E80CF91CC60193
:1010000040969C878B870815190538F41886AE0121
:10101000485F5F4FB7010E947313F6018089918981
:10102000A101401B510BB501600F711F680F791FA3
:101030009501280D391D820F931F0E941F3269816F
:101040007A81F60180899189A4018A0D9B1D0E94F5
:10105000F4141986AE01475F5F4FB7018B859C85FD
:101060000E947313CE0101960E94AD13F601818D8B
:10107000928D840D951D928F818FC301B2012C96A4
:101080000FB6F894DEBF0FBECDBFDF91CF911F9199
:101090000F91FF90EF90DF90CF90BF90AF909F9017
:1010A0008F907F906F905F904F903F902F9008951A
:1010B000FF920F931F93CF93DF931F92CDB7DEB7AD
:1010C0008C01F62EBC01CE0101960E9446136F2DB5
:1010D000C8010E940A12C8010F90DF91CF911F91A1
:1010E0000F91FF9008958F929F92AF92BF92CF92EF
:1010F000DF92EF92FF92CF93DF93EC01E881F981C9
:101100000484F585E02D09958823C9F1E881F981EA
:101110000284F385E02DCE0109956B017C016F8976
:10112000788D898D9A8D9B01AC010E942D319B0198
:10113000AC0160E070E0CB010E945C2F4B015C01D0
:101140008F8D98A1A9A1BAA1BC01CD0190589B0196
:10115000AC010E945D2F9B01AC01C501B4010E944E
:10116000CE2F0E944030CB01770FAA0BBB0BC80ECD
:10117000D91EEA1EFB1ECB86DC86ED86FE86DF913D
:10118000CF91FF90EF90DF90CF90BF90AF909F9066
:101190008F900895FC0181850895CF93C1E020E0F0
:1011A00030E0A901FC016789708D818D928D0E94CC
:1011B000C92F811101C0C0E08C2FCF910895DC01AF
:1011C0001296ED91FC9113976481758186819781C8
:1011D0000895CF92DF92EF92FF92CB01BA019B016B
:1011E000AC010E945D2F6B017C0120E034E244E7FA
:1011F0005BE40E94283118168CF020E030E044E7D0
:1012000053E4C701B6010E94C92F87FF0EC0C12C4D
:10121000D12C94E7E92E93E4F92E07C0C12C84E287
:10122000D82E84E7E82E8BE4F82EA701960160E023
:1012300074E284E79BE40E94CE2F0E9447307093B3
:101240000B0160930A01FF90EF90DF90CF9008951B
:101250003093AE042093AD041092AF040E94E908CD
:1012600080910A0190910B019093890080938800EE
:1012700010928500109284001092800089E0809383
:101280008100EFE6F0E08081826080830895CF9353
:10129000DF93EC0188899989DC01ED91FC91008450
:1012A000F185E02D0995892BA9F388899989DC01BD
:1012B000ED91FC910284F385E02DDF91CF910994AB
:1012C000CF93DF93EC0188899989DC01ED91FC9142
:1012D0000084F185E02D0995892BA9F388899989E6
:1012E000DC01ED91FC910484F585E02DDF91CF9137
:1012F00009948F929F92AF92BF92CF92DF92EF921A
:10130000FF920F931F93CF93DF938C0149015A01F2
:10131000EB01C12CD12C7601D80150968D919C9176
:101320005197DC01ED91FC910284F385E02D099544
:101330008F3F61F0C814D904EA04FB043CF489939C
:10134000BFEFCB1ADB0AEB0AFB0AE6CFC701B601F7
:10135000DF91CF911F910F91FF90EF90DF90CF9091
:10136000BF90AF909F908F900895DC0150968D9123
:101370009C915197DC01ED91FC910084F185E02D69
:101380000994CF93DF93C091F304D091F404E881E2
:10139000F9810084F185E02DCE010995892BB9F3FF
:1013A000E881F9810284F385E02DCE01DF91CF91B0
:1013B00009941F93CF93DF93182FC091F304D0911A
:1013C000F4048A3041F4E881F9810190F081E02D44
:1013D0006DE0CE010995E881F9810190F081E02D61
:1013E000612FCE01099521E030E0019711F420E052
:1013F00030E0C901DF91CF911F91089508950F93B7
:101400001F93CF93DF936F3F2FEF720719F480E0A4
:1014100090E011C0EB018C016A3031F46DE0F8010D
:10142000808991890E94FB016C2FF8018089918944
:101430000E94FB01CE01DF91CF911F910F91089582
:101440007F928F929F92AF92BF92CF92DF92EF9254
:10145000FF920F931F93CF93DF938C0149015A01A1
:10146000EB01C12CD12C7601C814D904EA04FB0489
:10147000B4F479908AE0781206C06DE0F8018089B2
:1014800091890E94FB01672DF801808991890E9452
:10149000FB01FFEFCF1ADF0AEF0AFF0AE5CFC50114
:1014A000B401DF91CF911F910F91FF90EF90DF90EA
:1014B000CF90BF90AF909F908F907F9008952F9284
:1014C0003F924F925F926F927F928F929F92AF92D4
:1014D000BF92CF92DF92EF92FF920F931F93CF9321
:1014E000DF93CDB7DEB728970FB6F894DEBF0FBEF7
:1014F000CDBF98878F83DC01ED91FC910484F58545
:10150000E02D0995882309F41DC10E94211EEF8159
:10151000F885C78CD0A0E1A0F2A0078510892189A9
:101520003289601B710B820B930B0E94763020E096
:1015300030E04AE754E40E94CE2FA70196010E94B2
:101540002D31AF81B88553962D913D914D915C9190
:1015500056970E945D2F4B015C01EF81F885028058
:10156000F381E02DFA83E98344805580668077809B
:10157000AF81B88593962C90939794963C909497CE
:1015800095960C91959796961C9196971B968D9192
:101590009D910D90BC91A02DBC01CD0164197509E0
:1015A0008609970997FF07C090958095709561957A
:1015B0007F4F8F4F9F4F0E9476302B013C01C70118
:1015C000B6019F779B01AC010E945D2F9B01AC018E
:1015D000C301B2010E942D316B017C019101A80170
:1015E000B101C8010E942D319B01AC01C701B601B8
:1015F0000E945D2F0E94A0316B017C01EF81F88574
:1016000061857285072E000C880B990B0E9478303B
:101610006B837C838D839E839B01AC01C701B601E4
:101620000E942D316B017C0120E030E0A901C50151
:10163000B4010E94283124013501181624F077FAEC
:10164000709477F8709420E030E0A901C701B601EA
:101650000E94283118160CF46CC0F7FAF094F7F8D1
:10166000F094A3019201C701B6010E942831181617
:101670007CF420E030E0A901C501B4010E942831CA
:1016800075016401181624F0F7FAF094F7F8F09455
:101690009101A801C701B6010E94C92F87FD16C09C
:1016A000A981BA811A966D917C911B9780E090E098
:1016B0000E9476305B018C019B01AC01C701B60131
:1016C0000E942831181624F4650101C061017801D7
:1016D0002B813C814D815E81C701B6010E942D3175
:1016E000EF81F885678B708F818F928F87819085CE
:1016F000DC01ED91FC910480F581E02DB701A6019C
:1017000028960FB6F894DEBF0FBECDBFDF91CF9104
:101710001F910F91FF90EF90DF90CF90BF90AF900F
:101720009F908F907F906F905F904F903F902F9001
:101730000994A7019601C301B2010E94C92F87FD38
:1017400098CFA6CF28960FB6F894DEBF0FBECDBFB8
:10175000DF91CF911F910F91FF90EF90DF90CF908D
:10176000BF90AF909F908F907F906F905F904F90C1
:101770003F902F900895CF93DF93EC018F81988550
:10178000DC01ED91FC910280F381E02D09951F8E23
:1017900018A219A21AA21F8A188E198E1A8E1A86DA
:1017A000198661E08D810E94F61C60E08C810E94A8
:1017B000F61CEFA1F8A5309719F0DF91CF910994AD
:1017C000DF91CF9108958F929F92AF92BF92CF9267
:1017D000DF92EF92FF920F931F93CF93DF93EC0171
:1017E0000A811B81F80184819581A681B7816A01F4
:1017F0007B01C81AD90AEA0AFB0AD701C6014B873E
:101800005C876D877E8761E070E01C141D041E04F8
:101810001F0414F060E070E08827B7FD83959927D6
:10182000AA27BB277B01E81AF90AFA86E986D801BC
:101830001A96CD90DC901B97EC9CB001ED9C700D3E
:10184000FC9C700D112480E090E00E9476306B8F3C
:101850007C8F8D8F9E8FB60180E090E00E94763065
:101860004B015C01F8016085718580E090E00E9489
:10187000763020E030E04AE754E40E94CE2F9B010E
:10188000AC01C501B4010E94CE2F4B015C01B70130
:10189000FF0C880B990B0E9478309B01AC01C501AD
:1018A000B4010E942D316F8F78A389A39AA3D80128
:1018B0001C968C91882319F011E000E002C010E022
:1018C00001E060E08C810E94F61C89859A8597FF73
:1018D00002C0602F01C0612F8E810E94F61C60E063
:1018E0008D810E94F61C0E94211E6F87788B898B48
:1018F0009A8BCF88D88CE98CFA8C20E030E0A90153
:10190000C701B6010E942831181624F0C701B6019C
:10191000905802C0C701B6018BA09CA0ADA0BEA08C
:10192000A50194010E94C92F0F81188587FF2BC044
:1019300069857A85072E000C880B990B0E947830F8
:10194000A50194010E942D316B8B7C8B8D8B9E8B1E
:101950006F8B788F898F9A8FD801ED91FC910190D0
:10196000F081E02D9E01B501A401C801DF91CF9166
:101970001F910F91FF90EF90DF90CF90BF90AF90AD
:101980009F908F900994CB8ADC8AED8AFE8AD801D9
:10199000ED91FC91C481D58120E030E0A901C7011F
:1019A000B6010E942831181624F0F7FAF094F7F8DF
:1019B000F094B701A601C801FE01DF91CF911F91FC
:1019C0000F91FF90EF90DF90CF90BF90AF909F90DE
:1019D0008F9009941F93CF93DF93EC01162F8C8186
:1019E0000E94F61CEA81FB814481558166817781E2
:1019F000112379F089859A85092E000CAA0BBB0B5F
:101A0000840F951FA61FB71F84839583A683B78372
:101A100013C08B859C85AD85BE85481759076A071D
:101A20007B0751F4E881F9810280F381E02DCE013A
:101A3000DF91CF911F910994DF91CF911F9108956C
:101A4000AFE8B2E01296ED91FC91139736972081A2
:101A50003181820F931F14962D913C911597FC01B3
:101A6000318320830895DC01ED91FC91369720812C
:101A70003181820F931F0C94200DCF93DF93EC01E3
:101A80000E94200DCE01DF91CF910C94082EDC0135
:101A9000ED91FC91369720813181820F931F0C9438
:101AA0003D0D089508950C94082EDC01ED91FC91F4
:101AB000369720813181820F931F0C94530D0C9423
:101AC000082E0C94082E0C94082E0C94082E25EE4B
:101AD00032E0FC01318320832FEE32E0358B248B02
:101AE00065EF72E00C946B05DC01ED91FC9136978B
:101AF00020813181820F931F0C94670DCF93DF9368
:101B0000EC010E94670DCE01DF91CF910C94082E5D
:101B1000DC01ED91FC91369720813181820F931F7A
:101B20000C947E0DCF93DF93EC0184E090E00E9453
:101B3000702DBC018A819B81FB019383828321EB01
:101B400031E031832083DF91CF910C94CC1FCF9370
:101B5000DF93EC0184E090E00E94702DBC018A814B
:101B60009B81FB019383828321EB31E031832083CE
:101B7000DF91CF910C94CC1FDC011296ED91FC917A
:101B800013971586808191810E9441170E94211E22
:101B9000EBEEF4E0608371838283938388E893E1C2
:101BA000A0E0B0E084839583A683B7830895EF9285
:101BB000FF920F931F93CF93DF93EC018B017A0178
:101BC0008A819B818617970740F4685F7F4F86174D
:101BD000970718F4CE010E948C118C819D8180178B
:101BE000910758F4E881F981E80FF91F309719F04F
:101BF000D7012C9120830196F2CF1D830C83DF91B6
:101C0000CF911F910F91FF90EF900895FC012481D7
:101C10003581232B11F0158214820895CF93DF9321
:101C2000EC011D821C828A819B810E94060E1E820D
:101C30001F82198618868FEF8A87DF91CF910895CA
:101C40001F920F920FB60F9211242F933F934F9331
:101C50005F936F937F938F939F93AF93BF93EF9314
:101C6000FF936091AF0481E068276093AF04809197
:101C7000AD049091AE04DC01ED91FC910190F081F6
:101C8000E02D099580910A0190910B0190938900B4
:101C900080938800FF91EF91BF91AF919F918F91B9
:101CA0007F916F915F914F913F912F910F900FBE58
:101CB0000F901F901895109281001092850010923D
:101CC0008400EFE6F0E080818D7F80838FEF90E0ED
:101CD000909389008093880090938B0080938A0072
:101CE000109280001092AF0408950C945B0E08953A
:101CF0000895AF92BF92CF92DF92EF92FF920F932F
:101D00001F93CF93DF93CDB7DEB727970FB6F89425
:101D1000DEBF0FBECDBF8C016B01FC0180859185BC
:101D20009E838D8308969C838B830E94702D9A835B
:101D3000898380E090E02D813E818217930778F4BB
:101D4000F801A481B581A80FB91FE981FA81E80FD4
:101D5000F91F309711F02C9120830196ECCFF601FA
:101D6000E480F580FBE0EF0EF11C6EE7F801808166
:101D700091810E94FB016F2DC8010E943A1F6E2DB8
:101D8000C8010E943A1F60E0C8010E943A1FF80192
:101D90008685FF24F394F80E21F492E0F92EF80ED4
:101DA000F801F6866F2DC8010E943A1FF801A48041
:101DB000B580F8012481358180859185820F931F3C
:101DC000A816B90648F4F501E1905F016E2DC8012F
:101DD0000E943A1FFE0CEDCF60E0C8010E943A1F3E
:101DE000F601A080B180F601208131818481958146
:101DF000820F931FA816B90648F4F501E1905F0120
:101E00006E2DC8010E943A1FFE0CEDCF6F2D60951C
:101E1000C8010E943A1FCE0101960E94AD13279679
:101E20000FB6F894DEBF0FBECDBFDF91CF911F91EB
:101E30000F91FF90EF90DF90CF90BF90AF900895FB
:101E4000EF92FF920F931F93CF93DF93CDB7DEB73F
:101E500028970FB6F894DEBF0FBECDBF8C017B0173
:101E6000AE01485F5F4F61E573E0CE0101960E94CD
:101E70004C15BE016F5F7F4FC7010E941E21F82ED7
:101E8000CE0101960E94AD13F11019C088E090E0D8
:101E90000E94702DFC01D80112968D919C91139790
:101EA0009383828327E931E03183208329E633E07D
:101EB0003783268315821482BF010E94CC1F289687
:101EC0000FB6F894DEBF0FBECDBFDF91CF911F914B
:101ED0000F91FF90EF9008950F931F93CF93DF938F
:101EE000CDB7DEB728970FB6F894DEBF0FBECDBFD3
:101EF0008C01DC011296ED91FC911397158680817F
:101F000091810E944117AE01485F5F4F63EB73E020
:101F1000CE0101960E944C15D8011296ED91FC91CC
:101F20001397808191814D815E8169817A81DC0185
:101F3000ED91FC910280F381E02D0995CE0101968F
:101F40000E94AD130E94211EEBEEF4E060837183CA
:101F5000828393838CED95E0A0E0B0E08483958349
:101F6000A683B78328960FB6F894DEBF0FBECDBF09
:101F7000DF91CF911F910F9108950F931F93CF93EE
:101F8000DF931F92CDB7DEB78C01AE014F5F5F4F7D
:101F900067EB73E00E944C15C8010F90DF91CF9161
:101FA0001F910F91089580E090E008951F93CF93C3
:101FB000DF93EC01162F8F8580FF0BC0E881F9813C
:101FC0000084F185E02D20E144E060E070E0CE0186
:101FD0000995EB85FC852D853E85812F90E0E217E4
:101FE000F30758F410832B853C852F5F3F4F3C87C8
:101FF0002B87DF91CF911F910895E881F981028CA1
:10200000F38DE02DBC01CE01DF91CF911F9109949A
:102010008F929F92AF92BF92CF92DF92EF92FF92F8
:102020000F931F93CF93DF938C0149015A01EB016A
:10203000C12CD12C7601C814D904EA04FB0464F441
:102040006991C8010E94D60F019649F08FEFC81A16
:10205000D80AE80AF80AEFCFB401C50102C0B601F8
:10206000C701DF91CF911F910F91FF90EF90DF900B
:10207000CF90BF90AF909F908F900895CF93DF93B4
:10208000EC01E881F98136970190F081E02DE80FAD
:10209000F91F83899489DC01ED91FC910484F58515
:1020A000E02D0995019659F4E881F9813697019060
:1020B000F081E02DEC0FFD1F858181608583CE01CD
:1020C000DF91CF9108958038C9F08A3811F5809159
:1020D000750590917605E0916C05F0916D05028093
:1020E000F381E02D0190F081E02D608170E0DC0152
:1020F000ED91FC910088F189E02D0AC08091750571
:1021000090917605DC01ED91FC910684F785E02D38
:102110000994089508950F931F93CF93DF934091EF
:10212000EF045091F0046091F1047091F204452B9A
:10213000462B472B89F1EC010E94211E0091EB04F4
:102140001091EC042091ED043091EE04DC01CB0100
:10215000801B910BA20BB30B0091EF041091F004C4
:102160002091F1043091F20480179107A207B30780
:1021700098F01092EF041092F0041092F104109273
:10218000F204E881F9810488F589E02DCE01DF9120
:10219000CF911F910F910994DF91CF911F910F91D2
:1021A0000895CF93DF93EC018DE292E099838883C9
:1021B00087E392E09E8F8D8FCE0102960E944F069C
:1021C0006DE372E0CE01DF91CF910C946B05CF925D
:1021D000DF92EF92FF92DC011296ED91FC91139742
:1021E000C588D688E788F08C8D919C91DC01ED91B3
:1021F000FC910284F385E02D099597FF05C06C0DD5
:102200007D1D8E1D9F1DF9CFA70196010E94F531FE
:10221000FF90EF90DF90CF9008954F925F926F9272
:102220007F928F929F92AF92BF92CF92DF92EF9266
:10223000FF924A015B01DC011296ED91FC9113972C
:10224000458856886788708C0E94E7107501640184
:10225000C61AD70AE80AF90A21F1C301B20122E03D
:1022600030E040E050E00E94F5312C153D054E0570
:102270005F0524F4C418D508E608F70888279927CD
:10228000DC01821B930BA40BB50BC816D906EA061A
:10229000FB065CF4C701B601640D751D861D971D14
:1022A00006C060E070E0CB0102C0C701B601FF903C
:1022B000EF90DF90CF90BF90AF909F908F907F90E6
:1022C0006F905F904F9008950F931F93CF93DF937C
:1022D000EC01CB01088119817B836A830E94702DF8
:1022E00099838883D801CD01801B910B2C813D817E
:1022F0008217930750F4E881F981E80FF91F3097AE
:1023000011F08C9180831196EECFC801DF91CF91AF
:102310001F910F910C94082E0F931F93CF93DF936F
:10232000EC01CB01088119817B836A830E94702DA7
:1023300099838883D801CD01801B910B2C813D812D
:102340008217930750F4E881F981E80FF91F30975D
:1023500011F08C9180831196EECFC801DF91CF915F
:102360001F910F910C94082E8F929F92AF92BF9263
:10237000EF92FF920F931F93CF93DF93EC017B01BA
:1023800049015A01E881F98136970190F081E02DE9
:10239000E80FF91F03891489D8011F968C911F97A4
:1023A00080FF0BC0ED91FC910084F185E02D20E1D0
:1023B00044E060E070E0C8010995D801ED91FC911E
:1023C000008CF18DE02DA5019401B701C80109959C
:1023D0006F3F7F4F99F4E881F98136970190F08142
:1023E000E02DEC0FFD1F8581982F926023893489A1
:1023F000232B11F0958302C083608583CE01DF918A
:10240000CF911F910F91FF90EF90BF90AF909F9051
:102410008F900895CF93DF93EC01E881F98136978F
:102420000190F081E02DE80FF91F838994890E94C3
:10243000D60F019699F4E881F98136970190F081E1
:10244000E02DEC0FFD1F8581982F92602389348940
:10245000232B11F0958302C083608583CE01DF9129
:10246000CF9108954F925F926F927F928F929F9239
:10247000AF92BF92CF92DF92EF92FF920F931F9392
:10248000CF93DF93EC018B0129013A01E881F981B7
:1024900036970190F081E02D3296E80FF91FC28443
:1024A000D384E484F584C21AD30AE40AF50A81814C
:1024B00092818E709927049729F5460157011814C7
:1024C00019041A041B0464F0D701C601F7FE03C007
:1024D00080E090E0DC01C81AD90AEA0AFB0A12C0BF
:1024E00081E0881A9108A108B108E881F98136973E
:1024F0000190F081E02DEC0FFD1F6089CE010E945C
:102500000A12DDCFA3019201B801CE010E94B411DD
:10251000E881F98136970190F081E02DEC0FFD1FE5
:10252000838194818E7099270297B9F41C141D043D
:102530001E041F0494F481E0C81AD108E108F108D0
:10254000E881F98136970190F081E02DEC0FFD1FB5
:102550006089CE010E940A12E9CFE881F98136979D
:1025600080819181C80FD91F1C861D861E861F86FB
:10257000DF91CF911F910F91FF90EF90DF90CF905F
:10258000BF90AF909F908F907F906F905F904F9093
:102590000895EF92FF920F931F93CF93DF93CDB7E0
:1025A000DEB764970FB6F894DEBF0FBECDBF8C01C7
:1025B000DC01ED91FC9136970190F081E02DE80F60
:1025C000F91F8381948185FD18C086FF05C092FDA7
:1025D00017C087EC93E01FC087FF15C09C0122271E
:1025E000307292FF05C0232B89F480ED93E013C075
:1025F000232B79F489ED93E00EC08EEB93E00BC0B2
:1026000082EC93E008C080E090E005C08BEC93E0A2
:1026100002C085ED93E07F936F935F934F939F93F9
:102620008F931F9284E18F939E012F5F3F4F79011B
:102630003F932F930E943F329C01990F440B550BFF
:10264000B701C8010E943212D801ED91FC91369772
:102650000190F081E02DE00FF11F838194810FB68E
:10266000F894DEBF0FBECDBF96FF03C0C8010E9425
:102670003E1064960FB6F894DEBF0FBECDBFDF915B
:10268000CF911F910F91FF90EF90089521E0FC01F1
:102690002083FB01A081B18116978D919C91E80F59
:1026A000F91F81899289009711F00C943E100895CA
:1026B0000F931F93CF93DF931F92CDB7DEB78C019B
:1026C000BC01CE0101960E9446136AE0C8010E9437
:1026D0000A12C8010E943E10C8010F90DF91CF91ED
:1026E0001F910F910895EF92FF920F931F93CF9335
:1026F000DF93EC018C819D818617970710F57A0195
:102700008B018A819B818617970740F4685F7F4F12
:102710008617970718F4CE010E9464118C819D8161
:102720008017910758F4E881F981E80FF91F309775
:1027300019F0D7012C9120830196F2CF1D830C83D1
:1027400005C06817790710F47D836C83DF91CF9102
:102750001F910F91FF90EF900895FC01808191816E
:102760000C94082ECF93DF93EC0188E090E09B83DC
:102770008A831D821C820E94702D99838883DF9139
:10278000CF910895CF92DF92EF92FF920F931F9314
:10279000CF93DF931F92CDB7DEB78C016A017B0127
:1027A000BC01CE0101960E944613B701A601C801E3
:1027B0000E94C912C8010F90DF91CF911F910F9114
:1027C000FF90EF90DF90CF900895EF92FF920F93DC
:1027D0001F93CF93DF931F92CDB7DEB78C017B01A0
:1027E000BC01CE0101960E944613F7010190002022
:1027F000E9F731979F012E193F0940E050E0B701FA
:10280000C8010E943212C8010F90DF91CF911F9131
:102810000F91FF90EF9008954F925F926F927F9289
:102820008F929F92AF92BF92CF92DF92EF92FF92E0
:1028300084E695E00E94E71060936006709361065D
:1028400080936206909363060E9496176DED73E085
:1028500083E896E00E94E5130E9458131092D10479
:102860008091D004882309F458C01092D004E091DC
:102870004805F09149054080518062807380E09066
:102880006205F0906305C7010E94E7104B015C01EF
:10289000B301A201C7010E940D116B017C01C80C9C
:1028A000D91CEA1CFB1C80914A0590914B05DC0168
:1028B000ED91FC910284F385E02D09954B015C01BB
:1028C0006CEE73E083E896E00E94E513B501A40185
:1028D0000E94C2136CEF73E00E94E513B701A601DA
:1028E0000E94C2130E94581380914A0590914B0593
:1028F000DC01ED91FC910084F185E02DB701A6018A
:10290000FF90EF90DF90CF90BF90AF909F908F900F
:102910007F906F905F904F900994FF90EF90DF90C1
:10292000CF90BF90AF909F908F907F906F905F906F
:102930004F900895FF920F931F93CF93DF931F92B1
:10294000CDB7DEB78C01F62EBC01CE0101960E94F8
:102950004613D801ED91FC9136970190F081E02D5E
:10296000E00FF11F838184FF10C0FF2039F024E0C5
:1029700030E040E050E061E074E012C025E030E07B
:1029800040E050E066E074E00BC021E030E040E061
:1029900050E0FF2019F06CE074E002C06EE074E0DB
:1029A000C8010E943212D801ED91FC913697019036
:1029B000F081E02DE00FF11F8381948196FF03C029
:1029C000C8010E943E10C8010F90DF91CF911F9166
:1029D0000F91FF900895AB01FC0124813581B9016D
:1029E0006F5F7F4F0C947313CF92DF92EF92FF9241
:1029F0000F931F93FB01DC0100E010E098016A01D6
:102A0000E12CF12C0C151D052E053F0538F46191C4
:102A10006D930F5F1F4F2F4F3F4FF4CF840F951FC4
:102A20001F910F91FF90EF90DF90CF900895CF927C
:102A3000DF92EF92FF920F931F93CF93DF931F923A
:102A4000CDB7DEB78C017B016A01B9010E94B213D8
:102A50008FEFC816D80611F40E941A32F701808150
:102A6000181684F41982AE014F5F5F4FB601C8019A
:102A70000E947313F80144815581B70180819181CF
:102A80000E94F4140F90DF91CF911F910F91FF904E
:102A9000EF90DF90CF900895AF92BF92CF92DF92E8
:102AA000EF92FF920F931F93CF93DF931F92CDB7B7
:102AB000DEB76C017B01BA010E94B213E114F1048C
:102AC000F1F0F70101900020E9F731978F010E191D
:102AD0001F09F601A480B5801982B8016A0D7B1D1B
:102AE000AE014F5F5F4FC6010E947313F6018081F4
:102AF0009181A801B7018A0D9B1D0E94F4140F90CB
:102B0000DF91CF911F910F91FF90EF90DF90CF90C9
:102B1000BF90AF9008950F931F93CF93DF931F92B1
:102B2000CDB7DEB78C018091C60481110CC0AE0117
:102B30004F5F5F4F60E174E08FEB94E00E944C15B3
:102B400081E08093C6048091B70481110CC0AE016E
:102B50004F5F5F4F66E174E080EB94E00E944C159C
:102B600081E08093B7046CE776E083E896E017FF96
:102B700005C00E94DD0560EB74E004C00E94DD0525
:102B80006FEB74E00E94DD0565E776E00E94DD05ED
:102B90000E9458130F90DF91CF911F910F910895CC
:102BA0000F931F93CF93DF931F92CDB7DEB78C01A6
:102BB000AE014F5F5F4F6BE174E00E944C15C8019E
:102BC0000F90DF91CF911F910F910895CF92DF92D7
:102BD000EF92FF920F931F93CF93DF93CDB7DEB7A2
:102BE0006C970FB6F894DEBF0FBECDBF7C018B0192
:102BF000DB011496CD90DC901597B2E0CB16D10492
:102C000040F4AE014F5F5F4F61E274E00E944C15EB
:102C1000A0C0BE016C5E7F4FCE0101960E94B21330
:102C2000BE016C5E7F4FCE0108960E94B213CE01AA
:102C300001960E94060EF801648175811C8EAE011A
:102C4000445E5F4FCE0101960E947313D801149623
:102C50004D915C9115976D917C9189819A810E942B
:102C6000F414188A198A1A8A1B8AF8016081718102
:102C70006F5F7F4FCE0108960E94EB14F2E0CF16F3
:102C8000D10449F480E38F87BE016F5F7F4FC70196
:102C90000E9470184AC0D8016D917C916E5F7F4F81
:102CA000CE0108960E94EB14B3E0CB16D10451F389
:102CB000D801ED91FC9183818F87B6E0CB16D104CA
:102CC00000F184818C32E9F439C045505109BF01CB
:102CD0006B5F7F4F9E01255E3F4FCE0144960E9461
:102CE00017154AE050E060E070E08C899D890E94F1
:102CF0000B2C688B798B8A8B9B8BCE0144960E9420
:102D0000AD13BE016F5F7F4FCE0144960E947018D5
:102D1000AE01455E5F4FBE016C5E7F4FC7010E94F2
:102D20002920CE0144960E94AD13CE0108960E9440
:102D3000AD13CE0101960E94AD130BC0D8011496BD
:102D40004D915C9115974530510508F0BECF0E941A
:102D50001A32C7016C960FB6F894DEBF0FBECDBF16
:102D6000DF91CF911F910F91FF90EF90DF90CF9067
:102D70000895DF92EF92FF920F931F93CF93DF930B
:102D8000CDB7DEB7E4970FB6F894DEBF0FBECDBF68
:102D90007C018B01CE0101960E945420F801D6845B
:102DA000B801695F7F4FCE0101960E94DD056D2D50
:102DB0000E945808AE014C5C5F4FBE016D5E7F4FB4
:102DC000C7010E942920CE0101960E94D110C7019F
:102DD000E4960FB6F894DEBF0FBECDBFDF91CF9162
:102DE0001F910F91FF90EF90DF9008958F929F9227
:102DF000AF92BF92DF92EF92FF920F931F93CF9308
:102E0000DF93CDB7DEB7E4970FB6F894DEBF0FBE01
:102E1000CDBF7C018B0149015A01CE0101960E9470
:102E20005420F801D684B801695F7F4FCE01019626
:102E30000E94DD056D2D0E945808B501A4010E9475
:102E4000C213AE014C5C5F4FBE016D5E7F4FC70188
:102E50000E942920CE0101960E94D110C701E4965C
:102E60000FB6F894DEBF0FBECDBFDF91CF911F919B
:102E70000F91FF90EF90DF90BF90AF909F908F9059
:102E80000895FC01A089B18982E08C93A485B58561
:102E90001C92A685B7858FEC8C93108EA489B5897A
:102EA00086E08C93A289B3898C9180618C93A289EE
:102EB000B3898C9188608C93A289B3898C91806846
:102EC0008C930288F389E02D80818F7D8083089523
:102ED0002091CF04211103C08FEF9FEF08955FB7BA
:102EE000F89422E02093E9002091F20030E01216DD
:102EF000130614F421E030E0422FFC0184E6415037
:102F000038F028988093CE049091F1009193F7CFF8
:102F10002115310521F08091F200882319F05FBF5F
:102F2000C90108958BE68093E800F9CF3F924F9254
:102F30005F926F927F928F929F92AF92BF92CF9249
:102F4000DF92EF92FF920F931F93CF93DF93CDB752
:102F5000DEB7EF970FB6F894DEBF0FBECDBFCE0140
:102F600001960E945420A0906605B0906705F50177
:102F7000618D728D072E000C880B990B28E0422E74
:102F8000512C612C712CA30192010E94F5312CAFC0
:102F90003DAF4EAF5FAFF50167857089818992893A
:102FA000A30192010E94F53169017A01F501658959
:102FB00076898789908DA30192010E94F53149019C
:102FC0005A013090D204311009C08091D10481118E
:102FD00006C03090D00481E0382601C0312C84E650
:102FE00095E00E94E7102B013C01E981FA813697B8
:102FF0000190F081E02D329681E090E08C0F9D1FD2
:10300000E80FF91F818192818F71806292838183A1
:1030100065E274E0CE0101960E94E5138C01C301C4
:10302000B20128E030E040E050E00E94F531BA0102
:10303000A901C8010E94C2136CE20E945808632DC6
:103040000E949A146CE20E945808B501A4010E94E3
:10305000C2136CE20E945808B701A6010E94C21375
:103060006CE20E9458084CAD5DAD6EAD7FAD0E9424
:10307000C21365E776E00E94DD05AE01455C5F4F57
:10308000BE016D5E7F4FCE01C4960E942920BE0115
:103090006C5C7F4F83E896E00E94DD050E94581328
:1030A000CE01C4960E94AD13CE0101960E94D110AC
:1030B000EF960FB6F894DEBF0FBECDBFDF91CF9174
:1030C0001F910F91FF90EF90DF90CF90BF90AF9046
:1030D0009F908F907F906F905F904F903F9008955A
:1030E0002F923F924F925F926F927F928F929F9218
:1030F000AF92BF92CF92DF92EF92FF920F931F9306
:10310000CF93DF93CDB7DEB7E7970FB6F894DEBF66
:103110000FBECDBF7C018B01DB011E968C918335E8
:1031200081F480916805909169050E94790EB8013B
:10313000CE0101960E94B916CE0101960E94AD13F0
:1031400028C2823509F0C4C26B01B7E0CB0ED11C96
:103150006BE274E0C6010E94D505882349F0E09136
:103160006605F09167052285338540E050E033C263
:103170006EE274E0C6010E94D5058823A9F0F8012B
:1031800087859089A189B28984369105A105B10509
:103190000CF49EC2E0916405F09165050280F38114
:1031A000E02D918780878FC261E374E0C6010E94A1
:1031B000D505882359F0E0916605F0916705618D8A
:1031C000728D072E000C880B990BB6C164E374E076
:1031D000C6010E94D5058823D1F0F8018785908922
:1031E000A189B28923E0880F991FAA1FBB1F2A95C6
:1031F000D1F7813DFFE29F07A105B10508F068C244
:10320000E0916605F0916705928F818F5CC260EB5B
:1032100073E0C6010E94D505882309F1BE01645EF2
:103220007F4FCE0101960E94B21360EB73E0CE0196
:1032300001960E949C0567E374E0CE0101960E940E
:103240009C05AE01445E5F4FBE016F5F7F4FC701BB
:103250000E942920CE0101960E94AD1341C265E46F
:1032600074E0C6010E94D505882309F4A7C0E09147
:103270006605F0916705658976898789908D0E943A
:10328000783020E030E044EB53E40E94CE2F4B0135
:103290005C01D8011F966D917D918D919C91529703
:1032A0000E9478309B01AC01C501B4010E942D3110
:1032B0000E9447302B013C0184E695E00E94E71014
:1032C0004B015C01B301A20184E695E00E940D115F
:1032D0002B013C01480C591C6A1C7B1C8091640525
:1032E00090916505DC01ED91FC910284F385E02D60
:1032F000099553014201861A970AA80AB90AE09172
:103300006605F0916705C18CD28CB501A40183E8F4
:1033100096E00E94C21368E474E00E94E5131C0169
:10332000BC01CE0101960E944613A601DD0C660B7E
:10333000770BC1010E94C9126BE474E0C1010E94C5
:10334000E5130E945813B501A401B7FE07C0442736
:103350005527BA01481959096A097B09E0916605A0
:10336000F0916705818D928D092E000CAA0BBB0B85
:10337000481759076A077B070CF4A5C181E090E064
:10338000181419041A041B0414F080E090E0882437
:10339000B7FC83949924AA24BB24881999090E9414
:1033A0008B158091640590916505DC01ED91FC9190
:1033B0000084F185E02DB301A2012EC06DE474E01C
:1033C000C6010E94D505882349F1E0916605F09178
:1033D0006705478550896189728984E695E00E9476
:1033E0000D1181E08093D1041092D00480914A05A0
:1033F00090914B05E0914805F09149054681578130
:1034000060857185440F551F661F771FDC01ED91A4
:10341000FC910084F185E02D099555C160E574E0CB
:10342000C6010E94D505882349F0E0916605F09118
:10343000670567857089818992897EC063E574E03C
:10344000C6010E94D505882319F1F80147855089E6
:1034500061897289DB01CA01E3E0880F991FAA1F05
:10346000BB1FEA95D1F774FD33C1E0916605F09179
:103470006705458956896789708D481759076A0716
:103480007B070CF425C18787908BA18BB28B1BC166
:1034900066E574E0C6010E94D505882361F080913D
:1034A000640590916505DC01ED91FC910280F3814A
:1034B000E02D099508C169E574E0C6010E94D505B3
:1034C000882361F08091640590916505DC01ED91A0
:1034D000FC910284F385E02D09952EC06CE574E023
:1034E000C6010E94D5058823C1F0F801878590891F
:1034F000A189B28953E0880F991FAA1FBB1F5A9553
:10350000D1F7E0916405F09165050280F381E02D2B
:1035100084839583A683B783D6C06FE574E0C60124
:103520000E94D505882379F0E0916605F091670542
:10353000658976898789908D28E030E040E050E009
:103540000E94F53148C062E674E0C6010E94D505CC
:103550008823B1F02091660530916705F8018785D1
:103560009089A189B28943E0880F991FAA1FBB1FC8
:103570004A95D1F7F901858B968BA78BB08FA3C0A5
:1035800065E674E0C6010E94D505882341F00E94DB
:103590009617AE014F5F5F4F6BEF73E09EC068E61A
:1035A00074E0C6010E94D5058823D1F0E09164053E
:1035B000F09165050280F381E02D22853385C901F4
:1035C000A0E0B0E09C01AD0193E05595479537959B
:1035D00027959A95D1F7B801C7010E94F61680C0C9
:1035E0006BE674E0C6010E94D505882329F1D80155
:1035F0001F964D905D906D907C90529783E0440CA7
:10360000551C661C771C8A95D1F7C0906405D09034
:103610006505F60163A174A185A196A10E944730BA
:103620004616570608F454C0D6011296ED91FC9147
:1036300013975386428647C06EE674E0C6010E9427
:10364000D505882389F0C0906605D0906705CE0126
:1036500001960E9405058BE1FE013196D60101908D
:103660000D928A95E1F71FC061E774E0C6010E94E0
:10367000D505882389F0C0906605D0906705CE01F6
:103680004D960E942B058BE1FE017D96D60101909F
:103690000D928A95E1F717C064E774E0C6010E94B5
:1036A000D5058823A9F04BE150E060E070E08091FF
:1036B0006605909167050E94B12E6BEF7AE486E370
:1036C00090E00E94D32EB801C7010E94B91608C02D
:1036D000AE014F5F5F4F61E274E0C7010E944C157D
:1036E000C701E7960FB6F894DEBF0FBECDBFDF91DE
:1036F000CF911F910F91FF90EF90DF90CF90BF90EF
:10370000AF909F908F907F906F905F904F903F9081
:103710002F900895FC01918D828D981761F0828D14
:10372000DF01A80FB11D5D968C91928D9F5F9F73F5
:10373000928F90E008958FEF9FEF0895FC01918D97
:10374000828D981731F0828DE80FF11D858D90E004
:1037500008958FEF9FEF0895FC01918D228D892FA1
:1037600090E0805C9F4F821B91098F739927089589
:1037700080E090E0892B29F00E94480181110C948F
:1037800000000895CF93DF931F92CDB7DEB7698312
:10379000DC01ED91FC910280F381E02D41E050E0ED
:1037A000BE016F5F7F4F09950F90DF91CF91089514
:1037B00083E08093E9008091F200882319F08AE386
:1037C0008093E8000895FC018485958597FD0BC0E2
:1037D0009FB7F89482E08093E9008091F2009FBF48
:1037E00090E0019608959FB7F89482E08093E900F5
:1037F0008091F2009FBF90E00895089580E090E0EE
:10380000089590E0FC013197EF30F105B0F5EA5AE8
:10381000FF4F0C941432809180008F7703C0809109
:1038200080008F7D80938000089580918000877F45
:10383000F9CF84B58F7702C084B58F7D84BD08959C
:10384000809190008F7707C0809190008F7D03C09A
:1038500080919000877F8093900008958091C000B0
:103860008F7703C08091C0008F7D8093C000089542
:103870008091C200877F8093C20008953FB7F8947B
:103880008091E7049091E804A091E904B091EA04E2
:1038900026B5A89B05C02F3F19F00196A11DB11DAB
:1038A0003FBFBA2FA92F982F8827820F911DA11DE6
:1038B000B11DBC01CD0142E0660F771F881F991F23
:1038C0004A95D1F7089508950E94462190E0089501
:1038D0000F931F93CF93DF931F92CDB7DEB78C0169
:1038E000FC018485958597FF0EC0CE0101960E944C
:1038F0006817019719F4898190E002C08FEF9FEF5C
:10390000F80195878487F801848595850F90DF916C
:10391000CF911F910F910895CF93DF931F92CDB751
:10392000DEB7FC018485958597FD05C02FEF3FEF3D
:10393000358724870BC0CE0101960E946817019736
:1039400019F4898190E002C08FEF9FEF0F90DF9113
:10395000CF9108950E941A32FC01848DDF01A80FD7
:10396000B11DA35ABF4F2C91848D90E001968F73A7
:103970009927848FA689B7892C93A089B1898C91C6
:1039800082748C93938D848D981306C00288F3897A
:10399000E02D80818F7D80830895CF93DF93282F42
:1039A00030E0F901EE5CFE4F8491F901ED5EFE4FCF
:1039B000D491F901EC50FF4FC491CC2391F08111C7
:1039C0000E94011CEC2FF0E0EE0FFF1FEA51FF4FA9
:1039D000A591B491EC91ED2381E090E021F480E099
:1039E00002C080E090E0DF91CF9108951F93CF93C4
:1039F000DF93282F30E0F901EE5CFE4F8491F9014E
:103A0000ED5EFE4FD491F901EC50FF4FC491CC23F1
:103A1000C1F0162F81110E94011CEC2FF0E0EE0F77
:103A2000FF1FE852FF4FA591B4919FB7F894111171
:103A300004C08C91D095D82302C0EC91DE2BDC938E
:103A40009FBFDF91CF911F910895CF93DF9390E0B7
:103A5000FC01ED5EFE4F2491FC01EC50FF4F849180
:103A6000882361F190E0880F991FFC01E653FF4F16
:103A7000C591D491FC01E852FF4FA591B491611119
:103A800009C09FB7F8948881209582238883EC91A0
:103A90002E230BC0623061F49FB7F8948881322FD7
:103AA000309583238883EC912E2B2C939FBF06C0E7
:103AB0008FB7F894E8812E2B28838FBFDF91CF91A9
:103AC00008958F929F92AF92BF92CF92DF92EF9222
:103AD000FF926B017C010E943E1C4B015C01C114F2
:103AE000D104E104F104F1F00E943E1CDC01CB01A1
:103AF00088199909AA09BB09883E9340A105B10517
:103B000070F321E0C21AD108E108F10888EE880EAE
:103B100083E0981EA11CB11CC114D104E104F1047E
:103B200019F7DDCFFF90EF90DF90CF90BF90AF906F
:103B30009F908F9008958F929F92AF92BF92CF9255
:103B4000DF92EF92FF920F931F93CF93DF936C015D
:103B50007B018A0180911701882309F45CC0809160
:103B6000CF04882309F457C08091E20680FF05C086
:103B70008091E00082608093E000E801B12C8AEF40
:103B8000A82E93E0892E2AE3922E209711F4BB20D1
:103B9000D9F10E94462181110AC0AA94AA20D9F124
:103BA00061E070E080E090E00E94611DEECF282F80
:103BB00030E0C217D3070CF48C2F9FB7F894809293
:103BC000E9002091E80025FF1DC0282F30E0C21B2E
:103BD000D30BF701815020F041914093F100FACFCF
:103BE000E20EF31EBB2019F09092E8000AC080910B
:103BF000E80085FD07C09092E800BB24B3942097AD
:103C000009F0B12C9FBFC1CF5D9884E68093E30695
:103C10001016110644F081E090E0F6019383828350
:103C200080E090E001C0C801DF91CF911F910F911A
:103C3000FF90EF90DF90CF90BF90AF909F908F90CC
:103C400008952FB7F8946091E3047091E404809193
:103C5000E5049091E6042FBF08951F920F920FB6CE
:103C60000F9211242F933F938F939F93AF93BF9302
:103C70008091E3049091E404A091E504B091E604FE
:103C80003091E20423E0230F2D3720F40196A11D8B
:103C9000B11D05C026E8230F0296A11DB11D20937A
:103CA000E2048093E3049093E404A093E504B093CA
:103CB000E6048091E7049091E804A091E904B091B2
:103CC000EA040196A11DB11D8093E7049093E804D6
:103CD000A093E904B093EA04BF91AF919F918F91B3
:103CE0003F912F910F900FBE0F901F9018951F922C
:103CF0000F920FB60F9211242F933F934F935F9320
:103D00006F937F938F939F93AF93BF93EF93FF93A3
:103D1000E0910801F09109010995FF91EF91BF91A0
:103D2000AF919F918F917F916F915F914F913F9153
:103D30002F910F900FBE0F901F9018951F920F920A
:103D40000FB60F9211242F933F934F935F936F936E
:103D50007F938F939F93AF93BF93EF93FF93E091E4
:103D60000601F09107010995FF91EF91BF91AF9185
:103D70009F918F917F916F915F914F913F912F9183
:103D80000F900FBE0F901F9018951F920F920FB6B5
:103D90000F9211242F933F934F935F936F937F93D1
:103DA0008F939F93AF93BF93EF93FF93E0910401A1
:103DB000F09105010995FF91EF91BF91AF919F910E
:103DC0008F917F916F915F914F913F912F910F90C4
:103DD0000FBE0F901F9018951F920F920FB60F9263
:103DE00011242F933F934F935F936F937F938F9300
:103DF0009F93AF93BF93EF93FF93E0910201F091F4
:103E000003010995FF91EF91BF91AF919F918F9120
:103E10007F916F915F914F913F912F910F900FBEC6
:103E20000F901F9018951F920F920FB60F921124AA
:103E30002F933F934F935F936F937F938F939F93B2
:103E4000AF93BF93EF93FF93E0910001F0910101D5
:103E50000995FF91EF91BF91AF919F918F917F91C4
:103E60006F915F914F913F912F910F900FBE0F90E7
:103E70001F9018950F931F93CF938C01C62F80919D
:103E8000DA0481112FC08CE090E09093D6048093E7
:103E9000D50484E090E09093D8048093D7048CE01C
:103EA00090E00E94702D9093D4048093D304A7ECEB
:103EB000B1E0CD01875C91402091D7043091D804C6
:103EC0008217930760F4E091D304F091D404E80FD3
:103ED000F91F309711F08C9180831196EACF81E021
:103EE0008093DA048091D3049091D4042091D70474
:103EF0003091D804280F391FFC018217930760F412
:103F000001964081C413F8CF80E2C8276DE7F8011D
:103F1000808191810E94FB016C2FF8018081918149
:103F2000CF911F910F910C94FB01AF92BF92CF9252
:103F3000DF92EF92FF921F93CF93DF93EC017B010F
:103F40006C0184E0C80ED11CC6010E94060E19E067
:103F50001150C1F057018FEFA81AB80A88859985CA
:103F6000BC016F5F7F4F8617970730F4A701C6012A
:103F70000E94D70D7501ECCF68177907D8F77987BC
:103F80006887F8CFDF91CF911F91FF90EF90DF907E
:103F9000CF90BF90AF900895EF92FF920F931F9331
:103FA000CF93DF93CDB7DEB727970FB6F894DEBF78
:103FB0000FBECDBF7C018B01DB01ED91FC91048034
:103FC000F581E02DCE010196099567E774E083E85D
:103FD00096E00E94E513BE016F5F7F4F0E94DD05F2
:103FE0000E945813CE0101960E94AD13F7018385FC
:103FF00094850097B1F0DC01ED91FC910084F1858E
:10400000E02D0995F701838594850817190749F074
:10401000009739F0DC01ED91FC910280F381E02DF5
:104020000995F70114870387D801ED91FC9102846B
:10403000F385E02DC801099527960FB6F894DEBFE9
:104040000FBECDBFDF91CF911F910F91FF90EF90E9
:104050000895EF92FF920F931F93CF93DF931F92D8
:10406000CDB7DEB78C017B01BA010E94B213F70114
:10407000648175811982AE014F5F5F4FC8010E9454
:104080007313F80144815581F70160817181F80152
:10409000808191810E94F4140F90DF91CF911F9144
:1040A0000F91FF90EF9008950F931F93CF93DF939D
:1040B0001F92CDB7DEB78C01AC014E5F5F4F81E23E
:1040C00090E0F80191A380A312A213A214A286E0AB
:1040D00090E0A0E0B0E085A396A3A7A3B0A711A6A7
:1040E00012A613A614A68BEB92E0968F858F80E222
:1040F00085A717A616A651AB40AB12AA6DE372E0D6
:10410000C8010E947E058DE292E0F80191838083D0
:1041100087E392E0968F858F16821582108617822C
:10412000128611861486138616861586108A1786BF
:10413000118A8BE092E093838283BE016F5F7F4F91
:10414000C80142960E94B213F801128E118E148E8D
:10415000138E80E1818B0F90DF91CF911F910F9192
:1041600008958091E90681110DC082E08093E506F3
:1041700084E08093E6061092E8061092E70681E05C
:104180008093E90685EE96E00895DF92EF92FF9224
:104190000F931F93CF93DF93D82E8A017B01E40EF8
:1041A000F51EEB01CE15DF0571F0D7FE03C0FE0151
:1041B000849101C088810E94C00121968111F2CFB3
:1041C0008FEF9FEF01C0C801DF91CF911F910F9139
:1041D000FF90EF90DF9008950F931F93CF93DF939D
:1041E0001F92CDB7DEB782E0898342E450E061E5FB
:1041F00071E080E80E94C5200E94B120DC01129687
:104200000D911C9113970115110589F0D801ED91BD
:10421000FC910280F381E02DBE016F5F7F4FC801EA
:10422000099597FD04C0F80100851185ECCF8981BF
:104230000F90DF91CF911F910F9108950F931F93CE
:10424000CF93DF93FC0104811581FB01C481D581EB
:10425000A801C017D10708F4AE01FB01608171818C
:10426000FC01808191810E943132892B49F481E0E7
:10427000C017D10730F00C171D0718F080E001C0FF
:1042800081E0DF91CF911F910F9108952FB7F8949E
:1042900083E08093E9009091E800892F807295FF78
:1042A00004C09091F20080E4891B2FBF08951F92F3
:1042B0000F920FB60F9211248F939F938091E1007C
:1042C0009091E100937F9093E10083FF0FC01092E3
:1042D000E90091E09093EB001092EC0092E3909350
:1042E000ED001092CF0498E09093F00082FF20C080
:1042F00093E09093E9009091F200992319F09AE3EA
:104300009093E8009091E306992339F09091E306A9
:1043100091509093E306992389F19091CE049923CB
:1043200039F09091CE0491509093CE04992341F1AD
:1043300084FF10C08091E2008E7E81608093E20055
:104340008091E1008F7E8093E1008091E2068E7E75
:10435000806111C080FF16C08091E2008E7E806176
:104360008093E2008091E1008E7E8093E100809155
:10437000E2068E7E81608093E20604C05D9ACDCF16
:10438000289AD6CF9F918F910F900FBE0F901F90BC
:1043900018951F920F920FB60F921124CF92DF92B1
:1043A000EF92FF920F931F932F933F934F935F933F
:1043B0006F937F938F939F93AF93BF93EF93FF93ED
:1043C000CF93DF93CDB7DEB76C97DEBFCDBF109232
:1043D000E9008091E80083FFFBC168E0CE014596CB
:1043E0000E94EE0182EF8093E8008D8987FF05C06F
:1043F0009091E80090FFFCCF03C09EEF9093E800FF
:10440000982F907609F0C6C09E894F89588D2F89C4
:10441000F88C91110CC0803829F48091E1068093CA
:10442000F10002C01092F1001092F10045C19130EC
:1044300051F4811141C14130510509F03DC18091D4
:10444000E1068D7F0BC0933061F4811135C141309D
:10445000510509F031C18091E10682608093E10647
:104460002BC1953049F48091E80080FFFCCF822F6A
:1044700080688093E30020C1963009F05EC00B8D08
:104480001C8D22E01092E9001092E0061092DF06E7
:10449000F21232C01092DE061092DD060E94EC206D
:1044A00099E0BE016F5F7F4FDB01E92F1D92EA9516
:1044B000E9F79983FA8291E09E8390EA98879AEFD0
:1044C00099872091DF063091E006275F3F4F3C83BC
:1044D0002B838D831092E9001092E0061092DF0684
:1044E0001093DE060093DD0649E050E080E00E9474
:1044F000C5200E94EC20E0C01093DE060093DD068C
:104500000E94B120DC0112960D911C9113970115A8
:10451000110509F4BBC0D801ED91FC910480F5812F
:10452000E02DBE016B5E7F4FC8010995009709F031
:10453000C7C0F80100851185EACF973009F445C15D
:10454000983021F481E08093F100B6C0993009F0F1
:10455000B3C0837009F039C1EAE1F3E081E031E0F2
:1045600096E32081211109C08EE78093EA00109222
:10457000EA008F898093CF049FC08093E900309335
:10458000EB0021912093EC009093ED008F5F87303A
:1045900041F7EACF8B8D9C8D1092E9001092E006D6
:1045A0001092DF069093DE068093DD06898D8111DF
:1045B00053C08E899D89913A49F4813209F005C131
:1045C00047E050E060E171E080E0BBC0913209F06B
:1045D000FCC0833269F48F89988DA0E0B0E08093AD
:1045E0000C0190930D01A0930E01B0930F0164C0D4
:1045F000803269F48091E80082FFFCCF67E080E1BF
:1046000091E00E94EE018BEF8093E80055C082326A
:1046100009F052C08F8980931701EEEFFFE7859173
:1046200094918B3F9C4D19F0E0E0F8E002C0EEEF72
:10463000FAE08091100190911101A0911201B091C6
:104640001301803B9440A105B10509F09EC0809103
:10465000170180FF79C099C00E94B120FC0102813E
:1046600013810115110509F4B0C0D801ED91FC9139
:104670000190F081E02DBE016B5E7F4FC80109956E
:1046800081111AC0F80100851185EBCFF1E0FF160A
:1046900009F44EC0F3E0FF1298C08F89882309F413
:1046A0004AC0823089F440E860E185EB91E00E94E5
:1046B000D62B882309F489C08EEF8093E80088C048
:1046C00018161906CCF381C0813029F440E86BE05C
:1046D00089EA91E0ECCF833009F077C00E94B120E5
:1046E000DC011296ED90FC9013978E010F5F1F4F27
:1046F0006801E114F10479F0D701ED91FC91068095
:10470000F781E02DB801C7010995080F111DF701C8
:10471000E084F184EECFD8011C92F60101900020D4
:10472000E9F73197BF016C197D0940E0C601BFCFA1
:1047300067E971E002C063E971E0FB01449150E078
:1047400080E80E94C520B8CFEE3F2AE0F20751F082
:10475000808191818737A7E79A0721F09093FF0A1C
:104760008093FE0A87E797E79183808380916000BA
:104770008093E4069BE088E10FB6F894A8958093B7
:1047800060000FBE9093600097CF80819181873742
:10479000974709F091CFA895809160008861809338
:1047A00060008091E40680936000EE3FBAE0FB0772
:1047B00039F08091FE0A9091FF0A918380837CCF2B
:1047C0001092FF0A1092FE0A77CF81E28093EB00ED
:1047D0006C960FB6F894DEBF0FBECDBFDF91CF91C0
:1047E000FF91EF91BF91AF919F918F917F916F91C9
:1047F0005F914F913F912F911F910F91FF90EF90FB
:10480000DF90CF900F900FBE0F901F9018950F93D1
:104810001F93CF93DF9300D0CDB7DEB78C0180918B
:10482000F80681110AC0BE016F5F7F4F81EF96E0ED
:104830000E94B21381E08093F80681EF96E00E9417
:10484000060E6BEB73E081EF96E00E949C05D801A9
:1048500016962D913C91179714968D919C911597D2
:10486000AC014F5F5F4F15965C934E931497F9011F
:10487000E80FF91F80818A83882309F441C08C32B4
:10488000B9F58DE08983BE016F5F7F4F81EF96E0C0
:104890000E94EB14D8011296ED91FC911397808140
:1048A00091814091F5065091F6066091F106709164
:1048B000F206DC01ED91FC910280F381E02D099577
:1048C0000E94211E6093EB047093EC048093ED042E
:1048D0009093EE0488E893E1A0E0B0E08093EF04C9
:1048E0009093F004A093F104B093F20481E009C026
:1048F000BE016E5F7F4F81EF96E00E94EB14A7CF61
:1049000080E00F900F90DF91CF911F910F9108954C
:10491000CF93DF93CDB7DEB72F970FB6F894DEBFF6
:104920000FBECDBF789484B5826084BD84B58160AC
:1049300084BD85B5826085BD85B5816085BD80916A
:104940006E00816080936E001092810080918100E2
:1049500082608093810080918100816080938100DA
:1049600080918000816080938000809191008260BE
:10497000809391008091910081608093910080915B
:1049800090008160809390008091C100846080934A
:10499000C1008091C10082608093C1008091C100FC
:1049A00081608093C1008091C30081608093C300C7
:1049B0008091C00082608093C0008091C2008160BD
:1049C0008093C20080917A00846080937A00809105
:1049D0007A00826080937A0080917A00816080936F
:1049E0007A0080917A00806880937A001092CF04D8
:1049F0001092E1061092E2068091D70081608093C8
:104A0000D70080EA8093D80089B5806189BD89B5D7
:104A1000826089BD09B400FEFDCF61E070E080E0F6
:104A200090E00E94611D8091D8008F7C806180930E
:104A3000D8008091E000807F8093E0008091E100C9
:104A40008E7E8093E1008DE08093E200559A209A5B
:104A500061E0809136060E94F61C60E08091350688
:104A60000E94F61C8CE094E19093590680935806BE
:104A700062E085E00E94251D62E086E00E94251D1F
:104A800080912C0690912D06409730F460E170E003
:104A90008AE296E00E946411809125069091260694
:104AA000809730F460E270E083E296E00E948C111F
:104AB0008FEF9FEF909304058093030589E795E0BE
:104AC0000E94411768EE73E080E090E00E94611D53
:104AD00086E196E00E940E0E0E94211E60935A0508
:104AE00070935B0580935C0590935D0588EE93E081
:104AF000A0E0B0E080935E0590935F05A093600511
:104B0000B093610562E0809147050E94251D809168
:104B100047050E94CD1C21E0892B09F420E0209359
:104B2000D2041092D1041092D004809147058823BA
:104B300009F40EC3813009F40DC3823009F40CC3AB
:104B4000833009F40BC3873071F40AC3833008F053
:104B500025C3813009F41AC3809169008C7F81607C
:104B600080936900E89A62E080914C050E94251DBF
:104B700010924D0510925205109253051092540553
:104B80001092550580E395E7A0E0B0E080935605CC
:104B900090935705A0935805B0935905789461E018
:104BA00083E896E00E949A140E94581384E090E0F3
:104BB0000E94702D2AE635E0DC0113963C932E937B
:104BC000129722E231E02D933C93BC018AE695E0F6
:104BD0000E94CC1F46E0242E312C52E0E52EF12C11
:104BE0006AEF862E912CA12CB12C81E396E00E94D5
:104BF0005F0A87EF94E00E94E31B181619060CF079
:104C00004EC087EF94E00E948C1C97FD48C08887B7
:104C10008D3021F0803491F18A30A1F580912E06FB
:104C200090912F060297D8F1BE01685F7F4F8AE20C
:104C300096E00E94EB146AE276E0CE0101960E94B3
:104C4000E6158D819E81892B81F06AE383E896E0E9
:104C50000E945808BE016F5F7F4F0E94DD0565E727
:104C600076E00E94DD050E9458138AE296E00E94D9
:104C7000060ECE0101960E94AD1311C08AE296E0A5
:104C80000E94060E80912E0690912F06409738F4D0
:104C9000BE01685F7F4F8AE296E00E94EB1480912C
:104CA0007705882309F4DEC000916C0510916D052D
:104CB000F80180819181DC01ED91FC910084F18506
:104CC000E02D0995181619060CF011C120E2622E8C
:104CD00033E0C32ED12C77247394F8018081918125
:104CE000DC01ED91FC910084F185E02D0995181609
:104CF00019060CF0FCC0F80180819181DC01ED9176
:104D0000FC910284F385E02D099597FDE6CF8F870E
:104D10008E3719F4C8010E940E0EF801868188238F
:104D200021F016828F8586258F87D80114962D91C4
:104D30003C9115978F852115310519F18D3719F49F
:104D400016967C92CACF2330310581F190F4213040
:104D5000310501F12230310509F0BFCFF80120857E
:104D60003185A901482BCA0191878087D582C482E9
:104D7000B4CF2430310521F12530310509F454C078
:104D8000ACCF8E3709F0A9CF41E050E0F801558350
:104D90004483A3CFD80118961C92189719968C9328
:104DA00019971596FC92EE92149797CFD8011A9600
:104DB0008C931A9717968C931797E4E0F0E02FC026
:104DC000D80112968D919C911397FC012481358115
:104DD000B9016F5F7F4F2617370730F4AE01415F8F
:104DE0005F4F0E94D70D05C06217730710F47583DB
:104DF0006483F80197818F85890F87830280F3810F
:104E0000E02DD80118968D919C91199701972481D6
:104E100035812817390709F060CFE5E0F0E01596F5
:104E2000FC93EE93149759CFD80117969C9117973E
:104E3000890F17968C9317978F3F81F415963C92A4
:104E40002E92149712966D917C9113971B96ED916B
:104E5000FC911C971A968C9109953FCFC8010E942E
:104E60000E0E3BCF8091850481110AC0BE016F5F99
:104E70007F4F8EE794E00E94B21381E08093850417
:104E800080916A0590916B05DC01ED91FC910084A5
:104E9000F185E02D0995181619064CF580916A05E3
:104EA00090916B05DC01ED91FC910284F385E02D7E
:104EB000099597FD1CC089838D3091F4809175050B
:104EC00090917605DC01ED91FC910484F585E02D4F
:104ED0006EE774E009958EE794E00E94060E07C025
:104EE000BE016F5F7F4F8EE794E00E94EB148091CC
:104EF000750590917605DC01ED91FC910680F781B6
:104F0000E02D099580915E0590915F05A091600567
:104F1000B0916105892B8A2B8B2B09F416C10E9455
:104F2000211E00915A0510915B0520915C0530917E
:104F30005D05DC01CB01801B910BA20BB30B009133
:104F40005E0510915F052091600530916105801725
:104F50009107A207B30708F4F8C00E94211E6093CE
:104F60005A0570935B0580935C0590935D05809274
:104F70005E0590925F05A0926005B092610520E009
:104F800030E0A901609148067091490680914A0677
:104F900090914B060E94C92F882361F184E695E029
:104FA0000E94E7102B013C0160E273E083E896E089
:104FB0000E94E5138C01DC01ED91FC913697019084
:104FC000F081E02D3296E80FF91F818192818F7177
:104FD000806292838183C301B20128E030E040E027
:104FE00050E00E94F531BA01A901C8010E94C21324
:104FF0000E94581385E00E94CD1C8C01DD24D394BF
:10500000892B09F0D12CE0913306F09134064480CD
:1050100055806680778080918E04D816E9F001155E
:105020001105A1F481E090E00E948B1540916F067C
:10503000509170066091710670917206440D551D75
:10504000661D771D81E396E00E94E30B012B21F0A2
:1050500081E396E00E947308D0928E0486E00E945D
:10506000CD1C8C01DD24D394892B09F0D12C8091A7
:105070008D04D816F9F001151105B1F48FEF9FEFEB
:105080000E948B1580916F0690917006A091710619
:10509000B0917206B301A201481B590B6A0B7B0B3E
:1050A00081E396E00E94E30B012B21F081E396E07F
:1050B0000E947308D0928D0480914C050E94CD1CF3
:1050C00020914D05892BA9F0222341F062E273E083
:1050D00083E896E00E94E5130E94581310924D0554
:1050E00010925205109253051092540510925505D6
:1050F0002CC0222309F467C080915205909153057A
:10510000A0915405B0915505892B8A2B8B2BE9F082
:105110000E94211E00914E0510914F0520915005CF
:1051200030915105DC01CB01801B910BA20BB30B1D
:105130000091520510915305209154053091550569
:1051400080179107A207B307F0F50E94B81B4DCD59
:1051500082E007C083E005C081E003C080E001C0B9
:1051600084E0E82FF0E0EE0FFF1FE050FF4F22E455
:1051700034E031832083823009F0E8CC80916900EB
:105180008F7C806180936900EA9AEDCC8091690000
:10519000837F846080936900E99AE5CC833041F491
:1051A000809169008F73806480936900EB9ADBCCF7
:1051B000843009F0D1CC80916A008F7C806180932B
:1051C0006A00EE9AD0CC40905605509057056090FA
:1051D0005805709059050E94211E60934E057093EA
:1051E0004F0580935005909351054092520550927F
:1051F0005305609254057092550581E080934D05EA
:10520000AE014F5F5F4F60E373E0CE0108960E94EE
:105210004C15BE01685F7F4FCE0101960E94E615D6
:10522000CE0101960E94AD1365E373E083E896E03A
:105230000E94E5130E945813CE0108960E94AD13F8
:1052400084CF8EE695E00E94AD1383E296E00E9443
:10525000AD138AE296E00E94AD138CE796E00E94BF
:10526000AD1385E796E00E94AD138FEA96E00E94A9
:10527000200D83E896E00C94670D4F925F926F9239
:105280007F92AF92BF92DF92EF92FF920F931F93A4
:10529000CF93DF931F92CDB7DEB789E7E82E85E085
:1052A000F82E10927C0510927B0588EE93E0A0E02A
:1052B000B0E080937D0590937E05A0937F05B09329
:1052C000800527E432E030937A05209379052DECB0
:1052D00030E030938605209385052CEC30E0309348
:1052E00088052093870528EC30E030938A052093C9
:1052F000890529EC30E030938C0520938B052AEC4E
:1053000030E030938E0520938D052EEC30E0309305
:10531000900520938F05109292051092930510929C
:1053200094051092950507EF14E01092FA0410927C
:10533000F9048093FB049093FC04A093FD04B093C4
:10534000FE0489E592E09093F8048093F7048FEFD0
:105350009FEF90930405809303051092EB04109245
:10536000EC041092ED041092EE041092EF041092EF
:10537000F0041092F1041092F20491E2A92EB12CE3
:10538000B0929B06A0929A0610929C0610929D06DF
:1053900010929E0626E0422E512C612C712C4092D8
:1053A0009F065092A0066092A1067092A2061092EB
:1053B000A3061092A4061092A5061092A6068BEBE7
:1053C00092E0909398068093970630E2D32ED09285
:1053D000A7061092A9061092A80685E896E0909379
:1053E000AB068093AA061092AC06AC0165EF72E0A2
:1053F00083E896E00E947E0585EE92E09093840615
:10540000809383068FEE92E09093980680939706A0
:10541000109289061092880610928B0610928A06C6
:1054200010928D0610928C0610928F0610928E06A6
:105430001092910610929006109293061092920686
:1054400083EC92E0909386068093850610939606EF
:105450000093950620E120939406B092CB06A0928B
:10546000CA061092CC061092CD061092CE0640923B
:10547000CF065092D0066092D1067092D20610925A
:10548000D3061092D4061092D5061092D606D0926A
:10549000D7061092D9061092D8061092DC06109208
:1054A000B1061092B2061092B3061092B40625EB24
:1054B00036E03093DB062093DA0621E832E03093C1
:1054C000B0062093AF062BE832E03093C806209355
:1054D000C7061092B9061092B8061092BB06109239
:1054E000BA061092BD061092BC061092BF0610922A
:1054F000BE061092C1061092C0061092C30610920A
:10550000C2069093B6068093B5061093C606009324
:10551000C50688E08093C4061092F6041092F50444
:105520001093F4040093F30461EC79E089ED99E0C1
:105530000E94092D9093F6048093F504AE014F5F0D
:105540005F4F6EE273E085E796E00E944C15AE0176
:105550004F5F5F4F6CE774E08CE796E00E944C155C
:1055600083E193E09093AE068093AD068DEA96E0DA
:105570000E945B0E8AE596E00E942B058FEF92E079
:10558000909332068093310681E090E090933B0641
:1055900080933A0610923C0610923D0610923E0609
:1055A00010923F0610924006109241061092420659
:1055B0001092430610924406109245061092460639
:1055C0001092470610924C0610924D0610924E060D
:1055D00010924F06109250061092510610925206E9
:1055E000109253068CE596E0909334068093330630
:1055F0008DEA96E09093390680933806109248061B
:105600001092490610924A0610924B068CE0809345
:1056100035068AE0809336068BE08093370680E07B
:1056200090E0AAE7B3E48093540690935506A093C4
:105630005606B093570661E08CE00E94251D61E09C
:10564000809137060E94251D61E0809136060E94F8
:10565000251D61E0809136060E94F61C10925906C5
:1056600010925806BE016F5F7F4F8AE296E00E945B
:10567000B213BE016F5F7F4F83E296E00E94B213C8
:10568000F0921706E092160683E296E090931906D0
:105690008093180683E690E190932206809321067A
:1056A000F0926B05E0926A0586E196E090936D05B5
:1056B00080936C05BE016F5F7F4F8EE695E00E9480
:1056C000B213109277051092780580917005909131
:1056D0007105089730F468E070E08EE695E00E946E
:1056E0008C1181E396E090936505809364052AE52B
:1056F00036E030936705209366052AE635E030935F
:1057000069052093680524E635E03093630520930E
:10571000620590934B0580934A0589E696E0909345
:1057200049058093480582E08093470510925A0509
:1057300010925B0510925C0510925D0510925E055B
:1057400010925F05109260051092610587E08093CA
:105750004C0510924D0510924E0510924F05109277
:105760005005109251051092520510925305109257
:1057700054051092550580E395E7A0E0B0E08093D2
:10578000560590935705A0935805B09359050F906F
:10579000DF91CF911F910F91FF90EF90DF90BF901D
:1057A000AF907F906F905F904F900895DF92EF924F
:1057B000FF920F931F93CF93DF93D82EF92EE42EF1
:1057C000062F10E0C8010196880F0E94C00183E0F7
:1057D0000E94C001CD2DDF2D0C0F1D1FC017D1075A
:1057E00089F0E7FE03C0FE01849101C088810E9418
:1057F000C001F82E80E00E94C0018F212196811106
:10580000EDCF01C081E0DF91CF911F910F91FF900B
:10581000EF90DF900895A0E0B0E0E1E1FCE20C94AD
:10582000172F5C016B017A016115710519F0FB01FD
:1058300091838083E114F10429F0C70102978397D3
:1058400008F0C9C0E5012196F5011081812F90E093
:105850000E94002D892B11F05E01F4CF1D3229F436
:105860002196F501118101E007C01B3221F4E50109
:105870002296F501118100E0E114F104B1F0F0E1AC
:10588000EF16F10429F4B0C010E3E114F10401F1C2
:105890002AE0E216F104B1F180E1E816F10471F0BA
:1058A000E8E0EE16F104F1F413C0103341F58881FD
:1058B0008F7D883549F7198122960260F0E1EF2E3D
:1058C000F12C88248A94982CA82CAFE0BA2E20C002
:1058D00078E0E72EF12C88248A94982CA82CEFE10C
:1058E000BE2E16C06FEF7FEFCB0197010F2C000C7F
:1058F000440B550B0E94E92E49015A0109C08AE068
:10590000E82EF12C69E9862E982CA82C69E1B62E98
:1059100040E060E070E0CB0127010F2C000C66082E
:105920007708FE0150ED352E310E29E0231570F475
:105930002FEB210F2A3118F439EC332E06C02FE952
:10594000210F2A3130F529EA322E310E232D30E095
:105950002E153F05F4F44F3FC9F086169706A806AA
:10596000B90688F0A30192010E94D92E232D30E0C0
:1059700040E050E0620F731F841F951F621773078A
:105980008407950710F44FEF01C041E02196108184
:10599000C8CFC114D10451F0442311F0219703C0A2
:1059A00001FF04C02297F601D183C08300FF07C026
:1059B00090958095709561957F4F8F4F9F4F4F3F8A
:1059C00079F482E290E090930707809306073FEF17
:1059D0002FEF9FEF0DC040E030E020E090E008C0E6
:1059E000462F372F282F04C0103309F067CF5FCF21
:1059F000642F732F822FCDB7DEB7E1E10C94332FE4
:105A000091110C94912E803219F089508550C8F76D
:105A100008950F931F93CF93DF93009731F461158F
:105A2000710519F480E090E03AC08B01EC016EE062
:105A300070E081E090E00E94542DFC01892B91F3ED
:105A400080E883830115110571F01387028781E8CF
:105A500083838091000790910107892B21F4F093B3
:105A60000107E09300072097C9F0D187C0878381A1
:105A7000826083838091020790910307892B71F4E0
:105A8000F0930307E09302078091040790910507C4
:105A9000892B21F4F0930507E0930407CF01DF91F0
:105AA000CF911F910F9108950F931F93CF93DF9381
:105AB000869F8001879F100D969F100D1124C801AD
:105AC0000E94702DEC01009729F0A80160E070E0C1
:105AD0000E94942ECE01DF91CF911F910F910895D6
