:100000000C94E5000C94401E0C94191E0C94F21DE7
:100010000C94CB1D0C940D010C940D010C94A41D9B
:100020000C940D010C940D010C9484200C94F6207A
:100030000C940D010C940D010C940D010C940D0108
:100040000C940D010C94340E0C940D010C940D01C4
:100050000C940D010C940D010C940D010C945A1D7F
:100060000C940D010C943C020C9416020C940D019E
:100070000C940D010C940D010C940D010C940D01C8
:100080000C940D010C940D010C940D010C940D01B8
:100090000C940D010C940D010C940D010C940D01A8
:1000A0000C940D010C940D010C940D01461B491B81
:1000B000381B3C1B421B6A1B6A1B6A1B4D1B511BD6
:1000C000551B5B1B5F1B6A1B651B000000002400A7
:1000D00027002A002D003000000000002500280025
:1000E0002B002E0031000000000023002600290014
:1000F0002C002F000404040404030405020202027D
:1001000004030202020206060606060604040202B0
:100110000204040408020110408040102040804086
:10012000800802040180402010020110801020404D
:1001300040200000000200090F0000030401000C31
:1001400000000000000000000000000000000000AF
:1001500000080B0002020201000904000001020273
:1001600000000524001001052401010104240206F9
:100170000524060001070581031000400904010061
:10018000020A000000070502024000000705830282
:100190004000000403090412010002EF0201404183
:1001A00023368000010102030141726475696E6F9C
:1001B000204C4C430041726475696E6F204C656F32
:1001C0006E6172646F0078285C2811241FBECFEF27
:1001D000DAE0DEBFCDBF14E0A0E0B1E0E0E6F8E693
:1001E00002C005900D92A636B107D9F726E0A6E623
:1001F000B4E001C01D92A63EB207E1F710E0C4EEE4
:10020000D0E004C02197FE010E942E31C33ED107E9
:10021000C9F70E94B5230C9423340C940000CF92AC
:10022000DF92EF92FF920F931F93CF93DF936C01B6
:100230007A018B01C0E0D0E0CE15DF0581F0D80156
:100240006D918D01D601ED91FC910190F081E02D31
:10025000C6010995892B11F02196EECF7E01C701C9
:10026000DF91CF911F910F91FF90EF90DF90CF9092
:100270000895FC01538D448D252F30E0842F90E0AC
:10028000821B930B541710F0CF9608950197089591
:10029000FC01918D828D981761F0828DDF01A80F8E
:1002A000B11D5D968C91928D9F5F9F73928F90E0B0
:1002B00008958FEF9FEF089583E595E00E94D91A86
:1002C00021E0892B09F420E0822F0895EF92FF921C
:1002D0000F931F93CF93DF93EC0181E0888F9B8D69
:1002E0008C8D981305C0E889F989808185FD26C029
:1002F000F62E0B8D10E00F5F1F4F0F731127E02EAE
:100300008C8DE8120CC00FB607FCFACFE889F9898A
:10031000808185FFF5CFCE010E94D91BF1CF8B8D57
:10032000FE01E80FF11DE35AFF4FF0829FB7F894EA
:100330000B8FEA89FB898081806209C09FB7F8949E
:10034000EE89FF896083E889F989808182748083DE
:100350009FBF81E090E0DF91CF911F910F91FF90BF
:10036000EF900895CF93DF93EC01888D8823C9F037
:10037000EA89FB89808185FD05C0A889B9898C91AE
:1003800086FD0FC00FB607FCF5CF808185FFF2CF49
:10039000A889B9898C9185FFEDCFCE010E94D91B28
:1003A000E7CFDF91CF9108954091B9065091BA06F9
:1003B0002091B7063091B80642175307B4F49091D4
:1003C000E8009570E1F39091E80092FD19C08093E8
:1003D000F1008091B9069091BA0601968F73992722
:1003E000892B19F48EEF8093E8008091B9069091E3
:1003F000BA0601969093BA068093B90681E00895F3
:1004000080E00895615030F02091F100FC012083DC
:100410000196F8CF289884E6809398040895DC012B
:10042000ED91FC910190F081E02D09941F920F92C3
:100430000FB60F9211242F933F934F935F936F93B7
:100440007F938F939F93AF93BF93EF93FF9383E536
:1004500095E00E94D91BFF91EF91BF91AF919F91C1
:100460008F917F916F915F914F913F912F910F905D
:100470000FBE0F901F9018951F920F920FB60F92FC
:1004800011242F938F939F93EF93FF93E091630534
:10049000F09164058081E0916905F0916A0582FD23
:1004A00012C0908180916C058F5F8F7320916D05D4
:1004B000821751F0E0916C05F0E0ED5AFA4F958FFC
:1004C00080936C0501C08081FF91EF919F918F9186
:1004D0002F910F900FBE0F901F9018950895CB018C
:1004E0000895CF93DF93EC01E881F9810288F389C5
:1004F000E02D09958F3F2FEF920731F02D813E813E
:100500002F5F3F4F3E832D83DF91CF9108958FEF73
:100510009FEF089560E070E0CB01089580E090E0E7
:10052000089580E090E00895FC018789908D009700
:1005300069F1248935892817390718F4308F278BFA
:1005400025C001976F3F2FEF720729F4908F878B9B
:1005500080E090E008959B01215031092F3F310543
:1005600058F4262FA089B189A80FB91F3C912313F5
:1005700005C0908F878B08C020E0F4CF278524FF2B
:1005800005C0908F878B6C93CB0108958FEF9FEF01
:100590000895CF93DF93EC01E881F9810288F38914
:1005A000E02D09958F3F2FEF920731F02F89388D7D
:1005B0002F5F3F4F388F2F8BDF91CF910895FC0134
:1005C0002789308D848995892817390740F48089D7
:1005D0009189FC01E20FF31F808190E008958FEF75
:1005E0009FEF0895EF92FF92CF93DF93FC01DB0121
:1005F00060E070E0CB01E788F08CC489D589EC1607
:10060000FD06A8F4621773078407950784F4C08970
:10061000D189CE0DDF1DC881CD936F5F7F4F8F4F86
:100620009F4FC789D08D2196D08FC78BE4CFDF91A4
:10063000CF91FF90EF900895FC01848995892789D7
:10064000308D821B930B0895242FDC01ED91FC91DA
:100650000084F185E02D41E0099408950895FC019E
:10066000828193810C948D0ECF93DF93EC0184E013
:1006700090E00E948A2CBC018A819B81FB019383BC
:10068000828323E631E031832083DF91CF910C9484
:10069000F91ECF93DF93EC0184E090E00E948A2C56
:1006A000BC018A819B81FB019383828322E231E03A
:1006B00031832083DF91CF910C94F91ECF93DF9388
:1006C000EC0184E090E00E948A2CBC018A819B812D
:1006D000FB019383828322E231E031832083DF9127
:1006E000CF910C94F91E0C94222D0C94222D0C9475
:1006F000222D089508950C94222DDC01ED91FC919A
:10070000369720813181820F931F0C947B030C94C8
:10071000222D0C943423AF92BF92CF92DF92EF92AE
:10072000FF920F931F93CF93DF931F92CDB7DEB746
:100730007C0159016A01AC14BD04B9F1F601819143
:100740006F018983F701808191818B01081B190B4F
:10075000648175816F5F7F4FAE014F5F5F4FC7014F
:100760000E945818F7012481358121503109F70181
:10077000808191810217130758F4FC01E20FF31FE7
:1007800021503109DC01A20FB31F8C918083EFCF80
:100790002981FC01E00FF11F20830F5F1F4FF7013C
:1007A00060817181600F711FC6CF0F90DF91CF9173
:1007B0001F910F91FF90EF90DF90CF90BF90AF907F
:1007C0000895EF92FF920F931F93CF93DF931F92A1
:1007D000CDB7DEB7FC01922F9870822F80712871FF
:1007E000283119F44230A9F43BC0413011F48B0197
:1007F00016C0423081F4882329F004891589060F38
:10080000171F02C000E010E0992349F00789108DFE
:1008100004C0413061F304891589060F171F24892C
:10082000358920173107E0F0992311F0108F078BDD
:100830008823A1F07F011982AE014F5F5F4FB8019D
:10084000CF0140960E945818F7018489958927891D
:10085000308D8217930710F4908F878BC80102C0E8
:100860008FEF9FEF0F90DF91CF911F910F91FF902E
:10087000EF900895DC011296ED91FC91139781E0C1
:100880008587828193810E94220E0E944E1DE3ED96
:10089000F4E0608371838283938380E49CE9A0E029
:1008A000B0E084839583A683B783089580912F0554
:1008B0000E94FA1B21E0892B09F420E020939C047C
:1008C00080919B04882341F166E273E08DE596E018
:1008D0000E94CA180E943D18E0913005F091310540
:1008E00040815181628173818091320590913305FD
:1008F000DC011296ED91FC91139744835583668336
:10090000778310929B0421E020939A04ED91FC914F
:100910000480F581E02D09940895EF92FF920F93E2
:100920001F93CF93DF931F92CDB7DEB76F3F2FEFAB
:10093000720719F480E090E028C0FC01278524FFAD
:1009400022C07B018C01FC01818D928D2489358927
:100950008217930748F06983BE016F5F7F4FC8011C
:1009600040960E94D01907C0F80120893189F90109
:10097000E80FF91F6083F801818D928D0196928FA7
:10098000818FC70102C08FEF9FEF0F90DF91CF9152
:100990001F910F91FF90EF9008950F931F93CF93A6
:1009A000DF93EB0109900020E9F72197C61BD70BD5
:1009B000FC0104811581A801C017D10708F4AE011C
:1009C000FC01808191810E944B31009769F481E0A4
:1009D00090E0C017D10740F00C171D0710F080E021
:1009E00090E0919581959109DF91CF911F910F91A1
:1009F0000895CF93DF93EC010E94B615CE01DF91ED
:100A0000CF910C94222DDC01ED91FC913697208141
:100A10003181820F931F0C94F904DC01ED91FC915C
:100A2000369720813181820F931F0C94B61508955B
:100A30000895CF93DF93EC0183E0888319828DE0E2
:100A4000E2E5F1E0DE01129601900D928A95E1F760
:100A50001F86188A198A1A8A84EF91E09C8B8B8BE7
:100A600080E499EBA6E0B0E08D8B9E8BAF8BB88FC6
:100A700080E699E09A8F898FDF91CF9108950F9347
:100A80001F93CF93DF93CDB7DEB7E6970FB6F894F9
:100A9000DEBF0FBECDBF8C01CE0101960E941905AD
:100AA000CE014C960E9419054BE150E060E070E0E9
:100AB000CE014C960E94B52D86E390E00E94C52D94
:100AC0008B3F9A4421F08BE1FE01319606C08C8D5C
:100AD0008330C9F78BE1FE017C96D80101900D921D
:100AE0008A95E1F7C801E6960FB6F894DEBF0FBE0F
:100AF000CDBFDF91CF911F910F9108950895FB0114
:100B000020813181FC0131832083FB0142815381AB
:100B1000F901369720813181FC01E20FF31F5183E7
:100B200040830895DB012D913C911197FC013183A5
:100B30002083F901369720813181FC01E20FF31FF8
:100B400012968D919C9113979183808381E290E01E
:100B500094838383548B438B1582158A089508955B
:100B6000AF92BF92CF92DF92EF92FF920F931F93BB
:100B7000CF93DF931F92CDB7DEB77C016B01FB01F2
:100B800001900020E9F731978F01061B170BFC013C
:100B9000A480B5801982B501600F711FAE014F5F4F
:100BA0005F4F0E945818F70180819181A801B6011A
:100BB0008A0D9B1D0E94D919C7010F90DF91CF911B
:100BC0001F910F91FF90EF90DF90CF90BF90AF906B
:100BD00008950E94CD0421E0892B09F020E0822FA6
:100BE0000895FB012481358140E050E060817181EE
:100BF0000C949916AF92BF92CF92DF92EF92FF9230
:100C00000F931F93CF93DF93CDB7DEB727970FB620
:100C1000F894DEBF0FBECDBF6C017B01FB010081EC
:100C20001181A480B580A00EB11E88E090E09C8365
:100C30008B831E821D820E948A2C9A838983CE0117
:100C400001960E941A0EA801465F5F4F69817A8162
:100C50009501CE0101960E948B0360E373E0CE0103
:100C600001960E94E9058823C9F0F701608171812E
:100C7000F601828193810E94C21E84E090E00E946E
:100C80008A2CBC01F60182819381FB0193838283CC
:100C90002DE731E0318320830E94F91ECE010196B9
:100CA0000E94921827960FB6F894DEBF0FBECDBFF4
:100CB000DF91CF911F910F91FF90EF90DF90CF9038
:100CC000BF90AF9008952BE032E0FC013183208388
:100CD00040960C949218CF93DF93EC010E94630628
:100CE000CE01DF91CF910C94222DAF92BF92CF9283
:100CF000DF92EF92FF920F931F93CF93DF93CDB7C5
:100D0000DEB727970FB6F894DEBF0FBECDBF6C01DC
:100D10007B0180918D0481110CC0AE014F5F5F4F4C
:100D200060E373E086E894E00E94311A81E08093EA
:100D30008D04F70100811181A480B580A00EB11E41
:100D400088E090E09C838B831E821D820E948A2C07
:100D50009A838983CE0101960E941A0EA801465FEC
:100D60005F4F69817A819501CE0101960E948B03C4
:100D700060E373E0CE0101960E94CD04892BD1F48B
:100D8000F70160817181F601828193810E94C21E08
:100D900084E090E00E948A2CBC01F601828193815C
:100DA000FB01938382832DE731E0318320830E940E
:100DB000F91E09C0BE016F5F7F4F8DE596E00E946E
:100DC000F1050E943D18CE0101960E9492182796C7
:100DD0000FB6F894DEBF0FBECDBFDF91CF911F914C
:100DE0000F91FF90EF90DF90CF90BF90AF9008955C
:100DF0000F931F93CF93DF931F92CDB7DEB78C0174
:100E000080917E0481110CC0AE014F5F5F4F67E39C
:100E100073E087E794E00E94311A81E080937E04BA
:100E200067E774E0F801828193810E948D0E0E9431
:100E30004E1D6093D3047093D4048093D504909393
:100E4000D60480E395E7A0E0B0E08093D7049093C8
:100E5000D804A093D904B093DA040F90DF91CF9116
:100E60001F910F910895EF92FF920F931F93CF93CD
:100E7000DF93CDB7DEB728970FB6F894DEBF0FBE6D
:100E8000CDBF8C017B01AE01485F5F4F6BE373E028
:100E9000CE0101960E94311ABE016F5F7F4FC701DC
:100EA0000E944B20F82ECE0101960E949218FF203E
:100EB00089F084E090E00E948A2CBC01F8018281D4
:100EC0009381FB019383828322E231E0318320838B
:100ED0000E94F91EC8010E943423811111C084E0D0
:100EE00090E00E948A2CBC01F80182819381FB0171
:100EF0009383828323E631E0318320830E94F91EAD
:100F000028960FB6F894DEBF0FBECDBFDF91CF910C
:100F10001F910F91FF90EF9008950F931F93CF9320
:100F2000DF931F92CDB7DEB78C01AE014F5F5F4FED
:100F30006EE373E00E94311AC8010F90DF91CF91E8
:100F40001F910F9108950F931F93CF93DF931F92DB
:100F5000CDB7DEB78C01AE014F5F5F4F65E473E044
:100F60000E94311AC8010F90DF91CF911F910F910C
:100F700008950F931F93CF93DF931F92CDB7DEB7E2
:100F80008C01AE014F5F5F4F6CE473E00E94311A39
:100F9000C8010F90DF91CF911F910F9108952F926B
:100FA0003F924F925F926F927F928F929F92AF92F9
:100FB000BF92CF92DF92EF92FF920F931F93CF9346
:100FC000DF93CDB7DEB72C970FB6F894DEBF0FBE18
:100FD000CDBF6C0129013A01FC01A18CB28C9E01AC
:100FE000265F3F4FA201CE0101960E94FC19F60137
:100FF000E488F588EA14FB0410F40E9434311701E8
:101000002A183B0882012414350408F481018D80DC
:101010009E80E01AF10AC40180959095E816F906C1
:1010200060F7E80CF91CC60140969C878B87081571
:10103000190538F41886AE01485F5F4FB7010E946A
:101040005818F60180899189A101401B510BB50107
:10105000600F711F680F791F9501280D391D820FD0
:10106000931F0E94393169817A81F60180899189C3
:10107000A4018A0D9B1D0E94D9191986AE01475FF4
:101080005F4FB7018B859C850E945818CE01019651
:101090000E949218F601818D928D840D951D928F7C
:1010A000818FC301B2012C960FB6F894DEBF0FBE3C
:1010B000CDBFDF91CF911F910F91FF90EF90DF9007
:1010C000CF90BF90AF909F908F907F906F905F90E8
:1010D0004F903F902F900895FF920F931F93CF93BF
:1010E000DF931F92CDB7DEB78C01F62EBC01CE0187
:1010F00001960E942B186F2DC8010E94EF16C8019F
:101100000F90DF91CF911F910F91FF9008958F92D3
:101110009F92AF92BF92CF92DF92EF92FF92CF93C6
:10112000DF93EC01E881F9810484F585E02D0995D0
:101130008823C9F1E881F9810284F385E02DCE018D
:1011400009956B017C016F89788D898D9A8D9B0142
:10115000AC010E9447309B01AC0160E070E0CB0124
:101160000E94762E4B015C018F8D98A1A9A1BAA196
:10117000BC01CD0190589B01AC010E94772E9B01D0
:10118000AC01C501B4010E94E82E0E945A2FCB0188
:10119000770FAA0BBB0BC80ED91EEA1EFB1ECB860F
:1011A000DC86ED86FE86DF91CF91FF90EF90DF9099
:1011B000CF90BF90AF909F908F900895FC01818554
:1011C0000895CF93C1E020E030E0A901FC016789D8
:1011D000708D818D928D0E94E32E811101C0C0E03F
:1011E0008C2FCF910895DC011296ED91FC9113970D
:1011F00064817581868197810895CF92DF92EF9205
:10120000FF92CB01BA019B01AC010E94772E6B01CA
:101210007C0120E034E244E75BE40E94423018168F
:101220008CF020E030E044E753E4C701B6010E94AF
:10123000E32E87FF0EC0C12CD12C94E7E92E93E456
:10124000F92E07C0C12C84E2D82E84E7E82E8BE467
:10125000F82EA701960160E074E284E79BE40E9407
:10126000E82E0E94612F70930B0160930A01FF909A
:10127000EF90DF90CF9008953093960420939504DB
:10128000109297040E94FD0880910A0190910B0131
:1012900090938900809388001092850010928400BA
:1012A0001092800089E080938100EFE6F0E0808179
:1012B000826080830895CF93DF93EC0188899989B8
:1012C000DC01ED91FC910084F185E02D0995892BDD
:1012D000A9F388899989DC01ED91FC910284F38559
:1012E000E02DDF91CF910994CF93DF93EC018889B2
:1012F0009989DC01ED91FC910084F185E02D09953F
:10130000892BA9F388899989DC01ED91FC910484EA
:10131000F585E02DDF91CF9109948F929F92AF9246
:10132000BF92CF92DF92EF92FF920F931F93CF93D2
:10133000DF938C0149015A01EB01C12CD12C7601BC
:10134000D80150968D919C915197DC01ED91FC91C3
:101350000284F385E02D09958F3F61F0C814D9040C
:10136000EA04FB043CF48993BFEFCB1ADB0AEB0AD7
:10137000FB0AE6CFC701B601DF91CF911F910F9114
:10138000FF90EF90DF90CF90BF90AF909F908F90A5
:101390000895DC0150968D919C915197DC01ED915F
:1013A000FC910084F185E02D0994CF93DF93C091E7
:1013B000DB04D091DC04E881F9810084F185E02D23
:1013C000CE010995892BB9F3E881F9810284F3856F
:1013D000E02DCE01DF91CF9109941F93CF93DF933E
:1013E000182FC091DB04D091DC048A3041F4E881ED
:1013F000F9810190F081E02D6DE0CE010995E88141
:10140000F9810190F081E02D612FCE01099521E055
:1014100030E0019711F420E030E0C901DF91CF9175
:101420001F91089508950F931F93CF93DF936F3FFC
:101430002FEF720719F480E090E011C0EB018C01EE
:101440006A3031F46DE0F801808991890E940F02C1
:101450006C2FF801808991890E940F02CE01DF91E3
:10146000CF911F910F9108957F928F929F92AF928B
:10147000BF92CF92DF92EF92FF920F931F93CF9381
:10148000DF938C0149015A01EB01C12CD12C76016B
:10149000C814D904EA04FB04B4F479908AE0781201
:1014A00006C06DE0F801808991890E940F02672DC6
:1014B000F801808991890E940F02FFEFCF1ADF0A9D
:1014C000EF0AFF0AE5CFC501B401DF91CF911F916B
:1014D0000F91FF90EF90DF90CF90BF90AF909F90D3
:1014E0008F907F9008952F923F924F925F926F92CC
:1014F0007F928F929F92AF92BF92CF92DF92EF92A4
:10150000FF920F931F93CF93DF93CDB7DEB728974A
:101510000FB6F894DEBF0FBECDBF98878F83DC0176
:10152000ED91FC910484F585E02D0995882309F45B
:101530001DC10E944E1DEF81F885C78CD0A0E1A08F
:10154000F2A00785108921893289601B710B820BFB
:10155000930B0E94902F20E030E04AE754E40E9471
:10156000E82EA70196010E944730AF81B8855396B7
:101570002D913D914D915C9156970E94772E4B0194
:101580005C01EF81F8850280F381E02DFA83E98325
:101590004480558066807780AF81B88593962C9083
:1015A000939794963C90949795960C9195979696D0
:1015B0001C9196971B968D919D910D90BC91A02D9D
:1015C000BC01CD01641975098609970997FF07C009
:1015D00090958095709561957F4F8F4F9F4F0E949A
:1015E000902F2B013C01C701B6019F779B01AC01F5
:1015F0000E94772E9B01AC01C301B2010E944730CB
:101600006B017C019101A801B101C8010E94473022
:101610009B01AC01C701B6010E94772E0E94BA302F
:101620006B017C01EF81F88561857285072E000CC6
:10163000880B990B0E94922F6B837C838D839E83F2
:101640009B01AC01C701B6010E9447306B017C01D0
:1016500020E030E0A901C501B4010E94423024011C
:101660003501181624F077FA709477F8709420E01A
:1016700030E0A901C701B6010E94423018160CF4EF
:101680006CC0F7FAF094F7F8F094A3019201C70147
:10169000B6010E94423018167CF420E030E0A90127
:1016A000C501B4010E94423075016401181624F08E
:1016B000F7FAF094F7F8F0949101A801C701B60188
:1016C0000E94E32E87FD16C0A981BA811A966D91FA
:1016D0007C911B9780E090E00E94902F5B018C0131
:1016E0009B01AC01C701B6010E944230181624F4D8
:1016F000650101C0610178012B813C814D815E81D2
:10170000C701B6010E944730EF81F885678B708F63
:10171000818F928F87819085DC01ED91FC9104800F
:10172000F581E02DB701A60128960FB6F894DEBF2B
:101730000FBECDBFDF91CF911F910F91FF90EF9022
:10174000DF90CF90BF90AF909F908F907F906F90E1
:101750005F904F903F902F900994A7019601C3018D
:10176000B2010E94E32E87FD98CFA6CF28960FB630
:10177000F894DEBF0FBECDBFDF91CF911F910F91C7
:10178000FF90EF90DF90CF90BF90AF909F908F90A1
:101790007F906F905F904F903F902F900895CF93E0
:1017A000DF93EC018F819885DC01ED91FC91028043
:1017B000F381E02D09951F8E18A219A21AA21F8A83
:1017C000188E198E1A8E1A86198661E08D810E94F4
:1017D000231C60E08C810E94231CEFA1F8A53097A8
:1017E00019F0DF91CF910994DF91CF9108958F92F5
:1017F0009F92AF92BF92CF92DF92EF92FF920F93A0
:101800001F93CF93DF93EC010A811B81F801848140
:101810009581A681B7816A017B01C81AD90AEA0AB3
:10182000FB0AD701C6014B875C876D877E8761E025
:1018300070E01C141D041E041F0414F060E070E02E
:101840008827B7FD83959927AA27BB277B01E81A2C
:10185000F90AFA86E986D8011A96CD90DC901B9792
:10186000EC9CB001ED9C700DFC9C700D112480E08F
:1018700090E00E94902F6B8F7C8F8D8F9E8FB60192
:1018800080E090E00E94902F4B015C01F8016085A0
:10189000718580E090E00E94902F20E030E04AE7E0
:1018A00054E40E94E82E9B01AC01C501B4010E94E2
:1018B000E82E4B015C01B701FF0C880B990B0E94CD
:1018C000922F9B01AC01C501B4010E9447306F8F7C
:1018D00078A389A39AA3D8011C968C91882319F028
:1018E00011E000E002C010E001E060E08C810E94A5
:1018F000231C89859A8597FF02C0602F01C0612F44
:101900008E810E94231C60E08D810E94231C0E9416
:101910004E1D6F87788B898B9A8BCF88D88CE98CFA
:10192000FA8C20E030E0A901C701B6010E944230E4
:10193000181624F0C701B601905802C0C701B601BD
:101940008BA09CA0ADA0BEA0A50194010E94E32E97
:101950000F81188587FF2BC069857A85072E000CBB
:10196000880B990B0E94922FA50194010E94473089
:101970006B8B7C8B8D8B9E8B6F8B788F898F9A8FE7
:10198000D801ED91FC910190F081E02D9E01B5010F
:10199000A401C801DF91CF911F910F91FF90EF90AB
:1019A000DF90CF90BF90AF909F908F900994CB8A9B
:1019B000DC8AED8AFE8AD801ED91FC91C481D58143
:1019C00020E030E0A901C701B6010E94423018169C
:1019D00024F0F7FAF094F7F8F094B701A601C801E3
:1019E000FE01DF91CF911F910F91FF90EF90DF905B
:1019F000CF90BF90AF909F908F9009941F93CF93FB
:101A0000DF93EC01162F8C810E94231CEA81FB815D
:101A10004481558166817781112379F089859A8582
:101A2000092E000CAA0BBB0B840F951FA61FB71F16
:101A300084839583A683B78313C08B859C85AD85EE
:101A4000BE85481759076A077B0751F4E881F98179
:101A50000280F381E02DCE01DF91CF911F91099497
:101A6000DF91CF911F910895AFE8B2E01296ED910A
:101A7000FC911397369720813181820F931F149622
:101A80002D913C911597FC01318320830895DC0151
:101A9000ED91FC91369720813181820F931F0C9438
:101AA000340DCF93DF93EC010E94340DCE01DF9112
:101AB000CF910C94222DDC01ED91FC913697208181
:101AC0003181820F931F0C94510D089508950C9449
:101AD000222DDC01ED91FC91369720813181820F1E
:101AE000931F0C94670D0C94222D0C94222D0C94B2
:101AF000222D0C94222D25EE32E0FC01318320832F
:101B00002FEE32E0358B248B65EF72E00C947F056D
:101B1000DC01ED91FC91369720813181820F931F7A
:101B20000C947B0DCF93DF93EC010E947B0DCE01D3
:101B3000DF91CF910C94222DDC01ED91FC91369731
:101B400020813181820F931F0C94920DCF93DF93EC
:101B5000EC0184E090E00E948A2CBC018A819B8188
:101B6000FB019383828321EB31E031832083DF917A
:101B7000CF910C94F91ECF93DF93EC0184E090E0B9
:101B80000E948A2CBC018A819B81FB019383828302
:101B900021EB31E031832083DF91CF910C94F91E4A
:101BA000DC011296ED91FC9113971586808191814D
:101BB0000E946F100E944E1DE3EDF4E0608371837C
:101BC0008283938388E893E1A0E0B0E084839583E7
:101BD000A683B7830895EF92FF920F931F93CF933D
:101BE000DF93EC018B017A018A819B81861797072D
:101BF00040F4685F7F4F8617970718F4CE010E9464
:101C000071168C819D818017910758F4E881F981C4
:101C1000E80FF91F309719F0D7012C912083019616
:101C2000F2CF1D830C83DF91CF911F910F91FF9015
:101C3000EF900895FC0124813581232B11F015824A
:101C400014820895CF93DF93EC011D821C828A8158
:101C50009B810E941A0E1E821F82198618868FEFA2
:101C60008A87DF91CF9108951F920F920FB60F923E
:101C700011242F933F934F935F936F937F938F9391
:101C80009F93AF93BF93EF93FF936091970481E08D
:101C90006827609397048091950490919604DC01E5
:101CA000ED91FC910190F081E02D099580910A0160
:101CB00090910B019093890080938800FF91EF91A0
:101CC000BF91AF919F918F917F916F915F914F9154
:101CD0003F912F910F900FBE0F901F90189510926B
:101CE00081001092850010928400EFE6F0E0808180
:101CF0008D7F80838FEF90E09093890080938800A0
:101D000090938B0080938A00109280001092970429
:101D100008950C946F0E08950895AF92BF92CF92DC
:101D2000DF92EF92FF920F931F93CF93DF93CDB784
:101D3000DEB727970FB6F894DEBF0FBECDBF8C017C
:101D40006B01FC01808591859E838D8308969C8321
:101D50008B830E948A2C9A83898380E090E02D8176
:101D60003E818217930778F4F801A481B581A80F0A
:101D7000B91FE981FA81E80FF91F309711F02C9112
:101D800020830196ECCFF601E480F580FBE0EF0EB6
:101D9000F11C6EE7F801808191810E940F026F2D86
:101DA000C8010E94671E6E2DC8010E94671E60E078
:101DB000C8010E94671EF8018685FF24F394F80E7F
:101DC00021F492E0F92EF80EF801F6866F2DC80185
:101DD0000E94671EF801A480B580F8012481358136
:101DE00080859185820F931FA816B90648F4F501E6
:101DF000E1905F016E2DC8010E94671EFE0CEDCFC1
:101E000060E0C8010E94671EF601A080B180F60163
:101E10002081318184819581820F931FA816B90694
:101E200048F4F501E1905F016E2DC8010E94671E24
:101E3000FE0CEDCF6F2D6095C8010E94671ECE018C
:101E400001960E94921827960FB6F894DEBF0FBE37
:101E5000CDBFDF91CF911F910F91FF90EF90DF9059
:101E6000CF90BF90AF900895EF92FF920F931F9382
:101E7000CF93DF93CDB7DEB728970FB6F894DEBFC8
:101E80000FBECDBF8C017B01AE01485F5F4F6BE39E
:101E900073E0CE0101960E94311ABE016F5F7F4F41
:101EA000C7010E944B20F82ECE0101960E94921885
:101EB000F11019C088E090E00E948A2CFC01D80142
:101EC00012968D919C9113979383828327E931E039
:101ED0003183208323E533E0378326831582148200
:101EE000BF010E94F91E28960FB6F894DEBF0FBE00
:101EF000CDBFDF91CF911F910F91FF90EF9008958B
:101F00000F931F93CF93DF93CDB7DEB728970FB60C
:101F1000F894DEBF0FBECDBF8C01DC011296ED91AF
:101F2000FC9113971586808191810E946F10AE01FC
:101F3000485F5F4F6DE973E0CE0101960E94311A50
:101F4000D8011296ED91FC911397808191814D817A
:101F50005E8169817A81DC01ED91FC910280F381DF
:101F6000E02D0995CE0101960E9492180E944E1D07
:101F7000E3EDF4E060837183828393838CED95E0DD
:101F8000A0E0B0E084839583A683B78328960FB63C
:101F9000F894DEBF0FBECDBFDF91CF911F910F919F
:101FA00008950F931F93CF93DF931F92CDB7DEB7A2
:101FB0008C01AE014F5F5F4F61EA73E00E94311AFE
:101FC000C8010F90DF91CF911F910F910895DF927B
:101FD000EF92FF920F931F93CF93DF93CDB7DEB7AE
:101FE000E4970FB6F894DEBF0FBECDBF7C018B0126
:101FF000CE0101960E94811FF801D684B801695F65
:102000007F4FCE0101960E94F1056D2D0E946C0854
:10201000AE014C5C5F4FBE016D5E7F4FC7010E94F9
:10202000561FCE0101960E94B615C701E4960FB661
:10203000F894DEBF0FBECDBFDF91CF911F910F91FE
:10204000FF90EF90DF9008958F929F92AF92BF9292
:10205000DF92EF92FF920F931F93CF93DF93CDB751
:10206000DEB7E4970FB6F894DEBF0FBECDBF7C019C
:102070008B0149015A01CE0101960E94811FF8018E
:10208000D684B801695F7F4FCE0101960E94F105A9
:102090006D2D0E946C08B501A4010E94A718AE0125
:1020A0004C5C5F4FBE016D5E7F4FC7010E94561FA3
:1020B000CE0101960E94B615C701E4960FB6F894BA
:1020C000DEBF0FBECDBFDF91CF911F910F91FF906B
:1020D000EF90DF90BF90AF909F908F900895FC019C
:1020E000A089B18982E08C93A485B5851C92A685D0
:1020F000B7858FEC8C93108EA489B58986E08C937C
:10210000A289B3898C9180618C93A289B3898C91C7
:1021100088608C93A289B3898C9180688C930288A3
:10212000F389E02D80818F7D80830895209199042B
:10213000211103C08FEF9FEF08955FB7F89422E05D
:102140002093E9002091F20030E01216130614F4F7
:1021500021E030E0422FFC0184E6415038F028981D
:10216000809398049091F1009193F7CF2115310558
:1021700021F08091F200882319F05FBFC901089512
:102180008BE68093E800F9CF3F924F925F926F9277
:102190007F928F929F92AF92BF92CF92DF92EF92F7
:1021A000FF920F931F93CF93DF93CDB7DEB7EF97D7
:1021B0000FB6F894DEBF0FBECDBFCE0101960E94D0
:1021C000811FA0904005B0904105F501618D728D91
:1021D000072E000C880B990B28E0422E512C612C05
:1021E000712CA30192010E940F312CAF3DAF4EAF75
:1021F0005FAFF5016785708981899289A30192019A
:102200000E940F3169017A01F50165897689878914
:10221000908DA30192010E940F3149015A01309023
:102220009C04311009C080919B04811106C030903C
:102230009A0481E0382601C0312C8EE395E00E949B
:10224000CC152B013C01E981FA8136970190F08190
:10225000E02D329681E090E08C0F9D1FE80FF91F72
:10226000818192818F7180629283818368EA73E0B9
:10227000CE0101960E94CA188C01C301B20128E068
:1022800030E040E050E00E940F31BA01A901C801DE
:102290000E94A7186CE20E946C08632D0E947F19AF
:1022A0006CE20E946C08B501A4010E94A7186CE2C0
:1022B0000E946C08B701A6010E94A7186CE20E9458
:1022C0006C084CAD5DAD6EAD7FAD0E94A7186FE49C
:1022D00076E00E94F105AE01455C5F4FBE016D5E88
:1022E0007F4FCE01C4960E94561FBE016C5C7F4F8B
:1022F0008DE596E00E94F1050E943D18CE01C4963E
:102300000E949218CE0101960E94B615EF960FB664
:10231000F894DEBF0FBECDBFDF91CF911F910F911B
:10232000FF90EF90DF90CF90BF90AF909F908F90F5
:102330007F906F905F904F903F9008952F923F92C3
:102340004F925F926F927F928F929F92AF92BF92C5
:10235000CF92DF92EF92FF920F931F93CF93DF9371
:10236000CDB7DEB7E7970FB6F894DEBF0FBECDBF8F
:102370007C018B01DB011E968C91833581F4809169
:102380004205909143050E948D0EB801CE01019641
:102390000E94E70FCE0101960E94921828C2823552
:1023A00009F0C4C26B01B7E0CB0ED11C6EEA73E03A
:1023B000C6010E94E905882349F0E0914005F091AB
:1023C00041052285338540E050E033C261EB73E084
:1023D000C6010E94E9058823A9F0F8018785908944
:1023E000A189B28984369105A105B1050CF49EC27C
:1023F000E0913E05F0913F050280F381E02D918749
:1024000080878FC264EB73E0C6010E94E9058823D0
:1024100059F0E0914005F0914105618D728D072ED4
:10242000000C880B990BB6C167EB73E0C6010E94E4
:10243000E9058823D1F0F80187859089A189B289BF
:1024400023E0880F991FAA1FBB1F2A95D1F7813D52
:10245000FFE29F07A105B10508F068C2E0914005C1
:10246000F0914105928F818F5CC26AE973E0C601E9
:102470000E94E905882309F1BE01645E7F4FCE0109
:1024800001960E9497186AE973E0CE0101960E94B6
:10249000B0056AEB73E0CE0101960E94B005AE0173
:1024A000445E5F4FBE016F5F7F4FC7010E94561FA2
:1024B000CE0101960E94921841C267EC73E0C601FA
:1024C0000E94E905882309F4A7C0E0914005F09136
:1024D0004105658976898789908D0E94922F20E039
:1024E00030E044EB53E40E94E82E4B015C01D8013C
:1024F0001F966D917D918D919C9152970E94922F84
:102500009B01AC01C501B4010E9447300E94612FBC
:102510002B013C018EE395E00E94CC154B015C0140
:10252000B301A2018EE395E00E94F2152B013C015C
:10253000480C591C6A1C7B1C80913E0590913F05FC
:10254000DC01ED91FC910284F385E02D09955301A6
:102550004201861A970AA80AB90AE0914005F0914B
:102560004105C18CD28CB501A4018DE596E00E9495
:10257000A7186AEC73E00E94CA181C01BC01CE01C6
:1025800001960E942B18A601DD0C660B770BC1018A
:102590000E94AE176DEC73E0C1010E94CA180E9440
:1025A0003D18B501A401B7FE07C044275527BA015D
:1025B000481959096A097B09E0914005F0914105E4
:1025C000818D928D092E000CAA0BBB0B4817590761
:1025D0006A077B070CF4A5C181E090E01814190488
:1025E0001A041B0414F080E090E08824B7FC839464
:1025F0009924AA24BB24881999090E94701A8091F1
:102600003E0590913F05DC01ED91FC910084F18540
:10261000E02DB301A2012EC06FEC73E0C6010E9451
:10262000E905882349F1E0914005F091410547858E
:102630005089618972898EE395E00E94F21581E0EC
:1026400080939B0410929A048091320590913305F7
:10265000E0913005F09131054681578160857185A3
:10266000440F551F661F771FDC01ED91FC9100841C
:10267000F185E02D099555C162ED73E0C6010E9418
:10268000E905882349F0E0914005F091410567850F
:102690007089818992897EC065ED73E0C6010E94D0
:1026A000E905882319F1F801478550896189728904
:1026B000DB01CA01E3E0880F991FAA1FBB1FEA953F
:1026C000D1F774FD33C1E0914005F0914105458992
:1026D00056896789708D481759076A077B070CF47C
:1026E00025C18787908BA18BB28B1BC168ED73E0EE
:1026F000C6010E94E905882361F080913E05909112
:102700003F05DC01ED91FC910280F381E02D0995FC
:1027100008C16BED73E0C6010E94E905882361F0F2
:1027200080913E0590913F05DC01ED91FC91028482
:10273000F385E02D09952EC06EED73E0C6010E9471
:10274000E9058823C1F0F80187859089A189B289BC
:1027500053E0880F991FAA1FBB1F5A95D1F7E0912C
:102760003E05F0913F050280F381E02D848395833F
:10277000A683B783D6C061EE73E0C6010E94E90567
:10278000882379F0E0914005F091410565897689CB
:102790008789908D28E030E040E050E00E940F31C2
:1027A00048C064EE73E0C6010E94E9058823B1F0D9
:1027B0002091400530914105F80187859089A189D4
:1027C000B28943E0880F991FAA1FBB1F4A95D1F712
:1027D000F901858B968BA78BB08FA3C067EE73E052
:1027E000C6010E94E905882341F00E94C410AE0191
:1027F0004F5F5F4F66E374E09EC06AEE73E0C60110
:102800000E94E9058823D1F0E0913E05F0913F0553
:102810000280F381E02D22853385C901A0E0B0E07C
:102820009C01AD0193E055954795379527959A956D
:10283000D1F7B801C7010E94241080C06DEE73E08B
:10284000C6010E94E905882329F1D8011F964D9001
:102850005D906D907C90529783E0440C551C661CF3
:10286000771C8A95D1F7C0903E05D0903F05F601C0
:1028700063A174A185A196A10E94612F46165706F7
:1028800008F454C0D6011296ED91FC91139753862B
:10289000428647C060EF73E0C6010E94E9058823C5
:1028A00089F0C0904005D0904105CE0101960E946C
:1028B00019058BE1FE013196D60101900D928A95A2
:1028C000E1F71FC063EF73E0C6010E94E9058823AA
:1028D00089F0C0904005D0904105CE014D960E94F0
:1028E0003F058BE1FE017D96D60101900D928A9500
:1028F000E1F717C066EF73E0C6010E94E90588237F
:10290000A9F04BE150E060E070E0809140059091CB
:1029100041050E94CB2D6BEF7AE486E390E00E94A4
:10292000ED2DB801C7010E94E70F08C0AE014F5F4F
:102930005F4F60E273E0C7010E94311AC701E7965A
:102940000FB6F894DEBF0FBECDBFDF91CF911F91C0
:102950000F91FF90EF90DF90CF90BF90AF909F903E
:102960008F907F906F905F904F903F902F90089541
:1029700080E090E008951F93CF93DF93EC01162F32
:102980008F8580FF0BC0E881F9810084F185E02DFF
:1029900020E144E060E070E0CE010995EB85FC8524
:1029A0002D853E85812F90E0E217F30758F41083C0
:1029B0002B853C852F5F3F4F3C872B87DF91CF9145
:1029C0001F910895E881F981028CF38DE02DBC01FF
:1029D000CE01DF91CF911F9109948F929F92AF9278
:1029E000BF92CF92DF92EF92FF920F931F93CF93FC
:1029F000DF938C0149015A01EB01C12CD12C7601E6
:102A0000C814D904EA04FB0464F46991C8010E9463
:102A1000BB14019649F08FEFC81AD80AE80AF80AE1
:102A2000EFCFB401C50102C0B601C701DF91CF915C
:102A30001F910F91FF90EF90DF90CF90BF90AF90DC
:102A40009F908F900895CF93DF93EC01E881F981F7
:102A500036970190F081E02DE80FF91F8389948962
:102A6000DC01ED91FC910484F585E02D099501963A
:102A700059F4E881F98136970190F081E02DEC0F4F
:102A8000FD1F858181608583CE01DF91CF910895FF
:102A90008038C9F08A3811F580914F059091500522
:102AA000E0914605F09147050280F381E02D019009
:102AB000F081E02D608170E0DC01ED91FC910088F7
:102AC000F189E02D0AC080914F0590915005DC01FD
:102AD000ED91FC910684F785E02D09940895089501
:102AE0000F931F93CF93DF934091D7045091D80455
:102AF0006091D9047091DA04452B462B472B89F15C
:102B0000EC010E944E1D0091D3041091D404209139
:102B1000D5043091D604DC01CB01801B910BA20BB4
:102B2000B30B0091D7041091D8042091D9043091AF
:102B3000DA0480179107A207B30798F01092D70420
:102B40001092D8041092D9041092DA04E881F98125
:102B50000488F589E02DCE01DF91CF911F910F916F
:102B60000994DF91CF911F910F910895CF93DF9337
:102B7000EC018DE292E09983888387E392E09E8F57
:102B80008D8FCE0102960E9463066DE372E0CE0146
:102B9000DF91CF910C947F05CF92DF92EF92FF925D
:102BA000DC011296ED91FC911397C588D688E788D1
:102BB000F08C8D919C91DC01ED91FC910284F38568
:102BC000E02D099597FF05C06C0D7D1D8E1D9F1D85
:102BD000F9CFA70196010E940F31FF90EF90DF908F
:102BE000CF9008954F925F926F927F928F929F92B3
:102BF000AF92BF92CF92DF92EF92FF924A015B01B8
:102C0000DC011296ED91FC911397458856886788F0
:102C1000708C0E94CC1575016401C61AD70AE80AA7
:102C2000F90A21F1C301B20122E030E040E050E0B6
:102C30000E940F312C153D054E055F0524F4C41884
:102C4000D508E608F70888279927DC01821B930B33
:102C5000A40BB50BC816D906EA06FB065CF4C7013F
:102C6000B601640D751D861D971D06C060E070E0FD
:102C7000CB0102C0C701B601FF90EF90DF90CF906B
:102C8000BF90AF909F908F907F906F905F904F908C
:102C900008950F931F93CF93DF93EC01CB0108812D
:102CA00019817B836A830E948A2C99838883D80147
:102CB000CD01801B910B2C813D818217930750F42D
:102CC000E881F981E80FF91F309711F08C9180832A
:102CD0001196EECFC801DF91CF911F910F910C9407
:102CE000222D0F931F93CF93DF93EC01CB0108812B
:102CF00019817B836A830E948A2C99838883D801F7
:102D0000CD01801B910B2C813D818217930750F4DC
:102D1000E881F981E80FF91F309711F08C918083D9
:102D20001196EECFC801DF91CF911F910F910C94B6
:102D3000222D8F929F92AF92BF92EF92FF920F93AC
:102D40001F93CF93DF93EC017B0149015A01E88186
:102D5000F98136970190F081E02DE80FF91F038982
:102D60001489D8011F968C911F9780FF0BC0ED919D
:102D7000FC910084F185E02D20E144E060E070E00A
:102D8000C8010995D801ED91FC91008CF18DE02DE1
:102D9000A5019401B701C80109956F3F7F4F99F4D0
:102DA000E881F98136970190F081E02DEC0FFD1F4D
:102DB0008581982F926023893489232B11F0958384
:102DC00002C083608583CE01DF91CF911F910F9167
:102DD000FF90EF90BF90AF909F908F900895CF930A
:102DE000DF93EC01E881F98136970190F081E02DC5
:102DF000E80FF91F838994890E94BB14019699F406
:102E0000E881F98136970190F081E02DEC0FFD1FEC
:102E10008581982F926023893489232B11F0958323
:102E200002C083608583CE01DF91CF9108954F92D8
:102E30005F926F927F928F929F92AF92BF92CF924A
:102E4000DF92EF92FF920F931F93CF93DF93EC01EA
:102E50008B0129013A01E881F98136970190F081CF
:102E6000E02D3296E80FF91FC284D384E484F58400
:102E7000C21AD30AE40AF50A818192818E709927D9
:102E8000049729F546015701181419041A041B0464
:102E900064F0D701C601F7FE03C080E090E0DC01DA
:102EA000C81AD90AEA0AFB0A12C081E0881A9108F6
:102EB000A108B108E881F98136970190F081E02DF1
:102EC000EC0FFD1F6089CE010E94EF16DDCFA3013C
:102ED0009201B801CE010E949916E881F9813697D6
:102EE0000190F081E02DEC0FFD1F838194818E70A5
:102EF00099270297B9F41C141D041E041F0494F4AE
:102F000081E0C81AD108E108F108E881F981369713
:102F10000190F081E02DEC0FFD1F6089CE010E9431
:102F2000EF16E9CFE881F981369780819181C80F4A
:102F3000D91F1C861D861E861F86DF91CF911F918B
:102F40000F91FF90EF90DF90CF90BF90AF909F9048
:102F50008F907F906F905F904F900895EF92FF92C7
:102F60000F931F93CF93DF93CDB7DEB764970FB660
:102F7000F894DEBF0FBECDBF8C01DC01ED91FC915A
:102F800036970190F081E02DE80FF91F838194813D
:102F900085FD18C086FF05C092FD17C082E094E051
:102FA0001FC087FF15C09C012227307292FF05C009
:102FB000232B89F48BE094E013C0232B79F484E174
:102FC00094E00EC089EF93E00BC08DEF93E008C052
:102FD00080E090E005C086E094E002C080E194E0EB
:102FE0007F936F935F934F939F938F931F9284E18F
:102FF0008F939E012F5F3F4F79013F932F930E9444
:1030000059319C01990F440B550BB701C8010E941F
:103010001717D801ED91FC9136970190F081E02DC2
:10302000E00FF11F838194810FB6F894DEBF0FBECD
:10303000CDBF96FF03C0C8010E94231564960FB64A
:10304000F894DEBF0FBECDBFDF91CF911F910F91DE
:10305000FF90EF90089521E0FC012083FB01A08107
:10306000B18116978D919C91E80FF91F8189928902
:10307000009711F00C94231508950F931F93CF938D
:10308000DF931F92CDB7DEB78C01BC01CE01019654
:103090000E942B186AE0C8010E94EF16C8010E9426
:1030A0002315C8010F90DF91CF911F910F910895C3
:1030B000EF92FF920F931F93CF93DF93EC018C81DC
:1030C0009D818617970710F57A018B018A819B8174
:1030D0008617970740F4685F7F4F8617970718F4A5
:1030E000CE010E9449168C819D818017910758F46A
:1030F000E881F981E80FF91F309719F0D7012C9179
:1031000020830196F2CF1D830C8305C068177907D1
:1031100010F47D836C83DF91CF911F910F91FF900D
:10312000EF900895FC01808191810C94222DCF9322
:10313000DF93EC0188E090E09B838A831D821C82F0
:103140000E948A2C99838883DF91CF910895CF9232
:10315000DF92EF92FF920F931F93CF93DF931F9213
:10316000CDB7DEB78C016A017B01BC01CE010196AF
:103170000E942B18B701A601C8010E94AE17C80112
:103180000F90DF91CF911F910F91FF90EF90DF9003
:10319000CF900895EF92FF920F931F93CF93DF93F9
:1031A0001F92CDB7DEB78C017B01BC01CE01019629
:1031B0000E942B18F70101900020E9F731979F0139
:1031C0002E193F0940E050E0B701C8010E941717CF
:1031D000C8010F90DF91CF911F910F91FF90EF9059
:1031E00008954F925F926F927F928F929F92AF92CB
:1031F000BF92CF92DF92EF92FF928EE395E00E9412
:10320000CC1560933A0670933B0680933C069093EE
:103210003D060E94C41068E174E08DE596E00E94CE
:10322000CA180E943D1810929B0480919A0488232A
:1032300009F458C010929A04E0913005F0913105DC
:103240004080518062807380E0903C05F0903D05A5
:10325000C7010E94CC154B015C01B301A201C7015B
:103260000E94F2156B017C01C80CD91CEA1CFB1CE6
:103270008091320590913305DC01ED91FC9102843F
:10328000F385E02D09954B015C0167E274E08DE563
:1032900096E00E94CA18B501A4010E94A71867E32E
:1032A00074E00E94CA18B701A6010E94A7180E94E4
:1032B0003D188091320590913305DC01ED91FC9130
:1032C0000084F185E02DB701A601FF90EF90DF901B
:1032D000CF90BF90AF909F908F907F906F905F90B6
:1032E0004F900994FF90EF90DF90CF90BF90AF90F8
:1032F0009F908F907F906F905F904F900895FF9276
:103300000F931F93CF93DF931F92CDB7DEB78C013E
:10331000F62EBC01CE0101960E942B18D801ED912A
:10332000FC9136970190F081E02DE00FF11F838131
:1033300084FF10C0FF2039F024E030E040E050E08E
:103340006CE374E012C025E030E040E050E061E45E
:1033500074E00BC021E030E040E050E0FF2019F0C5
:1033600067E474E002C069E474E0C8010E941717C2
:10337000D801ED91FC9136970190F081E02DE00F9E
:10338000F11F8381948196FF03C0C8010E94231519
:10339000C8010F90DF91CF911F910F91FF90089579
:1033A000AB01FC0124813581B9016F5F7F4F0C9423
:1033B0005818CF92DF92EF92FF920F931F93FB0169
:1033C000DC0100E010E098016A01E12CF12C0C1501
:1033D0001D052E053F0538F461916D930F5F1F4F5A
:1033E0002F4F3F4FF4CF840F951F1F910F91FF90E8
:1033F000EF90DF90CF900895CF92DF92EF92FF92FF
:103400000F931F93CF93DF931F92CDB7DEB78C013D
:103410007B016A01B9010E9497188FEFC816D80680
:1034200011F40E943431F7018081181684F4198256
:10343000AE014F5F5F4FB601C8010E945818F801F6
:1034400044815581B701808191810E94D9190F90E3
:10345000DF91CF911F910F91FF90EF90DF90CF9070
:103460000895AF92BF92CF92DF92EF92FF920F93A7
:103470001F93CF93DF931F92CDB7DEB76C017B0113
:10348000BA010E949718E114F104F1F0F7010190DC
:103490000020E9F731978F010E191F09F601A4806A
:1034A000B5801982B8016A0D7B1DAE014F5F5F4F79
:1034B000C6010E945818F60180819181A801B701C8
:1034C0008A0D9B1D0E94D9190F90DF91CF911F91FA
:1034D0000F91FF90EF90DF90CF90BF90AF90089545
:1034E0000F931F93CF93DF931F92CDB7DEB78C015D
:1034F0008091B30481110CC0AE014F5F5F4F6BE44C
:1035000074E08CEA94E00E94311A81E08093B30465
:103510008091A40481110CC0AE014F5F5F4F61E543
:1035200074E08DE994E00E94311A81E08093A40454
:1035300066E576E08DE596E017FF05C00E94F1058F
:103540006DE974E004C00E94F1056CEA74E00E9429
:10355000F1056FE476E00E94F1050E943D180F909E
:10356000DF91CF911F910F9108950F931F93CF93E8
:10357000DF931F92CDB7DEB78C01AE014F5F5F4F77
:1035800066E574E00E94311AC8010F90DF91CF9177
:103590001F910F910895FC01918D828D981731F044
:1035A000828DE80FF11D858D90E008958FEF9FEFDC
:1035B0000895FC01918D228D892F90E0805C9F4FB2
:1035C000821B91098F739927089580E090E0892BE1
:1035D00029F00E945C0181110C9400000895CF93A2
:1035E000DF931F92CDB7DEB76983DC01ED91FC91CB
:1035F0000280F381E02D41E050E0BE016F5F7F4F1C
:1036000009950F90DF91CF91089583E08093E900B1
:103610008091F200882319F08AE38093E8000895EE
:10362000FC018485958597FD0BC09FB7F89482E0D7
:103630008093E9008091F2009FBF90E00196089589
:103640009FB7F89482E08093E9008091F2009FBFD9
:1036500090E00895089580E090E0089590E0FC01E6
:103660003197EF30F105B0F5EA5AFF4F0C942E3147
:10367000809180008F7703C0809180008F7D809340
:103680008000089580918000877FF9CF84B58F777F
:1036900002C084B58F7D84BD0895809190008F779E
:1036A00007C0809190008F7D03C080919000877F3C
:1036B0008093900008958091C0008F7703C080911F
:1036C000C0008F7D8093C00008958091C200877FE5
:1036D0008093C20008953FB7F8948091CF049091F1
:1036E000D004A091D104B091D20426B5A89B05C006
:1036F0002F3F19F00196A11DB11D3FBFBA2FA92F71
:10370000982F8827820F911DA11DB11DBC01CD01ED
:1037100042E0660F771F881F991F4A95D1F70895D9
:1037200008950E94732090E008950F931F93CF9304
:10373000DF931F92CDB7DEB78C01FC0184859585A0
:1037400097FF0EC0CE0101960E949610019719F4C2
:10375000898190E002C08FEF9FEFF8019587848701
:10376000F801848595850F90DF91CF911F910F917E
:103770000895CF93DF931F92CDB7DEB7FC01848508
:10378000958597FD05C02FEF3FEF358724870BC048
:10379000CE0101960E949610019719F4898190E05C
:1037A00002C08FEF9FEF0F90DF91CF9108950E949D
:1037B0003431FC01848DDF01A80FB11DA35ABF4F26
:1037C0002C91848D90E001968F739927848FA68920
:1037D000B7892C93A089B1898C9182748C93938D35
:1037E000848D981306C00288F389E02D80818F7D37
:1037F00080830895CF93DF93282F30E0F901EE5CAA
:10380000FE4F8491F901ED5EFE4FD491F901EC5029
:10381000FF4FC491CC2391F081110E942E1BEC2FFD
:10382000F0E0EE0FFF1FEA51FF4FA591B491EC912C
:10383000ED2381E090E021F480E002C080E090E0A0
:10384000DF91CF9108951F93CF93DF93282F30E01E
:10385000F901EE5CFE4F8491F901ED5EFE4FD491CB
:10386000F901EC50FF4FC491CC23C1F0162F811108
:103870000E942E1BEC2FF0E0EE0FFF1FE852FF4FCF
:10388000A591B4919FB7F894111104C08C91D09573
:10389000D82302C0EC91DE2BDC939FBFDF91CF9148
:1038A0001F910895CF93DF9390E0FC01ED5EFE4FF2
:1038B0002491FC01EC50FF4F8491882361F190E04A
:1038C000880F991FFC01E653FF4FC591D491FC016D
:1038D000E852FF4FA591B491611109C09FB7F894C8
:1038E0008881209582238883EC912E230BC062303F
:1038F00061F49FB7F8948881322F309583238883B1
:10390000EC912E2B2C939FBF06C08FB7F894E881C3
:103910002E2B28838FBFDF91CF9108958F929F9296
:10392000AF92BF92CF92DF92EF92FF926B017C0138
:103930000E946B1B4B015C01C114D104E104F10432
:10394000F1F00E946B1BDC01CB0188199909AA09CF
:10395000BB09883E9340A105B10570F321E0C21A6E
:10396000D108E108F10888EE880E83E0981EA11CBA
:10397000B11CC114D104E104F10419F7DDCFFF90AB
:10398000EF90DF90CF90BF90AF909F908F90089571
:103990008F929F92AF92BF92CF92DF92EF92FF925F
:1039A0000F931F93CF93DF936C017B018A0180916A
:1039B0001701882309F45CC080919904882309F4D5
:1039C00057C08091BC0680FF05C08091E0008260F6
:1039D0008093E000E801B12C8AEFA82E93E0892EB5
:1039E0002AE3922E209711F4BB20D9F10E94732074
:1039F00081110AC0AA94AA20D9F161E070E080E0A8
:103A000090E00E948E1CEECF282F30E0C217D30723
:103A10000CF48C2F9FB7F8948092E9002091E80075
:103A200025FF1DC0282F30E0C21BD30BF7018150AA
:103A300020F041914093F100FACFE20EF31EBB203B
:103A400019F09092E8000AC08091E80085FD07C057
:103A50009092E800BB24B394209709F0B12C9FBF4B
:103A6000C1CF5D9884E68093BD061016110644F020
:103A700081E090E0F6019383828380E090E001C0D2
:103A8000C801DF91CF911F910F91FF90EF90DF90D0
:103A9000CF90BF90AF909F908F9008952FB7F894DC
:103AA0006091CB047091CC048091CD049091CE04B0
:103AB0002FBF08951F920F920FB60F9211242F93CC
:103AC0003F938F939F93AF93BF938091CB0490913B
:103AD000CC04A091CD04B091CE043091CA0423E06F
:103AE000230F2D3720F40196A11DB11D05C026E836
:103AF000230F0296A11DB11D2093CA048093CB040D
:103B00009093CC04A093CD04B093CE048091CF04C5
:103B10009091D004A091D104B091D2040196A11D3E
:103B2000B11D8093CF049093D004A093D104B0939F
:103B3000D204BF91AF919F918F913F912F910F90A0
:103B40000FBE0F901F9018951F920F920FB60F92F5
:103B500011242F933F934F935F936F937F938F9392
:103B60009F93AF93BF93EF93FF93E0910801F09180
:103B700009010995FF91EF91BF91AF919F918F91AD
:103B80007F916F915F914F913F912F910F900FBE59
:103B90000F901F9018951F920F920FB60F9211243D
:103BA0002F933F934F935F936F937F938F939F9345
:103BB000AF93BF93EF93FF93E0910601F09107015C
:103BC0000995FF91EF91BF91AF919F918F917F9157
:103BD0006F915F914F913F912F910F900FBE0F907A
:103BE0001F9018951F920F920FB60F9211242F93CA
:103BF0003F934F935F936F937F938F939F93AF9375
:103C0000BF93EF93FF93E0910401F09105010995B3
:103C1000FF91EF91BF91AF919F918F917F916F91A4
:103C20005F914F913F912F910F900FBE0F901F907A
:103C300018951F920F920FB60F9211242F933F9356
:103C40004F935F936F937F938F939F93AF93BF93A4
:103C5000EF93FF93E0910201F09103010995FF9129
:103C6000EF91BF91AF919F918F917F916F915F91F4
:103C70004F913F912F910F900FBE0F901F9018956D
:103C80001F920F920FB60F9211242F933F934F93D1
:103C90005F936F937F938F939F93AF93BF93EF93B4
:103CA000FF93E0910001F09101010995FF91EF91DF
:103CB000BF91AF919F918F917F916F915F914F9144
:103CC0003F912F910F900FBE0F901F9018950F935B
:103CD0001F93CF938C01C62F8091C20481112FC0F6
:103CE0008CE090E09093BE048093BD0484E090E06B
:103CF0009093C0048093BF048CE090E00E948A2CD3
:103D00009093BC048093BB04A7ECB1E0CD01875C29
:103D100091402091BF043091C0048217930760F452
:103D2000E091BB04F091BC04E80FF91F309711F04B
:103D30008C9180831196EACF81E08093C2048091B8
:103D4000BB049091BC042091BF043091C004280FA3
:103D5000391FFC018217930760F401964081C41358
:103D6000F8CF80E2C8276DE7F801808191810E9439
:103D70000F026C2FF80180819181CF911F910F91DB
:103D80000C940F02AF92BF92CF92DF92EF92FF920C
:103D90001F93CF93DF93EC017B016C0184E0C80E8D
:103DA000D11CC6010E941A0E19E01150C1F0570132
:103DB0008FEFA81AB80A88859985BC016F5F7F4F7D
:103DC0008617970730F4A701C6010E94EB0D750115
:103DD000ECCF68177907D8F779876887F8CFDF9134
:103DE000CF911F91FF90EF90DF90CF90BF90AF9059
:103DF0000895EF92FF920F931F93CF93DF93CDB768
:103E0000DEB727970FB6F894DEBF0FBECDBF7C019B
:103E10008B01DB01ED91FC910480F581E02DCE0159
:103E2000019609956CE574E08DE596E00E94CA184C
:103E3000BE016F5F7F4F0E94F1050E943D18CE01C9
:103E400001960E949218F701838594850097B1F03E
:103E5000DC01ED91FC910084F185E02D0995F701DD
:103E6000838594850817190749F0009739F0DC011C
:103E7000ED91FC910280F381E02D0995F701148703
:103E80000387D801ED91FC910284F385E02DC801F0
:103E9000099527960FB6F894DEBF0FBECDBFDF9110
:103EA000CF911F910F91FF90EF900895EF92FF92A5
:103EB0000F931F93CF93DF931F92CDB7DEB78C0183
:103EC0007B01BA010E949718F701648175811982FC
:103ED000AE014F5F5F4FC8010E945818F80144813E
:103EE0005581F70160817181F801808191810E9483
:103EF000D9190F90DF91CF911F910F91FF90EF9003
:103F000008950F931F93CF93DF931F92CDB7DEB722
:103F10008C01AC014E5F5F4F81E290E0F80191A30C
:103F200080A312A213A214A286E090E0A0E0B0E069
:103F300085A396A3A7A3B0A711A612A613A614A69D
:103F40008BEB92E0968F858F80E285A717A616A649
:103F500051AB40AB12AA6DE372E0C8010E9492051A
:103F60008DE292E0F8019183808387E392E0968F5F
:103F7000858F168215821086178212861186148606
:103F8000138616861586108A1786118A8BE092E0B2
:103F900093838283BE016F5F7F4FC80142960E9468
:103FA0009718F801128E118E148E138E80E1818B7A
:103FB0000F90DF91CF911F910F9108958091C306CB
:103FC00081110DC082E08093BF0684E08093C0061B
:103FD0001092C2061092C10681E08093C3068FEB57
:103FE00096E00895DF92EF92FF920F931F93CF9385
:103FF000DF93D82E8A017B01E40EF51EEB01CE156E
:10400000DF0571F0D7FE03C0FE01849101C08881F5
:104010000E94D40121968111F2CF8FEF9FEF01C052
:10402000C801DF91CF911F910F91FF90EF90DF902A
:1040300008950F931F93CF93DF931F92CDB7DEB7F1
:1040400082E0898342E450E061E571E080E80E940B
:10405000F21F0E94DE1FDC0112960D911C91139736
:104060000115110589F0D801ED91FC910280F381D1
:10407000E02DBE016F5F7F4FC801099597FD04C019
:10408000F80100851185ECCF89810F90DF91CF91E8
:104090001F910F9108950F931F93CF93DF93FC010E
:1040A00004811581FB01C481D581A801C017D10706
:1040B00008F4AE01FB0160817181FC018081918176
:1040C0000E944B31892B49F481E0C017D10730F0B1
:1040D0000C171D0718F080E001C081E0DF91CF913F
:1040E0001F910F9108952FB7F89483E08093E90012
:1040F0009091E800892F807295FF04C09091F200A2
:1041000080E4891B2FBF08951F920F920FB60F9264
:1041100011248F939F938091E1009091E100937F10
:104120009093E10083FF0FC01092E90091E090931B
:10413000EB001092EC0092E39093ED001092990442
:1041400098E09093F00082FF20C093E09093E90004
:104150009091F200992319F09AE39093E8009091DE
:10416000BD06992339F09091BD0691509093BD06FC
:10417000992389F190919804992339F090919804AA
:10418000915090939804992341F184FF10C080913D
:10419000E2008E7E81608093E2008091E1008F7E5C
:1041A0008093E1008091BC068E7E806111C080FF0B
:1041B00016C08091E2008E7E80618093E200809143
:1041C000E1008E7E8093E1008091BC068E7E81604E
:1041D0008093BC0604C05D9ACDCF289AD6CF9F911C
:1041E0008F910F900FBE0F901F9018951F920F92F6
:1041F0000FB60F921124CF92DF92EF92FF920F939E
:104200001F932F933F934F935F936F937F938F935E
:104210009F93AF93BF93EF93FF93CF93DF93CDB76C
:10422000DEB76C97DEBFCDBF1092E9008091E80049
:1042300083FFFBC168E0CE0145960E94020282EF37
:104240008093E8008D8987FF05C09091E80090FF7A
:10425000FCCF03C09EEF9093E800982F907609F072
:10426000C6C09E894F89588D2F89F88C91110CC03A
:10427000803829F48091BB068093F10002C010922F
:10428000F1001092F10045C1913051F4811141C10A
:104290004130510509F03DC18091BB068D7F0BC0B7
:1042A000933061F4811135C14130510509F031C1BC
:1042B0008091BB0682608093BB062BC1953049F488
:1042C0008091E80080FFFCCF822F80688093E3001C
:1042D00020C1963009F05EC00B8D1C8D22E010923B
:1042E000E9001092BA061092B906F21232C010928A
:1042F000B8061092B7060E94192099E0BE016F5FC0
:104300007F4FDB01E92F1D92EA95E9F79983FA8245
:1043100091E09E8390EA98879AEF99872091B90659
:104320003091BA06275F3F4F3C832B838D831092D9
:10433000E9001092BA061092B9061093B8060093DD
:10434000B70649E050E080E00E94F21F0E94192069
:10435000E0C01093B8060093B7060E94DE1FDC0190
:1043600012960D911C9113970115110509F4BBC00C
:10437000D801ED91FC910480F581E02DBE016B5ECA
:104380007F4FC8010995009709F0C7C0F801008563
:104390001185EACF973009F445C1983021F481E0C6
:1043A0008093F100B6C0993009F0B3C0837009F072
:1043B00039C1EAE1F3E081E031E096E320812111A7
:1043C00009C08EE78093EA001092EA008F898093FB
:1043D00099049FC08093E9003093EB0021912093D2
:1043E000EC009093ED008F5F873041F7EACF8B8D23
:1043F0009C8D1092E9001092BA061092B906909323
:10440000B8068093B706898D811153C08E899D8926
:10441000913A49F4813209F005C147E050E060E18A
:1044200071E080E0BBC0913209F0FCC0833269F4D6
:104430008F89988DA0E0B0E080930C0190930D01DE
:10444000A0930E01B0930F0164C0803269F4809193
:10445000E80082FFFCCF67E080E191E00E94020269
:104460008BEF8093E80055C0823209F052C08F89EB
:1044700080931701EEEFFFE7859194918B3F9C4D60
:1044800019F0E0E0F8E002C0EEEFFAE080911001F0
:1044900090911101A0911201B0911301803B9440C1
:1044A000A105B10509F09EC08091170180FF79C078
:1044B00099C00E94DE1FFC010281138101151105C4
:1044C00009F4B0C0D801ED91FC910190F081E02D8C
:1044D000BE016B5E7F4FC801099581111AC0F801BA
:1044E00000851185EBCFF1E0FF1609F44EC0F3E033
:1044F000FF1298C08F89882309F44AC0823089F45A
:1045000040E860E185EB91E00E94F02A882309F4FD
:1045100089C08EEF8093E80088C018161906CCF386
:1045200081C0813029F440E86BE089EA91E0ECCF6A
:10453000833009F077C00E94DE1FDC011296ED90F7
:10454000FC9013978E010F5F1F4F6801E114F10477
:1045500079F0D701ED91FC910680F781E02DB8014B
:10456000C7010995080F111DF701E084F184EECF12
:10457000D8011C92F60101900020E9F73197BF01A4
:104580006C197D0940E0C601BFCF67E971E002C048
:1045900063E971E0FB01449150E080E80E94F21F62
:1045A000B8CFEE3F2AE0F20751F080819181873742
:1045B000A7E79A0721F09093FF0A8093FE0A87E706
:1045C00097E791838083809160008093BE069BE093
:1045D00088E10FB6F894A895809360000FBE909381
:1045E000600097CF808191818737974709F091CFFD
:1045F000A895809160008861809360008091BE06DC
:1046000080936000EE3FBAE0FB0739F08091FE0A2C
:104610009091FF0A918380837CCF1092FF0A1092C1
:10462000FE0A77CF81E28093EB006C960FB6F89488
:10463000DEBF0FBECDBFDF91CF91FF91EF91BF9154
:10464000AF919F918F917F916F915F914F913F912A
:104650002F911F910F91FF90EF90DF90CF900F90CF
:104660000FBE0F901F9018950F931F93CF93DF935A
:1046700000D0CDB7DEB78C018091D20681110AC07F
:10468000BE016F5F7F4F8BEC96E00E94971881E030
:104690008093D2068BEC96E00E941A0E65EA73E0D6
:1046A0008BEC96E00E94B005D80116962D913C91B6
:1046B000179714968D919C911597AC014F5F5F4FA2
:1046C00015965C934E931497F901E80FF91F8081BA
:1046D0008A83882309F441C08C32B9F58DE089833F
:1046E000BE016F5F7F4F8BEC96E00E94D019D8011E
:1046F0001296ED91FC911397808191814091CF06A4
:104700005091D0066091CB067091CC06DC01ED9102
:10471000FC910280F381E02D09950E944E1D60936B
:10472000D3047093D4048093D5049093D60488E87E
:1047300093E1A0E0B0E08093D7049093D804A093D5
:10474000D904B093DA0481E009C0BE016E5F7F4FE7
:104750008BEC96E00E94D019A7CF80E00F900F90CD
:10476000DF91CF911F910F910895CF93DF93CDB734
:10477000DEB7A5970FB6F894DEBF0FBECDBF789415
:1047800084B5826084BD84B5816084BD85B5826056
:1047900085BD85B5816085BD80916E008160809307
:1047A0006E00109281008091810082608093810070
:1047B0008091810081608093810080918000816080
:1047C000809380008091910082608093910080911D
:1047D000910081608093910080919000816080932E
:1047E00090008091C10084608093C1008091C100DD
:1047F00082608093C1008091C10081608093C1007C
:104800008091C30081608093C3008091C00082606A
:104810008093C0008091C20081608093C20080912B
:104820007A00846080937A0080917A00826080931D
:104830007A0080917A00816080937A0080917A007A
:10484000806880937A00109299041092BB061092AF
:10485000BC068091D70081608093D70080EA809366
:10486000D80089B5806189BD89B5826089BD09B4E8
:1048700000FEFDCF61E070E080E090E00E948E1CC1
:104880008091D8008F7C80618093D8008091E00077
:10489000807F8093E0008091E1008E7E8093E10034
:1048A0008DE08093E200559A209A61E08091100695
:1048B0000E94231C60E080910F060E94231C81EF60
:1048C00098E1909333068093320662E085E00E947F
:1048D000521C62E086E00E94521C80910606909174
:1048E0000706409730F460E170E084E096E00E94B3
:1048F00049168091FF0590910006809730F460E2A0
:1049000070E08DEF95E00E9471168FEF9FEF90930E
:10491000EC048093EB0483E595E00E946F1068EE51
:1049200073E080E090E00E948E1C80EF95E00E9492
:10493000220E0E944E1D60933405709335058093BE
:1049400036059093370588EE93E0A0E0B0E08093C1
:10495000380590933905A0933A05B0933B0562E082
:1049600080912F050E94521C80912F050E94FA1BF6
:1049700021E0892B09F420E020939C0410929B04F1
:1049800010929A0480912F05882309F450C3813036
:1049900009F44FC3823009F44EC3833009F44DC388
:1049A000873071F44CC3833008F067C3813009F459
:1049B0005CC3809169008C7F816080936900E89A74
:1049C000789461E08DE596E00E947F190E943D1881
:1049D00084E090E00E948A2C24E435E0DC01139608
:1049E0003C932E93129722E231E02D933C93BC012D
:1049F00084E495E00E94F91E46E0242E312C52E01A
:104A0000E52EF12C6AEF862E912CA12CB12C8BE097
:104A100096E00E94730A8FED94E00E94101B181616
:104A200019060CF0F4C08FED94E00E94B91B97FDBD
:104A3000EEC08DA38D3031F0803409F4D7C08A30B8
:104A400009F0D8C08091080690910906029708F4F1
:104A5000DEC0BE016B5D7F4F84E096E00E94D019FE
:104A600000910806109109060230110550F4AE01BC
:104A70004F5F5F4F60E273E0CE014B960E94311AA8
:104A800098C0BE016C5E7F4FCE0101960E949718C0
:104A9000BE016C5E7F4FCE0108960E949718CE0132
:104AA00001960E941A0E60910806709109061CA2D8
:104AB000AE014C5D5F4FCE0101960E9458184091A7
:104AC00008065091090660910406709105068981D7
:104AD0009A810E94D919188A198A1A8A1B8A6091A8
:104AE0000406709105066F5F7F4FCE0108960E9405
:104AF000D0190230110551F480E38F87BE016F5F3A
:104B00007F4FCE014B960E949E114BC060910406D0
:104B1000709105066E5F7F4FCE0108960E94D019F6
:104B20000330110549F3E0910406F09105068381F5
:104B30008F870630110500F184818C32E9F4B2C20E
:104B400045505109BF016B5F7F4F9E01255E3F4F6E
:104B5000CE0144960E94FC194AE050E060E070E00B
:104B60008C899D890E94252B688B798B8A8B9B8BE6
:104B7000CE0144960E949218BE016F5F7F4FCE0116
:104B800044960E949E11AE014D5D5F4FBE016C5E6A
:104B90007F4FCE014B960E94561FCE0144960E9435
:104BA0009218CE0108960E949218CE0101960E949A
:104BB00092188F8D98A1892B81F06AE38DE596E09C
:104BC0000E946C08BE01655E7F4F0E94F1056FE494
:104BD00076E00E94F1050E943D1884E096E00E9474
:104BE0001A0ECE014B960E94921811C084E096E0F6
:104BF0000E941A0E8091080690910906409738F499
:104C0000BE016B5D7F4F84E096E00E94D0198091D9
:104C10005105882309F4DEC000914605109147052F
:104C2000F80180819181DC01ED91FC910084F18596
:104C3000E02D0995181619060CF011C120E2622E1C
:104C400033E0C32ED12C77247394F80180819181B5
:104C5000DC01ED91FC910084F185E02D0995181699
:104C600019060CF0FCC0F80180819181DC01ED9106
:104C7000FC910284F385E02D099597FDE6CF8AA388
:104C80008E3719F4C8010E94220EF801868188230C
:104C900021F016828AA186258AA3D80114962D9127
:104CA0003C9115978AA12115310519F18D3719F419
:104CB00016967C92CACF2330310581F190F42130D1
:104CC000310501F12230310509F0BFCFF80120850F
:104CD0003185A901482BCA0191878087D582C4827A
:104CE000B4CF2430310521F12530310509F454C009
:104CF000ACCF8E3709F0A9CF41E050E0F8015583E1
:104D00004483A3CFD80118961C92189719968C93B8
:104D100019971596FC92EE92149797CFD8011A9690
:104D20008C931A9717968C931797E4E0F0E02FC0B6
:104D3000D80112968D919C911397FC0124813581A5
:104D4000B9016F5F7F4F2617370730F4AE014E5D14
:104D50005F4F0E94EB0D05C06217730710F4758357
:104D60006483F80197818AA1890F87830280F38188
:104D7000E02DD80118968D919C9119970197248167
:104D800035812817390709F060CFE5E0F0E0159686
:104D9000FC93EE93149759CFD80117969C911797CF
:104DA000890F17968C9317978F3F81F415963C9235
:104DB0002E92149712966D917C9113971B96ED91FC
:104DC000FC911C971A968C9109953FCFC8010E94BF
:104DD000220E3BCF80916D0481110AC0BE016F5F2E
:104DE0007F4F86E694E00E94971881E080936D04DF
:104DF0008091440590914505DC01ED91FC91008482
:104E0000F185E02D0995181619064CF58091440599
:104E100090914505DC01ED91FC910284F385E02D34
:104E2000099597FD1CC089838D3091F480914F05C1
:104E300090915005DC01ED91FC910484F585E02D05
:104E400066E674E0099586E694E00E941A0E07C0B3
:104E5000BE016F5F7F4F86E694E00E94D01980917B
:104E60004F0590915005DC01ED91FC910680F78192
:104E7000E02D09958091380590913905A0913A056A
:104E8000B0913B05892B8A2B8B2B09F4CDC00E9456
:104E90004E1D009134051091350520913605309155
:104EA0003705DC01CB01801B910BA20BB30B0091EA
:104EB00038051091390520913A0530913B0580174E
:104EC0009107A207B30708F4AFC00E944E1D60937C
:104ED000340570933505809336059093370580929D
:104EE000380590923905A0923A05B0923B0520E032
:104EF00030E0A9016091220670912306809124067A
:104F0000909125060E94E32E882361F18EE395E0BF
:104F10000E94CC152B013C0164E273E08DE596E024
:104F20000E94CA188C01DC01ED91FC91369701902A
:104F3000F081E02D3296E80FF91F818192818F7107
:104F4000806292838183C301B20128E030E040E0B7
:104F500050E00E940F31BA01A901C8010E94A718B0
:104F60000E943D1885E00E94FA1B8C01DD24D39439
:104F7000892B09F0D12CE0910D06F0910E064480AA
:104F800055806680778080917604D816E9F0011507
:104F90001105A1F481E090E00E94701A4091490649
:104FA00050914A0660914B0670914C06440D551D78
:104FB000661D771D8BE096E00E94F70B012B21F018
:104FC0008BE096E00E948708D092760486E00E94EB
:104FD000FA1B8C01DD24D394892B09F0D12C80910C
:104FE0007504D816F9F001151105B1F48FEF9FEF94
:104FF0000E94701A8091490690914A06A0914B0632
:10500000B0914C06B301A201481B590B6A0B7B0BF4
:105010008BE096E00E94F70B012B21F08BE096E0ED
:105020000E948708D09275040E94E51AF0CC82E0B5
:1050300007C083E005C081E003C080E001C084E0D8
:10504000E82FF0E0EE0FFF1FE050FF4F26E534E0C1
:1050500031832083823009F0A6CC809169008F7C57
:10506000806180936900EA9AABCC80916900837F6C
:10507000846080936900E99AA3CC833041F48091E5
:1050800069008F73806480936900EB9A99CC8430B7
:1050900009F08FCC80916A008F7C806180936A00D8
:1050A000EE9A8ECC40910806509109064530510584
:1050B00008F046CD0E94343188E495E00E949218B1
:1050C0008DEF95E00E94921884E096E00E9492187D
:1050D00086E596E00E9492188FE496E00E9492186E
:1050E00089E896E00E94340D8DE596E00C947B0DE6
:1050F0004F925F926F927F92AF92BF92DF92EF9248
:10510000FF920F931F93CF93DF931F92CDB7DEB71C
:1051100083E5E82E85E0F82E10925605109255058D
:1051200088EE93E0A0E0B0E0809357059093580597
:10513000A0935905B0935A0527E432E03093540503
:10514000209353052DEC30E03093600520935F05EC
:105150002CEC30E0309362052093610528EC30E0C0
:10516000309364052093630529EC30E030936605A5
:10517000209365052AEC30E030936805209367059D
:105180002EEC30E030936A052093690510926C058F
:1051900010926D0510926E0510926F050FED14E0E0
:1051A0001092E2041092E1048093E3049093E404EB
:1051B000A093E504B093E60489E592E09093E004BF
:1051C0008093DF048FEF9FEF9093EC048093EB04C8
:1051D0001092D3041092D4041092D5041092D604E5
:1051E0001092D7041092D8041092D9041092DA04C5
:1051F00091E2A92EB12CB0927506A092740610927D
:105200007606109277061092780626E0422E512CF0
:10521000612C712C4092790650927A0660927B063E
:1052200070927C0610927D0610927E0610927F0688
:10523000109280068BEB92E0909372068093710639
:1052400030E2D32ED092810610928306109282060D
:105250008FE596E0909385068093840610928606EB
:10526000AC0165EF72E08DE596E00E94920585EE57
:1052700092E090935E0680935D068FEE92E09093AD
:105280007206809371061092630610926206109265
:1052900065061092640610926706109266061092D8
:1052A00069061092680610926B0610926A061092B8
:1052B0006D0610926C0683EC92E0909360068093EA
:1052C0005F061093700600936F0620E120936E0630
:1052D000B092A506A092A4061092A6061092A70668
:1052E0001092A8064092A9065092AA066092AB06B8
:1052F0007092AC061092AD061092AE061092AF06F8
:105300001092B006D092B1061092B3061092B20677
:105310001092B60610928B0610928C0610928D0693
:1053200010928E062FE836E03093B5062093B4062F
:1053300021E832E030938A06209389062BE832E098
:105340003093A2062093A106109293061092920623
:105350001092950610929406109297061092960657
:10536000109299061092980610929B0610929A0637
:1053700010929D0610929C069093900680938F0643
:105380001093A00600939F0688E080939E061092DB
:10539000DE041092DD041093DC040093DB0465ED61
:1053A00079E08DEE99E00E94232C9093DE048093A7
:1053B000DD04AE014F5F5F4F61E674E08FE496E07D
:1053C0000E94311AAE014F5F5F4F63E674E086E5DD
:1053D00096E00E94311A83E193E0909388068093CF
:1053E000870687E896E00E946F0E84E396E00E94AD
:1053F0003F058FEF92E090930C0680930B0681E0BF
:1054000090E0909315068093140610921606109261
:105410001706109218061092190610921A0610928A
:105420001B0610921C0610921D0610921E0610926A
:105430001F06109220061092210610922606109246
:105440002706109228061092290610922A0610921A
:105450002B0610922C0610922D0686E396E0909370
:105460000E0680930D0687E896E0909313068093CE
:105470001206109222061092230610922406109211
:1054800025068CE080930F068AE0809310068BE05F
:105490008093110680E090E0AAE7B3E480932E06A3
:1054A00090932F06A0933006B093310661E08CE014
:1054B0000E94521C61E0809111060E94521C61E022
:1054C000809110060E94521C61E0809110060E949B
:1054D000231C1092330610923206BE016F5F7F4F7D
:1054E00084E096E00E949718BE016F5F7F4F8DEFBA
:1054F00095E00E949718F092F105E092F0058DEF8B
:1055000095E09093F3058093F20588E495E19093FC
:10551000FC058093FB05F0924505E092440580EF81
:1055200095E09093470580934605BE016F5F7F4FDE
:1055300088E495E00E949718109251051092520548
:1055400080914A0590914B05089730F468E070E02F
:1055500088E495E00E9471168BE096E090933F05F9
:1055600080933E0524E336E03093410520934005C7
:1055700024E435E030934305209342052EE335E0E3
:1055800030933D0520933C0590933305809332057D
:1055900083E496E0909331058093300582E0809318
:1055A0002F05109234051092350510923605109291
:1055B0003705109238051092390510923A0510926D
:1055C0003B050F90DF91CF911F910F91FF90EF90CE
:1055D000DF90BF90AF907F906F905F904F90089555
:1055E000DF92EF92FF920F931F93CF93DF93D82E0A
:1055F000F92EE42E062F10E0C8010196880F0E94B4
:10560000D40183E00E94D401CD2DDF2D0C0F1D1F8E
:10561000C017D10789F0E7FE03C0FE01849101C0E5
:1056200088810E94D401F82E80E00E94D4018F214D
:1056300021968111EDCF01C081E0DF91CF911F91C3
:105640000F91FF90EF90DF900895A0E0B0E0EBE2C3
:10565000FBE20C94312E5C016B017A01611571053E
:1056600019F0FB0191838083E114F10429F0C70153
:105670000297839708F0C9C0E5012196F5011081D2
:10568000812F90E00E941A2C892B11F05E01F4CF3B
:105690001D3229F42196F501118101E007C01B326A
:1056A00021F4E5012296F501118100E0E114F104F5
:1056B000B1F0F0E1EF16F10429F4B0C010E3E11409
:1056C000F10401F12AE0E216F104B1F180E1E816FB
:1056D000F10471F0E8E0EE16F104F1F413C01033B8
:1056E00041F588818F7D883549F7198122960260BE
:1056F000F0E1EF2EF12C88248A94982CA82CAFE0AE
:10570000BA2E20C078E0E72EF12C88248A94982CB9
:10571000A82CEFE1BE2E16C06FEF7FEFCB019701F3
:105720000F2C000C440B550B0E94032E49015A010B
:1057300009C08AE0E82EF12C69E9862E982CA82C65
:1057400069E1B62E40E060E070E0CB0127010F2C4C
:10575000000C66087708FE0150ED352E310E29E069
:10576000231570F42FEB210F2A3118F439EC332E66
:1057700006C02FE9210F2A3130F529EA322E310EE9
:10578000232D30E02E153F05F4F44F3FC9F0861667
:105790009706A806B90688F0A30192010E94F32D8E
:1057A000232D30E040E050E0620F731F841F951FEF
:1057B000621773078407950710F44FEF01C041E0AB
:1057C00021961081C8CFC114D10451F0442311F0A7
:1057D000219703C001FF04C02297F601D183C08343
:1057E00000FF07C090958095709561957F4F8F4F12
:1057F0009F4F4F3F79F482E290E09093E1068093CF
:10580000E0063FEF2FEF9FEF0DC040E030E020E0DB
:1058100090E008C0462F372F282F04C0103309F01E
:1058200067CF5FCF642F732F822FCDB7DEB7E1E153
:105830000C944D2E91110C94AB2D803219F089509F
:105840008550C8F708950F931F93CF93DF93009768
:1058500031F46115710519F480E090E03AC08B01D4
:10586000EC016EE070E081E090E00E946E2CFC01A3
:10587000892B91F380E883830115110571F013875B
:10588000028781E883838091DA069091DB06892B79
:1058900021F4F093DB06E093DA062097C9F0D18774
:1058A000C0878381826083838091DC069091DD06CE
:1058B000892B71F4F093DD06E093DC068091DE061F
:1058C0009091DF06892B21F4F093DF06E093DE064A
:1058D000CF01DF91CF911F910F9108950F931F93E7
:1058E000CF93DF93869F8001879F100D969F100DA9
:1058F0001124C8010E948A2CEC01009729F0A8010C
:1059000060E070E00E94AE2DCE01DF91CF911F913B
:105910000F9108950F931F93CF93DF9382309105DA
:1059200010F482E090E0E091E406F091E50620E0DA
:1059300030E0A0E0B0E0309719F140815181028160
:10594000138148175907C8F08417950769F4109711
:1059500031F012960C93129713961C9327C0009364
:10596000E4061093E50622C02115310519F042170F
:10597000530718F49A01BD01EF01DF01F801DBCFF5
:1059800021153105F9F0281B390B2430310580F43D
:105990008A819B816115710521F0FB0193838283CC
:1059A00004C09093E5068093E406FE01329644C05D
:1059B000FE01E20FF31F8193919322503109398345
:1059C00028833AC02091E2063091E306232B41F46C
:1059D00020911A0130911B013093E3062093E206D7
:1059E00020911801309119012115310541F42DB78D
:1059F0003EB740911C0150911D01241B350BE091D5
:105A0000E206F091E306E217F307A0F42E1B3F0B2A
:105A10002817390778F0AC014E5F5F4F2417350720
:105A200048F04E0F5F1F5093E3064093E2068193C8
:105A3000919302C0E0E0F0E0CF01DF91CF911F91A0
:105A40000F910895CF93DF93009709F481C0FC0173
:105A5000329713821282A091E406B091E506109766
:105A600081F420813181820F931F2091E2063091D1
:105A7000E3062817390751F5F093E306E093E206B1
:105A800067C0ED0120E030E0CE17DF0740F44A8127
:105A90005B819E0141155105F1F0EA01F5CFD383F9
:105AA000C28340815181840F951FC817D90759F4CB
:105AB00088819981840F951F0296918380838A81C2
:105AC0009B81938382832115310529F4F093E506A8
:105AD000E093E4063DC0E901FB83EA8349915991D3
