:100000000C94DC000C9467240C9440240C94192468
:100010000C94F2230C9404010C9404010C94CB2353
:100020000C9404010C9404010C9488200C94F72087
:100030000C9404010C9404010C9404010C9404012C
:100040000C9404010C948E240C9404010C9404016F
:100050000C9404010C9404010C9404010C9481236D
:100060000C9404010C944F230C9429230C94040148
:100070000C9404010C9404010C9404010C940401EC
:100080000C9404010C9404010C9404010C940401DC
:100090000C9404010C9404010C9404010C940401CC
:1000A0000C9404010C9404010C9404010000000061
:1000B000240027002A002D00300000000000250049
:1000C00028002B002E003100000000002300260035
:1000D00029002C002F000404040404030405020278
:1000E00002020403020202020606060606060404D1
:1000F0000202020404040802011040804010204063
:10010000804080080204018040201002011080100D
:10011000204040200000000200090F0000030401FD
:10012000000C0000000000000000000000000000C3
:10013000000000070605040100080A0B0C0D090861
:100140000B0002020201000904000001020200008B
:1001500005240010010524010101042402060524E0
:100160000600010705810310004009040100020A8E
:10017000000000070502024000000705830240005E
:10018000000403090412010002EF0201404123367A
:100190008000010102030141726475696E6F204C99
:1001A0004C430041726475696E6F204C656F6E61DF
:1001B00072646F008125792C11241FBECFEFDAE025
:1001C000DEBFCDBF14E0A0E0B1E0E0E4FBE602C09A
:1001D00005900D92A235B107D9F727E0A2E5B4E06A
:1001E00001C01D92A534B207E1F710E0CBEDD0E0DD
:1001F00004C02197FE010E94B132CA3DD107C9F760
:100200000E9463270C9493350C9400001F93CF93A6
:10021000DF93182FC0913005D09131058A3041F419
:10022000E881F9810190F081E02D6DE0CE01099522
:10023000E881F9810190F081E02D612FCE010995CF
:1002400021E030E0019711F430E020E0C901DF91B6
:10025000CF911F910895CF93DF93C0913005D09136
:100260003105E881F9810084F185E02DCE01099501
:10027000892BB9F3E881F9810284F385E02DCE0161
:10028000DF91CF910994FC01A089B18982E08C9320
:10029000A485B5851C92A685B7858FEC8C93108EAE
:1002A000A489B58986E08C93A289B3898C918061F9
:1002B0008C93A289B3898C9188608C93A289B3892D
:1002C0008C9180688C930288F389E02D80818F7DEA
:1002D000808308951092810010928500109284000E
:1002E000EFE6F0E080818D7F80838FEF90E0909348
:1002F00089008093880090938B0080938A001092ED
:1003000080001092EC040895E82FF0E0EE0FFF1F3C
:10031000E25FFE4F718360838230D9F028F4882336
:1003200041F0813071F008958330D9F0843009F1C3
:100330000895809169008C7F826080936900E89ABB
:10034000089580916900837F886080936900E99AAD
:100350000895809169008F7C806280936900EA9A99
:100360000895809169008F73806880936900EB9A8B
:10037000089580916A008F7C806280936A00EE9A73
:100380000895FC018091EB04882311F13FB7F894A4
:1003900082E08093E9002091F200822F90E018160D
:1003A000190614F481E090E0882339F0289844E697
:1003B0004093EA044091F1004083222339F02091D8
:1003C000F200211103C02BE62093E8003FBF0895FF
:1003D0008FEF9FEF08952FB7F89483E08093E900A3
:1003E0009091E800892F807295FF04C09091F200EF
:1003F00080E4891B2FBF08958091E20481110DC014
:1004000082E08093DE0484E08093DF041092E104B4
:100410001092E00481E08093E2048EED94E0089570
:100420004091D8045091D9042091D6043091D7043A
:1004300042175307B4F49091E8009570E1F390915E
:10044000E80092FD19C08093F1008091D80490914A
:10045000D90401968F739927892B19F48EEF809315
:10046000E8008091D8049091D90401969093D90422
:100470008093D80481E0089580E00895DF92EF92A0
:10048000FF920F931F93CF93DF93D82E8A01EB0136
:100490007B01E40EF51ECE15DF0559F0D7FE12C024
:1004A000FE0184910E94100221968111F4CF0FEF7A
:1004B0001FEFC801DF91CF911F910F91FF90EF9037
:1004C000DF9008958881EECF0F931F93CF93DF9332
:1004D0001F92CDB7DEB782E0898342E450E06FE33C
:1004E00071E080E80E943E020E94FC01DC0112964D
:1004F0000D911C910115110589F0D801ED91FC9128
:100500000280F381E02DBE016F5F7F4FC801099526
:1005100097FD04C0F80100851185ECCF89810F900B
:10052000DF91CF911F910F910895615030F020918C
:10053000F100FC0120830196F8CF289884E680938F
:10054000EA040895DC01ED91FC910190F081E02D29
:100550000994AF92BF92CF92DF92EF92FF920F93E6
:100560001F93CF93DF936C017B018B01040F151F49
:10057000EB015E01AE18BF08C017D10759F06991B1
:10058000D601ED91FC910190F081E02DC601099515
:10059000892B79F7C501DF91CF911F910F91FF90C2
:1005A000EF90DF90CF90BF90AF900895CF93C1E0D0
:1005B00020E030E0A901FC016789708D818D928D6A
:1005C0000E945230811101C0C0E08C2FCF9108955C
:1005D000FC01538D448D252F30E0842F90E0821B49
:1005E000930B541710F0CF96089501970895FC01CE
:1005F000918D828D981761F0A28DAE0FBF2FB11D26
:100600005D968C91928D9F5F9F73928F90E008957D
:100610008FEF9FEF0895FC01918D828D981731F037
:10062000828DE80FF11D858D90E008958FEF9FEF8B
:100630000895FC01918D228D892F90E0805C9F4F61
:10064000821B91098F739927089584EC95E00E948D
:10065000190321E0892B09F420E0822F089580E01E
:1006600090E0892B29F00E94250381110C94000051
:100670000895FC01A48DA80FB92FB11DA35ABF4F37
:100680002C91848D90E001968F739927848FA68991
:10069000B7892C93A089B1898C9182748C93938DA6
:1006A000848D981306C00288F389E02D80818F7DA8
:1006B00080830895EF92FF920F931F93CF93DF9360
:1006C000EC0181E0888F9B8D8C8D981319C0E8898F
:1006D000F989808185FF14C09FB7F894EE89FF895E
:1006E0006083E889F9898081827480839FBF81E07B
:1006F00090E0DF91CF911F910F91FF90EF900895BF
:10070000F62E0B8D10E00F5F1F4F0F731127E02E99
:100710008C8D8E110CC00FB607FCFACFE889F989D1
:10072000808185FFF5CFCE010E943903F1CFEB8D9B
:10073000EC0FFD2FF11DE35AFF4FF0829FB7F894A5
:100740000B8FEA89FB8980818062CFCFCF93DF93C3
:10075000EC01888D8823B9F0AA89BB89E889F989D9
:100760008C9185FD03C0808186FD0DC00FB607FC0E
:10077000F7CF8C9185FFF2CF808185FFEDCFCE0141
:100780000E943903E9CFDF91CF910895CF93DF9392
:100790001F92CDB7DEB76983DC01ED91FC91028039
:1007A000F381E02D41E050E0BE016F5F7F4F09957E
:1007B0000F90DF91CF91089583E08093E9008091BD
:1007C000F200882319F08AE38093E80008950E94DC
:1007D000EB0190E00895CF93DF931F92CDB7DEB782
:1007E000FC018485958597FD08C02FEF3FEF358785
:1007F00024870F90DF91CF910895CE0101960E943A
:10080000C101019719F4898190E0F3CF8FEF9FEF39
:10081000F0CF0F931F93CF93DF931F92CDB7DEB727
:100820008C01FC018485958597FF0BC0CE01019654
:100830000E94C101019771F4898190E0F8019587C8
:100840008487F801848595850F90DF91CF911F9162
:100850000F9108958FEF9FEFF1CFFC01848595856F
:1008600097FD0BC09FB7F89482E08093E9008091D8
:10087000F2009FBF90E0019608959FB7F89482E040
:100880008093E9008091F2009FBF90E0089581502D
:100890008F3008F047C0E82FF0E0EF5AFB4F0C9480
:1008A000B1326E047204600466046A049204920415
:1008B000920475047B047F048304890492048D04EC
:1008C000809180008F7780938000089580918000D0
:1008D0008F7DF9CF80918000877FF5CF84B58F77AA
:1008E00084BD089584B58F7DFBCF809190008F7774
:1008F000809390000895809190008F7DF9CF809132
:100900009000877FF5CF8091C0008F778093C000E3
:1009100008958091C0008F7DF9CF8091C200877FBC
:100920008093C2000895CF93DF93282F30E0F90120
:10093000EC5EFE4F8491F901EB50FF4FD491F90129
:10094000EA52FF4FC491CC23A1F081110E944704C9
:10095000EC2FF0E0EE0FFF1FE853FF4FA591B4918D
:10096000EC91ED2381E090E009F480E0DF91CF91FC
:10097000089580E090E0FACF1F93CF93DF93282F64
:1009800030E0F901EC5EFE4F8491F901EB50FF4F2E
:10099000D491F901EA52FF4FC491CC23A9F0162F4C
:1009A00081110E944704EC2FF0E0EE0FFF1FE65488
:1009B000FF4FA591B4918FB7F894EC91111108C035
:1009C000D095DE23DC938FBFDF91CF911F910895E7
:1009D000DE2BF8CFCF93DF9390E0FC01EB50FF4F7D
:1009E00024918A529F4FFC0184918823D1F090E09A
:1009F000880F991FFC01E455FF4FA591B491FC01AC
:100A0000E654FF4FC591D491623071F49FB7F894CA
:100A10003C91822F809583238C93E8812E2B288311
:100A20009FBFDF91CF9108958FB7F894EC912E2B53
:100A30002C938FBFF6CF3FB7F894809186049091A6
:100A40008704A0918804B091890426B5A89B05C0AD
:100A50002F3F19F00196A11DB11D3FBFBA2FA92F3D
:100A6000982F8827BC01CD01620F711D811D911D3A
:100A700042E0660F771F881F991F4A95D1F70895A6
:100A80008F929F92AF92BF92CF92DF92EF92FF929E
:100A90004B015C010E941B056B017C010E941B0540
:100AA0006C197D098E099F09683E73408105910587
:100AB000A8F321E0821A9108A108B10888EEC80EB7
:100AC00083E0D81EE11CF11C81149104A104B1043F
:100AD00029F7FF90EF90DF90CF90BF90AF909F905D
:100AE0008F9008958F929F92AF92BF92CF92DF9294
:100AF000EF92FF920F931F93CF93DF936C017B01D3
:100B00008A0180910D01882309F45CC08091EB0477
:100B1000882309F457C08091DC0480FF05C08091D0
:100B2000E00082608093E000E801B12C8AEFA82EFB
:100B300093E0892E2AE3922E209711F4BB20D9F15D
:100B40000E94EB0181110AC0AA94AA20D9F161E0A8
:100B500070E080E090E00E944005EECF8C171D060B
:100B600011F00CF08C2F9FB7F8948092E90020913F
:100B7000E80025FD02C09FBFDFCF282F30E0C21B59
:100B8000D30BF701815020F041914093F100FACF4F
:100B9000E20EF31EBB2021F09092E800B12CEBCFC7
:100BA0008091E80085FDE7CF9092E800BB24B394E4
:100BB000209709F3F3CF5D9884E68093DD04101647
:100BC00011063CF081E090E0F6019383828310E00F
:100BD00000E0C801DF91CF911F910F91FF90EF903E
:100BE000DF90CF90BF90AF909F908F900895089521
:100BF0000F931F93FC0184819581A681B781892B76
:100C00008A2B8B2BE9F08FB7F89440918204509196
:100C1000830460918404709185048FBF80819181E9
:100C2000A281B381481B590B6A0B7B0B81E00481C5
:100C3000158126813781401751076207730708F431
:100C400080E01F910F9108950F931F93EFB7F894D1
:100C500000918204109183042091840430918504D2
:100C6000EFBFFC01008311832283338344835583C8
:100C7000668377831F910F910895FC01248135814C
:100C8000232B11F01582148208958F929F92AF92B8
:100C9000BF92CF92DF92EF92FF92CF93DF93EC015E
:100CA000E881F9810484F585E02D09958823B9F15F
:100CB000E881F9810284F385E02DCE0109956B016D
:100CC0007C016F89788D898D9A8D9B01AC010E9482
:100CD000B6319B01AC0160E070E0CB010E94E52FD2
:100CE0004B015C016F8D78A189A19AA190589B015D
:100CF000AC010E94E62F9B01AC01C501B4010E942A
:100D000057300E94C930072E000C880B990BC60E75
:100D1000D71EE81EF91ECB86DC86ED86FE86DF91A7
:100D2000CF91FF90EF90DF90CF90BF90AF909F90CA
:100D30008F900895CF93DF93EC018F819885DC012C
:100D4000ED91FC910280F381E02D09951F8E18A290
:100D500019A21AA21F8A188E198E1A8E1A8619863F
:100D600061E08D810E94BC0460E08C810E94BC0423
:100D7000EFA1F8A5309719F0DF91CF910994DF9199
:100D8000CF910895FC0181850895DC011296ED91C3
:100D9000FC91648175818681978108952F923F929D
:100DA0004F925F926F927F928F929F92AF92BF927B
:100DB000CF92DF92EF92FF920F931F93CF93DF9327
:100DC000EC01EA80FB80F70184819581A681B781DF
:100DD0008A019B01081B190B2A0B3B0BD901C80187
:100DE0004B875C876D877E8701E010E01816190637
:100DF0001A061B0614F010E000E08827B7FD839563
:100E00009927AA27BB27081B190B1A870987D7011F
:100E10001A96CD90DC900C9DB0010D9D700D1C9D1F
:100E2000700D112490E080E00E94FF306B8F7C8F6A
:100E30008D8F9E8FB60190E080E00E94FF304B01C5
:100E40005C01F7016085718590E080E00E94FF30D1
:100E500020E030E04AE754E40E9457309B01AC01A7
:100E6000C501B4010E9457304B015C01B801110F5C
:100E7000880B990B0E9401319B01AC01C501B401A3
:100E80000E94B6316F8F78A389A39AA3D7011C96CD
:100E90008C9100E011E0882311F001E010E060E0A7
:100EA0008C810E94BC0489859A8597FF102F612F41
:100EB0008E810E94BC0460E08D810E94BC042FB72B
:100EC000F8948091820490918304A0918404B0915D
:100ED00085042FBF8F87988BA98BBA8BCF88D88C2E
:100EE000E98CFA8C20E030E0A901C701B6010E942C
:100EF000B13146015701181624F0B7FAB094B7F88B
:100F0000B0944BA05CA06DA07EA00F811885F80165
:100F100020803180A5019401C301B2010E94B1314A
:100F2000181674F569857A85072E000C880B990BC5
:100F30000E940131A30192010E94B6316B8B7C8B20
:100F40008D8B9E8B6F8B788F898F9A8FD101ED91CE
:100F5000FC919E01B301A201C801DF91CF911F91C5
:100F60000F91FF90EF90DF90CF90BF90AF909F9048
:100F70008F907F906F905F904F903F902F9009944B
:100F8000CB8ADC8AED8AFE8AD1011496ED91FC9120
:100F9000B501A401C801DF91CF911F910F91FF907E
:100FA000EF90DF90CF90BF90AF909F908F907F9009
:100FB0006F905F904F903F902F9009941F93CF9325
:100FC000DF93EC01162F8C810E94BC04EA81FB8127
:100FD0004481558166817781112391F089859A85B5
:100FE000092E000CAA0BBB0B840F951FA61FB71F61
:100FF00084839583A683B783DF91CF911F91089552
:101000008B859C85AD85BE85481759076A077B0788
:1010100099F7E881F9810280F381E02DCE01DF911B
:10102000CF911F910994CF92DF92EF92FF92CB0163
:10103000BA019A01AC010E94E62F6B017C0120E00D
:1010400034E244E75BE40E94B13118161CF120E061
:1010500030E044E753E4C701B6010E94523087FFF5
:1010600006C0C12CD12C94E7E92E93E4F92EA701F8
:10107000960160E074E284E79BE40E9457300E948E
:10108000D0307093010160930001FF90EF90DF90EA
:10109000CF900895C12C84E2D82E84E7E82E8BE40B
:1010A000F82EE5CF30937104209370041092EC0475
:1010B0000E94130880910001909101019093890092
:1010C0008093880010928500109284001092800016
:1010D00089E080938100EFE6F0E080818260808388
:1010E00008950C946A01FF920F931F93CF93DF939F
:1010F0008C01EB016F3F7607B9F0F62EEAE06E1334
:1011000006C06DE0F801808991890E94A2026F2DCE
:10111000F801808991890E94A202CE01DF91CF91CE
:101120001F910F91FF900895D0E0C0E0F6CF7F921D
:101130008F929F92AF92BF92CF92DF92EF92FF92E7
:101140000F931F93CF93DF938C0149015A01EB0159
:10115000C12CD12C7601C814D904EA04FB04B4F4E0
:1011600079908AE0781206C06DE0F8018089918953
:101170000E94A202672DF801808991890E94A20233
:10118000FFEFCF1ADF0AEF0AFF0AE5CFC501B4016E
:10119000DF91CF911F910F91FF90EF90DF90CF9053
:1011A000BF90AF909F908F907F900895CF93DF93E3
:1011B000EC0188899989DC01ED91FC910084F1852D
:1011C000E02D0995892BA9F388899989DC01ED9196
:1011D000FC910284F385E02DDF91CF910994CF93A8
:1011E000DF93EC0188899989DC01ED91FC91008401
:1011F000F185E02D0995892BA9F388899989DC016E
:10120000ED91FC910484F585E02DDF91CF91099457
:101210008F929F92AF92BF92CF92DF92EF92FF9206
:101220000F931F93CF93DF938C0149015A01EB0178
:10123000C12CD12C7601D80150968D919C91DC0166
:10124000ED91FC910284F385E02D09958F3F61F0CB
:10125000C814D904EA04FB043CF48993BFEFCB1A09
:10126000DB0AEB0AFB0AE7CFC701B601DF91CF919A
:101270001F910F91FF90EF90DF90CF90BF90AF90B4
:101280009F908F900895DC0150968D919C91DC0188
:10129000ED91FC910084F185E02D0994DC01ED9144
:1012A000FC9136970190F081E02DE80FF91F83E75C
:1012B00092E0918380838DE792E0978386830895FF
:1012C00023E732E0FC01318320832DE732E03783CE
:1012D00026830895FB0120813181FC013183208325
:1012E000FB014281538126503109F901208131816E
:1012F000820F931FFC015183408308952FE832E051
:10130000FC013183208329E932E0318F208F63E8AB
:1013100072E00C946A09DC01ED91FC913697208112
:101320003181820F931F0C947E090895089540E146
:1013300057E260E070E088E295E00C94240608959E
:10134000CF93DF93EC0181E0888389838DE0EEE128
:10135000F1E0DE01129601900D928A95E1F78AE0A4
:101360008F8788EB888B8BE0898B1A8A1B8A1C8A73
:101370001D8A1E8A1F8A198E188E80E38A8F85E740
:101380008B8F1C8E1D8E1E8E1F8E18A219A2DF91B0
:10139000CF910895CF92DF92EF92FF92CF93DF9398
:1013A000C0918405D091850520E030E0A9016F89C6
:1013B000788D898D9A8D0E94B131181684F5E88157
:1013C000F9810284F385E02DCE0109956B017C0142
:1013D00020E2C20E23E0D21EE11CF11C80918405A4
:1013E00090918505DC01ED91FC910084F185E02D63
:1013F000B701A6010995E0918405F0918505028069
:10140000F381E02D80819181A281B381C816D90634
:10141000EA06FB0624F4C082D182E282F382DF91E5
:10142000CF91FF90EF90DF90CF900895CF93DF930F
:10143000C0918405D091850520E030E0A9016F8935
:10144000788D898D9A8D0E94523087FF0FC0EA8176
:10145000FB811482158216821782E881F98104804B
:10146000F581E02DCE01DF91CF910994DF91CF91ED
:101470000895CB010895CF93DF93EC01E881F981C2
:101480000288F389E02D09958F3F980731F02D816F
:101490003E812F5F3F4F3E832D83DF91CF91089593
:1014A0008FEF9FEF089560E070E0CB01089590E02A
:1014B00080E0089590E080E0089590E080E0089555
:1014C000FC018789908D009739F024893589281788
:1014D000390728F4308F278B6FEF7FEF08C0019713
:1014E0006F3F760731F4908F878B70E060E0CB011F
:1014F0000895A089B189A80FB91F9B012150310916
:101500002F3F310538F4262F3C91321305C0908FC0
:10151000878BEDCF20E0F8CF278524FFDDCF908F9C
:10152000878B6C93E4CFCF93DF93EC01E881F98153
:101530000288F389E02D09958F3F980731F02F89B4
:10154000388D2F5F3F4F388F2F8BDF91CF910895CC
:10155000DC0157968D919C91589754962D913C9112
:1015600055978217930740F45096ED91FC91E80F40
:10157000F91F808190E008958FEF9FEF0895EF921B
:10158000FF92CF93DF93FC01DB0160E070E0CB01C1
:10159000E788F08CC489D589EC16FD06A8F462179B
:1015A00073078407950784F4C089D189CE0DDF1DA8
:1015B000C881CD936F5F7F4F8F4F9F4FC789D08D6D
:1015C0002196D08FC78BE4CFDF91CF91FF90EF9022
:1015D0000895FC01848995892789308D821B930B9E
:1015E0000895242FDC01ED91FC910084F185E02D1C
:1015F00041E009940895089590E080E008950895E9
:101600001F93CF93DF93EC01162F8F8580FF0BC0C4
:10161000E881F9810084F185E02D20E144E070E06B
:1016200060E0CE010995EB85FC85812F90E02D854A
:101630003E85E217F30758F410832B853C852F5F16
:101640003F4F3C872B87DF91CF911F910895E88111
:10165000F981028CF38DE02DBC01CE01DF91CF9199
:101660001F9109948F929F92AF92BF92CF92DF9277
:10167000EF92FF920F931F93CF93DF938C01490159
:101680005A01EB01C12CD12C7601C814D904EA040B
:10169000FB0464F46991C8010E94000B019641F0BB
:1016A0008FEFC81AD80AE80AF80AEFCF750164016B
:1016B000C701B601DF91CF911F910F91FF90EF907D
:1016C000DF90CF90BF90AF909F908F9008958F92B2
:1016D0009F92AF92BF92EF92FF920F931F93CF937F
:1016E000DF93EC017B0149015A01E881F9813697CA
:1016F0000190F081E02DE80FF91F03891489D801CA
:101700001F968C911F9780FF0BC0ED91FC91008478
:10171000F185E02D20E144E070E060E0C80109952A
:10172000D801ED91FC91008CF18DE02DA501940183
:10173000B701C80109956F3F7F4F79F4E881F981BE
:1017400036970190F081E02DEC0FFD1F85812389F4
:101750003489232B71F082608583CE01DF91CF9194
:101760001F910F91FF90EF90BF90AF909F908F903F
:1017700008958360F1CFFB012481358150E040E082
:10178000608171810C94670BDC01ED91FC913697BF
:101790000190F081E02DE80FF91F8DE991E0918330
:1017A000808387EA91E09383828308952DE931E075
:1017B000FC013183208327EA31E0338322830895BB
:1017C000FB0120813181FC0131832083FB014281B7
:1017D000538126503109F90120813181820F931FF5
:1017E000FC015183408308952BEA32E0FC013183F0
:1017F000208325EB32E0358B248B6FE972E00C946B
:10180000E00BDC01ED91FC91369720813181820F54
:10181000931F0C94F40B0895FC0181E290E09483F3
:10182000838315821682178286E090E0A0E0B0E004
:1018300080879187A287B3871486158616861786B8
:1018400083E991E09183808380E2808B128A118A00
:10185000748B638B158A0895CF93DF93EC01E88135
:10186000F98136970190F081E02DE80FF91F838907
:101870009489DC01ED91FC910484F585E02D0995B6
:10188000019659F4E881F98136970190F081E02DB5
:10189000EC0FFD1F858181608583CE01DF91CF91A3
:1018A0000895CF93DF93EC01E881F9813697019099
:1018B000F081E02DE80FF91F838994890E94000BC5
:1018C000019679F4E881F98136970190F081E02D55
:1018D000EC0FFD1F858123893489232B31F0826031
:1018E0008583CE01DF91CF9108958360F9CF4F9228
:1018F0005F926F927F928F929F92AF92BF92CF92A0
:10190000DF92EF92FF920F931F93CF93DF93EC013F
:101910008B0129013A01E881F98136970190F08124
:10192000E02D3296E80FF91FC284D384E484F58455
:10193000C418D508E608F708818192818E7099272E
:10194000049791F446015701181419041A041B0452
:10195000B4F1D701C601F7FE03C080E090E0DC01DE
:10196000C81AD90AEA0AFB0AA3019201B801CE01FA
:101970000E94670BE881F98136970190F081E02D94
:10198000EC0FFD1F838194818E709927029749F592
:10199000E881F98136970190F081E02D1C141D0437
:1019A0001E041F04F4F481E0C81AD108E108F1080C
:1019B000EC0FFD1F6089CE010E94510CE9CF81E040
:1019C000881A9108A108B108E881F9813697019039
:1019D000F081E02DEC0FFD1F6089CE010E94510CBB
:1019E000B3CFE881F981369780819181C80FD91FE3
:1019F0001C861D861E861F86DF91CF911F910F9139
:101A0000FF90EF90DF90CF90BF90AF909F908F901E
:101A10007F906F905F904F90089521E0DC012C93B0
:101A2000DB01ED91FC91369780819181680F791FE0
:101A3000FB0181899289009711F00C942C0C089578
:101A4000FF920F931F93CF93DF931F92CDB7DEB713
:101A50008C01F62EBC01CE0101960E940D0DD8011D
:101A6000ED91FC9136970190F081E02DE00FF11F90
:101A7000838184FF29C024E030E040E050E06CE145
:101A800073E0F11006C025E030E040E050E061E294
:101A900073E0C8010E94770CD801ED91FC91369754
:101AA0000190F081E02DE00FF11F8381948196FF7A
:101AB00003C0C8010E942C0CC8010F90DF91CF9188
:101AC0001F910F91FF90089521E030E040E050E039
:101AD00067E273E0F110DDCF69E273E0DACFFF92E5
:101AE0000F931F93CF93DF931F92CDB7DEB78C0177
:101AF000F62EBC01CE0101960E940D0D6F2DC8017E
:101B00000E94510CC8010F90DF91CF911F910F914E
:101B1000FF9008950F931F93CF93DF931F92CDB73C
:101B2000DEB78C01BC01CE0101960E940D0D6AE06A
:101B3000C8010E94510CC8010E942C0CC8010F90D2
:101B4000DF91CF911F910F9108958038C9F08A38A5
:101B500011F58091C0059091C105E091B705F09114
:101B6000B8050280F381E02D0190F081E02D6081C5
:101B700070E0DC01ED91FC910088F189E02D099481
:101B80008091C0059091C105DC01ED91FC91068426
:101B9000F785E02DF4CF089508950895CF93DF934E
:101BA00040912C0550912D0560912E0570912F05C7
:101BB000452B462B472BC1F0EC0188E295E00E94B3
:101BC000F805882389F010922C0510922D051092AB
:101BD0002E0510922F05E881F9810488F589E02D02
:101BE000CE01DF91CF910994DF91CF910895CF92EB
:101BF000DF92EF92FF920F931F93FB01DC0100E055
:101C000010E098016A01F12CE12C0C151D052E0540
:101C10003F0538F461916D930F5F1F4F2F4F3F4F7A
:101C2000F4CF840F951F1F910F91FF90EF90DF90DD
:101C3000CF900895DB012D913C911197FC013183E8
:101C4000208312966D917C9126503109D901ED9136
:101C5000FC91E80FF91F7183608381E290E0948327
:101C60008383548B438B1582158A0895CF93DF931A
:101C7000EC010E94F40BCE01DF91CF910C94912ED8
:101C8000DC01ED91FC91369720813181820F931F09
:101C90000C94360ECF93DF93EC010E947E09CE01A7
:101CA000DF91CF910C94912EDC01ED91FC91369750
:101CB00020813181820F931F0C944A0E0C94912E37
:101CC000DC01ED91FC91369720813181820F931FC9
:101CD0000C945E0E0C94912E0C94912E0C94912EDB
:101CE0000C94912E0C94912E0C94912E0C94912E78
:101CF0000C94912E0C94912EDC01ED91FC91369771
:101D000020813181820F931F0C947A0E0C94912EB6
:101D1000FC01808191810C94912E2FEA31E0FC012D
:101D20003183208340960C94880ECF93DF93EC018F
:101D30000E948D0ECE01DF91CF910C94912ECF9306
:101D4000DF93EC0181E891E0998388838BE891E04F
:101D50009E8F8D8FCE0102960E948D0E65E771E0F9
:101D6000CE01DF91CF910C94E00BDC01ED91FC9161
:101D7000369720813181820F931F0C949F0ECF9351
:101D8000DF93EC010E949F0ECE01DF91CF910C9466
:101D9000912EDC01ED91FC91369720813181820FEB
:101DA000931F0C94BF0ECF93DF93EC0188E090E07B
:101DB0009B838A831D821C820E94F52D99838883D0
:101DC000DF91CF9108950F931F93CF93DF93EC0191
:101DD0008C010E5F1F4FB8014D960E940C0CA8019C
:101DE00065E771E0CE010E941A0E81E891E09983C7
:101DF00088838BE891E09E8F8D8F1E821D821886CE
:101E00001F821A8619861C861B861E861D86188AC6
:101E10001F86198A8FEA91E09B838A83CE014296BE
:101E20000E94D30E1A8E198E1C8E1B8E80E1898B18
:101E3000DF91CF911F910F910895CF93DF93D091B0
:101E40008805C091890590938B0580938A05880F3A
:101E5000991F0E94F52D8093880590938905209104
:101E60008C0530918D05FC01AD2FBC2F90E080E0FA
:101E70002817390759F0309729F04D915C91119747
:101E800051834083019632961296F2CF8D2F9C2F6C
:101E9000DF91CF910C94912E0F931F93CF93DF93EB
:101EA000EC018B0120918A0530918B0528173907A9
:101EB00030F408962817390710F40E941D0F8091FE
:101EC0008C0590918D059C01220F331FE0918805B0
:101ED000F0918905E20FF31F8C179D0750F430979E
:101EE00029F0D8012D913C913183208301963296BF
:101EF000F3CFD0938D05C0938C05DF91CF911F91C7
:101F00000F9108950F931F93CF93DF9300D0CDB718
:101F1000DEB79A83898388E895E00E943D0610E049
:101F200000E0209191053091920502171307B4F457
:101F300020918C0530918D05C9010196281739072C
:101F400040F4BE016F5F7F4F0E944C0F0F5F1F4F29
:101F5000E8CF10928D0510928C05F8CF89819A8177
:101F6000289FA001299F500D389F500D1124509398
:101F7000900540938F0590939805809397050F9057
:101F80000F90DF91CF911F910F9108950F931F93A1
:101F9000CF938C01C62F8091790481112FC08CE0E2
:101FA00090E0909375048093740484E090E09093A3
:101FB0007704809376048CE090E00E94F52D909356
:101FC000730480937204E7E6F1E0CF0187569140F5
:101FD000A0917204B091730420917604309177043B
:101FE0008217930740F4A80FB91F109711F0808152
:101FF0008C933196EACF81E080937904E09172046A
:10200000F091730480917604909177048E0F9F1F56
:10201000E817F90758F421912C13FACF80E2C8276A
:102020006DE7F801808191810E94A2026C2FF80176
:1020300080819181CF911F910F910C94A202AF9258
:10204000BF92CF92DF92EF92FF920F931F93CF93A5
:10205000DF9300D000D000D01F92CDB7DEB78C0147
:102060006B01DC0118968D919C919E838D8308965F
:102070009C838B830E94F52D9A83898390E080E076
:102080002D813E818217930788F4E981FA81E80F58
:10209000F91F309749F0D80114962D913C91D90140
:1020A000A80FB91F2C9120830196EACFF601E48096
:1020B000F580FBE0EF0EF11C6EE7D8018D919C914D
:1020C0000E94A2026F2DC8010E94C60F6E2DC8018A
:1020D0000E94C60F60E0C8010E94C60FF801F68496
:1020E000F394FF20F1F0F6866F2DC8010E94C60F11
:1020F000F801A480B580D80114968D919C91159714
:1021000018962D913C91820F931FA816B90670F472
:10211000F501E1905F016E2DC8010E94C60FFE0C13
:10212000EACF81E08687FF24F394DECF60E0C80128
:102130000E94C60FD601AD90BC90F60180819181BE
:1021400024813581820F931FA816B90648F4D50162
:10215000ED905D016E2DC8010E94C60FFE0CEDCF03
:102160006F2D6095C8010E94C60FCE0101960E9496
:10217000880E27960FB6F894DEBF0FBECDBFDF9155
:10218000CF911F910F91FF90EF90DF90CF90BF9074
:10219000AF9008950F931F93CF93DF93EC01CB0182
:1021A000088119817B836A830E94F52D9983888336
:1021B000F801CF01801B910B2C813D818217930781
:1021C00050F4A881B981A80FB91F109711F0808130
:1021D0008C933196EECFC801DF91CF911F910F9173
:1021E0000C94912EEF92FF920F931F93CF93DF9356
:1021F000EC018C819D818617970740F57A018B0150
:102200008A819B818617970740F4685F7F4F861706
:10221000970718F4CE010E94CA108C819D81801707
:10222000910758F4E881F981E80FF91F309719F008
:10223000D7012C9120830196F2CF1D830C83DF916F
:10224000CF911F910F91FF90EF9008956817790734
:10225000B0F77D836C83F3CFAF92BF92CF92DF92C2
:10226000EF92FF920F931F93CF93DF931F92CDB7FF
:10227000DEB78C0159016A01AC14BD04D1F1F6013D
:1022800081916F018983F801808191817B01E81A36
:10229000F90A648175816F5F7F4FAE014F5F5F4FB9
:1022A000C8010E94F210F8012481358121503109C2
:1022B000F80180819181E216F30668F4A90141508A
:1022C0005109FC01E40FF51F6081820F931FFC018F
:1022D00060839A01EDCF29818E0D9F1DFC01208323
:1022E000FFEFEF1AFF0AF801608171816E0D7F1D0B
:1022F000C3CF0F90DF91CF911F910F91FF90EF907F
:10230000DF90CF90BF90AF900895EF92FF920F9320
:102310001F93CF93DF931F92CDB7DEB78C017B0164
:102320000E943D06F701648175811982AE014F5FFD
:102330005F4FC8010E94F210F7014481558160810E
:102340007181F801808191810E94F70D0F90DF91DA
:10235000CF911F910F91FF90EF900895CF93DF934E
:10236000EC0142966817790711F00E9485111A8EC8
:10237000198E898981FF13C08E899F899C8F8B8FCD
:10238000E881F981369780819181C80FD91F8B89A7
:102390009C89892B39F01D82DF91CF9108951C8E85
:1023A0001B8EEECF81E08D83F7CFEF92FF920F93DC
:1023B0001F93CF93DF931F92CDB7DEB7FC01822F1F
:1023C0008870922F90712871283131F4423009F0D1
:1023D0003FC08FEF9FEF23C0413049F58B01248927
:1023E000358920173107A8F3882311F0108F078B48
:1023F0009923A1F07F011982AE014F5F5F4FB801B1
:10240000CF0140960E94F210F701848995892789AF
:10241000308D8217930710F4908F878BC8010F902F
:10242000DF91CF911F910F91FF90EF90089542306F
:1024300089F404891589060F171F911102C010E055
:1024400000E0882361F20789108D060F171FC7CFA0
:10245000413021F204891589F8CFAB01FC01648178
:1024600075816F5F7F4F0C94F210EF92FF920F9384
:102470001F93CF93DF931F92CDB7DEB78C017B0103
:102480006F3F760779F1D8011F968C911F9784FFD3
:102490002CC059968D919C915A9754962D913C91B0
:1024A000559782179307B8F06983BE016F5F7F4F1E
:1024B000C80140960E942D12F801818D928D0196DF
:1024C000928F818FC7010F90DF91CF911F910F9154
:1024D000FF90EF9008955096ED91FC91E80FF91F51
:1024E0006083EACFF12CE12CEDCFEE24EA94FE2CB0
:1024F000E9CF0F931F93CF93DF93EC01CB010881BA
:1025000019817B836A830E94F52D99838883F80162
:10251000CF01801B910B2C813D818217930750F4D2
:10252000A881B981A80FB91F109711F080818C93F1
:102530003196EECFC801DF91CF911F910F910C948E
:10254000912EEF92FF920F931F93CF93DF93EC01A5
:102550008B017A018A819B818617970740F4685F17
:102560007F4F8617970718F4CE010E9479128C814D
:102570009D818017910758F4E881F981E80FF91FD0
:10258000309719F0D7012C9120830196F2CF1D834B
:102590000C83DF91CF911F910F91FF90EF900895E1
:1025A000AF92BF92CF92DF92EF92FF921F93CF93A1
:1025B000DF93EC017B016C0184E0C80ED11CC601E5
:1025C0000E943D0619E01150A9F057018FEFA81A9B
:1025D000B80A88859985BC016F5F7F4F861797077A
:1025E00030F4A701C6010E94A1127501ECCF198633
:1025F0001886FBCFDF91CF911F91FF90EF90DF9076
:10260000CF90BF90AF9008950F931F93CF93DF9318
:1026100000D000D000D01F92CDB7DEB78C0180E192
:1026200090E09C838B8388E090E09E838D8380E1A3
:1026300090E00E94F52D9A838983EBE6F1E0CF01CB
:102640008B56914069817A812D813E818217930753
:1026500050F4680F791F6115710519F08081DB0155
:102660008C933196ECCFC8010E94D012CE01019616
:102670000E94880E27960FB6F894DEBF0FBECDBF1E
:10268000DF91CF911F910F910895CF93DF93EC01CC
:102690008A819B810E940413EA81FB8181E0858706
:1026A000C281D3811D821C828A819B810E943D064A
:1026B0001E821F82198618868FEF8A8740E25EE4A9
:1026C00060E070E088E295E0DF91CF910C94240601
:1026D000CF93DF93EC018A819B810E940413EA81EE
:1026E000FB811586808191810E94430148E853E176
:1026F00060E070E088E295E0DF91CF910C942406D1
:10270000EF92FF920F931F93CF93DF931F92CDB75A
:10271000DEB78C017B010E94D30EF70164817581C5
:102720001982AE014F5F5F4FC8010E94F210F8019D
:1027300044815581F70160817181F8018081918127
:102740000E94F70D0F90DF91CF911F910F91FF9095
:10275000EF9008950F931F93CF93DF93CDB7DEB71C
:10276000EB970FB6F894DEBF0FBECDBF8C0160E1D2
:10277000CE0101960E94E30E6AED76E0CE0101964D
:102780000E94BB0BB8010E94BB0B63ED76E00E9478
:10279000BB0B0091B3051091B405AE01455C5F4FD2
:1027A000BE016D5E7F4FCE01C4960E948013BE01B4
:1027B0006C5C7F4FC8010E941F10CE01C4960E941E
:1027C000880EAE01455C5F4FBE016D5E7F4FCE014E
:1027D000C4960E948013BE016C5C7F4F81EE96E030
:1027E0000E94BB0B0E948A0DCE01C4960E94880EE7
:1027F000CE0101960E949F0EEB960FB6F894DEBFB5
:102800000FBECDBFDF91CF911F910F910895EF9231
:10281000FF920F931F93CF93DF93CDB7DEB7E4976B
:102820000FB6F894DEBF0FBECDBF8C017B0160E117
:10283000CE0101960E94E30EB701695F7F4FCE0182
:1028400001960E94BB0BF70166850E946F0DAE01D9
:102850004C5C5F4FBE016D5E7F4FC8010E948013CC
:10286000CE0101960E949F0EC801E4960FB6F8941F
:10287000DEBF0FBECDBFDF91CF911F910F91FF90B3
:10288000EF900895CF92DF92EF92FF920F931F93F4
:10289000CF93DF931F92CDB7DEB78C017B016A0126
:1028A0000E94D30E8FEFC816D80611F40E94B732DB
:1028B000F7018081181684F41982AE014F5F5F4FD3
:1028C000B601C8010E94F210F80144815581B70198
:1028D000808191810E94F70D0F90DF91CF911F9120
:1028E0000F91FF90EF90DF90CF900895AF92BF923D
:1028F000CF92DF92EF92FF920F931F93CF93DF93CC
:102900001F92CDB7DEB77C016B01FB010190002067
:10291000E9F731978F01061B170BFC01A480B580E6
:102920001982B501600F711FAE014F5F5F4F0E94AA
:10293000F210F70180819181A801B6018A0D9B1DDB
:102940000E94F70DC7010F90DF91CF911F910F915A
:10295000FF90EF90DF90CF90BF90AF9008950F93CE
:102960001F93CF93DF9300D0CDB7DEB78C0180915A
:102970006804811107C081E694E00E94D30E81E0D3
:102980008093680481E694E00E943D066DE373E065
:1029900081E694E00E947614D8011696ED91FC91A0
:1029A000179714968D919C9115979C012F5F3F4F1F
:1029B00015963C932E931497E80FF91F80818A8314
:1029C0008823C1F18C3271F58DE08983BE016F5F80
:1029D0007F4F81E694E00E942D12D8011296ED916E
:1029E000FC918081918140916504509166046091D1
:1029F000610470916204DC01ED91FC910280F3812D
:102A0000E02D099548E853E160E070E088E295E048
:102A10000E94240681E00F900F90DF91CF911F91CB
:102A20000F910895BE016E5F7F4F81E694E00E9492
:102A30002D12B2CF80E0EFCF0C94AF14EF92FF9243
:102A40000F931F93CF93DF931F92CDB7DEB78C0107
:102A50007B01BC01CE0101960E940D0DF701019092
:102A60000020E9F73197EE19FF099F0150E040E09F
:102A7000B701C8010E94770CC8010F90DF91CF9178
:102A80001F910F91FF90EF900895CF92DF92EF92F8
:102A9000FF920F931F93CF93DF9300D000D000D00D
:102AA0001F92CDB7DEB77C018B016BE273E081EE44
:102AB00096E00E941E156C01D801ED91FC910480F6
:102AC000F581E02DB801CE0101960995BE016F5F39
:102AD0007F4FC6010E94BB0B0E948A0DCE0101965A
:102AE0000E94880EF701838594850097B1F0DC0180
:102AF000ED91FC910084F185E02D0995F701838526
:102B000094858017910749F0009739F0DC01ED9129
:102B1000FC910280F381E02D0995F701148703876A
:102B2000D801ED91FC910284F385E02DC80109954F
:102B300027960FB6F894DEBF0FBECDBFDF91CF91C1
:102B40001F910F91FF90EF90DF90CF900895CF935A
:102B5000DF93FC01C281D38184E090E00E94F52DD7
:102B6000FC01D383C2832DE132E031832083BC0199
:102B7000CE01DF91CF910C944515CF93DF93FC01EB
:102B8000C281D38184E090E00E94F52DFC01D383C3
:102B9000C2832DEB32E031832083BC01CE01DF9173
:102BA000CF910C9445150F931F93CF93DF93EC01B6
:102BB0008B0140E25EE460E070E088E295E00E9414
:102BC000240602301105B1F40A80DB81C02D84E0B7
:102BD00090E00E94F52DFC01D383C28323E032E014
:102BE00031832083BC01CE01DF91CF911F910F91E2
:102BF0000C944515DF91CF911F910F910895CF93BC
:102C0000DF93FC01C281D38184E090E00E94F52D26
:102C1000FC01D383C2832DE132E031832083BC01E8
:102C2000CE01DF91CF910C944515CF93DF93FC013A
:102C3000C281D38184E090E00E94F52DFC01D38312
:102C4000C28323E032E031832083BC01CE01DF91D7
:102C5000CF910C944515CF93DF93FC01C281D381B2
:102C600084E090E00E94F52DFC01D383C2832DEB1C
:102C700032E031832083BC01CE01DF91CF910C94EF
:102C80004515AF92BF92CF92DF92EF92FF920F93D2
:102C90001F93CF93DF931F92CDB7DEB77C016B01FB
:102CA0000E94D30EF60101900020E9F731978F01C1
:102CB0000C191D09F701A480B5801982B8016A0DAD
:102CC0007B1DAE014F5F5F4FC7010E94F210F701FD
:102CD00080819181A801B6018A0D9B1D0E94F70D8C
:102CE0000F90DF91CF911F910F91FF90EF90DF90A8
:102CF000CF90BF90AF900895CF93DF93CDB7DEB75D
:102D000028970FB6F894DEBF0FBECDBFAE01485F67
:102D10005F4F60E373E0CE0101960E944116CE0141
:102D200001960E94AA13CE0101960E94880E289651
:102D30000FB6F894DEBF0FBECDBFDF91CF910895DF
:102D4000CF93DF93CDB7DEB728970FB6F894DEBFE9
:102D50000FBECDBFAE01485F5F4F6CE474E0CE01A3
:102D600001960E944116CE0101960E94AA13CE013F
:102D700001960E94880E28960FB6F894DEBF0FBE0B
:102D8000CDBFDF91CF9108950F931F93CF93DF9322
:102D9000CDB7DEB728970FB6F894DEBF0FBECDBF14
:102DA0008C01DC011296ED91FC9115868081918158
:102DB0000E944301F80102811381AE01485F5F4F19
:102DC00065E373E0CE0101960E944116D8018D9112
:102DD0009C914D815E8169817A81DC01ED91FC914C
:102DE0000280F381E02D0995CE0101960E94880EA4
:102DF0004CED55E060E070E088E295E00E9424062A
:102E000028960FB6F894DEBF0FBECDBFDF91CF91ED
:102E10001F910F9108950F931F93CF93DF931F92EC
:102E2000CDB7DEB78C01AE014F5F5F4F69E373E052
:102E30000E944116C8010F90DF91CF911F910F9111
:102E400008950F931F93CF93DF931F92CDB7DEB7F3
:102E50008C01AE014F5F5F4F60E473E00E9441164A
:102E6000C8010F90DF91CF911F910F9108950F939B
:102E70001F93CF93DF931F92CDB7DEB78C01AE01C6
:102E80004F5F5F4F6EE473E00E944116C8010F90E0
:102E9000DF91CF911F910F9108950F931F93CF93BF
:102EA000DF931F92CDB7DEB78C0148E853E160E0B5
:102EB00070E088E295E00E94240680915904811117
:102EC0000CC0AE014F5F5F4F65E573E082E594E0B3
:102ED0000E94411681E08093590462E574E0F80194
:102EE000828193810E941F100F90DF91CF911F91DB
:102EF0000F9108950F931F93CF93DF931F92CDB738
:102F0000DEB78C01AE014F5F5F4F6CE573E00E944E
:102F10004116C8010F90DF91CF911F910F91089535
:102F20000F931F93CF93DF931F92CDB7DEB78C0122
:102F3000AE014F5F5F4F63E673E00E944116C80128
:102F40000F90DF91CF911F910F9108950F931F93D1
:102F5000CF93DF931F92CDB7DEB78C01AE014F5FE9
:102F60005F4F6EE673E00E944116C8010F90DF913B
:102F7000CF911F910F9108952F923F924F925F92A0
:102F80006F927F928F929F92AF92BF92CF92DF9279
:102F9000EF92FF920F931F93CF93DF9300D000D057
:102FA000CDB7DEB79C838B83DC01ED91FC9104846B
:102FB000F585E02D0995882309F408C12FB7F89409
:102FC00060918204709183048091840490918504BF
:102FD0002FBFEB81FC81878C90A0A1A0B2A00785B8
:102FE000108921893289601B710B820B930B0E941F
:102FF000FF3020E030E04AE754E40E945730A5015A
:1030000094010E94B631AB81BC8153962D913D91C4
:103010004D915C9156970E94E62F6B017C01EB81EC
:10302000FC810280F381E02DFA83E983448055809E
:1030300066807780AB81BC8193963C909397949601
:103040002C90949795960C91959796961C9196979F
:103050001B966D917D918D919C911E9764197509B8
:103060008609970997FF07C090958095709561959F
:103070007F4F8F4F9F4F0E94FF302B013C01C501B6
:10308000B4019F779B01AC010E94E62F9B01AC012C
:10309000C301B2010E94B6314B015C01232D322DD8
:1030A000A801632D722DC8010E94B6319B01AC01AD
:1030B000C501B4010E94E62F0E9429324B015C0138
:1030C000EB81FC8161857285072E000C880B990BC2
:1030D0000E9401312B013C01AC019B01C501B401EF
:1030E0000E94B6314B015C0120E030E0A901C7012C
:1030F000B6010E94B131181624F0F7FAF094F7F8EF
:10310000F09420E030E0A901C501B4010E94B13182
:10311000181624F0B7FAB094B7F8B094A50194014A
:10312000C701B6010E94523087FD02C075016401DB
:10313000232D322DA801C701B6010E94523087FD10
:1031400042C0A981BA811A966D917C9190E080E08D
:103150000E94FF305B018C019B01AC01C701B601ED
:103160000E94B131181614F465017801A30192018F
:10317000C701B6010E94B631EB81FC81678B708F6D
:10318000818F928F87819085DC01ED91FC91048085
:10319000F581E02DB701A6010F900F900F900F90D1
:1031A000DF91CF911F910F91FF90EF90DF90CF9023
:1031B000BF90AF909F908F907F906F905F904F9057
:1031C0003F902F900994C32CD22CCFCF0F900F900B
:1031D0000F900F90DF91CF911F910F91FF90EF9083
:1031E000DF90CF90BF90AF909F908F907F906F9027
:1031F0005F904F903F902F9008950F931F93CF9320
:10320000DF93FC0104811581FB01C481D581A801F4
:10321000C017D10708F4AE01FB0160817181FC0188
:10322000808191810E94CE32892B31F081E0DF9143
:10323000CF911F910F91089581E00C171D07B9F7E9
:1032400080E0F5CFEF92FF920F931F93CF93DF9320
:10325000CDB7DEB728970FB6F894DEBF0FBECDBF4F
:103260008C017B01AE01485F5F4F64E773E0CE01E4
:1032700001960E944116BE016F5F7F4FC7010E94F9
:10328000FD18F82ECE0101960E94880EFF2091F0C5
:10329000F801E280F38084E090E00E94F52DFC01CB
:1032A000F382E2822DEB32E031832083BC01C7013F
:1032B0000E944515C8010E94AF14811112C0F80187
:1032C0000281138184E090E00E94F52DFC011383BC
:1032D000028329EE31E031832083BC01C8010E94C2
:1032E000451528960FB6F894DEBF0FBECDBFDF910F
:1032F000CF911F910F91FF90EF900895EF92FF9261
:103300000F931F93CF93DF93CDB7DEB728970FB6F8
:10331000F894DEBF0FBECDBF8C017B01AE01485FCC
:103320005F4F64E773E0CE0101960E944116BE0133
:103330006F5F7F4FC7010E94FD18F82ECE010196E6
:103340000E94880EF11018C0F8010281138188E0F4
:1033500090E00E94F52DFC011383028387E392E045
:103360009183808387E793E0978386831582148215
:10337000BF01C8010E94451528960FB6F894DEBF1C
:103380000FBECDBFDF91CF911F910F91FF90EF90B6
:1033900008950F931F93CF93DF93EB0109900020C3
:1033A000E9F72197C61BD70BFC0104811581A80101
:1033B000C017D10708F4AE01FC01808191810E9401
:1033C000CE32009769F481E090E0C017D10740F059
:1033D0000C171D0710F090E080E091958195910900
:1033E000DF91CF911F910F910895AF92BF92CF922D
:1033F000DF92EF92FF920F931F93CF93DF9300D052
:1034000000D000D01F92CDB7DEB75C017B01FB017D
:1034100000811181C480D580C00ED11E88E090E06B
:103420009C838B831E821D820E94F52D9A83898343
:10343000CE0101960E943D06A801465F5F4F69815B
:103440007A819601CE0101960E942C116BEC73E0FB
:10345000CE0101960E94C919892BD1F4F701608130
:103460007181F501828193810E94D012F501028160
:10347000138184E090E00E94F52DFC011383028308
:103480002FEC31E031832083BC01C8010E94451537
:10349000CE0101960E94880E27960FB6F894DEBFE3
:1034A0000FBECDBFDF91CF911F910F91FF90EF9095
:1034B000DF90CF90BF90AF9008950E94C91921E08E
:1034C000892B09F020E0822F08950F931F93CF934B
:1034D000DF93CDB7DEB7C454D1090FB6F894DEBF81
:1034E0000FBECDBF8C01CE0101960E94A009CE0176
:1034F00083960E94A00942E250E070E060E0CE01B5
:1035000083960E94242F84E490E00E94342F8B3F06
:103510009A44A9F082E2FE013196D80101900D9201
:103520008A95E1F7C801CC5BDF4F0FB6F894DEBF98
:103530000FBECDBFDF91CF911F910F9108958BA149
:10354000813041F782E2FE01B396E7CFEF92FF921E
:103550000F931F93CF93DF93CDB7DEB764970FB66A
:10356000F894DEBF0FBECDBF8C01DC01ED91FC9164
:1035700036970190F081E02DE80FF91F8381948147
:1035800085FD58C086FF3FC092FF57C089ED93E08C
:103590007F936F935F934F939F938F931F9284E1D9
:1035A0008F939E012F5F3F4F79013F932F930E948E
:1035B000DC329C01990F440B550BB701C8010E94E6
:1035C000770CD801ED91FC9136970190F081E02DB8
:1035D000E00FF11F838194810FB6F894DEBF0FBE18
:1035E000CDBF96FF03C0C8010E942C0C64960FB695
:1035F000F894DEBF0FBECDBFDF91CF911F910F9129
:10360000FF90EF90089587FF1BC09C012227307226
:1036100092FF08C082EE93E0232B09F0B9CF87EE2A
:1036200093E0B6CF8CEE93E0232B09F0B1CF80EF7F
:1036300093E0AECF85ED93E0ABCF8EED93E0A8CFD6
:1036400090E080E0A5CF8F929F92AF92BF92EF92D1
:10365000FF920F931F93CF93DF93CDB7DEB7E4971D
:103660000FB6F894DEBF0FBECDBF8C017B014901C0
:103670005A0160E1CE0101960E94E30EB701695F35
:103680007F4FCE0101960E94BB0BF70166850E9419
:103690006F0D7C01BC01CE01C4960E940D0DB501D9
:1036A000A401C7010E94A61AAE014C5C5F4FBE0187
:1036B0006D5E7F4FC8010E948013CE0101960E946B
:1036C0009F0EC801E4960FB6F894DEBF0FBECDBFC3
:1036D000DF91CF911F910F91FF90EF90BF90AF902E
:1036E0009F908F900895EF92FF920F931F93CF9327
:1036F000DF93CDB7DEB764970FB6F894DEBF0FBE89
:10370000CDBF8C01DC01ED91FC9136970190F081E9
:10371000E02DE80FF91F8381948185FD58C086FF55
:103720003FC092FF57C089ED93E07F936F935F9303
:103730004F939F938F931F9284E18F939E012F5FEE
:103740003F4F79013F932F930E94DC329C01990FE8
:10375000440B550BB701C8010E94770CD801ED91BD
:10376000FC9136970190F081E02DE00FF11F8381ED
:1037700094810FB6F894DEBF0FBECDBF96FF03C095
:10378000C8010E942C0C64960FB6F894DEBF0FBEE1
:10379000CDBFDF91CF911F910F91FF90EF900895D2
:1037A00087FF1BC09C012227307292FF08C082EE67
:1037B00093E0232B09F0B9CF87EE93E0B6CF8CEEE0
:1037C00093E0232B09F0B1CF80EF93E0AECF84EFED
:1037D00093E0ABCF8EED93E0A8CF90E080E0A5CF53
:1037E0008F929F92AF92BF92CF92DF92EF92FF9211
:1037F0000F931F93CF93DF93CDB7DEB728970FB604
:10380000F894DEBF0FBECDBF80912005811108C0A6
:1038100060E18DEE94E00E94E30E81E0809320054C
:1038200080911D0590911E05892B09F4CFC010923F
:103830000F05AE01485F5F4F6CE374E0CE01019667
:103840000E944116BE016F5F7F4F8DEE94E00E9493
:10385000AE11CE0101960E94880E6AED76E08DEEE3
:1038600094E00E94BB0B68EF73E00E941E156CE2AF
:103870000E946F0D8C018091AD059091AE05DC0129
:10388000ED91FC910284F385E02D09954B015C01DB
:10389000B801CE0101960E940D0D88E0C82ED12CF2
:1038A000E12CF12CC501B401A70196010E949232CE
:1038B000BA01A901C8010E94731B6CE2C8010E94F1
:1038C0006F0D8C01E091AD05F091AE050280F381A2
:1038D000E02D6081718182819381A70196010E9410
:1038E000923269017A01B801CE0101960E940D0D54
:1038F000B701A601C8010E94731B6CE2C8010E94B7
:103900006F0D8C01E091B105F091B20580810E94AC
:10391000930461E0892B09F060E0C8010E94200D4A
:103920006CE20E946F0D8C01E091B105F091B2053F
:1039300081810E94930461E0892B09F060E0C80155
:103940000E94200D63ED76E00E94BB0B0091B30551
:103950001091B405AE01485F5F4F6FEF74E0CE0188
:1039600001960E948013BE016F5F7F4FC8010E94C5
:103970001F10CE0101960E94880EAE01485F5F4F76
:103980006FEF74E0CE0101960E948013BE016F5F5D
:103990007F4F81EE96E00E94BB0B0E948A0DCE0104
:1039A00001960E94880E28960FB6F894DEBF0FBECF
:1039B000CDBFDF91CF911F910F91FF90EF90DF90DE
:1039C000CF90BF90AF909F908F90089581E08093AB
:1039D0000F052FCF4F925F926F927F92AF92BF925F
:1039E000CF92DF92EF92FF920F931F93CF93DF93CB
:1039F000CDB7DEB7C554D1090FB6F894DEBF0FBE00
:103A0000CDBF8C017B01DB011E968C91833559F56E
:103A10006B01B7E0CB0ED11C6CEF73E0C6010E94C6
:103A20005D1A882379F0E091AF05F091B005228509
:103A30003385032E000C440B550BB701C8010E94BF
:103A4000231B61C06FEF73E0C6010E945D1A8823DB
:103A5000F1F0F70187859089A189B28984369105B3
:103A6000A105B10534F4AE014F5F5F4F62E074E031
:103A700008C1E091AD05F091AE050280F381E02D23
:103A800091878087B701C8010E9407143CC066E097
:103A900074E0C6010E945D1A882389F00E94A01676
:103AA0008091AD059091AE05DC01ED91FC91008413
:103AB000F185E02D40E050E0BA010995E3CF68ECD4
:103AC00073E0C6010E945D1A8823A1F1CE01019620
:103AD0000E94D30E68EC73E0CE0101960E9476142A
:103AE00069E074E0CE0101960E947614AE014D5D4E
:103AF0005F4FBE016F5F7F4FC8010E948013CE01F0
:103B000001960E94880EC801CB5BDF4F0FB6F89478
:103B1000DEBF0FBECDBFDF91CF911F910F91FF9000
:103B2000EF90DF90CF90BF90AF907F906F905F90BD
:103B30004F90089567E174E0C6010E945D1A8823E2
:103B4000A9F00E947C168091AD059091AE05E091A0
:103B5000AF05F091B0054281538164817581DC012C
:103B6000ED91FC910084F185E02DA7CF6AE174E02E
:103B7000C6010E945D1A882361F08091AD05909185
:103B8000AE05DC01ED91FC910280F381E02D0995F9
:103B900079CF6DE174E0C6010E945D1A882391F02F
:103BA0008091AD059091AE05DC01ED91FC91028410
:103BB000F385E02D099528E030E040E050E00E94D8
:103BC00092323BCF60E274E0C6010E945D1A882306
:103BD000C1F0F70187859089A189B28953E0880FE8
:103BE000991FAA1FBB1F5A95D1F7E091AD05F0911F
:103BF000AE050280F381E02D84839583A683B7838D
:103C000041CF63E274E0C6010E945D1A882361F02F
:103C1000E091AD05F091AE050280F381E02D608169
:103C2000718182819381C7CF66E274E0C6010E94F0
:103C30005D1A8823C1F0E091AD05F091AE052281B7
:103C40003381F70187859089A189B28943E0880F84
:103C5000991FAA1FBB1F4A95D1F7F9018083918351
:103C6000A283B3830FCF69E274E0C6010E945D1A9C
:103C7000882359F00E94F01BAE014F5F5F4F6CE349
:103C800074E0C8010E9441163ECF6CE274E0C601A8
:103C90000E945D1A882399F0E091AD05F091AE0580
:103CA0000280F381E02D2285338550E040E093E0EF
:103CB00055954795379527959A95D1F7BECE6FE2E2
:103CC00074E0C6010E945D1A882321F1D7011F9676
:103CD0004D905D906D907C90529783E0440C551C04
:103CE000661C771C8A95D1F7C090AD05D090AE05C3
:103CF000F60163A174A185A196A10E94D030461659
:103D0000570608F4B0CED6011296ED91FC91538679
:103D10004286B8CE62E374E0C6010E945D1A882331
:103D2000E9F0CE0101960E94A0098091AF05909123
:103D3000B00522E2FE013196DC0101900D922A9538
:103D4000E1F742E250E070E060E00E943A2F6BEF52
:103D50007AE484E490E00E945C2F94CE65E374E002
:103D6000C6010E945D1A882389F0C090AF05D090EB
:103D7000B005CE0184960E94651A82E2FE01B496D7
:103D8000D60101900D928A95E1F77CCE68E374E04C
:103D9000C6010E945D1A882309F465CE42E250E014
:103DA00070E060E08091AF059091B005CECF0C94AB
:103DB000F01B2F923F924F925F926F927F928F9261
:103DC0009F92AF92BF92CF92DF92EF92FF920F93AA
:103DD0001F93CF93DF93CDB7DEB72C970FB6F89430
:103DE000DEBF0FBECDBF6C0129013A01FC01A18CE1
:103DF000B28C9E01265F3F4FA201CE0101960E9428
:103E00004214F601E488F588EA14FB0410F40E94D9
:103E1000B73217012A183B0882012414350408F42C
:103E200081018D809E80E01AF10AC40180959095F1
:103E3000E816F90660F7E80CF91CC60140969C8765
:103E40008B870815190538F41886AE01485F5F4F57
:103E5000B7010E94F210F60180899189A101401BEF
:103E6000510BB501600F711F680F791F9501280D67
:103E7000391D820F931F0E94BC3269817A81F6013D
:103E800080899189A4018A0D9B1D0E94F70D1986D6
:103E9000AE01475F5F4FB7018B859C850E94F21092
:103EA000CE0101960E94880EF601818D928D840DBF
:103EB000951D928F818FC301B2012C960FB6F89495
:103EC000DEBF0FBECDBFDF91CF911F910F91FF904D
:103ED000EF90DF90CF90BF90AF909F908F907F90AA
:103EE0006F905F904F903F902F900895CF92DF9208
:103EF000EF92FF920F931F93CF93DF93CDB7DEB76F
:103F00006B970FB6F894DEBF0FBECDBF7C018B015F
:103F1000DB011496CD90DC90B2E0CB16D104B8F45E
:103F2000AE014F5F5F4F62E074E00E944116C7012F
:103F30006B960FB6F894DEBF0FBECDBFDF91CF9169
:103F40001F910F91FF90EF90DF90CF900895CE01D9
:103F500001960E94D30ECE0108960E94D30EB8019E
:103F6000CE0101960E948511188A198A1A8A1B8A25
:103F7000F801608171816F5F7F4FCE0108960E94CA
:103F80002D12F2E0CF16D10489F480E38F87BE01B1
:103F90006F5F7F4FC7010E94EA1CCE0108960E9406
:103FA000880ECE0101960E94880EC1CFD8016D9176
:103FB0007C916E5F7F4FCE0108960E942D12B3E078
:103FC000CB16D10411F3D801ED91FC9183818F8739
:103FD000B6E0CB16D10440F184818C3229F5D801AA
:103FE00014964D915C914530510510F40E94B73202
:103FF00045505109BF016B5F7F4F9E01255E3F4FCA
:10400000CE0144960E9442144AE050E070E060E025
:104010008C899D890E949B2C688B798B8A8B9B8BCA
:10402000CE0144960E94880EBE016F5F7F4FCE0185
:1040300044960E94EA1CAE01455E5F4FBE016C5E75
:104040007F4FC7010E948013CE0144960E94880EC4
:10405000A4CFCF92DF92EF92FF920F931F93CF9353
:10406000DF93CDB7DEB72E970FB6F894DEBF0FBE45
:10407000CDBFFB01E480F580FBE0EF16F104C8F151
:10408000FB0100811181F8014285403491F56C01FA
:10409000E00EF11E88E090E09B878A871D861C86D3
:1040A0000E94F52D99878887CE0108960E943D06CB
:1040B000A801465F5F4F688579859701CE01089614
:1040C0000E942C11BE01685F7F4FCE0101960E94B5
:1040D000761FBE016F5F7F4FF601828193810E9440
:1040E0001F10CE0101960E94880ECE0108960E94F4
:1040F000880E2E960FB6F894DEBF0FBECDBFDF91AF
:10410000CF911F910F91FF90EF90DF90CF90089586
:104110001F920F920FB60F9211248F939F9380914D
:10412000E1009091E100937F9093E10083FF0FC045
:104130001092E90091E09093EB001092EC0092E372
:104140009093ED001092EB0498E09093F00082FFC2
:1041500022C093E09093E9009091F200992319F026
:104160009AE39093E8009091DD04992341F09091B7
:10417000DD0491509093DD04911101C05D9A9091FE
:10418000EA04992341F09091EA0491509093EA0453
:10419000911101C0289A84FF18C08091E2008E7EA0
:1041A00081608093E2008091E1008F7E8093E10046
:1041B0008091DC048E7E80618093DC049F918F91DE
:1041C0000F900FBE0F901F90189580FFF7CF809132
:1041D000E2008E7E80618093E2008091E1008E7E1D
:1041E0008093E1008091DC048E7E8160E5CF1F9298
:1041F0000F920FB60F921124CF92DF92EF92FF929F
:104200000F931F932F933F934F935F936F937F93DE
:104210008F939F93AF93BF93EF93FF93CF93DF93CE
:10422000CDB7DEB76C97DEBFCDBF1092E9008091AD
:10423000E80083FF25C068E0CE0145960E94950204
:1042400082EF8093E8008D8987FF39C09091E80064
:1042500090FFFCCF982F907609F034C19E894F894A
:10426000588D2F89F88C911131C0803861F580917B
:10427000DB048093F1001092F1008EEF8093E80050
:104280006C960FB6F894DEBF0FBECDBFDF91CF9115
:10429000FF91EF91BF91AF919F918F917F916F911E
:1042A0005F914F913F912F911F910F91FF90EF9050
:1042B000DF90CF900F900FBE0F901F9018959EEF3C
:1042C0009093E800C7CF1092F100D5CF913059F408
:1042D0008111D3CF4130510581F68091DB048D7F70
:1042E0008093DB04CACF933049F48111C6CF4130AB
:1042F000510519F68091DB048260F2CF953041F4CC
:104300008091E80080FFFCCF20682093E300B5CFC8
:10431000963009F0A9C00B8D1C8D22E01092E900A7
:104320001092D9041092D804F2122EC01092D70421
:104330001092D6040E9464021F8299E09983FA8247
:1043400091E09E8390EA98879AEF99872091D8040C
:104350003091D904275F3F4F3C832B838D8310928C
:10436000E9001092D9041092D8041093D704009356
:10437000D60449E050E0BE016F5F7F4F80E00E94AD
:104380003E020E94640279CF1093D7040093D604B2
:104390000E94FC01DC0112960D911C910115110582
:1043A00009F451C1D801ED91FC910480F581E02D13
:1043B000BE016B5E7F4FC8010995009709F03EC1B1
:1043C000F80100851185EACFF3E0FF120EC08F8956
:1043D000882309F440C0823061F440E860E183EA58
:1043E00091E00E94C924811148CF81E28093EB00C3
:1043F00047CF813029F440E86BE087E991E0F1CFC5
:10440000833099F70E94FC01DC011296ED90FC903C
:104410008E010F5F1F4F6801E114F10479F0D7019D
:10442000ED91FC910680F781E02DB801C701099557
:10443000080F111DF701E084F184EECFD8011C9222
:10444000F60101900020E9F73197BF016C197D0951
:1044500040E0C601C6CF61E871E0FB01449150E045
:1044600080E80E943E0209CF973009F4BECF983011
:1044700021F481E08093F10000CF993009F0FDCE66
:10448000837009F0B2CFE4EDF2E081E031E096E331
:104490002191222371F08093E9003093EB00DF013A
:1044A00011972C912093EC009093ED008F5F873053
:1044B00079F78EE78093EA001092EA008F89809363
:1044C000EB04DBCE8B8D9C8D1092E9001092D90409
:1044D0001092D8049093D7048093D604898D8111CB
:1044E00092C08E899D89913A49F4813209F07DCF3D
:1044F00047E050E066E071E080E0B3CF913209F030
:1045000074CF833269F48F89988DB0E0A0E08093F6
:10451000020190930301A0930401B0930501ADCE75
:10452000803269F48091E80082FFFCCF67E086E08A
:1045300091E00E9495028BEF8093E8009ECE82323C
:1045400009F09BCE8F8980930D01EEEFFFE78591F7
:1045500094918B3F9C4D51F1E0E0F8E08091060191
:1045600090910701A0910801B0910901803B94400E
:10457000A105B105F1F480910D0180FD1AC0EE3F57
:104580008AE0F80789F587E797E791838083809130
:1045900060008093DA0488E19BE00FB6F894A89558
:1045A000809360000FBE9093600067CEEEEFFAE05C
:1045B000D5CF808191818737974709F05ECEA89546
:1045C000809160008861809360008091DA0480931C
:1045D0006000EE3F2AE0F20789F08091FE0A909198
:1045E000FF0A9183808349CE808191818737980724
:1045F00051F29093FF0A8093FE0AC5CF1092FF0AF2
:104600001092FE0A3ACE0E94FC01DC0112960D9136
:104610001C910115110509F4E8CED801ED91FC912A
:104620000190F081E02DBE016B5E7F4FC8010995BE
:10463000811123CEF80100851185EBCF18161906DC
:104640000CF41BCED2CEF1E0FF12BECE65E871E0D5
:1046500004CF1F920F920FB60F9211242F933F9306
:104660004F935F936F937F938F939F93AF93BF937A
:10467000EF93FF9384EC95E00E943903FF91EF9153
:10468000BF91AF919F918F917F916F915F914F916A
:104690003F912F910F900FBE0F901F9018951F9272
:1046A0000F920FB60F9211242F938F939F93EF9336
:1046B000FF93E091D405F091D5058081E091DA0572
:1046C000F091DB0582FD1BC090818091DD058F5F3D
:1046D0008F732091DE05821741F0E091DD05F0E057
:1046E000EC53FA4F958F8093DD05FF91EF919F91E9
:1046F0008F912F910F900FBE0F901F901895808172
:10470000F4CF1F920F920FB60F9211242F933F9365
:104710008F939F93AF93BF93809182049091830472
:10472000A0918404B09185043091810423E0230F8B
:104730002D3758F50196A11DB11D2093810480935A
:10474000820490938304A0938404B09385048091A1
:10475000860490918704A0918804B0918904019601
:10476000A11DB11D8093860490938704A0938804B3
:10477000B0938904BF91AF919F918F913F912F91F9
:104780000F900FBE0F901F90189526E8230F0296EA
:10479000A11DB11DD2CF1F920F920FB60F921124FF
:1047A0002F933F934F935F936F937F938F939F9339
:1047B000AF93BF93EF93FF93E0911601F091170130
:1047C0000995FF91EF91BF91AF919F918F917F914B
:1047D0006F915F914F913F912F910F900FBE0F906E
:1047E0001F9018951F920F920FB60F9211242F93BE
:1047F0003F934F935F936F937F938F939F93AF9369
:10480000BF93EF93FF93E0911401F0911501099587
:10481000FF91EF91BF91AF919F918F917F916F9198
:104820005F914F913F912F910F900FBE0F901F906E
:1048300018951F920F920FB60F9211242F933F934A
:104840004F935F936F937F938F939F93AF93BF9398
:10485000EF93FF93E0911201F09113010995FF91FD
:10486000EF91BF91AF919F918F917F916F915F91E8
:104870004F913F912F910F900FBE0F901F90189561
:104880001F920F920FB60F9211242F933F934F93C5
:104890005F936F937F938F939F93AF93BF93EF93A8
:1048A000FF93E0911001F09111010995FF91EF91B3
:1048B000BF91AF919F918F917F916F915F914F9138
:1048C0003F912F910F900FBE0F901F9018951F9240
:1048D0000F920FB60F9211242F933F934F935F9334
:1048E0006F937F938F939F93AF93BF93EF93FF93B8
:1048F000E0910E01F0910F010995FF91EF91BF91A9
:10490000AF919F918F917F916F915F914F913F9167
:104910002F910F900FBE0F901F9018951F920F921E
:104920000FB60F9211242F933F934F935F936F9382
:104930007F938F939F93AF93BF93EF93FF93609178
:10494000EC0481E068276093EC04809170049091FE
:104950007104DC01ED91FC910190F081E02D09954D
:1049600080910001909101019093890080938800CB
:10497000FF91EF91BF91AF919F918F917F916F9137
:104980005F914F913F912F910F900FBE0F901F900D
:104990001895EF92FF920F931F93CF93DF93F82E0A
:1049A000192FE62E042F81E0860F880F0E94100237
:1049B00083E00E941002CF2DD12FEC0EFD2EF11CB2
:1049C000CE15DF05B9F007FF13C0FE0184910E94E8
:1049D0001002182F80E00E9410028123219681117D
:1049E000EFCFDF91CF911F910F91FF90EF9008953E
:1049F0008881EDCF81E0F5CFCF93DF93EB01888104
:104A00009981ABE0B7E011969C938E932A813B810C
:104A10000697EC01E881F981E55FF84F3183208347
:104A200012961D921D921D921C92159781E290E0A4
:104A30009483838381E197E0948B838B1582158A1D
:104A4000DF91CF91089561E177E083E297E00E94E2
:104A50000C0C41E157E063E872E08BE097E00E94C4
:104A6000FC24EBE0F7E08FE892E09183808389E912
:104A700092E0918F808F1286118614861386168697
:104A80001586108A1786128A118A148A138A81E57C
:104A900092E09783868384E395E0978B868B88E00A
:104AA000858B089563EE76E085EF96E00E940C0C0E
:104AB00043EE56E06FE972E081EE96E00E941A0E36
:104AC000E1EEF6E08BEA92E09183808385EB92E061
:104AD000958B848B1682158210861782128611861A
:104AE0001486138616861586108A178681E592E04D
:104AF0009383828384E395E0938B828B80E1818B27
:104B000008950F931F93CF93DF931F92CDB7DEB716
:104B100004EC15E01092C7051092C60588EE93E0EC
:104B2000A0E0B0E08093C8059093C905A093CA05A2
:104B3000B093CB052EED32E03093C5052093C4052C
:104B40002DEC30E03093D1052093D0052CEC30E0F3
:104B50003093D3052093D20528EC30E03093D5056F
:104B60002093D40529EC30E03093D7052093D60567
:104B70002AEC30E03093D9052093D8052EEC30E0B4
:104B80003093DB052093DA051092DD051092DE05E7
:104B90001092DF051092E00510923705109236054D
:104BA0008093380590933905A0933A05B0933B055F
:104BB00080EF92E090933505809334058FEF9FEF5F
:104BC0009093410580934005109228051092290585
:104BD00010922A0510922B0510922C0510922D058B
:104BE00010922E0510922F0564E375E081EE96E099
:104BF0000E94522564E375E08BE097E00E94232534
:104C0000109233051092320584E395E090933105BC
:104C1000809330056BE271E086E091E00E948F2D79
:104C20009093330580933205AE014F5F5F4F6BE386
:104C300074E083ED96E00E944116AE014F5F5F4F36
:104C40006DE374E08AED96E00E9441161092CB0667
:104C50001092CC061092CD061092CE061092CF067E
:104C60001092D0061092D1061092D20686E193E0FF
:104C70009093CA068093C9060E946A0187EA96E06B
:104C80000E94651A82E093E090937F0680937E06EF
:104C900081E090E0909388068093870610928906C1
:104CA00010928A0610928B0610928C0610928D0636
:104CB00010928E0610928F06109290061092910616
:104CC00010929206109293061092940610929906F2
:104CD00010929A0610929B0610929C0610929D06C6
:104CE00010929E0610929F061092A00689EA96E006
:104CF000909381068093800689EC96E090938606D7
:104D0000809385061092950610929606109297064B
:104D1000109298068CE0809382068AE08093830646
:104D20008BE08093840680E090E0AAE7B3E4809370
:104D3000A1069093A206A093A306B093A40661E0F7
:104D40008CE00E94EA0461E0809184060E94EA04FB
:104D500061E0809183060E94EA0461E0809183060D
:104D60000E94BC041092A6061092A50683E08093D0
:104D70007C0682E080937D068EE796E09093850521
:104D80008093840585E796E00E94D30E8EE696E038
:104D90000E94D30E10936206009361068EE696E0A1
:104DA000909364068093630685EA9DE090936D0678
:104DB00080936C061093B6050093B50581E696E0E6
:104DC0009093B8058093B70589EB95E00E94D30EC8
:104DD0001092C2051092C3058091BB059091BC054D
:104DE000089730F468E070E089EB95E00E94791252
:104DF0008EE796E09093AE058093AD0587EA96E046
:104E00009093B0058093AF058CE796E09093B20540
:104E10008093B10585EB95E09093B4058093B3053D
:104E200090938705809386050091B60610E088E090
:104E300090E090938B0580938A0510928D051092D7
:104E40008C0580E190E00E94F52D90938905809378
:104E50008805109392050093910590E080E00E94F0
:104E6000820F1092990510929A0510929B0510924C
:104E70009C0510929D0510929E0510929F05109220
:104E8000A0051092A1051092A2051092A305109200
:104E9000A4051092A5051092A6051092A7051092E0
:104EA000A80582E190E09093AA058093A90586EB7E
:104EB00096E09093AC058093AB050F90DF91CF9176
:104EC0001F910F910895CF93DF93CDB7DEB7EE9783
:104ED0000FB6F894DEBF0FBECDBF789484B5826064
:104EE00084BD84B5816084BD85B5826085BD85B58E
:104EF000816085BD80916E00816080936E0010920C
:104F00008100809181008260809381008091810086
:104F10008160809381008091800081608093800017
:104F200080919100826080939100809191008160D6
:104F30008093910080919000816080939000809197
:104F4000C10084608093C1008091C1008260809321
:104F5000C1008091C10081608093C1008091C30035
:104F600081608093C3008091C00082608093C00004
:104F70008091C20081608093C20080917A00846039
:104F800080937A0080917A00826080937A00809189
:104F90007A00816080937A0080917A0080688093A3
:104FA0007A001092EB041092DB041092DC048091E2
:104FB000D70081608093D70080EA8093D80089B5BC
:104FC000806189BD89B5826089BD09B400FEFDCFCD
:104FD00061E070E080E090E00E9440058091D800A0
:104FE0008F7C80618093D8008091E000807F8093E7
:104FF000E0008091E1008E7E8093E1008DE080935F
:10500000E200559A209A61E0809183060E94BC04D8
:1050100060E0809182060E94BC0487ED9EE190933F
:10502000A6068093A50662E085E00E94EA0462E09D
:1050300086E00E94EA048091770690917806409776
:1050400030F460E170E085E796E00E94CA1080913C
:10505000700690917106809730F460E270E08EE601
:1050600096E00E9479128FEF9FEF90934105809315
:10507000400584EC95E00E94430168EE73E080E017
:1050800090E00E94400548EE53E060E070E08BEC59
:1050900096E00E94240678946FE374E081EE96E037
:1050A0000E941E150E948A0D84E090E00E94F52D5A
:1050B00025EB35E0DC0113963C932E9312972DEBF4
:1050C00032E02D933C93BC0185EB95E00E944515A1
:1050D00062E080917C060E94EA0462E080917D0695
:1050E0000E94EA0480917C06882309F405C181307E
:1050F00009F404C1823009F403C1833009F402C108
:10510000873029F484E06AEC79E00E948401809180
:105110007D06882309F4F8C0813009F4F7C0823095
:1051200009F4F6C0833009F4F5C0873029F484E02F
:1051300066E17AE00E94840140E157E260E070E0BD
:1051400089E995E00E942406E091AB05F091AC0559
:10515000438554856585768581EA95E00E9424061D
:105160008FEF9FEF0E94820F38E0832E912CA12CAD
:10517000B12C42E0C42ED12C26E0222E312C80917D
:10518000CE04811108C060E18BE994E00E94E30E37
:1051900081E08093CE048EE796E00E94BC1784E302
:1051A00095E00E942D0418161906F4F584E395E0A5
:1051B0000E94EB0397FD38C08CAB8D3031F080340A
:1051C00009F4AAC08A3009F0ABC0809179069091A9
:1051D0007A06029748F1BE016C5C7F4F85E796E046
:1051E0000E942D1265E776E0CE0101960E94761F9F
:1051F0008D819E81892B81F06AE381EE96E00E9489
:105200006F0DBE016F5F7F4F0E94BB0B63ED76E0B9
:105210000E94BB0B0E948A0D85E796E00E943D0626
:10522000CE0101960E94880E8091C205882309F460
:105230001DC10091B7051091B805F80180819181D9
:10524000DC01ED91FC910084F185E02D09951816A3
:1052500019060CF046C177247A9480E2582E93E028
:10526000E92EF12C66246394F80180819181DC01A0
:10527000ED91FC910084F185E02D09951816190631
:105280000CF02FC1F80180819181DC01ED91FC913E
:105290000284F385E02D099597FDE6CF8EAF8E371A
:1052A000A1F4F80115821482828193810E943D0647
:1052B000D80116961C92169717961C921797199656
:1052C0001C921E9218971A967C92F8018681882368
:1052D00021F08EAD168285258EAFD80114962D91C2
:1052E0003C9115978EAD2115310509F45FC08D37BE
:1052F00031F516966C92B8CF82E005CF83E003CFEC
:1053000081E001CF80E0FFCE82E012CF83E010CFBA
:1053100081E00ECF80E00CCF85E796E00E943D064D
:105320008091790690917A06409708F07DCFBE0172
:105330006C5C7F4F85E796E00E942D1275CF23307D
:10534000310509F447C080F421303105C1F1223024
:10535000310509F089CFF80120853185282B318767
:105360002087F582E48280CF2430310509F43FC0E4
:105370002530310509F078CF17969C911797980F33
:1053800017969C93179712966D917C9113979F3F58
:1053900009F058C015963C922E9214971B96ED91E9
:1053A000FC911C971A968C9109955ECF8E3709F067
:1053B0005BCF81E090E0F8019583848355CF189608
:1053C0001C92189719968C9319971596DC92CE9289
:1053D00014974ACF1A968C931A9717968C9317970F
:1053E000E4E0F0E01596FC93EE9314973DCF12960F
:1053F0008D919C91FC0124813581B9016F5F7F4FB4
:1054000026173707E0F4AE01425C5F4F0E94A112FD
:10541000F80187819EAD890F87830280F381E02D9B
:10542000D80118968D919C91199701972481358107
:105430002817390709F018CFE5E0F0E0D3CF15823F
:105440001482E6CFF80115821482CB010E943D063A
:10545000D80116961C92169717961C9217971996B4
:105460001C921E9218971A967C92FECE80919104FF
:10547000811107C08AE894E00E94D30E81E08093F6
:1054800091048091B5059091B605DC01ED91FC91F8
:105490000084F185E02D09951816190614F5809100
:1054A000B5059091B605DC01ED91FC910284F38580
:1054B000E02D099597FD15C089838D3009F07BC0DB
:1054C0008091C0059091C105DC01ED91FC910484AF
:1054D000F585E02D6AE874E009958AE894E00E9479
:1054E0003D068091C0059091C105DC01ED91FC91D4
:1054F0000680F781E02D099589E995E00E94F8057D
:10550000882309F403C1E091AB05F091AC0541811A
:1055100052816381748189E995E00E942406E091BB
:10552000A905E23108F0E251F0E0ED5CFE4FE491B4
:1055300090917B008E2F880F880F80729F7D892B22
:1055400080937B00E770E064E0937C0080917A00B8
:10555000806480937A0080917A0086FDFCCF8091F0
:10556000780020917900322F282F3CAF2BAFE091AB
:105570008805F091890580918F0590919005408173
:105580005181841B950B820F931F909390058093FC
:105590008F0530E020E040918C0550918D05CA01C7
:1055A00001972817390778F42F5F3F4F8281938145
:1055B00081939193F0CFBE016F5F7F4F8AE894E0B3
:1055C0000E942D128ECF8417950720F490938D059D
:1055D00080938C0520918C0530918D05C901019631
:1055E0002817390708F07CC1BE01655C7F4F0E9417
:1055F0004C0F80918F05909190056091910570916D
:1056000092050E947E32709398056093970581EA17
:1056100095E00E94F805882309F478C0E091AB0575
:10562000F091AC05438554856585768581EA95E0E2
:105630000E94240660E1CE0101960E94E30E6AED0D
:1056400076E0CE0101960E94BB0B64E474E00E94F8
:105650001E158C01E0909705F0909805BC01CE01D5
:10566000C4960E940D0DA70170E060E0C8010E9481
:10567000A61A63ED76E0C8010E94BB0B0091860577
:1056800010918705AE01435C5F4FBE016D5E7F4F99
:10569000CE01C4960E948013BE016C5C7F4FC8018E
:1056A0000E941F10CE01C4960E94880EAE01435C7A
:1056B0005F4FBE016D5E7F4FCE01C4960E94801386
:1056C000BE016C5C7F4F81EE96E00E94BB0B0E9496
:1056D0008A0DCE01C4960E94880EE091AB05F09130
:1056E000AC05209197053091980581859285281702
:1056F000390740F467E474E081EE96E00E941E15DD
:105700000E948A0DCE0101960E949F0E8BEC96E0BE
:105710000E94F805882309F4D6C04AEF50E060E003
:1057200070E08BEC96E00E94240685E00E949304D2
:105730008C01FF24F394892B09F0F12C80919A04B9
:10574000F816B9F00115110571F40E947C1640910C
:10575000A9065091AA066091AB067091AC068EE73F
:1057600096E00E94CE06012B21F08EE796E00E9483
:105770004506F0929A0486E00E9493048C01FF246F
:10578000F394892B09F0F12C80919904F81691F08B
:105790000115110549F40E94A01640E050E0BA013D
:1057A0008EE796E00E94CE06012B21F08EE796E070
:1057B0000E944506F092990420E030E0A901609132
:1057C00095067091960680919706909198060E9492
:1057D0005230882309F477C08091AD059091AE05D1
:1057E000DC01ED91FC910284F385E02D0995A50182
:1057F00094010E94923229013A018091CB04909148
:10580000CC04892B09F471C01092BD04AE014C5C2C
:105810005F4F6CE374E0CE0101960E944116BE0119
:105820006F5F7F4F8BE994E00E94AE11CE0101962D
:105830000E94880E6AEF73E08BE994E00E941E15C7
:105840008C01BC01CE0101960E940D0DB301A20195
:10585000C8010E94731B6AEF73E081EE96E00E941C
:105860001E158C01DC01ED91FC9136970190F081C1
:10587000E02D3296E80FF91F818192818F7180624D
:1058800092838183B801CE0101960E940D0DB30170
:10589000A201C8010E94731BC8010E948A0DAE01BB
:1058A0004C5C5F4F6DEA74E0CE0101960E9480135C
:1058B000BE016F5F7F4F85EB95E00E941F10CE0108
:1058C00001960E94880E80E090E0892B09F457CC65
:1058D0000E942503882309F452CC0E9400004CCC7E
:1058E00010928D0510928C0584CE81E08093BD04CA
:1058F0008DCF80918805909189050E94912E89EB2A
:1059000095E00E94880E8EE696E00E94880E85E75C
:1059100096E00E94880E8AED96E00E94880E83ED44
:1059200096E00E94880E8BE097E00E947E0981EE4F
:1059300096E00C94F40BB0E0A0E0E1EAFCE20C94F9
:10594000A02F5C016B017A016115710519F0FB0153
:1059500091838083E114F10449F0C7010297839792
:1059600028F060E070E0CB019CC05E01E50121966B
:10597000F5011081812F90E00E94862D892BA9F7D7
:105980001D3209F056C02196F501118101E0E114A4
:10599000F10409F4AEC0F0E1EF16F10409F08EC095
:1059A000103341F488818F7D883509F083C01981D7
:1059B00022960260E0E1EE2EF12C88248A94982C45
:1059C000A82CFFE0BF2E20E060E070E0CB012701B3
:1059D0000F2C000C66087708FE0150ED352E310EB5
:1059E00039E0331538F43FEB310F3A31A0F549EC8B
:1059F000342E310E3E141F04BCF52F3FB9F086162D
:105A00009706A806B90670F1A30192010E94622FC1
:105A1000232D30E050E040E0620F731F841F951F7C
:105A20006217730784079507E8F021E0219610813B
:105A3000D3CF1B3221F4E5012296F501118100E05C
:105A4000A6CF78E0E72EF12C88248A94982CA82CF5
:105A50006FE1B62EB8CF3FE9310F3A3128F439EA79
:105A6000332EC7CF2FEFE2CFC114D10431F0222360
:105A7000E9F02197F601D183C08300FF07C090951C
:105A80008095709561957F4F8F4F9F4F2F3F49F4C1
:105A900082E290E09093400780933F076FEF7FEFA3
:105AA000CB01CDB7DEB7E1E10C94BC2F01FFE5CF10
:105AB0002297E0CF10E3E114F10419F23AE0E31683
:105AC000F104E9F080E1E816F10409F473CFE8E0AD
:105AD000EE16F10409F4B8CF6FEF7FEFCB01970119
