:100000000C9493000C94BB000C94BB000C94BB00AC
:100010000C94BB000C94BB000C94BB000C94BB0074
:100020000C94BB000C94BB000C94770D0C94E60D63
:100030000C94BB000C94BB000C94BB000C94BB0054
:100040000C94BB000C94BB000C94BB000C94BB0044
:100050000C94BB000C94BB000C94BB000C9470106F
:100060000C94BB000C943E100C9418100C94BB0024
:100070000C94BB000C94BB000C94BB000C94BB0014
:100080000C94BB000C94BB000C94BB000C94BB0004
:100090000C94BB000C94BB000C94BB000C94BB00F4
:1000A0000C94BB000C94BB000C94BB00080B00022A
:1000B0000202010009040000010202000005240000
:1000C0001001052401010104240206052406000193
:1000D0000705810310004009040100020A00000026
:1000E00007050202400000070583024000000403E8
:1000F000090412010002EF02014041233680000191
:100100000102030141726475696E6F204C4C43001B
:1001100041726475696E6F204C656F6E6172646FB9
:100120000000C811211511241FBECFEFDAE0DEBF99
:10013000CDBF15E0A0E0B1E0E0EDFDE202C005902A
:100140000D92A230B107D9F726E0A2E0B5E001C0D8
:100150001D92A83CB207E1F710E0C2E9D0E004C06C
:100160002197FE010E94C716C139D107C9F70E9425
:1001700099120C94DB160C94000008951F93CF93F2
:10018000DF93182FC0913F05D09140058A3041F48C
:10019000E881F9810190F081E02D6DE0CE010995B3
:1001A000E881F9810190F081E02D612FCE01099560
:1001B00021E030E0019711F430E020E0C901DF9147
:1001C000CF911F910895CF93DF93C0913F05D091B8
:1001D0004005E881F9810084F185E02DCE01099583
:1001E000892BB9F3E881F9810284F385E02DCE01F2
:1001F000DF91CF910994FC01A089B18982E08C93B1
:10020000A485B5851C92A685B7858FEC8C93108E3E
:10021000A489B58986E08C93A289B3898C91806189
:100220008C93A289B3898C9188608C93A289B389BD
:100230008C9180688C930288F389E02D80818F7D7A
:1002400080830895FC0180913E05882311F13FB71A
:10025000F89482E08093E9002091F200822F90E0F0
:100260001816190614F481E090E0882339F02898D4
:1002700044E640933D054091F1004083222339F04C
:100280002091F200211103C02BE62093E8003FBF2C
:1002900008958FEF9FEF08952FB7F89483E0809330
:1002A000E9009091E800892F807295FF04C0909139
:1002B000F20080E4891B2FBF0895809135058111DC
:1002C0000DC082E08093310584E080933205109266
:1002D00034051092330581E08093350581E395E084
:1002E000089540912B0550912C05209129053091BE
:1002F0002A0542175307B4F49091E8009570E1F392
:100300009091E80092FD19C08093F10080912B0537
:1003100090912C0501968F739927892B19F48EEFF4
:100320008093E80080912B0590912C050196909385
:100330002C0580932B0581E0089580E00895DF92DD
:10034000EF92FF920F931F93CF93DF93D82E8A01E2
:10035000EB017B01E40EF51ECE15DF0559F0D7FE4B
:1003600012C0FE0184910E94710121968111F4CF87
:100370000FEF1FEFC801DF91CF911F910F91FF90F9
:10038000EF90DF9008958881EECF0F931F93CF9366
:10039000DF931F92CDB7DEB782E0898342E450E05D
:1003A0006CEA70E080E80E949F010E945D01DC0120
:1003B00012960D911C910115110589F0D801ED914E
:1003C000FC910280F381E02DBE016F5F7F4FC80179
:1003D000099597FD04C0F80100851185ECCF89814E
:1003E0000F90DF91CF911F910F910895615030F0E0
:1003F0002091F100FC0120830196F8CF289884E633
:1004000080933D050895DC01ED91FC910190F08110
:10041000E02D0994AF92BF92CF92DF92EF92FF92BC
:100420000F931F93CF93DF936C017B018B01040F1C
:10043000151FEB015E01AE18BF08C017D10759F0B8
:100440006991D601ED91FC910190F081E02DC601FA
:100450000995892B79F7C501DF91CF911F910F91F4
:10046000FF90EF90DF90CF90BF90AF900895FC0188
:10047000538D448D252F30E0842F90E0821B930B09
:10048000541710F0CF96089501970895FC01918DAF
:10049000828D981761F0A28DAE0FBF2FB11D5D96B2
:1004A0008C91928D9F5F9F73928F90E008958FEF54
:1004B0009FEF0895FC01918D828D981731F0828D08
:1004C000E80FF11D858D90E008958FEF9FEF08955F
:1004D000FC01918D228D892F90E0805C9F4F821BC3
:1004E00091098F73992708958FE995E00E9468021A
:1004F00021E0892B09F420E0822F089580E090E02C
:10050000892B29F00E94740281110C940000089537
:10051000FC01A48DA80FB92FB11DA35ABF4F2C9178
:10052000848D90E001968F739927848FA689B7896F
:100530002C93A089B1898C9182748C93938D848D36
:10054000981306C00288F389E02D80818F7D808317
:100550000895EF92FF920F931F93CF93DF93EC01D7
:1005600081E0888F9B8D8C8D981319C0E889F9895B
:10057000808185FF14C09FB7F894EE89FF8960835E
:10058000E889F9898081827480839FBF81E090E04F
:10059000DF91CF911F910F91FF90EF900895F62E6C
:1005A0000B8D10E00F5F1F4F0F731127E02E8C8D06
:1005B0008E110CC00FB607FCFACFE889F98980814B
:1005C00085FFF5CFCE010E948802F1CFEB8DEC0FB5
:1005D000FD2FF11DE35AFF4FF0829FB7F8940B8F68
:1005E000EA89FB8980818062CFCFCF93DF93EC01D2
:1005F000888D8823B9F0AA89BB89E889F9898C910B
:1006000085FD03C0808186FD0DC00FB607FCF7CFC6
:100610008C9185FFF2CF808185FFEDCFCE010E94C6
:100620008802E9CFDF91CF910895CF93DF931F9296
:10063000CDB7DEB76983DC01ED91FC910280F381D7
:10064000E02D41E050E0BE016F5F7F4F09950F90B4
:10065000DF91CF91089583E08093E9008091F200CB
:10066000882319F08AE38093E80008950E944C01E2
:1006700090E00895CF93DF931F92CDB7DEB7FC01D2
:100680008485958597FD08C02FEF3FEF3587248738
:100690000F90DF91CF910895CE0101960E94220123
:1006A000019719F4898190E0F3CF8FEF9FEFF0CF9E
:1006B0000F931F93CF93DF931F92CDB7DEB78C01BB
:1006C000FC018485958597FF0BC0CE0101960E94A1
:1006D0002201019771F4898190E0F8019587848760
:1006E000F801848595850F90DF91CF911F910F912F
:1006F00008958FEF9FEFF1CFFC018485958597FDDD
:100700000BC09FB7F89482E08093E9008091F200DB
:100710009FBF90E0019608959FB7F89482E0809380
:10072000E9008091F2009FBF90E008953FB7F894F0
:100730008091160590911705A0911805B0911905A3
:1007400026B5A89B05C02F3F19F00196A11DB11D2C
:100750003FBFBA2FA92F982F8827BC01CD01620F68
:10076000711D811D911D42E0660F771F881F991F23
:100770004A95D1F708958F929F92AF92BF92CF92F0
:10078000DF92EF92FF924B015C010E9496036B0196
:100790007C010E9496036C197D098E099F09683EB1
:1007A000734081059105A8F321E0821A9108A10800
:1007B000B10888EEC80E83E0D81EE11CF11C81143C
:1007C0009104A104B10429F7FF90EF90DF90CF903E
:1007D000BF90AF909F908F9008958F929F92AF920D
:1007E000BF92CF92DF92EF92FF920F931F93CF931E
:1007F000DF936C017B018A0180910B01882309F44E
:100800005CC080913E05882309F457C080912F0574
:1008100080FF05C08091E00082608093E000E801E5
:10082000B12C8AEFA82E93E0892E2AE3922E2097EE
:1008300011F4BB20D9F10E944C0181110AC0AA9485
:10084000AA20D9F161E070E080E090E00E94BB0353
:10085000EECF8C171D0611F00CF08C2F9FB7F8947B
:100860008092E9002091E80025FD02C09FBFDFCF04
:10087000282F30E0C21BD30BF701815020F04191AB
:100880004093F100FACFE20EF31EBB2021F09092CC
:10089000E800B12CEBCF8091E80085FDE7CF909286
:1008A000E800BB24B394209709F3F3CF5D9884E666
:1008B00080933005101611063CF081E090E0F601BF
:1008C0009383828310E000E0C801DF91CF911F91F4
:1008D0000F91FF90EF90DF90CF90BF90AF909F90DF
:1008E0008F9008952FB7F8946091120570911305B9
:1008F00080911405909115052FBF0895CF93DF9334
:10090000EC01E881F9810288F389E02D09958F3F98
:10091000980731F02D813E812F5F3F4F3E832D831D
:10092000DF91CF9108958FEF9FEF089560E070E021
:10093000CB01089590E080E00895FF920F931F93FC
:10094000CF93DF938C01EB016F3F7607B9F0F62E62
:10095000EAE06E1306C06DE0F801808991890E947B
:1009600003026F2DF801808991890E940302CE0154
:10097000DF91CF911F910F91FF900895D0E0C0E0DB
:10098000F6CF7F928F929F92AF92BF92CF92DF92DB
:10099000EF92FF920F931F93CF93DF938C01490146
:1009A0005A01EB01C12CD12C7601C814D904EA04F8
:1009B000FB04B4F479908AE0781206C06DE0F80187
:1009C000808991890E940302672DF80180899189AD
:1009D0000E940302FFEFCF1ADF0AEF0AFF0AE5CFFA
:1009E000C501B401DF91CF911F910F91FF90EF905E
:1009F000DF90CF90BF90AF909F908F907F900895A1
:100A0000CB010895CF93DF93EC0188899989DC01AC
:100A1000ED91FC910084F185E02D0995892BA9F3D6
:100A200088899989DC01ED91FC910284F385E02DA0
:100A3000DF91CF910994CF93DF93EC018889998955
:100A4000DC01ED91FC910084F185E02D0995892B65
:100A5000A9F388899989DC01ED91FC910484F585DD
:100A6000E02DDF91CF9109948F929F92AF92BF9228
:100A7000CF92DF92EF92FF920F931F93CF93DF936A
:100A80008C0149015A01EB01C12CD12C7601D8010E
:100A900050968D919C91DC01ED91FC910284F3853F
:100AA000E02D09958F3F61F0C814D904EA04FB04D6
:100AB0003CF48993BFEFCB1ADB0AEB0AFB0AE7CFC2
:100AC000C701B601DF91CF911F910F91FF90EF9079
:100AD000DF90CF90BF90AF909F908F900895DC01F2
:100AE00050968D919C91DC01ED91FC910084F185F3
:100AF000E02D099490E080E0089590E080E0089572
:100B000008950895DC01ED91FC9136970190F081F4
:100B1000E02DE80FF91F8EEF91E09183808388E04C
:100B200092E09783868308952EEF31E0FC013183B4
:100B3000208328E032E0378326830895FB0120815B
:100B40003181FC0131832083FB0142815381265096
:100B50003109F90120813181820F931FFC015183FA
:100B6000408308952AE132E0FC013183208324E2AE
:100B700032E0318F208F6EE072E00C949E05DC0134
:100B8000ED91FC91369720813181820F931F0C9457
:100B9000B2050895DC01ED91FC9136970190F0814A
:100BA000E02DE80FF91F8AEE91E09183808384EFB6
:100BB00091E09383828308952AEE31E0FC01318332
:100BC000208324EF31E0338322830895FB012081C9
:100BD0003181FC0131832083FB0142815381265006
:100BE0003109F90120813181820F931FFC0151836A
:100BF0004083089526E332E0FC013183208320E422
:100C000032E0358B248B6AE272E00C94E605DC015D
:100C1000ED91FC91369720813181820F931F0C94C6
:100C2000FA050895FC011586808191810C94FB00E2
:100C3000DC018D919C91FB01448155816081718122
:100C4000DC01ED91FC910280F381E02D099408957F
:100C5000089590E080E008951F93CF93DF93EC0117
:100C6000162F8F8580FF0BC0E881F9810084F18504
:100C7000E02D20E144E070E060E0CE010995EB85D5
:100C8000FC85812F90E02D853E85E217F30758F40F
:100C900010832B853C852F5F3F4F3C872B87DF914F
:100CA000CF911F910895E881F981028CF38DE02D99
:100CB000BC01CE01DF91CF911F9109948F929F9239
:100CC000AF92BF92CF92DF92EF92FF920F931F935A
:100CD000CF93DF938C0149015A01EB01C12CD12C38
:100CE0007601C814D904EA04FB0464F46991C801CC
:100CF0000E942C06019641F08FEFC81AD80AE80A24
:100D0000F80AEFCF75016401C701B601DF91CF91F9
:100D10001F910F91FF90EF90DF90CF90BF90AF9019
:100D20009F908F9008958F929F92AF92BF92EF9273
:100D3000FF920F931F93CF93DF93EC017B01490147
:100D40005A01E881F98136970190F081E02DE80F92
:100D5000F91F03891489D8011F968C911F9780FF72
:100D60000BC0ED91FC910084F185E02D20E144E081
:100D700070E060E0C8010995D801ED91FC91008C0C
:100D8000F18DE02DA5019401B701C80109956F3FD0
:100D90007F4F79F4E881F98136970190F081E02D59
:100DA000EC0FFD1F858123893489232B71F082602C
:100DB0008583CE01DF91CF911F910F91FF90EF902E
:100DC000BF90AF909F908F9008958360F1CFCF93A5
:100DD000DF93EC01E881F98136970190F081E02DF5
:100DE000E80FF91F83899489DC01ED91FC9104845B
:100DF000F585E02D0995019659F4E881F98136973A
:100E00000190F081E02DEC0FFD1F858181608583CD
:100E1000CE01DF91CF910895CF93DF93EC01E8816C
:100E2000F98136970190F081E02DE80FF91F838951
:100E300094890E942C06019679F4E881F98136970D
:100E40000190F081E02DEC0FFD1F8581238934890D
:100E5000232B31F082608583CE01DF91CF910895FD
:100E60008360F9CFCF93DF93EC01E881F981369766
:100E70000190F081E02DE80FF91F81899289009798
:100E800011F00E94E7066AE0CE010E940C07CE0135
:100E90000E94E706CE01DF91CF910895089508954D
:100EA0000F931F93CF93DF9340919705509198052F
:100EB0006091990570919A05452B462B472B79F146
:100EC000EC010E9472040091930510919405209109
:100ED000950530919605601B710B820B930B009169
:100EE0009705109198052091990530919A05601702
:100EF00071078207930798F0109297051092980552
:100F00001092990510929A05E881F9810488F58973
:100F1000E02DCE01DF91CF911F910F910994DF91C8
:100F2000CF911F910F910895CF93DF93EC0188E04B
:100F300090E09B838A831D821C820E949B1599836B
:100F40008883DF91CF9108954F925F926F927F9245
:100F50008F929F92AF92BF92CF92DF92EF92FF92C9
:100F6000CF93DF93EC01E0916606F0916706369728
:100F70000190F081E02DEA59F94F8189928900971B
:100F800011F00E94E706FE0101900020E9F7319779
:100F9000EC1BFD0B4F01B12CA12CE0916606F091EA
:100FA000670636970190F081E02DE859F94FC28429
:100FB000D384E484F584C818D908EA08FB08818141
:100FC00092818E709927049791F4260137011414A9
:100FD000150416041704E4F1D701C601F7FE03C097
:100FE00080E090E0DC01C81AD90AEA0AFB0AA501F0
:100FF0009401BE0186E696E00E949306E0916606A3
:10100000F091670636970190F081E02DE859F94F8D
:10101000818192818E709927029779F5E091660619
:10102000F091670636970190F081E02D1C141D04A5
:101030001E041F0414F581E0C81AD108E108F10864
:10104000EA59F94F608986E696E00E940C07E6CFE0
:1010500081E0481A510861087108E0916606F09134
:10106000670636970190F081E02DEA59F94F6089C3
:1010700086E696E00E940C07AACFE0916606F09102
:10108000670636970190F081E02DE859F94F1286F6
:1010900013861486158686E696E0DF91CF91FF9041
:1010A000EF90DF90CF90BF90AF909F908F907F9008
:1010B0006F905F904F900895CF93DF93EC0189E894
:1010C00092E00E94A4070E9432078A819B810E94BD
:1010D00012060E947204E3E9F5E060837183828363
:1010E000938388E893E1A0E0B0E084839583A683AE
:1010F000B783DF91CF9108951092970510929805CC
:101100001092990510929A0588EA92E00E94A4072D
:101110000E94320780EC92E00E94A4070C943207F0
:101120000C943716CF93DF93EC010E94FA05CE01A1
:10113000DF91CF910C943716DC01ED91FC9136973D
:1011400020813181820F931F0C949208CF93DF93FB
:10115000EC010E94B205CE01DF91CF910C943716BD
:10116000DC01ED91FC91369720813181820F931F34
:101170000C94A6080C9437160C943716DC01ED91EC
:10118000FC91369720813181820F931F0C94BC080B
:101190000C9437160C943716DC01ED91FC913697C0
:1011A00020813181820F931F0C94CA080C9437164A
:1011B0000C9437160C9437160C9437160C9437167B
:1011C0000C9437160F931F93CF93DF93EC01CB0151
:1011D000088119817B836A830E949B159983888388
:1011E000F801CF01801B910B2C813D818217930761
:1011F00050F4A881B981A80FB91F109711F0808110
:101200008C933196EECFC801DF91CF911F910F9152
:101210000C943716EF92FF920F931F93CF93DF93A7
:10122000EC018C819D818617970740F57A018B012F
:101230008A819B818617970740F4685F7F4F8617E6
:10124000970718F4CE010E94E2088C819D818017D7
:10125000910758F4E881F981E80FF91F309719F0E8
:10126000D7012C9120830196F2CF1D830C83DF914F
:10127000CF911F910F91FF90EF9008956817790714
:10128000B0F77D836C83F3CFEF92FF920F931F93A0
:10129000CF93DF9300D01F92CDB7DEB78C01809142
:1012A0000905811107C082E095E00E94940781E062
:1012B000809309058091060590910705892B21F0FF
:1012C0001092070510920605E0900605F0900705BC
:1012D0001A82B7016E5F7F4FAE014E5F5F4F82E0B3
:1012E00095E00E940A09E0910205F0910305EE0DD8
:1012F000FF1D81E4808384E58183D8011696ED91FA
:10130000FC91179714968D919C9115979C012F5FD6
:101310003F4F15963C932E931497E80FF91F808149
:101320008B83882309F441C06091060570910705FD
:101330006F5F7F4F8C3289F58DE08983AE014F5FFF
:101340005F4F82E095E00E940A0962E075E0F801D3
:10135000828193810E9418060E9472046093930513
:1013600070939405809395059093960588E893E192
:10137000A0E0B0E08093970590939805A09399051D
:10138000B0939A0581E00F900F900F90DF91CF916D
:101390001F910F91FF90EF900895AE014D5F5F4F49
:1013A00082E095E00E940A09A8CF80E0ECCF0C947F
:1013B0004409AF92BF92CF92DF92EF92FF920F93C8
:1013C0001F93CF93DF931F92CDB7DEB77C015B01F4
:1013D0000E949407F50101900020E9F731978F01F1
:1013E0000A191B09D7011496CD90DC901982B80117
:1013F0006C0D7D1DAE014F5F5F4FC7010E940A0952
:10140000F501D7018D919C91DC01AC0DBD1DC12C66
:10141000D12C760130E020E0C016D106E206F306BA
:1014200040F481918D938FEFC81AD80AE80AF80A20
:10143000F3CF0F90DF91CF911F910F91FF90EF901D
:10144000DF90CF90BF90AF9008950F931F93CF93ED
:10145000DF931F92CDB7DEB78C01AE014F5F5F4FB8
:1014600067EF72E00E94D909C8010F90DF91CF9118
:101470001F910F9108950F931F93CF93DF931F92A6
:10148000CDB7DEB78C01AE014F5F5F4F60E173E017
:101490000E94D909C8010F90DF91CF911F910F9140
:1014A00008950F931F93CF93DF931F92CDB7DEB7AD
:1014B0008C01AE014F5F5F4F67E273E00E94D90974
:1014C000C8010F90DF91CF911F910F9108950F9355
:1014D0001F93CF93DF931F92CDB7DEB78C01AE0180
:1014E0004F5F5F4F6DE373E00E94D909C8010F9011
:1014F000DF91CF911F910F9108950F931F93CF9379
:10150000DF931F92CDB7DEB78C01AE014F5F5F4F07
:1015100064E473E00E94D909C8010F90DF91CF9174
:101520001F910F9108950F931F93CF93DF93EC01B9
:10153000CB01088119817B836A830E949B15998363
:101540008883F801CF01801B910B2C813D8182178C
:10155000930750F4A881B981A80FB91F109711F013
:1015600080818C933196EECFC801DF91CF911F918E
:101570000F910C943716FC01808191810C943716E1
:10158000CF92DF92EF92FF920F931F93CF93DF934F
:10159000CDB7DEB728970FB6F894DEBF0FBECDBF2C
:1015A0006C01AE01485F5F4F6CE473E0CE010196C1
:1015B0000E94D909F601E480F5800D811E81A70102
:1015C0000E151F0508F4A80169817A81F601808152
:1015D00091810E94CD16DD24D394892BA1F0CE01F8
:1015E00001960E94BB0A8D2D28960FB6F894DEBF97
:1015F0000FBECDBFDF91CF911F910F91FF90EF9064
:10160000DF90CF900895E016F10649F7D12CE7CF8F
:10161000CF92DF92EF92FF920F931F93CF93DF93BE
:1016200000D000D000D01F92CDB7DEB77C018B0177
:101630008FE493E00E94A4076C01D801ED91FC9126
:101640000480F581E02DB801CE01019609952D8128
:101650003E8150E040E069817A81C6010E94930694
:101660000E943207CE0101960E94BB0AF7018385D2
:1016700094850097B1F0DC01ED91FC910084F18537
:10168000E02D0995F701838594858017910749F02E
:10169000009739F0DC01ED91FC910280F381E02D9F
:1016A0000995F70114870387D801ED91FC91028415
:1016B000F385E02DC801099527960FB6F894DEBF93
:1016C0000FBECDBFDF91CF911F910F91FF90EF9093
:1016D000DF90CF900895CF93DF93EC01CB010E9470
:1016E000C00A81111AC084E593E00E94A4070E94F9
:1016F00032070A80DB81C02D84E090E00E949B15B8
:10170000FC01D383C28326EA31E031832083BC010C
:10171000CE01DF91CF910C94080BDF91CF9108950A
:10172000CF93DF93EC0184E893E00E94A4070E942A
:1017300032070A80DB81C02D84E090E00E949B1577
:10174000FC01D383C2832CE831E031832083BC01C8
:10175000CE01DF91CF910C94080BCF93DF93EC0176
:10176000CB010E94C00A811120C083EA93E00E944D
:10177000A4070E9432070A80DB81C02D88E090E038
:101780000E949B15FC01D383C28382E791E0918381
:10179000808386EC93E09783868315821482BF0151
:1017A000CE01DF91CF910C94080BDF91CF9108957A
:1017B000CF93DF93EC0185ED93E00E94A4070E9494
:1017C00032070A80DB81C02D84E090E00E949B15E7
:1017D000FC01D383C28328E531E031832083BC013F
:1017E000CE01DF91CF910C94080BCF93DF93FC01D6
:1017F000C281D38184E090E00E949B15FC01D383D9
:10180000C28328E531E031832083BC01CE01DF9122
:10181000CF910C94080B0F931F93CF93DF938C0100
:10182000EB0181E094E00E94A4072C813D8150E00F
:1018300040E0688179810E9493060E943207F80196
:10184000C281D38184E090E00E949B15FC01D38388
:10185000C2832EE331E031832083BC01CE01DF91CE
:10186000CF911F910F910C94080BCF93DF93EC0154
:1018700084E194E00E94A4070E9432070A80DB8181
:10188000C02D84E090E00E949B15FC01D383C283AD
:101890002CE831E031832083BC01CE01DF91CF9170
:1018A0000C94080B0F931F93CF93DF93EC01CB01A4
:1018B0000E94C00A8823A9F08CE394E00E94A40748
:1018C0000A811B8184E090E00E949B15FC01138338
:1018D000028328E432E031832083BC01C8010E94E6
:1018E000080BCE010E944409811116C00A80DB81D9
:1018F000C02D84E090E00E949B15FC01D383C2833D
:101900002CE831E031832083BC01CE01DF91CF91FF
:101910001F910F910C94080BDF91CF911F910F91A4
:101920000895CF93DF93FC01C281D38184E090E0DE
:101930000E949B15FC01D383C28328E432E03183EB
:101940002083BC01CE01DF91CF910C94080B0F9343
:101950001F93CF93DF93CDB7DEB728970FB6F894D8
:10196000DEBF0FBECDBF8C018FE694E00E94A407BE
:101970000E943207F801828193810E941206F801C9
:1019800002811381AE01485F5F4F67EA74E0CE01C8
:1019900001960E94D909BE016F5F7F4FC8010E9466
:1019A0001806CE0101960E94BB0A0E947204E3E968
:1019B000F5E060837183828393838CED95E0A0E0F2
:1019C000B0E084839583A683B78328960FB6F894F6
:1019D000DEBF0FBECDBFDF91CF911F910F91089554
:1019E0000F931F93CF93DF93CDB7DEB728970FB632
:1019F000F894DEBF0FBECDBF8C018BEA94E00E944D
:101A0000A4070E943207F801828193810E94120686
:101A1000F80102811381AE01485F5F4F67EA74E00D
:101A2000CE0101960E94D909BE016F5F7F4FC801A8
:101A30000E941806CE0101960E94BB0A0E94720401
:101A4000E3E9F5E060837183828393838CED95E015
:101A5000A0E0B0E084839583A683B78328960FB671
:101A6000F894DEBF0FBECDBFDF91CF911F910F91D4
:101A700008950F931F93CF93DF93CDB7DEB72897C9
:101A80000FB6F894DEBF0FBECDBF8C010E9472046A
:101A9000E3E9F5E0608371838283938388E893E1CF
:101AA000A0E0B0E084839583A683B783F801028128
:101AB0001381AE01485F5F4F6AED74E0CE0101967D
:101AC0000E94D909BE016F5F7F4FC8010E941806AE
:101AD000CE0101960E94BB0A28960FB6F894DEBF8D
:101AE0000FBECDBFDF91CF911F910F9108951F922F
:101AF0000F920FB60F9211248F939F938091E10064
:101B00009091E100937F9093E10083FF0FC01092CA
:101B1000E90091E09093EB001092EC0092E3909337
:101B2000ED0010923E0598E09093F00082FF22C0F5
:101B300093E09093E9009091F200992319F09AE3D1
:101B40009093E80090913005992341F090913005F1
:101B5000915090933005911101C05D9A90913D058F
:101B6000992341F090913D05915090933D0591113D
:101B700001C0289A84FF18C08091E2008E7E8160A7
:101B80008093E2008091E1008F7E8093E10080915C
:101B90002F058E7E806180932F059F918F910F90EE
:101BA0000FBE0F901F90189580FFF7CF8091E20035
:101BB0008E7E80618093E2008091E1008E7E809332
:101BC000E10080912F058E7E8160E5CF1F920F92FC
:101BD0000FB60F921124CF92DF92EF92FF920F93E4
:101BE0001F932F933F934F935F936F937F938F93A5
:101BF0009F93AF93BF93EF93FF93CF93DF93CDB7B3
:101C0000DEB76C97DEBFCDBF1092E9008091E8008F
:101C100083FF25C068E0CE0145960E94F60182EF61
:101C20008093E8008D8987FF39C09091E80090FF8C
:101C3000FCCF982F907609F034C19E894F89588D3A
:101C40002F89F88C911131C0803861F580912E0573
:101C50008093F1001092F1008EEF8093E8006C9673
:101C60000FB6F894DEBF0FBECDBFDF91CF91FF91CD
:101C7000EF91BF91AF919F918F917F916F915F9104
:101C80004F913F912F911F910F91FF90EF90DF9017
:101C9000CF900F900FBE0F901F9018959EEF9093CE
:101CA000E800C7CF1092F100D5CF913059F48111DF
:101CB000D3CF4130510581F680912E058D7F8093E1
:101CC0002E05CACF933049F48111C6CF413051055A
:101CD00019F680912E058260F2CF953041F4809103
:101CE000E80080FFFCCF20682093E300B5CF96305A
:101CF00009F0A9C00B8D1C8D22E01092E900109212
:101D00002C0510922B05F2122EC010922A0510926B
:101D100029050E94C5011F8299E09983FA8291E00A
:101D20009E8390EA98879AEF998720912B053091AE
:101D30002C05275F3F4F3C832B838D831092E90056
:101D400010922C0510922B0510932A05009329055B
:101D500049E050E0BE016F5F7F4F80E00E949F012D
:101D60000E94C50179CF10932A05009329050E948E
:101D70005D01DC0112960D911C910115110509F40C
:101D800051C1D801ED91FC910480F581E02DBE0197
:101D90006B5E7F4FC8010995009709F03EC1F801BD
:101DA00000851185EACFF3E0FF120EC08F898823EA
:101DB00009F440C0823061F440E860E180E191E0E4
:101DC0000E94BA10811148CF81E28093EB0047CF87
:101DD000813029F440E86BE084E091E0F1CF83307A
:101DE00099F70E945D01DC011296ED90FC908E0146
:101DF0000F5F1F4F6801E114F10479F0D701ED91F5
:101E0000FC910680F781E02DB801C7010995080F04
:101E1000111DF701E084F184EECFD8011C92F60188
:101E200001900020E9F73197BF016C197D0940E06E
:101E3000C601C6CF6EEE70E0FB01449150E080E831
:101E40000E949F0109CF973009F4BECF983021F44A
:101E500081E08093F10000CF993009F0FDCE8370CE
:101E600009F0B2CFEFE5F2E081E031E096E32191B5
:101E7000222371F08093E9003093EB00DF0111978A
:101E80002C912093EC009093ED008F5F873079F7D1
:101E90008EE78093EA001092EA008F8980933E05D6
:101EA000DBCE8B8D9C8D1092E90010922C05109248
:101EB0002B0590932A0580932905898D811192C065
:101EC0008E899D89913A49F4813209F07DCF47E0AE
:101ED00050E064E071E080E0B3CF913209F074CF5C
:101EE000833269F48F89988DB0E0A0E0809300017F
:101EF00090930101A0930201B0930301ADCE803213
:101F000069F48091E80082FFFCCF67E084E091E013
:101F10000E94F6018BEF8093E8009ECE823209F09A
:101F20009BCE8F8980930B01EEEFFFE78591949113
:101F30008B3F9C4D51F1E0E0F8E0809104019091DD
:101F40000501A0910601B0910701803B9440A105D5
:101F5000B105F1F480910B0180FD1AC0EE3F8AE0DB
:101F6000F80789F587E797E7918380838091600080
:101F700080932D0588E19BE00FB6F894A895809397
:101F800060000FBE9093600067CEEEEFFAE0D5CF11
:101F9000808191818737974709F05ECEA89580911F
:101FA000600088618093600080912D0580936000BF
:101FB000EE3F2AE0F20789F08091FE0A9091FF0A35
:101FC0009183808349CE808191818737980751F230
:101FD0009093FF0A8093FE0AC5CF1092FF0A1092D9
:101FE000FE0A3ACE0E945D01DC0112960D911C9111
:101FF0000115110509F4E8CED801ED91FC9101908D
:10200000F081E02DBE016B5E7F4FC8010995811103
:1020100023CEF80100851185EBCF181619060CF4B4
:102020001BCED2CEF1E0FF12BECE62EF70E004CF45
:102030001F920F920FB60F9211242F933F934F933D
:102040005F936F937F938F939F93AF93BF93EF9320
:10205000FF938FE995E00E948802FF91EF91BF9175
:10206000AF919F918F917F916F915F914F913F9130
:102070002F910F900FBE0F901F9018951F920F92E7
:102080000FB60F9211242F938F939F93EF93FF938B
:10209000E091AF05F091B0058081E091B505F09138
:1020A000B60582FD1BC090818091B8058F5F8F734C
:1020B0002091B905821741F0E091B805F0E0E156B2
:1020C000FA4F958F8093B805FF91EF919F918F9173
:1020D0002F910F900FBE0F901F9018958081F4CF15
:1020E0001F920F920FB60F9211242F933F938F934D
:1020F0009F93AF93BF938091120590911305A09188
:102100001405B09115053091110523E0230F2D37EB
:1021100058F50196A11DB11D20931105809312055C
:1021200090931305A0931405B0931505809116059F
:1021300090911705A0911805B09119050196A11D60
:10214000B11D8093160590931705A0931805B093C1
:102150001905BF91AF919F918F913F912F910F9052
:102160000FBE0F901F90189526E8230F0296A11D11
:10217000B11DD2CFEF92FF920F931F93CF93DF93B6
:10218000F82E192FE62E042F81E0860F880F0E946B
:10219000710183E00E947101CF2DD12FEC0EFD2E35
:1021A000F11CCE15DF05B9F007FF13C0FE018491C5
:1021B0000E947101182F80E00E94710181232196F5
:1021C0008111EFCFDF91CF911F910F91FF90EF9091
:1021D00008958881EDCF81E0F5CFCF93DF93EB01B8
:1021E00088819981A0E9B6E011969C938E932A810B
:1021F0003B810697EC01E881F981E057F94F318383
:10220000208312961D921D921D921C92159781E2B9
:1022100090E09483838386E996E0948B838B158288
:10222000158ADF91CF910895CF93DF93C0E9D6E06F
:1022300081E290E09C8F8B8F1D8E1E8E1F8E86E01C
:1022400090E0A0E0B0E088A399A3AAA3BBA31CA23E
:102250001DA21EA21FA280EC91E0998F888F80E2C0
:1022600088A71AA619A686E996E09CA78BA71DA6A3
:10227000AC016EE072E0CE010E94ED108AE192E0C6
:102280009983888384E292E0998F888F1A861986D1
:102290001C861B861E861D86188A1F861A8A198A26
:1022A0001C8A1B8A88EC91E09F838E8383E495E0EF
:1022B0009F8B8E8B88E08D8BDF91CF910895DB0112
:1022C0008D919C9111979093670680936606129664
:1022D0002D913C910697DC01ED91FC91EA59F94F63
:1022E0003183208381E290E09483838388E696E0C3
:1022F000948B838B1582158A0895CF93DF93C6E65E
:10230000D6E081E290E0988F8F8B198E1A8E1B8E0B
:1023100086E090E0A0E0B0E08C8F9D8FAE8FBF8F05
:1023200018A219A21AA21BA280EC91E09D8B8C8BA3
:1023300080E28CA31EA21DA288E696E098A78FA338
:1023400019A6AC016AE272E0CE010E945F1186E339
:1023500092E09983888380E492E09D8B8C8B1E822F
:102360001D8218861F821A8619861C861B861E8669
:102370001D86188A1F8688EC91E09B838A8383E4FC
:1023800095E09B8B8A8B80E1898BDF91CF910895BB
:10239000CF93DF93CFE9D5E01092A2051092A1056B
:1023A00088EE93E0A0E0B0E08093A3059093A405AD
:1023B000A093A505B093A60529E632E03093A005C9
:1023C00020939F052DEC30E03093AC052093AB05B6
:1023D0002CEC30E03093AE052093AD0528EC30E0D6
:1023E0003093B0052093AF0529EC30E03093B2056F
:1023F0002093B1052AEC30E03093B4052093B30567
:102400002EEC30E03093B6052093B5051092B80558
:102410001092B9051092BA051092BB0510924605AC
:10242000109245058093470590934805A093490570
:10243000B0934A058BE792E090934405809343055F
:102440008FEF9FEF9093500580934F0563E475E005
:1024500086E696E00E947D1163E475E080E996E0EF
:102460000E941411109242051092410583E495E0F8
:102470009093400580933F0563EE70E08EEB90E013
:102480000E943515909342058093410510929B055B
:1024900010929C0510929D0510929E051092930536
:1024A000109294051092950510929605109297053A
:1024B000109298051092990510929A0589E496E079
:1024C0000E94940780E596E00E949407D0933D0611
:1024D000C0933C0680E596E090933F0680933E06CD
:1024E0008DEB90E09093480680934706D093580672
:1024F000C09357068CE396E090935A068093590652
:102500008BE596E00E94940710926406109265068F
:1025100080915D0690915E06089740F468E070E057
:102520008BE596E0DF91CF910C94930ADF91CF91E8
:102530000895CF93DF931F92CDB7DEB7789484B51B
:10254000826084BD84B5816084BD85B5826085BDAF
:1025500085B5816085BD80916E00816080936E003D
:10256000109281008091810082608093810080912F
:1025700081008160809381008091800081608093E0
:102580008000809191008260809391008091910001
:102590008160809391008091900081608093900091
:1025A0008091C10084608093C1008091C1008260ED
:1025B0008093C1008091C10081608093C1008091AF
:1025C000C30081608093C3008091C00082608093CB
:1025D000C0008091C20081608093C20080917A0027
:1025E000846080937A0080917A00826080937A0080
:1025F00080917A00816080937A0080917A0080686F
:1026000080937A0010923E0510922E0510922F05AD
:102610008091D70081608093D70080EA8093D800B2
:1026200089B5806189BD89B5826089BD09B400FE24
:10263000FDCF61E070E080E090E00E94BB038091FC
:10264000D8008F7C80618093D8008091E000807FEB
:102650008093E0008091E1008E7E8093E1008DE028
:102660008093E200559A209A80914B0690914C06F7
:102670008034910530F460E470E089E496E00E94D3
:10268000E2088091520690915306809730F460E200
:1026900070E080E596E00E94930A8FEF9FEF9093A1
:1026A000500580934F058FE995E00E94FB00109143
:1026B0000B016AE070E080E090E00E94BB03112310
:1026C000B1F368EE73E080E090E00E94BB031092EB
:1026D000410610924006E0913E06F0913F0684814B
:1026E0009581892B11F01582148210924206109266
:1026F000430610924506109244068FEF80934606DB
:10270000789480EE94E00E94A4070E94320784E04F
:1027100090E00E949B1527E536E0DC0113963C9380
:102720002E93129728E432E02D933C93BC0187E569
:1027300096E00E94080B45E0442E512C56E0652E91
:10274000712C22E0A22EB12C33E0832E912C8091AB
:102750006406882309F40FC10091590610915A06A6
:10276000F80180819181DC01ED91FC910084F1857B
:10277000E02D0995181619060CF03DC122242A9463
:10278000F80180819181DC01ED91FC910084F1855B
:10279000E02D0995181619060CF02DC1F80180815D
:1027A0009181DC01ED91FC910284F385E02D099586
:1027B00097FDE6CF382EBEE78B1319C0F8011582BE
:1027C00014820280F381E02D24813581232B11F0C6
:1027D00015821482D80116961C92169717961C9291
:1027E000179719961C921E9218971A962C92F80118
:1027F0002681222321F0168290E2392E3826D80134
:1028000014968D919C9115970097A1F1BDE73B120D
:1028100004C021E0F8012683B3CF8330910509F489
:102820003FC078F48130910579F1029709F0A8CF83
:10283000F80180859185832991878087958284829C
:102840009FCF84309105B1F1059709F099CFF80138
:102850008781830D8783628173818F3F09F077C001
:10286000758264820384F485E02DD8011A968C91D8
:10287000099586CF8EE7E1E0F0E0381281CF15961A
:10288000FC93EE9314977CCFD80118961C9218975E
:1028900019963C9219971596BC92AE92149770CFE8
:1028A000D8011A963C921A9717963C921797E4E033
:1028B000F0E0E5CFD8011296ED90FC90F70164812D
:1028C00075816B01FFEFCF1ADF0AD7016C157D050B
:1028D000C8F512968D919C918C159D0540F4675F0B
:1028E0007F4F8617970718F4C7010E94930AF701D4
:1028F000848195818C159D0550F4D701ED91FC9153
:10290000E80FF91F309709F030820196F3CFF701F5
:10291000D582C482F8018781380E37820280F38124
:10292000E02DD80118968D919C91199701972481DB
:1029300035812817390709F023CF15965C924E92FE
:1029400014971ECF15961C921E921497E3CF1582F2
:102950001482DB0114968D919C911597892B21F09F
:1029600015961C921E921497F801168217821186F2
:102970001086228605CF80912105811107C08AE14A
:1029800095E00E94940781E080932105809157068D
:1029900090915806DC01ED91FC910084F185E02DC9
:1029A0000995181619063CF580915706909158061E
:1029B000DC01ED91FC910284F385E02D099597FDF2
:1029C0001AC089838D3079F58091620690916306F3
:1029D000DC01ED91FC910484F585E02D6AE175E060
:1029E000099580911E0590911F05892B21F0109269
:1029F0001F0510921E058091620690916306DC010E
:102A0000ED91FC910680F781E02D099580E090E042
:102A1000892B09F49CCE0E947402882309F497CE76
:102A20000E9400008ECE60911E0570911F056F5FA1
:102A30007F4FAE014F5F5F4F8AE195E00E940A0928
:102A4000DACF8BE596E00E94BB0A80E596E00E9413
:102A5000BB0A89E496E00E94BB0A80E996E00E94E6
:102A6000B20586E696E00C94FA050F931F93CF9378
:102A7000DF93EC018B01892B51F4672B41F4F0E0DB
:102A8000E0E0CF01DF91CF911F910F9108956EE0AB
:102A900070E081E090E00E947F15FC01892B79F3C2
:102AA00080E883830115110571F01387028781E89F
:102AB00083838091BE069091BF06892B21F4F09309
:102AC000BF06E093BE062097E1F2D187C0878381DD
:102AD000826083838091C0069091C106892B89F61C
:102AE000F093C106E093C0068091C2069091C306A0
:102AF000892B39F6F093C306E093C206C2CF0F9339
:102B00001F93CF93DF93869F8001879F100D969F21
:102B1000100D1124C8010E949B15EC01009729F0AB
:102B2000A80170E060E00E94C016CE01DF91CF9155
:102B30001F910F9108950F931F93CF93DF938230CE
:102B4000910510F482E090E0E091C606F091C7068E
:102B500030E020E0B0E0A0E0309799F42115310595
:102B600009F44AC0281B390B24303105D8F58A8175
:102B70009B816115710589F1FB0193838283FE01BD
:102B800011C0408151810281138148175907E0F03B
:102B90004817590799F4109761F012960C93129701
:102BA00013961C933296CF01DF91CF911F910F9115
:102BB00008950093C6061093C706F4CF211531057A
:102BC00051F04217530738F0A901DB019A01BD010A
:102BD000DF01F801C1CFEF01F9CF9093C7068093D1
:102BE000C606CDCFFE01E20FF31F819391932250D1
:102BF000310939832883D7CF2091C4063091C50687
:102C0000232B41F420910E0130910F013093C50622
:102C10002093C40620910C0130910D01211531053E
:102C200041F42DB73EB74091100150911101241B82
:102C3000350BE091C406F091C506E217F307A0F446
:102C40002E1B3F0B2817390778F0AC014E5F5F4F02
:102C50002417350748F04E0F5F1F5093C506409369
:102C6000C406819391939FCFF0E0E0E09CCFCF9397
:102C7000DF930097E9F0FC01329713821282A09152
:102C8000C606B091C706ED0130E020E01097A1F430
:102C900020813181820F931F2091C4063091C50697
:102CA0002817390709F061C0F093C506E093C40600
:102CB000DF91CF910895EA01CE17DF07E8F54A8149
:102CC0005B819E0141155105B1F7E901FB83EA8360
:102CD00049915991C40FD51FEC17FD0761F480810C
:102CE00091810296840F951FE901998388838281DF
:102CF00093819B838A83F0E0E0E012968D919C9112
:102D000013970097B9F52D913C911197CD0102963B
:102D1000820F931F2091C4063091C50628173907EA
:102D200039F6309751F51092C7061092C606B09347
:102D3000C506A093C406BCCFD383C2834081518112
:102D4000840F951FC817D90761F44E5F5F4F8881C4
:102D50009981480F591F518340838A819B819383B6
:102D600082832115310509F0B0CFF093C706E093B7
:102D7000C6069ECFFD01DC01C0CF13821282D7CFE1
:102D8000DC0101C06D9341505040E0F70895EE0F13
:102D9000FF1F0590F491E02D0994FB01DC014150E7
:102DA000504030F08D910190801919F40020B9F74E
:102DB000881B990B089510E0C2E9D0E004C0FE0121
:102DC0000E94C7162196C339D107C9F7F894FFCFDF
:102DD000FFFFFFFF00E10000000000000000C80648
:102DE000800018000000000000000000E8FFE8FF7D
:102DF00000000000000014000000000000000000BF
:102E0000ECFFECFF000000000000000000002706BF
:102E1000DC083B0A50074E077C08800580054F07F9
:102E200080054E070000000027069008250A50077D
:102E30004E07F00CAD0B80054F078005D80B000046
:102E400000002806E008670A50074E07D709520C11
:102E500080054F078005910C000000002706D80868
:102E6000250A50074E07A70C6B0B80054F078005FE
:102E7000900B000000002706DE08510A50074E079D
:102E8000390D0B0C80054F078005350C0000000044
:102E90001106D60800000000C905C80880057D0598
:102EA00029067A059A046F0534051B0502050005FD
:102EB000C1049D04020000000000DC05CA08FEFFFA
:102EC000FEFF0000CA05CC080600000000009405C3
:102ED000BC08FAFFFAFF00008205BE081A021801BA
:102EE00022012402180000000000B205A608E8FF35
:102EF000E8FF0000BF05B00836022C013601400291
:102F0000140000000000FA059208ECFFECFF00003E
:102F100007069C08000000002706DA087D0A500713
:102F20004E075C08800580054F078005F50B00C142
:102F3000808100000000000000A9020A023702F5AB
:102F400002680246025A02000000001503ED033633
:102F5000032B037C033A03580357616974696E6756
:102F600020666F72205842656520746F20696E6913
:102F70007469616C697A6500466163746F72792067
:102F8000726573657420636F6D706C6574652E0077
:102F9000596F75206D6179206E6F772075706C6F39
:102FA00061642061206E657720736B657463682CA3
:102FB000207265626F6F742C206F7220706F77655E
:102FC00072206F66662E005761697420666F7220EA
:102FD000415420436F6D6D616E64204D6F646500D8
:102FE000466163746F727920526573657420436F14
:102FF0006D706C6574650052656164204669726D20
:10300000776172652056657273696F6E00436F6EEB
:103010006669670053746172747570004F4B005895
:10302000422D3E00496E20415420636F6D6D616EEC
:1030300064206D6F64652C2072656164696E672021
:103040006669726D776172652076657273696F6EFD
:103050002E2E2E0058426565206E6F7420726561B9
:103060006479207965742C207472792061676169B4
:103070006E2E00496E20415420636F6D6D616E6449
:10308000206D6F64652C20636F6E66696775726969
:103090006E672E2E2E0052452C57522C41432C4643
:1030A000522C4652005842656520646964206E6F58
:1030B0007420656E74657220636F6D6D616E64203F
:1030C0006D6F64652C2074727920616761696E2E62
:1030D000004669726D776172652076657273696FFB
:1030E0006E3A20004E6F20726573706F6E736520AC
:1030F000746F204154565220636F6D6D616E642C65
:103100002074727920616761696E2E00556E657852
:1031100070656374656420726573706F6E7365208B
:1031200028657870656374656420274F4B272920D4
:103130002D20737461727420616761696E2E00576F
:10314000616974696E6720666F72205842656520F8
:10315000746F207265626F6F7420616E6420656E9B
:1031600074657220415420436F6D6D616E64204D13
:103170006F64652E2E2E002B2B2B00417474656D11
:103180007074696E6720746F207075742058426582
:103190006520696E746F20415420436F6D6D616EC0
:1031A00064204D6F64652E2E2E00415456520D0042
:1031B0005842656520466163746F72792052657369
:1031C000657420536B6574636820737461727465F1
:0231D000640099
:00000001FF
